{
	"contracts/ICO.sol": {
		"ICO": {
			"abi": [
				{
					"inputs": [
						{
							"internalType": "address",
							"name": "_eftt",
							"type": "address"
						},
						{
							"internalType": "address",
							"name": "_dev",
							"type": "address"
						}
					],
					"stateMutability": "payable",
					"type": "constructor"
				},
				{
					"anonymous": false,
					"inputs": [
						{
							"indexed": false,
							"internalType": "uint256",
							"name": "",
							"type": "uint256"
						}
					],
					"name": "Burned",
					"type": "event"
				},
				{
					"anonymous": false,
					"inputs": [
						{
							"indexed": false,
							"internalType": "string",
							"name": "func",
							"type": "string"
						}
					],
					"name": "Log",
					"type": "event"
				},
				{
					"anonymous": false,
					"inputs": [
						{
							"indexed": true,
							"internalType": "bytes32",
							"name": "role",
							"type": "bytes32"
						},
						{
							"indexed": true,
							"internalType": "bytes32",
							"name": "previousAdminRole",
							"type": "bytes32"
						},
						{
							"indexed": true,
							"internalType": "bytes32",
							"name": "newAdminRole",
							"type": "bytes32"
						}
					],
					"name": "RoleAdminChanged",
					"type": "event"
				},
				{
					"anonymous": false,
					"inputs": [
						{
							"indexed": true,
							"internalType": "bytes32",
							"name": "role",
							"type": "bytes32"
						},
						{
							"indexed": true,
							"internalType": "address",
							"name": "account",
							"type": "address"
						},
						{
							"indexed": true,
							"internalType": "address",
							"name": "sender",
							"type": "address"
						}
					],
					"name": "RoleGranted",
					"type": "event"
				},
				{
					"anonymous": false,
					"inputs": [
						{
							"indexed": true,
							"internalType": "bytes32",
							"name": "role",
							"type": "bytes32"
						},
						{
							"indexed": true,
							"internalType": "address",
							"name": "account",
							"type": "address"
						},
						{
							"indexed": true,
							"internalType": "address",
							"name": "sender",
							"type": "address"
						}
					],
					"name": "RoleRevoked",
					"type": "event"
				},
				{
					"anonymous": false,
					"inputs": [
						{
							"indexed": false,
							"internalType": "uint256",
							"name": "",
							"type": "uint256"
						}
					],
					"name": "Sold",
					"type": "event"
				},
				{
					"inputs": [],
					"name": "BURNER_ROLE",
					"outputs": [
						{
							"internalType": "bytes32",
							"name": "",
							"type": "bytes32"
						}
					],
					"stateMutability": "view",
					"type": "function"
				},
				{
					"inputs": [],
					"name": "DEFAULT_ADMIN_ROLE",
					"outputs": [
						{
							"internalType": "bytes32",
							"name": "",
							"type": "bytes32"
						}
					],
					"stateMutability": "view",
					"type": "function"
				},
				{
					"inputs": [],
					"name": "EXTEND_ICO_ROLE",
					"outputs": [
						{
							"internalType": "bytes32",
							"name": "",
							"type": "bytes32"
						}
					],
					"stateMutability": "view",
					"type": "function"
				},
				{
					"inputs": [],
					"name": "INVESTOR_ROLE",
					"outputs": [
						{
							"internalType": "bytes32",
							"name": "",
							"type": "bytes32"
						}
					],
					"stateMutability": "view",
					"type": "function"
				},
				{
					"inputs": [],
					"name": "burned",
					"outputs": [
						{
							"internalType": "bool",
							"name": "",
							"type": "bool"
						}
					],
					"stateMutability": "view",
					"type": "function"
				},
				{
					"inputs": [],
					"name": "buy",
					"outputs": [
						{
							"internalType": "bool",
							"name": "",
							"type": "bool"
						}
					],
					"stateMutability": "payable",
					"type": "function"
				},
				{
					"inputs": [],
					"name": "endICO",
					"outputs": [],
					"stateMutability": "nonpayable",
					"type": "function"
				},
				{
					"inputs": [
						{
							"internalType": "bytes32",
							"name": "role",
							"type": "bytes32"
						}
					],
					"name": "getRoleAdmin",
					"outputs": [
						{
							"internalType": "bytes32",
							"name": "",
							"type": "bytes32"
						}
					],
					"stateMutability": "view",
					"type": "function"
				},
				{
					"inputs": [
						{
							"internalType": "bytes32",
							"name": "role",
							"type": "bytes32"
						},
						{
							"internalType": "address",
							"name": "account",
							"type": "address"
						}
					],
					"name": "grantRole",
					"outputs": [],
					"stateMutability": "nonpayable",
					"type": "function"
				},
				{
					"inputs": [
						{
							"internalType": "bytes32",
							"name": "role",
							"type": "bytes32"
						},
						{
							"internalType": "address",
							"name": "account",
							"type": "address"
						}
					],
					"name": "hasRole",
					"outputs": [
						{
							"internalType": "bool",
							"name": "",
							"type": "bool"
						}
					],
					"stateMutability": "view",
					"type": "function"
				},
				{
					"inputs": [
						{
							"internalType": "bytes32",
							"name": "role",
							"type": "bytes32"
						},
						{
							"internalType": "address",
							"name": "account",
							"type": "address"
						}
					],
					"name": "renounceRole",
					"outputs": [],
					"stateMutability": "nonpayable",
					"type": "function"
				},
				{
					"inputs": [
						{
							"internalType": "bytes32",
							"name": "role",
							"type": "bytes32"
						},
						{
							"internalType": "address",
							"name": "account",
							"type": "address"
						}
					],
					"name": "revokeRole",
					"outputs": [],
					"stateMutability": "nonpayable",
					"type": "function"
				},
				{
					"inputs": [
						{
							"internalType": "bytes4",
							"name": "interfaceId",
							"type": "bytes4"
						}
					],
					"name": "supportsInterface",
					"outputs": [
						{
							"internalType": "bool",
							"name": "",
							"type": "bool"
						}
					],
					"stateMutability": "view",
					"type": "function"
				},
				{
					"inputs": [
						{
							"internalType": "uint256",
							"name": "_amnt",
							"type": "uint256"
						}
					],
					"name": "withdraw",
					"outputs": [],
					"stateMutability": "nonpayable",
					"type": "function"
				},
				{
					"stateMutability": "payable",
					"type": "receive"
				}
			],
			"devdoc": {
				"kind": "dev",
				"methods": {
					"getRoleAdmin(bytes32)": {
						"details": "Returns the admin role that controls `role`. See {grantRole} and {revokeRole}. To change a role's admin, use {_setRoleAdmin}."
					},
					"grantRole(bytes32,address)": {
						"details": "Grants `role` to `account`. If `account` had not been already granted `role`, emits a {RoleGranted} event. Requirements: - the caller must have ``role``'s admin role. May emit a {RoleGranted} event."
					},
					"hasRole(bytes32,address)": {
						"details": "Returns `true` if `account` has been granted `role`."
					},
					"renounceRole(bytes32,address)": {
						"details": "Revokes `role` from the calling account. Roles are often managed via {grantRole} and {revokeRole}: this function's purpose is to provide a mechanism for accounts to lose their privileges if they are compromised (such as when a trusted device is misplaced). If the calling account had been revoked `role`, emits a {RoleRevoked} event. Requirements: - the caller must be `account`. May emit a {RoleRevoked} event."
					},
					"revokeRole(bytes32,address)": {
						"details": "Revokes `role` from `account`. If `account` had been granted `role`, emits a {RoleRevoked} event. Requirements: - the caller must have ``role``'s admin role. May emit a {RoleRevoked} event."
					},
					"supportsInterface(bytes4)": {
						"details": "See {IERC165-supportsInterface}."
					}
				},
				"version": 1
			},
			"evm": {
				"assembly": "    /* \"contracts/ICO.sol\":264:6395  contract ICO is AccessControl{... */\n  mstore(0x40, 0xa0)\n    /* \"contracts/ICO.sol\":945:956  18000000000 */\n  0x0430e23400\n    /* \"contracts/ICO.sol\":928:956  uint256 timeLock=18000000000 */\n  0x04\n  sstore\n    /* \"contracts/ICO.sol\":995:1009  100000 *10**18 */\n  0x152d02c7e14af6800000\n    /* \"contracts/ICO.sol\":978:1009  uint256 maxICO = 100000 *10**18 */\n  0x06\n  sstore\n    /* \"contracts/ICO.sol\":1082:1083  1 */\n  0x01\n    /* \"contracts/ICO.sol\":1062:1083  uint256 ratioMetis =1 */\n  0x09\n  sstore\n    /* \"contracts/ICO.sol\":1148:1153  false */\n  0x00\n    /* \"contracts/ICO.sol\":1126:1153  bool private BURNED = false */\n  0x0b\n  exp(0x0100, 0x00)\n  dup2\n  sload\n  dup2\n  0xff\n  mul\n  not\n  and\n  swap1\n  dup4\n  iszero\n  iszero\n  mul\n  or\n  swap1\n  sstore\n  pop\n    /* \"contracts/ICO.sol\":1238:1245  2592000 */\n  0x278d00\n    /* \"contracts/ICO.sol\":1223:1245  uint256 month =2592000 */\n  0x0c\n  sstore\n    /* \"contracts/ICO.sol\":1266:1272  604800 */\n  0x093a80\n    /* \"contracts/ICO.sol\":1251:1272  uint256 week = 604800 */\n  0x0d\n  sstore\n    /* \"contracts/ICO.sol\":1342:1782  constructor(address _eftt, address _dev) payable {... */\n  mload(0x40)\n  sub(codesize, bytecodeSize)\n  dup1\n  bytecodeSize\n  dup4\n  codecopy\n  dup2\n  dup2\n  add\n  0x40\n  mstore\n  dup2\n  add\n  swap1\n  tag_1\n  swap2\n  swap1\n  tag_2\n  jump\t// in\ntag_1:\n    /* \"contracts/ICO.sol\":1455:1486  _grantRole(INVESTOR_ROLE, _dev) */\n  tag_5\n    /* \"contracts/ICO.sol\":371:397  keccak256(\"INVESTOR_ROLE\") */\n  0xb165298935924f540e4181c03493a5d686c54a0aaeb3f6216de85b7ffbba7738\n    /* \"contracts/ICO.sol\":1481:1485  _dev */\n  dup3\n    /* \"contracts/ICO.sol\":1455:1465  _grantRole */\n  shl(0x20, tag_6)\n    /* \"contracts/ICO.sol\":1455:1486  _grantRole(INVESTOR_ROLE, _dev) */\n  0x20\n  shr\n  jump\t// in\ntag_5:\n    /* \"contracts/ICO.sol\":1496:1525  _grantRole(BURNER_ROLE, _dev) */\n  tag_7\n    /* \"contracts/ICO.sol\":441:465  keccak256(\"BURNER_ROLE\") */\n  0x3c11d16cbaffd01df69ce1c404f6340ee057498f5f00246190ea54220576a848\n    /* \"contracts/ICO.sol\":1520:1524  _dev */\n  dup3\n    /* \"contracts/ICO.sol\":1496:1506  _grantRole */\n  shl(0x20, tag_6)\n    /* \"contracts/ICO.sol\":1496:1525  _grantRole(BURNER_ROLE, _dev) */\n  0x20\n  shr\n  jump\t// in\ntag_7:\n    /* \"contracts/ICO.sol\":1535:1568  _grantRole(EXTEND_ICO_ROLE, _dev) */\n  tag_8\n    /* \"contracts/ICO.sol\":513:541  keccak256(\"EXTEND_ICO_ROLE\") */\n  0x305786ab5904b5bb20fe6d91992844b39d648cdcb82f328edc2d6a80bfbb3289\n    /* \"contracts/ICO.sol\":1563:1567  _dev */\n  dup3\n    /* \"contracts/ICO.sol\":1535:1545  _grantRole */\n  shl(0x20, tag_6)\n    /* \"contracts/ICO.sol\":1535:1568  _grantRole(EXTEND_ICO_ROLE, _dev) */\n  0x20\n  shr\n  jump\t// in\ntag_8:\n    /* \"contracts/ICO.sol\":1594:1604  msg.sender */\n  caller\n    /* \"contracts/ICO.sol\":1578:1583  owner */\n  0x01\n  0x00\n    /* \"contracts/ICO.sol\":1578:1605  owner = payable(msg.sender) */\n  0x0100\n  exp\n  dup2\n  sload\n  dup2\n  0xffffffffffffffffffffffffffffffffffffffff\n  mul\n  not\n  and\n  swap1\n  dup4\n  0xffffffffffffffffffffffffffffffffffffffff\n  and\n  mul\n  or\n  swap1\n  sstore\n  pop\n    /* \"contracts/ICO.sol\":1628:1633  _eftt */\n  dup2\n    /* \"contracts/ICO.sol\":1615:1619  eftt */\n  0x05\n  0x00\n    /* \"contracts/ICO.sol\":1615:1634  eftt = IEFTT(_eftt) */\n  0x0100\n  exp\n  dup2\n  sload\n  dup2\n  0xffffffffffffffffffffffffffffffffffffffff\n  mul\n  not\n  and\n  swap1\n  dup4\n  0xffffffffffffffffffffffffffffffffffffffff\n  and\n  mul\n  or\n  swap1\n  sstore\n  pop\n    /* \"contracts/ICO.sol\":1668:1683  block.timestamp */\n  timestamp\n    /* \"contracts/ICO.sol\":1652:1683  creationtTime = block.timestamp */\n  0x80\n  dup2\n  dup2\n  mstore\n  pop\n  pop\n    /* \"contracts/ICO.sol\":1708:1711  111 */\n  0x6f\n    /* \"contracts/ICO.sol\":1693:1702  timeLocks */\n  0x0a\n    /* \"contracts/ICO.sol\":1693:1705  timeLocks[0] */\n  0x00\n    /* \"contracts/ICO.sol\":1703:1704  0 */\n  dup1\n    /* \"contracts/ICO.sol\":1693:1705  timeLocks[0] */\n  dup2\n  mstore\n  0x20\n  add\n  swap1\n  dup2\n  mstore\n  0x20\n  add\n  0x00\n  keccak256\n    /* \"contracts/ICO.sol\":1693:1711  timeLocks[0] = 111 */\n  dup2\n  swap1\n  sstore\n  pop\n    /* \"contracts/ICO.sol\":1736:1739  222 */\n  0xde\n    /* \"contracts/ICO.sol\":1721:1730  timeLocks */\n  0x0a\n    /* \"contracts/ICO.sol\":1721:1733  timeLocks[1] */\n  0x00\n    /* \"contracts/ICO.sol\":1731:1732  1 */\n  0x01\n    /* \"contracts/ICO.sol\":1721:1733  timeLocks[1] */\n  dup2\n  mstore\n  0x20\n  add\n  swap1\n  dup2\n  mstore\n  0x20\n  add\n  0x00\n  keccak256\n    /* \"contracts/ICO.sol\":1721:1739  timeLocks[1] = 222 */\n  dup2\n  swap1\n  sstore\n  pop\n    /* \"contracts/ICO.sol\":1764:1767  333 */\n  0x014d\n    /* \"contracts/ICO.sol\":1749:1758  timeLocks */\n  0x0a\n    /* \"contracts/ICO.sol\":1749:1761  timeLocks[2] */\n  0x00\n    /* \"contracts/ICO.sol\":1759:1760  2 */\n  0x02\n    /* \"contracts/ICO.sol\":1749:1761  timeLocks[2] */\n  dup2\n  mstore\n  0x20\n  add\n  swap1\n  dup2\n  mstore\n  0x20\n  add\n  0x00\n  keccak256\n    /* \"contracts/ICO.sol\":1749:1767  timeLocks[2] = 333 */\n  dup2\n  swap1\n  sstore\n  pop\n    /* \"contracts/ICO.sol\":1342:1782  constructor(address _eftt, address _dev) payable {... */\n  pop\n  pop\n    /* \"contracts/ICO.sol\":264:6395  contract ICO is AccessControl{... */\n  jump(tag_9)\n    /* \"@openzeppelin/contracts/access/AccessControl.sol\":7461:7694  function _grantRole(bytes32 role, address account) internal virtual {... */\ntag_6:\n    /* \"@openzeppelin/contracts/access/AccessControl.sol\":7544:7566  hasRole(role, account) */\n  tag_11\n    /* \"@openzeppelin/contracts/access/AccessControl.sol\":7552:7556  role */\n  dup3\n    /* \"@openzeppelin/contracts/access/AccessControl.sol\":7558:7565  account */\n  dup3\n    /* \"@openzeppelin/contracts/access/AccessControl.sol\":7544:7551  hasRole */\n  shl(0x20, tag_12)\n    /* \"@openzeppelin/contracts/access/AccessControl.sol\":7544:7566  hasRole(role, account) */\n  0x20\n  shr\n  jump\t// in\ntag_11:\n    /* \"@openzeppelin/contracts/access/AccessControl.sol\":7539:7688  if (!hasRole(role, account)) {... */\n  tag_13\n  jumpi\n    /* \"@openzeppelin/contracts/access/AccessControl.sol\":7614:7618  true */\n  0x01\n    /* \"@openzeppelin/contracts/access/AccessControl.sol\":7582:7588  _roles */\n  0x00\n    /* \"@openzeppelin/contracts/access/AccessControl.sol\":7582:7594  _roles[role] */\n  dup1\n    /* \"@openzeppelin/contracts/access/AccessControl.sol\":7589:7593  role */\n  dup5\n    /* \"@openzeppelin/contracts/access/AccessControl.sol\":7582:7594  _roles[role] */\n  dup2\n  mstore\n  0x20\n  add\n  swap1\n  dup2\n  mstore\n  0x20\n  add\n  0x00\n  keccak256\n    /* \"@openzeppelin/contracts/access/AccessControl.sol\":7582:7602  _roles[role].members */\n  0x00\n  add\n    /* \"@openzeppelin/contracts/access/AccessControl.sol\":7582:7611  _roles[role].members[account] */\n  0x00\n    /* \"@openzeppelin/contracts/access/AccessControl.sol\":7603:7610  account */\n  dup4\n    /* \"@openzeppelin/contracts/access/AccessControl.sol\":7582:7611  _roles[role].members[account] */\n  0xffffffffffffffffffffffffffffffffffffffff\n  and\n  0xffffffffffffffffffffffffffffffffffffffff\n  and\n  dup2\n  mstore\n  0x20\n  add\n  swap1\n  dup2\n  mstore\n  0x20\n  add\n  0x00\n  keccak256\n  0x00\n    /* \"@openzeppelin/contracts/access/AccessControl.sol\":7582:7618  _roles[role].members[account] = true */\n  0x0100\n  exp\n  dup2\n  sload\n  dup2\n  0xff\n  mul\n  not\n  and\n  swap1\n  dup4\n  iszero\n  iszero\n  mul\n  or\n  swap1\n  sstore\n  pop\n    /* \"@openzeppelin/contracts/access/AccessControl.sol\":7664:7676  _msgSender() */\n  tag_14\n    /* \"@openzeppelin/contracts/access/AccessControl.sol\":7664:7674  _msgSender */\n  shl(0x20, tag_15)\n    /* \"@openzeppelin/contracts/access/AccessControl.sol\":7664:7676  _msgSender() */\n  0x20\n  shr\n  jump\t// in\ntag_14:\n    /* \"@openzeppelin/contracts/access/AccessControl.sol\":7637:7677  RoleGranted(role, account, _msgSender()) */\n  0xffffffffffffffffffffffffffffffffffffffff\n  and\n    /* \"@openzeppelin/contracts/access/AccessControl.sol\":7655:7662  account */\n  dup2\n    /* \"@openzeppelin/contracts/access/AccessControl.sol\":7637:7677  RoleGranted(role, account, _msgSender()) */\n  0xffffffffffffffffffffffffffffffffffffffff\n  and\n    /* \"@openzeppelin/contracts/access/AccessControl.sol\":7649:7653  role */\n  dup4\n    /* \"@openzeppelin/contracts/access/AccessControl.sol\":7637:7677  RoleGranted(role, account, _msgSender()) */\n  0x2f8788117e7eff1d82e926ec794901d17c78024a50270940304540a733656f0d\n  mload(0x40)\n  mload(0x40)\n  dup1\n  swap2\n  sub\n  swap1\n  log4\n    /* \"@openzeppelin/contracts/access/AccessControl.sol\":7539:7688  if (!hasRole(role, account)) {... */\ntag_13:\n    /* \"@openzeppelin/contracts/access/AccessControl.sol\":7461:7694  function _grantRole(bytes32 role, address account) internal virtual {... */\n  pop\n  pop\n  jump\t// out\n    /* \"@openzeppelin/contracts/access/AccessControl.sol\":2895:3040  function hasRole(bytes32 role, address account) public view virtual override returns (bool) {... */\ntag_12:\n    /* \"@openzeppelin/contracts/access/AccessControl.sol\":2981:2985  bool */\n  0x00\n    /* \"@openzeppelin/contracts/access/AccessControl.sol\":3004:3010  _roles */\n  dup1\n    /* \"@openzeppelin/contracts/access/AccessControl.sol\":3004:3016  _roles[role] */\n  0x00\n    /* \"@openzeppelin/contracts/access/AccessControl.sol\":3011:3015  role */\n  dup5\n    /* \"@openzeppelin/contracts/access/AccessControl.sol\":3004:3016  _roles[role] */\n  dup2\n  mstore\n  0x20\n  add\n  swap1\n  dup2\n  mstore\n  0x20\n  add\n  0x00\n  keccak256\n    /* \"@openzeppelin/contracts/access/AccessControl.sol\":3004:3024  _roles[role].members */\n  0x00\n  add\n    /* \"@openzeppelin/contracts/access/AccessControl.sol\":3004:3033  _roles[role].members[account] */\n  0x00\n    /* \"@openzeppelin/contracts/access/AccessControl.sol\":3025:3032  account */\n  dup4\n    /* \"@openzeppelin/contracts/access/AccessControl.sol\":3004:3033  _roles[role].members[account] */\n  0xffffffffffffffffffffffffffffffffffffffff\n  and\n  0xffffffffffffffffffffffffffffffffffffffff\n  and\n  dup2\n  mstore\n  0x20\n  add\n  swap1\n  dup2\n  mstore\n  0x20\n  add\n  0x00\n  keccak256\n  0x00\n  swap1\n  sload\n  swap1\n  0x0100\n  exp\n  swap1\n  div\n  0xff\n  and\n    /* \"@openzeppelin/contracts/access/AccessControl.sol\":2997:3033  return _roles[role].members[account] */\n  swap1\n  pop\n    /* \"@openzeppelin/contracts/access/AccessControl.sol\":2895:3040  function hasRole(bytes32 role, address account) public view virtual override returns (bool) {... */\n  swap3\n  swap2\n  pop\n  pop\n  jump\t// out\n    /* \"@openzeppelin/contracts/utils/Context.sol\":640:736  function _msgSender() internal view virtual returns (address) {... */\ntag_15:\n    /* \"@openzeppelin/contracts/utils/Context.sol\":693:700  address */\n  0x00\n    /* \"@openzeppelin/contracts/utils/Context.sol\":719:729  msg.sender */\n  caller\n    /* \"@openzeppelin/contracts/utils/Context.sol\":712:729  return msg.sender */\n  swap1\n  pop\n    /* \"@openzeppelin/contracts/utils/Context.sol\":640:736  function _msgSender() internal view virtual returns (address) {... */\n  swap1\n  jump\t// out\n    /* \"#utility.yul\":88:205   */\ntag_19:\n    /* \"#utility.yul\":197:198   */\n  0x00\n    /* \"#utility.yul\":194:195   */\n  dup1\n    /* \"#utility.yul\":187:199   */\n  revert\n    /* \"#utility.yul\":334:460   */\ntag_21:\n    /* \"#utility.yul\":371:378   */\n  0x00\n    /* \"#utility.yul\":411:453   */\n  0xffffffffffffffffffffffffffffffffffffffff\n    /* \"#utility.yul\":404:409   */\n  dup3\n    /* \"#utility.yul\":400:454   */\n  and\n    /* \"#utility.yul\":389:454   */\n  swap1\n  pop\n    /* \"#utility.yul\":334:460   */\n  swap2\n  swap1\n  pop\n  jump\t// out\n    /* \"#utility.yul\":466:562   */\ntag_22:\n    /* \"#utility.yul\":503:510   */\n  0x00\n    /* \"#utility.yul\":532:556   */\n  tag_31\n    /* \"#utility.yul\":550:555   */\n  dup3\n    /* \"#utility.yul\":532:556   */\n  tag_21\n  jump\t// in\ntag_31:\n    /* \"#utility.yul\":521:556   */\n  swap1\n  pop\n    /* \"#utility.yul\":466:562   */\n  swap2\n  swap1\n  pop\n  jump\t// out\n    /* \"#utility.yul\":568:690   */\ntag_23:\n    /* \"#utility.yul\":641:665   */\n  tag_33\n    /* \"#utility.yul\":659:664   */\n  dup2\n    /* \"#utility.yul\":641:665   */\n  tag_22\n  jump\t// in\ntag_33:\n    /* \"#utility.yul\":634:639   */\n  dup2\n    /* \"#utility.yul\":631:666   */\n  eq\n    /* \"#utility.yul\":621:684   */\n  tag_34\n  jumpi\n    /* \"#utility.yul\":680:681   */\n  0x00\n    /* \"#utility.yul\":677:678   */\n  dup1\n    /* \"#utility.yul\":670:682   */\n  revert\n    /* \"#utility.yul\":621:684   */\ntag_34:\n    /* \"#utility.yul\":568:690   */\n  pop\n  jump\t// out\n    /* \"#utility.yul\":696:839   */\ntag_24:\n    /* \"#utility.yul\":753:758   */\n  0x00\n    /* \"#utility.yul\":784:790   */\n  dup2\n    /* \"#utility.yul\":778:791   */\n  mload\n    /* \"#utility.yul\":769:791   */\n  swap1\n  pop\n    /* \"#utility.yul\":800:833   */\n  tag_36\n    /* \"#utility.yul\":827:832   */\n  dup2\n    /* \"#utility.yul\":800:833   */\n  tag_23\n  jump\t// in\ntag_36:\n    /* \"#utility.yul\":696:839   */\n  swap3\n  swap2\n  pop\n  pop\n  jump\t// out\n    /* \"#utility.yul\":845:1352   */\ntag_2:\n    /* \"#utility.yul\":924:930   */\n  0x00\n    /* \"#utility.yul\":932:938   */\n  dup1\n    /* \"#utility.yul\":981:983   */\n  0x40\n    /* \"#utility.yul\":969:978   */\n  dup4\n    /* \"#utility.yul\":960:967   */\n  dup6\n    /* \"#utility.yul\":956:979   */\n  sub\n    /* \"#utility.yul\":952:984   */\n  slt\n    /* \"#utility.yul\":949:1068   */\n  iszero\n  tag_38\n  jumpi\n    /* \"#utility.yul\":987:1066   */\n  tag_39\n  tag_19\n  jump\t// in\ntag_39:\n    /* \"#utility.yul\":949:1068   */\ntag_38:\n    /* \"#utility.yul\":1107:1108   */\n  0x00\n    /* \"#utility.yul\":1132:1196   */\n  tag_40\n    /* \"#utility.yul\":1188:1195   */\n  dup6\n    /* \"#utility.yul\":1179:1185   */\n  dup3\n    /* \"#utility.yul\":1168:1177   */\n  dup7\n    /* \"#utility.yul\":1164:1186   */\n  add\n    /* \"#utility.yul\":1132:1196   */\n  tag_24\n  jump\t// in\ntag_40:\n    /* \"#utility.yul\":1122:1196   */\n  swap3\n  pop\n    /* \"#utility.yul\":1078:1206   */\n  pop\n    /* \"#utility.yul\":1245:1247   */\n  0x20\n    /* \"#utility.yul\":1271:1335   */\n  tag_41\n    /* \"#utility.yul\":1327:1334   */\n  dup6\n    /* \"#utility.yul\":1318:1324   */\n  dup3\n    /* \"#utility.yul\":1307:1316   */\n  dup7\n    /* \"#utility.yul\":1303:1325   */\n  add\n    /* \"#utility.yul\":1271:1335   */\n  tag_24\n  jump\t// in\ntag_41:\n    /* \"#utility.yul\":1261:1335   */\n  swap2\n  pop\n    /* \"#utility.yul\":1216:1345   */\n  pop\n    /* \"#utility.yul\":845:1352   */\n  swap3\n  pop\n  swap3\n  swap1\n  pop\n  jump\t// out\n    /* \"contracts/ICO.sol\":264:6395  contract ICO is AccessControl{... */\ntag_9:\n  mload(0x80)\n  codecopy(0x00, dataOffset(sub_0), dataSize(sub_0))\n  0x00\n  assignImmutable(\"0x9dbe85ac7b254680bdffe11fd8ce3b07ca073a131ee68edcdd4d9f627ae11f\")\n  return(0x00, dataSize(sub_0))\nstop\n\nsub_0: assembly {\n        /* \"contracts/ICO.sol\":264:6395  contract ICO is AccessControl{... */\n      mstore(0x40, 0x80)\n      jumpi(tag_1, lt(calldatasize, 0x04))\n      shr(0xe0, calldataload(0x00))\n      dup1\n      0x73f42561\n      gt\n      tag_17\n      jumpi\n      dup1\n      0xa217fddf\n      gt\n      tag_18\n      jumpi\n      dup1\n      0xa217fddf\n      eq\n      tag_13\n      jumpi\n      dup1\n      0xa6f2ae3a\n      eq\n      tag_14\n      jumpi\n      dup1\n      0xb1ac51f8\n      eq\n      tag_15\n      jumpi\n      dup1\n      0xd547741f\n      eq\n      tag_16\n      jumpi\n      jump(tag_2)\n    tag_18:\n      dup1\n      0x73f42561\n      eq\n      tag_10\n      jumpi\n      dup1\n      0x76082a5e\n      eq\n      tag_11\n      jumpi\n      dup1\n      0x91d14854\n      eq\n      tag_12\n      jumpi\n      jump(tag_2)\n    tag_17:\n      dup1\n      0x2e1a7d4d\n      gt\n      tag_19\n      jumpi\n      dup1\n      0x2e1a7d4d\n      eq\n      tag_6\n      jumpi\n      dup1\n      0x2f2ff15d\n      eq\n      tag_7\n      jumpi\n      dup1\n      0x36568abe\n      eq\n      tag_8\n      jumpi\n      dup1\n      0x4f248409\n      eq\n      tag_9\n      jumpi\n      jump(tag_2)\n    tag_19:\n      dup1\n      0x01ffc9a7\n      eq\n      tag_3\n      jumpi\n      dup1\n      0x248a9ca3\n      eq\n      tag_4\n      jumpi\n      dup1\n      0x282c51f3\n      eq\n      tag_5\n      jumpi\n      jump(tag_2)\n    tag_1:\n      jumpi(tag_2, calldatasize)\n        /* \"contracts/ICO.sol\":2438:2457  Log(\"fallback hit\") */\n      0xcf34ef537ac33ee1ac626ca1587a0a7e8e51561e5514f8cb36afa1c5102b3bab\n      mload(0x40)\n      tag_22\n      swap1\n      tag_23\n      jump\t// in\n    tag_22:\n      mload(0x40)\n      dup1\n      swap2\n      sub\n      swap1\n      log1\n        /* \"contracts/ICO.sol\":2467:2472  buy() */\n      tag_24\n        /* \"contracts/ICO.sol\":2467:2470  buy */\n      tag_25\n        /* \"contracts/ICO.sol\":2467:2472  buy() */\n      jump\t// in\n    tag_24:\n      stop\n        /* \"contracts/ICO.sol\":264:6395  contract ICO is AccessControl{... */\n    tag_2:\n      0x00\n      dup1\n      revert\n        /* \"@openzeppelin/contracts/access/AccessControl.sol\":2606:2808  function supportsInterface(bytes4 interfaceId) public view virtual override returns (bool) {... */\n    tag_3:\n      callvalue\n      dup1\n      iszero\n      tag_26\n      jumpi\n      0x00\n      dup1\n      revert\n    tag_26:\n      pop\n      tag_27\n      0x04\n      dup1\n      calldatasize\n      sub\n      dup2\n      add\n      swap1\n      tag_28\n      swap2\n      swap1\n      tag_29\n      jump\t// in\n    tag_28:\n      tag_30\n      jump\t// in\n    tag_27:\n      mload(0x40)\n      tag_31\n      swap2\n      swap1\n      tag_32\n      jump\t// in\n    tag_31:\n      mload(0x40)\n      dup1\n      swap2\n      sub\n      swap1\n      return\n        /* \"@openzeppelin/contracts/access/AccessControl.sol\":4378:4507  function getRoleAdmin(bytes32 role) public view virtual override returns (bytes32) {... */\n    tag_4:\n      callvalue\n      dup1\n      iszero\n      tag_33\n      jumpi\n      0x00\n      dup1\n      revert\n    tag_33:\n      pop\n      tag_34\n      0x04\n      dup1\n      calldatasize\n      sub\n      dup2\n      add\n      swap1\n      tag_35\n      swap2\n      swap1\n      tag_36\n      jump\t// in\n    tag_35:\n      tag_37\n      jump\t// in\n    tag_34:\n      mload(0x40)\n      tag_38\n      swap2\n      swap1\n      tag_39\n      jump\t// in\n    tag_38:\n      mload(0x40)\n      dup1\n      swap2\n      sub\n      swap1\n      return\n        /* \"contracts/ICO.sol\":403:465  bytes32 public constant BURNER_ROLE = keccak256(\"BURNER_ROLE\") */\n    tag_5:\n      callvalue\n      dup1\n      iszero\n      tag_40\n      jumpi\n      0x00\n      dup1\n      revert\n    tag_40:\n      pop\n      tag_41\n      tag_42\n      jump\t// in\n    tag_41:\n      mload(0x40)\n      tag_43\n      swap2\n      swap1\n      tag_39\n      jump\t// in\n    tag_43:\n      mload(0x40)\n      dup1\n      swap2\n      sub\n      swap1\n      return\n        /* \"contracts/ICO.sol\":2957:3651  function withdraw(uint256 _amnt) onlyRole(INVESTOR_ROLE) public {... */\n    tag_6:\n      callvalue\n      dup1\n      iszero\n      tag_44\n      jumpi\n      0x00\n      dup1\n      revert\n    tag_44:\n      pop\n      tag_45\n      0x04\n      dup1\n      calldatasize\n      sub\n      dup2\n      add\n      swap1\n      tag_46\n      swap2\n      swap1\n      tag_47\n      jump\t// in\n    tag_46:\n      tag_48\n      jump\t// in\n    tag_45:\n      stop\n        /* \"@openzeppelin/contracts/access/AccessControl.sol\":4803:4948  function grantRole(bytes32 role, address account) public virtual override onlyRole(getRoleAdmin(role)) {... */\n    tag_7:\n      callvalue\n      dup1\n      iszero\n      tag_49\n      jumpi\n      0x00\n      dup1\n      revert\n    tag_49:\n      pop\n      tag_50\n      0x04\n      dup1\n      calldatasize\n      sub\n      dup2\n      add\n      swap1\n      tag_51\n      swap2\n      swap1\n      tag_52\n      jump\t// in\n    tag_51:\n      tag_53\n      jump\t// in\n    tag_50:\n      stop\n        /* \"@openzeppelin/contracts/access/AccessControl.sol\":5912:6126  function renounceRole(bytes32 role, address account) public virtual override {... */\n    tag_8:\n      callvalue\n      dup1\n      iszero\n      tag_54\n      jumpi\n      0x00\n      dup1\n      revert\n    tag_54:\n      pop\n      tag_55\n      0x04\n      dup1\n      calldatasize\n      sub\n      dup2\n      add\n      swap1\n      tag_56\n      swap2\n      swap1\n      tag_52\n      jump\t// in\n    tag_56:\n      tag_57\n      jump\t// in\n    tag_55:\n      stop\n        /* \"contracts/ICO.sol\":3657:3843  function endICO() public _timeCheck onlyRole(BURNER_ROLE) _burnCheck{... */\n    tag_9:\n      callvalue\n      dup1\n      iszero\n      tag_58\n      jumpi\n      0x00\n      dup1\n      revert\n    tag_58:\n      pop\n      tag_59\n      tag_60\n      jump\t// in\n    tag_59:\n      stop\n        /* \"contracts/ICO.sol\":6320:6393  function burned() public view returns(bool){... */\n    tag_10:\n      callvalue\n      dup1\n      iszero\n      tag_61\n      jumpi\n      0x00\n      dup1\n      revert\n    tag_61:\n      pop\n      tag_62\n      tag_63\n      jump\t// in\n    tag_62:\n      mload(0x40)\n      tag_64\n      swap2\n      swap1\n      tag_32\n      jump\t// in\n    tag_64:\n      mload(0x40)\n      dup1\n      swap2\n      sub\n      swap1\n      return\n        /* \"contracts/ICO.sol\":331:397  bytes32 public constant INVESTOR_ROLE = keccak256(\"INVESTOR_ROLE\") */\n    tag_11:\n      callvalue\n      dup1\n      iszero\n      tag_65\n      jumpi\n      0x00\n      dup1\n      revert\n    tag_65:\n      pop\n      tag_66\n      tag_67\n      jump\t// in\n    tag_66:\n      mload(0x40)\n      tag_68\n      swap2\n      swap1\n      tag_39\n      jump\t// in\n    tag_68:\n      mload(0x40)\n      dup1\n      swap2\n      sub\n      swap1\n      return\n        /* \"@openzeppelin/contracts/access/AccessControl.sol\":2895:3040  function hasRole(bytes32 role, address account) public view virtual override returns (bool) {... */\n    tag_12:\n      callvalue\n      dup1\n      iszero\n      tag_69\n      jumpi\n      0x00\n      dup1\n      revert\n    tag_69:\n      pop\n      tag_70\n      0x04\n      dup1\n      calldatasize\n      sub\n      dup2\n      add\n      swap1\n      tag_71\n      swap2\n      swap1\n      tag_52\n      jump\t// in\n    tag_71:\n      tag_72\n      jump\t// in\n    tag_70:\n      mload(0x40)\n      tag_73\n      swap2\n      swap1\n      tag_32\n      jump\t// in\n    tag_73:\n      mload(0x40)\n      dup1\n      swap2\n      sub\n      swap1\n      return\n        /* \"@openzeppelin/contracts/access/AccessControl.sol\":2027:2076  bytes32 public constant DEFAULT_ADMIN_ROLE = 0x00 */\n    tag_13:\n      callvalue\n      dup1\n      iszero\n      tag_74\n      jumpi\n      0x00\n      dup1\n      revert\n    tag_74:\n      pop\n      tag_75\n      tag_76\n      jump\t// in\n    tag_75:\n      mload(0x40)\n      tag_77\n      swap2\n      swap1\n      tag_39\n      jump\t// in\n    tag_77:\n      mload(0x40)\n      dup1\n      swap2\n      sub\n      swap1\n      return\n        /* \"contracts/ICO.sol\":2486:2951  function buy() public payable _timeCheck returns(bool){... */\n    tag_14:\n      tag_78\n      tag_25\n      jump\t// in\n    tag_78:\n      mload(0x40)\n      tag_79\n      swap2\n      swap1\n      tag_32\n      jump\t// in\n    tag_79:\n      mload(0x40)\n      dup1\n      swap2\n      sub\n      swap1\n      return\n        /* \"contracts/ICO.sol\":471:541  bytes32 public constant EXTEND_ICO_ROLE = keccak256(\"EXTEND_ICO_ROLE\") */\n    tag_15:\n      callvalue\n      dup1\n      iszero\n      tag_80\n      jumpi\n      0x00\n      dup1\n      revert\n    tag_80:\n      pop\n      tag_81\n      tag_82\n      jump\t// in\n    tag_81:\n      mload(0x40)\n      tag_83\n      swap2\n      swap1\n      tag_39\n      jump\t// in\n    tag_83:\n      mload(0x40)\n      dup1\n      swap2\n      sub\n      swap1\n      return\n        /* \"@openzeppelin/contracts/access/AccessControl.sol\":5228:5375  function revokeRole(bytes32 role, address account) public virtual override onlyRole(getRoleAdmin(role)) {... */\n    tag_16:\n      callvalue\n      dup1\n      iszero\n      tag_84\n      jumpi\n      0x00\n      dup1\n      revert\n    tag_84:\n      pop\n      tag_85\n      0x04\n      dup1\n      calldatasize\n      sub\n      dup2\n      add\n      swap1\n      tag_86\n      swap2\n      swap1\n      tag_52\n      jump\t// in\n    tag_86:\n      tag_87\n      jump\t// in\n    tag_85:\n      stop\n        /* \"contracts/ICO.sol\":2486:2951  function buy() public payable _timeCheck returns(bool){... */\n    tag_25:\n        /* \"contracts/ICO.sol\":2535:2539  bool */\n      0x00\n        /* \"contracts/ICO.sol\":1922:1930  timeLock */\n      sload(0x04)\n        /* \"contracts/ICO.sol\":1904:1919  block.timestamp */\n      timestamp\n        /* \"contracts/ICO.sol\":1904:1930  block.timestamp < timeLock */\n      lt\n        /* \"contracts/ICO.sol\":1896:1949  require(block.timestamp < timeLock,\"ICO is over :( \") */\n      tag_89\n      jumpi\n      mload(0x40)\n      0x08c379a000000000000000000000000000000000000000000000000000000000\n      dup2\n      mstore\n      0x04\n      add\n      tag_90\n      swap1\n      tag_91\n      jump\t// in\n    tag_90:\n      mload(0x40)\n      dup1\n      swap2\n      sub\n      swap1\n      revert\n    tag_89:\n        /* \"contracts/ICO.sol\":2570:2571  0 */\n      0x00\n        /* \"contracts/ICO.sol\":2558:2567  msg.value */\n      callvalue\n        /* \"contracts/ICO.sol\":2558:2571  msg.value > 0 */\n      gt\n        /* \"contracts/ICO.sol\":2550:2593  require(msg.value > 0,\" please send metis\") */\n      tag_93\n      jumpi\n      mload(0x40)\n      0x08c379a000000000000000000000000000000000000000000000000000000000\n      dup2\n      mstore\n      0x04\n      add\n      tag_94\n      swap1\n      tag_95\n      jump\t// in\n    tag_94:\n      mload(0x40)\n      dup1\n      swap2\n      sub\n      swap1\n      revert\n    tag_93:\n        /* \"contracts/ICO.sol\":2603:2620  uint256 buyAmount */\n      0x00\n        /* \"contracts/ICO.sol\":2623:2644  conversion(msg.value) */\n      tag_96\n        /* \"contracts/ICO.sol\":2634:2643  msg.value */\n      callvalue\n        /* \"contracts/ICO.sol\":2623:2633  conversion */\n      tag_97\n        /* \"contracts/ICO.sol\":2623:2644  conversion(msg.value) */\n      jump\t// in\n    tag_96:\n        /* \"contracts/ICO.sol\":2603:2644  uint256 buyAmount = conversion(msg.value) */\n      swap1\n      pop\n        /* \"contracts/ICO.sol\":2686:2692  maxICO */\n      sload(0x06)\n        /* \"contracts/ICO.sol\":2675:2683  SoldEFTT */\n      sload(0x08)\n        /* \"contracts/ICO.sol\":2663:2672  buyAmount */\n      dup3\n        /* \"contracts/ICO.sol\":2663:2683  buyAmount + SoldEFTT */\n      tag_98\n      swap2\n      swap1\n      tag_99\n      jump\t// in\n    tag_98:\n        /* \"contracts/ICO.sol\":2663:2692  buyAmount + SoldEFTT < maxICO */\n      lt\n        /* \"contracts/ICO.sol\":2655:2723  require(buyAmount + SoldEFTT < maxICO, \"exceeds the total for sale\") */\n      tag_100\n      jumpi\n      mload(0x40)\n      0x08c379a000000000000000000000000000000000000000000000000000000000\n      dup2\n      mstore\n      0x04\n      add\n      tag_101\n      swap1\n      tag_102\n      jump\t// in\n    tag_101:\n      mload(0x40)\n      dup1\n      swap2\n      sub\n      swap1\n      revert\n    tag_100:\n        /* \"contracts/ICO.sol\":2733:2737  eftt */\n      0x05\n      0x00\n      swap1\n      sload\n      swap1\n      0x0100\n      exp\n      swap1\n      div\n      0xffffffffffffffffffffffffffffffffffffffff\n      and\n        /* \"contracts/ICO.sol\":2733:2745  eftt.approve */\n      0xffffffffffffffffffffffffffffffffffffffff\n      and\n      0x095ea7b3\n        /* \"contracts/ICO.sol\":2755:2759  this */\n      address\n        /* \"contracts/ICO.sol\":2762:2771  buyAmount */\n      dup4\n        /* \"contracts/ICO.sol\":2733:2772  eftt.approve( address(this), buyAmount) */\n      mload(0x40)\n      dup4\n      0xffffffff\n      and\n      0xe0\n      shl\n      dup2\n      mstore\n      0x04\n      add\n      tag_103\n      swap3\n      swap2\n      swap1\n      tag_104\n      jump\t// in\n    tag_103:\n      0x20\n      mload(0x40)\n      dup1\n      dup4\n      sub\n      dup2\n      0x00\n      dup8\n      gas\n      call\n      iszero\n      dup1\n      iszero\n      tag_106\n      jumpi\n      returndatasize\n      0x00\n      dup1\n      returndatacopy\n      revert(0x00, returndatasize)\n    tag_106:\n      pop\n      pop\n      pop\n      pop\n      mload(0x40)\n      returndatasize\n      not(0x1f)\n      0x1f\n      dup3\n      add\n      and\n      dup3\n      add\n      dup1\n      0x40\n      mstore\n      pop\n      dup2\n      add\n      swap1\n      tag_107\n      swap2\n      swap1\n      tag_108\n      jump\t// in\n    tag_107:\n      pop\n        /* \"contracts/ICO.sol\":2782:2786  eftt */\n      0x05\n      0x00\n      swap1\n      sload\n      swap1\n      0x0100\n      exp\n      swap1\n      div\n      0xffffffffffffffffffffffffffffffffffffffff\n      and\n        /* \"contracts/ICO.sol\":2782:2795  eftt.transfer */\n      0xffffffffffffffffffffffffffffffffffffffff\n      and\n      0xa9059cbb\n        /* \"contracts/ICO.sol\":2796:2806  msg.sender */\n      caller\n        /* \"contracts/ICO.sol\":2808:2817  buyAmount */\n      dup4\n        /* \"contracts/ICO.sol\":2782:2818  eftt.transfer(msg.sender, buyAmount) */\n      mload(0x40)\n      dup4\n      0xffffffff\n      and\n      0xe0\n      shl\n      dup2\n      mstore\n      0x04\n      add\n      tag_109\n      swap3\n      swap2\n      swap1\n      tag_104\n      jump\t// in\n    tag_109:\n      0x20\n      mload(0x40)\n      dup1\n      dup4\n      sub\n      dup2\n      0x00\n      dup8\n      gas\n      call\n      iszero\n      dup1\n      iszero\n      tag_111\n      jumpi\n      returndatasize\n      0x00\n      dup1\n      returndatacopy\n      revert(0x00, returndatasize)\n    tag_111:\n      pop\n      pop\n      pop\n      pop\n      mload(0x40)\n      returndatasize\n      not(0x1f)\n      0x1f\n      dup3\n      add\n      and\n      dup3\n      add\n      dup1\n      0x40\n      mstore\n      pop\n      dup2\n      add\n      swap1\n      tag_112\n      swap2\n      swap1\n      tag_108\n      jump\t// in\n    tag_112:\n      pop\n        /* \"contracts/ICO.sol\":2851:2859  SoldEFTT */\n      sload(0x08)\n        /* \"contracts/ICO.sol\":2839:2848  buyAmount */\n      dup2\n        /* \"contracts/ICO.sol\":2839:2859  buyAmount + SoldEFTT */\n      tag_113\n      swap2\n      swap1\n      tag_99\n      jump\t// in\n    tag_113:\n        /* \"contracts/ICO.sol\":2828:2836  SoldEFTT */\n      0x08\n        /* \"contracts/ICO.sol\":2828:2859  SoldEFTT = buyAmount + SoldEFTT */\n      dup2\n      swap1\n      sstore\n      pop\n        /* \"contracts/ICO.sol\":2884:2893  msg.value */\n      callvalue\n        /* \"contracts/ICO.sol\":2869:2880  SoldInMetis */\n      0x07\n      0x00\n        /* \"contracts/ICO.sol\":2869:2893  SoldInMetis += msg.value */\n      dup3\n      dup3\n      sload\n      tag_114\n      swap2\n      swap1\n      tag_99\n      jump\t// in\n    tag_114:\n      swap3\n      pop\n      pop\n      dup2\n      swap1\n      sstore\n      pop\n        /* \"contracts/ICO.sol\":2908:2923  Sold(buyAmount) */\n      0x92f64ca637d023f354075a4be751b169c1a8a9ccb6d33cdd0cb3520543995727\n        /* \"contracts/ICO.sol\":2913:2922  buyAmount */\n      dup2\n        /* \"contracts/ICO.sol\":2908:2923  Sold(buyAmount) */\n      mload(0x40)\n      tag_115\n      swap2\n      swap1\n      tag_116\n      jump\t// in\n    tag_115:\n      mload(0x40)\n      dup1\n      swap2\n      sub\n      swap1\n      log1\n        /* \"contracts/ICO.sol\":2940:2944  true */\n      0x01\n        /* \"contracts/ICO.sol\":2933:2944  return true */\n      swap2\n      pop\n      pop\n        /* \"contracts/ICO.sol\":2486:2951  function buy() public payable _timeCheck returns(bool){... */\n      swap1\n      jump\t// out\n        /* \"@openzeppelin/contracts/access/AccessControl.sol\":2606:2808  function supportsInterface(bytes4 interfaceId) public view virtual override returns (bool) {... */\n    tag_30:\n        /* \"@openzeppelin/contracts/access/AccessControl.sol\":2691:2695  bool */\n      0x00\n        /* \"@openzeppelin/contracts/access/AccessControl.sol\":2729:2761  type(IAccessControl).interfaceId */\n      0x7965db0b00000000000000000000000000000000000000000000000000000000\n        /* \"@openzeppelin/contracts/access/AccessControl.sol\":2714:2761  interfaceId == type(IAccessControl).interfaceId */\n      not(0xffffffffffffffffffffffffffffffffffffffffffffffffffffffff)\n      and\n        /* \"@openzeppelin/contracts/access/AccessControl.sol\":2714:2725  interfaceId */\n      dup3\n        /* \"@openzeppelin/contracts/access/AccessControl.sol\":2714:2761  interfaceId == type(IAccessControl).interfaceId */\n      not(0xffffffffffffffffffffffffffffffffffffffffffffffffffffffff)\n      and\n      eq\n        /* \"@openzeppelin/contracts/access/AccessControl.sol\":2714:2801  interfaceId == type(IAccessControl).interfaceId || super.supportsInterface(interfaceId) */\n      dup1\n      tag_118\n      jumpi\n      pop\n        /* \"@openzeppelin/contracts/access/AccessControl.sol\":2765:2801  super.supportsInterface(interfaceId) */\n      tag_119\n        /* \"@openzeppelin/contracts/access/AccessControl.sol\":2789:2800  interfaceId */\n      dup3\n        /* \"@openzeppelin/contracts/access/AccessControl.sol\":2765:2788  super.supportsInterface */\n      tag_120\n        /* \"@openzeppelin/contracts/access/AccessControl.sol\":2765:2801  super.supportsInterface(interfaceId) */\n      jump\t// in\n    tag_119:\n        /* \"@openzeppelin/contracts/access/AccessControl.sol\":2714:2801  interfaceId == type(IAccessControl).interfaceId || super.supportsInterface(interfaceId) */\n    tag_118:\n        /* \"@openzeppelin/contracts/access/AccessControl.sol\":2707:2801  return interfaceId == type(IAccessControl).interfaceId || super.supportsInterface(interfaceId) */\n      swap1\n      pop\n        /* \"@openzeppelin/contracts/access/AccessControl.sol\":2606:2808  function supportsInterface(bytes4 interfaceId) public view virtual override returns (bool) {... */\n      swap2\n      swap1\n      pop\n      jump\t// out\n        /* \"@openzeppelin/contracts/access/AccessControl.sol\":4378:4507  function getRoleAdmin(bytes32 role) public view virtual override returns (bytes32) {... */\n    tag_37:\n        /* \"@openzeppelin/contracts/access/AccessControl.sol\":4452:4459  bytes32 */\n      0x00\n        /* \"@openzeppelin/contracts/access/AccessControl.sol\":4478:4484  _roles */\n      dup1\n        /* \"@openzeppelin/contracts/access/AccessControl.sol\":4478:4490  _roles[role] */\n      0x00\n        /* \"@openzeppelin/contracts/access/AccessControl.sol\":4485:4489  role */\n      dup4\n        /* \"@openzeppelin/contracts/access/AccessControl.sol\":4478:4490  _roles[role] */\n      dup2\n      mstore\n      0x20\n      add\n      swap1\n      dup2\n      mstore\n      0x20\n      add\n      0x00\n      keccak256\n        /* \"@openzeppelin/contracts/access/AccessControl.sol\":4478:4500  _roles[role].adminRole */\n      0x01\n      add\n      sload\n        /* \"@openzeppelin/contracts/access/AccessControl.sol\":4471:4500  return _roles[role].adminRole */\n      swap1\n      pop\n        /* \"@openzeppelin/contracts/access/AccessControl.sol\":4378:4507  function getRoleAdmin(bytes32 role) public view virtual override returns (bytes32) {... */\n      swap2\n      swap1\n      pop\n      jump\t// out\n        /* \"contracts/ICO.sol\":403:465  bytes32 public constant BURNER_ROLE = keccak256(\"BURNER_ROLE\") */\n    tag_42:\n        /* \"contracts/ICO.sol\":441:465  keccak256(\"BURNER_ROLE\") */\n      0x3c11d16cbaffd01df69ce1c404f6340ee057498f5f00246190ea54220576a848\n        /* \"contracts/ICO.sol\":403:465  bytes32 public constant BURNER_ROLE = keccak256(\"BURNER_ROLE\") */\n      dup2\n      jump\t// out\n        /* \"contracts/ICO.sol\":2957:3651  function withdraw(uint256 _amnt) onlyRole(INVESTOR_ROLE) public {... */\n    tag_48:\n        /* \"contracts/ICO.sol\":371:397  keccak256(\"INVESTOR_ROLE\") */\n      0xb165298935924f540e4181c03493a5d686c54a0aaeb3f6216de85b7ffbba7738\n        /* \"@openzeppelin/contracts/access/AccessControl.sol\":2505:2521  _checkRole(role) */\n      tag_123\n        /* \"@openzeppelin/contracts/access/AccessControl.sol\":2516:2520  role */\n      dup2\n        /* \"@openzeppelin/contracts/access/AccessControl.sol\":2505:2515  _checkRole */\n      tag_124\n        /* \"@openzeppelin/contracts/access/AccessControl.sol\":2505:2521  _checkRole(role) */\n      jump\t// in\n    tag_123:\n        /* \"contracts/ICO.sol\":3074:3089  block.timestamp */\n      timestamp\n        /* \"contracts/ICO.sol\":3069:3071  18 */\n      0x12\n        /* \"contracts/ICO.sol\":3061:3066  month */\n      sload(0x0c)\n        /* \"contracts/ICO.sol\":3061:3071  month * 18 */\n      tag_126\n      swap2\n      swap1\n      tag_127\n      jump\t// in\n    tag_126:\n        /* \"contracts/ICO.sol\":3045:3058  creationtTime */\n      immutable(\"0x9dbe85ac7b254680bdffe11fd8ce3b07ca073a131ee68edcdd4d9f627ae11f\")\n        /* \"contracts/ICO.sol\":3045:3071  creationtTime + month * 18 */\n      tag_128\n      swap2\n      swap1\n      tag_99\n      jump\t// in\n    tag_128:\n        /* \"contracts/ICO.sol\":3045:3089  creationtTime + month * 18 > block.timestamp */\n      gt\n        /* \"contracts/ICO.sol\":3040:3636  if ( creationtTime + month * 18 > block.timestamp){... */\n      iszero\n      tag_129\n      jumpi\n        /* \"contracts/ICO.sol\":3104:3125  uint256 convertedAmnt */\n      0x00\n        /* \"contracts/ICO.sol\":3127:3148  percentFromICO(_amnt) */\n      tag_130\n        /* \"contracts/ICO.sol\":3142:3147  _amnt */\n      dup4\n        /* \"contracts/ICO.sol\":3127:3141  percentFromICO */\n      tag_131\n        /* \"contracts/ICO.sol\":3127:3148  percentFromICO(_amnt) */\n      jump\t// in\n    tag_130:\n        /* \"contracts/ICO.sol\":3104:3148  uint256 convertedAmnt =percentFromICO(_amnt) */\n      swap1\n      pop\n        /* \"contracts/ICO.sol\":3162:3166  eftt */\n      0x05\n      0x00\n      swap1\n      sload\n      swap1\n      0x0100\n      exp\n      swap1\n      div\n      0xffffffffffffffffffffffffffffffffffffffff\n      and\n        /* \"contracts/ICO.sol\":3162:3174  eftt.approve */\n      0xffffffffffffffffffffffffffffffffffffffff\n      and\n      0x095ea7b3\n        /* \"contracts/ICO.sol\":3184:3188  this */\n      address\n        /* \"contracts/ICO.sol\":3191:3204  convertedAmnt */\n      dup4\n        /* \"contracts/ICO.sol\":3162:3205  eftt.approve( address(this), convertedAmnt) */\n      mload(0x40)\n      dup4\n      0xffffffff\n      and\n      0xe0\n      shl\n      dup2\n      mstore\n      0x04\n      add\n      tag_132\n      swap3\n      swap2\n      swap1\n      tag_104\n      jump\t// in\n    tag_132:\n      0x20\n      mload(0x40)\n      dup1\n      dup4\n      sub\n      dup2\n      0x00\n      dup8\n      gas\n      call\n      iszero\n      dup1\n      iszero\n      tag_134\n      jumpi\n      returndatasize\n      0x00\n      dup1\n      returndatacopy\n      revert(0x00, returndatasize)\n    tag_134:\n      pop\n      pop\n      pop\n      pop\n      mload(0x40)\n      returndatasize\n      not(0x1f)\n      0x1f\n      dup3\n      add\n      and\n      dup3\n      add\n      dup1\n      0x40\n      mstore\n      pop\n      dup2\n      add\n      swap1\n      tag_135\n      swap2\n      swap1\n      tag_108\n      jump\t// in\n    tag_135:\n      pop\n        /* \"contracts/ICO.sol\":3227:3237  msg.sender */\n      caller\n        /* \"contracts/ICO.sol\":3219:3247  payable(msg.sender).transfer */\n      0xffffffffffffffffffffffffffffffffffffffff\n      and\n        /* \"contracts/ICO.sol\":3219:3262  payable(msg.sender).transfer(convertedAmnt) */\n      0x08fc\n        /* \"contracts/ICO.sol\":3248:3261  convertedAmnt */\n      dup3\n        /* \"contracts/ICO.sol\":3219:3262  payable(msg.sender).transfer(convertedAmnt) */\n      swap1\n      dup2\n      iszero\n      mul\n      swap1\n      mload(0x40)\n      0x00\n      mload(0x40)\n      dup1\n      dup4\n      sub\n      dup2\n      dup6\n      dup9\n      dup9\n      call\n      swap4\n      pop\n      pop\n      pop\n      pop\n      iszero\n      dup1\n      iszero\n      tag_137\n      jumpi\n      returndatasize\n      0x00\n      dup1\n      returndatacopy\n      revert(0x00, returndatasize)\n    tag_137:\n      pop\n        /* \"contracts/ICO.sol\":3090:3273  {... */\n      pop\n        /* \"contracts/ICO.sol\":3040:3636  if ( creationtTime + month * 18 > block.timestamp){... */\n      jump(tag_138)\n    tag_129:\n        /* \"contracts/ICO.sol\":3313:3328  block.timestamp */\n      timestamp\n        /* \"contracts/ICO.sol\":3308:3310  12 */\n      0x0c\n        /* \"contracts/ICO.sol\":3300:3305  month */\n      dup1\n      sload\n        /* \"contracts/ICO.sol\":3300:3310  month * 12 */\n      tag_139\n      swap2\n      swap1\n      tag_127\n      jump\t// in\n    tag_139:\n        /* \"contracts/ICO.sol\":3284:3297  creationtTime */\n      immutable(\"0x9dbe85ac7b254680bdffe11fd8ce3b07ca073a131ee68edcdd4d9f627ae11f\")\n        /* \"contracts/ICO.sol\":3284:3310  creationtTime + month * 12 */\n      tag_140\n      swap2\n      swap1\n      tag_99\n      jump\t// in\n    tag_140:\n        /* \"contracts/ICO.sol\":3284:3328  creationtTime + month * 12 > block.timestamp */\n      gt\n        /* \"contracts/ICO.sol\":3279:3636  if ( creationtTime + month * 12 > block.timestamp){... */\n      iszero\n      tag_141\n      jumpi\n        /* \"contracts/ICO.sol\":3343:3364  uint256 convertedAmnt */\n      0x00\n        /* \"contracts/ICO.sol\":3366:3387  percentFromICO(_amnt) */\n      tag_142\n        /* \"contracts/ICO.sol\":3381:3386  _amnt */\n      dup4\n        /* \"contracts/ICO.sol\":3366:3380  percentFromICO */\n      tag_131\n        /* \"contracts/ICO.sol\":3366:3387  percentFromICO(_amnt) */\n      jump\t// in\n    tag_142:\n        /* \"contracts/ICO.sol\":3343:3387  uint256 convertedAmnt =percentFromICO(_amnt) */\n      swap1\n      pop\n        /* \"contracts/ICO.sol\":3409:3419  msg.sender */\n      caller\n        /* \"contracts/ICO.sol\":3401:3429  payable(msg.sender).transfer */\n      0xffffffffffffffffffffffffffffffffffffffff\n      and\n        /* \"contracts/ICO.sol\":3401:3444  payable(msg.sender).transfer(convertedAmnt) */\n      0x08fc\n        /* \"contracts/ICO.sol\":3430:3443  convertedAmnt */\n      dup3\n        /* \"contracts/ICO.sol\":3401:3444  payable(msg.sender).transfer(convertedAmnt) */\n      swap1\n      dup2\n      iszero\n      mul\n      swap1\n      mload(0x40)\n      0x00\n      mload(0x40)\n      dup1\n      dup4\n      sub\n      dup2\n      dup6\n      dup9\n      dup9\n      call\n      swap4\n      pop\n      pop\n      pop\n      pop\n      iszero\n      dup1\n      iszero\n      tag_144\n      jumpi\n      returndatasize\n      0x00\n      dup1\n      returndatacopy\n      revert(0x00, returndatasize)\n    tag_144:\n      pop\n        /* \"contracts/ICO.sol\":3329:3455  {... */\n      pop\n        /* \"contracts/ICO.sol\":3279:3636  if ( creationtTime + month * 12 > block.timestamp){... */\n      jump(tag_145)\n    tag_141:\n        /* \"contracts/ICO.sol\":3494:3509  block.timestamp */\n      timestamp\n        /* \"contracts/ICO.sol\":3490:3491  6 */\n      0x06\n        /* \"contracts/ICO.sol\":3482:3487  month */\n      sload(0x0c)\n        /* \"contracts/ICO.sol\":3482:3491  month * 6 */\n      tag_146\n      swap2\n      swap1\n      tag_127\n      jump\t// in\n    tag_146:\n        /* \"contracts/ICO.sol\":3466:3479  creationtTime */\n      immutable(\"0x9dbe85ac7b254680bdffe11fd8ce3b07ca073a131ee68edcdd4d9f627ae11f\")\n        /* \"contracts/ICO.sol\":3466:3491  creationtTime + month * 6 */\n      tag_147\n      swap2\n      swap1\n      tag_99\n      jump\t// in\n    tag_147:\n        /* \"contracts/ICO.sol\":3466:3509  creationtTime + month * 6 > block.timestamp */\n      gt\n        /* \"contracts/ICO.sol\":3461:3636  if ( creationtTime + month * 6 > block.timestamp){... */\n      iszero\n      tag_148\n      jumpi\n        /* \"contracts/ICO.sol\":3524:3545  uint256 convertedAmnt */\n      0x00\n        /* \"contracts/ICO.sol\":3547:3568  percentFromICO(_amnt) */\n      tag_149\n        /* \"contracts/ICO.sol\":3562:3567  _amnt */\n      dup4\n        /* \"contracts/ICO.sol\":3547:3561  percentFromICO */\n      tag_131\n        /* \"contracts/ICO.sol\":3547:3568  percentFromICO(_amnt) */\n      jump\t// in\n    tag_149:\n        /* \"contracts/ICO.sol\":3524:3568  uint256 convertedAmnt =percentFromICO(_amnt) */\n      swap1\n      pop\n        /* \"contracts/ICO.sol\":3590:3600  msg.sender */\n      caller\n        /* \"contracts/ICO.sol\":3582:3610  payable(msg.sender).transfer */\n      0xffffffffffffffffffffffffffffffffffffffff\n      and\n        /* \"contracts/ICO.sol\":3582:3625  payable(msg.sender).transfer(convertedAmnt) */\n      0x08fc\n        /* \"contracts/ICO.sol\":3611:3624  convertedAmnt */\n      dup3\n        /* \"contracts/ICO.sol\":3582:3625  payable(msg.sender).transfer(convertedAmnt) */\n      swap1\n      dup2\n      iszero\n      mul\n      swap1\n      mload(0x40)\n      0x00\n      mload(0x40)\n      dup1\n      dup4\n      sub\n      dup2\n      dup6\n      dup9\n      dup9\n      call\n      swap4\n      pop\n      pop\n      pop\n      pop\n      iszero\n      dup1\n      iszero\n      tag_151\n      jumpi\n      returndatasize\n      0x00\n      dup1\n      returndatacopy\n      revert(0x00, returndatasize)\n    tag_151:\n      pop\n        /* \"contracts/ICO.sol\":3510:3636  {... */\n      pop\n        /* \"contracts/ICO.sol\":3461:3636  if ( creationtTime + month * 6 > block.timestamp){... */\n    tag_148:\n        /* \"contracts/ICO.sol\":3279:3636  if ( creationtTime + month * 12 > block.timestamp){... */\n    tag_145:\n        /* \"contracts/ICO.sol\":3040:3636  if ( creationtTime + month * 18 > block.timestamp){... */\n    tag_138:\n        /* \"contracts/ICO.sol\":2957:3651  function withdraw(uint256 _amnt) onlyRole(INVESTOR_ROLE) public {... */\n      pop\n      pop\n      jump\t// out\n        /* \"@openzeppelin/contracts/access/AccessControl.sol\":4803:4948  function grantRole(bytes32 role, address account) public virtual override onlyRole(getRoleAdmin(role)) {... */\n    tag_53:\n        /* \"@openzeppelin/contracts/access/AccessControl.sol\":4886:4904  getRoleAdmin(role) */\n      tag_152\n        /* \"@openzeppelin/contracts/access/AccessControl.sol\":4899:4903  role */\n      dup3\n        /* \"@openzeppelin/contracts/access/AccessControl.sol\":4886:4898  getRoleAdmin */\n      tag_37\n        /* \"@openzeppelin/contracts/access/AccessControl.sol\":4886:4904  getRoleAdmin(role) */\n      jump\t// in\n    tag_152:\n        /* \"@openzeppelin/contracts/access/AccessControl.sol\":2505:2521  _checkRole(role) */\n      tag_154\n        /* \"@openzeppelin/contracts/access/AccessControl.sol\":2516:2520  role */\n      dup2\n        /* \"@openzeppelin/contracts/access/AccessControl.sol\":2505:2515  _checkRole */\n      tag_124\n        /* \"@openzeppelin/contracts/access/AccessControl.sol\":2505:2521  _checkRole(role) */\n      jump\t// in\n    tag_154:\n        /* \"@openzeppelin/contracts/access/AccessControl.sol\":4916:4941  _grantRole(role, account) */\n      tag_156\n        /* \"@openzeppelin/contracts/access/AccessControl.sol\":4927:4931  role */\n      dup4\n        /* \"@openzeppelin/contracts/access/AccessControl.sol\":4933:4940  account */\n      dup4\n        /* \"@openzeppelin/contracts/access/AccessControl.sol\":4916:4926  _grantRole */\n      tag_157\n        /* \"@openzeppelin/contracts/access/AccessControl.sol\":4916:4941  _grantRole(role, account) */\n      jump\t// in\n    tag_156:\n        /* \"@openzeppelin/contracts/access/AccessControl.sol\":4803:4948  function grantRole(bytes32 role, address account) public virtual override onlyRole(getRoleAdmin(role)) {... */\n      pop\n      pop\n      pop\n      jump\t// out\n        /* \"@openzeppelin/contracts/access/AccessControl.sol\":5912:6126  function renounceRole(bytes32 role, address account) public virtual override {... */\n    tag_57:\n        /* \"@openzeppelin/contracts/access/AccessControl.sol\":6018:6030  _msgSender() */\n      tag_159\n        /* \"@openzeppelin/contracts/access/AccessControl.sol\":6018:6028  _msgSender */\n      tag_160\n        /* \"@openzeppelin/contracts/access/AccessControl.sol\":6018:6030  _msgSender() */\n      jump\t// in\n    tag_159:\n        /* \"@openzeppelin/contracts/access/AccessControl.sol\":6007:6030  account == _msgSender() */\n      0xffffffffffffffffffffffffffffffffffffffff\n      and\n        /* \"@openzeppelin/contracts/access/AccessControl.sol\":6007:6014  account */\n      dup2\n        /* \"@openzeppelin/contracts/access/AccessControl.sol\":6007:6030  account == _msgSender() */\n      0xffffffffffffffffffffffffffffffffffffffff\n      and\n      eq\n        /* \"@openzeppelin/contracts/access/AccessControl.sol\":5999:6082  require(account == _msgSender(), \"AccessControl: can only renounce roles for self\") */\n      tag_161\n      jumpi\n      mload(0x40)\n      0x08c379a000000000000000000000000000000000000000000000000000000000\n      dup2\n      mstore\n      0x04\n      add\n      tag_162\n      swap1\n      tag_163\n      jump\t// in\n    tag_162:\n      mload(0x40)\n      dup1\n      swap2\n      sub\n      swap1\n      revert\n    tag_161:\n        /* \"@openzeppelin/contracts/access/AccessControl.sol\":6093:6119  _revokeRole(role, account) */\n      tag_164\n        /* \"@openzeppelin/contracts/access/AccessControl.sol\":6105:6109  role */\n      dup3\n        /* \"@openzeppelin/contracts/access/AccessControl.sol\":6111:6118  account */\n      dup3\n        /* \"@openzeppelin/contracts/access/AccessControl.sol\":6093:6104  _revokeRole */\n      tag_165\n        /* \"@openzeppelin/contracts/access/AccessControl.sol\":6093:6119  _revokeRole(role, account) */\n      jump\t// in\n    tag_164:\n        /* \"@openzeppelin/contracts/access/AccessControl.sol\":5912:6126  function renounceRole(bytes32 role, address account) public virtual override {... */\n      pop\n      pop\n      jump\t// out\n        /* \"contracts/ICO.sol\":3657:3843  function endICO() public _timeCheck onlyRole(BURNER_ROLE) _burnCheck{... */\n    tag_60:\n        /* \"contracts/ICO.sol\":1922:1930  timeLock */\n      sload(0x04)\n        /* \"contracts/ICO.sol\":1904:1919  block.timestamp */\n      timestamp\n        /* \"contracts/ICO.sol\":1904:1930  block.timestamp < timeLock */\n      lt\n        /* \"contracts/ICO.sol\":1896:1949  require(block.timestamp < timeLock,\"ICO is over :( \") */\n      tag_167\n      jumpi\n      mload(0x40)\n      0x08c379a000000000000000000000000000000000000000000000000000000000\n      dup2\n      mstore\n      0x04\n      add\n      tag_168\n      swap1\n      tag_91\n      jump\t// in\n    tag_168:\n      mload(0x40)\n      dup1\n      swap2\n      sub\n      swap1\n      revert\n    tag_167:\n        /* \"contracts/ICO.sol\":441:465  keccak256(\"BURNER_ROLE\") */\n      0x3c11d16cbaffd01df69ce1c404f6340ee057498f5f00246190ea54220576a848\n        /* \"@openzeppelin/contracts/access/AccessControl.sol\":2505:2521  _checkRole(role) */\n      tag_170\n        /* \"@openzeppelin/contracts/access/AccessControl.sol\":2516:2520  role */\n      dup2\n        /* \"@openzeppelin/contracts/access/AccessControl.sol\":2505:2515  _checkRole */\n      tag_124\n        /* \"@openzeppelin/contracts/access/AccessControl.sol\":2505:2521  _checkRole(role) */\n      jump\t// in\n    tag_170:\n        /* \"contracts/ICO.sol\":2013:2019  BURNED */\n      0x0b\n      0x00\n      swap1\n      sload\n      swap1\n      0x0100\n      exp\n      swap1\n      div\n      0xff\n      and\n        /* \"contracts/ICO.sol\":2012:2019  !BURNED */\n      iszero\n        /* \"contracts/ICO.sol\":2004:2051  require(!BURNED,\"the supply is already burned\") */\n      tag_172\n      jumpi\n      mload(0x40)\n      0x08c379a000000000000000000000000000000000000000000000000000000000\n      dup2\n      mstore\n      0x04\n      add\n      tag_173\n      swap1\n      tag_174\n      jump\t// in\n    tag_173:\n      mload(0x40)\n      dup1\n      swap2\n      sub\n      swap1\n      revert\n    tag_172:\n        /* \"contracts/ICO.sol\":3735:3751  uint256 burnAmnt */\n      0x00\n        /* \"contracts/ICO.sol\":3755:3775  maxICO.sub(SoldEFTT) */\n      tag_176\n        /* \"contracts/ICO.sol\":3766:3774  SoldEFTT */\n      sload(0x08)\n        /* \"contracts/ICO.sol\":3755:3761  maxICO */\n      sload(0x06)\n        /* \"contracts/ICO.sol\":3755:3765  maxICO.sub */\n      tag_177\n      swap1\n        /* \"contracts/ICO.sol\":3755:3775  maxICO.sub(SoldEFTT) */\n      swap2\n      swap1\n      0xffffffff\n      and\n      jump\t// in\n    tag_176:\n        /* \"contracts/ICO.sol\":3735:3776  uint256 burnAmnt = (maxICO.sub(SoldEFTT)) */\n      swap1\n      pop\n        /* \"contracts/ICO.sol\":3786:3790  eftt */\n      0x05\n      0x00\n      swap1\n      sload\n      swap1\n      0x0100\n      exp\n      swap1\n      div\n      0xffffffffffffffffffffffffffffffffffffffff\n      and\n        /* \"contracts/ICO.sol\":3786:3795  eftt.burn */\n      0xffffffffffffffffffffffffffffffffffffffff\n      and\n      0x42966c68\n        /* \"contracts/ICO.sol\":3796:3804  burnAmnt */\n      dup3\n        /* \"contracts/ICO.sol\":3786:3805  eftt.burn(burnAmnt) */\n      mload(0x40)\n      dup3\n      0xffffffff\n      and\n      0xe0\n      shl\n      dup2\n      mstore\n      0x04\n      add\n      tag_178\n      swap2\n      swap1\n      tag_116\n      jump\t// in\n    tag_178:\n      0x00\n      mload(0x40)\n      dup1\n      dup4\n      sub\n      dup2\n      0x00\n      dup8\n      dup1\n      extcodesize\n      iszero\n      dup1\n      iszero\n      tag_179\n      jumpi\n      0x00\n      dup1\n      revert\n    tag_179:\n      pop\n      gas\n      call\n      iszero\n      dup1\n      iszero\n      tag_181\n      jumpi\n      returndatasize\n      0x00\n      dup1\n      returndatacopy\n      revert(0x00, returndatasize)\n    tag_181:\n      pop\n      pop\n      pop\n      pop\n        /* \"contracts/ICO.sol\":3820:3836  Burned(burnAmnt) */\n      0xd83c63197e8e676d80ab0122beba9a9d20f3828839e9a1d6fe81d242e9cd7e6e\n        /* \"contracts/ICO.sol\":3827:3835  burnAmnt */\n      dup2\n        /* \"contracts/ICO.sol\":3820:3836  Burned(burnAmnt) */\n      mload(0x40)\n      tag_182\n      swap2\n      swap1\n      tag_116\n      jump\t// in\n    tag_182:\n      mload(0x40)\n      dup1\n      swap2\n      sub\n      swap1\n      log1\n        /* \"contracts/ICO.sol\":3725:3843  {... */\n      pop\n        /* \"contracts/ICO.sol\":2081:2085  true */\n      0x01\n        /* \"contracts/ICO.sol\":2072:2078  BURNED */\n      0x0b\n      0x00\n        /* \"contracts/ICO.sol\":2072:2085  BURNED = true */\n      0x0100\n      exp\n      dup2\n      sload\n      dup2\n      0xff\n      mul\n      not\n      and\n      swap1\n      dup4\n      iszero\n      iszero\n      mul\n      or\n      swap1\n      sstore\n      pop\n        /* \"contracts/ICO.sol\":1959:1960  _ */\n      pop\n        /* \"contracts/ICO.sol\":3657:3843  function endICO() public _timeCheck onlyRole(BURNER_ROLE) _burnCheck{... */\n      jump\t// out\n        /* \"contracts/ICO.sol\":6320:6393  function burned() public view returns(bool){... */\n    tag_63:\n        /* \"contracts/ICO.sol\":6358:6362  bool */\n      0x00\n        /* \"contracts/ICO.sol\":6380:6386  BURNED */\n      0x0b\n      0x00\n      swap1\n      sload\n      swap1\n      0x0100\n      exp\n      swap1\n      div\n      0xff\n      and\n        /* \"contracts/ICO.sol\":6373:6386  return BURNED */\n      swap1\n      pop\n        /* \"contracts/ICO.sol\":6320:6393  function burned() public view returns(bool){... */\n      swap1\n      jump\t// out\n        /* \"contracts/ICO.sol\":331:397  bytes32 public constant INVESTOR_ROLE = keccak256(\"INVESTOR_ROLE\") */\n    tag_67:\n        /* \"contracts/ICO.sol\":371:397  keccak256(\"INVESTOR_ROLE\") */\n      0xb165298935924f540e4181c03493a5d686c54a0aaeb3f6216de85b7ffbba7738\n        /* \"contracts/ICO.sol\":331:397  bytes32 public constant INVESTOR_ROLE = keccak256(\"INVESTOR_ROLE\") */\n      dup2\n      jump\t// out\n        /* \"@openzeppelin/contracts/access/AccessControl.sol\":2895:3040  function hasRole(bytes32 role, address account) public view virtual override returns (bool) {... */\n    tag_72:\n        /* \"@openzeppelin/contracts/access/AccessControl.sol\":2981:2985  bool */\n      0x00\n        /* \"@openzeppelin/contracts/access/AccessControl.sol\":3004:3010  _roles */\n      dup1\n        /* \"@openzeppelin/contracts/access/AccessControl.sol\":3004:3016  _roles[role] */\n      0x00\n        /* \"@openzeppelin/contracts/access/AccessControl.sol\":3011:3015  role */\n      dup5\n        /* \"@openzeppelin/contracts/access/AccessControl.sol\":3004:3016  _roles[role] */\n      dup2\n      mstore\n      0x20\n      add\n      swap1\n      dup2\n      mstore\n      0x20\n      add\n      0x00\n      keccak256\n        /* \"@openzeppelin/contracts/access/AccessControl.sol\":3004:3024  _roles[role].members */\n      0x00\n      add\n        /* \"@openzeppelin/contracts/access/AccessControl.sol\":3004:3033  _roles[role].members[account] */\n      0x00\n        /* \"@openzeppelin/contracts/access/AccessControl.sol\":3025:3032  account */\n      dup4\n        /* \"@openzeppelin/contracts/access/AccessControl.sol\":3004:3033  _roles[role].members[account] */\n      0xffffffffffffffffffffffffffffffffffffffff\n      and\n      0xffffffffffffffffffffffffffffffffffffffff\n      and\n      dup2\n      mstore\n      0x20\n      add\n      swap1\n      dup2\n      mstore\n      0x20\n      add\n      0x00\n      keccak256\n      0x00\n      swap1\n      sload\n      swap1\n      0x0100\n      exp\n      swap1\n      div\n      0xff\n      and\n        /* \"@openzeppelin/contracts/access/AccessControl.sol\":2997:3033  return _roles[role].members[account] */\n      swap1\n      pop\n        /* \"@openzeppelin/contracts/access/AccessControl.sol\":2895:3040  function hasRole(bytes32 role, address account) public view virtual override returns (bool) {... */\n      swap3\n      swap2\n      pop\n      pop\n      jump\t// out\n        /* \"@openzeppelin/contracts/access/AccessControl.sol\":2027:2076  bytes32 public constant DEFAULT_ADMIN_ROLE = 0x00 */\n    tag_76:\n        /* \"@openzeppelin/contracts/access/AccessControl.sol\":2072:2076  0x00 */\n      0x00\n        /* \"@openzeppelin/contracts/access/AccessControl.sol\":2027:2076  bytes32 public constant DEFAULT_ADMIN_ROLE = 0x00 */\n      dup1\n      shl\n      dup2\n      jump\t// out\n        /* \"contracts/ICO.sol\":471:541  bytes32 public constant EXTEND_ICO_ROLE = keccak256(\"EXTEND_ICO_ROLE\") */\n    tag_82:\n        /* \"contracts/ICO.sol\":513:541  keccak256(\"EXTEND_ICO_ROLE\") */\n      0x305786ab5904b5bb20fe6d91992844b39d648cdcb82f328edc2d6a80bfbb3289\n        /* \"contracts/ICO.sol\":471:541  bytes32 public constant EXTEND_ICO_ROLE = keccak256(\"EXTEND_ICO_ROLE\") */\n      dup2\n      jump\t// out\n        /* \"@openzeppelin/contracts/access/AccessControl.sol\":5228:5375  function revokeRole(bytes32 role, address account) public virtual override onlyRole(getRoleAdmin(role)) {... */\n    tag_87:\n        /* \"@openzeppelin/contracts/access/AccessControl.sol\":5312:5330  getRoleAdmin(role) */\n      tag_185\n        /* \"@openzeppelin/contracts/access/AccessControl.sol\":5325:5329  role */\n      dup3\n        /* \"@openzeppelin/contracts/access/AccessControl.sol\":5312:5324  getRoleAdmin */\n      tag_37\n        /* \"@openzeppelin/contracts/access/AccessControl.sol\":5312:5330  getRoleAdmin(role) */\n      jump\t// in\n    tag_185:\n        /* \"@openzeppelin/contracts/access/AccessControl.sol\":2505:2521  _checkRole(role) */\n      tag_187\n        /* \"@openzeppelin/contracts/access/AccessControl.sol\":2516:2520  role */\n      dup2\n        /* \"@openzeppelin/contracts/access/AccessControl.sol\":2505:2515  _checkRole */\n      tag_124\n        /* \"@openzeppelin/contracts/access/AccessControl.sol\":2505:2521  _checkRole(role) */\n      jump\t// in\n    tag_187:\n        /* \"@openzeppelin/contracts/access/AccessControl.sol\":5342:5368  _revokeRole(role, account) */\n      tag_189\n        /* \"@openzeppelin/contracts/access/AccessControl.sol\":5354:5358  role */\n      dup4\n        /* \"@openzeppelin/contracts/access/AccessControl.sol\":5360:5367  account */\n      dup4\n        /* \"@openzeppelin/contracts/access/AccessControl.sol\":5342:5353  _revokeRole */\n      tag_165\n        /* \"@openzeppelin/contracts/access/AccessControl.sol\":5342:5368  _revokeRole(role, account) */\n      jump\t// in\n    tag_189:\n        /* \"@openzeppelin/contracts/access/AccessControl.sol\":5228:5375  function revokeRole(bytes32 role, address account) public virtual override onlyRole(getRoleAdmin(role)) {... */\n      pop\n      pop\n      pop\n      jump\t// out\n        /* \"contracts/ICO.sol\":5981:6091  function conversion(uint256 _amnt) private view returns(uint256){... */\n    tag_97:\n        /* \"contracts/ICO.sol\":6037:6044  uint256 */\n      0x00\n        /* \"contracts/ICO.sol\":6062:6083  _amnt.mul(ratioMetis) */\n      tag_191\n        /* \"contracts/ICO.sol\":6072:6082  ratioMetis */\n      sload(0x09)\n        /* \"contracts/ICO.sol\":6062:6067  _amnt */\n      dup4\n        /* \"contracts/ICO.sol\":6062:6071  _amnt.mul */\n      tag_192\n      swap1\n        /* \"contracts/ICO.sol\":6062:6083  _amnt.mul(ratioMetis) */\n      swap2\n      swap1\n      0xffffffff\n      and\n      jump\t// in\n    tag_191:\n        /* \"contracts/ICO.sol\":6055:6084  return(_amnt.mul(ratioMetis)) */\n      swap1\n      pop\n        /* \"contracts/ICO.sol\":5981:6091  function conversion(uint256 _amnt) private view returns(uint256){... */\n      swap2\n      swap1\n      pop\n      jump\t// out\n        /* \"@openzeppelin/contracts/utils/introspection/ERC165.sol\":829:984  function supportsInterface(bytes4 interfaceId) public view virtual override returns (bool) {... */\n    tag_120:\n        /* \"@openzeppelin/contracts/utils/introspection/ERC165.sol\":914:918  bool */\n      0x00\n        /* \"@openzeppelin/contracts/utils/introspection/ERC165.sol\":952:977  type(IERC165).interfaceId */\n      0x01ffc9a700000000000000000000000000000000000000000000000000000000\n        /* \"@openzeppelin/contracts/utils/introspection/ERC165.sol\":937:977  interfaceId == type(IERC165).interfaceId */\n      not(0xffffffffffffffffffffffffffffffffffffffffffffffffffffffff)\n      and\n        /* \"@openzeppelin/contracts/utils/introspection/ERC165.sol\":937:948  interfaceId */\n      dup3\n        /* \"@openzeppelin/contracts/utils/introspection/ERC165.sol\":937:977  interfaceId == type(IERC165).interfaceId */\n      not(0xffffffffffffffffffffffffffffffffffffffffffffffffffffffff)\n      and\n      eq\n        /* \"@openzeppelin/contracts/utils/introspection/ERC165.sol\":930:977  return interfaceId == type(IERC165).interfaceId */\n      swap1\n      pop\n        /* \"@openzeppelin/contracts/utils/introspection/ERC165.sol\":829:984  function supportsInterface(bytes4 interfaceId) public view virtual override returns (bool) {... */\n      swap2\n      swap1\n      pop\n      jump\t// out\n        /* \"@openzeppelin/contracts/access/AccessControl.sol\":3334:3437  function _checkRole(bytes32 role) internal view virtual {... */\n    tag_124:\n        /* \"@openzeppelin/contracts/access/AccessControl.sol\":3400:3430  _checkRole(role, _msgSender()) */\n      tag_195\n        /* \"@openzeppelin/contracts/access/AccessControl.sol\":3411:3415  role */\n      dup2\n        /* \"@openzeppelin/contracts/access/AccessControl.sol\":3417:3429  _msgSender() */\n      tag_196\n        /* \"@openzeppelin/contracts/access/AccessControl.sol\":3417:3427  _msgSender */\n      tag_160\n        /* \"@openzeppelin/contracts/access/AccessControl.sol\":3417:3429  _msgSender() */\n      jump\t// in\n    tag_196:\n        /* \"@openzeppelin/contracts/access/AccessControl.sol\":3400:3410  _checkRole */\n      tag_197\n        /* \"@openzeppelin/contracts/access/AccessControl.sol\":3400:3430  _checkRole(role, _msgSender()) */\n      jump\t// in\n    tag_195:\n        /* \"@openzeppelin/contracts/access/AccessControl.sol\":3334:3437  function _checkRole(bytes32 role) internal view virtual {... */\n      pop\n      jump\t// out\n        /* \"contracts/ICO.sol\":6097:6213  function percentFromICO(uint256 _amnt) private view returns(uint256){... */\n    tag_131:\n        /* \"contracts/ICO.sol\":6157:6164  uint256 */\n      0x00\n        /* \"contracts/ICO.sol\":6182:6206  _amnt.mul(soldPercent()) */\n      tag_199\n        /* \"contracts/ICO.sol\":6192:6205  soldPercent() */\n      tag_200\n        /* \"contracts/ICO.sol\":6192:6203  soldPercent */\n      tag_201\n        /* \"contracts/ICO.sol\":6192:6205  soldPercent() */\n      jump\t// in\n    tag_200:\n        /* \"contracts/ICO.sol\":6182:6187  _amnt */\n      dup4\n        /* \"contracts/ICO.sol\":6182:6191  _amnt.mul */\n      tag_192\n      swap1\n        /* \"contracts/ICO.sol\":6182:6206  _amnt.mul(soldPercent()) */\n      swap2\n      swap1\n      0xffffffff\n      and\n      jump\t// in\n    tag_199:\n        /* \"contracts/ICO.sol\":6175:6206  return _amnt.mul(soldPercent()) */\n      swap1\n      pop\n        /* \"contracts/ICO.sol\":6097:6213  function percentFromICO(uint256 _amnt) private view returns(uint256){... */\n      swap2\n      swap1\n      pop\n      jump\t// out\n        /* \"@openzeppelin/contracts/access/AccessControl.sol\":7461:7694  function _grantRole(bytes32 role, address account) internal virtual {... */\n    tag_157:\n        /* \"@openzeppelin/contracts/access/AccessControl.sol\":7544:7566  hasRole(role, account) */\n      tag_203\n        /* \"@openzeppelin/contracts/access/AccessControl.sol\":7552:7556  role */\n      dup3\n        /* \"@openzeppelin/contracts/access/AccessControl.sol\":7558:7565  account */\n      dup3\n        /* \"@openzeppelin/contracts/access/AccessControl.sol\":7544:7551  hasRole */\n      tag_72\n        /* \"@openzeppelin/contracts/access/AccessControl.sol\":7544:7566  hasRole(role, account) */\n      jump\t// in\n    tag_203:\n        /* \"@openzeppelin/contracts/access/AccessControl.sol\":7539:7688  if (!hasRole(role, account)) {... */\n      tag_204\n      jumpi\n        /* \"@openzeppelin/contracts/access/AccessControl.sol\":7614:7618  true */\n      0x01\n        /* \"@openzeppelin/contracts/access/AccessControl.sol\":7582:7588  _roles */\n      0x00\n        /* \"@openzeppelin/contracts/access/AccessControl.sol\":7582:7594  _roles[role] */\n      dup1\n        /* \"@openzeppelin/contracts/access/AccessControl.sol\":7589:7593  role */\n      dup5\n        /* \"@openzeppelin/contracts/access/AccessControl.sol\":7582:7594  _roles[role] */\n      dup2\n      mstore\n      0x20\n      add\n      swap1\n      dup2\n      mstore\n      0x20\n      add\n      0x00\n      keccak256\n        /* \"@openzeppelin/contracts/access/AccessControl.sol\":7582:7602  _roles[role].members */\n      0x00\n      add\n        /* \"@openzeppelin/contracts/access/AccessControl.sol\":7582:7611  _roles[role].members[account] */\n      0x00\n        /* \"@openzeppelin/contracts/access/AccessControl.sol\":7603:7610  account */\n      dup4\n        /* \"@openzeppelin/contracts/access/AccessControl.sol\":7582:7611  _roles[role].members[account] */\n      0xffffffffffffffffffffffffffffffffffffffff\n      and\n      0xffffffffffffffffffffffffffffffffffffffff\n      and\n      dup2\n      mstore\n      0x20\n      add\n      swap1\n      dup2\n      mstore\n      0x20\n      add\n      0x00\n      keccak256\n      0x00\n        /* \"@openzeppelin/contracts/access/AccessControl.sol\":7582:7618  _roles[role].members[account] = true */\n      0x0100\n      exp\n      dup2\n      sload\n      dup2\n      0xff\n      mul\n      not\n      and\n      swap1\n      dup4\n      iszero\n      iszero\n      mul\n      or\n      swap1\n      sstore\n      pop\n        /* \"@openzeppelin/contracts/access/AccessControl.sol\":7664:7676  _msgSender() */\n      tag_205\n        /* \"@openzeppelin/contracts/access/AccessControl.sol\":7664:7674  _msgSender */\n      tag_160\n        /* \"@openzeppelin/contracts/access/AccessControl.sol\":7664:7676  _msgSender() */\n      jump\t// in\n    tag_205:\n        /* \"@openzeppelin/contracts/access/AccessControl.sol\":7637:7677  RoleGranted(role, account, _msgSender()) */\n      0xffffffffffffffffffffffffffffffffffffffff\n      and\n        /* \"@openzeppelin/contracts/access/AccessControl.sol\":7655:7662  account */\n      dup2\n        /* \"@openzeppelin/contracts/access/AccessControl.sol\":7637:7677  RoleGranted(role, account, _msgSender()) */\n      0xffffffffffffffffffffffffffffffffffffffff\n      and\n        /* \"@openzeppelin/contracts/access/AccessControl.sol\":7649:7653  role */\n      dup4\n        /* \"@openzeppelin/contracts/access/AccessControl.sol\":7637:7677  RoleGranted(role, account, _msgSender()) */\n      0x2f8788117e7eff1d82e926ec794901d17c78024a50270940304540a733656f0d\n      mload(0x40)\n      mload(0x40)\n      dup1\n      swap2\n      sub\n      swap1\n      log4\n        /* \"@openzeppelin/contracts/access/AccessControl.sol\":7539:7688  if (!hasRole(role, account)) {... */\n    tag_204:\n        /* \"@openzeppelin/contracts/access/AccessControl.sol\":7461:7694  function _grantRole(bytes32 role, address account) internal virtual {... */\n      pop\n      pop\n      jump\t// out\n        /* \"@openzeppelin/contracts/utils/Context.sol\":640:736  function _msgSender() internal view virtual returns (address) {... */\n    tag_160:\n        /* \"@openzeppelin/contracts/utils/Context.sol\":693:700  address */\n      0x00\n        /* \"@openzeppelin/contracts/utils/Context.sol\":719:729  msg.sender */\n      caller\n        /* \"@openzeppelin/contracts/utils/Context.sol\":712:729  return msg.sender */\n      swap1\n      pop\n        /* \"@openzeppelin/contracts/utils/Context.sol\":640:736  function _msgSender() internal view virtual returns (address) {... */\n      swap1\n      jump\t// out\n        /* \"@openzeppelin/contracts/access/AccessControl.sol\":7865:8099  function _revokeRole(bytes32 role, address account) internal virtual {... */\n    tag_165:\n        /* \"@openzeppelin/contracts/access/AccessControl.sol\":7948:7970  hasRole(role, account) */\n      tag_208\n        /* \"@openzeppelin/contracts/access/AccessControl.sol\":7956:7960  role */\n      dup3\n        /* \"@openzeppelin/contracts/access/AccessControl.sol\":7962:7969  account */\n      dup3\n        /* \"@openzeppelin/contracts/access/AccessControl.sol\":7948:7955  hasRole */\n      tag_72\n        /* \"@openzeppelin/contracts/access/AccessControl.sol\":7948:7970  hasRole(role, account) */\n      jump\t// in\n    tag_208:\n        /* \"@openzeppelin/contracts/access/AccessControl.sol\":7944:8093  if (hasRole(role, account)) {... */\n      iszero\n      tag_209\n      jumpi\n        /* \"@openzeppelin/contracts/access/AccessControl.sol\":8018:8023  false */\n      0x00\n        /* \"@openzeppelin/contracts/access/AccessControl.sol\":7986:7992  _roles */\n      dup1\n        /* \"@openzeppelin/contracts/access/AccessControl.sol\":7986:7998  _roles[role] */\n      0x00\n        /* \"@openzeppelin/contracts/access/AccessControl.sol\":7993:7997  role */\n      dup5\n        /* \"@openzeppelin/contracts/access/AccessControl.sol\":7986:7998  _roles[role] */\n      dup2\n      mstore\n      0x20\n      add\n      swap1\n      dup2\n      mstore\n      0x20\n      add\n      0x00\n      keccak256\n        /* \"@openzeppelin/contracts/access/AccessControl.sol\":7986:8006  _roles[role].members */\n      0x00\n      add\n        /* \"@openzeppelin/contracts/access/AccessControl.sol\":7986:8015  _roles[role].members[account] */\n      0x00\n        /* \"@openzeppelin/contracts/access/AccessControl.sol\":8007:8014  account */\n      dup4\n        /* \"@openzeppelin/contracts/access/AccessControl.sol\":7986:8015  _roles[role].members[account] */\n      0xffffffffffffffffffffffffffffffffffffffff\n      and\n      0xffffffffffffffffffffffffffffffffffffffff\n      and\n      dup2\n      mstore\n      0x20\n      add\n      swap1\n      dup2\n      mstore\n      0x20\n      add\n      0x00\n      keccak256\n      0x00\n        /* \"@openzeppelin/contracts/access/AccessControl.sol\":7986:8023  _roles[role].members[account] = false */\n      0x0100\n      exp\n      dup2\n      sload\n      dup2\n      0xff\n      mul\n      not\n      and\n      swap1\n      dup4\n      iszero\n      iszero\n      mul\n      or\n      swap1\n      sstore\n      pop\n        /* \"@openzeppelin/contracts/access/AccessControl.sol\":8069:8081  _msgSender() */\n      tag_210\n        /* \"@openzeppelin/contracts/access/AccessControl.sol\":8069:8079  _msgSender */\n      tag_160\n        /* \"@openzeppelin/contracts/access/AccessControl.sol\":8069:8081  _msgSender() */\n      jump\t// in\n    tag_210:\n        /* \"@openzeppelin/contracts/access/AccessControl.sol\":8042:8082  RoleRevoked(role, account, _msgSender()) */\n      0xffffffffffffffffffffffffffffffffffffffff\n      and\n        /* \"@openzeppelin/contracts/access/AccessControl.sol\":8060:8067  account */\n      dup2\n        /* \"@openzeppelin/contracts/access/AccessControl.sol\":8042:8082  RoleRevoked(role, account, _msgSender()) */\n      0xffffffffffffffffffffffffffffffffffffffff\n      and\n        /* \"@openzeppelin/contracts/access/AccessControl.sol\":8054:8058  role */\n      dup4\n        /* \"@openzeppelin/contracts/access/AccessControl.sol\":8042:8082  RoleRevoked(role, account, _msgSender()) */\n      0xf6391f5c32d9c69d2a47ea670b442974b53935d1edc7fd64eb21e047a839171b\n      mload(0x40)\n      mload(0x40)\n      dup1\n      swap2\n      sub\n      swap1\n      log4\n        /* \"@openzeppelin/contracts/access/AccessControl.sol\":7944:8093  if (hasRole(role, account)) {... */\n    tag_209:\n        /* \"@openzeppelin/contracts/access/AccessControl.sol\":7865:8099  function _revokeRole(bytes32 role, address account) internal virtual {... */\n      pop\n      pop\n      jump\t// out\n        /* \"@openzeppelin/contracts/utils/math/SafeMath.sol\":3122:3218  function sub(uint256 a, uint256 b) internal pure returns (uint256) {... */\n    tag_177:\n        /* \"@openzeppelin/contracts/utils/math/SafeMath.sol\":3180:3187  uint256 */\n      0x00\n        /* \"@openzeppelin/contracts/utils/math/SafeMath.sol\":3210:3211  b */\n      dup2\n        /* \"@openzeppelin/contracts/utils/math/SafeMath.sol\":3206:3207  a */\n      dup4\n        /* \"@openzeppelin/contracts/utils/math/SafeMath.sol\":3206:3211  a - b */\n      tag_212\n      swap2\n      swap1\n      tag_213\n      jump\t// in\n    tag_212:\n        /* \"@openzeppelin/contracts/utils/math/SafeMath.sol\":3199:3211  return a - b */\n      swap1\n      pop\n        /* \"@openzeppelin/contracts/utils/math/SafeMath.sol\":3122:3218  function sub(uint256 a, uint256 b) internal pure returns (uint256) {... */\n      swap3\n      swap2\n      pop\n      pop\n      jump\t// out\n        /* \"@openzeppelin/contracts/utils/math/SafeMath.sol\":3465:3561  function mul(uint256 a, uint256 b) internal pure returns (uint256) {... */\n    tag_192:\n        /* \"@openzeppelin/contracts/utils/math/SafeMath.sol\":3523:3530  uint256 */\n      0x00\n        /* \"@openzeppelin/contracts/utils/math/SafeMath.sol\":3553:3554  b */\n      dup2\n        /* \"@openzeppelin/contracts/utils/math/SafeMath.sol\":3549:3550  a */\n      dup4\n        /* \"@openzeppelin/contracts/utils/math/SafeMath.sol\":3549:3554  a * b */\n      tag_215\n      swap2\n      swap1\n      tag_127\n      jump\t// in\n    tag_215:\n        /* \"@openzeppelin/contracts/utils/math/SafeMath.sol\":3542:3554  return a * b */\n      swap1\n      pop\n        /* \"@openzeppelin/contracts/utils/math/SafeMath.sol\":3465:3561  function mul(uint256 a, uint256 b) internal pure returns (uint256) {... */\n      swap3\n      swap2\n      pop\n      pop\n      jump\t// out\n        /* \"@openzeppelin/contracts/access/AccessControl.sol\":3718:4197  function _checkRole(bytes32 role, address account) internal view virtual {... */\n    tag_197:\n        /* \"@openzeppelin/contracts/access/AccessControl.sol\":3806:3828  hasRole(role, account) */\n      tag_217\n        /* \"@openzeppelin/contracts/access/AccessControl.sol\":3814:3818  role */\n      dup3\n        /* \"@openzeppelin/contracts/access/AccessControl.sol\":3820:3827  account */\n      dup3\n        /* \"@openzeppelin/contracts/access/AccessControl.sol\":3806:3813  hasRole */\n      tag_72\n        /* \"@openzeppelin/contracts/access/AccessControl.sol\":3806:3828  hasRole(role, account) */\n      jump\t// in\n    tag_217:\n        /* \"@openzeppelin/contracts/access/AccessControl.sol\":3801:4191  if (!hasRole(role, account)) {... */\n      tag_218\n      jumpi\n        /* \"@openzeppelin/contracts/access/AccessControl.sol\":3989:4017  Strings.toHexString(account) */\n      tag_219\n        /* \"@openzeppelin/contracts/access/AccessControl.sol\":4009:4016  account */\n      dup2\n        /* \"@openzeppelin/contracts/access/AccessControl.sol\":3989:4008  Strings.toHexString */\n      tag_220\n        /* \"@openzeppelin/contracts/access/AccessControl.sol\":3989:4017  Strings.toHexString(account) */\n      jump\t// in\n    tag_219:\n        /* \"@openzeppelin/contracts/access/AccessControl.sol\":4088:4126  Strings.toHexString(uint256(role), 32) */\n      tag_221\n        /* \"@openzeppelin/contracts/access/AccessControl.sol\":4116:4120  role */\n      dup4\n        /* \"@openzeppelin/contracts/access/AccessControl.sol\":4108:4121  uint256(role) */\n      0x00\n      shr\n        /* \"@openzeppelin/contracts/access/AccessControl.sol\":4123:4125  32 */\n      0x20\n        /* \"@openzeppelin/contracts/access/AccessControl.sol\":4088:4107  Strings.toHexString */\n      tag_222\n        /* \"@openzeppelin/contracts/access/AccessControl.sol\":4088:4126  Strings.toHexString(uint256(role), 32) */\n      jump\t// in\n    tag_221:\n        /* \"@openzeppelin/contracts/access/AccessControl.sol\":3896:4148  abi.encodePacked(... */\n      add(0x20, mload(0x40))\n      tag_223\n      swap3\n      swap2\n      swap1\n      tag_224\n      jump\t// in\n    tag_223:\n      mload(0x40)\n      0x20\n      dup2\n      dup4\n      sub\n      sub\n      dup2\n      mstore\n      swap1\n      0x40\n      mstore\n        /* \"@openzeppelin/contracts/access/AccessControl.sol\":3844:4180  revert(... */\n      mload(0x40)\n      0x08c379a000000000000000000000000000000000000000000000000000000000\n      dup2\n      mstore\n      0x04\n      add\n      tag_225\n      swap2\n      swap1\n      tag_226\n      jump\t// in\n    tag_225:\n      mload(0x40)\n      dup1\n      swap2\n      sub\n      swap1\n      revert\n        /* \"@openzeppelin/contracts/access/AccessControl.sol\":3801:4191  if (!hasRole(role, account)) {... */\n    tag_218:\n        /* \"@openzeppelin/contracts/access/AccessControl.sol\":3718:4197  function _checkRole(bytes32 role, address account) internal view virtual {... */\n      pop\n      pop\n      jump\t// out\n        /* \"contracts/ICO.sol\":6219:6315  function soldPercent() private view returns(uint256){... */\n    tag_201:\n        /* \"contracts/ICO.sol\":6263:6270  uint256 */\n      0x00\n        /* \"contracts/ICO.sol\":6288:6308  SoldEFTT.div(maxICO) */\n      tag_228\n        /* \"contracts/ICO.sol\":6301:6307  maxICO */\n      sload(0x06)\n        /* \"contracts/ICO.sol\":6288:6296  SoldEFTT */\n      sload(0x08)\n        /* \"contracts/ICO.sol\":6288:6300  SoldEFTT.div */\n      tag_229\n      swap1\n        /* \"contracts/ICO.sol\":6288:6308  SoldEFTT.div(maxICO) */\n      swap2\n      swap1\n      0xffffffff\n      and\n      jump\t// in\n    tag_228:\n        /* \"contracts/ICO.sol\":6281:6308  return SoldEFTT.div(maxICO) */\n      swap1\n      pop\n        /* \"contracts/ICO.sol\":6219:6315  function soldPercent() private view returns(uint256){... */\n      swap1\n      jump\t// out\n        /* \"@openzeppelin/contracts/utils/Strings.sol\":2102:2251  function toHexString(address addr) internal pure returns (string memory) {... */\n    tag_220:\n        /* \"@openzeppelin/contracts/utils/Strings.sol\":2160:2173  string memory */\n      0x60\n        /* \"@openzeppelin/contracts/utils/Strings.sol\":2192:2244  toHexString(uint256(uint160(addr)), _ADDRESS_LENGTH) */\n      tag_231\n        /* \"@openzeppelin/contracts/utils/Strings.sol\":2220:2224  addr */\n      dup3\n        /* \"@openzeppelin/contracts/utils/Strings.sol\":2204:2226  uint256(uint160(addr)) */\n      0xffffffffffffffffffffffffffffffffffffffff\n      and\n        /* \"@openzeppelin/contracts/utils/Strings.sol\":311:313  20 */\n      0x14\n        /* \"@openzeppelin/contracts/utils/Strings.sol\":2192:2244  toHexString(uint256(uint160(addr)), _ADDRESS_LENGTH) */\n      0xff\n      and\n        /* \"@openzeppelin/contracts/utils/Strings.sol\":2192:2203  toHexString */\n      tag_222\n        /* \"@openzeppelin/contracts/utils/Strings.sol\":2192:2244  toHexString(uint256(uint160(addr)), _ADDRESS_LENGTH) */\n      jump\t// in\n    tag_231:\n        /* \"@openzeppelin/contracts/utils/Strings.sol\":2185:2244  return toHexString(uint256(uint160(addr)), _ADDRESS_LENGTH) */\n      swap1\n      pop\n        /* \"@openzeppelin/contracts/utils/Strings.sol\":2102:2251  function toHexString(address addr) internal pure returns (string memory) {... */\n      swap2\n      swap1\n      pop\n      jump\t// out\n        /* \"@openzeppelin/contracts/utils/Strings.sol\":1513:1950  function toHexString(uint256 value, uint256 length) internal pure returns (string memory) {... */\n    tag_222:\n        /* \"@openzeppelin/contracts/utils/Strings.sol\":1588:1601  string memory */\n      0x60\n        /* \"@openzeppelin/contracts/utils/Strings.sol\":1613:1632  bytes memory buffer */\n      0x00\n        /* \"@openzeppelin/contracts/utils/Strings.sol\":1658:1659  2 */\n      0x02\n        /* \"@openzeppelin/contracts/utils/Strings.sol\":1649:1655  length */\n      dup4\n        /* \"@openzeppelin/contracts/utils/Strings.sol\":1645:1646  2 */\n      0x02\n        /* \"@openzeppelin/contracts/utils/Strings.sol\":1645:1655  2 * length */\n      tag_233\n      swap2\n      swap1\n      tag_127\n      jump\t// in\n    tag_233:\n        /* \"@openzeppelin/contracts/utils/Strings.sol\":1645:1659  2 * length + 2 */\n      tag_234\n      swap2\n      swap1\n      tag_99\n      jump\t// in\n    tag_234:\n        /* \"@openzeppelin/contracts/utils/Strings.sol\":1635:1660  new bytes(2 * length + 2) */\n      0xffffffffffffffff\n      dup2\n      gt\n      iszero\n      tag_235\n      jumpi\n      tag_236\n      tag_237\n      jump\t// in\n    tag_236:\n    tag_235:\n      mload(0x40)\n      swap1\n      dup1\n      dup3\n      mstore\n      dup1\n      0x1f\n      add\n      not(0x1f)\n      and\n      0x20\n      add\n      dup3\n      add\n      0x40\n      mstore\n      dup1\n      iszero\n      tag_238\n      jumpi\n      dup2\n      0x20\n      add\n      0x01\n      dup3\n      mul\n      dup1\n      calldatasize\n      dup4\n      calldatacopy\n      dup1\n      dup3\n      add\n      swap2\n      pop\n      pop\n      swap1\n      pop\n    tag_238:\n      pop\n        /* \"@openzeppelin/contracts/utils/Strings.sol\":1613:1660  bytes memory buffer = new bytes(2 * length + 2) */\n      swap1\n      pop\n        /* \"@openzeppelin/contracts/utils/Strings.sol\":1670:1685  buffer[0] = \"0\" */\n      0x3000000000000000000000000000000000000000000000000000000000000000\n        /* \"@openzeppelin/contracts/utils/Strings.sol\":1670:1676  buffer */\n      dup2\n        /* \"@openzeppelin/contracts/utils/Strings.sol\":1677:1678  0 */\n      0x00\n        /* \"@openzeppelin/contracts/utils/Strings.sol\":1670:1679  buffer[0] */\n      dup2\n      mload\n      dup2\n      lt\n      tag_239\n      jumpi\n      tag_240\n      tag_241\n      jump\t// in\n    tag_240:\n    tag_239:\n      0x20\n      add\n      add\n        /* \"@openzeppelin/contracts/utils/Strings.sol\":1670:1685  buffer[0] = \"0\" */\n      swap1\n      not(0xffffffffffffffffffffffffffffffffffffffffffffffffffffffffffffff)\n      and\n      swap1\n      dup2\n      0x00\n      byte\n      swap1\n      mstore8\n      pop\n        /* \"@openzeppelin/contracts/utils/Strings.sol\":1695:1710  buffer[1] = \"x\" */\n      0x7800000000000000000000000000000000000000000000000000000000000000\n        /* \"@openzeppelin/contracts/utils/Strings.sol\":1695:1701  buffer */\n      dup2\n        /* \"@openzeppelin/contracts/utils/Strings.sol\":1702:1703  1 */\n      0x01\n        /* \"@openzeppelin/contracts/utils/Strings.sol\":1695:1704  buffer[1] */\n      dup2\n      mload\n      dup2\n      lt\n      tag_242\n      jumpi\n      tag_243\n      tag_241\n      jump\t// in\n    tag_243:\n    tag_242:\n      0x20\n      add\n      add\n        /* \"@openzeppelin/contracts/utils/Strings.sol\":1695:1710  buffer[1] = \"x\" */\n      swap1\n      not(0xffffffffffffffffffffffffffffffffffffffffffffffffffffffffffffff)\n      and\n      swap1\n      dup2\n      0x00\n      byte\n      swap1\n      mstore8\n      pop\n        /* \"@openzeppelin/contracts/utils/Strings.sol\":1725:1734  uint256 i */\n      0x00\n        /* \"@openzeppelin/contracts/utils/Strings.sol\":1750:1751  1 */\n      0x01\n        /* \"@openzeppelin/contracts/utils/Strings.sol\":1741:1747  length */\n      dup5\n        /* \"@openzeppelin/contracts/utils/Strings.sol\":1737:1738  2 */\n      0x02\n        /* \"@openzeppelin/contracts/utils/Strings.sol\":1737:1747  2 * length */\n      tag_247\n      swap2\n      swap1\n      tag_127\n      jump\t// in\n    tag_247:\n        /* \"@openzeppelin/contracts/utils/Strings.sol\":1737:1751  2 * length + 1 */\n      tag_248\n      swap2\n      swap1\n      tag_99\n      jump\t// in\n    tag_248:\n        /* \"@openzeppelin/contracts/utils/Strings.sol\":1725:1751  uint256 i = 2 * length + 1 */\n      swap1\n      pop\n        /* \"@openzeppelin/contracts/utils/Strings.sol\":1720:1848  for (uint256 i = 2 * length + 1; i > 1; --i) {... */\n    tag_244:\n        /* \"@openzeppelin/contracts/utils/Strings.sol\":1757:1758  1 */\n      0x01\n        /* \"@openzeppelin/contracts/utils/Strings.sol\":1753:1754  i */\n      dup2\n        /* \"@openzeppelin/contracts/utils/Strings.sol\":1753:1758  i > 1 */\n      gt\n        /* \"@openzeppelin/contracts/utils/Strings.sol\":1720:1848  for (uint256 i = 2 * length + 1; i > 1; --i) {... */\n      iszero\n      tag_245\n      jumpi\n        /* \"@openzeppelin/contracts/utils/Strings.sol\":1791:1799  _SYMBOLS */\n      0x3031323334353637383961626364656600000000000000000000000000000000\n        /* \"@openzeppelin/contracts/utils/Strings.sol\":1808:1811  0xf */\n      0x0f\n        /* \"@openzeppelin/contracts/utils/Strings.sol\":1800:1805  value */\n      dup7\n        /* \"@openzeppelin/contracts/utils/Strings.sol\":1800:1811  value & 0xf */\n      and\n        /* \"@openzeppelin/contracts/utils/Strings.sol\":1791:1812  _SYMBOLS[value & 0xf] */\n      0x10\n      dup2\n      lt\n      tag_249\n      jumpi\n      tag_250\n      tag_241\n      jump\t// in\n    tag_250:\n    tag_249:\n      byte\n      0xf8\n      shl\n        /* \"@openzeppelin/contracts/utils/Strings.sol\":1779:1785  buffer */\n      dup3\n        /* \"@openzeppelin/contracts/utils/Strings.sol\":1786:1787  i */\n      dup3\n        /* \"@openzeppelin/contracts/utils/Strings.sol\":1779:1788  buffer[i] */\n      dup2\n      mload\n      dup2\n      lt\n      tag_251\n      jumpi\n      tag_252\n      tag_241\n      jump\t// in\n    tag_252:\n    tag_251:\n      0x20\n      add\n      add\n        /* \"@openzeppelin/contracts/utils/Strings.sol\":1779:1812  buffer[i] = _SYMBOLS[value & 0xf] */\n      swap1\n      not(0xffffffffffffffffffffffffffffffffffffffffffffffffffffffffffffff)\n      and\n      swap1\n      dup2\n      0x00\n      byte\n      swap1\n      mstore8\n      pop\n        /* \"@openzeppelin/contracts/utils/Strings.sol\":1836:1837  4 */\n      0x04\n        /* \"@openzeppelin/contracts/utils/Strings.sol\":1826:1837  value >>= 4 */\n      dup6\n      swap1\n      shr\n      swap5\n      pop\n        /* \"@openzeppelin/contracts/utils/Strings.sol\":1760:1763  --i */\n      dup1\n      tag_253\n      swap1\n      tag_254\n      jump\t// in\n    tag_253:\n      swap1\n      pop\n        /* \"@openzeppelin/contracts/utils/Strings.sol\":1720:1848  for (uint256 i = 2 * length + 1; i > 1; --i) {... */\n      jump(tag_244)\n    tag_245:\n      pop\n        /* \"@openzeppelin/contracts/utils/Strings.sol\":1874:1875  0 */\n      0x00\n        /* \"@openzeppelin/contracts/utils/Strings.sol\":1865:1870  value */\n      dup5\n        /* \"@openzeppelin/contracts/utils/Strings.sol\":1865:1875  value == 0 */\n      eq\n        /* \"@openzeppelin/contracts/utils/Strings.sol\":1857:1912  require(value == 0, \"Strings: hex length insufficient\") */\n      tag_255\n      jumpi\n      mload(0x40)\n      0x08c379a000000000000000000000000000000000000000000000000000000000\n      dup2\n      mstore\n      0x04\n      add\n      tag_256\n      swap1\n      tag_257\n      jump\t// in\n    tag_256:\n      mload(0x40)\n      dup1\n      swap2\n      sub\n      swap1\n      revert\n    tag_255:\n        /* \"@openzeppelin/contracts/utils/Strings.sol\":1936:1942  buffer */\n      dup1\n        /* \"@openzeppelin/contracts/utils/Strings.sol\":1922:1943  return string(buffer) */\n      swap2\n      pop\n      pop\n        /* \"@openzeppelin/contracts/utils/Strings.sol\":1513:1950  function toHexString(uint256 value, uint256 length) internal pure returns (string memory) {... */\n      swap3\n      swap2\n      pop\n      pop\n      jump\t// out\n        /* \"@openzeppelin/contracts/utils/math/SafeMath.sol\":3850:3946  function div(uint256 a, uint256 b) internal pure returns (uint256) {... */\n    tag_229:\n        /* \"@openzeppelin/contracts/utils/math/SafeMath.sol\":3908:3915  uint256 */\n      0x00\n        /* \"@openzeppelin/contracts/utils/math/SafeMath.sol\":3938:3939  b */\n      dup2\n        /* \"@openzeppelin/contracts/utils/math/SafeMath.sol\":3934:3935  a */\n      dup4\n        /* \"@openzeppelin/contracts/utils/math/SafeMath.sol\":3934:3939  a / b */\n      tag_259\n      swap2\n      swap1\n      tag_260\n      jump\t// in\n    tag_259:\n        /* \"@openzeppelin/contracts/utils/math/SafeMath.sol\":3927:3939  return a / b */\n      swap1\n      pop\n        /* \"@openzeppelin/contracts/utils/math/SafeMath.sol\":3850:3946  function div(uint256 a, uint256 b) internal pure returns (uint256) {... */\n      swap3\n      swap2\n      pop\n      pop\n      jump\t// out\n        /* \"#utility.yul\":7:176   */\n    tag_261:\n        /* \"#utility.yul\":91:102   */\n      0x00\n        /* \"#utility.yul\":125:131   */\n      dup3\n        /* \"#utility.yul\":120:123   */\n      dup3\n        /* \"#utility.yul\":113:132   */\n      mstore\n        /* \"#utility.yul\":165:169   */\n      0x20\n        /* \"#utility.yul\":160:163   */\n      dup3\n        /* \"#utility.yul\":156:170   */\n      add\n        /* \"#utility.yul\":141:170   */\n      swap1\n      pop\n        /* \"#utility.yul\":7:176   */\n      swap3\n      swap2\n      pop\n      pop\n      jump\t// out\n        /* \"#utility.yul\":182:344   */\n    tag_262:\n        /* \"#utility.yul\":322:336   */\n      0x66616c6c6261636b206869740000000000000000000000000000000000000000\n        /* \"#utility.yul\":318:319   */\n      0x00\n        /* \"#utility.yul\":310:316   */\n      dup3\n        /* \"#utility.yul\":306:320   */\n      add\n        /* \"#utility.yul\":299:337   */\n      mstore\n        /* \"#utility.yul\":182:344   */\n      pop\n      jump\t// out\n        /* \"#utility.yul\":350:716   */\n    tag_263:\n        /* \"#utility.yul\":492:495   */\n      0x00\n        /* \"#utility.yul\":513:580   */\n      tag_315\n        /* \"#utility.yul\":577:579   */\n      0x0c\n        /* \"#utility.yul\":572:575   */\n      dup4\n        /* \"#utility.yul\":513:580   */\n      tag_261\n      jump\t// in\n    tag_315:\n        /* \"#utility.yul\":506:580   */\n      swap2\n      pop\n        /* \"#utility.yul\":589:682   */\n      tag_316\n        /* \"#utility.yul\":678:681   */\n      dup3\n        /* \"#utility.yul\":589:682   */\n      tag_262\n      jump\t// in\n    tag_316:\n        /* \"#utility.yul\":707:709   */\n      0x20\n        /* \"#utility.yul\":702:705   */\n      dup3\n        /* \"#utility.yul\":698:710   */\n      add\n        /* \"#utility.yul\":691:710   */\n      swap1\n      pop\n        /* \"#utility.yul\":350:716   */\n      swap2\n      swap1\n      pop\n      jump\t// out\n        /* \"#utility.yul\":722:1141   */\n    tag_23:\n        /* \"#utility.yul\":888:892   */\n      0x00\n        /* \"#utility.yul\":926:928   */\n      0x20\n        /* \"#utility.yul\":915:924   */\n      dup3\n        /* \"#utility.yul\":911:929   */\n      add\n        /* \"#utility.yul\":903:929   */\n      swap1\n      pop\n        /* \"#utility.yul\":975:984   */\n      dup2\n        /* \"#utility.yul\":969:973   */\n      dup2\n        /* \"#utility.yul\":965:985   */\n      sub\n        /* \"#utility.yul\":961:962   */\n      0x00\n        /* \"#utility.yul\":950:959   */\n      dup4\n        /* \"#utility.yul\":946:963   */\n      add\n        /* \"#utility.yul\":939:986   */\n      mstore\n        /* \"#utility.yul\":1003:1134   */\n      tag_318\n        /* \"#utility.yul\":1129:1133   */\n      dup2\n        /* \"#utility.yul\":1003:1134   */\n      tag_263\n      jump\t// in\n    tag_318:\n        /* \"#utility.yul\":995:1134   */\n      swap1\n      pop\n        /* \"#utility.yul\":722:1141   */\n      swap2\n      swap1\n      pop\n      jump\t// out\n        /* \"#utility.yul\":1228:1345   */\n    tag_265:\n        /* \"#utility.yul\":1337:1338   */\n      0x00\n        /* \"#utility.yul\":1334:1335   */\n      dup1\n        /* \"#utility.yul\":1327:1339   */\n      revert\n        /* \"#utility.yul\":1474:1623   */\n    tag_267:\n        /* \"#utility.yul\":1510:1517   */\n      0x00\n        /* \"#utility.yul\":1550:1616   */\n      0xffffffff00000000000000000000000000000000000000000000000000000000\n        /* \"#utility.yul\":1543:1548   */\n      dup3\n        /* \"#utility.yul\":1539:1617   */\n      and\n        /* \"#utility.yul\":1528:1617   */\n      swap1\n      pop\n        /* \"#utility.yul\":1474:1623   */\n      swap2\n      swap1\n      pop\n      jump\t// out\n        /* \"#utility.yul\":1629:1749   */\n    tag_268:\n        /* \"#utility.yul\":1701:1724   */\n      tag_324\n        /* \"#utility.yul\":1718:1723   */\n      dup2\n        /* \"#utility.yul\":1701:1724   */\n      tag_267\n      jump\t// in\n    tag_324:\n        /* \"#utility.yul\":1694:1699   */\n      dup2\n        /* \"#utility.yul\":1691:1725   */\n      eq\n        /* \"#utility.yul\":1681:1743   */\n      tag_325\n      jumpi\n        /* \"#utility.yul\":1739:1740   */\n      0x00\n        /* \"#utility.yul\":1736:1737   */\n      dup1\n        /* \"#utility.yul\":1729:1741   */\n      revert\n        /* \"#utility.yul\":1681:1743   */\n    tag_325:\n        /* \"#utility.yul\":1629:1749   */\n      pop\n      jump\t// out\n        /* \"#utility.yul\":1755:1892   */\n    tag_269:\n        /* \"#utility.yul\":1800:1805   */\n      0x00\n        /* \"#utility.yul\":1838:1844   */\n      dup2\n        /* \"#utility.yul\":1825:1845   */\n      calldataload\n        /* \"#utility.yul\":1816:1845   */\n      swap1\n      pop\n        /* \"#utility.yul\":1854:1886   */\n      tag_327\n        /* \"#utility.yul\":1880:1885   */\n      dup2\n        /* \"#utility.yul\":1854:1886   */\n      tag_268\n      jump\t// in\n    tag_327:\n        /* \"#utility.yul\":1755:1892   */\n      swap3\n      swap2\n      pop\n      pop\n      jump\t// out\n        /* \"#utility.yul\":1898:2225   */\n    tag_29:\n        /* \"#utility.yul\":1956:1962   */\n      0x00\n        /* \"#utility.yul\":2005:2007   */\n      0x20\n        /* \"#utility.yul\":1993:2002   */\n      dup3\n        /* \"#utility.yul\":1984:1991   */\n      dup5\n        /* \"#utility.yul\":1980:2003   */\n      sub\n        /* \"#utility.yul\":1976:2008   */\n      slt\n        /* \"#utility.yul\":1973:2092   */\n      iszero\n      tag_329\n      jumpi\n        /* \"#utility.yul\":2011:2090   */\n      tag_330\n      tag_265\n      jump\t// in\n    tag_330:\n        /* \"#utility.yul\":1973:2092   */\n    tag_329:\n        /* \"#utility.yul\":2131:2132   */\n      0x00\n        /* \"#utility.yul\":2156:2208   */\n      tag_331\n        /* \"#utility.yul\":2200:2207   */\n      dup5\n        /* \"#utility.yul\":2191:2197   */\n      dup3\n        /* \"#utility.yul\":2180:2189   */\n      dup6\n        /* \"#utility.yul\":2176:2198   */\n      add\n        /* \"#utility.yul\":2156:2208   */\n      tag_269\n      jump\t// in\n    tag_331:\n        /* \"#utility.yul\":2146:2208   */\n      swap2\n      pop\n        /* \"#utility.yul\":2102:2218   */\n      pop\n        /* \"#utility.yul\":1898:2225   */\n      swap3\n      swap2\n      pop\n      pop\n      jump\t// out\n        /* \"#utility.yul\":2231:2321   */\n    tag_270:\n        /* \"#utility.yul\":2265:2272   */\n      0x00\n        /* \"#utility.yul\":2308:2313   */\n      dup2\n        /* \"#utility.yul\":2301:2314   */\n      iszero\n        /* \"#utility.yul\":2294:2315   */\n      iszero\n        /* \"#utility.yul\":2283:2315   */\n      swap1\n      pop\n        /* \"#utility.yul\":2231:2321   */\n      swap2\n      swap1\n      pop\n      jump\t// out\n        /* \"#utility.yul\":2327:2436   */\n    tag_271:\n        /* \"#utility.yul\":2408:2429   */\n      tag_334\n        /* \"#utility.yul\":2423:2428   */\n      dup2\n        /* \"#utility.yul\":2408:2429   */\n      tag_270\n      jump\t// in\n    tag_334:\n        /* \"#utility.yul\":2403:2406   */\n      dup3\n        /* \"#utility.yul\":2396:2430   */\n      mstore\n        /* \"#utility.yul\":2327:2436   */\n      pop\n      pop\n      jump\t// out\n        /* \"#utility.yul\":2442:2652   */\n    tag_32:\n        /* \"#utility.yul\":2529:2533   */\n      0x00\n        /* \"#utility.yul\":2567:2569   */\n      0x20\n        /* \"#utility.yul\":2556:2565   */\n      dup3\n        /* \"#utility.yul\":2552:2570   */\n      add\n        /* \"#utility.yul\":2544:2570   */\n      swap1\n      pop\n        /* \"#utility.yul\":2580:2645   */\n      tag_336\n        /* \"#utility.yul\":2642:2643   */\n      0x00\n        /* \"#utility.yul\":2631:2640   */\n      dup4\n        /* \"#utility.yul\":2627:2644   */\n      add\n        /* \"#utility.yul\":2618:2624   */\n      dup5\n        /* \"#utility.yul\":2580:2645   */\n      tag_271\n      jump\t// in\n    tag_336:\n        /* \"#utility.yul\":2442:2652   */\n      swap3\n      swap2\n      pop\n      pop\n      jump\t// out\n        /* \"#utility.yul\":2658:2735   */\n    tag_272:\n        /* \"#utility.yul\":2695:2702   */\n      0x00\n        /* \"#utility.yul\":2724:2729   */\n      dup2\n        /* \"#utility.yul\":2713:2729   */\n      swap1\n      pop\n        /* \"#utility.yul\":2658:2735   */\n      swap2\n      swap1\n      pop\n      jump\t// out\n        /* \"#utility.yul\":2741:2863   */\n    tag_273:\n        /* \"#utility.yul\":2814:2838   */\n      tag_339\n        /* \"#utility.yul\":2832:2837   */\n      dup2\n        /* \"#utility.yul\":2814:2838   */\n      tag_272\n      jump\t// in\n    tag_339:\n        /* \"#utility.yul\":2807:2812   */\n      dup2\n        /* \"#utility.yul\":2804:2839   */\n      eq\n        /* \"#utility.yul\":2794:2857   */\n      tag_340\n      jumpi\n        /* \"#utility.yul\":2853:2854   */\n      0x00\n        /* \"#utility.yul\":2850:2851   */\n      dup1\n        /* \"#utility.yul\":2843:2855   */\n      revert\n        /* \"#utility.yul\":2794:2857   */\n    tag_340:\n        /* \"#utility.yul\":2741:2863   */\n      pop\n      jump\t// out\n        /* \"#utility.yul\":2869:3008   */\n    tag_274:\n        /* \"#utility.yul\":2915:2920   */\n      0x00\n        /* \"#utility.yul\":2953:2959   */\n      dup2\n        /* \"#utility.yul\":2940:2960   */\n      calldataload\n        /* \"#utility.yul\":2931:2960   */\n      swap1\n      pop\n        /* \"#utility.yul\":2969:3002   */\n      tag_342\n        /* \"#utility.yul\":2996:3001   */\n      dup2\n        /* \"#utility.yul\":2969:3002   */\n      tag_273\n      jump\t// in\n    tag_342:\n        /* \"#utility.yul\":2869:3008   */\n      swap3\n      swap2\n      pop\n      pop\n      jump\t// out\n        /* \"#utility.yul\":3014:3343   */\n    tag_36:\n        /* \"#utility.yul\":3073:3079   */\n      0x00\n        /* \"#utility.yul\":3122:3124   */\n      0x20\n        /* \"#utility.yul\":3110:3119   */\n      dup3\n        /* \"#utility.yul\":3101:3108   */\n      dup5\n        /* \"#utility.yul\":3097:3120   */\n      sub\n        /* \"#utility.yul\":3093:3125   */\n      slt\n        /* \"#utility.yul\":3090:3209   */\n      iszero\n      tag_344\n      jumpi\n        /* \"#utility.yul\":3128:3207   */\n      tag_345\n      tag_265\n      jump\t// in\n    tag_345:\n        /* \"#utility.yul\":3090:3209   */\n    tag_344:\n        /* \"#utility.yul\":3248:3249   */\n      0x00\n        /* \"#utility.yul\":3273:3326   */\n      tag_346\n        /* \"#utility.yul\":3318:3325   */\n      dup5\n        /* \"#utility.yul\":3309:3315   */\n      dup3\n        /* \"#utility.yul\":3298:3307   */\n      dup6\n        /* \"#utility.yul\":3294:3316   */\n      add\n        /* \"#utility.yul\":3273:3326   */\n      tag_274\n      jump\t// in\n    tag_346:\n        /* \"#utility.yul\":3263:3326   */\n      swap2\n      pop\n        /* \"#utility.yul\":3219:3336   */\n      pop\n        /* \"#utility.yul\":3014:3343   */\n      swap3\n      swap2\n      pop\n      pop\n      jump\t// out\n        /* \"#utility.yul\":3349:3467   */\n    tag_275:\n        /* \"#utility.yul\":3436:3460   */\n      tag_348\n        /* \"#utility.yul\":3454:3459   */\n      dup2\n        /* \"#utility.yul\":3436:3460   */\n      tag_272\n      jump\t// in\n    tag_348:\n        /* \"#utility.yul\":3431:3434   */\n      dup3\n        /* \"#utility.yul\":3424:3461   */\n      mstore\n        /* \"#utility.yul\":3349:3467   */\n      pop\n      pop\n      jump\t// out\n        /* \"#utility.yul\":3473:3695   */\n    tag_39:\n        /* \"#utility.yul\":3566:3570   */\n      0x00\n        /* \"#utility.yul\":3604:3606   */\n      0x20\n        /* \"#utility.yul\":3593:3602   */\n      dup3\n        /* \"#utility.yul\":3589:3607   */\n      add\n        /* \"#utility.yul\":3581:3607   */\n      swap1\n      pop\n        /* \"#utility.yul\":3617:3688   */\n      tag_350\n        /* \"#utility.yul\":3685:3686   */\n      0x00\n        /* \"#utility.yul\":3674:3683   */\n      dup4\n        /* \"#utility.yul\":3670:3687   */\n      add\n        /* \"#utility.yul\":3661:3667   */\n      dup5\n        /* \"#utility.yul\":3617:3688   */\n      tag_275\n      jump\t// in\n    tag_350:\n        /* \"#utility.yul\":3473:3695   */\n      swap3\n      swap2\n      pop\n      pop\n      jump\t// out\n        /* \"#utility.yul\":3701:3778   */\n    tag_276:\n        /* \"#utility.yul\":3738:3745   */\n      0x00\n        /* \"#utility.yul\":3767:3772   */\n      dup2\n        /* \"#utility.yul\":3756:3772   */\n      swap1\n      pop\n        /* \"#utility.yul\":3701:3778   */\n      swap2\n      swap1\n      pop\n      jump\t// out\n        /* \"#utility.yul\":3784:3906   */\n    tag_277:\n        /* \"#utility.yul\":3857:3881   */\n      tag_353\n        /* \"#utility.yul\":3875:3880   */\n      dup2\n        /* \"#utility.yul\":3857:3881   */\n      tag_276\n      jump\t// in\n    tag_353:\n        /* \"#utility.yul\":3850:3855   */\n      dup2\n        /* \"#utility.yul\":3847:3882   */\n      eq\n        /* \"#utility.yul\":3837:3900   */\n      tag_354\n      jumpi\n        /* \"#utility.yul\":3896:3897   */\n      0x00\n        /* \"#utility.yul\":3893:3894   */\n      dup1\n        /* \"#utility.yul\":3886:3898   */\n      revert\n        /* \"#utility.yul\":3837:3900   */\n    tag_354:\n        /* \"#utility.yul\":3784:3906   */\n      pop\n      jump\t// out\n        /* \"#utility.yul\":3912:4051   */\n    tag_278:\n        /* \"#utility.yul\":3958:3963   */\n      0x00\n        /* \"#utility.yul\":3996:4002   */\n      dup2\n        /* \"#utility.yul\":3983:4003   */\n      calldataload\n        /* \"#utility.yul\":3974:4003   */\n      swap1\n      pop\n        /* \"#utility.yul\":4012:4045   */\n      tag_356\n        /* \"#utility.yul\":4039:4044   */\n      dup2\n        /* \"#utility.yul\":4012:4045   */\n      tag_277\n      jump\t// in\n    tag_356:\n        /* \"#utility.yul\":3912:4051   */\n      swap3\n      swap2\n      pop\n      pop\n      jump\t// out\n        /* \"#utility.yul\":4057:4386   */\n    tag_47:\n        /* \"#utility.yul\":4116:4122   */\n      0x00\n        /* \"#utility.yul\":4165:4167   */\n      0x20\n        /* \"#utility.yul\":4153:4162   */\n      dup3\n        /* \"#utility.yul\":4144:4151   */\n      dup5\n        /* \"#utility.yul\":4140:4163   */\n      sub\n        /* \"#utility.yul\":4136:4168   */\n      slt\n        /* \"#utility.yul\":4133:4252   */\n      iszero\n      tag_358\n      jumpi\n        /* \"#utility.yul\":4171:4250   */\n      tag_359\n      tag_265\n      jump\t// in\n    tag_359:\n        /* \"#utility.yul\":4133:4252   */\n    tag_358:\n        /* \"#utility.yul\":4291:4292   */\n      0x00\n        /* \"#utility.yul\":4316:4369   */\n      tag_360\n        /* \"#utility.yul\":4361:4368   */\n      dup5\n        /* \"#utility.yul\":4352:4358   */\n      dup3\n        /* \"#utility.yul\":4341:4350   */\n      dup6\n        /* \"#utility.yul\":4337:4359   */\n      add\n        /* \"#utility.yul\":4316:4369   */\n      tag_278\n      jump\t// in\n    tag_360:\n        /* \"#utility.yul\":4306:4369   */\n      swap2\n      pop\n        /* \"#utility.yul\":4262:4379   */\n      pop\n        /* \"#utility.yul\":4057:4386   */\n      swap3\n      swap2\n      pop\n      pop\n      jump\t// out\n        /* \"#utility.yul\":4392:4518   */\n    tag_279:\n        /* \"#utility.yul\":4429:4436   */\n      0x00\n        /* \"#utility.yul\":4469:4511   */\n      0xffffffffffffffffffffffffffffffffffffffff\n        /* \"#utility.yul\":4462:4467   */\n      dup3\n        /* \"#utility.yul\":4458:4512   */\n      and\n        /* \"#utility.yul\":4447:4512   */\n      swap1\n      pop\n        /* \"#utility.yul\":4392:4518   */\n      swap2\n      swap1\n      pop\n      jump\t// out\n        /* \"#utility.yul\":4524:4620   */\n    tag_280:\n        /* \"#utility.yul\":4561:4568   */\n      0x00\n        /* \"#utility.yul\":4590:4614   */\n      tag_363\n        /* \"#utility.yul\":4608:4613   */\n      dup3\n        /* \"#utility.yul\":4590:4614   */\n      tag_279\n      jump\t// in\n    tag_363:\n        /* \"#utility.yul\":4579:4614   */\n      swap1\n      pop\n        /* \"#utility.yul\":4524:4620   */\n      swap2\n      swap1\n      pop\n      jump\t// out\n        /* \"#utility.yul\":4626:4748   */\n    tag_281:\n        /* \"#utility.yul\":4699:4723   */\n      tag_365\n        /* \"#utility.yul\":4717:4722   */\n      dup2\n        /* \"#utility.yul\":4699:4723   */\n      tag_280\n      jump\t// in\n    tag_365:\n        /* \"#utility.yul\":4692:4697   */\n      dup2\n        /* \"#utility.yul\":4689:4724   */\n      eq\n        /* \"#utility.yul\":4679:4742   */\n      tag_366\n      jumpi\n        /* \"#utility.yul\":4738:4739   */\n      0x00\n        /* \"#utility.yul\":4735:4736   */\n      dup1\n        /* \"#utility.yul\":4728:4740   */\n      revert\n        /* \"#utility.yul\":4679:4742   */\n    tag_366:\n        /* \"#utility.yul\":4626:4748   */\n      pop\n      jump\t// out\n        /* \"#utility.yul\":4754:4893   */\n    tag_282:\n        /* \"#utility.yul\":4800:4805   */\n      0x00\n        /* \"#utility.yul\":4838:4844   */\n      dup2\n        /* \"#utility.yul\":4825:4845   */\n      calldataload\n        /* \"#utility.yul\":4816:4845   */\n      swap1\n      pop\n        /* \"#utility.yul\":4854:4887   */\n      tag_368\n        /* \"#utility.yul\":4881:4886   */\n      dup2\n        /* \"#utility.yul\":4854:4887   */\n      tag_281\n      jump\t// in\n    tag_368:\n        /* \"#utility.yul\":4754:4893   */\n      swap3\n      swap2\n      pop\n      pop\n      jump\t// out\n        /* \"#utility.yul\":4899:5373   */\n    tag_52:\n        /* \"#utility.yul\":4967:4973   */\n      0x00\n        /* \"#utility.yul\":4975:4981   */\n      dup1\n        /* \"#utility.yul\":5024:5026   */\n      0x40\n        /* \"#utility.yul\":5012:5021   */\n      dup4\n        /* \"#utility.yul\":5003:5010   */\n      dup6\n        /* \"#utility.yul\":4999:5022   */\n      sub\n        /* \"#utility.yul\":4995:5027   */\n      slt\n        /* \"#utility.yul\":4992:5111   */\n      iszero\n      tag_370\n      jumpi\n        /* \"#utility.yul\":5030:5109   */\n      tag_371\n      tag_265\n      jump\t// in\n    tag_371:\n        /* \"#utility.yul\":4992:5111   */\n    tag_370:\n        /* \"#utility.yul\":5150:5151   */\n      0x00\n        /* \"#utility.yul\":5175:5228   */\n      tag_372\n        /* \"#utility.yul\":5220:5227   */\n      dup6\n        /* \"#utility.yul\":5211:5217   */\n      dup3\n        /* \"#utility.yul\":5200:5209   */\n      dup7\n        /* \"#utility.yul\":5196:5218   */\n      add\n        /* \"#utility.yul\":5175:5228   */\n      tag_274\n      jump\t// in\n    tag_372:\n        /* \"#utility.yul\":5165:5228   */\n      swap3\n      pop\n        /* \"#utility.yul\":5121:5238   */\n      pop\n        /* \"#utility.yul\":5277:5279   */\n      0x20\n        /* \"#utility.yul\":5303:5356   */\n      tag_373\n        /* \"#utility.yul\":5348:5355   */\n      dup6\n        /* \"#utility.yul\":5339:5345   */\n      dup3\n        /* \"#utility.yul\":5328:5337   */\n      dup7\n        /* \"#utility.yul\":5324:5346   */\n      add\n        /* \"#utility.yul\":5303:5356   */\n      tag_282\n      jump\t// in\n    tag_373:\n        /* \"#utility.yul\":5293:5356   */\n      swap2\n      pop\n        /* \"#utility.yul\":5248:5366   */\n      pop\n        /* \"#utility.yul\":4899:5373   */\n      swap3\n      pop\n      swap3\n      swap1\n      pop\n      jump\t// out\n        /* \"#utility.yul\":5379:5548   */\n    tag_283:\n        /* \"#utility.yul\":5519:5536   */\n      0x49434f206973206f766572203a28200000000000000000000000000000000000\n        /* \"#utility.yul\":5515:5516   */\n      0x00\n        /* \"#utility.yul\":5507:5513   */\n      dup3\n        /* \"#utility.yul\":5503:5517   */\n      add\n        /* \"#utility.yul\":5496:5537   */\n      mstore\n        /* \"#utility.yul\":5379:5548   */\n      pop\n      jump\t// out\n        /* \"#utility.yul\":5558:5940   */\n    tag_284:\n        /* \"#utility.yul\":5700:5703   */\n      0x00\n        /* \"#utility.yul\":5725:5792   */\n      tag_376\n        /* \"#utility.yul\":5789:5791   */\n      0x0f\n        /* \"#utility.yul\":5784:5787   */\n      dup4\n        /* \"#utility.yul\":5725:5792   */\n      tag_261\n      jump\t// in\n    tag_376:\n        /* \"#utility.yul\":5718:5792   */\n      swap2\n      pop\n        /* \"#utility.yul\":5805:5898   */\n      tag_377\n        /* \"#utility.yul\":5894:5897   */\n      dup3\n        /* \"#utility.yul\":5805:5898   */\n      tag_283\n      jump\t// in\n    tag_377:\n        /* \"#utility.yul\":5927:5929   */\n      0x20\n        /* \"#utility.yul\":5922:5925   */\n      dup3\n        /* \"#utility.yul\":5918:5930   */\n      add\n        /* \"#utility.yul\":5911:5930   */\n      swap1\n      pop\n        /* \"#utility.yul\":5558:5940   */\n      swap2\n      swap1\n      pop\n      jump\t// out\n        /* \"#utility.yul\":5950:6385   */\n    tag_91:\n        /* \"#utility.yul\":6116:6120   */\n      0x00\n        /* \"#utility.yul\":6158:6160   */\n      0x20\n        /* \"#utility.yul\":6147:6156   */\n      dup3\n        /* \"#utility.yul\":6143:6161   */\n      add\n        /* \"#utility.yul\":6135:6161   */\n      swap1\n      pop\n        /* \"#utility.yul\":6211:6220   */\n      dup2\n        /* \"#utility.yul\":6205:6209   */\n      dup2\n        /* \"#utility.yul\":6201:6221   */\n      sub\n        /* \"#utility.yul\":6197:6198   */\n      0x00\n        /* \"#utility.yul\":6186:6195   */\n      dup4\n        /* \"#utility.yul\":6182:6199   */\n      add\n        /* \"#utility.yul\":6175:6222   */\n      mstore\n        /* \"#utility.yul\":6243:6374   */\n      tag_379\n        /* \"#utility.yul\":6369:6373   */\n      dup2\n        /* \"#utility.yul\":6243:6374   */\n      tag_284\n      jump\t// in\n    tag_379:\n        /* \"#utility.yul\":6235:6374   */\n      swap1\n      pop\n        /* \"#utility.yul\":5950:6385   */\n      swap2\n      swap1\n      pop\n      jump\t// out\n        /* \"#utility.yul\":6395:6571   */\n    tag_285:\n        /* \"#utility.yul\":6539:6559   */\n      0x20706c656173652073656e64206d657469730000000000000000000000000000\n        /* \"#utility.yul\":6535:6536   */\n      0x00\n        /* \"#utility.yul\":6527:6533   */\n      dup3\n        /* \"#utility.yul\":6523:6537   */\n      add\n        /* \"#utility.yul\":6516:6560   */\n      mstore\n        /* \"#utility.yul\":6395:6571   */\n      pop\n      jump\t// out\n        /* \"#utility.yul\":6581:6963   */\n    tag_286:\n        /* \"#utility.yul\":6723:6726   */\n      0x00\n        /* \"#utility.yul\":6748:6815   */\n      tag_382\n        /* \"#utility.yul\":6812:6814   */\n      0x12\n        /* \"#utility.yul\":6807:6810   */\n      dup4\n        /* \"#utility.yul\":6748:6815   */\n      tag_261\n      jump\t// in\n    tag_382:\n        /* \"#utility.yul\":6741:6815   */\n      swap2\n      pop\n        /* \"#utility.yul\":6828:6921   */\n      tag_383\n        /* \"#utility.yul\":6917:6920   */\n      dup3\n        /* \"#utility.yul\":6828:6921   */\n      tag_285\n      jump\t// in\n    tag_383:\n        /* \"#utility.yul\":6950:6952   */\n      0x20\n        /* \"#utility.yul\":6945:6948   */\n      dup3\n        /* \"#utility.yul\":6941:6953   */\n      add\n        /* \"#utility.yul\":6934:6953   */\n      swap1\n      pop\n        /* \"#utility.yul\":6581:6963   */\n      swap2\n      swap1\n      pop\n      jump\t// out\n        /* \"#utility.yul\":6973:7408   */\n    tag_95:\n        /* \"#utility.yul\":7139:7143   */\n      0x00\n        /* \"#utility.yul\":7181:7183   */\n      0x20\n        /* \"#utility.yul\":7170:7179   */\n      dup3\n        /* \"#utility.yul\":7166:7184   */\n      add\n        /* \"#utility.yul\":7158:7184   */\n      swap1\n      pop\n        /* \"#utility.yul\":7234:7243   */\n      dup2\n        /* \"#utility.yul\":7228:7232   */\n      dup2\n        /* \"#utility.yul\":7224:7244   */\n      sub\n        /* \"#utility.yul\":7220:7221   */\n      0x00\n        /* \"#utility.yul\":7209:7218   */\n      dup4\n        /* \"#utility.yul\":7205:7222   */\n      add\n        /* \"#utility.yul\":7198:7245   */\n      mstore\n        /* \"#utility.yul\":7266:7397   */\n      tag_385\n        /* \"#utility.yul\":7392:7396   */\n      dup2\n        /* \"#utility.yul\":7266:7397   */\n      tag_286\n      jump\t// in\n    tag_385:\n        /* \"#utility.yul\":7258:7397   */\n      swap1\n      pop\n        /* \"#utility.yul\":6973:7408   */\n      swap2\n      swap1\n      pop\n      jump\t// out\n        /* \"#utility.yul\":7418:7614   */\n    tag_287:\n        /* \"#utility.yul\":7470:7547   */\n      0x4e487b7100000000000000000000000000000000000000000000000000000000\n        /* \"#utility.yul\":7467:7468   */\n      0x00\n        /* \"#utility.yul\":7460:7548   */\n      mstore\n        /* \"#utility.yul\":7571:7575   */\n      0x11\n        /* \"#utility.yul\":7568:7569   */\n      0x04\n        /* \"#utility.yul\":7561:7576   */\n      mstore\n        /* \"#utility.yul\":7599:7603   */\n      0x24\n        /* \"#utility.yul\":7596:7597   */\n      0x00\n        /* \"#utility.yul\":7589:7604   */\n      revert\n        /* \"#utility.yul\":7624:7835   */\n    tag_99:\n        /* \"#utility.yul\":7664:7667   */\n      0x00\n        /* \"#utility.yul\":7687:7707   */\n      tag_388\n        /* \"#utility.yul\":7705:7706   */\n      dup3\n        /* \"#utility.yul\":7687:7707   */\n      tag_276\n      jump\t// in\n    tag_388:\n        /* \"#utility.yul\":7682:7707   */\n      swap2\n      pop\n        /* \"#utility.yul\":7725:7745   */\n      tag_389\n        /* \"#utility.yul\":7743:7744   */\n      dup4\n        /* \"#utility.yul\":7725:7745   */\n      tag_276\n      jump\t// in\n    tag_389:\n        /* \"#utility.yul\":7720:7745   */\n      swap3\n      pop\n        /* \"#utility.yul\":7772:7773   */\n      dup3\n        /* \"#utility.yul\":7769:7770   */\n      dup3\n        /* \"#utility.yul\":7765:7774   */\n      add\n        /* \"#utility.yul\":7758:7774   */\n      swap1\n      pop\n        /* \"#utility.yul\":7797:7800   */\n      dup1\n        /* \"#utility.yul\":7794:7795   */\n      dup3\n        /* \"#utility.yul\":7791:7801   */\n      gt\n        /* \"#utility.yul\":7788:7824   */\n      iszero\n      tag_390\n      jumpi\n        /* \"#utility.yul\":7804:7822   */\n      tag_391\n      tag_287\n      jump\t// in\n    tag_391:\n        /* \"#utility.yul\":7788:7824   */\n    tag_390:\n        /* \"#utility.yul\":7624:7835   */\n      swap3\n      swap2\n      pop\n      pop\n      jump\t// out\n        /* \"#utility.yul\":7845:8029   */\n    tag_288:\n        /* \"#utility.yul\":7989:8017   */\n      0x657863656564732074686520746f74616c20666f722073616c65000000000000\n        /* \"#utility.yul\":7985:7986   */\n      0x00\n        /* \"#utility.yul\":7977:7983   */\n      dup3\n        /* \"#utility.yul\":7973:7987   */\n      add\n        /* \"#utility.yul\":7966:8018   */\n      mstore\n        /* \"#utility.yul\":7845:8029   */\n      pop\n      jump\t// out\n        /* \"#utility.yul\":8039:8421   */\n    tag_289:\n        /* \"#utility.yul\":8181:8184   */\n      0x00\n        /* \"#utility.yul\":8206:8273   */\n      tag_394\n        /* \"#utility.yul\":8270:8272   */\n      0x1a\n        /* \"#utility.yul\":8265:8268   */\n      dup4\n        /* \"#utility.yul\":8206:8273   */\n      tag_261\n      jump\t// in\n    tag_394:\n        /* \"#utility.yul\":8199:8273   */\n      swap2\n      pop\n        /* \"#utility.yul\":8286:8379   */\n      tag_395\n        /* \"#utility.yul\":8375:8378   */\n      dup3\n        /* \"#utility.yul\":8286:8379   */\n      tag_288\n      jump\t// in\n    tag_395:\n        /* \"#utility.yul\":8408:8410   */\n      0x20\n        /* \"#utility.yul\":8403:8406   */\n      dup3\n        /* \"#utility.yul\":8399:8411   */\n      add\n        /* \"#utility.yul\":8392:8411   */\n      swap1\n      pop\n        /* \"#utility.yul\":8039:8421   */\n      swap2\n      swap1\n      pop\n      jump\t// out\n        /* \"#utility.yul\":8431:8866   */\n    tag_102:\n        /* \"#utility.yul\":8597:8601   */\n      0x00\n        /* \"#utility.yul\":8639:8641   */\n      0x20\n        /* \"#utility.yul\":8628:8637   */\n      dup3\n        /* \"#utility.yul\":8624:8642   */\n      add\n        /* \"#utility.yul\":8616:8642   */\n      swap1\n      pop\n        /* \"#utility.yul\":8692:8701   */\n      dup2\n        /* \"#utility.yul\":8686:8690   */\n      dup2\n        /* \"#utility.yul\":8682:8702   */\n      sub\n        /* \"#utility.yul\":8678:8679   */\n      0x00\n        /* \"#utility.yul\":8667:8676   */\n      dup4\n        /* \"#utility.yul\":8663:8680   */\n      add\n        /* \"#utility.yul\":8656:8703   */\n      mstore\n        /* \"#utility.yul\":8724:8855   */\n      tag_397\n        /* \"#utility.yul\":8850:8854   */\n      dup2\n        /* \"#utility.yul\":8724:8855   */\n      tag_289\n      jump\t// in\n    tag_397:\n        /* \"#utility.yul\":8716:8855   */\n      swap1\n      pop\n        /* \"#utility.yul\":8431:8866   */\n      swap2\n      swap1\n      pop\n      jump\t// out\n        /* \"#utility.yul\":8876:9002   */\n    tag_290:\n        /* \"#utility.yul\":8967:8991   */\n      tag_399\n        /* \"#utility.yul\":8985:8990   */\n      dup2\n        /* \"#utility.yul\":8967:8991   */\n      tag_280\n      jump\t// in\n    tag_399:\n        /* \"#utility.yul\":8962:8965   */\n      dup3\n        /* \"#utility.yul\":8955:8992   */\n      mstore\n        /* \"#utility.yul\":8876:9002   */\n      pop\n      pop\n      jump\t// out\n        /* \"#utility.yul\":9012:9138   */\n    tag_291:\n        /* \"#utility.yul\":9103:9127   */\n      tag_401\n        /* \"#utility.yul\":9121:9126   */\n      dup2\n        /* \"#utility.yul\":9103:9127   */\n      tag_276\n      jump\t// in\n    tag_401:\n        /* \"#utility.yul\":9098:9101   */\n      dup3\n        /* \"#utility.yul\":9091:9128   */\n      mstore\n        /* \"#utility.yul\":9012:9138   */\n      pop\n      pop\n      jump\t// out\n        /* \"#utility.yul\":9148:9496   */\n    tag_104:\n        /* \"#utility.yul\":9269:9273   */\n      0x00\n        /* \"#utility.yul\":9311:9313   */\n      0x40\n        /* \"#utility.yul\":9300:9309   */\n      dup3\n        /* \"#utility.yul\":9296:9314   */\n      add\n        /* \"#utility.yul\":9288:9314   */\n      swap1\n      pop\n        /* \"#utility.yul\":9328:9399   */\n      tag_403\n        /* \"#utility.yul\":9396:9397   */\n      0x00\n        /* \"#utility.yul\":9385:9394   */\n      dup4\n        /* \"#utility.yul\":9381:9398   */\n      add\n        /* \"#utility.yul\":9372:9378   */\n      dup6\n        /* \"#utility.yul\":9328:9399   */\n      tag_290\n      jump\t// in\n    tag_403:\n        /* \"#utility.yul\":9413:9485   */\n      tag_404\n        /* \"#utility.yul\":9481:9483   */\n      0x20\n        /* \"#utility.yul\":9470:9479   */\n      dup4\n        /* \"#utility.yul\":9466:9484   */\n      add\n        /* \"#utility.yul\":9457:9463   */\n      dup5\n        /* \"#utility.yul\":9413:9485   */\n      tag_291\n      jump\t// in\n    tag_404:\n        /* \"#utility.yul\":9148:9496   */\n      swap4\n      swap3\n      pop\n      pop\n      pop\n      jump\t// out\n        /* \"#utility.yul\":9506:9630   */\n    tag_292:\n        /* \"#utility.yul\":9580:9601   */\n      tag_406\n        /* \"#utility.yul\":9595:9600   */\n      dup2\n        /* \"#utility.yul\":9580:9601   */\n      tag_270\n      jump\t// in\n    tag_406:\n        /* \"#utility.yul\":9573:9578   */\n      dup2\n        /* \"#utility.yul\":9570:9602   */\n      eq\n        /* \"#utility.yul\":9560:9620   */\n      tag_407\n      jumpi\n        /* \"#utility.yul\":9616:9617   */\n      0x00\n        /* \"#utility.yul\":9613:9614   */\n      dup1\n        /* \"#utility.yul\":9606:9618   */\n      revert\n        /* \"#utility.yul\":9560:9620   */\n    tag_407:\n        /* \"#utility.yul\":9506:9630   */\n      pop\n      jump\t// out\n        /* \"#utility.yul\":9640:9789   */\n    tag_293:\n        /* \"#utility.yul\":9694:9699   */\n      0x00\n        /* \"#utility.yul\":9729:9735   */\n      dup2\n        /* \"#utility.yul\":9723:9736   */\n      mload\n        /* \"#utility.yul\":9714:9736   */\n      swap1\n      pop\n        /* \"#utility.yul\":9749:9779   */\n      tag_409\n        /* \"#utility.yul\":9773:9778   */\n      dup2\n        /* \"#utility.yul\":9749:9779   */\n      tag_292\n      jump\t// in\n    tag_409:\n        /* \"#utility.yul\":9640:9789   */\n      swap3\n      swap2\n      pop\n      pop\n      jump\t// out\n        /* \"#utility.yul\":9799:10168   */\n    tag_108:\n        /* \"#utility.yul\":9866:9872   */\n      0x00\n        /* \"#utility.yul\":9919:9921   */\n      0x20\n        /* \"#utility.yul\":9907:9916   */\n      dup3\n        /* \"#utility.yul\":9898:9905   */\n      dup5\n        /* \"#utility.yul\":9894:9917   */\n      sub\n        /* \"#utility.yul\":9890:9922   */\n      slt\n        /* \"#utility.yul\":9887:10006   */\n      iszero\n      tag_411\n      jumpi\n        /* \"#utility.yul\":9925:10004   */\n      tag_412\n      tag_265\n      jump\t// in\n    tag_412:\n        /* \"#utility.yul\":9887:10006   */\n    tag_411:\n        /* \"#utility.yul\":10053:10054   */\n      0x00\n        /* \"#utility.yul\":10082:10143   */\n      tag_413\n        /* \"#utility.yul\":10135:10142   */\n      dup5\n        /* \"#utility.yul\":10126:10132   */\n      dup3\n        /* \"#utility.yul\":10115:10124   */\n      dup6\n        /* \"#utility.yul\":10111:10133   */\n      add\n        /* \"#utility.yul\":10082:10143   */\n      tag_293\n      jump\t// in\n    tag_413:\n        /* \"#utility.yul\":10072:10143   */\n      swap2\n      pop\n        /* \"#utility.yul\":10020:10157   */\n      pop\n        /* \"#utility.yul\":9799:10168   */\n      swap3\n      swap2\n      pop\n      pop\n      jump\t// out\n        /* \"#utility.yul\":10178:10412   */\n    tag_116:\n        /* \"#utility.yul\":10271:10275   */\n      0x00\n        /* \"#utility.yul\":10313:10315   */\n      0x20\n        /* \"#utility.yul\":10302:10311   */\n      dup3\n        /* \"#utility.yul\":10298:10316   */\n      add\n        /* \"#utility.yul\":10290:10316   */\n      swap1\n      pop\n        /* \"#utility.yul\":10330:10401   */\n      tag_415\n        /* \"#utility.yul\":10398:10399   */\n      0x00\n        /* \"#utility.yul\":10387:10396   */\n      dup4\n        /* \"#utility.yul\":10383:10400   */\n      add\n        /* \"#utility.yul\":10374:10380   */\n      dup5\n        /* \"#utility.yul\":10330:10401   */\n      tag_291\n      jump\t// in\n    tag_415:\n        /* \"#utility.yul\":10178:10412   */\n      swap3\n      swap2\n      pop\n      pop\n      jump\t// out\n        /* \"#utility.yul\":10422:10880   */\n    tag_127:\n        /* \"#utility.yul\":10462:10469   */\n      0x00\n        /* \"#utility.yul\":10489:10509   */\n      tag_417\n        /* \"#utility.yul\":10507:10508   */\n      dup3\n        /* \"#utility.yul\":10489:10509   */\n      tag_276\n      jump\t// in\n    tag_417:\n        /* \"#utility.yul\":10484:10509   */\n      swap2\n      pop\n        /* \"#utility.yul\":10527:10547   */\n      tag_418\n        /* \"#utility.yul\":10545:10546   */\n      dup4\n        /* \"#utility.yul\":10527:10547   */\n      tag_276\n      jump\t// in\n    tag_418:\n        /* \"#utility.yul\":10522:10547   */\n      swap3\n      pop\n        /* \"#utility.yul\":10586:10587   */\n      dup3\n        /* \"#utility.yul\":10583:10584   */\n      dup3\n        /* \"#utility.yul\":10579:10588   */\n      mul\n        /* \"#utility.yul\":10612:10642   */\n      tag_419\n        /* \"#utility.yul\":10630:10641   */\n      dup2\n        /* \"#utility.yul\":10612:10642   */\n      tag_276\n      jump\t// in\n    tag_419:\n        /* \"#utility.yul\":10601:10642   */\n      swap2\n      pop\n        /* \"#utility.yul\":10811:10812   */\n      dup3\n        /* \"#utility.yul\":10802:10809   */\n      dup3\n        /* \"#utility.yul\":10798:10813   */\n      div\n        /* \"#utility.yul\":10795:10796   */\n      dup5\n        /* \"#utility.yul\":10792:10814   */\n      eq\n        /* \"#utility.yul\":10768:10769   */\n      dup4\n        /* \"#utility.yul\":10761:10770   */\n      iszero\n        /* \"#utility.yul\":10737:10832   */\n      or\n        /* \"#utility.yul\":10710:10869   */\n      tag_420\n      jumpi\n        /* \"#utility.yul\":10849:10867   */\n      tag_421\n      tag_287\n      jump\t// in\n    tag_421:\n        /* \"#utility.yul\":10710:10869   */\n    tag_420:\n        /* \"#utility.yul\":10470:10880   */\n      pop\n        /* \"#utility.yul\":10422:10880   */\n      swap3\n      swap2\n      pop\n      pop\n      jump\t// out\n        /* \"#utility.yul\":10890:11136   */\n    tag_294:\n        /* \"#utility.yul\":11034:11068   */\n      0x416363657373436f6e74726f6c3a2063616e206f6e6c792072656e6f756e6365\n        /* \"#utility.yul\":11030:11031   */\n      0x00\n        /* \"#utility.yul\":11022:11028   */\n      dup3\n        /* \"#utility.yul\":11018:11032   */\n      add\n        /* \"#utility.yul\":11011:11069   */\n      mstore\n        /* \"#utility.yul\":11107:11124   */\n      0x20726f6c657320666f722073656c660000000000000000000000000000000000\n        /* \"#utility.yul\":11102:11104   */\n      0x20\n        /* \"#utility.yul\":11094:11100   */\n      dup3\n        /* \"#utility.yul\":11090:11105   */\n      add\n        /* \"#utility.yul\":11083:11125   */\n      mstore\n        /* \"#utility.yul\":10890:11136   */\n      pop\n      jump\t// out\n        /* \"#utility.yul\":11146:11528   */\n    tag_295:\n        /* \"#utility.yul\":11288:11291   */\n      0x00\n        /* \"#utility.yul\":11313:11380   */\n      tag_424\n        /* \"#utility.yul\":11377:11379   */\n      0x2f\n        /* \"#utility.yul\":11372:11375   */\n      dup4\n        /* \"#utility.yul\":11313:11380   */\n      tag_261\n      jump\t// in\n    tag_424:\n        /* \"#utility.yul\":11306:11380   */\n      swap2\n      pop\n        /* \"#utility.yul\":11393:11486   */\n      tag_425\n        /* \"#utility.yul\":11482:11485   */\n      dup3\n        /* \"#utility.yul\":11393:11486   */\n      tag_294\n      jump\t// in\n    tag_425:\n        /* \"#utility.yul\":11515:11517   */\n      0x40\n        /* \"#utility.yul\":11510:11513   */\n      dup3\n        /* \"#utility.yul\":11506:11518   */\n      add\n        /* \"#utility.yul\":11499:11518   */\n      swap1\n      pop\n        /* \"#utility.yul\":11146:11528   */\n      swap2\n      swap1\n      pop\n      jump\t// out\n        /* \"#utility.yul\":11538:11973   */\n    tag_163:\n        /* \"#utility.yul\":11704:11708   */\n      0x00\n        /* \"#utility.yul\":11746:11748   */\n      0x20\n        /* \"#utility.yul\":11735:11744   */\n      dup3\n        /* \"#utility.yul\":11731:11749   */\n      add\n        /* \"#utility.yul\":11723:11749   */\n      swap1\n      pop\n        /* \"#utility.yul\":11799:11808   */\n      dup2\n        /* \"#utility.yul\":11793:11797   */\n      dup2\n        /* \"#utility.yul\":11789:11809   */\n      sub\n        /* \"#utility.yul\":11785:11786   */\n      0x00\n        /* \"#utility.yul\":11774:11783   */\n      dup4\n        /* \"#utility.yul\":11770:11787   */\n      add\n        /* \"#utility.yul\":11763:11810   */\n      mstore\n        /* \"#utility.yul\":11831:11962   */\n      tag_427\n        /* \"#utility.yul\":11957:11961   */\n      dup2\n        /* \"#utility.yul\":11831:11962   */\n      tag_295\n      jump\t// in\n    tag_427:\n        /* \"#utility.yul\":11823:11962   */\n      swap1\n      pop\n        /* \"#utility.yul\":11538:11973   */\n      swap2\n      swap1\n      pop\n      jump\t// out\n        /* \"#utility.yul\":11983:12169   */\n    tag_296:\n        /* \"#utility.yul\":12127:12157   */\n      0x74686520737570706c7920697320616c7265616479206275726e656400000000\n        /* \"#utility.yul\":12123:12124   */\n      0x00\n        /* \"#utility.yul\":12115:12121   */\n      dup3\n        /* \"#utility.yul\":12111:12125   */\n      add\n        /* \"#utility.yul\":12104:12158   */\n      mstore\n        /* \"#utility.yul\":11983:12169   */\n      pop\n      jump\t// out\n        /* \"#utility.yul\":12179:12561   */\n    tag_297:\n        /* \"#utility.yul\":12321:12324   */\n      0x00\n        /* \"#utility.yul\":12346:12413   */\n      tag_430\n        /* \"#utility.yul\":12410:12412   */\n      0x1c\n        /* \"#utility.yul\":12405:12408   */\n      dup4\n        /* \"#utility.yul\":12346:12413   */\n      tag_261\n      jump\t// in\n    tag_430:\n        /* \"#utility.yul\":12339:12413   */\n      swap2\n      pop\n        /* \"#utility.yul\":12426:12519   */\n      tag_431\n        /* \"#utility.yul\":12515:12518   */\n      dup3\n        /* \"#utility.yul\":12426:12519   */\n      tag_296\n      jump\t// in\n    tag_431:\n        /* \"#utility.yul\":12548:12550   */\n      0x20\n        /* \"#utility.yul\":12543:12546   */\n      dup3\n        /* \"#utility.yul\":12539:12551   */\n      add\n        /* \"#utility.yul\":12532:12551   */\n      swap1\n      pop\n        /* \"#utility.yul\":12179:12561   */\n      swap2\n      swap1\n      pop\n      jump\t// out\n        /* \"#utility.yul\":12571:13006   */\n    tag_174:\n        /* \"#utility.yul\":12737:12741   */\n      0x00\n        /* \"#utility.yul\":12779:12781   */\n      0x20\n        /* \"#utility.yul\":12768:12777   */\n      dup3\n        /* \"#utility.yul\":12764:12782   */\n      add\n        /* \"#utility.yul\":12756:12782   */\n      swap1\n      pop\n        /* \"#utility.yul\":12832:12841   */\n      dup2\n        /* \"#utility.yul\":12826:12830   */\n      dup2\n        /* \"#utility.yul\":12822:12842   */\n      sub\n        /* \"#utility.yul\":12818:12819   */\n      0x00\n        /* \"#utility.yul\":12807:12816   */\n      dup4\n        /* \"#utility.yul\":12803:12820   */\n      add\n        /* \"#utility.yul\":12796:12843   */\n      mstore\n        /* \"#utility.yul\":12864:12995   */\n      tag_433\n        /* \"#utility.yul\":12990:12994   */\n      dup2\n        /* \"#utility.yul\":12864:12995   */\n      tag_297\n      jump\t// in\n    tag_433:\n        /* \"#utility.yul\":12856:12995   */\n      swap1\n      pop\n        /* \"#utility.yul\":12571:13006   */\n      swap2\n      swap1\n      pop\n      jump\t// out\n        /* \"#utility.yul\":13016:13230   */\n    tag_213:\n        /* \"#utility.yul\":13056:13060   */\n      0x00\n        /* \"#utility.yul\":13080:13100   */\n      tag_435\n        /* \"#utility.yul\":13098:13099   */\n      dup3\n        /* \"#utility.yul\":13080:13100   */\n      tag_276\n      jump\t// in\n    tag_435:\n        /* \"#utility.yul\":13075:13100   */\n      swap2\n      pop\n        /* \"#utility.yul\":13118:13138   */\n      tag_436\n        /* \"#utility.yul\":13136:13137   */\n      dup4\n        /* \"#utility.yul\":13118:13138   */\n      tag_276\n      jump\t// in\n    tag_436:\n        /* \"#utility.yul\":13113:13138   */\n      swap3\n      pop\n        /* \"#utility.yul\":13166:13167   */\n      dup3\n        /* \"#utility.yul\":13163:13164   */\n      dup3\n        /* \"#utility.yul\":13159:13168   */\n      sub\n        /* \"#utility.yul\":13151:13168   */\n      swap1\n      pop\n        /* \"#utility.yul\":13194:13195   */\n      dup2\n        /* \"#utility.yul\":13188:13192   */\n      dup2\n        /* \"#utility.yul\":13185:13196   */\n      gt\n        /* \"#utility.yul\":13182:13219   */\n      iszero\n      tag_437\n      jumpi\n        /* \"#utility.yul\":13199:13217   */\n      tag_438\n      tag_287\n      jump\t// in\n    tag_438:\n        /* \"#utility.yul\":13182:13219   */\n    tag_437:\n        /* \"#utility.yul\":13016:13230   */\n      swap3\n      swap2\n      pop\n      pop\n      jump\t// out\n        /* \"#utility.yul\":13240:13396   */\n    tag_298:\n        /* \"#utility.yul\":13342:13353   */\n      0x00\n        /* \"#utility.yul\":13383:13386   */\n      dup2\n        /* \"#utility.yul\":13368:13386   */\n      swap1\n      pop\n        /* \"#utility.yul\":13240:13396   */\n      swap3\n      swap2\n      pop\n      pop\n      jump\t// out\n        /* \"#utility.yul\":13406:13587   */\n    tag_299:\n        /* \"#utility.yul\":13550:13575   */\n      0x416363657373436f6e74726f6c3a206163636f756e7420000000000000000000\n        /* \"#utility.yul\":13546:13547   */\n      0x00\n        /* \"#utility.yul\":13538:13544   */\n      dup3\n        /* \"#utility.yul\":13534:13548   */\n      add\n        /* \"#utility.yul\":13527:13576   */\n      mstore\n        /* \"#utility.yul\":13406:13587   */\n      pop\n      jump\t// out\n        /* \"#utility.yul\":13597:14015   */\n    tag_300:\n        /* \"#utility.yul\":13757:13760   */\n      0x00\n        /* \"#utility.yul\":13782:13867   */\n      tag_442\n        /* \"#utility.yul\":13864:13866   */\n      0x17\n        /* \"#utility.yul\":13859:13862   */\n      dup4\n        /* \"#utility.yul\":13782:13867   */\n      tag_298\n      jump\t// in\n    tag_442:\n        /* \"#utility.yul\":13775:13867   */\n      swap2\n      pop\n        /* \"#utility.yul\":13880:13973   */\n      tag_443\n        /* \"#utility.yul\":13969:13972   */\n      dup3\n        /* \"#utility.yul\":13880:13973   */\n      tag_299\n      jump\t// in\n    tag_443:\n        /* \"#utility.yul\":14002:14004   */\n      0x17\n        /* \"#utility.yul\":13997:14000   */\n      dup3\n        /* \"#utility.yul\":13993:14005   */\n      add\n        /* \"#utility.yul\":13986:14005   */\n      swap1\n      pop\n        /* \"#utility.yul\":13597:14015   */\n      swap2\n      swap1\n      pop\n      jump\t// out\n        /* \"#utility.yul\":14025:14132   */\n    tag_301:\n        /* \"#utility.yul\":14077:14083   */\n      0x00\n        /* \"#utility.yul\":14115:14120   */\n      dup2\n        /* \"#utility.yul\":14109:14121   */\n      mload\n        /* \"#utility.yul\":14099:14121   */\n      swap1\n      pop\n        /* \"#utility.yul\":14025:14132   */\n      swap2\n      swap1\n      pop\n      jump\t// out\n        /* \"#utility.yul\":14142:14416   */\n    tag_302:\n        /* \"#utility.yul\":14227:14228   */\n      0x00\n        /* \"#utility.yul\":14241:14366   */\n    tag_446:\n        /* \"#utility.yul\":14255:14261   */\n      dup4\n        /* \"#utility.yul\":14252:14253   */\n      dup2\n        /* \"#utility.yul\":14249:14262   */\n      lt\n        /* \"#utility.yul\":14241:14366   */\n      iszero\n      tag_448\n      jumpi\n        /* \"#utility.yul\":14348:14349   */\n      dup1\n        /* \"#utility.yul\":14343:14346   */\n      dup3\n        /* \"#utility.yul\":14339:14350   */\n      add\n        /* \"#utility.yul\":14333:14351   */\n      mload\n        /* \"#utility.yul\":14329:14330   */\n      dup2\n        /* \"#utility.yul\":14324:14327   */\n      dup5\n        /* \"#utility.yul\":14320:14331   */\n      add\n        /* \"#utility.yul\":14313:14352   */\n      mstore\n        /* \"#utility.yul\":14277:14279   */\n      0x20\n        /* \"#utility.yul\":14274:14275   */\n      dup2\n        /* \"#utility.yul\":14270:14280   */\n      add\n        /* \"#utility.yul\":14265:14280   */\n      swap1\n      pop\n        /* \"#utility.yul\":14241:14366   */\n      jump(tag_446)\n    tag_448:\n        /* \"#utility.yul\":14404:14405   */\n      0x00\n        /* \"#utility.yul\":14395:14401   */\n      dup5\n        /* \"#utility.yul\":14390:14393   */\n      dup5\n        /* \"#utility.yul\":14386:14402   */\n      add\n        /* \"#utility.yul\":14379:14406   */\n      mstore\n        /* \"#utility.yul\":14204:14416   */\n      pop\n        /* \"#utility.yul\":14142:14416   */\n      pop\n      pop\n      pop\n      jump\t// out\n        /* \"#utility.yul\":14426:14836   */\n    tag_303:\n        /* \"#utility.yul\":14532:14535   */\n      0x00\n        /* \"#utility.yul\":14564:14603   */\n      tag_450\n        /* \"#utility.yul\":14597:14602   */\n      dup3\n        /* \"#utility.yul\":14564:14603   */\n      tag_301\n      jump\t// in\n    tag_450:\n        /* \"#utility.yul\":14623:14712   */\n      tag_451\n        /* \"#utility.yul\":14705:14711   */\n      dup2\n        /* \"#utility.yul\":14700:14703   */\n      dup6\n        /* \"#utility.yul\":14623:14712   */\n      tag_298\n      jump\t// in\n    tag_451:\n        /* \"#utility.yul\":14616:14712   */\n      swap4\n      pop\n        /* \"#utility.yul\":14725:14790   */\n      tag_452\n        /* \"#utility.yul\":14783:14789   */\n      dup2\n        /* \"#utility.yul\":14778:14781   */\n      dup6\n        /* \"#utility.yul\":14771:14775   */\n      0x20\n        /* \"#utility.yul\":14764:14769   */\n      dup7\n        /* \"#utility.yul\":14760:14776   */\n      add\n        /* \"#utility.yul\":14725:14790   */\n      tag_302\n      jump\t// in\n    tag_452:\n        /* \"#utility.yul\":14819:14825   */\n      dup1\n        /* \"#utility.yul\":14814:14817   */\n      dup5\n        /* \"#utility.yul\":14810:14826   */\n      add\n        /* \"#utility.yul\":14803:14826   */\n      swap2\n      pop\n        /* \"#utility.yul\":14536:14836   */\n      pop\n        /* \"#utility.yul\":14426:14836   */\n      swap3\n      swap2\n      pop\n      pop\n      jump\t// out\n        /* \"#utility.yul\":14846:15021   */\n    tag_304:\n        /* \"#utility.yul\":14990:15009   */\n      0x206973206d697373696e6720726f6c6520000000000000000000000000000000\n        /* \"#utility.yul\":14986:14987   */\n      0x00\n        /* \"#utility.yul\":14978:14984   */\n      dup3\n        /* \"#utility.yul\":14974:14988   */\n      add\n        /* \"#utility.yul\":14967:15010   */\n      mstore\n        /* \"#utility.yul\":14846:15021   */\n      pop\n      jump\t// out\n        /* \"#utility.yul\":15031:15449   */\n    tag_305:\n        /* \"#utility.yul\":15191:15194   */\n      0x00\n        /* \"#utility.yul\":15216:15301   */\n      tag_455\n        /* \"#utility.yul\":15298:15300   */\n      0x11\n        /* \"#utility.yul\":15293:15296   */\n      dup4\n        /* \"#utility.yul\":15216:15301   */\n      tag_298\n      jump\t// in\n    tag_455:\n        /* \"#utility.yul\":15209:15301   */\n      swap2\n      pop\n        /* \"#utility.yul\":15314:15407   */\n      tag_456\n        /* \"#utility.yul\":15403:15406   */\n      dup3\n        /* \"#utility.yul\":15314:15407   */\n      tag_304\n      jump\t// in\n    tag_456:\n        /* \"#utility.yul\":15436:15438   */\n      0x11\n        /* \"#utility.yul\":15431:15434   */\n      dup3\n        /* \"#utility.yul\":15427:15439   */\n      add\n        /* \"#utility.yul\":15420:15439   */\n      swap1\n      pop\n        /* \"#utility.yul\":15031:15449   */\n      swap2\n      swap1\n      pop\n      jump\t// out\n        /* \"#utility.yul\":15459:16450   */\n    tag_224:\n        /* \"#utility.yul\":15841:15844   */\n      0x00\n        /* \"#utility.yul\":15867:16015   */\n      tag_458\n        /* \"#utility.yul\":16011:16014   */\n      dup3\n        /* \"#utility.yul\":15867:16015   */\n      tag_300\n      jump\t// in\n    tag_458:\n        /* \"#utility.yul\":15860:16015   */\n      swap2\n      pop\n        /* \"#utility.yul\":16036:16131   */\n      tag_459\n        /* \"#utility.yul\":16127:16130   */\n      dup3\n        /* \"#utility.yul\":16118:16124   */\n      dup6\n        /* \"#utility.yul\":16036:16131   */\n      tag_303\n      jump\t// in\n    tag_459:\n        /* \"#utility.yul\":16029:16131   */\n      swap2\n      pop\n        /* \"#utility.yul\":16152:16300   */\n      tag_460\n        /* \"#utility.yul\":16296:16299   */\n      dup3\n        /* \"#utility.yul\":16152:16300   */\n      tag_305\n      jump\t// in\n    tag_460:\n        /* \"#utility.yul\":16145:16300   */\n      swap2\n      pop\n        /* \"#utility.yul\":16321:16416   */\n      tag_461\n        /* \"#utility.yul\":16412:16415   */\n      dup3\n        /* \"#utility.yul\":16403:16409   */\n      dup5\n        /* \"#utility.yul\":16321:16416   */\n      tag_303\n      jump\t// in\n    tag_461:\n        /* \"#utility.yul\":16314:16416   */\n      swap2\n      pop\n        /* \"#utility.yul\":16437:16440   */\n      dup2\n        /* \"#utility.yul\":16430:16440   */\n      swap1\n      pop\n        /* \"#utility.yul\":15459:16450   */\n      swap4\n      swap3\n      pop\n      pop\n      pop\n      jump\t// out\n        /* \"#utility.yul\":16460:16570   */\n    tag_306:\n        /* \"#utility.yul\":16501:16507   */\n      0x00\n        /* \"#utility.yul\":16556:16558   */\n      0x1f\n        /* \"#utility.yul\":16552:16559   */\n      not\n        /* \"#utility.yul\":16547:16549   */\n      0x1f\n        /* \"#utility.yul\":16540:16545   */\n      dup4\n        /* \"#utility.yul\":16536:16550   */\n      add\n        /* \"#utility.yul\":16532:16560   */\n      and\n        /* \"#utility.yul\":16522:16560   */\n      swap1\n      pop\n        /* \"#utility.yul\":16460:16570   */\n      swap2\n      swap1\n      pop\n      jump\t// out\n        /* \"#utility.yul\":16580:16977   */\n    tag_307:\n        /* \"#utility.yul\":16668:16671   */\n      0x00\n        /* \"#utility.yul\":16700:16739   */\n      tag_464\n        /* \"#utility.yul\":16733:16738   */\n      dup3\n        /* \"#utility.yul\":16700:16739   */\n      tag_301\n      jump\t// in\n    tag_464:\n        /* \"#utility.yul\":16759:16830   */\n      tag_465\n        /* \"#utility.yul\":16823:16829   */\n      dup2\n        /* \"#utility.yul\":16818:16821   */\n      dup6\n        /* \"#utility.yul\":16759:16830   */\n      tag_261\n      jump\t// in\n    tag_465:\n        /* \"#utility.yul\":16752:16830   */\n      swap4\n      pop\n        /* \"#utility.yul\":16843:16908   */\n      tag_466\n        /* \"#utility.yul\":16901:16907   */\n      dup2\n        /* \"#utility.yul\":16896:16899   */\n      dup6\n        /* \"#utility.yul\":16889:16893   */\n      0x20\n        /* \"#utility.yul\":16882:16887   */\n      dup7\n        /* \"#utility.yul\":16878:16894   */\n      add\n        /* \"#utility.yul\":16843:16908   */\n      tag_302\n      jump\t// in\n    tag_466:\n        /* \"#utility.yul\":16937:16966   */\n      tag_467\n        /* \"#utility.yul\":16959:16965   */\n      dup2\n        /* \"#utility.yul\":16937:16966   */\n      tag_306\n      jump\t// in\n    tag_467:\n        /* \"#utility.yul\":16932:16935   */\n      dup5\n        /* \"#utility.yul\":16928:16967   */\n      add\n        /* \"#utility.yul\":16921:16967   */\n      swap2\n      pop\n        /* \"#utility.yul\":16672:16977   */\n      pop\n        /* \"#utility.yul\":16580:16977   */\n      swap3\n      swap2\n      pop\n      pop\n      jump\t// out\n        /* \"#utility.yul\":16987:17316   */\n    tag_226:\n        /* \"#utility.yul\":17100:17104   */\n      0x00\n        /* \"#utility.yul\":17142:17144   */\n      0x20\n        /* \"#utility.yul\":17131:17140   */\n      dup3\n        /* \"#utility.yul\":17127:17145   */\n      add\n        /* \"#utility.yul\":17119:17145   */\n      swap1\n      pop\n        /* \"#utility.yul\":17195:17204   */\n      dup2\n        /* \"#utility.yul\":17189:17193   */\n      dup2\n        /* \"#utility.yul\":17185:17205   */\n      sub\n        /* \"#utility.yul\":17181:17182   */\n      0x00\n        /* \"#utility.yul\":17170:17179   */\n      dup4\n        /* \"#utility.yul\":17166:17183   */\n      add\n        /* \"#utility.yul\":17159:17206   */\n      mstore\n        /* \"#utility.yul\":17227:17305   */\n      tag_469\n        /* \"#utility.yul\":17300:17304   */\n      dup2\n        /* \"#utility.yul\":17291:17297   */\n      dup5\n        /* \"#utility.yul\":17227:17305   */\n      tag_307\n      jump\t// in\n    tag_469:\n        /* \"#utility.yul\":17219:17305   */\n      swap1\n      pop\n        /* \"#utility.yul\":16987:17316   */\n      swap3\n      swap2\n      pop\n      pop\n      jump\t// out\n        /* \"#utility.yul\":17326:17522   */\n    tag_237:\n        /* \"#utility.yul\":17378:17455   */\n      0x4e487b7100000000000000000000000000000000000000000000000000000000\n        /* \"#utility.yul\":17375:17376   */\n      0x00\n        /* \"#utility.yul\":17368:17456   */\n      mstore\n        /* \"#utility.yul\":17479:17483   */\n      0x41\n        /* \"#utility.yul\":17476:17477   */\n      0x04\n        /* \"#utility.yul\":17469:17484   */\n      mstore\n        /* \"#utility.yul\":17507:17511   */\n      0x24\n        /* \"#utility.yul\":17504:17505   */\n      0x00\n        /* \"#utility.yul\":17497:17512   */\n      revert\n        /* \"#utility.yul\":17532:17728   */\n    tag_241:\n        /* \"#utility.yul\":17584:17661   */\n      0x4e487b7100000000000000000000000000000000000000000000000000000000\n        /* \"#utility.yul\":17581:17582   */\n      0x00\n        /* \"#utility.yul\":17574:17662   */\n      mstore\n        /* \"#utility.yul\":17685:17689   */\n      0x32\n        /* \"#utility.yul\":17682:17683   */\n      0x04\n        /* \"#utility.yul\":17675:17690   */\n      mstore\n        /* \"#utility.yul\":17713:17717   */\n      0x24\n        /* \"#utility.yul\":17710:17711   */\n      0x00\n        /* \"#utility.yul\":17703:17718   */\n      revert\n        /* \"#utility.yul\":17738:17925   */\n    tag_254:\n        /* \"#utility.yul\":17777:17780   */\n      0x00\n        /* \"#utility.yul\":17804:17828   */\n      tag_473\n        /* \"#utility.yul\":17822:17827   */\n      dup3\n        /* \"#utility.yul\":17804:17828   */\n      tag_276\n      jump\t// in\n    tag_473:\n        /* \"#utility.yul\":17795:17828   */\n      swap2\n      pop\n        /* \"#utility.yul\":17854:17858   */\n      0x00\n        /* \"#utility.yul\":17847:17852   */\n      dup3\n        /* \"#utility.yul\":17844:17859   */\n      sub\n        /* \"#utility.yul\":17841:17882   */\n      tag_474\n      jumpi\n        /* \"#utility.yul\":17862:17880   */\n      tag_475\n      tag_287\n      jump\t// in\n    tag_475:\n        /* \"#utility.yul\":17841:17882   */\n    tag_474:\n        /* \"#utility.yul\":17913:17914   */\n      0x01\n        /* \"#utility.yul\":17906:17911   */\n      dup3\n        /* \"#utility.yul\":17902:17915   */\n      sub\n        /* \"#utility.yul\":17895:17915   */\n      swap1\n      pop\n        /* \"#utility.yul\":17738:17925   */\n      swap2\n      swap1\n      pop\n      jump\t// out\n        /* \"#utility.yul\":17935:18125   */\n    tag_308:\n        /* \"#utility.yul\":18079:18113   */\n      0x537472696e67733a20686578206c656e67746820696e73756666696369656e74\n        /* \"#utility.yul\":18075:18076   */\n      0x00\n        /* \"#utility.yul\":18067:18073   */\n      dup3\n        /* \"#utility.yul\":18063:18077   */\n      add\n        /* \"#utility.yul\":18056:18114   */\n      mstore\n        /* \"#utility.yul\":17935:18125   */\n      pop\n      jump\t// out\n        /* \"#utility.yul\":18135:18517   */\n    tag_309:\n        /* \"#utility.yul\":18277:18280   */\n      0x00\n        /* \"#utility.yul\":18302:18369   */\n      tag_478\n        /* \"#utility.yul\":18366:18368   */\n      0x20\n        /* \"#utility.yul\":18361:18364   */\n      dup4\n        /* \"#utility.yul\":18302:18369   */\n      tag_261\n      jump\t// in\n    tag_478:\n        /* \"#utility.yul\":18295:18369   */\n      swap2\n      pop\n        /* \"#utility.yul\":18382:18475   */\n      tag_479\n        /* \"#utility.yul\":18471:18474   */\n      dup3\n        /* \"#utility.yul\":18382:18475   */\n      tag_308\n      jump\t// in\n    tag_479:\n        /* \"#utility.yul\":18504:18506   */\n      0x20\n        /* \"#utility.yul\":18499:18502   */\n      dup3\n        /* \"#utility.yul\":18495:18507   */\n      add\n        /* \"#utility.yul\":18488:18507   */\n      swap1\n      pop\n        /* \"#utility.yul\":18135:18517   */\n      swap2\n      swap1\n      pop\n      jump\t// out\n        /* \"#utility.yul\":18527:18962   */\n    tag_257:\n        /* \"#utility.yul\":18693:18697   */\n      0x00\n        /* \"#utility.yul\":18735:18737   */\n      0x20\n        /* \"#utility.yul\":18724:18733   */\n      dup3\n        /* \"#utility.yul\":18720:18738   */\n      add\n        /* \"#utility.yul\":18712:18738   */\n      swap1\n      pop\n        /* \"#utility.yul\":18788:18797   */\n      dup2\n        /* \"#utility.yul\":18782:18786   */\n      dup2\n        /* \"#utility.yul\":18778:18798   */\n      sub\n        /* \"#utility.yul\":18774:18775   */\n      0x00\n        /* \"#utility.yul\":18763:18772   */\n      dup4\n        /* \"#utility.yul\":18759:18776   */\n      add\n        /* \"#utility.yul\":18752:18799   */\n      mstore\n        /* \"#utility.yul\":18820:18951   */\n      tag_481\n        /* \"#utility.yul\":18946:18950   */\n      dup2\n        /* \"#utility.yul\":18820:18951   */\n      tag_309\n      jump\t// in\n    tag_481:\n        /* \"#utility.yul\":18812:18951   */\n      swap1\n      pop\n        /* \"#utility.yul\":18527:18962   */\n      swap2\n      swap1\n      pop\n      jump\t// out\n        /* \"#utility.yul\":18972:19168   */\n    tag_310:\n        /* \"#utility.yul\":19024:19101   */\n      0x4e487b7100000000000000000000000000000000000000000000000000000000\n        /* \"#utility.yul\":19021:19022   */\n      0x00\n        /* \"#utility.yul\":19014:19102   */\n      mstore\n        /* \"#utility.yul\":19125:19129   */\n      0x12\n        /* \"#utility.yul\":19122:19123   */\n      0x04\n        /* \"#utility.yul\":19115:19130   */\n      mstore\n        /* \"#utility.yul\":19153:19157   */\n      0x24\n        /* \"#utility.yul\":19150:19151   */\n      0x00\n        /* \"#utility.yul\":19143:19158   */\n      revert\n        /* \"#utility.yul\":19178:19383   */\n    tag_260:\n        /* \"#utility.yul\":19218:19219   */\n      0x00\n        /* \"#utility.yul\":19239:19259   */\n      tag_484\n        /* \"#utility.yul\":19257:19258   */\n      dup3\n        /* \"#utility.yul\":19239:19259   */\n      tag_276\n      jump\t// in\n    tag_484:\n        /* \"#utility.yul\":19234:19259   */\n      swap2\n      pop\n        /* \"#utility.yul\":19277:19297   */\n      tag_485\n        /* \"#utility.yul\":19295:19296   */\n      dup4\n        /* \"#utility.yul\":19277:19297   */\n      tag_276\n      jump\t// in\n    tag_485:\n        /* \"#utility.yul\":19272:19297   */\n      swap3\n      pop\n        /* \"#utility.yul\":19320:19321   */\n      dup3\n        /* \"#utility.yul\":19310:19345   */\n      tag_486\n      jumpi\n        /* \"#utility.yul\":19325:19343   */\n      tag_487\n      tag_310\n      jump\t// in\n    tag_487:\n        /* \"#utility.yul\":19310:19345   */\n    tag_486:\n        /* \"#utility.yul\":19371:19372   */\n      dup3\n        /* \"#utility.yul\":19368:19369   */\n      dup3\n        /* \"#utility.yul\":19364:19373   */\n      div\n        /* \"#utility.yul\":19359:19373   */\n      swap1\n      pop\n        /* \"#utility.yul\":19178:19383   */\n      swap3\n      swap2\n      pop\n      pop\n      jump\t// out\n\n    auxdata: 0xa2646970667358221220814a8a98eefd24b4b88da9a1e13d0f300f7b6d1d6c4390631a481f9d87b6808a64736f6c63430008110033\n}\n",
				"bytecode": {
					"linkReferences": {},
					"object": "60a0604052640430e2340060045569152d02c7e14af680000060065560016009556000600b60006101000a81548160ff02191690831515021790555062278d00600c5562093a80600d55604051620020a2380380620020a283398181016040528101906200006e9190620003b1565b620000a07fb165298935924f540e4181c03493a5d686c54a0aaeb3f6216de85b7ffbba773882620001e460201b60201c565b620000d27f3c11d16cbaffd01df69ce1c404f6340ee057498f5f00246190ea54220576a84882620001e460201b60201c565b620001047f305786ab5904b5bb20fe6d91992844b39d648cdcb82f328edc2d6a80bfbb328982620001e460201b60201c565b33600160006101000a81548173ffffffffffffffffffffffffffffffffffffffff021916908373ffffffffffffffffffffffffffffffffffffffff16021790555081600560006101000a81548173ffffffffffffffffffffffffffffffffffffffff021916908373ffffffffffffffffffffffffffffffffffffffff1602179055504260808181525050606f600a60008081526020019081526020016000208190555060de600a6000600181526020019081526020016000208190555061014d600a600060028152602001908152602001600020819055505050620003f8565b620001f68282620002d560201b60201c565b620002d157600160008084815260200190815260200160002060000160008373ffffffffffffffffffffffffffffffffffffffff1673ffffffffffffffffffffffffffffffffffffffff16815260200190815260200160002060006101000a81548160ff021916908315150217905550620002766200033f60201b60201c565b73ffffffffffffffffffffffffffffffffffffffff168173ffffffffffffffffffffffffffffffffffffffff16837f2f8788117e7eff1d82e926ec794901d17c78024a50270940304540a733656f0d60405160405180910390a45b5050565b600080600084815260200190815260200160002060000160008373ffffffffffffffffffffffffffffffffffffffff1673ffffffffffffffffffffffffffffffffffffffff16815260200190815260200160002060009054906101000a900460ff16905092915050565b600033905090565b600080fd5b600073ffffffffffffffffffffffffffffffffffffffff82169050919050565b600062000379826200034c565b9050919050565b6200038b816200036c565b81146200039757600080fd5b50565b600081519050620003ab8162000380565b92915050565b60008060408385031215620003cb57620003ca62000347565b5b6000620003db858286016200039a565b9250506020620003ee858286016200039a565b9150509250929050565b608051611c80620004226000396000818161071f0152818161085a01526108f50152611c806000f3fe6080604052600436106100e15760003560e01c806373f425611161007f578063a217fddf11610059578063a217fddf146102f4578063a6f2ae3a1461031f578063b1ac51f81461033d578063d547741f1461036857610125565b806373f425611461026157806376082a5e1461028c57806391d14854146102b757610125565b80632e1a7d4d116100bb5780632e1a7d4d146101cf5780632f2ff15d146101f857806336568abe146102215780634f2484091461024a57610125565b806301ffc9a71461012a578063248a9ca314610167578063282c51f3146101a457610125565b36610125577fcf34ef537ac33ee1ac626ca1587a0a7e8e51561e5514f8cb36afa1c5102b3bab60405161011390611304565b60405180910390a1610123610391565b005b600080fd5b34801561013657600080fd5b50610151600480360381019061014c9190611381565b610626565b60405161015e91906113c9565b60405180910390f35b34801561017357600080fd5b5061018e6004803603810190610189919061141a565b6106a0565b60405161019b9190611456565b60405180910390f35b3480156101b057600080fd5b506101b96106bf565b6040516101c69190611456565b60405180910390f35b3480156101db57600080fd5b506101f660048036038101906101f191906114a7565b6106e3565b005b34801561020457600080fd5b5061021f600480360381019061021a9190611532565b610980565b005b34801561022d57600080fd5b5061024860048036038101906102439190611532565b6109a1565b005b34801561025657600080fd5b5061025f610a24565b005b34801561026d57600080fd5b50610276610be0565b60405161028391906113c9565b60405180910390f35b34801561029857600080fd5b506102a1610bf7565b6040516102ae9190611456565b60405180910390f35b3480156102c357600080fd5b506102de60048036038101906102d99190611532565b610c1b565b6040516102eb91906113c9565b60405180910390f35b34801561030057600080fd5b50610309610c85565b6040516103169190611456565b60405180910390f35b610327610391565b60405161033491906113c9565b60405180910390f35b34801561034957600080fd5b50610352610c8c565b60405161035f9190611456565b60405180910390f35b34801561037457600080fd5b5061038f600480360381019061038a9190611532565b610cb0565b005b600060045442106103d7576040517f08c379a00000000000000000000000000000000000000000000000000000000081526004016103ce906115be565b60405180910390fd5b6000341161041a576040517f08c379a00000000000000000000000000000000000000000000000000000000081526004016104119061162a565b60405180910390fd5b600061042534610cd1565b9050600654600854826104389190611679565b10610478576040517f08c379a000000000000000000000000000000000000000000000000000000000815260040161046f906116f9565b60405180910390fd5b600560009054906101000a900473ffffffffffffffffffffffffffffffffffffffff1673ffffffffffffffffffffffffffffffffffffffff1663095ea7b330836040518363ffffffff1660e01b81526004016104d5929190611737565b6020604051808303816000875af11580156104f4573d6000803e3d6000fd5b505050506040513d601f19601f82011682018060405250810190610518919061178c565b50600560009054906101000a900473ffffffffffffffffffffffffffffffffffffffff1673ffffffffffffffffffffffffffffffffffffffff1663a9059cbb33836040518363ffffffff1660e01b8152600401610576929190611737565b6020604051808303816000875af1158015610595573d6000803e3d6000fd5b505050506040513d601f19601f820116820180604052508101906105b9919061178c565b50600854816105c89190611679565b60088190555034600760008282546105e09190611679565b925050819055507f92f64ca637d023f354075a4be751b169c1a8a9ccb6d33cdd0cb35205439957278160405161061691906117b9565b60405180910390a1600191505090565b60007f7965db0b000000000000000000000000000000000000000000000000000000007bffffffffffffffffffffffffffffffffffffffffffffffffffffffff1916827bffffffffffffffffffffffffffffffffffffffffffffffffffffffff19161480610699575061069882610cef565b5b9050919050565b6000806000838152602001908152602001600020600101549050919050565b7f3c11d16cbaffd01df69ce1c404f6340ee057498f5f00246190ea54220576a84881565b7fb165298935924f540e4181c03493a5d686c54a0aaeb3f6216de85b7ffbba773861070d81610d59565b426012600c5461071d91906117d4565b7f00000000000000000000000000000000000000000000000000000000000000006107489190611679565b111561084957600061075983610d6d565b9050600560009054906101000a900473ffffffffffffffffffffffffffffffffffffffff1673ffffffffffffffffffffffffffffffffffffffff1663095ea7b330836040518363ffffffff1660e01b81526004016107b8929190611737565b6020604051808303816000875af11580156107d7573d6000803e3d6000fd5b505050506040513d601f19601f820116820180604052508101906107fb919061178c565b503373ffffffffffffffffffffffffffffffffffffffff166108fc829081150290604051600060405180830381858888f19350505050158015610842573d6000803e3d6000fd5b505061097c565b42600c805461085891906117d4565b7f00000000000000000000000000000000000000000000000000000000000000006108839190611679565b11156108e357600061089483610d6d565b90503373ffffffffffffffffffffffffffffffffffffffff166108fc829081150290604051600060405180830381858888f193505050501580156108dc573d6000803e3d6000fd5b505061097b565b426006600c546108f391906117d4565b7f000000000000000000000000000000000000000000000000000000000000000061091e9190611679565b111561097a57600061092f83610d6d565b90503373ffffffffffffffffffffffffffffffffffffffff166108fc829081150290604051600060405180830381858888f19350505050158015610977573d6000803e3d6000fd5b50505b5b5b5050565b610989826106a0565b61099281610d59565b61099c8383610d90565b505050565b6109a9610e70565b73ffffffffffffffffffffffffffffffffffffffff168173ffffffffffffffffffffffffffffffffffffffff1614610a16576040517f08c379a0000000000000000000000000000000000000000000000000000000008152600401610a0d90611888565b60405180910390fd5b610a208282610e78565b5050565b6004544210610a68576040517f08c379a0000000000000000000000000000000000000000000000000000000008152600401610a5f906115be565b60405180910390fd5b7f3c11d16cbaffd01df69ce1c404f6340ee057498f5f00246190ea54220576a848610a9281610d59565b600b60009054906101000a900460ff1615610ae2576040517f08c379a0000000000000000000000000000000000000000000000000000000008152600401610ad9906118f4565b60405180910390fd5b6000610afb600854600654610f5990919063ffffffff16565b9050600560009054906101000a900473ffffffffffffffffffffffffffffffffffffffff1673ffffffffffffffffffffffffffffffffffffffff166342966c68826040518263ffffffff1660e01b8152600401610b5891906117b9565b600060405180830381600087803b158015610b7257600080fd5b505af1158015610b86573d6000803e3d6000fd5b505050507fd83c63197e8e676d80ab0122beba9a9d20f3828839e9a1d6fe81d242e9cd7e6e81604051610bb991906117b9565b60405180910390a1506001600b60006101000a81548160ff02191690831515021790555050565b6000600b60009054906101000a900460ff16905090565b7fb165298935924f540e4181c03493a5d686c54a0aaeb3f6216de85b7ffbba773881565b600080600084815260200190815260200160002060000160008373ffffffffffffffffffffffffffffffffffffffff1673ffffffffffffffffffffffffffffffffffffffff16815260200190815260200160002060009054906101000a900460ff16905092915050565b6000801b81565b7f305786ab5904b5bb20fe6d91992844b39d648cdcb82f328edc2d6a80bfbb328981565b610cb9826106a0565b610cc281610d59565b610ccc8383610e78565b505050565b6000610ce860095483610f6f90919063ffffffff16565b9050919050565b60007f01ffc9a7000000000000000000000000000000000000000000000000000000007bffffffffffffffffffffffffffffffffffffffffffffffffffffffff1916827bffffffffffffffffffffffffffffffffffffffffffffffffffffffff1916149050919050565b610d6a81610d65610e70565b610f85565b50565b6000610d89610d7a61100a565b83610f6f90919063ffffffff16565b9050919050565b610d9a8282610c1b565b610e6c57600160008084815260200190815260200160002060000160008373ffffffffffffffffffffffffffffffffffffffff1673ffffffffffffffffffffffffffffffffffffffff16815260200190815260200160002060006101000a81548160ff021916908315150217905550610e11610e70565b73ffffffffffffffffffffffffffffffffffffffff168173ffffffffffffffffffffffffffffffffffffffff16837f2f8788117e7eff1d82e926ec794901d17c78024a50270940304540a733656f0d60405160405180910390a45b5050565b600033905090565b610e828282610c1b565b15610f5557600080600084815260200190815260200160002060000160008373ffffffffffffffffffffffffffffffffffffffff1673ffffffffffffffffffffffffffffffffffffffff16815260200190815260200160002060006101000a81548160ff021916908315150217905550610efa610e70565b73ffffffffffffffffffffffffffffffffffffffff168173ffffffffffffffffffffffffffffffffffffffff16837ff6391f5c32d9c69d2a47ea670b442974b53935d1edc7fd64eb21e047a839171b60405160405180910390a45b5050565b60008183610f679190611914565b905092915050565b60008183610f7d91906117d4565b905092915050565b610f8f8282610c1b565b61100657610f9c81611028565b610faa8360001c6020611055565b604051602001610fbb929190611a51565b6040516020818303038152906040526040517f08c379a0000000000000000000000000000000000000000000000000000000008152600401610ffd9190611ad5565b60405180910390fd5b5050565b600061102360065460085461129190919063ffffffff16565b905090565b606061104e8273ffffffffffffffffffffffffffffffffffffffff16601460ff16611055565b9050919050565b60606000600283600261106891906117d4565b6110729190611679565b67ffffffffffffffff81111561108b5761108a611af7565b5b6040519080825280601f01601f1916602001820160405280156110bd5781602001600182028036833780820191505090505b5090507f3000000000000000000000000000000000000000000000000000000000000000816000815181106110f5576110f4611b26565b5b60200101907effffffffffffffffffffffffffffffffffffffffffffffffffffffffffffff1916908160001a9053507f78000000000000000000000000000000000000000000000000000000000000008160018151811061115957611158611b26565b5b60200101907effffffffffffffffffffffffffffffffffffffffffffffffffffffffffffff1916908160001a9053506000600184600261119991906117d4565b6111a39190611679565b90505b6001811115611243577f3031323334353637383961626364656600000000000000000000000000000000600f8616601081106111e5576111e4611b26565b5b1a60f81b8282815181106111fc576111fb611b26565b5b60200101907effffffffffffffffffffffffffffffffffffffffffffffffffffffffffffff1916908160001a905350600485901c94508061123c90611b55565b90506111a6565b5060008414611287576040517f08c379a000000000000000000000000000000000000000000000000000000000815260040161127e90611bca565b60405180910390fd5b8091505092915050565b6000818361129f9190611c19565b905092915050565b600082825260208201905092915050565b7f66616c6c6261636b206869740000000000000000000000000000000000000000600082015250565b60006112ee600c836112a7565b91506112f9826112b8565b602082019050919050565b6000602082019050818103600083015261131d816112e1565b9050919050565b600080fd5b60007fffffffff0000000000000000000000000000000000000000000000000000000082169050919050565b61135e81611329565b811461136957600080fd5b50565b60008135905061137b81611355565b92915050565b60006020828403121561139757611396611324565b5b60006113a58482850161136c565b91505092915050565b60008115159050919050565b6113c3816113ae565b82525050565b60006020820190506113de60008301846113ba565b92915050565b6000819050919050565b6113f7816113e4565b811461140257600080fd5b50565b600081359050611414816113ee565b92915050565b6000602082840312156114305761142f611324565b5b600061143e84828501611405565b91505092915050565b611450816113e4565b82525050565b600060208201905061146b6000830184611447565b92915050565b6000819050919050565b61148481611471565b811461148f57600080fd5b50565b6000813590506114a18161147b565b92915050565b6000602082840312156114bd576114bc611324565b5b60006114cb84828501611492565b91505092915050565b600073ffffffffffffffffffffffffffffffffffffffff82169050919050565b60006114ff826114d4565b9050919050565b61150f816114f4565b811461151a57600080fd5b50565b60008135905061152c81611506565b92915050565b6000806040838503121561154957611548611324565b5b600061155785828601611405565b92505060206115688582860161151d565b9150509250929050565b7f49434f206973206f766572203a28200000000000000000000000000000000000600082015250565b60006115a8600f836112a7565b91506115b382611572565b602082019050919050565b600060208201905081810360008301526115d78161159b565b9050919050565b7f20706c656173652073656e64206d657469730000000000000000000000000000600082015250565b60006116146012836112a7565b915061161f826115de565b602082019050919050565b6000602082019050818103600083015261164381611607565b9050919050565b7f4e487b7100000000000000000000000000000000000000000000000000000000600052601160045260246000fd5b600061168482611471565b915061168f83611471565b92508282019050808211156116a7576116a661164a565b5b92915050565b7f657863656564732074686520746f74616c20666f722073616c65000000000000600082015250565b60006116e3601a836112a7565b91506116ee826116ad565b602082019050919050565b60006020820190508181036000830152611712816116d6565b9050919050565b611722816114f4565b82525050565b61173181611471565b82525050565b600060408201905061174c6000830185611719565b6117596020830184611728565b9392505050565b611769816113ae565b811461177457600080fd5b50565b60008151905061178681611760565b92915050565b6000602082840312156117a2576117a1611324565b5b60006117b084828501611777565b91505092915050565b60006020820190506117ce6000830184611728565b92915050565b60006117df82611471565b91506117ea83611471565b92508282026117f881611471565b9150828204841483151761180f5761180e61164a565b5b5092915050565b7f416363657373436f6e74726f6c3a2063616e206f6e6c792072656e6f756e636560008201527f20726f6c657320666f722073656c660000000000000000000000000000000000602082015250565b6000611872602f836112a7565b915061187d82611816565b604082019050919050565b600060208201905081810360008301526118a181611865565b9050919050565b7f74686520737570706c7920697320616c7265616479206275726e656400000000600082015250565b60006118de601c836112a7565b91506118e9826118a8565b602082019050919050565b6000602082019050818103600083015261190d816118d1565b9050919050565b600061191f82611471565b915061192a83611471565b92508282039050818111156119425761194161164a565b5b92915050565b600081905092915050565b7f416363657373436f6e74726f6c3a206163636f756e7420000000000000000000600082015250565b6000611989601783611948565b915061199482611953565b601782019050919050565b600081519050919050565b60005b838110156119c85780820151818401526020810190506119ad565b60008484015250505050565b60006119df8261199f565b6119e98185611948565b93506119f98185602086016119aa565b80840191505092915050565b7f206973206d697373696e6720726f6c6520000000000000000000000000000000600082015250565b6000611a3b601183611948565b9150611a4682611a05565b601182019050919050565b6000611a5c8261197c565b9150611a6882856119d4565b9150611a7382611a2e565b9150611a7f82846119d4565b91508190509392505050565b6000601f19601f8301169050919050565b6000611aa78261199f565b611ab181856112a7565b9350611ac18185602086016119aa565b611aca81611a8b565b840191505092915050565b60006020820190508181036000830152611aef8184611a9c565b905092915050565b7f4e487b7100000000000000000000000000000000000000000000000000000000600052604160045260246000fd5b7f4e487b7100000000000000000000000000000000000000000000000000000000600052603260045260246000fd5b6000611b6082611471565b915060008203611b7357611b7261164a565b5b600182039050919050565b7f537472696e67733a20686578206c656e67746820696e73756666696369656e74600082015250565b6000611bb46020836112a7565b9150611bbf82611b7e565b602082019050919050565b60006020820190508181036000830152611be381611ba7565b9050919050565b7f4e487b7100000000000000000000000000000000000000000000000000000000600052601260045260246000fd5b6000611c2482611471565b9150611c2f83611471565b925082611c3f57611c3e611bea565b5b82820490509291505056fea2646970667358221220814a8a98eefd24b4b88da9a1e13d0f300f7b6d1d6c4390631a481f9d87b6808a64736f6c63430008110033",
					"opcodes": "PUSH1 0xA0 PUSH1 0x40 MSTORE PUSH5 0x430E23400 PUSH1 0x4 SSTORE PUSH10 0x152D02C7E14AF6800000 PUSH1 0x6 SSTORE PUSH1 0x1 PUSH1 0x9 SSTORE PUSH1 0x0 PUSH1 0xB PUSH1 0x0 PUSH2 0x100 EXP DUP2 SLOAD DUP2 PUSH1 0xFF MUL NOT AND SWAP1 DUP4 ISZERO ISZERO MUL OR SWAP1 SSTORE POP PUSH3 0x278D00 PUSH1 0xC SSTORE PUSH3 0x93A80 PUSH1 0xD SSTORE PUSH1 0x40 MLOAD PUSH3 0x20A2 CODESIZE SUB DUP1 PUSH3 0x20A2 DUP4 CODECOPY DUP2 DUP2 ADD PUSH1 0x40 MSTORE DUP2 ADD SWAP1 PUSH3 0x6E SWAP2 SWAP1 PUSH3 0x3B1 JUMP JUMPDEST PUSH3 0xA0 PUSH32 0xB165298935924F540E4181C03493A5D686C54A0AAEB3F6216DE85B7FFBBA7738 DUP3 PUSH3 0x1E4 PUSH1 0x20 SHL PUSH1 0x20 SHR JUMP JUMPDEST PUSH3 0xD2 PUSH32 0x3C11D16CBAFFD01DF69CE1C404F6340EE057498F5F00246190EA54220576A848 DUP3 PUSH3 0x1E4 PUSH1 0x20 SHL PUSH1 0x20 SHR JUMP JUMPDEST PUSH3 0x104 PUSH32 0x305786AB5904B5BB20FE6D91992844B39D648CDCB82F328EDC2D6A80BFBB3289 DUP3 PUSH3 0x1E4 PUSH1 0x20 SHL PUSH1 0x20 SHR JUMP JUMPDEST CALLER PUSH1 0x1 PUSH1 0x0 PUSH2 0x100 EXP DUP2 SLOAD DUP2 PUSH20 0xFFFFFFFFFFFFFFFFFFFFFFFFFFFFFFFFFFFFFFFF MUL NOT AND SWAP1 DUP4 PUSH20 0xFFFFFFFFFFFFFFFFFFFFFFFFFFFFFFFFFFFFFFFF AND MUL OR SWAP1 SSTORE POP DUP2 PUSH1 0x5 PUSH1 0x0 PUSH2 0x100 EXP DUP2 SLOAD DUP2 PUSH20 0xFFFFFFFFFFFFFFFFFFFFFFFFFFFFFFFFFFFFFFFF MUL NOT AND SWAP1 DUP4 PUSH20 0xFFFFFFFFFFFFFFFFFFFFFFFFFFFFFFFFFFFFFFFF AND MUL OR SWAP1 SSTORE POP TIMESTAMP PUSH1 0x80 DUP2 DUP2 MSTORE POP POP PUSH1 0x6F PUSH1 0xA PUSH1 0x0 DUP1 DUP2 MSTORE PUSH1 0x20 ADD SWAP1 DUP2 MSTORE PUSH1 0x20 ADD PUSH1 0x0 KECCAK256 DUP2 SWAP1 SSTORE POP PUSH1 0xDE PUSH1 0xA PUSH1 0x0 PUSH1 0x1 DUP2 MSTORE PUSH1 0x20 ADD SWAP1 DUP2 MSTORE PUSH1 0x20 ADD PUSH1 0x0 KECCAK256 DUP2 SWAP1 SSTORE POP PUSH2 0x14D PUSH1 0xA PUSH1 0x0 PUSH1 0x2 DUP2 MSTORE PUSH1 0x20 ADD SWAP1 DUP2 MSTORE PUSH1 0x20 ADD PUSH1 0x0 KECCAK256 DUP2 SWAP1 SSTORE POP POP POP PUSH3 0x3F8 JUMP JUMPDEST PUSH3 0x1F6 DUP3 DUP3 PUSH3 0x2D5 PUSH1 0x20 SHL PUSH1 0x20 SHR JUMP JUMPDEST PUSH3 0x2D1 JUMPI PUSH1 0x1 PUSH1 0x0 DUP1 DUP5 DUP2 MSTORE PUSH1 0x20 ADD SWAP1 DUP2 MSTORE PUSH1 0x20 ADD PUSH1 0x0 KECCAK256 PUSH1 0x0 ADD PUSH1 0x0 DUP4 PUSH20 0xFFFFFFFFFFFFFFFFFFFFFFFFFFFFFFFFFFFFFFFF AND PUSH20 0xFFFFFFFFFFFFFFFFFFFFFFFFFFFFFFFFFFFFFFFF AND DUP2 MSTORE PUSH1 0x20 ADD SWAP1 DUP2 MSTORE PUSH1 0x20 ADD PUSH1 0x0 KECCAK256 PUSH1 0x0 PUSH2 0x100 EXP DUP2 SLOAD DUP2 PUSH1 0xFF MUL NOT AND SWAP1 DUP4 ISZERO ISZERO MUL OR SWAP1 SSTORE POP PUSH3 0x276 PUSH3 0x33F PUSH1 0x20 SHL PUSH1 0x20 SHR JUMP JUMPDEST PUSH20 0xFFFFFFFFFFFFFFFFFFFFFFFFFFFFFFFFFFFFFFFF AND DUP2 PUSH20 0xFFFFFFFFFFFFFFFFFFFFFFFFFFFFFFFFFFFFFFFF AND DUP4 PUSH32 0x2F8788117E7EFF1D82E926EC794901D17C78024A50270940304540A733656F0D PUSH1 0x40 MLOAD PUSH1 0x40 MLOAD DUP1 SWAP2 SUB SWAP1 LOG4 JUMPDEST POP POP JUMP JUMPDEST PUSH1 0x0 DUP1 PUSH1 0x0 DUP5 DUP2 MSTORE PUSH1 0x20 ADD SWAP1 DUP2 MSTORE PUSH1 0x20 ADD PUSH1 0x0 KECCAK256 PUSH1 0x0 ADD PUSH1 0x0 DUP4 PUSH20 0xFFFFFFFFFFFFFFFFFFFFFFFFFFFFFFFFFFFFFFFF AND PUSH20 0xFFFFFFFFFFFFFFFFFFFFFFFFFFFFFFFFFFFFFFFF AND DUP2 MSTORE PUSH1 0x20 ADD SWAP1 DUP2 MSTORE PUSH1 0x20 ADD PUSH1 0x0 KECCAK256 PUSH1 0x0 SWAP1 SLOAD SWAP1 PUSH2 0x100 EXP SWAP1 DIV PUSH1 0xFF AND SWAP1 POP SWAP3 SWAP2 POP POP JUMP JUMPDEST PUSH1 0x0 CALLER SWAP1 POP SWAP1 JUMP JUMPDEST PUSH1 0x0 DUP1 REVERT JUMPDEST PUSH1 0x0 PUSH20 0xFFFFFFFFFFFFFFFFFFFFFFFFFFFFFFFFFFFFFFFF DUP3 AND SWAP1 POP SWAP2 SWAP1 POP JUMP JUMPDEST PUSH1 0x0 PUSH3 0x379 DUP3 PUSH3 0x34C JUMP JUMPDEST SWAP1 POP SWAP2 SWAP1 POP JUMP JUMPDEST PUSH3 0x38B DUP2 PUSH3 0x36C JUMP JUMPDEST DUP2 EQ PUSH3 0x397 JUMPI PUSH1 0x0 DUP1 REVERT JUMPDEST POP JUMP JUMPDEST PUSH1 0x0 DUP2 MLOAD SWAP1 POP PUSH3 0x3AB DUP2 PUSH3 0x380 JUMP JUMPDEST SWAP3 SWAP2 POP POP JUMP JUMPDEST PUSH1 0x0 DUP1 PUSH1 0x40 DUP4 DUP6 SUB SLT ISZERO PUSH3 0x3CB JUMPI PUSH3 0x3CA PUSH3 0x347 JUMP JUMPDEST JUMPDEST PUSH1 0x0 PUSH3 0x3DB DUP6 DUP3 DUP7 ADD PUSH3 0x39A JUMP JUMPDEST SWAP3 POP POP PUSH1 0x20 PUSH3 0x3EE DUP6 DUP3 DUP7 ADD PUSH3 0x39A JUMP JUMPDEST SWAP2 POP POP SWAP3 POP SWAP3 SWAP1 POP JUMP JUMPDEST PUSH1 0x80 MLOAD PUSH2 0x1C80 PUSH3 0x422 PUSH1 0x0 CODECOPY PUSH1 0x0 DUP2 DUP2 PUSH2 0x71F ADD MSTORE DUP2 DUP2 PUSH2 0x85A ADD MSTORE PUSH2 0x8F5 ADD MSTORE PUSH2 0x1C80 PUSH1 0x0 RETURN INVALID PUSH1 0x80 PUSH1 0x40 MSTORE PUSH1 0x4 CALLDATASIZE LT PUSH2 0xE1 JUMPI PUSH1 0x0 CALLDATALOAD PUSH1 0xE0 SHR DUP1 PUSH4 0x73F42561 GT PUSH2 0x7F JUMPI DUP1 PUSH4 0xA217FDDF GT PUSH2 0x59 JUMPI DUP1 PUSH4 0xA217FDDF EQ PUSH2 0x2F4 JUMPI DUP1 PUSH4 0xA6F2AE3A EQ PUSH2 0x31F JUMPI DUP1 PUSH4 0xB1AC51F8 EQ PUSH2 0x33D JUMPI DUP1 PUSH4 0xD547741F EQ PUSH2 0x368 JUMPI PUSH2 0x125 JUMP JUMPDEST DUP1 PUSH4 0x73F42561 EQ PUSH2 0x261 JUMPI DUP1 PUSH4 0x76082A5E EQ PUSH2 0x28C JUMPI DUP1 PUSH4 0x91D14854 EQ PUSH2 0x2B7 JUMPI PUSH2 0x125 JUMP JUMPDEST DUP1 PUSH4 0x2E1A7D4D GT PUSH2 0xBB JUMPI DUP1 PUSH4 0x2E1A7D4D EQ PUSH2 0x1CF JUMPI DUP1 PUSH4 0x2F2FF15D EQ PUSH2 0x1F8 JUMPI DUP1 PUSH4 0x36568ABE EQ PUSH2 0x221 JUMPI DUP1 PUSH4 0x4F248409 EQ PUSH2 0x24A JUMPI PUSH2 0x125 JUMP JUMPDEST DUP1 PUSH4 0x1FFC9A7 EQ PUSH2 0x12A JUMPI DUP1 PUSH4 0x248A9CA3 EQ PUSH2 0x167 JUMPI DUP1 PUSH4 0x282C51F3 EQ PUSH2 0x1A4 JUMPI PUSH2 0x125 JUMP JUMPDEST CALLDATASIZE PUSH2 0x125 JUMPI PUSH32 0xCF34EF537AC33EE1AC626CA1587A0A7E8E51561E5514F8CB36AFA1C5102B3BAB PUSH1 0x40 MLOAD PUSH2 0x113 SWAP1 PUSH2 0x1304 JUMP JUMPDEST PUSH1 0x40 MLOAD DUP1 SWAP2 SUB SWAP1 LOG1 PUSH2 0x123 PUSH2 0x391 JUMP JUMPDEST STOP JUMPDEST PUSH1 0x0 DUP1 REVERT JUMPDEST CALLVALUE DUP1 ISZERO PUSH2 0x136 JUMPI PUSH1 0x0 DUP1 REVERT JUMPDEST POP PUSH2 0x151 PUSH1 0x4 DUP1 CALLDATASIZE SUB DUP2 ADD SWAP1 PUSH2 0x14C SWAP2 SWAP1 PUSH2 0x1381 JUMP JUMPDEST PUSH2 0x626 JUMP JUMPDEST PUSH1 0x40 MLOAD PUSH2 0x15E SWAP2 SWAP1 PUSH2 0x13C9 JUMP JUMPDEST PUSH1 0x40 MLOAD DUP1 SWAP2 SUB SWAP1 RETURN JUMPDEST CALLVALUE DUP1 ISZERO PUSH2 0x173 JUMPI PUSH1 0x0 DUP1 REVERT JUMPDEST POP PUSH2 0x18E PUSH1 0x4 DUP1 CALLDATASIZE SUB DUP2 ADD SWAP1 PUSH2 0x189 SWAP2 SWAP1 PUSH2 0x141A JUMP JUMPDEST PUSH2 0x6A0 JUMP JUMPDEST PUSH1 0x40 MLOAD PUSH2 0x19B SWAP2 SWAP1 PUSH2 0x1456 JUMP JUMPDEST PUSH1 0x40 MLOAD DUP1 SWAP2 SUB SWAP1 RETURN JUMPDEST CALLVALUE DUP1 ISZERO PUSH2 0x1B0 JUMPI PUSH1 0x0 DUP1 REVERT JUMPDEST POP PUSH2 0x1B9 PUSH2 0x6BF JUMP JUMPDEST PUSH1 0x40 MLOAD PUSH2 0x1C6 SWAP2 SWAP1 PUSH2 0x1456 JUMP JUMPDEST PUSH1 0x40 MLOAD DUP1 SWAP2 SUB SWAP1 RETURN JUMPDEST CALLVALUE DUP1 ISZERO PUSH2 0x1DB JUMPI PUSH1 0x0 DUP1 REVERT JUMPDEST POP PUSH2 0x1F6 PUSH1 0x4 DUP1 CALLDATASIZE SUB DUP2 ADD SWAP1 PUSH2 0x1F1 SWAP2 SWAP1 PUSH2 0x14A7 JUMP JUMPDEST PUSH2 0x6E3 JUMP JUMPDEST STOP JUMPDEST CALLVALUE DUP1 ISZERO PUSH2 0x204 JUMPI PUSH1 0x0 DUP1 REVERT JUMPDEST POP PUSH2 0x21F PUSH1 0x4 DUP1 CALLDATASIZE SUB DUP2 ADD SWAP1 PUSH2 0x21A SWAP2 SWAP1 PUSH2 0x1532 JUMP JUMPDEST PUSH2 0x980 JUMP JUMPDEST STOP JUMPDEST CALLVALUE DUP1 ISZERO PUSH2 0x22D JUMPI PUSH1 0x0 DUP1 REVERT JUMPDEST POP PUSH2 0x248 PUSH1 0x4 DUP1 CALLDATASIZE SUB DUP2 ADD SWAP1 PUSH2 0x243 SWAP2 SWAP1 PUSH2 0x1532 JUMP JUMPDEST PUSH2 0x9A1 JUMP JUMPDEST STOP JUMPDEST CALLVALUE DUP1 ISZERO PUSH2 0x256 JUMPI PUSH1 0x0 DUP1 REVERT JUMPDEST POP PUSH2 0x25F PUSH2 0xA24 JUMP JUMPDEST STOP JUMPDEST CALLVALUE DUP1 ISZERO PUSH2 0x26D JUMPI PUSH1 0x0 DUP1 REVERT JUMPDEST POP PUSH2 0x276 PUSH2 0xBE0 JUMP JUMPDEST PUSH1 0x40 MLOAD PUSH2 0x283 SWAP2 SWAP1 PUSH2 0x13C9 JUMP JUMPDEST PUSH1 0x40 MLOAD DUP1 SWAP2 SUB SWAP1 RETURN JUMPDEST CALLVALUE DUP1 ISZERO PUSH2 0x298 JUMPI PUSH1 0x0 DUP1 REVERT JUMPDEST POP PUSH2 0x2A1 PUSH2 0xBF7 JUMP JUMPDEST PUSH1 0x40 MLOAD PUSH2 0x2AE SWAP2 SWAP1 PUSH2 0x1456 JUMP JUMPDEST PUSH1 0x40 MLOAD DUP1 SWAP2 SUB SWAP1 RETURN JUMPDEST CALLVALUE DUP1 ISZERO PUSH2 0x2C3 JUMPI PUSH1 0x0 DUP1 REVERT JUMPDEST POP PUSH2 0x2DE PUSH1 0x4 DUP1 CALLDATASIZE SUB DUP2 ADD SWAP1 PUSH2 0x2D9 SWAP2 SWAP1 PUSH2 0x1532 JUMP JUMPDEST PUSH2 0xC1B JUMP JUMPDEST PUSH1 0x40 MLOAD PUSH2 0x2EB SWAP2 SWAP1 PUSH2 0x13C9 JUMP JUMPDEST PUSH1 0x40 MLOAD DUP1 SWAP2 SUB SWAP1 RETURN JUMPDEST CALLVALUE DUP1 ISZERO PUSH2 0x300 JUMPI PUSH1 0x0 DUP1 REVERT JUMPDEST POP PUSH2 0x309 PUSH2 0xC85 JUMP JUMPDEST PUSH1 0x40 MLOAD PUSH2 0x316 SWAP2 SWAP1 PUSH2 0x1456 JUMP JUMPDEST PUSH1 0x40 MLOAD DUP1 SWAP2 SUB SWAP1 RETURN JUMPDEST PUSH2 0x327 PUSH2 0x391 JUMP JUMPDEST PUSH1 0x40 MLOAD PUSH2 0x334 SWAP2 SWAP1 PUSH2 0x13C9 JUMP JUMPDEST PUSH1 0x40 MLOAD DUP1 SWAP2 SUB SWAP1 RETURN JUMPDEST CALLVALUE DUP1 ISZERO PUSH2 0x349 JUMPI PUSH1 0x0 DUP1 REVERT JUMPDEST POP PUSH2 0x352 PUSH2 0xC8C JUMP JUMPDEST PUSH1 0x40 MLOAD PUSH2 0x35F SWAP2 SWAP1 PUSH2 0x1456 JUMP JUMPDEST PUSH1 0x40 MLOAD DUP1 SWAP2 SUB SWAP1 RETURN JUMPDEST CALLVALUE DUP1 ISZERO PUSH2 0x374 JUMPI PUSH1 0x0 DUP1 REVERT JUMPDEST POP PUSH2 0x38F PUSH1 0x4 DUP1 CALLDATASIZE SUB DUP2 ADD SWAP1 PUSH2 0x38A SWAP2 SWAP1 PUSH2 0x1532 JUMP JUMPDEST PUSH2 0xCB0 JUMP JUMPDEST STOP JUMPDEST PUSH1 0x0 PUSH1 0x4 SLOAD TIMESTAMP LT PUSH2 0x3D7 JUMPI PUSH1 0x40 MLOAD PUSH32 0x8C379A000000000000000000000000000000000000000000000000000000000 DUP2 MSTORE PUSH1 0x4 ADD PUSH2 0x3CE SWAP1 PUSH2 0x15BE JUMP JUMPDEST PUSH1 0x40 MLOAD DUP1 SWAP2 SUB SWAP1 REVERT JUMPDEST PUSH1 0x0 CALLVALUE GT PUSH2 0x41A JUMPI PUSH1 0x40 MLOAD PUSH32 0x8C379A000000000000000000000000000000000000000000000000000000000 DUP2 MSTORE PUSH1 0x4 ADD PUSH2 0x411 SWAP1 PUSH2 0x162A JUMP JUMPDEST PUSH1 0x40 MLOAD DUP1 SWAP2 SUB SWAP1 REVERT JUMPDEST PUSH1 0x0 PUSH2 0x425 CALLVALUE PUSH2 0xCD1 JUMP JUMPDEST SWAP1 POP PUSH1 0x6 SLOAD PUSH1 0x8 SLOAD DUP3 PUSH2 0x438 SWAP2 SWAP1 PUSH2 0x1679 JUMP JUMPDEST LT PUSH2 0x478 JUMPI PUSH1 0x40 MLOAD PUSH32 0x8C379A000000000000000000000000000000000000000000000000000000000 DUP2 MSTORE PUSH1 0x4 ADD PUSH2 0x46F SWAP1 PUSH2 0x16F9 JUMP JUMPDEST PUSH1 0x40 MLOAD DUP1 SWAP2 SUB SWAP1 REVERT JUMPDEST PUSH1 0x5 PUSH1 0x0 SWAP1 SLOAD SWAP1 PUSH2 0x100 EXP SWAP1 DIV PUSH20 0xFFFFFFFFFFFFFFFFFFFFFFFFFFFFFFFFFFFFFFFF AND PUSH20 0xFFFFFFFFFFFFFFFFFFFFFFFFFFFFFFFFFFFFFFFF AND PUSH4 0x95EA7B3 ADDRESS DUP4 PUSH1 0x40 MLOAD DUP4 PUSH4 0xFFFFFFFF AND PUSH1 0xE0 SHL DUP2 MSTORE PUSH1 0x4 ADD PUSH2 0x4D5 SWAP3 SWAP2 SWAP1 PUSH2 0x1737 JUMP JUMPDEST PUSH1 0x20 PUSH1 0x40 MLOAD DUP1 DUP4 SUB DUP2 PUSH1 0x0 DUP8 GAS CALL ISZERO DUP1 ISZERO PUSH2 0x4F4 JUMPI RETURNDATASIZE PUSH1 0x0 DUP1 RETURNDATACOPY RETURNDATASIZE PUSH1 0x0 REVERT JUMPDEST POP POP POP POP PUSH1 0x40 MLOAD RETURNDATASIZE PUSH1 0x1F NOT PUSH1 0x1F DUP3 ADD AND DUP3 ADD DUP1 PUSH1 0x40 MSTORE POP DUP2 ADD SWAP1 PUSH2 0x518 SWAP2 SWAP1 PUSH2 0x178C JUMP JUMPDEST POP PUSH1 0x5 PUSH1 0x0 SWAP1 SLOAD SWAP1 PUSH2 0x100 EXP SWAP1 DIV PUSH20 0xFFFFFFFFFFFFFFFFFFFFFFFFFFFFFFFFFFFFFFFF AND PUSH20 0xFFFFFFFFFFFFFFFFFFFFFFFFFFFFFFFFFFFFFFFF AND PUSH4 0xA9059CBB CALLER DUP4 PUSH1 0x40 MLOAD DUP4 PUSH4 0xFFFFFFFF AND PUSH1 0xE0 SHL DUP2 MSTORE PUSH1 0x4 ADD PUSH2 0x576 SWAP3 SWAP2 SWAP1 PUSH2 0x1737 JUMP JUMPDEST PUSH1 0x20 PUSH1 0x40 MLOAD DUP1 DUP4 SUB DUP2 PUSH1 0x0 DUP8 GAS CALL ISZERO DUP1 ISZERO PUSH2 0x595 JUMPI RETURNDATASIZE PUSH1 0x0 DUP1 RETURNDATACOPY RETURNDATASIZE PUSH1 0x0 REVERT JUMPDEST POP POP POP POP PUSH1 0x40 MLOAD RETURNDATASIZE PUSH1 0x1F NOT PUSH1 0x1F DUP3 ADD AND DUP3 ADD DUP1 PUSH1 0x40 MSTORE POP DUP2 ADD SWAP1 PUSH2 0x5B9 SWAP2 SWAP1 PUSH2 0x178C JUMP JUMPDEST POP PUSH1 0x8 SLOAD DUP2 PUSH2 0x5C8 SWAP2 SWAP1 PUSH2 0x1679 JUMP JUMPDEST PUSH1 0x8 DUP2 SWAP1 SSTORE POP CALLVALUE PUSH1 0x7 PUSH1 0x0 DUP3 DUP3 SLOAD PUSH2 0x5E0 SWAP2 SWAP1 PUSH2 0x1679 JUMP JUMPDEST SWAP3 POP POP DUP2 SWAP1 SSTORE POP PUSH32 0x92F64CA637D023F354075A4BE751B169C1A8A9CCB6D33CDD0CB3520543995727 DUP2 PUSH1 0x40 MLOAD PUSH2 0x616 SWAP2 SWAP1 PUSH2 0x17B9 JUMP JUMPDEST PUSH1 0x40 MLOAD DUP1 SWAP2 SUB SWAP1 LOG1 PUSH1 0x1 SWAP2 POP POP SWAP1 JUMP JUMPDEST PUSH1 0x0 PUSH32 0x7965DB0B00000000000000000000000000000000000000000000000000000000 PUSH28 0xFFFFFFFFFFFFFFFFFFFFFFFFFFFFFFFFFFFFFFFFFFFFFFFFFFFFFFFF NOT AND DUP3 PUSH28 0xFFFFFFFFFFFFFFFFFFFFFFFFFFFFFFFFFFFFFFFFFFFFFFFFFFFFFFFF NOT AND EQ DUP1 PUSH2 0x699 JUMPI POP PUSH2 0x698 DUP3 PUSH2 0xCEF JUMP JUMPDEST JUMPDEST SWAP1 POP SWAP2 SWAP1 POP JUMP JUMPDEST PUSH1 0x0 DUP1 PUSH1 0x0 DUP4 DUP2 MSTORE PUSH1 0x20 ADD SWAP1 DUP2 MSTORE PUSH1 0x20 ADD PUSH1 0x0 KECCAK256 PUSH1 0x1 ADD SLOAD SWAP1 POP SWAP2 SWAP1 POP JUMP JUMPDEST PUSH32 0x3C11D16CBAFFD01DF69CE1C404F6340EE057498F5F00246190EA54220576A848 DUP2 JUMP JUMPDEST PUSH32 0xB165298935924F540E4181C03493A5D686C54A0AAEB3F6216DE85B7FFBBA7738 PUSH2 0x70D DUP2 PUSH2 0xD59 JUMP JUMPDEST TIMESTAMP PUSH1 0x12 PUSH1 0xC SLOAD PUSH2 0x71D SWAP2 SWAP1 PUSH2 0x17D4 JUMP JUMPDEST PUSH32 0x0 PUSH2 0x748 SWAP2 SWAP1 PUSH2 0x1679 JUMP JUMPDEST GT ISZERO PUSH2 0x849 JUMPI PUSH1 0x0 PUSH2 0x759 DUP4 PUSH2 0xD6D JUMP JUMPDEST SWAP1 POP PUSH1 0x5 PUSH1 0x0 SWAP1 SLOAD SWAP1 PUSH2 0x100 EXP SWAP1 DIV PUSH20 0xFFFFFFFFFFFFFFFFFFFFFFFFFFFFFFFFFFFFFFFF AND PUSH20 0xFFFFFFFFFFFFFFFFFFFFFFFFFFFFFFFFFFFFFFFF AND PUSH4 0x95EA7B3 ADDRESS DUP4 PUSH1 0x40 MLOAD DUP4 PUSH4 0xFFFFFFFF AND PUSH1 0xE0 SHL DUP2 MSTORE PUSH1 0x4 ADD PUSH2 0x7B8 SWAP3 SWAP2 SWAP1 PUSH2 0x1737 JUMP JUMPDEST PUSH1 0x20 PUSH1 0x40 MLOAD DUP1 DUP4 SUB DUP2 PUSH1 0x0 DUP8 GAS CALL ISZERO DUP1 ISZERO PUSH2 0x7D7 JUMPI RETURNDATASIZE PUSH1 0x0 DUP1 RETURNDATACOPY RETURNDATASIZE PUSH1 0x0 REVERT JUMPDEST POP POP POP POP PUSH1 0x40 MLOAD RETURNDATASIZE PUSH1 0x1F NOT PUSH1 0x1F DUP3 ADD AND DUP3 ADD DUP1 PUSH1 0x40 MSTORE POP DUP2 ADD SWAP1 PUSH2 0x7FB SWAP2 SWAP1 PUSH2 0x178C JUMP JUMPDEST POP CALLER PUSH20 0xFFFFFFFFFFFFFFFFFFFFFFFFFFFFFFFFFFFFFFFF AND PUSH2 0x8FC DUP3 SWAP1 DUP2 ISZERO MUL SWAP1 PUSH1 0x40 MLOAD PUSH1 0x0 PUSH1 0x40 MLOAD DUP1 DUP4 SUB DUP2 DUP6 DUP9 DUP9 CALL SWAP4 POP POP POP POP ISZERO DUP1 ISZERO PUSH2 0x842 JUMPI RETURNDATASIZE PUSH1 0x0 DUP1 RETURNDATACOPY RETURNDATASIZE PUSH1 0x0 REVERT JUMPDEST POP POP PUSH2 0x97C JUMP JUMPDEST TIMESTAMP PUSH1 0xC DUP1 SLOAD PUSH2 0x858 SWAP2 SWAP1 PUSH2 0x17D4 JUMP JUMPDEST PUSH32 0x0 PUSH2 0x883 SWAP2 SWAP1 PUSH2 0x1679 JUMP JUMPDEST GT ISZERO PUSH2 0x8E3 JUMPI PUSH1 0x0 PUSH2 0x894 DUP4 PUSH2 0xD6D JUMP JUMPDEST SWAP1 POP CALLER PUSH20 0xFFFFFFFFFFFFFFFFFFFFFFFFFFFFFFFFFFFFFFFF AND PUSH2 0x8FC DUP3 SWAP1 DUP2 ISZERO MUL SWAP1 PUSH1 0x40 MLOAD PUSH1 0x0 PUSH1 0x40 MLOAD DUP1 DUP4 SUB DUP2 DUP6 DUP9 DUP9 CALL SWAP4 POP POP POP POP ISZERO DUP1 ISZERO PUSH2 0x8DC JUMPI RETURNDATASIZE PUSH1 0x0 DUP1 RETURNDATACOPY RETURNDATASIZE PUSH1 0x0 REVERT JUMPDEST POP POP PUSH2 0x97B JUMP JUMPDEST TIMESTAMP PUSH1 0x6 PUSH1 0xC SLOAD PUSH2 0x8F3 SWAP2 SWAP1 PUSH2 0x17D4 JUMP JUMPDEST PUSH32 0x0 PUSH2 0x91E SWAP2 SWAP1 PUSH2 0x1679 JUMP JUMPDEST GT ISZERO PUSH2 0x97A JUMPI PUSH1 0x0 PUSH2 0x92F DUP4 PUSH2 0xD6D JUMP JUMPDEST SWAP1 POP CALLER PUSH20 0xFFFFFFFFFFFFFFFFFFFFFFFFFFFFFFFFFFFFFFFF AND PUSH2 0x8FC DUP3 SWAP1 DUP2 ISZERO MUL SWAP1 PUSH1 0x40 MLOAD PUSH1 0x0 PUSH1 0x40 MLOAD DUP1 DUP4 SUB DUP2 DUP6 DUP9 DUP9 CALL SWAP4 POP POP POP POP ISZERO DUP1 ISZERO PUSH2 0x977 JUMPI RETURNDATASIZE PUSH1 0x0 DUP1 RETURNDATACOPY RETURNDATASIZE PUSH1 0x0 REVERT JUMPDEST POP POP JUMPDEST JUMPDEST JUMPDEST POP POP JUMP JUMPDEST PUSH2 0x989 DUP3 PUSH2 0x6A0 JUMP JUMPDEST PUSH2 0x992 DUP2 PUSH2 0xD59 JUMP JUMPDEST PUSH2 0x99C DUP4 DUP4 PUSH2 0xD90 JUMP JUMPDEST POP POP POP JUMP JUMPDEST PUSH2 0x9A9 PUSH2 0xE70 JUMP JUMPDEST PUSH20 0xFFFFFFFFFFFFFFFFFFFFFFFFFFFFFFFFFFFFFFFF AND DUP2 PUSH20 0xFFFFFFFFFFFFFFFFFFFFFFFFFFFFFFFFFFFFFFFF AND EQ PUSH2 0xA16 JUMPI PUSH1 0x40 MLOAD PUSH32 0x8C379A000000000000000000000000000000000000000000000000000000000 DUP2 MSTORE PUSH1 0x4 ADD PUSH2 0xA0D SWAP1 PUSH2 0x1888 JUMP JUMPDEST PUSH1 0x40 MLOAD DUP1 SWAP2 SUB SWAP1 REVERT JUMPDEST PUSH2 0xA20 DUP3 DUP3 PUSH2 0xE78 JUMP JUMPDEST POP POP JUMP JUMPDEST PUSH1 0x4 SLOAD TIMESTAMP LT PUSH2 0xA68 JUMPI PUSH1 0x40 MLOAD PUSH32 0x8C379A000000000000000000000000000000000000000000000000000000000 DUP2 MSTORE PUSH1 0x4 ADD PUSH2 0xA5F SWAP1 PUSH2 0x15BE JUMP JUMPDEST PUSH1 0x40 MLOAD DUP1 SWAP2 SUB SWAP1 REVERT JUMPDEST PUSH32 0x3C11D16CBAFFD01DF69CE1C404F6340EE057498F5F00246190EA54220576A848 PUSH2 0xA92 DUP2 PUSH2 0xD59 JUMP JUMPDEST PUSH1 0xB PUSH1 0x0 SWAP1 SLOAD SWAP1 PUSH2 0x100 EXP SWAP1 DIV PUSH1 0xFF AND ISZERO PUSH2 0xAE2 JUMPI PUSH1 0x40 MLOAD PUSH32 0x8C379A000000000000000000000000000000000000000000000000000000000 DUP2 MSTORE PUSH1 0x4 ADD PUSH2 0xAD9 SWAP1 PUSH2 0x18F4 JUMP JUMPDEST PUSH1 0x40 MLOAD DUP1 SWAP2 SUB SWAP1 REVERT JUMPDEST PUSH1 0x0 PUSH2 0xAFB PUSH1 0x8 SLOAD PUSH1 0x6 SLOAD PUSH2 0xF59 SWAP1 SWAP2 SWAP1 PUSH4 0xFFFFFFFF AND JUMP JUMPDEST SWAP1 POP PUSH1 0x5 PUSH1 0x0 SWAP1 SLOAD SWAP1 PUSH2 0x100 EXP SWAP1 DIV PUSH20 0xFFFFFFFFFFFFFFFFFFFFFFFFFFFFFFFFFFFFFFFF AND PUSH20 0xFFFFFFFFFFFFFFFFFFFFFFFFFFFFFFFFFFFFFFFF AND PUSH4 0x42966C68 DUP3 PUSH1 0x40 MLOAD DUP3 PUSH4 0xFFFFFFFF AND PUSH1 0xE0 SHL DUP2 MSTORE PUSH1 0x4 ADD PUSH2 0xB58 SWAP2 SWAP1 PUSH2 0x17B9 JUMP JUMPDEST PUSH1 0x0 PUSH1 0x40 MLOAD DUP1 DUP4 SUB DUP2 PUSH1 0x0 DUP8 DUP1 EXTCODESIZE ISZERO DUP1 ISZERO PUSH2 0xB72 JUMPI PUSH1 0x0 DUP1 REVERT JUMPDEST POP GAS CALL ISZERO DUP1 ISZERO PUSH2 0xB86 JUMPI RETURNDATASIZE PUSH1 0x0 DUP1 RETURNDATACOPY RETURNDATASIZE PUSH1 0x0 REVERT JUMPDEST POP POP POP POP PUSH32 0xD83C63197E8E676D80AB0122BEBA9A9D20F3828839E9A1D6FE81D242E9CD7E6E DUP2 PUSH1 0x40 MLOAD PUSH2 0xBB9 SWAP2 SWAP1 PUSH2 0x17B9 JUMP JUMPDEST PUSH1 0x40 MLOAD DUP1 SWAP2 SUB SWAP1 LOG1 POP PUSH1 0x1 PUSH1 0xB PUSH1 0x0 PUSH2 0x100 EXP DUP2 SLOAD DUP2 PUSH1 0xFF MUL NOT AND SWAP1 DUP4 ISZERO ISZERO MUL OR SWAP1 SSTORE POP POP JUMP JUMPDEST PUSH1 0x0 PUSH1 0xB PUSH1 0x0 SWAP1 SLOAD SWAP1 PUSH2 0x100 EXP SWAP1 DIV PUSH1 0xFF AND SWAP1 POP SWAP1 JUMP JUMPDEST PUSH32 0xB165298935924F540E4181C03493A5D686C54A0AAEB3F6216DE85B7FFBBA7738 DUP2 JUMP JUMPDEST PUSH1 0x0 DUP1 PUSH1 0x0 DUP5 DUP2 MSTORE PUSH1 0x20 ADD SWAP1 DUP2 MSTORE PUSH1 0x20 ADD PUSH1 0x0 KECCAK256 PUSH1 0x0 ADD PUSH1 0x0 DUP4 PUSH20 0xFFFFFFFFFFFFFFFFFFFFFFFFFFFFFFFFFFFFFFFF AND PUSH20 0xFFFFFFFFFFFFFFFFFFFFFFFFFFFFFFFFFFFFFFFF AND DUP2 MSTORE PUSH1 0x20 ADD SWAP1 DUP2 MSTORE PUSH1 0x20 ADD PUSH1 0x0 KECCAK256 PUSH1 0x0 SWAP1 SLOAD SWAP1 PUSH2 0x100 EXP SWAP1 DIV PUSH1 0xFF AND SWAP1 POP SWAP3 SWAP2 POP POP JUMP JUMPDEST PUSH1 0x0 DUP1 SHL DUP2 JUMP JUMPDEST PUSH32 0x305786AB5904B5BB20FE6D91992844B39D648CDCB82F328EDC2D6A80BFBB3289 DUP2 JUMP JUMPDEST PUSH2 0xCB9 DUP3 PUSH2 0x6A0 JUMP JUMPDEST PUSH2 0xCC2 DUP2 PUSH2 0xD59 JUMP JUMPDEST PUSH2 0xCCC DUP4 DUP4 PUSH2 0xE78 JUMP JUMPDEST POP POP POP JUMP JUMPDEST PUSH1 0x0 PUSH2 0xCE8 PUSH1 0x9 SLOAD DUP4 PUSH2 0xF6F SWAP1 SWAP2 SWAP1 PUSH4 0xFFFFFFFF AND JUMP JUMPDEST SWAP1 POP SWAP2 SWAP1 POP JUMP JUMPDEST PUSH1 0x0 PUSH32 0x1FFC9A700000000000000000000000000000000000000000000000000000000 PUSH28 0xFFFFFFFFFFFFFFFFFFFFFFFFFFFFFFFFFFFFFFFFFFFFFFFFFFFFFFFF NOT AND DUP3 PUSH28 0xFFFFFFFFFFFFFFFFFFFFFFFFFFFFFFFFFFFFFFFFFFFFFFFFFFFFFFFF NOT AND EQ SWAP1 POP SWAP2 SWAP1 POP JUMP JUMPDEST PUSH2 0xD6A DUP2 PUSH2 0xD65 PUSH2 0xE70 JUMP JUMPDEST PUSH2 0xF85 JUMP JUMPDEST POP JUMP JUMPDEST PUSH1 0x0 PUSH2 0xD89 PUSH2 0xD7A PUSH2 0x100A JUMP JUMPDEST DUP4 PUSH2 0xF6F SWAP1 SWAP2 SWAP1 PUSH4 0xFFFFFFFF AND JUMP JUMPDEST SWAP1 POP SWAP2 SWAP1 POP JUMP JUMPDEST PUSH2 0xD9A DUP3 DUP3 PUSH2 0xC1B JUMP JUMPDEST PUSH2 0xE6C JUMPI PUSH1 0x1 PUSH1 0x0 DUP1 DUP5 DUP2 MSTORE PUSH1 0x20 ADD SWAP1 DUP2 MSTORE PUSH1 0x20 ADD PUSH1 0x0 KECCAK256 PUSH1 0x0 ADD PUSH1 0x0 DUP4 PUSH20 0xFFFFFFFFFFFFFFFFFFFFFFFFFFFFFFFFFFFFFFFF AND PUSH20 0xFFFFFFFFFFFFFFFFFFFFFFFFFFFFFFFFFFFFFFFF AND DUP2 MSTORE PUSH1 0x20 ADD SWAP1 DUP2 MSTORE PUSH1 0x20 ADD PUSH1 0x0 KECCAK256 PUSH1 0x0 PUSH2 0x100 EXP DUP2 SLOAD DUP2 PUSH1 0xFF MUL NOT AND SWAP1 DUP4 ISZERO ISZERO MUL OR SWAP1 SSTORE POP PUSH2 0xE11 PUSH2 0xE70 JUMP JUMPDEST PUSH20 0xFFFFFFFFFFFFFFFFFFFFFFFFFFFFFFFFFFFFFFFF AND DUP2 PUSH20 0xFFFFFFFFFFFFFFFFFFFFFFFFFFFFFFFFFFFFFFFF AND DUP4 PUSH32 0x2F8788117E7EFF1D82E926EC794901D17C78024A50270940304540A733656F0D PUSH1 0x40 MLOAD PUSH1 0x40 MLOAD DUP1 SWAP2 SUB SWAP1 LOG4 JUMPDEST POP POP JUMP JUMPDEST PUSH1 0x0 CALLER SWAP1 POP SWAP1 JUMP JUMPDEST PUSH2 0xE82 DUP3 DUP3 PUSH2 0xC1B JUMP JUMPDEST ISZERO PUSH2 0xF55 JUMPI PUSH1 0x0 DUP1 PUSH1 0x0 DUP5 DUP2 MSTORE PUSH1 0x20 ADD SWAP1 DUP2 MSTORE PUSH1 0x20 ADD PUSH1 0x0 KECCAK256 PUSH1 0x0 ADD PUSH1 0x0 DUP4 PUSH20 0xFFFFFFFFFFFFFFFFFFFFFFFFFFFFFFFFFFFFFFFF AND PUSH20 0xFFFFFFFFFFFFFFFFFFFFFFFFFFFFFFFFFFFFFFFF AND DUP2 MSTORE PUSH1 0x20 ADD SWAP1 DUP2 MSTORE PUSH1 0x20 ADD PUSH1 0x0 KECCAK256 PUSH1 0x0 PUSH2 0x100 EXP DUP2 SLOAD DUP2 PUSH1 0xFF MUL NOT AND SWAP1 DUP4 ISZERO ISZERO MUL OR SWAP1 SSTORE POP PUSH2 0xEFA PUSH2 0xE70 JUMP JUMPDEST PUSH20 0xFFFFFFFFFFFFFFFFFFFFFFFFFFFFFFFFFFFFFFFF AND DUP2 PUSH20 0xFFFFFFFFFFFFFFFFFFFFFFFFFFFFFFFFFFFFFFFF AND DUP4 PUSH32 0xF6391F5C32D9C69D2A47EA670B442974B53935D1EDC7FD64EB21E047A839171B PUSH1 0x40 MLOAD PUSH1 0x40 MLOAD DUP1 SWAP2 SUB SWAP1 LOG4 JUMPDEST POP POP JUMP JUMPDEST PUSH1 0x0 DUP2 DUP4 PUSH2 0xF67 SWAP2 SWAP1 PUSH2 0x1914 JUMP JUMPDEST SWAP1 POP SWAP3 SWAP2 POP POP JUMP JUMPDEST PUSH1 0x0 DUP2 DUP4 PUSH2 0xF7D SWAP2 SWAP1 PUSH2 0x17D4 JUMP JUMPDEST SWAP1 POP SWAP3 SWAP2 POP POP JUMP JUMPDEST PUSH2 0xF8F DUP3 DUP3 PUSH2 0xC1B JUMP JUMPDEST PUSH2 0x1006 JUMPI PUSH2 0xF9C DUP2 PUSH2 0x1028 JUMP JUMPDEST PUSH2 0xFAA DUP4 PUSH1 0x0 SHR PUSH1 0x20 PUSH2 0x1055 JUMP JUMPDEST PUSH1 0x40 MLOAD PUSH1 0x20 ADD PUSH2 0xFBB SWAP3 SWAP2 SWAP1 PUSH2 0x1A51 JUMP JUMPDEST PUSH1 0x40 MLOAD PUSH1 0x20 DUP2 DUP4 SUB SUB DUP2 MSTORE SWAP1 PUSH1 0x40 MSTORE PUSH1 0x40 MLOAD PUSH32 0x8C379A000000000000000000000000000000000000000000000000000000000 DUP2 MSTORE PUSH1 0x4 ADD PUSH2 0xFFD SWAP2 SWAP1 PUSH2 0x1AD5 JUMP JUMPDEST PUSH1 0x40 MLOAD DUP1 SWAP2 SUB SWAP1 REVERT JUMPDEST POP POP JUMP JUMPDEST PUSH1 0x0 PUSH2 0x1023 PUSH1 0x6 SLOAD PUSH1 0x8 SLOAD PUSH2 0x1291 SWAP1 SWAP2 SWAP1 PUSH4 0xFFFFFFFF AND JUMP JUMPDEST SWAP1 POP SWAP1 JUMP JUMPDEST PUSH1 0x60 PUSH2 0x104E DUP3 PUSH20 0xFFFFFFFFFFFFFFFFFFFFFFFFFFFFFFFFFFFFFFFF AND PUSH1 0x14 PUSH1 0xFF AND PUSH2 0x1055 JUMP JUMPDEST SWAP1 POP SWAP2 SWAP1 POP JUMP JUMPDEST PUSH1 0x60 PUSH1 0x0 PUSH1 0x2 DUP4 PUSH1 0x2 PUSH2 0x1068 SWAP2 SWAP1 PUSH2 0x17D4 JUMP JUMPDEST PUSH2 0x1072 SWAP2 SWAP1 PUSH2 0x1679 JUMP JUMPDEST PUSH8 0xFFFFFFFFFFFFFFFF DUP2 GT ISZERO PUSH2 0x108B JUMPI PUSH2 0x108A PUSH2 0x1AF7 JUMP JUMPDEST JUMPDEST PUSH1 0x40 MLOAD SWAP1 DUP1 DUP3 MSTORE DUP1 PUSH1 0x1F ADD PUSH1 0x1F NOT AND PUSH1 0x20 ADD DUP3 ADD PUSH1 0x40 MSTORE DUP1 ISZERO PUSH2 0x10BD JUMPI DUP2 PUSH1 0x20 ADD PUSH1 0x1 DUP3 MUL DUP1 CALLDATASIZE DUP4 CALLDATACOPY DUP1 DUP3 ADD SWAP2 POP POP SWAP1 POP JUMPDEST POP SWAP1 POP PUSH32 0x3000000000000000000000000000000000000000000000000000000000000000 DUP2 PUSH1 0x0 DUP2 MLOAD DUP2 LT PUSH2 0x10F5 JUMPI PUSH2 0x10F4 PUSH2 0x1B26 JUMP JUMPDEST JUMPDEST PUSH1 0x20 ADD ADD SWAP1 PUSH31 0xFFFFFFFFFFFFFFFFFFFFFFFFFFFFFFFFFFFFFFFFFFFFFFFFFFFFFFFFFFFFFF NOT AND SWAP1 DUP2 PUSH1 0x0 BYTE SWAP1 MSTORE8 POP PUSH32 0x7800000000000000000000000000000000000000000000000000000000000000 DUP2 PUSH1 0x1 DUP2 MLOAD DUP2 LT PUSH2 0x1159 JUMPI PUSH2 0x1158 PUSH2 0x1B26 JUMP JUMPDEST JUMPDEST PUSH1 0x20 ADD ADD SWAP1 PUSH31 0xFFFFFFFFFFFFFFFFFFFFFFFFFFFFFFFFFFFFFFFFFFFFFFFFFFFFFFFFFFFFFF NOT AND SWAP1 DUP2 PUSH1 0x0 BYTE SWAP1 MSTORE8 POP PUSH1 0x0 PUSH1 0x1 DUP5 PUSH1 0x2 PUSH2 0x1199 SWAP2 SWAP1 PUSH2 0x17D4 JUMP JUMPDEST PUSH2 0x11A3 SWAP2 SWAP1 PUSH2 0x1679 JUMP JUMPDEST SWAP1 POP JUMPDEST PUSH1 0x1 DUP2 GT ISZERO PUSH2 0x1243 JUMPI PUSH32 0x3031323334353637383961626364656600000000000000000000000000000000 PUSH1 0xF DUP7 AND PUSH1 0x10 DUP2 LT PUSH2 0x11E5 JUMPI PUSH2 0x11E4 PUSH2 0x1B26 JUMP JUMPDEST JUMPDEST BYTE PUSH1 0xF8 SHL DUP3 DUP3 DUP2 MLOAD DUP2 LT PUSH2 0x11FC JUMPI PUSH2 0x11FB PUSH2 0x1B26 JUMP JUMPDEST JUMPDEST PUSH1 0x20 ADD ADD SWAP1 PUSH31 0xFFFFFFFFFFFFFFFFFFFFFFFFFFFFFFFFFFFFFFFFFFFFFFFFFFFFFFFFFFFFFF NOT AND SWAP1 DUP2 PUSH1 0x0 BYTE SWAP1 MSTORE8 POP PUSH1 0x4 DUP6 SWAP1 SHR SWAP5 POP DUP1 PUSH2 0x123C SWAP1 PUSH2 0x1B55 JUMP JUMPDEST SWAP1 POP PUSH2 0x11A6 JUMP JUMPDEST POP PUSH1 0x0 DUP5 EQ PUSH2 0x1287 JUMPI PUSH1 0x40 MLOAD PUSH32 0x8C379A000000000000000000000000000000000000000000000000000000000 DUP2 MSTORE PUSH1 0x4 ADD PUSH2 0x127E SWAP1 PUSH2 0x1BCA JUMP JUMPDEST PUSH1 0x40 MLOAD DUP1 SWAP2 SUB SWAP1 REVERT JUMPDEST DUP1 SWAP2 POP POP SWAP3 SWAP2 POP POP JUMP JUMPDEST PUSH1 0x0 DUP2 DUP4 PUSH2 0x129F SWAP2 SWAP1 PUSH2 0x1C19 JUMP JUMPDEST SWAP1 POP SWAP3 SWAP2 POP POP JUMP JUMPDEST PUSH1 0x0 DUP3 DUP3 MSTORE PUSH1 0x20 DUP3 ADD SWAP1 POP SWAP3 SWAP2 POP POP JUMP JUMPDEST PUSH32 0x66616C6C6261636B206869740000000000000000000000000000000000000000 PUSH1 0x0 DUP3 ADD MSTORE POP JUMP JUMPDEST PUSH1 0x0 PUSH2 0x12EE PUSH1 0xC DUP4 PUSH2 0x12A7 JUMP JUMPDEST SWAP2 POP PUSH2 0x12F9 DUP3 PUSH2 0x12B8 JUMP JUMPDEST PUSH1 0x20 DUP3 ADD SWAP1 POP SWAP2 SWAP1 POP JUMP JUMPDEST PUSH1 0x0 PUSH1 0x20 DUP3 ADD SWAP1 POP DUP2 DUP2 SUB PUSH1 0x0 DUP4 ADD MSTORE PUSH2 0x131D DUP2 PUSH2 0x12E1 JUMP JUMPDEST SWAP1 POP SWAP2 SWAP1 POP JUMP JUMPDEST PUSH1 0x0 DUP1 REVERT JUMPDEST PUSH1 0x0 PUSH32 0xFFFFFFFF00000000000000000000000000000000000000000000000000000000 DUP3 AND SWAP1 POP SWAP2 SWAP1 POP JUMP JUMPDEST PUSH2 0x135E DUP2 PUSH2 0x1329 JUMP JUMPDEST DUP2 EQ PUSH2 0x1369 JUMPI PUSH1 0x0 DUP1 REVERT JUMPDEST POP JUMP JUMPDEST PUSH1 0x0 DUP2 CALLDATALOAD SWAP1 POP PUSH2 0x137B DUP2 PUSH2 0x1355 JUMP JUMPDEST SWAP3 SWAP2 POP POP JUMP JUMPDEST PUSH1 0x0 PUSH1 0x20 DUP3 DUP5 SUB SLT ISZERO PUSH2 0x1397 JUMPI PUSH2 0x1396 PUSH2 0x1324 JUMP JUMPDEST JUMPDEST PUSH1 0x0 PUSH2 0x13A5 DUP5 DUP3 DUP6 ADD PUSH2 0x136C JUMP JUMPDEST SWAP2 POP POP SWAP3 SWAP2 POP POP JUMP JUMPDEST PUSH1 0x0 DUP2 ISZERO ISZERO SWAP1 POP SWAP2 SWAP1 POP JUMP JUMPDEST PUSH2 0x13C3 DUP2 PUSH2 0x13AE JUMP JUMPDEST DUP3 MSTORE POP POP JUMP JUMPDEST PUSH1 0x0 PUSH1 0x20 DUP3 ADD SWAP1 POP PUSH2 0x13DE PUSH1 0x0 DUP4 ADD DUP5 PUSH2 0x13BA JUMP JUMPDEST SWAP3 SWAP2 POP POP JUMP JUMPDEST PUSH1 0x0 DUP2 SWAP1 POP SWAP2 SWAP1 POP JUMP JUMPDEST PUSH2 0x13F7 DUP2 PUSH2 0x13E4 JUMP JUMPDEST DUP2 EQ PUSH2 0x1402 JUMPI PUSH1 0x0 DUP1 REVERT JUMPDEST POP JUMP JUMPDEST PUSH1 0x0 DUP2 CALLDATALOAD SWAP1 POP PUSH2 0x1414 DUP2 PUSH2 0x13EE JUMP JUMPDEST SWAP3 SWAP2 POP POP JUMP JUMPDEST PUSH1 0x0 PUSH1 0x20 DUP3 DUP5 SUB SLT ISZERO PUSH2 0x1430 JUMPI PUSH2 0x142F PUSH2 0x1324 JUMP JUMPDEST JUMPDEST PUSH1 0x0 PUSH2 0x143E DUP5 DUP3 DUP6 ADD PUSH2 0x1405 JUMP JUMPDEST SWAP2 POP POP SWAP3 SWAP2 POP POP JUMP JUMPDEST PUSH2 0x1450 DUP2 PUSH2 0x13E4 JUMP JUMPDEST DUP3 MSTORE POP POP JUMP JUMPDEST PUSH1 0x0 PUSH1 0x20 DUP3 ADD SWAP1 POP PUSH2 0x146B PUSH1 0x0 DUP4 ADD DUP5 PUSH2 0x1447 JUMP JUMPDEST SWAP3 SWAP2 POP POP JUMP JUMPDEST PUSH1 0x0 DUP2 SWAP1 POP SWAP2 SWAP1 POP JUMP JUMPDEST PUSH2 0x1484 DUP2 PUSH2 0x1471 JUMP JUMPDEST DUP2 EQ PUSH2 0x148F JUMPI PUSH1 0x0 DUP1 REVERT JUMPDEST POP JUMP JUMPDEST PUSH1 0x0 DUP2 CALLDATALOAD SWAP1 POP PUSH2 0x14A1 DUP2 PUSH2 0x147B JUMP JUMPDEST SWAP3 SWAP2 POP POP JUMP JUMPDEST PUSH1 0x0 PUSH1 0x20 DUP3 DUP5 SUB SLT ISZERO PUSH2 0x14BD JUMPI PUSH2 0x14BC PUSH2 0x1324 JUMP JUMPDEST JUMPDEST PUSH1 0x0 PUSH2 0x14CB DUP5 DUP3 DUP6 ADD PUSH2 0x1492 JUMP JUMPDEST SWAP2 POP POP SWAP3 SWAP2 POP POP JUMP JUMPDEST PUSH1 0x0 PUSH20 0xFFFFFFFFFFFFFFFFFFFFFFFFFFFFFFFFFFFFFFFF DUP3 AND SWAP1 POP SWAP2 SWAP1 POP JUMP JUMPDEST PUSH1 0x0 PUSH2 0x14FF DUP3 PUSH2 0x14D4 JUMP JUMPDEST SWAP1 POP SWAP2 SWAP1 POP JUMP JUMPDEST PUSH2 0x150F DUP2 PUSH2 0x14F4 JUMP JUMPDEST DUP2 EQ PUSH2 0x151A JUMPI PUSH1 0x0 DUP1 REVERT JUMPDEST POP JUMP JUMPDEST PUSH1 0x0 DUP2 CALLDATALOAD SWAP1 POP PUSH2 0x152C DUP2 PUSH2 0x1506 JUMP JUMPDEST SWAP3 SWAP2 POP POP JUMP JUMPDEST PUSH1 0x0 DUP1 PUSH1 0x40 DUP4 DUP6 SUB SLT ISZERO PUSH2 0x1549 JUMPI PUSH2 0x1548 PUSH2 0x1324 JUMP JUMPDEST JUMPDEST PUSH1 0x0 PUSH2 0x1557 DUP6 DUP3 DUP7 ADD PUSH2 0x1405 JUMP JUMPDEST SWAP3 POP POP PUSH1 0x20 PUSH2 0x1568 DUP6 DUP3 DUP7 ADD PUSH2 0x151D JUMP JUMPDEST SWAP2 POP POP SWAP3 POP SWAP3 SWAP1 POP JUMP JUMPDEST PUSH32 0x49434F206973206F766572203A28200000000000000000000000000000000000 PUSH1 0x0 DUP3 ADD MSTORE POP JUMP JUMPDEST PUSH1 0x0 PUSH2 0x15A8 PUSH1 0xF DUP4 PUSH2 0x12A7 JUMP JUMPDEST SWAP2 POP PUSH2 0x15B3 DUP3 PUSH2 0x1572 JUMP JUMPDEST PUSH1 0x20 DUP3 ADD SWAP1 POP SWAP2 SWAP1 POP JUMP JUMPDEST PUSH1 0x0 PUSH1 0x20 DUP3 ADD SWAP1 POP DUP2 DUP2 SUB PUSH1 0x0 DUP4 ADD MSTORE PUSH2 0x15D7 DUP2 PUSH2 0x159B JUMP JUMPDEST SWAP1 POP SWAP2 SWAP1 POP JUMP JUMPDEST PUSH32 0x20706C656173652073656E64206D657469730000000000000000000000000000 PUSH1 0x0 DUP3 ADD MSTORE POP JUMP JUMPDEST PUSH1 0x0 PUSH2 0x1614 PUSH1 0x12 DUP4 PUSH2 0x12A7 JUMP JUMPDEST SWAP2 POP PUSH2 0x161F DUP3 PUSH2 0x15DE JUMP JUMPDEST PUSH1 0x20 DUP3 ADD SWAP1 POP SWAP2 SWAP1 POP JUMP JUMPDEST PUSH1 0x0 PUSH1 0x20 DUP3 ADD SWAP1 POP DUP2 DUP2 SUB PUSH1 0x0 DUP4 ADD MSTORE PUSH2 0x1643 DUP2 PUSH2 0x1607 JUMP JUMPDEST SWAP1 POP SWAP2 SWAP1 POP JUMP JUMPDEST PUSH32 0x4E487B7100000000000000000000000000000000000000000000000000000000 PUSH1 0x0 MSTORE PUSH1 0x11 PUSH1 0x4 MSTORE PUSH1 0x24 PUSH1 0x0 REVERT JUMPDEST PUSH1 0x0 PUSH2 0x1684 DUP3 PUSH2 0x1471 JUMP JUMPDEST SWAP2 POP PUSH2 0x168F DUP4 PUSH2 0x1471 JUMP JUMPDEST SWAP3 POP DUP3 DUP3 ADD SWAP1 POP DUP1 DUP3 GT ISZERO PUSH2 0x16A7 JUMPI PUSH2 0x16A6 PUSH2 0x164A JUMP JUMPDEST JUMPDEST SWAP3 SWAP2 POP POP JUMP JUMPDEST PUSH32 0x657863656564732074686520746F74616C20666F722073616C65000000000000 PUSH1 0x0 DUP3 ADD MSTORE POP JUMP JUMPDEST PUSH1 0x0 PUSH2 0x16E3 PUSH1 0x1A DUP4 PUSH2 0x12A7 JUMP JUMPDEST SWAP2 POP PUSH2 0x16EE DUP3 PUSH2 0x16AD JUMP JUMPDEST PUSH1 0x20 DUP3 ADD SWAP1 POP SWAP2 SWAP1 POP JUMP JUMPDEST PUSH1 0x0 PUSH1 0x20 DUP3 ADD SWAP1 POP DUP2 DUP2 SUB PUSH1 0x0 DUP4 ADD MSTORE PUSH2 0x1712 DUP2 PUSH2 0x16D6 JUMP JUMPDEST SWAP1 POP SWAP2 SWAP1 POP JUMP JUMPDEST PUSH2 0x1722 DUP2 PUSH2 0x14F4 JUMP JUMPDEST DUP3 MSTORE POP POP JUMP JUMPDEST PUSH2 0x1731 DUP2 PUSH2 0x1471 JUMP JUMPDEST DUP3 MSTORE POP POP JUMP JUMPDEST PUSH1 0x0 PUSH1 0x40 DUP3 ADD SWAP1 POP PUSH2 0x174C PUSH1 0x0 DUP4 ADD DUP6 PUSH2 0x1719 JUMP JUMPDEST PUSH2 0x1759 PUSH1 0x20 DUP4 ADD DUP5 PUSH2 0x1728 JUMP JUMPDEST SWAP4 SWAP3 POP POP POP JUMP JUMPDEST PUSH2 0x1769 DUP2 PUSH2 0x13AE JUMP JUMPDEST DUP2 EQ PUSH2 0x1774 JUMPI PUSH1 0x0 DUP1 REVERT JUMPDEST POP JUMP JUMPDEST PUSH1 0x0 DUP2 MLOAD SWAP1 POP PUSH2 0x1786 DUP2 PUSH2 0x1760 JUMP JUMPDEST SWAP3 SWAP2 POP POP JUMP JUMPDEST PUSH1 0x0 PUSH1 0x20 DUP3 DUP5 SUB SLT ISZERO PUSH2 0x17A2 JUMPI PUSH2 0x17A1 PUSH2 0x1324 JUMP JUMPDEST JUMPDEST PUSH1 0x0 PUSH2 0x17B0 DUP5 DUP3 DUP6 ADD PUSH2 0x1777 JUMP JUMPDEST SWAP2 POP POP SWAP3 SWAP2 POP POP JUMP JUMPDEST PUSH1 0x0 PUSH1 0x20 DUP3 ADD SWAP1 POP PUSH2 0x17CE PUSH1 0x0 DUP4 ADD DUP5 PUSH2 0x1728 JUMP JUMPDEST SWAP3 SWAP2 POP POP JUMP JUMPDEST PUSH1 0x0 PUSH2 0x17DF DUP3 PUSH2 0x1471 JUMP JUMPDEST SWAP2 POP PUSH2 0x17EA DUP4 PUSH2 0x1471 JUMP JUMPDEST SWAP3 POP DUP3 DUP3 MUL PUSH2 0x17F8 DUP2 PUSH2 0x1471 JUMP JUMPDEST SWAP2 POP DUP3 DUP3 DIV DUP5 EQ DUP4 ISZERO OR PUSH2 0x180F JUMPI PUSH2 0x180E PUSH2 0x164A JUMP JUMPDEST JUMPDEST POP SWAP3 SWAP2 POP POP JUMP JUMPDEST PUSH32 0x416363657373436F6E74726F6C3A2063616E206F6E6C792072656E6F756E6365 PUSH1 0x0 DUP3 ADD MSTORE PUSH32 0x20726F6C657320666F722073656C660000000000000000000000000000000000 PUSH1 0x20 DUP3 ADD MSTORE POP JUMP JUMPDEST PUSH1 0x0 PUSH2 0x1872 PUSH1 0x2F DUP4 PUSH2 0x12A7 JUMP JUMPDEST SWAP2 POP PUSH2 0x187D DUP3 PUSH2 0x1816 JUMP JUMPDEST PUSH1 0x40 DUP3 ADD SWAP1 POP SWAP2 SWAP1 POP JUMP JUMPDEST PUSH1 0x0 PUSH1 0x20 DUP3 ADD SWAP1 POP DUP2 DUP2 SUB PUSH1 0x0 DUP4 ADD MSTORE PUSH2 0x18A1 DUP2 PUSH2 0x1865 JUMP JUMPDEST SWAP1 POP SWAP2 SWAP1 POP JUMP JUMPDEST PUSH32 0x74686520737570706C7920697320616C7265616479206275726E656400000000 PUSH1 0x0 DUP3 ADD MSTORE POP JUMP JUMPDEST PUSH1 0x0 PUSH2 0x18DE PUSH1 0x1C DUP4 PUSH2 0x12A7 JUMP JUMPDEST SWAP2 POP PUSH2 0x18E9 DUP3 PUSH2 0x18A8 JUMP JUMPDEST PUSH1 0x20 DUP3 ADD SWAP1 POP SWAP2 SWAP1 POP JUMP JUMPDEST PUSH1 0x0 PUSH1 0x20 DUP3 ADD SWAP1 POP DUP2 DUP2 SUB PUSH1 0x0 DUP4 ADD MSTORE PUSH2 0x190D DUP2 PUSH2 0x18D1 JUMP JUMPDEST SWAP1 POP SWAP2 SWAP1 POP JUMP JUMPDEST PUSH1 0x0 PUSH2 0x191F DUP3 PUSH2 0x1471 JUMP JUMPDEST SWAP2 POP PUSH2 0x192A DUP4 PUSH2 0x1471 JUMP JUMPDEST SWAP3 POP DUP3 DUP3 SUB SWAP1 POP DUP2 DUP2 GT ISZERO PUSH2 0x1942 JUMPI PUSH2 0x1941 PUSH2 0x164A JUMP JUMPDEST JUMPDEST SWAP3 SWAP2 POP POP JUMP JUMPDEST PUSH1 0x0 DUP2 SWAP1 POP SWAP3 SWAP2 POP POP JUMP JUMPDEST PUSH32 0x416363657373436F6E74726F6C3A206163636F756E7420000000000000000000 PUSH1 0x0 DUP3 ADD MSTORE POP JUMP JUMPDEST PUSH1 0x0 PUSH2 0x1989 PUSH1 0x17 DUP4 PUSH2 0x1948 JUMP JUMPDEST SWAP2 POP PUSH2 0x1994 DUP3 PUSH2 0x1953 JUMP JUMPDEST PUSH1 0x17 DUP3 ADD SWAP1 POP SWAP2 SWAP1 POP JUMP JUMPDEST PUSH1 0x0 DUP2 MLOAD SWAP1 POP SWAP2 SWAP1 POP JUMP JUMPDEST PUSH1 0x0 JUMPDEST DUP4 DUP2 LT ISZERO PUSH2 0x19C8 JUMPI DUP1 DUP3 ADD MLOAD DUP2 DUP5 ADD MSTORE PUSH1 0x20 DUP2 ADD SWAP1 POP PUSH2 0x19AD JUMP JUMPDEST PUSH1 0x0 DUP5 DUP5 ADD MSTORE POP POP POP POP JUMP JUMPDEST PUSH1 0x0 PUSH2 0x19DF DUP3 PUSH2 0x199F JUMP JUMPDEST PUSH2 0x19E9 DUP2 DUP6 PUSH2 0x1948 JUMP JUMPDEST SWAP4 POP PUSH2 0x19F9 DUP2 DUP6 PUSH1 0x20 DUP7 ADD PUSH2 0x19AA JUMP JUMPDEST DUP1 DUP5 ADD SWAP2 POP POP SWAP3 SWAP2 POP POP JUMP JUMPDEST PUSH32 0x206973206D697373696E6720726F6C6520000000000000000000000000000000 PUSH1 0x0 DUP3 ADD MSTORE POP JUMP JUMPDEST PUSH1 0x0 PUSH2 0x1A3B PUSH1 0x11 DUP4 PUSH2 0x1948 JUMP JUMPDEST SWAP2 POP PUSH2 0x1A46 DUP3 PUSH2 0x1A05 JUMP JUMPDEST PUSH1 0x11 DUP3 ADD SWAP1 POP SWAP2 SWAP1 POP JUMP JUMPDEST PUSH1 0x0 PUSH2 0x1A5C DUP3 PUSH2 0x197C JUMP JUMPDEST SWAP2 POP PUSH2 0x1A68 DUP3 DUP6 PUSH2 0x19D4 JUMP JUMPDEST SWAP2 POP PUSH2 0x1A73 DUP3 PUSH2 0x1A2E JUMP JUMPDEST SWAP2 POP PUSH2 0x1A7F DUP3 DUP5 PUSH2 0x19D4 JUMP JUMPDEST SWAP2 POP DUP2 SWAP1 POP SWAP4 SWAP3 POP POP POP JUMP JUMPDEST PUSH1 0x0 PUSH1 0x1F NOT PUSH1 0x1F DUP4 ADD AND SWAP1 POP SWAP2 SWAP1 POP JUMP JUMPDEST PUSH1 0x0 PUSH2 0x1AA7 DUP3 PUSH2 0x199F JUMP JUMPDEST PUSH2 0x1AB1 DUP2 DUP6 PUSH2 0x12A7 JUMP JUMPDEST SWAP4 POP PUSH2 0x1AC1 DUP2 DUP6 PUSH1 0x20 DUP7 ADD PUSH2 0x19AA JUMP JUMPDEST PUSH2 0x1ACA DUP2 PUSH2 0x1A8B JUMP JUMPDEST DUP5 ADD SWAP2 POP POP SWAP3 SWAP2 POP POP JUMP JUMPDEST PUSH1 0x0 PUSH1 0x20 DUP3 ADD SWAP1 POP DUP2 DUP2 SUB PUSH1 0x0 DUP4 ADD MSTORE PUSH2 0x1AEF DUP2 DUP5 PUSH2 0x1A9C JUMP JUMPDEST SWAP1 POP SWAP3 SWAP2 POP POP JUMP JUMPDEST PUSH32 0x4E487B7100000000000000000000000000000000000000000000000000000000 PUSH1 0x0 MSTORE PUSH1 0x41 PUSH1 0x4 MSTORE PUSH1 0x24 PUSH1 0x0 REVERT JUMPDEST PUSH32 0x4E487B7100000000000000000000000000000000000000000000000000000000 PUSH1 0x0 MSTORE PUSH1 0x32 PUSH1 0x4 MSTORE PUSH1 0x24 PUSH1 0x0 REVERT JUMPDEST PUSH1 0x0 PUSH2 0x1B60 DUP3 PUSH2 0x1471 JUMP JUMPDEST SWAP2 POP PUSH1 0x0 DUP3 SUB PUSH2 0x1B73 JUMPI PUSH2 0x1B72 PUSH2 0x164A JUMP JUMPDEST JUMPDEST PUSH1 0x1 DUP3 SUB SWAP1 POP SWAP2 SWAP1 POP JUMP JUMPDEST PUSH32 0x537472696E67733A20686578206C656E67746820696E73756666696369656E74 PUSH1 0x0 DUP3 ADD MSTORE POP JUMP JUMPDEST PUSH1 0x0 PUSH2 0x1BB4 PUSH1 0x20 DUP4 PUSH2 0x12A7 JUMP JUMPDEST SWAP2 POP PUSH2 0x1BBF DUP3 PUSH2 0x1B7E JUMP JUMPDEST PUSH1 0x20 DUP3 ADD SWAP1 POP SWAP2 SWAP1 POP JUMP JUMPDEST PUSH1 0x0 PUSH1 0x20 DUP3 ADD SWAP1 POP DUP2 DUP2 SUB PUSH1 0x0 DUP4 ADD MSTORE PUSH2 0x1BE3 DUP2 PUSH2 0x1BA7 JUMP JUMPDEST SWAP1 POP SWAP2 SWAP1 POP JUMP JUMPDEST PUSH32 0x4E487B7100000000000000000000000000000000000000000000000000000000 PUSH1 0x0 MSTORE PUSH1 0x12 PUSH1 0x4 MSTORE PUSH1 0x24 PUSH1 0x0 REVERT JUMPDEST PUSH1 0x0 PUSH2 0x1C24 DUP3 PUSH2 0x1471 JUMP JUMPDEST SWAP2 POP PUSH2 0x1C2F DUP4 PUSH2 0x1471 JUMP JUMPDEST SWAP3 POP DUP3 PUSH2 0x1C3F JUMPI PUSH2 0x1C3E PUSH2 0x1BEA JUMP JUMPDEST JUMPDEST DUP3 DUP3 DIV SWAP1 POP SWAP3 SWAP2 POP POP JUMP INVALID LOG2 PUSH5 0x6970667358 0x22 SLT KECCAK256 DUP2 0x4A DUP11 SWAP9 0xEE REVERT 0x24 0xB4 0xB8 DUP14 0xA9 LOG1 0xE1 RETURNDATASIZE 0xF ADDRESS 0xF PUSH28 0x6D1D6C4390631A481F9D87B6808A64736F6C63430008110033000000 "
				},
				"gasEstimates": {
					"creation": {
						"codeDepositCost": "1459200",
						"executionCost": "infinite",
						"totalCost": "infinite"
					},
					"external": {
						"BURNER_ROLE()": "397",
						"DEFAULT_ADMIN_ROLE()": "357",
						"EXTEND_ICO_ROLE()": "395",
						"INVESTOR_ROLE()": "374",
						"burned()": "2502",
						"buy()": "infinite",
						"endICO()": "infinite",
						"getRoleAdmin(bytes32)": "infinite",
						"grantRole(bytes32,address)": "infinite",
						"hasRole(bytes32,address)": "3207",
						"renounceRole(bytes32,address)": "infinite",
						"revokeRole(bytes32,address)": "infinite",
						"supportsInterface(bytes4)": "751",
						"withdraw(uint256)": "infinite"
					},
					"internal": {
						"addLiquidity()": "infinite",
						"conversion(uint256)": "infinite",
						"createPool(address)": "infinite",
						"pairFor(address,address,address)": "infinite",
						"percentFromICO(uint256)": "infinite",
						"soldPercent()": "infinite",
						"sortTokens(address,address)": "infinite"
					}
				},
				"methodIdentifiers": {
					"BURNER_ROLE()": "282c51f3",
					"DEFAULT_ADMIN_ROLE()": "a217fddf",
					"EXTEND_ICO_ROLE()": "b1ac51f8",
					"INVESTOR_ROLE()": "76082a5e",
					"burned()": "73f42561",
					"buy()": "a6f2ae3a",
					"endICO()": "4f248409",
					"getRoleAdmin(bytes32)": "248a9ca3",
					"grantRole(bytes32,address)": "2f2ff15d",
					"hasRole(bytes32,address)": "91d14854",
					"renounceRole(bytes32,address)": "36568abe",
					"revokeRole(bytes32,address)": "d547741f",
					"supportsInterface(bytes4)": "01ffc9a7",
					"withdraw(uint256)": "2e1a7d4d"
				}
			},
			"storageLayout": {
				"storage": [
					{
						"astId": 102,
						"contract": "contracts/ICO.sol:ICO",
						"label": "_roles",
						"offset": 0,
						"slot": "0",
						"type": "t_mapping(t_bytes32,t_struct(RoleData)97_storage)"
					},
					{
						"astId": 1904,
						"contract": "contracts/ICO.sol:ICO",
						"label": "owner",
						"offset": 0,
						"slot": "1",
						"type": "t_address_payable"
					},
					{
						"astId": 1910,
						"contract": "contracts/ICO.sol:ICO",
						"label": "minters_",
						"offset": 0,
						"slot": "2",
						"type": "t_array(t_address)dyn_storage"
					},
					{
						"astId": 1912,
						"contract": "contracts/ICO.sol:ICO",
						"label": "maxSupply_",
						"offset": 0,
						"slot": "3",
						"type": "t_uint256"
					},
					{
						"astId": 1915,
						"contract": "contracts/ICO.sol:ICO",
						"label": "timeLock",
						"offset": 0,
						"slot": "4",
						"type": "t_uint256"
					},
					{
						"astId": 1918,
						"contract": "contracts/ICO.sol:ICO",
						"label": "eftt",
						"offset": 0,
						"slot": "5",
						"type": "t_contract(IEFTT)2574"
					},
					{
						"astId": 1925,
						"contract": "contracts/ICO.sol:ICO",
						"label": "maxICO",
						"offset": 0,
						"slot": "6",
						"type": "t_uint256"
					},
					{
						"astId": 1927,
						"contract": "contracts/ICO.sol:ICO",
						"label": "SoldInMetis",
						"offset": 0,
						"slot": "7",
						"type": "t_uint256"
					},
					{
						"astId": 1929,
						"contract": "contracts/ICO.sol:ICO",
						"label": "SoldEFTT",
						"offset": 0,
						"slot": "8",
						"type": "t_uint256"
					},
					{
						"astId": 1932,
						"contract": "contracts/ICO.sol:ICO",
						"label": "ratioMetis",
						"offset": 0,
						"slot": "9",
						"type": "t_uint256"
					},
					{
						"astId": 1936,
						"contract": "contracts/ICO.sol:ICO",
						"label": "timeLocks",
						"offset": 0,
						"slot": "10",
						"type": "t_mapping(t_uint256,t_uint256)"
					},
					{
						"astId": 1939,
						"contract": "contracts/ICO.sol:ICO",
						"label": "BURNED",
						"offset": 0,
						"slot": "11",
						"type": "t_bool"
					},
					{
						"astId": 1944,
						"contract": "contracts/ICO.sol:ICO",
						"label": "locked",
						"offset": 1,
						"slot": "11",
						"type": "t_bool"
					},
					{
						"astId": 1947,
						"contract": "contracts/ICO.sol:ICO",
						"label": "month",
						"offset": 0,
						"slot": "12",
						"type": "t_uint256"
					},
					{
						"astId": 1950,
						"contract": "contracts/ICO.sol:ICO",
						"label": "week",
						"offset": 0,
						"slot": "13",
						"type": "t_uint256"
					},
					{
						"astId": 1954,
						"contract": "contracts/ICO.sol:ICO",
						"label": "ICOtimeLock",
						"offset": 0,
						"slot": "14",
						"type": "t_uint256"
					}
				],
				"types": {
					"t_address": {
						"encoding": "inplace",
						"label": "address",
						"numberOfBytes": "20"
					},
					"t_address_payable": {
						"encoding": "inplace",
						"label": "address payable",
						"numberOfBytes": "20"
					},
					"t_array(t_address)dyn_storage": {
						"base": "t_address",
						"encoding": "dynamic_array",
						"label": "address[]",
						"numberOfBytes": "32"
					},
					"t_bool": {
						"encoding": "inplace",
						"label": "bool",
						"numberOfBytes": "1"
					},
					"t_bytes32": {
						"encoding": "inplace",
						"label": "bytes32",
						"numberOfBytes": "32"
					},
					"t_contract(IEFTT)2574": {
						"encoding": "inplace",
						"label": "contract IEFTT",
						"numberOfBytes": "20"
					},
					"t_mapping(t_address,t_bool)": {
						"encoding": "mapping",
						"key": "t_address",
						"label": "mapping(address => bool)",
						"numberOfBytes": "32",
						"value": "t_bool"
					},
					"t_mapping(t_bytes32,t_struct(RoleData)97_storage)": {
						"encoding": "mapping",
						"key": "t_bytes32",
						"label": "mapping(bytes32 => struct AccessControl.RoleData)",
						"numberOfBytes": "32",
						"value": "t_struct(RoleData)97_storage"
					},
					"t_mapping(t_uint256,t_uint256)": {
						"encoding": "mapping",
						"key": "t_uint256",
						"label": "mapping(uint256 => uint256)",
						"numberOfBytes": "32",
						"value": "t_uint256"
					},
					"t_struct(RoleData)97_storage": {
						"encoding": "inplace",
						"label": "struct AccessControl.RoleData",
						"members": [
							{
								"astId": 94,
								"contract": "contracts/ICO.sol:ICO",
								"label": "members",
								"offset": 0,
								"slot": "0",
								"type": "t_mapping(t_address,t_bool)"
							},
							{
								"astId": 96,
								"contract": "contracts/ICO.sol:ICO",
								"label": "adminRole",
								"offset": 0,
								"slot": "1",
								"type": "t_bytes32"
							}
						],
						"numberOfBytes": "64"
					},
					"t_uint256": {
						"encoding": "inplace",
						"label": "uint256",
						"numberOfBytes": "32"
					}
				}
			},
			"userdoc": {
				"kind": "user",
				"methods": {},
				"version": 1
			}
		}
	}
}