{
	"contracts/ICO.sol": {
		"ICO": {
			"abi": [
				{
					"inputs": [
						{
							"internalType": "address",
							"name": "_eftt",
							"type": "address"
						},
						{
							"internalType": "address",
							"name": "_dev",
							"type": "address"
						}
					],
					"stateMutability": "payable",
					"type": "constructor"
				},
				{
					"anonymous": false,
					"inputs": [
						{
							"indexed": false,
							"internalType": "string",
							"name": "func",
							"type": "string"
						}
					],
					"name": "Log",
					"type": "event"
				},
				{
					"anonymous": false,
					"inputs": [
						{
							"indexed": true,
							"internalType": "bytes32",
							"name": "role",
							"type": "bytes32"
						},
						{
							"indexed": true,
							"internalType": "bytes32",
							"name": "previousAdminRole",
							"type": "bytes32"
						},
						{
							"indexed": true,
							"internalType": "bytes32",
							"name": "newAdminRole",
							"type": "bytes32"
						}
					],
					"name": "RoleAdminChanged",
					"type": "event"
				},
				{
					"anonymous": false,
					"inputs": [
						{
							"indexed": true,
							"internalType": "bytes32",
							"name": "role",
							"type": "bytes32"
						},
						{
							"indexed": true,
							"internalType": "address",
							"name": "account",
							"type": "address"
						},
						{
							"indexed": true,
							"internalType": "address",
							"name": "sender",
							"type": "address"
						}
					],
					"name": "RoleGranted",
					"type": "event"
				},
				{
					"anonymous": false,
					"inputs": [
						{
							"indexed": true,
							"internalType": "bytes32",
							"name": "role",
							"type": "bytes32"
						},
						{
							"indexed": true,
							"internalType": "address",
							"name": "account",
							"type": "address"
						},
						{
							"indexed": true,
							"internalType": "address",
							"name": "sender",
							"type": "address"
						}
					],
					"name": "RoleRevoked",
					"type": "event"
				},
				{
					"anonymous": false,
					"inputs": [
						{
							"indexed": false,
							"internalType": "uint256",
							"name": "",
							"type": "uint256"
						}
					],
					"name": "Sold",
					"type": "event"
				},
				{
					"inputs": [],
					"name": "BURNER_ROLE",
					"outputs": [
						{
							"internalType": "bytes32",
							"name": "",
							"type": "bytes32"
						}
					],
					"stateMutability": "view",
					"type": "function"
				},
				{
					"inputs": [],
					"name": "DEFAULT_ADMIN_ROLE",
					"outputs": [
						{
							"internalType": "bytes32",
							"name": "",
							"type": "bytes32"
						}
					],
					"stateMutability": "view",
					"type": "function"
				},
				{
					"inputs": [],
					"name": "INVESTOR_ROLE",
					"outputs": [
						{
							"internalType": "bytes32",
							"name": "",
							"type": "bytes32"
						}
					],
					"stateMutability": "view",
					"type": "function"
				},
				{
					"inputs": [],
					"name": "buy",
					"outputs": [
						{
							"internalType": "bool",
							"name": "",
							"type": "bool"
						}
					],
					"stateMutability": "payable",
					"type": "function"
				},
				{
					"inputs": [],
					"name": "endICO",
					"outputs": [],
					"stateMutability": "nonpayable",
					"type": "function"
				},
				{
					"inputs": [
						{
							"internalType": "bytes32",
							"name": "role",
							"type": "bytes32"
						}
					],
					"name": "getRoleAdmin",
					"outputs": [
						{
							"internalType": "bytes32",
							"name": "",
							"type": "bytes32"
						}
					],
					"stateMutability": "view",
					"type": "function"
				},
				{
					"inputs": [
						{
							"internalType": "bytes32",
							"name": "role",
							"type": "bytes32"
						},
						{
							"internalType": "address",
							"name": "account",
							"type": "address"
						}
					],
					"name": "grantRole",
					"outputs": [],
					"stateMutability": "nonpayable",
					"type": "function"
				},
				{
					"inputs": [
						{
							"internalType": "bytes32",
							"name": "role",
							"type": "bytes32"
						},
						{
							"internalType": "address",
							"name": "account",
							"type": "address"
						}
					],
					"name": "hasRole",
					"outputs": [
						{
							"internalType": "bool",
							"name": "",
							"type": "bool"
						}
					],
					"stateMutability": "view",
					"type": "function"
				},
				{
					"inputs": [
						{
							"internalType": "bytes32",
							"name": "role",
							"type": "bytes32"
						},
						{
							"internalType": "address",
							"name": "account",
							"type": "address"
						}
					],
					"name": "renounceRole",
					"outputs": [],
					"stateMutability": "nonpayable",
					"type": "function"
				},
				{
					"inputs": [
						{
							"internalType": "bytes32",
							"name": "role",
							"type": "bytes32"
						},
						{
							"internalType": "address",
							"name": "account",
							"type": "address"
						}
					],
					"name": "revokeRole",
					"outputs": [],
					"stateMutability": "nonpayable",
					"type": "function"
				},
				{
					"inputs": [
						{
							"internalType": "bytes4",
							"name": "interfaceId",
							"type": "bytes4"
						}
					],
					"name": "supportsInterface",
					"outputs": [
						{
							"internalType": "bool",
							"name": "",
							"type": "bool"
						}
					],
					"stateMutability": "view",
					"type": "function"
				},
				{
					"inputs": [
						{
							"internalType": "uint256",
							"name": "_amnt",
							"type": "uint256"
						}
					],
					"name": "withdraw",
					"outputs": [],
					"stateMutability": "nonpayable",
					"type": "function"
				},
				{
					"stateMutability": "payable",
					"type": "receive"
				}
			],
			"devdoc": {
				"kind": "dev",
				"methods": {
					"getRoleAdmin(bytes32)": {
						"details": "Returns the admin role that controls `role`. See {grantRole} and {revokeRole}. To change a role's admin, use {_setRoleAdmin}."
					},
					"grantRole(bytes32,address)": {
						"details": "Grants `role` to `account`. If `account` had not been already granted `role`, emits a {RoleGranted} event. Requirements: - the caller must have ``role``'s admin role. May emit a {RoleGranted} event."
					},
					"hasRole(bytes32,address)": {
						"details": "Returns `true` if `account` has been granted `role`."
					},
					"renounceRole(bytes32,address)": {
						"details": "Revokes `role` from the calling account. Roles are often managed via {grantRole} and {revokeRole}: this function's purpose is to provide a mechanism for accounts to lose their privileges if they are compromised (such as when a trusted device is misplaced). If the calling account had been revoked `role`, emits a {RoleRevoked} event. Requirements: - the caller must be `account`. May emit a {RoleRevoked} event."
					},
					"revokeRole(bytes32,address)": {
						"details": "Revokes `role` from `account`. If `account` had been granted `role`, emits a {RoleRevoked} event. Requirements: - the caller must have ``role``'s admin role. May emit a {RoleRevoked} event."
					},
					"supportsInterface(bytes4)": {
						"details": "See {IERC165-supportsInterface}."
					}
				},
				"version": 1
			},
			"evm": {
				"assembly": "    /* \"contracts/ICO.sol\":232:2818  contract ICO is AccessControl{... */\n  mstore(0x40, 0x80)\n    /* \"contracts/ICO.sol\":656:667  18000000000 */\n  0x0430e23400\n    /* \"contracts/ICO.sol\":639:667  uint256 timeLock=18000000000 */\n  0x05\n  sstore\n    /* \"contracts/ICO.sol\":707:721  100000 *10**18 */\n  0x152d02c7e14af6800000\n    /* \"contracts/ICO.sol\":690:721  uint256 maxICO = 100000 *10**18 */\n  0x07\n  sstore\n    /* \"contracts/ICO.sol\":794:795  1 */\n  0x01\n    /* \"contracts/ICO.sol\":774:795  uint256 ratioMetis =1 */\n  0x0a\n  sstore\n    /* \"contracts/ICO.sol\":841:1226  constructor(address _eftt, address _dev) payable {... */\n  mload(0x40)\n  sub(codesize, bytecodeSize)\n  dup1\n  bytecodeSize\n  dup4\n  codecopy\n  dup2\n  dup2\n  add\n  0x40\n  mstore\n  dup2\n  add\n  swap1\n  tag_1\n  swap2\n  swap1\n  tag_2\n  jump\t// in\ntag_1:\n    /* \"contracts/ICO.sol\":954:985  _grantRole(INVESTOR_ROLE, _dev) */\n  tag_5\n    /* \"contracts/ICO.sol\":339:365  keccak256(\"INVESTOR_ROLE\") */\n  0xb165298935924f540e4181c03493a5d686c54a0aaeb3f6216de85b7ffbba7738\n    /* \"contracts/ICO.sol\":980:984  _dev */\n  dup3\n    /* \"contracts/ICO.sol\":954:964  _grantRole */\n  shl(0x20, tag_6)\n    /* \"contracts/ICO.sol\":954:985  _grantRole(INVESTOR_ROLE, _dev) */\n  0x20\n  shr\n  jump\t// in\ntag_5:\n    /* \"contracts/ICO.sol\":995:1024  _grantRole(BURNER_ROLE, _dev) */\n  tag_7\n    /* \"contracts/ICO.sol\":409:433  keccak256(\"BURNER_ROLE\") */\n  0x3c11d16cbaffd01df69ce1c404f6340ee057498f5f00246190ea54220576a848\n    /* \"contracts/ICO.sol\":1019:1023  _dev */\n  dup3\n    /* \"contracts/ICO.sol\":995:1005  _grantRole */\n  shl(0x20, tag_6)\n    /* \"contracts/ICO.sol\":995:1024  _grantRole(BURNER_ROLE, _dev) */\n  0x20\n  shr\n  jump\t// in\ntag_7:\n    /* \"contracts/ICO.sol\":1050:1060  msg.sender */\n  caller\n    /* \"contracts/ICO.sol\":1034:1039  owner */\n  0x01\n  0x00\n    /* \"contracts/ICO.sol\":1034:1061  owner = payable(msg.sender) */\n  0x0100\n  exp\n  dup2\n  sload\n  dup2\n  0xffffffffffffffffffffffffffffffffffffffff\n  mul\n  not\n  and\n  swap1\n  dup4\n  0xffffffffffffffffffffffffffffffffffffffff\n  and\n  mul\n  or\n  swap1\n  sstore\n  pop\n    /* \"contracts/ICO.sol\":1085:1090  _eftt */\n  dup2\n    /* \"contracts/ICO.sol\":1071:1075  eftt */\n  0x06\n  0x00\n    /* \"contracts/ICO.sol\":1071:1091  eftt = IERC20(_eftt) */\n  0x0100\n  exp\n  dup2\n  sload\n  dup2\n  0xffffffffffffffffffffffffffffffffffffffff\n  mul\n  not\n  and\n  swap1\n  dup4\n  0xffffffffffffffffffffffffffffffffffffffff\n  and\n  mul\n  or\n  swap1\n  sstore\n  pop\n    /* \"contracts/ICO.sol\":1122:1126  _dev */\n  dup1\n    /* \"contracts/ICO.sol\":1101:1111  devAddress */\n  0x02\n  0x00\n    /* \"contracts/ICO.sol\":1101:1127  devAddress = payable(_dev) */\n  0x0100\n  exp\n  dup2\n  sload\n  dup2\n  0xffffffffffffffffffffffffffffffffffffffff\n  mul\n  not\n  and\n  swap1\n  dup4\n  0xffffffffffffffffffffffffffffffffffffffff\n  and\n  mul\n  or\n  swap1\n  sstore\n  pop\n    /* \"contracts/ICO.sol\":1152:1155  111 */\n  0x6f\n    /* \"contracts/ICO.sol\":1137:1146  timeLocks */\n  0x0b\n    /* \"contracts/ICO.sol\":1137:1149  timeLocks[0] */\n  0x00\n    /* \"contracts/ICO.sol\":1147:1148  0 */\n  dup1\n    /* \"contracts/ICO.sol\":1137:1149  timeLocks[0] */\n  dup2\n  mstore\n  0x20\n  add\n  swap1\n  dup2\n  mstore\n  0x20\n  add\n  0x00\n  keccak256\n    /* \"contracts/ICO.sol\":1137:1155  timeLocks[0] = 111 */\n  dup2\n  swap1\n  sstore\n  pop\n    /* \"contracts/ICO.sol\":1180:1183  222 */\n  0xde\n    /* \"contracts/ICO.sol\":1165:1174  timeLocks */\n  0x0b\n    /* \"contracts/ICO.sol\":1165:1177  timeLocks[1] */\n  0x00\n    /* \"contracts/ICO.sol\":1175:1176  1 */\n  0x01\n    /* \"contracts/ICO.sol\":1165:1177  timeLocks[1] */\n  dup2\n  mstore\n  0x20\n  add\n  swap1\n  dup2\n  mstore\n  0x20\n  add\n  0x00\n  keccak256\n    /* \"contracts/ICO.sol\":1165:1183  timeLocks[1] = 222 */\n  dup2\n  swap1\n  sstore\n  pop\n    /* \"contracts/ICO.sol\":1208:1211  333 */\n  0x014d\n    /* \"contracts/ICO.sol\":1193:1202  timeLocks */\n  0x0b\n    /* \"contracts/ICO.sol\":1193:1205  timeLocks[2] */\n  0x00\n    /* \"contracts/ICO.sol\":1203:1204  2 */\n  0x02\n    /* \"contracts/ICO.sol\":1193:1205  timeLocks[2] */\n  dup2\n  mstore\n  0x20\n  add\n  swap1\n  dup2\n  mstore\n  0x20\n  add\n  0x00\n  keccak256\n    /* \"contracts/ICO.sol\":1193:1211  timeLocks[2] = 333 */\n  dup2\n  swap1\n  sstore\n  pop\n    /* \"contracts/ICO.sol\":841:1226  constructor(address _eftt, address _dev) payable {... */\n  pop\n  pop\n    /* \"contracts/ICO.sol\":232:2818  contract ICO is AccessControl{... */\n  jump(tag_8)\n    /* \"@openzeppelin/contracts/access/AccessControl.sol\":7461:7694  function _grantRole(bytes32 role, address account) internal virtual {... */\ntag_6:\n    /* \"@openzeppelin/contracts/access/AccessControl.sol\":7544:7566  hasRole(role, account) */\n  tag_10\n    /* \"@openzeppelin/contracts/access/AccessControl.sol\":7552:7556  role */\n  dup3\n    /* \"@openzeppelin/contracts/access/AccessControl.sol\":7558:7565  account */\n  dup3\n    /* \"@openzeppelin/contracts/access/AccessControl.sol\":7544:7551  hasRole */\n  shl(0x20, tag_11)\n    /* \"@openzeppelin/contracts/access/AccessControl.sol\":7544:7566  hasRole(role, account) */\n  0x20\n  shr\n  jump\t// in\ntag_10:\n    /* \"@openzeppelin/contracts/access/AccessControl.sol\":7539:7688  if (!hasRole(role, account)) {... */\n  tag_12\n  jumpi\n    /* \"@openzeppelin/contracts/access/AccessControl.sol\":7614:7618  true */\n  0x01\n    /* \"@openzeppelin/contracts/access/AccessControl.sol\":7582:7588  _roles */\n  0x00\n    /* \"@openzeppelin/contracts/access/AccessControl.sol\":7582:7594  _roles[role] */\n  dup1\n    /* \"@openzeppelin/contracts/access/AccessControl.sol\":7589:7593  role */\n  dup5\n    /* \"@openzeppelin/contracts/access/AccessControl.sol\":7582:7594  _roles[role] */\n  dup2\n  mstore\n  0x20\n  add\n  swap1\n  dup2\n  mstore\n  0x20\n  add\n  0x00\n  keccak256\n    /* \"@openzeppelin/contracts/access/AccessControl.sol\":7582:7602  _roles[role].members */\n  0x00\n  add\n    /* \"@openzeppelin/contracts/access/AccessControl.sol\":7582:7611  _roles[role].members[account] */\n  0x00\n    /* \"@openzeppelin/contracts/access/AccessControl.sol\":7603:7610  account */\n  dup4\n    /* \"@openzeppelin/contracts/access/AccessControl.sol\":7582:7611  _roles[role].members[account] */\n  0xffffffffffffffffffffffffffffffffffffffff\n  and\n  0xffffffffffffffffffffffffffffffffffffffff\n  and\n  dup2\n  mstore\n  0x20\n  add\n  swap1\n  dup2\n  mstore\n  0x20\n  add\n  0x00\n  keccak256\n  0x00\n    /* \"@openzeppelin/contracts/access/AccessControl.sol\":7582:7618  _roles[role].members[account] = true */\n  0x0100\n  exp\n  dup2\n  sload\n  dup2\n  0xff\n  mul\n  not\n  and\n  swap1\n  dup4\n  iszero\n  iszero\n  mul\n  or\n  swap1\n  sstore\n  pop\n    /* \"@openzeppelin/contracts/access/AccessControl.sol\":7664:7676  _msgSender() */\n  tag_13\n    /* \"@openzeppelin/contracts/access/AccessControl.sol\":7664:7674  _msgSender */\n  shl(0x20, tag_14)\n    /* \"@openzeppelin/contracts/access/AccessControl.sol\":7664:7676  _msgSender() */\n  0x20\n  shr\n  jump\t// in\ntag_13:\n    /* \"@openzeppelin/contracts/access/AccessControl.sol\":7637:7677  RoleGranted(role, account, _msgSender()) */\n  0xffffffffffffffffffffffffffffffffffffffff\n  and\n    /* \"@openzeppelin/contracts/access/AccessControl.sol\":7655:7662  account */\n  dup2\n    /* \"@openzeppelin/contracts/access/AccessControl.sol\":7637:7677  RoleGranted(role, account, _msgSender()) */\n  0xffffffffffffffffffffffffffffffffffffffff\n  and\n    /* \"@openzeppelin/contracts/access/AccessControl.sol\":7649:7653  role */\n  dup4\n    /* \"@openzeppelin/contracts/access/AccessControl.sol\":7637:7677  RoleGranted(role, account, _msgSender()) */\n  0x2f8788117e7eff1d82e926ec794901d17c78024a50270940304540a733656f0d\n  mload(0x40)\n  mload(0x40)\n  dup1\n  swap2\n  sub\n  swap1\n  log4\n    /* \"@openzeppelin/contracts/access/AccessControl.sol\":7539:7688  if (!hasRole(role, account)) {... */\ntag_12:\n    /* \"@openzeppelin/contracts/access/AccessControl.sol\":7461:7694  function _grantRole(bytes32 role, address account) internal virtual {... */\n  pop\n  pop\n  jump\t// out\n    /* \"@openzeppelin/contracts/access/AccessControl.sol\":2895:3040  function hasRole(bytes32 role, address account) public view virtual override returns (bool) {... */\ntag_11:\n    /* \"@openzeppelin/contracts/access/AccessControl.sol\":2981:2985  bool */\n  0x00\n    /* \"@openzeppelin/contracts/access/AccessControl.sol\":3004:3010  _roles */\n  dup1\n    /* \"@openzeppelin/contracts/access/AccessControl.sol\":3004:3016  _roles[role] */\n  0x00\n    /* \"@openzeppelin/contracts/access/AccessControl.sol\":3011:3015  role */\n  dup5\n    /* \"@openzeppelin/contracts/access/AccessControl.sol\":3004:3016  _roles[role] */\n  dup2\n  mstore\n  0x20\n  add\n  swap1\n  dup2\n  mstore\n  0x20\n  add\n  0x00\n  keccak256\n    /* \"@openzeppelin/contracts/access/AccessControl.sol\":3004:3024  _roles[role].members */\n  0x00\n  add\n    /* \"@openzeppelin/contracts/access/AccessControl.sol\":3004:3033  _roles[role].members[account] */\n  0x00\n    /* \"@openzeppelin/contracts/access/AccessControl.sol\":3025:3032  account */\n  dup4\n    /* \"@openzeppelin/contracts/access/AccessControl.sol\":3004:3033  _roles[role].members[account] */\n  0xffffffffffffffffffffffffffffffffffffffff\n  and\n  0xffffffffffffffffffffffffffffffffffffffff\n  and\n  dup2\n  mstore\n  0x20\n  add\n  swap1\n  dup2\n  mstore\n  0x20\n  add\n  0x00\n  keccak256\n  0x00\n  swap1\n  sload\n  swap1\n  0x0100\n  exp\n  swap1\n  div\n  0xff\n  and\n    /* \"@openzeppelin/contracts/access/AccessControl.sol\":2997:3033  return _roles[role].members[account] */\n  swap1\n  pop\n    /* \"@openzeppelin/contracts/access/AccessControl.sol\":2895:3040  function hasRole(bytes32 role, address account) public view virtual override returns (bool) {... */\n  swap3\n  swap2\n  pop\n  pop\n  jump\t// out\n    /* \"@openzeppelin/contracts/utils/Context.sol\":640:736  function _msgSender() internal view virtual returns (address) {... */\ntag_14:\n    /* \"@openzeppelin/contracts/utils/Context.sol\":693:700  address */\n  0x00\n    /* \"@openzeppelin/contracts/utils/Context.sol\":719:729  msg.sender */\n  caller\n    /* \"@openzeppelin/contracts/utils/Context.sol\":712:729  return msg.sender */\n  swap1\n  pop\n    /* \"@openzeppelin/contracts/utils/Context.sol\":640:736  function _msgSender() internal view virtual returns (address) {... */\n  swap1\n  jump\t// out\n    /* \"#utility.yul\":88:205   */\ntag_18:\n    /* \"#utility.yul\":197:198   */\n  0x00\n    /* \"#utility.yul\":194:195   */\n  dup1\n    /* \"#utility.yul\":187:199   */\n  revert\n    /* \"#utility.yul\":334:460   */\ntag_20:\n    /* \"#utility.yul\":371:378   */\n  0x00\n    /* \"#utility.yul\":411:453   */\n  0xffffffffffffffffffffffffffffffffffffffff\n    /* \"#utility.yul\":404:409   */\n  dup3\n    /* \"#utility.yul\":400:454   */\n  and\n    /* \"#utility.yul\":389:454   */\n  swap1\n  pop\n    /* \"#utility.yul\":334:460   */\n  swap2\n  swap1\n  pop\n  jump\t// out\n    /* \"#utility.yul\":466:562   */\ntag_21:\n    /* \"#utility.yul\":503:510   */\n  0x00\n    /* \"#utility.yul\":532:556   */\n  tag_30\n    /* \"#utility.yul\":550:555   */\n  dup3\n    /* \"#utility.yul\":532:556   */\n  tag_20\n  jump\t// in\ntag_30:\n    /* \"#utility.yul\":521:556   */\n  swap1\n  pop\n    /* \"#utility.yul\":466:562   */\n  swap2\n  swap1\n  pop\n  jump\t// out\n    /* \"#utility.yul\":568:690   */\ntag_22:\n    /* \"#utility.yul\":641:665   */\n  tag_32\n    /* \"#utility.yul\":659:664   */\n  dup2\n    /* \"#utility.yul\":641:665   */\n  tag_21\n  jump\t// in\ntag_32:\n    /* \"#utility.yul\":634:639   */\n  dup2\n    /* \"#utility.yul\":631:666   */\n  eq\n    /* \"#utility.yul\":621:684   */\n  tag_33\n  jumpi\n    /* \"#utility.yul\":680:681   */\n  0x00\n    /* \"#utility.yul\":677:678   */\n  dup1\n    /* \"#utility.yul\":670:682   */\n  revert\n    /* \"#utility.yul\":621:684   */\ntag_33:\n    /* \"#utility.yul\":568:690   */\n  pop\n  jump\t// out\n    /* \"#utility.yul\":696:839   */\ntag_23:\n    /* \"#utility.yul\":753:758   */\n  0x00\n    /* \"#utility.yul\":784:790   */\n  dup2\n    /* \"#utility.yul\":778:791   */\n  mload\n    /* \"#utility.yul\":769:791   */\n  swap1\n  pop\n    /* \"#utility.yul\":800:833   */\n  tag_35\n    /* \"#utility.yul\":827:832   */\n  dup2\n    /* \"#utility.yul\":800:833   */\n  tag_22\n  jump\t// in\ntag_35:\n    /* \"#utility.yul\":696:839   */\n  swap3\n  swap2\n  pop\n  pop\n  jump\t// out\n    /* \"#utility.yul\":845:1352   */\ntag_2:\n    /* \"#utility.yul\":924:930   */\n  0x00\n    /* \"#utility.yul\":932:938   */\n  dup1\n    /* \"#utility.yul\":981:983   */\n  0x40\n    /* \"#utility.yul\":969:978   */\n  dup4\n    /* \"#utility.yul\":960:967   */\n  dup6\n    /* \"#utility.yul\":956:979   */\n  sub\n    /* \"#utility.yul\":952:984   */\n  slt\n    /* \"#utility.yul\":949:1068   */\n  iszero\n  tag_37\n  jumpi\n    /* \"#utility.yul\":987:1066   */\n  tag_38\n  tag_18\n  jump\t// in\ntag_38:\n    /* \"#utility.yul\":949:1068   */\ntag_37:\n    /* \"#utility.yul\":1107:1108   */\n  0x00\n    /* \"#utility.yul\":1132:1196   */\n  tag_39\n    /* \"#utility.yul\":1188:1195   */\n  dup6\n    /* \"#utility.yul\":1179:1185   */\n  dup3\n    /* \"#utility.yul\":1168:1177   */\n  dup7\n    /* \"#utility.yul\":1164:1186   */\n  add\n    /* \"#utility.yul\":1132:1196   */\n  tag_23\n  jump\t// in\ntag_39:\n    /* \"#utility.yul\":1122:1196   */\n  swap3\n  pop\n    /* \"#utility.yul\":1078:1206   */\n  pop\n    /* \"#utility.yul\":1245:1247   */\n  0x20\n    /* \"#utility.yul\":1271:1335   */\n  tag_40\n    /* \"#utility.yul\":1327:1334   */\n  dup6\n    /* \"#utility.yul\":1318:1324   */\n  dup3\n    /* \"#utility.yul\":1307:1316   */\n  dup7\n    /* \"#utility.yul\":1303:1325   */\n  add\n    /* \"#utility.yul\":1271:1335   */\n  tag_23\n  jump\t// in\ntag_40:\n    /* \"#utility.yul\":1261:1335   */\n  swap2\n  pop\n    /* \"#utility.yul\":1216:1345   */\n  pop\n    /* \"#utility.yul\":845:1352   */\n  swap3\n  pop\n  swap3\n  swap1\n  pop\n  jump\t// out\n    /* \"contracts/ICO.sol\":232:2818  contract ICO is AccessControl{... */\ntag_8:\n  dataSize(sub_0)\n  dup1\n  dataOffset(sub_0)\n  0x00\n  codecopy\n  0x00\n  return\nstop\n\nsub_0: assembly {\n        /* \"contracts/ICO.sol\":232:2818  contract ICO is AccessControl{... */\n      mstore(0x40, 0x80)\n      jumpi(tag_1, lt(calldatasize, 0x04))\n      shr(0xe0, calldataload(0x00))\n      dup1\n      0x4f248409\n      gt\n      tag_15\n      jumpi\n      dup1\n      0x4f248409\n      eq\n      tag_9\n      jumpi\n      dup1\n      0x76082a5e\n      eq\n      tag_10\n      jumpi\n      dup1\n      0x91d14854\n      eq\n      tag_11\n      jumpi\n      dup1\n      0xa217fddf\n      eq\n      tag_12\n      jumpi\n      dup1\n      0xa6f2ae3a\n      eq\n      tag_13\n      jumpi\n      dup1\n      0xd547741f\n      eq\n      tag_14\n      jumpi\n      jump(tag_2)\n    tag_15:\n      dup1\n      0x01ffc9a7\n      eq\n      tag_3\n      jumpi\n      dup1\n      0x248a9ca3\n      eq\n      tag_4\n      jumpi\n      dup1\n      0x282c51f3\n      eq\n      tag_5\n      jumpi\n      dup1\n      0x2e1a7d4d\n      eq\n      tag_6\n      jumpi\n      dup1\n      0x2f2ff15d\n      eq\n      tag_7\n      jumpi\n      dup1\n      0x36568abe\n      eq\n      tag_8\n      jumpi\n      jump(tag_2)\n    tag_1:\n      jumpi(tag_2, calldatasize)\n        /* \"contracts/ICO.sol\":1591:1610  Log(\"fallback hit\") */\n      0xcf34ef537ac33ee1ac626ca1587a0a7e8e51561e5514f8cb36afa1c5102b3bab\n      mload(0x40)\n      tag_18\n      swap1\n      tag_19\n      jump\t// in\n    tag_18:\n      mload(0x40)\n      dup1\n      swap2\n      sub\n      swap1\n      log1\n        /* \"contracts/ICO.sol\":1620:1625  buy() */\n      tag_20\n        /* \"contracts/ICO.sol\":1620:1623  buy */\n      tag_21\n        /* \"contracts/ICO.sol\":1620:1625  buy() */\n      jump\t// in\n    tag_20:\n      stop\n        /* \"contracts/ICO.sol\":232:2818  contract ICO is AccessControl{... */\n    tag_2:\n      0x00\n      dup1\n      revert\n        /* \"@openzeppelin/contracts/access/AccessControl.sol\":2606:2808  function supportsInterface(bytes4 interfaceId) public view virtual override returns (bool) {... */\n    tag_3:\n      callvalue\n      dup1\n      iszero\n      tag_22\n      jumpi\n      0x00\n      dup1\n      revert\n    tag_22:\n      pop\n      tag_23\n      0x04\n      dup1\n      calldatasize\n      sub\n      dup2\n      add\n      swap1\n      tag_24\n      swap2\n      swap1\n      tag_25\n      jump\t// in\n    tag_24:\n      tag_26\n      jump\t// in\n    tag_23:\n      mload(0x40)\n      tag_27\n      swap2\n      swap1\n      tag_28\n      jump\t// in\n    tag_27:\n      mload(0x40)\n      dup1\n      swap2\n      sub\n      swap1\n      return\n        /* \"@openzeppelin/contracts/access/AccessControl.sol\":4378:4507  function getRoleAdmin(bytes32 role) public view virtual override returns (bytes32) {... */\n    tag_4:\n      callvalue\n      dup1\n      iszero\n      tag_29\n      jumpi\n      0x00\n      dup1\n      revert\n    tag_29:\n      pop\n      tag_30\n      0x04\n      dup1\n      calldatasize\n      sub\n      dup2\n      add\n      swap1\n      tag_31\n      swap2\n      swap1\n      tag_32\n      jump\t// in\n    tag_31:\n      tag_33\n      jump\t// in\n    tag_30:\n      mload(0x40)\n      tag_34\n      swap2\n      swap1\n      tag_35\n      jump\t// in\n    tag_34:\n      mload(0x40)\n      dup1\n      swap2\n      sub\n      swap1\n      return\n        /* \"contracts/ICO.sol\":371:433  bytes32 public constant BURNER_ROLE = keccak256(\"BURNER_ROLE\") */\n    tag_5:\n      callvalue\n      dup1\n      iszero\n      tag_36\n      jumpi\n      0x00\n      dup1\n      revert\n    tag_36:\n      pop\n      tag_37\n      tag_38\n      jump\t// in\n    tag_37:\n      mload(0x40)\n      tag_39\n      swap2\n      swap1\n      tag_35\n      jump\t// in\n    tag_39:\n      mload(0x40)\n      dup1\n      swap2\n      sub\n      swap1\n      return\n        /* \"contracts/ICO.sol\":2086:2518  function withdraw(uint256 _amnt) onlyRole(INVESTOR_ROLE) public {... */\n    tag_6:\n      callvalue\n      dup1\n      iszero\n      tag_40\n      jumpi\n      0x00\n      dup1\n      revert\n    tag_40:\n      pop\n      tag_41\n      0x04\n      dup1\n      calldatasize\n      sub\n      dup2\n      add\n      swap1\n      tag_42\n      swap2\n      swap1\n      tag_43\n      jump\t// in\n    tag_42:\n      tag_44\n      jump\t// in\n    tag_41:\n      stop\n        /* \"@openzeppelin/contracts/access/AccessControl.sol\":4803:4948  function grantRole(bytes32 role, address account) public virtual override onlyRole(getRoleAdmin(role)) {... */\n    tag_7:\n      callvalue\n      dup1\n      iszero\n      tag_45\n      jumpi\n      0x00\n      dup1\n      revert\n    tag_45:\n      pop\n      tag_46\n      0x04\n      dup1\n      calldatasize\n      sub\n      dup2\n      add\n      swap1\n      tag_47\n      swap2\n      swap1\n      tag_48\n      jump\t// in\n    tag_47:\n      tag_49\n      jump\t// in\n    tag_46:\n      stop\n        /* \"@openzeppelin/contracts/access/AccessControl.sol\":5912:6126  function renounceRole(bytes32 role, address account) public virtual override {... */\n    tag_8:\n      callvalue\n      dup1\n      iszero\n      tag_50\n      jumpi\n      0x00\n      dup1\n      revert\n    tag_50:\n      pop\n      tag_51\n      0x04\n      dup1\n      calldatasize\n      sub\n      dup2\n      add\n      swap1\n      tag_52\n      swap2\n      swap1\n      tag_48\n      jump\t// in\n    tag_52:\n      tag_53\n      jump\t// in\n    tag_51:\n      stop\n        /* \"contracts/ICO.sol\":2524:2598  function endICO() public _timeCheck onlyRole(BURNER_ROLE){... */\n    tag_9:\n      callvalue\n      dup1\n      iszero\n      tag_54\n      jumpi\n      0x00\n      dup1\n      revert\n    tag_54:\n      pop\n      tag_55\n      tag_56\n      jump\t// in\n    tag_55:\n      stop\n        /* \"contracts/ICO.sol\":299:365  bytes32 public constant INVESTOR_ROLE = keccak256(\"INVESTOR_ROLE\") */\n    tag_10:\n      callvalue\n      dup1\n      iszero\n      tag_57\n      jumpi\n      0x00\n      dup1\n      revert\n    tag_57:\n      pop\n      tag_58\n      tag_59\n      jump\t// in\n    tag_58:\n      mload(0x40)\n      tag_60\n      swap2\n      swap1\n      tag_35\n      jump\t// in\n    tag_60:\n      mload(0x40)\n      dup1\n      swap2\n      sub\n      swap1\n      return\n        /* \"@openzeppelin/contracts/access/AccessControl.sol\":2895:3040  function hasRole(bytes32 role, address account) public view virtual override returns (bool) {... */\n    tag_11:\n      callvalue\n      dup1\n      iszero\n      tag_61\n      jumpi\n      0x00\n      dup1\n      revert\n    tag_61:\n      pop\n      tag_62\n      0x04\n      dup1\n      calldatasize\n      sub\n      dup2\n      add\n      swap1\n      tag_63\n      swap2\n      swap1\n      tag_48\n      jump\t// in\n    tag_63:\n      tag_64\n      jump\t// in\n    tag_62:\n      mload(0x40)\n      tag_65\n      swap2\n      swap1\n      tag_28\n      jump\t// in\n    tag_65:\n      mload(0x40)\n      dup1\n      swap2\n      sub\n      swap1\n      return\n        /* \"@openzeppelin/contracts/access/AccessControl.sol\":2027:2076  bytes32 public constant DEFAULT_ADMIN_ROLE = 0x00 */\n    tag_12:\n      callvalue\n      dup1\n      iszero\n      tag_66\n      jumpi\n      0x00\n      dup1\n      revert\n    tag_66:\n      pop\n      tag_67\n      tag_68\n      jump\t// in\n    tag_67:\n      mload(0x40)\n      tag_69\n      swap2\n      swap1\n      tag_35\n      jump\t// in\n    tag_69:\n      mload(0x40)\n      dup1\n      swap2\n      sub\n      swap1\n      return\n        /* \"contracts/ICO.sol\":1639:2080  function buy() public payable _timeCheck returns(bool){... */\n    tag_13:\n      tag_70\n      tag_21\n      jump\t// in\n    tag_70:\n      mload(0x40)\n      tag_71\n      swap2\n      swap1\n      tag_28\n      jump\t// in\n    tag_71:\n      mload(0x40)\n      dup1\n      swap2\n      sub\n      swap1\n      return\n        /* \"@openzeppelin/contracts/access/AccessControl.sol\":5228:5375  function revokeRole(bytes32 role, address account) public virtual override onlyRole(getRoleAdmin(role)) {... */\n    tag_14:\n      callvalue\n      dup1\n      iszero\n      tag_72\n      jumpi\n      0x00\n      dup1\n      revert\n    tag_72:\n      pop\n      tag_73\n      0x04\n      dup1\n      calldatasize\n      sub\n      dup2\n      add\n      swap1\n      tag_74\n      swap2\n      swap1\n      tag_48\n      jump\t// in\n    tag_74:\n      tag_75\n      jump\t// in\n    tag_73:\n      stop\n        /* \"contracts/ICO.sol\":1639:2080  function buy() public payable _timeCheck returns(bool){... */\n    tag_21:\n        /* \"contracts/ICO.sol\":1688:1692  bool */\n      0x00\n        /* \"contracts/ICO.sol\":1341:1349  timeLock */\n      sload(0x05)\n        /* \"contracts/ICO.sol\":1323:1338  block.timestamp */\n      timestamp\n        /* \"contracts/ICO.sol\":1323:1349  block.timestamp < timeLock */\n      lt\n        /* \"contracts/ICO.sol\":1315:1368  require(block.timestamp < timeLock,\"ICO is over :( \") */\n      tag_77\n      jumpi\n      mload(0x40)\n      0x08c379a000000000000000000000000000000000000000000000000000000000\n      dup2\n      mstore\n      0x04\n      add\n      tag_78\n      swap1\n      tag_79\n      jump\t// in\n    tag_78:\n      mload(0x40)\n      dup1\n      swap2\n      sub\n      swap1\n      revert\n    tag_77:\n        /* \"contracts/ICO.sol\":1723:1724  0 */\n      0x00\n        /* \"contracts/ICO.sol\":1711:1720  msg.value */\n      callvalue\n        /* \"contracts/ICO.sol\":1711:1724  msg.value > 0 */\n      gt\n        /* \"contracts/ICO.sol\":1703:1755  require(msg.value > 0,\"them/they please send metis\") */\n      tag_81\n      jumpi\n      mload(0x40)\n      0x08c379a000000000000000000000000000000000000000000000000000000000\n      dup2\n      mstore\n      0x04\n      add\n      tag_82\n      swap1\n      tag_83\n      jump\t// in\n    tag_82:\n      mload(0x40)\n      dup1\n      swap2\n      sub\n      swap1\n      revert\n    tag_81:\n        /* \"contracts/ICO.sol\":1765:1782  uint256 buyAmount */\n      0x00\n        /* \"contracts/ICO.sol\":1785:1806  conversion(msg.value) */\n      tag_84\n        /* \"contracts/ICO.sol\":1796:1805  msg.value */\n      callvalue\n        /* \"contracts/ICO.sol\":1785:1795  conversion */\n      tag_85\n        /* \"contracts/ICO.sol\":1785:1806  conversion(msg.value) */\n      jump\t// in\n    tag_84:\n        /* \"contracts/ICO.sol\":1765:1806  uint256 buyAmount = conversion(msg.value) */\n      swap1\n      pop\n        /* \"contracts/ICO.sol\":1847:1853  maxICO */\n      sload(0x07)\n        /* \"contracts/ICO.sol\":1836:1844  SoldEFTT */\n      sload(0x09)\n        /* \"contracts/ICO.sol\":1824:1833  buyAmount */\n      dup3\n        /* \"contracts/ICO.sol\":1824:1844  buyAmount + SoldEFTT */\n      tag_86\n      swap2\n      swap1\n      tag_87\n      jump\t// in\n    tag_86:\n        /* \"contracts/ICO.sol\":1824:1853  buyAmount + SoldEFTT < maxICO */\n      lt\n        /* \"contracts/ICO.sol\":1816:1884  require(buyAmount + SoldEFTT < maxICO, \"exceeds the total for sale\") */\n      tag_88\n      jumpi\n      mload(0x40)\n      0x08c379a000000000000000000000000000000000000000000000000000000000\n      dup2\n      mstore\n      0x04\n      add\n      tag_89\n      swap1\n      tag_90\n      jump\t// in\n    tag_89:\n      mload(0x40)\n      dup1\n      swap2\n      sub\n      swap1\n      revert\n    tag_88:\n        /* \"contracts/ICO.sol\":1894:1898  eftt */\n      0x06\n      0x00\n      swap1\n      sload\n      swap1\n      0x0100\n      exp\n      swap1\n      div\n      0xffffffffffffffffffffffffffffffffffffffff\n      and\n        /* \"contracts/ICO.sol\":1894:1908  eftt.allowance */\n      0xffffffffffffffffffffffffffffffffffffffff\n      and\n      0xdd62ed3e\n        /* \"contracts/ICO.sol\":1918:1922  this */\n      address\n        /* \"contracts/ICO.sol\":1924:1934  msg.sender */\n      caller\n        /* \"contracts/ICO.sol\":1894:1935  eftt.allowance( address(this),msg.sender) */\n      mload(0x40)\n      dup4\n      0xffffffff\n      and\n      0xe0\n      shl\n      dup2\n      mstore\n      0x04\n      add\n      tag_91\n      swap3\n      swap2\n      swap1\n      tag_92\n      jump\t// in\n    tag_91:\n      0x20\n      mload(0x40)\n      dup1\n      dup4\n      sub\n      dup2\n      dup7\n      gas\n      staticcall\n      iszero\n      dup1\n      iszero\n      tag_94\n      jumpi\n      returndatasize\n      0x00\n      dup1\n      returndatacopy\n      revert(0x00, returndatasize)\n    tag_94:\n      pop\n      pop\n      pop\n      pop\n      mload(0x40)\n      returndatasize\n      not(0x1f)\n      0x1f\n      dup3\n      add\n      and\n      dup3\n      add\n      dup1\n      0x40\n      mstore\n      pop\n      dup2\n      add\n      swap1\n      tag_95\n      swap2\n      swap1\n      tag_96\n      jump\t// in\n    tag_95:\n      pop\n        /* \"contracts/ICO.sol\":1945:1949  eftt */\n      0x06\n      0x00\n      swap1\n      sload\n      swap1\n      0x0100\n      exp\n      swap1\n      div\n      0xffffffffffffffffffffffffffffffffffffffff\n      and\n        /* \"contracts/ICO.sol\":1945:1958  eftt.transfer */\n      0xffffffffffffffffffffffffffffffffffffffff\n      and\n      0xa9059cbb\n        /* \"contracts/ICO.sol\":1959:1969  msg.sender */\n      caller\n        /* \"contracts/ICO.sol\":1971:1980  buyAmount */\n      dup4\n        /* \"contracts/ICO.sol\":1945:1981  eftt.transfer(msg.sender, buyAmount) */\n      mload(0x40)\n      dup4\n      0xffffffff\n      and\n      0xe0\n      shl\n      dup2\n      mstore\n      0x04\n      add\n      tag_97\n      swap3\n      swap2\n      swap1\n      tag_98\n      jump\t// in\n    tag_97:\n      0x20\n      mload(0x40)\n      dup1\n      dup4\n      sub\n      dup2\n      0x00\n      dup8\n      gas\n      call\n      iszero\n      dup1\n      iszero\n      tag_100\n      jumpi\n      returndatasize\n      0x00\n      dup1\n      returndatacopy\n      revert(0x00, returndatasize)\n    tag_100:\n      pop\n      pop\n      pop\n      pop\n      mload(0x40)\n      returndatasize\n      not(0x1f)\n      0x1f\n      dup3\n      add\n      and\n      dup3\n      add\n      dup1\n      0x40\n      mstore\n      pop\n      dup2\n      add\n      swap1\n      tag_101\n      swap2\n      swap1\n      tag_102\n      jump\t// in\n    tag_101:\n      pop\n        /* \"contracts/ICO.sol\":2014:2022  SoldEFTT */\n      sload(0x09)\n        /* \"contracts/ICO.sol\":2002:2011  buyAmount */\n      dup2\n        /* \"contracts/ICO.sol\":2002:2022  buyAmount + SoldEFTT */\n      tag_103\n      swap2\n      swap1\n      tag_87\n      jump\t// in\n    tag_103:\n        /* \"contracts/ICO.sol\":1991:1999  SoldEFTT */\n      0x09\n        /* \"contracts/ICO.sol\":1991:2022  SoldEFTT = buyAmount + SoldEFTT */\n      dup2\n      swap1\n      sstore\n      pop\n        /* \"contracts/ICO.sol\":2037:2052  Sold(buyAmount) */\n      0x92f64ca637d023f354075a4be751b169c1a8a9ccb6d33cdd0cb3520543995727\n        /* \"contracts/ICO.sol\":2042:2051  buyAmount */\n      dup2\n        /* \"contracts/ICO.sol\":2037:2052  Sold(buyAmount) */\n      mload(0x40)\n      tag_104\n      swap2\n      swap1\n      tag_105\n      jump\t// in\n    tag_104:\n      mload(0x40)\n      dup1\n      swap2\n      sub\n      swap1\n      log1\n        /* \"contracts/ICO.sol\":2069:2073  true */\n      0x01\n        /* \"contracts/ICO.sol\":2062:2073  return true */\n      swap2\n      pop\n      pop\n        /* \"contracts/ICO.sol\":1639:2080  function buy() public payable _timeCheck returns(bool){... */\n      swap1\n      jump\t// out\n        /* \"@openzeppelin/contracts/access/AccessControl.sol\":2606:2808  function supportsInterface(bytes4 interfaceId) public view virtual override returns (bool) {... */\n    tag_26:\n        /* \"@openzeppelin/contracts/access/AccessControl.sol\":2691:2695  bool */\n      0x00\n        /* \"@openzeppelin/contracts/access/AccessControl.sol\":2729:2761  type(IAccessControl).interfaceId */\n      0x7965db0b00000000000000000000000000000000000000000000000000000000\n        /* \"@openzeppelin/contracts/access/AccessControl.sol\":2714:2761  interfaceId == type(IAccessControl).interfaceId */\n      not(0xffffffffffffffffffffffffffffffffffffffffffffffffffffffff)\n      and\n        /* \"@openzeppelin/contracts/access/AccessControl.sol\":2714:2725  interfaceId */\n      dup3\n        /* \"@openzeppelin/contracts/access/AccessControl.sol\":2714:2761  interfaceId == type(IAccessControl).interfaceId */\n      not(0xffffffffffffffffffffffffffffffffffffffffffffffffffffffff)\n      and\n      eq\n        /* \"@openzeppelin/contracts/access/AccessControl.sol\":2714:2801  interfaceId == type(IAccessControl).interfaceId || super.supportsInterface(interfaceId) */\n      dup1\n      tag_107\n      jumpi\n      pop\n        /* \"@openzeppelin/contracts/access/AccessControl.sol\":2765:2801  super.supportsInterface(interfaceId) */\n      tag_108\n        /* \"@openzeppelin/contracts/access/AccessControl.sol\":2789:2800  interfaceId */\n      dup3\n        /* \"@openzeppelin/contracts/access/AccessControl.sol\":2765:2788  super.supportsInterface */\n      tag_109\n        /* \"@openzeppelin/contracts/access/AccessControl.sol\":2765:2801  super.supportsInterface(interfaceId) */\n      jump\t// in\n    tag_108:\n        /* \"@openzeppelin/contracts/access/AccessControl.sol\":2714:2801  interfaceId == type(IAccessControl).interfaceId || super.supportsInterface(interfaceId) */\n    tag_107:\n        /* \"@openzeppelin/contracts/access/AccessControl.sol\":2707:2801  return interfaceId == type(IAccessControl).interfaceId || super.supportsInterface(interfaceId) */\n      swap1\n      pop\n        /* \"@openzeppelin/contracts/access/AccessControl.sol\":2606:2808  function supportsInterface(bytes4 interfaceId) public view virtual override returns (bool) {... */\n      swap2\n      swap1\n      pop\n      jump\t// out\n        /* \"@openzeppelin/contracts/access/AccessControl.sol\":4378:4507  function getRoleAdmin(bytes32 role) public view virtual override returns (bytes32) {... */\n    tag_33:\n        /* \"@openzeppelin/contracts/access/AccessControl.sol\":4452:4459  bytes32 */\n      0x00\n        /* \"@openzeppelin/contracts/access/AccessControl.sol\":4478:4484  _roles */\n      dup1\n        /* \"@openzeppelin/contracts/access/AccessControl.sol\":4478:4490  _roles[role] */\n      0x00\n        /* \"@openzeppelin/contracts/access/AccessControl.sol\":4485:4489  role */\n      dup4\n        /* \"@openzeppelin/contracts/access/AccessControl.sol\":4478:4490  _roles[role] */\n      dup2\n      mstore\n      0x20\n      add\n      swap1\n      dup2\n      mstore\n      0x20\n      add\n      0x00\n      keccak256\n        /* \"@openzeppelin/contracts/access/AccessControl.sol\":4478:4500  _roles[role].adminRole */\n      0x01\n      add\n      sload\n        /* \"@openzeppelin/contracts/access/AccessControl.sol\":4471:4500  return _roles[role].adminRole */\n      swap1\n      pop\n        /* \"@openzeppelin/contracts/access/AccessControl.sol\":4378:4507  function getRoleAdmin(bytes32 role) public view virtual override returns (bytes32) {... */\n      swap2\n      swap1\n      pop\n      jump\t// out\n        /* \"contracts/ICO.sol\":371:433  bytes32 public constant BURNER_ROLE = keccak256(\"BURNER_ROLE\") */\n    tag_38:\n        /* \"contracts/ICO.sol\":409:433  keccak256(\"BURNER_ROLE\") */\n      0x3c11d16cbaffd01df69ce1c404f6340ee057498f5f00246190ea54220576a848\n        /* \"contracts/ICO.sol\":371:433  bytes32 public constant BURNER_ROLE = keccak256(\"BURNER_ROLE\") */\n      dup2\n      jump\t// out\n        /* \"contracts/ICO.sol\":2086:2518  function withdraw(uint256 _amnt) onlyRole(INVESTOR_ROLE) public {... */\n    tag_44:\n        /* \"contracts/ICO.sol\":339:365  keccak256(\"INVESTOR_ROLE\") */\n      0xb165298935924f540e4181c03493a5d686c54a0aaeb3f6216de85b7ffbba7738\n        /* \"@openzeppelin/contracts/access/AccessControl.sol\":2505:2521  _checkRole(role) */\n      tag_112\n        /* \"@openzeppelin/contracts/access/AccessControl.sol\":2516:2520  role */\n      dup2\n        /* \"@openzeppelin/contracts/access/AccessControl.sol\":2505:2515  _checkRole */\n      tag_113\n        /* \"@openzeppelin/contracts/access/AccessControl.sol\":2505:2521  _checkRole(role) */\n      jump\t// in\n    tag_112:\n        /* \"contracts/ICO.sol\":2178:2193  block.timestamp */\n      timestamp\n        /* \"contracts/ICO.sol\":2164:2173  timeLocks */\n      0x0b\n        /* \"contracts/ICO.sol\":2164:2176  timeLocks[2] */\n      0x00\n        /* \"contracts/ICO.sol\":2174:2175  2 */\n      0x02\n        /* \"contracts/ICO.sol\":2164:2176  timeLocks[2] */\n      dup2\n      mstore\n      0x20\n      add\n      swap1\n      dup2\n      mstore\n      0x20\n      add\n      0x00\n      keccak256\n      sload\n        /* \"contracts/ICO.sol\":2164:2193  timeLocks[2]> block.timestamp */\n      gt\n        /* \"contracts/ICO.sol\":2160:2503  if (timeLocks[2]> block.timestamp){... */\n      iszero\n      tag_115\n      jumpi\n        /* \"contracts/ICO.sol\":2216:2226  msg.sender */\n      caller\n        /* \"contracts/ICO.sol\":2208:2236  payable(msg.sender).transfer */\n      0xffffffffffffffffffffffffffffffffffffffff\n      and\n        /* \"contracts/ICO.sol\":2208:2243  payable(msg.sender).transfer(_amnt) */\n      0x08fc\n        /* \"contracts/ICO.sol\":2237:2242  _amnt */\n      dup4\n        /* \"contracts/ICO.sol\":2208:2243  payable(msg.sender).transfer(_amnt) */\n      swap1\n      dup2\n      iszero\n      mul\n      swap1\n      mload(0x40)\n      0x00\n      mload(0x40)\n      dup1\n      dup4\n      sub\n      dup2\n      dup6\n      dup9\n      dup9\n      call\n      swap4\n      pop\n      pop\n      pop\n      pop\n      iszero\n      dup1\n      iszero\n      tag_117\n      jumpi\n      returndatasize\n      0x00\n      dup1\n      returndatacopy\n      revert(0x00, returndatasize)\n    tag_117:\n      pop\n        /* \"contracts/ICO.sol\":2160:2503  if (timeLocks[2]> block.timestamp){... */\n      jump(tag_118)\n    tag_115:\n        /* \"contracts/ICO.sol\":2278:2293  block.timestamp */\n      timestamp\n        /* \"contracts/ICO.sol\":2264:2273  timeLocks */\n      0x0b\n        /* \"contracts/ICO.sol\":2264:2276  timeLocks[1] */\n      0x00\n        /* \"contracts/ICO.sol\":2274:2275  1 */\n      0x01\n        /* \"contracts/ICO.sol\":2264:2276  timeLocks[1] */\n      dup2\n      mstore\n      0x20\n      add\n      swap1\n      dup2\n      mstore\n      0x20\n      add\n      0x00\n      keccak256\n      sload\n        /* \"contracts/ICO.sol\":2264:2293  timeLocks[1]> block.timestamp */\n      gt\n        /* \"contracts/ICO.sol\":2260:2503  if (timeLocks[1]> block.timestamp){... */\n      iszero\n      tag_119\n      jumpi\n        /* \"contracts/ICO.sol\":2365:2375  msg.sender */\n      caller\n        /* \"contracts/ICO.sol\":2357:2385  payable(msg.sender).transfer */\n      0xffffffffffffffffffffffffffffffffffffffff\n      and\n        /* \"contracts/ICO.sol\":2357:2392  payable(msg.sender).transfer(_amnt) */\n      0x08fc\n        /* \"contracts/ICO.sol\":2386:2391  _amnt */\n      dup4\n        /* \"contracts/ICO.sol\":2357:2392  payable(msg.sender).transfer(_amnt) */\n      swap1\n      dup2\n      iszero\n      mul\n      swap1\n      mload(0x40)\n      0x00\n      mload(0x40)\n      dup1\n      dup4\n      sub\n      dup2\n      dup6\n      dup9\n      dup9\n      call\n      swap4\n      pop\n      pop\n      pop\n      pop\n      iszero\n      dup1\n      iszero\n      tag_121\n      jumpi\n      returndatasize\n      0x00\n      dup1\n      returndatacopy\n      revert(0x00, returndatasize)\n    tag_121:\n      pop\n        /* \"contracts/ICO.sol\":2260:2503  if (timeLocks[1]> block.timestamp){... */\n      jump(tag_122)\n    tag_119:\n        /* \"contracts/ICO.sol\":2427:2442  block.timestamp */\n      timestamp\n        /* \"contracts/ICO.sol\":2413:2422  timeLocks */\n      0x0b\n        /* \"contracts/ICO.sol\":2413:2425  timeLocks[0] */\n      0x00\n        /* \"contracts/ICO.sol\":2423:2424  0 */\n      dup1\n        /* \"contracts/ICO.sol\":2413:2425  timeLocks[0] */\n      dup2\n      mstore\n      0x20\n      add\n      swap1\n      dup2\n      mstore\n      0x20\n      add\n      0x00\n      keccak256\n      sload\n        /* \"contracts/ICO.sol\":2413:2442  timeLocks[0]> block.timestamp */\n      gt\n        /* \"contracts/ICO.sol\":2409:2503  if (timeLocks[0]> block.timestamp){... */\n      iszero\n      tag_123\n      jumpi\n        /* \"contracts/ICO.sol\":2465:2475  msg.sender */\n      caller\n        /* \"contracts/ICO.sol\":2457:2485  payable(msg.sender).transfer */\n      0xffffffffffffffffffffffffffffffffffffffff\n      and\n        /* \"contracts/ICO.sol\":2457:2492  payable(msg.sender).transfer(_amnt) */\n      0x08fc\n        /* \"contracts/ICO.sol\":2486:2491  _amnt */\n      dup4\n        /* \"contracts/ICO.sol\":2457:2492  payable(msg.sender).transfer(_amnt) */\n      swap1\n      dup2\n      iszero\n      mul\n      swap1\n      mload(0x40)\n      0x00\n      mload(0x40)\n      dup1\n      dup4\n      sub\n      dup2\n      dup6\n      dup9\n      dup9\n      call\n      swap4\n      pop\n      pop\n      pop\n      pop\n      iszero\n      dup1\n      iszero\n      tag_125\n      jumpi\n      returndatasize\n      0x00\n      dup1\n      returndatacopy\n      revert(0x00, returndatasize)\n    tag_125:\n      pop\n        /* \"contracts/ICO.sol\":2409:2503  if (timeLocks[0]> block.timestamp){... */\n    tag_123:\n        /* \"contracts/ICO.sol\":2260:2503  if (timeLocks[1]> block.timestamp){... */\n    tag_122:\n        /* \"contracts/ICO.sol\":2160:2503  if (timeLocks[2]> block.timestamp){... */\n    tag_118:\n        /* \"contracts/ICO.sol\":2086:2518  function withdraw(uint256 _amnt) onlyRole(INVESTOR_ROLE) public {... */\n      pop\n      pop\n      jump\t// out\n        /* \"@openzeppelin/contracts/access/AccessControl.sol\":4803:4948  function grantRole(bytes32 role, address account) public virtual override onlyRole(getRoleAdmin(role)) {... */\n    tag_49:\n        /* \"@openzeppelin/contracts/access/AccessControl.sol\":4886:4904  getRoleAdmin(role) */\n      tag_126\n        /* \"@openzeppelin/contracts/access/AccessControl.sol\":4899:4903  role */\n      dup3\n        /* \"@openzeppelin/contracts/access/AccessControl.sol\":4886:4898  getRoleAdmin */\n      tag_33\n        /* \"@openzeppelin/contracts/access/AccessControl.sol\":4886:4904  getRoleAdmin(role) */\n      jump\t// in\n    tag_126:\n        /* \"@openzeppelin/contracts/access/AccessControl.sol\":2505:2521  _checkRole(role) */\n      tag_128\n        /* \"@openzeppelin/contracts/access/AccessControl.sol\":2516:2520  role */\n      dup2\n        /* \"@openzeppelin/contracts/access/AccessControl.sol\":2505:2515  _checkRole */\n      tag_113\n        /* \"@openzeppelin/contracts/access/AccessControl.sol\":2505:2521  _checkRole(role) */\n      jump\t// in\n    tag_128:\n        /* \"@openzeppelin/contracts/access/AccessControl.sol\":4916:4941  _grantRole(role, account) */\n      tag_130\n        /* \"@openzeppelin/contracts/access/AccessControl.sol\":4927:4931  role */\n      dup4\n        /* \"@openzeppelin/contracts/access/AccessControl.sol\":4933:4940  account */\n      dup4\n        /* \"@openzeppelin/contracts/access/AccessControl.sol\":4916:4926  _grantRole */\n      tag_131\n        /* \"@openzeppelin/contracts/access/AccessControl.sol\":4916:4941  _grantRole(role, account) */\n      jump\t// in\n    tag_130:\n        /* \"@openzeppelin/contracts/access/AccessControl.sol\":4803:4948  function grantRole(bytes32 role, address account) public virtual override onlyRole(getRoleAdmin(role)) {... */\n      pop\n      pop\n      pop\n      jump\t// out\n        /* \"@openzeppelin/contracts/access/AccessControl.sol\":5912:6126  function renounceRole(bytes32 role, address account) public virtual override {... */\n    tag_53:\n        /* \"@openzeppelin/contracts/access/AccessControl.sol\":6018:6030  _msgSender() */\n      tag_133\n        /* \"@openzeppelin/contracts/access/AccessControl.sol\":6018:6028  _msgSender */\n      tag_134\n        /* \"@openzeppelin/contracts/access/AccessControl.sol\":6018:6030  _msgSender() */\n      jump\t// in\n    tag_133:\n        /* \"@openzeppelin/contracts/access/AccessControl.sol\":6007:6030  account == _msgSender() */\n      0xffffffffffffffffffffffffffffffffffffffff\n      and\n        /* \"@openzeppelin/contracts/access/AccessControl.sol\":6007:6014  account */\n      dup2\n        /* \"@openzeppelin/contracts/access/AccessControl.sol\":6007:6030  account == _msgSender() */\n      0xffffffffffffffffffffffffffffffffffffffff\n      and\n      eq\n        /* \"@openzeppelin/contracts/access/AccessControl.sol\":5999:6082  require(account == _msgSender(), \"AccessControl: can only renounce roles for self\") */\n      tag_135\n      jumpi\n      mload(0x40)\n      0x08c379a000000000000000000000000000000000000000000000000000000000\n      dup2\n      mstore\n      0x04\n      add\n      tag_136\n      swap1\n      tag_137\n      jump\t// in\n    tag_136:\n      mload(0x40)\n      dup1\n      swap2\n      sub\n      swap1\n      revert\n    tag_135:\n        /* \"@openzeppelin/contracts/access/AccessControl.sol\":6093:6119  _revokeRole(role, account) */\n      tag_138\n        /* \"@openzeppelin/contracts/access/AccessControl.sol\":6105:6109  role */\n      dup3\n        /* \"@openzeppelin/contracts/access/AccessControl.sol\":6111:6118  account */\n      dup3\n        /* \"@openzeppelin/contracts/access/AccessControl.sol\":6093:6104  _revokeRole */\n      tag_139\n        /* \"@openzeppelin/contracts/access/AccessControl.sol\":6093:6119  _revokeRole(role, account) */\n      jump\t// in\n    tag_138:\n        /* \"@openzeppelin/contracts/access/AccessControl.sol\":5912:6126  function renounceRole(bytes32 role, address account) public virtual override {... */\n      pop\n      pop\n      jump\t// out\n        /* \"contracts/ICO.sol\":2524:2598  function endICO() public _timeCheck onlyRole(BURNER_ROLE){... */\n    tag_56:\n        /* \"contracts/ICO.sol\":1341:1349  timeLock */\n      sload(0x05)\n        /* \"contracts/ICO.sol\":1323:1338  block.timestamp */\n      timestamp\n        /* \"contracts/ICO.sol\":1323:1349  block.timestamp < timeLock */\n      lt\n        /* \"contracts/ICO.sol\":1315:1368  require(block.timestamp < timeLock,\"ICO is over :( \") */\n      tag_141\n      jumpi\n      mload(0x40)\n      0x08c379a000000000000000000000000000000000000000000000000000000000\n      dup2\n      mstore\n      0x04\n      add\n      tag_142\n      swap1\n      tag_79\n      jump\t// in\n    tag_142:\n      mload(0x40)\n      dup1\n      swap2\n      sub\n      swap1\n      revert\n    tag_141:\n        /* \"contracts/ICO.sol\":409:433  keccak256(\"BURNER_ROLE\") */\n      0x3c11d16cbaffd01df69ce1c404f6340ee057498f5f00246190ea54220576a848\n        /* \"@openzeppelin/contracts/access/AccessControl.sol\":2505:2521  _checkRole(role) */\n      tag_144\n        /* \"@openzeppelin/contracts/access/AccessControl.sol\":2516:2520  role */\n      dup2\n        /* \"@openzeppelin/contracts/access/AccessControl.sol\":2505:2515  _checkRole */\n      tag_113\n        /* \"@openzeppelin/contracts/access/AccessControl.sol\":2505:2521  _checkRole(role) */\n      jump\t// in\n    tag_144:\n        /* \"contracts/ICO.sol\":1378:1379  _ */\n      pop\n        /* \"contracts/ICO.sol\":2524:2598  function endICO() public _timeCheck onlyRole(BURNER_ROLE){... */\n      jump\t// out\n        /* \"contracts/ICO.sol\":299:365  bytes32 public constant INVESTOR_ROLE = keccak256(\"INVESTOR_ROLE\") */\n    tag_59:\n        /* \"contracts/ICO.sol\":339:365  keccak256(\"INVESTOR_ROLE\") */\n      0xb165298935924f540e4181c03493a5d686c54a0aaeb3f6216de85b7ffbba7738\n        /* \"contracts/ICO.sol\":299:365  bytes32 public constant INVESTOR_ROLE = keccak256(\"INVESTOR_ROLE\") */\n      dup2\n      jump\t// out\n        /* \"@openzeppelin/contracts/access/AccessControl.sol\":2895:3040  function hasRole(bytes32 role, address account) public view virtual override returns (bool) {... */\n    tag_64:\n        /* \"@openzeppelin/contracts/access/AccessControl.sol\":2981:2985  bool */\n      0x00\n        /* \"@openzeppelin/contracts/access/AccessControl.sol\":3004:3010  _roles */\n      dup1\n        /* \"@openzeppelin/contracts/access/AccessControl.sol\":3004:3016  _roles[role] */\n      0x00\n        /* \"@openzeppelin/contracts/access/AccessControl.sol\":3011:3015  role */\n      dup5\n        /* \"@openzeppelin/contracts/access/AccessControl.sol\":3004:3016  _roles[role] */\n      dup2\n      mstore\n      0x20\n      add\n      swap1\n      dup2\n      mstore\n      0x20\n      add\n      0x00\n      keccak256\n        /* \"@openzeppelin/contracts/access/AccessControl.sol\":3004:3024  _roles[role].members */\n      0x00\n      add\n        /* \"@openzeppelin/contracts/access/AccessControl.sol\":3004:3033  _roles[role].members[account] */\n      0x00\n        /* \"@openzeppelin/contracts/access/AccessControl.sol\":3025:3032  account */\n      dup4\n        /* \"@openzeppelin/contracts/access/AccessControl.sol\":3004:3033  _roles[role].members[account] */\n      0xffffffffffffffffffffffffffffffffffffffff\n      and\n      0xffffffffffffffffffffffffffffffffffffffff\n      and\n      dup2\n      mstore\n      0x20\n      add\n      swap1\n      dup2\n      mstore\n      0x20\n      add\n      0x00\n      keccak256\n      0x00\n      swap1\n      sload\n      swap1\n      0x0100\n      exp\n      swap1\n      div\n      0xff\n      and\n        /* \"@openzeppelin/contracts/access/AccessControl.sol\":2997:3033  return _roles[role].members[account] */\n      swap1\n      pop\n        /* \"@openzeppelin/contracts/access/AccessControl.sol\":2895:3040  function hasRole(bytes32 role, address account) public view virtual override returns (bool) {... */\n      swap3\n      swap2\n      pop\n      pop\n      jump\t// out\n        /* \"@openzeppelin/contracts/access/AccessControl.sol\":2027:2076  bytes32 public constant DEFAULT_ADMIN_ROLE = 0x00 */\n    tag_68:\n        /* \"@openzeppelin/contracts/access/AccessControl.sol\":2072:2076  0x00 */\n      0x00\n        /* \"@openzeppelin/contracts/access/AccessControl.sol\":2027:2076  bytes32 public constant DEFAULT_ADMIN_ROLE = 0x00 */\n      dup1\n      shl\n      dup2\n      jump\t// out\n        /* \"@openzeppelin/contracts/access/AccessControl.sol\":5228:5375  function revokeRole(bytes32 role, address account) public virtual override onlyRole(getRoleAdmin(role)) {... */\n    tag_75:\n        /* \"@openzeppelin/contracts/access/AccessControl.sol\":5312:5330  getRoleAdmin(role) */\n      tag_147\n        /* \"@openzeppelin/contracts/access/AccessControl.sol\":5325:5329  role */\n      dup3\n        /* \"@openzeppelin/contracts/access/AccessControl.sol\":5312:5324  getRoleAdmin */\n      tag_33\n        /* \"@openzeppelin/contracts/access/AccessControl.sol\":5312:5330  getRoleAdmin(role) */\n      jump\t// in\n    tag_147:\n        /* \"@openzeppelin/contracts/access/AccessControl.sol\":2505:2521  _checkRole(role) */\n      tag_149\n        /* \"@openzeppelin/contracts/access/AccessControl.sol\":2516:2520  role */\n      dup2\n        /* \"@openzeppelin/contracts/access/AccessControl.sol\":2505:2515  _checkRole */\n      tag_113\n        /* \"@openzeppelin/contracts/access/AccessControl.sol\":2505:2521  _checkRole(role) */\n      jump\t// in\n    tag_149:\n        /* \"@openzeppelin/contracts/access/AccessControl.sol\":5342:5368  _revokeRole(role, account) */\n      tag_151\n        /* \"@openzeppelin/contracts/access/AccessControl.sol\":5354:5358  role */\n      dup4\n        /* \"@openzeppelin/contracts/access/AccessControl.sol\":5360:5367  account */\n      dup4\n        /* \"@openzeppelin/contracts/access/AccessControl.sol\":5342:5353  _revokeRole */\n      tag_139\n        /* \"@openzeppelin/contracts/access/AccessControl.sol\":5342:5368  _revokeRole(role, account) */\n      jump\t// in\n    tag_151:\n        /* \"@openzeppelin/contracts/access/AccessControl.sol\":5228:5375  function revokeRole(bytes32 role, address account) public virtual override onlyRole(getRoleAdmin(role)) {... */\n      pop\n      pop\n      pop\n      jump\t// out\n        /* \"contracts/ICO.sol\":2604:2714  function conversion(uint256 _amnt) private view returns(uint256){... */\n    tag_85:\n        /* \"contracts/ICO.sol\":2660:2667  uint256 */\n      0x00\n        /* \"contracts/ICO.sol\":2685:2706  _amnt.mul(ratioMetis) */\n      tag_153\n        /* \"contracts/ICO.sol\":2695:2705  ratioMetis */\n      sload(0x0a)\n        /* \"contracts/ICO.sol\":2685:2690  _amnt */\n      dup4\n        /* \"contracts/ICO.sol\":2685:2694  _amnt.mul */\n      tag_154\n      swap1\n        /* \"contracts/ICO.sol\":2685:2706  _amnt.mul(ratioMetis) */\n      swap2\n      swap1\n      0xffffffff\n      and\n      jump\t// in\n    tag_153:\n        /* \"contracts/ICO.sol\":2678:2707  return(_amnt.mul(ratioMetis)) */\n      swap1\n      pop\n        /* \"contracts/ICO.sol\":2604:2714  function conversion(uint256 _amnt) private view returns(uint256){... */\n      swap2\n      swap1\n      pop\n      jump\t// out\n        /* \"@openzeppelin/contracts/utils/introspection/ERC165.sol\":829:984  function supportsInterface(bytes4 interfaceId) public view virtual override returns (bool) {... */\n    tag_109:\n        /* \"@openzeppelin/contracts/utils/introspection/ERC165.sol\":914:918  bool */\n      0x00\n        /* \"@openzeppelin/contracts/utils/introspection/ERC165.sol\":952:977  type(IERC165).interfaceId */\n      0x01ffc9a700000000000000000000000000000000000000000000000000000000\n        /* \"@openzeppelin/contracts/utils/introspection/ERC165.sol\":937:977  interfaceId == type(IERC165).interfaceId */\n      not(0xffffffffffffffffffffffffffffffffffffffffffffffffffffffff)\n      and\n        /* \"@openzeppelin/contracts/utils/introspection/ERC165.sol\":937:948  interfaceId */\n      dup3\n        /* \"@openzeppelin/contracts/utils/introspection/ERC165.sol\":937:977  interfaceId == type(IERC165).interfaceId */\n      not(0xffffffffffffffffffffffffffffffffffffffffffffffffffffffff)\n      and\n      eq\n        /* \"@openzeppelin/contracts/utils/introspection/ERC165.sol\":930:977  return interfaceId == type(IERC165).interfaceId */\n      swap1\n      pop\n        /* \"@openzeppelin/contracts/utils/introspection/ERC165.sol\":829:984  function supportsInterface(bytes4 interfaceId) public view virtual override returns (bool) {... */\n      swap2\n      swap1\n      pop\n      jump\t// out\n        /* \"@openzeppelin/contracts/access/AccessControl.sol\":3334:3437  function _checkRole(bytes32 role) internal view virtual {... */\n    tag_113:\n        /* \"@openzeppelin/contracts/access/AccessControl.sol\":3400:3430  _checkRole(role, _msgSender()) */\n      tag_157\n        /* \"@openzeppelin/contracts/access/AccessControl.sol\":3411:3415  role */\n      dup2\n        /* \"@openzeppelin/contracts/access/AccessControl.sol\":3417:3429  _msgSender() */\n      tag_158\n        /* \"@openzeppelin/contracts/access/AccessControl.sol\":3417:3427  _msgSender */\n      tag_134\n        /* \"@openzeppelin/contracts/access/AccessControl.sol\":3417:3429  _msgSender() */\n      jump\t// in\n    tag_158:\n        /* \"@openzeppelin/contracts/access/AccessControl.sol\":3400:3410  _checkRole */\n      tag_159\n        /* \"@openzeppelin/contracts/access/AccessControl.sol\":3400:3430  _checkRole(role, _msgSender()) */\n      jump\t// in\n    tag_157:\n        /* \"@openzeppelin/contracts/access/AccessControl.sol\":3334:3437  function _checkRole(bytes32 role) internal view virtual {... */\n      pop\n      jump\t// out\n        /* \"@openzeppelin/contracts/access/AccessControl.sol\":7461:7694  function _grantRole(bytes32 role, address account) internal virtual {... */\n    tag_131:\n        /* \"@openzeppelin/contracts/access/AccessControl.sol\":7544:7566  hasRole(role, account) */\n      tag_161\n        /* \"@openzeppelin/contracts/access/AccessControl.sol\":7552:7556  role */\n      dup3\n        /* \"@openzeppelin/contracts/access/AccessControl.sol\":7558:7565  account */\n      dup3\n        /* \"@openzeppelin/contracts/access/AccessControl.sol\":7544:7551  hasRole */\n      tag_64\n        /* \"@openzeppelin/contracts/access/AccessControl.sol\":7544:7566  hasRole(role, account) */\n      jump\t// in\n    tag_161:\n        /* \"@openzeppelin/contracts/access/AccessControl.sol\":7539:7688  if (!hasRole(role, account)) {... */\n      tag_162\n      jumpi\n        /* \"@openzeppelin/contracts/access/AccessControl.sol\":7614:7618  true */\n      0x01\n        /* \"@openzeppelin/contracts/access/AccessControl.sol\":7582:7588  _roles */\n      0x00\n        /* \"@openzeppelin/contracts/access/AccessControl.sol\":7582:7594  _roles[role] */\n      dup1\n        /* \"@openzeppelin/contracts/access/AccessControl.sol\":7589:7593  role */\n      dup5\n        /* \"@openzeppelin/contracts/access/AccessControl.sol\":7582:7594  _roles[role] */\n      dup2\n      mstore\n      0x20\n      add\n      swap1\n      dup2\n      mstore\n      0x20\n      add\n      0x00\n      keccak256\n        /* \"@openzeppelin/contracts/access/AccessControl.sol\":7582:7602  _roles[role].members */\n      0x00\n      add\n        /* \"@openzeppelin/contracts/access/AccessControl.sol\":7582:7611  _roles[role].members[account] */\n      0x00\n        /* \"@openzeppelin/contracts/access/AccessControl.sol\":7603:7610  account */\n      dup4\n        /* \"@openzeppelin/contracts/access/AccessControl.sol\":7582:7611  _roles[role].members[account] */\n      0xffffffffffffffffffffffffffffffffffffffff\n      and\n      0xffffffffffffffffffffffffffffffffffffffff\n      and\n      dup2\n      mstore\n      0x20\n      add\n      swap1\n      dup2\n      mstore\n      0x20\n      add\n      0x00\n      keccak256\n      0x00\n        /* \"@openzeppelin/contracts/access/AccessControl.sol\":7582:7618  _roles[role].members[account] = true */\n      0x0100\n      exp\n      dup2\n      sload\n      dup2\n      0xff\n      mul\n      not\n      and\n      swap1\n      dup4\n      iszero\n      iszero\n      mul\n      or\n      swap1\n      sstore\n      pop\n        /* \"@openzeppelin/contracts/access/AccessControl.sol\":7664:7676  _msgSender() */\n      tag_163\n        /* \"@openzeppelin/contracts/access/AccessControl.sol\":7664:7674  _msgSender */\n      tag_134\n        /* \"@openzeppelin/contracts/access/AccessControl.sol\":7664:7676  _msgSender() */\n      jump\t// in\n    tag_163:\n        /* \"@openzeppelin/contracts/access/AccessControl.sol\":7637:7677  RoleGranted(role, account, _msgSender()) */\n      0xffffffffffffffffffffffffffffffffffffffff\n      and\n        /* \"@openzeppelin/contracts/access/AccessControl.sol\":7655:7662  account */\n      dup2\n        /* \"@openzeppelin/contracts/access/AccessControl.sol\":7637:7677  RoleGranted(role, account, _msgSender()) */\n      0xffffffffffffffffffffffffffffffffffffffff\n      and\n        /* \"@openzeppelin/contracts/access/AccessControl.sol\":7649:7653  role */\n      dup4\n        /* \"@openzeppelin/contracts/access/AccessControl.sol\":7637:7677  RoleGranted(role, account, _msgSender()) */\n      0x2f8788117e7eff1d82e926ec794901d17c78024a50270940304540a733656f0d\n      mload(0x40)\n      mload(0x40)\n      dup1\n      swap2\n      sub\n      swap1\n      log4\n        /* \"@openzeppelin/contracts/access/AccessControl.sol\":7539:7688  if (!hasRole(role, account)) {... */\n    tag_162:\n        /* \"@openzeppelin/contracts/access/AccessControl.sol\":7461:7694  function _grantRole(bytes32 role, address account) internal virtual {... */\n      pop\n      pop\n      jump\t// out\n        /* \"@openzeppelin/contracts/utils/Context.sol\":640:736  function _msgSender() internal view virtual returns (address) {... */\n    tag_134:\n        /* \"@openzeppelin/contracts/utils/Context.sol\":693:700  address */\n      0x00\n        /* \"@openzeppelin/contracts/utils/Context.sol\":719:729  msg.sender */\n      caller\n        /* \"@openzeppelin/contracts/utils/Context.sol\":712:729  return msg.sender */\n      swap1\n      pop\n        /* \"@openzeppelin/contracts/utils/Context.sol\":640:736  function _msgSender() internal view virtual returns (address) {... */\n      swap1\n      jump\t// out\n        /* \"@openzeppelin/contracts/access/AccessControl.sol\":7865:8099  function _revokeRole(bytes32 role, address account) internal virtual {... */\n    tag_139:\n        /* \"@openzeppelin/contracts/access/AccessControl.sol\":7948:7970  hasRole(role, account) */\n      tag_166\n        /* \"@openzeppelin/contracts/access/AccessControl.sol\":7956:7960  role */\n      dup3\n        /* \"@openzeppelin/contracts/access/AccessControl.sol\":7962:7969  account */\n      dup3\n        /* \"@openzeppelin/contracts/access/AccessControl.sol\":7948:7955  hasRole */\n      tag_64\n        /* \"@openzeppelin/contracts/access/AccessControl.sol\":7948:7970  hasRole(role, account) */\n      jump\t// in\n    tag_166:\n        /* \"@openzeppelin/contracts/access/AccessControl.sol\":7944:8093  if (hasRole(role, account)) {... */\n      iszero\n      tag_167\n      jumpi\n        /* \"@openzeppelin/contracts/access/AccessControl.sol\":8018:8023  false */\n      0x00\n        /* \"@openzeppelin/contracts/access/AccessControl.sol\":7986:7992  _roles */\n      dup1\n        /* \"@openzeppelin/contracts/access/AccessControl.sol\":7986:7998  _roles[role] */\n      0x00\n        /* \"@openzeppelin/contracts/access/AccessControl.sol\":7993:7997  role */\n      dup5\n        /* \"@openzeppelin/contracts/access/AccessControl.sol\":7986:7998  _roles[role] */\n      dup2\n      mstore\n      0x20\n      add\n      swap1\n      dup2\n      mstore\n      0x20\n      add\n      0x00\n      keccak256\n        /* \"@openzeppelin/contracts/access/AccessControl.sol\":7986:8006  _roles[role].members */\n      0x00\n      add\n        /* \"@openzeppelin/contracts/access/AccessControl.sol\":7986:8015  _roles[role].members[account] */\n      0x00\n        /* \"@openzeppelin/contracts/access/AccessControl.sol\":8007:8014  account */\n      dup4\n        /* \"@openzeppelin/contracts/access/AccessControl.sol\":7986:8015  _roles[role].members[account] */\n      0xffffffffffffffffffffffffffffffffffffffff\n      and\n      0xffffffffffffffffffffffffffffffffffffffff\n      and\n      dup2\n      mstore\n      0x20\n      add\n      swap1\n      dup2\n      mstore\n      0x20\n      add\n      0x00\n      keccak256\n      0x00\n        /* \"@openzeppelin/contracts/access/AccessControl.sol\":7986:8023  _roles[role].members[account] = false */\n      0x0100\n      exp\n      dup2\n      sload\n      dup2\n      0xff\n      mul\n      not\n      and\n      swap1\n      dup4\n      iszero\n      iszero\n      mul\n      or\n      swap1\n      sstore\n      pop\n        /* \"@openzeppelin/contracts/access/AccessControl.sol\":8069:8081  _msgSender() */\n      tag_168\n        /* \"@openzeppelin/contracts/access/AccessControl.sol\":8069:8079  _msgSender */\n      tag_134\n        /* \"@openzeppelin/contracts/access/AccessControl.sol\":8069:8081  _msgSender() */\n      jump\t// in\n    tag_168:\n        /* \"@openzeppelin/contracts/access/AccessControl.sol\":8042:8082  RoleRevoked(role, account, _msgSender()) */\n      0xffffffffffffffffffffffffffffffffffffffff\n      and\n        /* \"@openzeppelin/contracts/access/AccessControl.sol\":8060:8067  account */\n      dup2\n        /* \"@openzeppelin/contracts/access/AccessControl.sol\":8042:8082  RoleRevoked(role, account, _msgSender()) */\n      0xffffffffffffffffffffffffffffffffffffffff\n      and\n        /* \"@openzeppelin/contracts/access/AccessControl.sol\":8054:8058  role */\n      dup4\n        /* \"@openzeppelin/contracts/access/AccessControl.sol\":8042:8082  RoleRevoked(role, account, _msgSender()) */\n      0xf6391f5c32d9c69d2a47ea670b442974b53935d1edc7fd64eb21e047a839171b\n      mload(0x40)\n      mload(0x40)\n      dup1\n      swap2\n      sub\n      swap1\n      log4\n        /* \"@openzeppelin/contracts/access/AccessControl.sol\":7944:8093  if (hasRole(role, account)) {... */\n    tag_167:\n        /* \"@openzeppelin/contracts/access/AccessControl.sol\":7865:8099  function _revokeRole(bytes32 role, address account) internal virtual {... */\n      pop\n      pop\n      jump\t// out\n        /* \"@openzeppelin/contracts/utils/math/SafeMath.sol\":3465:3561  function mul(uint256 a, uint256 b) internal pure returns (uint256) {... */\n    tag_154:\n        /* \"@openzeppelin/contracts/utils/math/SafeMath.sol\":3523:3530  uint256 */\n      0x00\n        /* \"@openzeppelin/contracts/utils/math/SafeMath.sol\":3553:3554  b */\n      dup2\n        /* \"@openzeppelin/contracts/utils/math/SafeMath.sol\":3549:3550  a */\n      dup4\n        /* \"@openzeppelin/contracts/utils/math/SafeMath.sol\":3549:3554  a * b */\n      tag_170\n      swap2\n      swap1\n      tag_171\n      jump\t// in\n    tag_170:\n        /* \"@openzeppelin/contracts/utils/math/SafeMath.sol\":3542:3554  return a * b */\n      swap1\n      pop\n        /* \"@openzeppelin/contracts/utils/math/SafeMath.sol\":3465:3561  function mul(uint256 a, uint256 b) internal pure returns (uint256) {... */\n      swap3\n      swap2\n      pop\n      pop\n      jump\t// out\n        /* \"@openzeppelin/contracts/access/AccessControl.sol\":3718:4197  function _checkRole(bytes32 role, address account) internal view virtual {... */\n    tag_159:\n        /* \"@openzeppelin/contracts/access/AccessControl.sol\":3806:3828  hasRole(role, account) */\n      tag_173\n        /* \"@openzeppelin/contracts/access/AccessControl.sol\":3814:3818  role */\n      dup3\n        /* \"@openzeppelin/contracts/access/AccessControl.sol\":3820:3827  account */\n      dup3\n        /* \"@openzeppelin/contracts/access/AccessControl.sol\":3806:3813  hasRole */\n      tag_64\n        /* \"@openzeppelin/contracts/access/AccessControl.sol\":3806:3828  hasRole(role, account) */\n      jump\t// in\n    tag_173:\n        /* \"@openzeppelin/contracts/access/AccessControl.sol\":3801:4191  if (!hasRole(role, account)) {... */\n      tag_174\n      jumpi\n        /* \"@openzeppelin/contracts/access/AccessControl.sol\":3989:4017  Strings.toHexString(account) */\n      tag_175\n        /* \"@openzeppelin/contracts/access/AccessControl.sol\":4009:4016  account */\n      dup2\n        /* \"@openzeppelin/contracts/access/AccessControl.sol\":3989:4008  Strings.toHexString */\n      tag_176\n        /* \"@openzeppelin/contracts/access/AccessControl.sol\":3989:4017  Strings.toHexString(account) */\n      jump\t// in\n    tag_175:\n        /* \"@openzeppelin/contracts/access/AccessControl.sol\":4088:4126  Strings.toHexString(uint256(role), 32) */\n      tag_177\n        /* \"@openzeppelin/contracts/access/AccessControl.sol\":4116:4120  role */\n      dup4\n        /* \"@openzeppelin/contracts/access/AccessControl.sol\":4108:4121  uint256(role) */\n      0x00\n      shr\n        /* \"@openzeppelin/contracts/access/AccessControl.sol\":4123:4125  32 */\n      0x20\n        /* \"@openzeppelin/contracts/access/AccessControl.sol\":4088:4107  Strings.toHexString */\n      tag_178\n        /* \"@openzeppelin/contracts/access/AccessControl.sol\":4088:4126  Strings.toHexString(uint256(role), 32) */\n      jump\t// in\n    tag_177:\n        /* \"@openzeppelin/contracts/access/AccessControl.sol\":3896:4148  abi.encodePacked(... */\n      add(0x20, mload(0x40))\n      tag_179\n      swap3\n      swap2\n      swap1\n      tag_180\n      jump\t// in\n    tag_179:\n      mload(0x40)\n      0x20\n      dup2\n      dup4\n      sub\n      sub\n      dup2\n      mstore\n      swap1\n      0x40\n      mstore\n        /* \"@openzeppelin/contracts/access/AccessControl.sol\":3844:4180  revert(... */\n      mload(0x40)\n      0x08c379a000000000000000000000000000000000000000000000000000000000\n      dup2\n      mstore\n      0x04\n      add\n      tag_181\n      swap2\n      swap1\n      tag_182\n      jump\t// in\n    tag_181:\n      mload(0x40)\n      dup1\n      swap2\n      sub\n      swap1\n      revert\n        /* \"@openzeppelin/contracts/access/AccessControl.sol\":3801:4191  if (!hasRole(role, account)) {... */\n    tag_174:\n        /* \"@openzeppelin/contracts/access/AccessControl.sol\":3718:4197  function _checkRole(bytes32 role, address account) internal view virtual {... */\n      pop\n      pop\n      jump\t// out\n        /* \"@openzeppelin/contracts/utils/Strings.sol\":2102:2251  function toHexString(address addr) internal pure returns (string memory) {... */\n    tag_176:\n        /* \"@openzeppelin/contracts/utils/Strings.sol\":2160:2173  string memory */\n      0x60\n        /* \"@openzeppelin/contracts/utils/Strings.sol\":2192:2244  toHexString(uint256(uint160(addr)), _ADDRESS_LENGTH) */\n      tag_184\n        /* \"@openzeppelin/contracts/utils/Strings.sol\":2220:2224  addr */\n      dup3\n        /* \"@openzeppelin/contracts/utils/Strings.sol\":2204:2226  uint256(uint160(addr)) */\n      0xffffffffffffffffffffffffffffffffffffffff\n      and\n        /* \"@openzeppelin/contracts/utils/Strings.sol\":311:313  20 */\n      0x14\n        /* \"@openzeppelin/contracts/utils/Strings.sol\":2192:2244  toHexString(uint256(uint160(addr)), _ADDRESS_LENGTH) */\n      0xff\n      and\n        /* \"@openzeppelin/contracts/utils/Strings.sol\":2192:2203  toHexString */\n      tag_178\n        /* \"@openzeppelin/contracts/utils/Strings.sol\":2192:2244  toHexString(uint256(uint160(addr)), _ADDRESS_LENGTH) */\n      jump\t// in\n    tag_184:\n        /* \"@openzeppelin/contracts/utils/Strings.sol\":2185:2244  return toHexString(uint256(uint160(addr)), _ADDRESS_LENGTH) */\n      swap1\n      pop\n        /* \"@openzeppelin/contracts/utils/Strings.sol\":2102:2251  function toHexString(address addr) internal pure returns (string memory) {... */\n      swap2\n      swap1\n      pop\n      jump\t// out\n        /* \"@openzeppelin/contracts/utils/Strings.sol\":1513:1950  function toHexString(uint256 value, uint256 length) internal pure returns (string memory) {... */\n    tag_178:\n        /* \"@openzeppelin/contracts/utils/Strings.sol\":1588:1601  string memory */\n      0x60\n        /* \"@openzeppelin/contracts/utils/Strings.sol\":1613:1632  bytes memory buffer */\n      0x00\n        /* \"@openzeppelin/contracts/utils/Strings.sol\":1658:1659  2 */\n      0x02\n        /* \"@openzeppelin/contracts/utils/Strings.sol\":1649:1655  length */\n      dup4\n        /* \"@openzeppelin/contracts/utils/Strings.sol\":1645:1646  2 */\n      0x02\n        /* \"@openzeppelin/contracts/utils/Strings.sol\":1645:1655  2 * length */\n      tag_186\n      swap2\n      swap1\n      tag_171\n      jump\t// in\n    tag_186:\n        /* \"@openzeppelin/contracts/utils/Strings.sol\":1645:1659  2 * length + 2 */\n      tag_187\n      swap2\n      swap1\n      tag_87\n      jump\t// in\n    tag_187:\n        /* \"@openzeppelin/contracts/utils/Strings.sol\":1635:1660  new bytes(2 * length + 2) */\n      0xffffffffffffffff\n      dup2\n      gt\n      iszero\n      tag_188\n      jumpi\n      tag_189\n      tag_190\n      jump\t// in\n    tag_189:\n    tag_188:\n      mload(0x40)\n      swap1\n      dup1\n      dup3\n      mstore\n      dup1\n      0x1f\n      add\n      not(0x1f)\n      and\n      0x20\n      add\n      dup3\n      add\n      0x40\n      mstore\n      dup1\n      iszero\n      tag_191\n      jumpi\n      dup2\n      0x20\n      add\n      0x01\n      dup3\n      mul\n      dup1\n      calldatasize\n      dup4\n      calldatacopy\n      dup1\n      dup3\n      add\n      swap2\n      pop\n      pop\n      swap1\n      pop\n    tag_191:\n      pop\n        /* \"@openzeppelin/contracts/utils/Strings.sol\":1613:1660  bytes memory buffer = new bytes(2 * length + 2) */\n      swap1\n      pop\n        /* \"@openzeppelin/contracts/utils/Strings.sol\":1670:1685  buffer[0] = \"0\" */\n      0x3000000000000000000000000000000000000000000000000000000000000000\n        /* \"@openzeppelin/contracts/utils/Strings.sol\":1670:1676  buffer */\n      dup2\n        /* \"@openzeppelin/contracts/utils/Strings.sol\":1677:1678  0 */\n      0x00\n        /* \"@openzeppelin/contracts/utils/Strings.sol\":1670:1679  buffer[0] */\n      dup2\n      mload\n      dup2\n      lt\n      tag_192\n      jumpi\n      tag_193\n      tag_194\n      jump\t// in\n    tag_193:\n    tag_192:\n      0x20\n      add\n      add\n        /* \"@openzeppelin/contracts/utils/Strings.sol\":1670:1685  buffer[0] = \"0\" */\n      swap1\n      not(0xffffffffffffffffffffffffffffffffffffffffffffffffffffffffffffff)\n      and\n      swap1\n      dup2\n      0x00\n      byte\n      swap1\n      mstore8\n      pop\n        /* \"@openzeppelin/contracts/utils/Strings.sol\":1695:1710  buffer[1] = \"x\" */\n      0x7800000000000000000000000000000000000000000000000000000000000000\n        /* \"@openzeppelin/contracts/utils/Strings.sol\":1695:1701  buffer */\n      dup2\n        /* \"@openzeppelin/contracts/utils/Strings.sol\":1702:1703  1 */\n      0x01\n        /* \"@openzeppelin/contracts/utils/Strings.sol\":1695:1704  buffer[1] */\n      dup2\n      mload\n      dup2\n      lt\n      tag_195\n      jumpi\n      tag_196\n      tag_194\n      jump\t// in\n    tag_196:\n    tag_195:\n      0x20\n      add\n      add\n        /* \"@openzeppelin/contracts/utils/Strings.sol\":1695:1710  buffer[1] = \"x\" */\n      swap1\n      not(0xffffffffffffffffffffffffffffffffffffffffffffffffffffffffffffff)\n      and\n      swap1\n      dup2\n      0x00\n      byte\n      swap1\n      mstore8\n      pop\n        /* \"@openzeppelin/contracts/utils/Strings.sol\":1725:1734  uint256 i */\n      0x00\n        /* \"@openzeppelin/contracts/utils/Strings.sol\":1750:1751  1 */\n      0x01\n        /* \"@openzeppelin/contracts/utils/Strings.sol\":1741:1747  length */\n      dup5\n        /* \"@openzeppelin/contracts/utils/Strings.sol\":1737:1738  2 */\n      0x02\n        /* \"@openzeppelin/contracts/utils/Strings.sol\":1737:1747  2 * length */\n      tag_200\n      swap2\n      swap1\n      tag_171\n      jump\t// in\n    tag_200:\n        /* \"@openzeppelin/contracts/utils/Strings.sol\":1737:1751  2 * length + 1 */\n      tag_201\n      swap2\n      swap1\n      tag_87\n      jump\t// in\n    tag_201:\n        /* \"@openzeppelin/contracts/utils/Strings.sol\":1725:1751  uint256 i = 2 * length + 1 */\n      swap1\n      pop\n        /* \"@openzeppelin/contracts/utils/Strings.sol\":1720:1848  for (uint256 i = 2 * length + 1; i > 1; --i) {... */\n    tag_197:\n        /* \"@openzeppelin/contracts/utils/Strings.sol\":1757:1758  1 */\n      0x01\n        /* \"@openzeppelin/contracts/utils/Strings.sol\":1753:1754  i */\n      dup2\n        /* \"@openzeppelin/contracts/utils/Strings.sol\":1753:1758  i > 1 */\n      gt\n        /* \"@openzeppelin/contracts/utils/Strings.sol\":1720:1848  for (uint256 i = 2 * length + 1; i > 1; --i) {... */\n      iszero\n      tag_198\n      jumpi\n        /* \"@openzeppelin/contracts/utils/Strings.sol\":1791:1799  _SYMBOLS */\n      0x3031323334353637383961626364656600000000000000000000000000000000\n        /* \"@openzeppelin/contracts/utils/Strings.sol\":1808:1811  0xf */\n      0x0f\n        /* \"@openzeppelin/contracts/utils/Strings.sol\":1800:1805  value */\n      dup7\n        /* \"@openzeppelin/contracts/utils/Strings.sol\":1800:1811  value & 0xf */\n      and\n        /* \"@openzeppelin/contracts/utils/Strings.sol\":1791:1812  _SYMBOLS[value & 0xf] */\n      0x10\n      dup2\n      lt\n      tag_202\n      jumpi\n      tag_203\n      tag_194\n      jump\t// in\n    tag_203:\n    tag_202:\n      byte\n      0xf8\n      shl\n        /* \"@openzeppelin/contracts/utils/Strings.sol\":1779:1785  buffer */\n      dup3\n        /* \"@openzeppelin/contracts/utils/Strings.sol\":1786:1787  i */\n      dup3\n        /* \"@openzeppelin/contracts/utils/Strings.sol\":1779:1788  buffer[i] */\n      dup2\n      mload\n      dup2\n      lt\n      tag_204\n      jumpi\n      tag_205\n      tag_194\n      jump\t// in\n    tag_205:\n    tag_204:\n      0x20\n      add\n      add\n        /* \"@openzeppelin/contracts/utils/Strings.sol\":1779:1812  buffer[i] = _SYMBOLS[value & 0xf] */\n      swap1\n      not(0xffffffffffffffffffffffffffffffffffffffffffffffffffffffffffffff)\n      and\n      swap1\n      dup2\n      0x00\n      byte\n      swap1\n      mstore8\n      pop\n        /* \"@openzeppelin/contracts/utils/Strings.sol\":1836:1837  4 */\n      0x04\n        /* \"@openzeppelin/contracts/utils/Strings.sol\":1826:1837  value >>= 4 */\n      dup6\n      swap1\n      shr\n      swap5\n      pop\n        /* \"@openzeppelin/contracts/utils/Strings.sol\":1760:1763  --i */\n      dup1\n      tag_206\n      swap1\n      tag_207\n      jump\t// in\n    tag_206:\n      swap1\n      pop\n        /* \"@openzeppelin/contracts/utils/Strings.sol\":1720:1848  for (uint256 i = 2 * length + 1; i > 1; --i) {... */\n      jump(tag_197)\n    tag_198:\n      pop\n        /* \"@openzeppelin/contracts/utils/Strings.sol\":1874:1875  0 */\n      0x00\n        /* \"@openzeppelin/contracts/utils/Strings.sol\":1865:1870  value */\n      dup5\n        /* \"@openzeppelin/contracts/utils/Strings.sol\":1865:1875  value == 0 */\n      eq\n        /* \"@openzeppelin/contracts/utils/Strings.sol\":1857:1912  require(value == 0, \"Strings: hex length insufficient\") */\n      tag_208\n      jumpi\n      mload(0x40)\n      0x08c379a000000000000000000000000000000000000000000000000000000000\n      dup2\n      mstore\n      0x04\n      add\n      tag_209\n      swap1\n      tag_210\n      jump\t// in\n    tag_209:\n      mload(0x40)\n      dup1\n      swap2\n      sub\n      swap1\n      revert\n    tag_208:\n        /* \"@openzeppelin/contracts/utils/Strings.sol\":1936:1942  buffer */\n      dup1\n        /* \"@openzeppelin/contracts/utils/Strings.sol\":1922:1943  return string(buffer) */\n      swap2\n      pop\n      pop\n        /* \"@openzeppelin/contracts/utils/Strings.sol\":1513:1950  function toHexString(uint256 value, uint256 length) internal pure returns (string memory) {... */\n      swap3\n      swap2\n      pop\n      pop\n      jump\t// out\n        /* \"#utility.yul\":7:176   */\n    tag_211:\n        /* \"#utility.yul\":91:102   */\n      0x00\n        /* \"#utility.yul\":125:131   */\n      dup3\n        /* \"#utility.yul\":120:123   */\n      dup3\n        /* \"#utility.yul\":113:132   */\n      mstore\n        /* \"#utility.yul\":165:169   */\n      0x20\n        /* \"#utility.yul\":160:163   */\n      dup3\n        /* \"#utility.yul\":156:170   */\n      add\n        /* \"#utility.yul\":141:170   */\n      swap1\n      pop\n        /* \"#utility.yul\":7:176   */\n      swap3\n      swap2\n      pop\n      pop\n      jump\t// out\n        /* \"#utility.yul\":182:344   */\n    tag_212:\n        /* \"#utility.yul\":322:336   */\n      0x66616c6c6261636b206869740000000000000000000000000000000000000000\n        /* \"#utility.yul\":318:319   */\n      0x00\n        /* \"#utility.yul\":310:316   */\n      dup3\n        /* \"#utility.yul\":306:320   */\n      add\n        /* \"#utility.yul\":299:337   */\n      mstore\n        /* \"#utility.yul\":182:344   */\n      pop\n      jump\t// out\n        /* \"#utility.yul\":350:716   */\n    tag_213:\n        /* \"#utility.yul\":492:495   */\n      0x00\n        /* \"#utility.yul\":513:580   */\n      tag_263\n        /* \"#utility.yul\":577:579   */\n      0x0c\n        /* \"#utility.yul\":572:575   */\n      dup4\n        /* \"#utility.yul\":513:580   */\n      tag_211\n      jump\t// in\n    tag_263:\n        /* \"#utility.yul\":506:580   */\n      swap2\n      pop\n        /* \"#utility.yul\":589:682   */\n      tag_264\n        /* \"#utility.yul\":678:681   */\n      dup3\n        /* \"#utility.yul\":589:682   */\n      tag_212\n      jump\t// in\n    tag_264:\n        /* \"#utility.yul\":707:709   */\n      0x20\n        /* \"#utility.yul\":702:705   */\n      dup3\n        /* \"#utility.yul\":698:710   */\n      add\n        /* \"#utility.yul\":691:710   */\n      swap1\n      pop\n        /* \"#utility.yul\":350:716   */\n      swap2\n      swap1\n      pop\n      jump\t// out\n        /* \"#utility.yul\":722:1141   */\n    tag_19:\n        /* \"#utility.yul\":888:892   */\n      0x00\n        /* \"#utility.yul\":926:928   */\n      0x20\n        /* \"#utility.yul\":915:924   */\n      dup3\n        /* \"#utility.yul\":911:929   */\n      add\n        /* \"#utility.yul\":903:929   */\n      swap1\n      pop\n        /* \"#utility.yul\":975:984   */\n      dup2\n        /* \"#utility.yul\":969:973   */\n      dup2\n        /* \"#utility.yul\":965:985   */\n      sub\n        /* \"#utility.yul\":961:962   */\n      0x00\n        /* \"#utility.yul\":950:959   */\n      dup4\n        /* \"#utility.yul\":946:963   */\n      add\n        /* \"#utility.yul\":939:986   */\n      mstore\n        /* \"#utility.yul\":1003:1134   */\n      tag_266\n        /* \"#utility.yul\":1129:1133   */\n      dup2\n        /* \"#utility.yul\":1003:1134   */\n      tag_213\n      jump\t// in\n    tag_266:\n        /* \"#utility.yul\":995:1134   */\n      swap1\n      pop\n        /* \"#utility.yul\":722:1141   */\n      swap2\n      swap1\n      pop\n      jump\t// out\n        /* \"#utility.yul\":1228:1345   */\n    tag_215:\n        /* \"#utility.yul\":1337:1338   */\n      0x00\n        /* \"#utility.yul\":1334:1335   */\n      dup1\n        /* \"#utility.yul\":1327:1339   */\n      revert\n        /* \"#utility.yul\":1474:1623   */\n    tag_217:\n        /* \"#utility.yul\":1510:1517   */\n      0x00\n        /* \"#utility.yul\":1550:1616   */\n      0xffffffff00000000000000000000000000000000000000000000000000000000\n        /* \"#utility.yul\":1543:1548   */\n      dup3\n        /* \"#utility.yul\":1539:1617   */\n      and\n        /* \"#utility.yul\":1528:1617   */\n      swap1\n      pop\n        /* \"#utility.yul\":1474:1623   */\n      swap2\n      swap1\n      pop\n      jump\t// out\n        /* \"#utility.yul\":1629:1749   */\n    tag_218:\n        /* \"#utility.yul\":1701:1724   */\n      tag_272\n        /* \"#utility.yul\":1718:1723   */\n      dup2\n        /* \"#utility.yul\":1701:1724   */\n      tag_217\n      jump\t// in\n    tag_272:\n        /* \"#utility.yul\":1694:1699   */\n      dup2\n        /* \"#utility.yul\":1691:1725   */\n      eq\n        /* \"#utility.yul\":1681:1743   */\n      tag_273\n      jumpi\n        /* \"#utility.yul\":1739:1740   */\n      0x00\n        /* \"#utility.yul\":1736:1737   */\n      dup1\n        /* \"#utility.yul\":1729:1741   */\n      revert\n        /* \"#utility.yul\":1681:1743   */\n    tag_273:\n        /* \"#utility.yul\":1629:1749   */\n      pop\n      jump\t// out\n        /* \"#utility.yul\":1755:1892   */\n    tag_219:\n        /* \"#utility.yul\":1800:1805   */\n      0x00\n        /* \"#utility.yul\":1838:1844   */\n      dup2\n        /* \"#utility.yul\":1825:1845   */\n      calldataload\n        /* \"#utility.yul\":1816:1845   */\n      swap1\n      pop\n        /* \"#utility.yul\":1854:1886   */\n      tag_275\n        /* \"#utility.yul\":1880:1885   */\n      dup2\n        /* \"#utility.yul\":1854:1886   */\n      tag_218\n      jump\t// in\n    tag_275:\n        /* \"#utility.yul\":1755:1892   */\n      swap3\n      swap2\n      pop\n      pop\n      jump\t// out\n        /* \"#utility.yul\":1898:2225   */\n    tag_25:\n        /* \"#utility.yul\":1956:1962   */\n      0x00\n        /* \"#utility.yul\":2005:2007   */\n      0x20\n        /* \"#utility.yul\":1993:2002   */\n      dup3\n        /* \"#utility.yul\":1984:1991   */\n      dup5\n        /* \"#utility.yul\":1980:2003   */\n      sub\n        /* \"#utility.yul\":1976:2008   */\n      slt\n        /* \"#utility.yul\":1973:2092   */\n      iszero\n      tag_277\n      jumpi\n        /* \"#utility.yul\":2011:2090   */\n      tag_278\n      tag_215\n      jump\t// in\n    tag_278:\n        /* \"#utility.yul\":1973:2092   */\n    tag_277:\n        /* \"#utility.yul\":2131:2132   */\n      0x00\n        /* \"#utility.yul\":2156:2208   */\n      tag_279\n        /* \"#utility.yul\":2200:2207   */\n      dup5\n        /* \"#utility.yul\":2191:2197   */\n      dup3\n        /* \"#utility.yul\":2180:2189   */\n      dup6\n        /* \"#utility.yul\":2176:2198   */\n      add\n        /* \"#utility.yul\":2156:2208   */\n      tag_219\n      jump\t// in\n    tag_279:\n        /* \"#utility.yul\":2146:2208   */\n      swap2\n      pop\n        /* \"#utility.yul\":2102:2218   */\n      pop\n        /* \"#utility.yul\":1898:2225   */\n      swap3\n      swap2\n      pop\n      pop\n      jump\t// out\n        /* \"#utility.yul\":2231:2321   */\n    tag_220:\n        /* \"#utility.yul\":2265:2272   */\n      0x00\n        /* \"#utility.yul\":2308:2313   */\n      dup2\n        /* \"#utility.yul\":2301:2314   */\n      iszero\n        /* \"#utility.yul\":2294:2315   */\n      iszero\n        /* \"#utility.yul\":2283:2315   */\n      swap1\n      pop\n        /* \"#utility.yul\":2231:2321   */\n      swap2\n      swap1\n      pop\n      jump\t// out\n        /* \"#utility.yul\":2327:2436   */\n    tag_221:\n        /* \"#utility.yul\":2408:2429   */\n      tag_282\n        /* \"#utility.yul\":2423:2428   */\n      dup2\n        /* \"#utility.yul\":2408:2429   */\n      tag_220\n      jump\t// in\n    tag_282:\n        /* \"#utility.yul\":2403:2406   */\n      dup3\n        /* \"#utility.yul\":2396:2430   */\n      mstore\n        /* \"#utility.yul\":2327:2436   */\n      pop\n      pop\n      jump\t// out\n        /* \"#utility.yul\":2442:2652   */\n    tag_28:\n        /* \"#utility.yul\":2529:2533   */\n      0x00\n        /* \"#utility.yul\":2567:2569   */\n      0x20\n        /* \"#utility.yul\":2556:2565   */\n      dup3\n        /* \"#utility.yul\":2552:2570   */\n      add\n        /* \"#utility.yul\":2544:2570   */\n      swap1\n      pop\n        /* \"#utility.yul\":2580:2645   */\n      tag_284\n        /* \"#utility.yul\":2642:2643   */\n      0x00\n        /* \"#utility.yul\":2631:2640   */\n      dup4\n        /* \"#utility.yul\":2627:2644   */\n      add\n        /* \"#utility.yul\":2618:2624   */\n      dup5\n        /* \"#utility.yul\":2580:2645   */\n      tag_221\n      jump\t// in\n    tag_284:\n        /* \"#utility.yul\":2442:2652   */\n      swap3\n      swap2\n      pop\n      pop\n      jump\t// out\n        /* \"#utility.yul\":2658:2735   */\n    tag_222:\n        /* \"#utility.yul\":2695:2702   */\n      0x00\n        /* \"#utility.yul\":2724:2729   */\n      dup2\n        /* \"#utility.yul\":2713:2729   */\n      swap1\n      pop\n        /* \"#utility.yul\":2658:2735   */\n      swap2\n      swap1\n      pop\n      jump\t// out\n        /* \"#utility.yul\":2741:2863   */\n    tag_223:\n        /* \"#utility.yul\":2814:2838   */\n      tag_287\n        /* \"#utility.yul\":2832:2837   */\n      dup2\n        /* \"#utility.yul\":2814:2838   */\n      tag_222\n      jump\t// in\n    tag_287:\n        /* \"#utility.yul\":2807:2812   */\n      dup2\n        /* \"#utility.yul\":2804:2839   */\n      eq\n        /* \"#utility.yul\":2794:2857   */\n      tag_288\n      jumpi\n        /* \"#utility.yul\":2853:2854   */\n      0x00\n        /* \"#utility.yul\":2850:2851   */\n      dup1\n        /* \"#utility.yul\":2843:2855   */\n      revert\n        /* \"#utility.yul\":2794:2857   */\n    tag_288:\n        /* \"#utility.yul\":2741:2863   */\n      pop\n      jump\t// out\n        /* \"#utility.yul\":2869:3008   */\n    tag_224:\n        /* \"#utility.yul\":2915:2920   */\n      0x00\n        /* \"#utility.yul\":2953:2959   */\n      dup2\n        /* \"#utility.yul\":2940:2960   */\n      calldataload\n        /* \"#utility.yul\":2931:2960   */\n      swap1\n      pop\n        /* \"#utility.yul\":2969:3002   */\n      tag_290\n        /* \"#utility.yul\":2996:3001   */\n      dup2\n        /* \"#utility.yul\":2969:3002   */\n      tag_223\n      jump\t// in\n    tag_290:\n        /* \"#utility.yul\":2869:3008   */\n      swap3\n      swap2\n      pop\n      pop\n      jump\t// out\n        /* \"#utility.yul\":3014:3343   */\n    tag_32:\n        /* \"#utility.yul\":3073:3079   */\n      0x00\n        /* \"#utility.yul\":3122:3124   */\n      0x20\n        /* \"#utility.yul\":3110:3119   */\n      dup3\n        /* \"#utility.yul\":3101:3108   */\n      dup5\n        /* \"#utility.yul\":3097:3120   */\n      sub\n        /* \"#utility.yul\":3093:3125   */\n      slt\n        /* \"#utility.yul\":3090:3209   */\n      iszero\n      tag_292\n      jumpi\n        /* \"#utility.yul\":3128:3207   */\n      tag_293\n      tag_215\n      jump\t// in\n    tag_293:\n        /* \"#utility.yul\":3090:3209   */\n    tag_292:\n        /* \"#utility.yul\":3248:3249   */\n      0x00\n        /* \"#utility.yul\":3273:3326   */\n      tag_294\n        /* \"#utility.yul\":3318:3325   */\n      dup5\n        /* \"#utility.yul\":3309:3315   */\n      dup3\n        /* \"#utility.yul\":3298:3307   */\n      dup6\n        /* \"#utility.yul\":3294:3316   */\n      add\n        /* \"#utility.yul\":3273:3326   */\n      tag_224\n      jump\t// in\n    tag_294:\n        /* \"#utility.yul\":3263:3326   */\n      swap2\n      pop\n        /* \"#utility.yul\":3219:3336   */\n      pop\n        /* \"#utility.yul\":3014:3343   */\n      swap3\n      swap2\n      pop\n      pop\n      jump\t// out\n        /* \"#utility.yul\":3349:3467   */\n    tag_225:\n        /* \"#utility.yul\":3436:3460   */\n      tag_296\n        /* \"#utility.yul\":3454:3459   */\n      dup2\n        /* \"#utility.yul\":3436:3460   */\n      tag_222\n      jump\t// in\n    tag_296:\n        /* \"#utility.yul\":3431:3434   */\n      dup3\n        /* \"#utility.yul\":3424:3461   */\n      mstore\n        /* \"#utility.yul\":3349:3467   */\n      pop\n      pop\n      jump\t// out\n        /* \"#utility.yul\":3473:3695   */\n    tag_35:\n        /* \"#utility.yul\":3566:3570   */\n      0x00\n        /* \"#utility.yul\":3604:3606   */\n      0x20\n        /* \"#utility.yul\":3593:3602   */\n      dup3\n        /* \"#utility.yul\":3589:3607   */\n      add\n        /* \"#utility.yul\":3581:3607   */\n      swap1\n      pop\n        /* \"#utility.yul\":3617:3688   */\n      tag_298\n        /* \"#utility.yul\":3685:3686   */\n      0x00\n        /* \"#utility.yul\":3674:3683   */\n      dup4\n        /* \"#utility.yul\":3670:3687   */\n      add\n        /* \"#utility.yul\":3661:3667   */\n      dup5\n        /* \"#utility.yul\":3617:3688   */\n      tag_225\n      jump\t// in\n    tag_298:\n        /* \"#utility.yul\":3473:3695   */\n      swap3\n      swap2\n      pop\n      pop\n      jump\t// out\n        /* \"#utility.yul\":3701:3778   */\n    tag_226:\n        /* \"#utility.yul\":3738:3745   */\n      0x00\n        /* \"#utility.yul\":3767:3772   */\n      dup2\n        /* \"#utility.yul\":3756:3772   */\n      swap1\n      pop\n        /* \"#utility.yul\":3701:3778   */\n      swap2\n      swap1\n      pop\n      jump\t// out\n        /* \"#utility.yul\":3784:3906   */\n    tag_227:\n        /* \"#utility.yul\":3857:3881   */\n      tag_301\n        /* \"#utility.yul\":3875:3880   */\n      dup2\n        /* \"#utility.yul\":3857:3881   */\n      tag_226\n      jump\t// in\n    tag_301:\n        /* \"#utility.yul\":3850:3855   */\n      dup2\n        /* \"#utility.yul\":3847:3882   */\n      eq\n        /* \"#utility.yul\":3837:3900   */\n      tag_302\n      jumpi\n        /* \"#utility.yul\":3896:3897   */\n      0x00\n        /* \"#utility.yul\":3893:3894   */\n      dup1\n        /* \"#utility.yul\":3886:3898   */\n      revert\n        /* \"#utility.yul\":3837:3900   */\n    tag_302:\n        /* \"#utility.yul\":3784:3906   */\n      pop\n      jump\t// out\n        /* \"#utility.yul\":3912:4051   */\n    tag_228:\n        /* \"#utility.yul\":3958:3963   */\n      0x00\n        /* \"#utility.yul\":3996:4002   */\n      dup2\n        /* \"#utility.yul\":3983:4003   */\n      calldataload\n        /* \"#utility.yul\":3974:4003   */\n      swap1\n      pop\n        /* \"#utility.yul\":4012:4045   */\n      tag_304\n        /* \"#utility.yul\":4039:4044   */\n      dup2\n        /* \"#utility.yul\":4012:4045   */\n      tag_227\n      jump\t// in\n    tag_304:\n        /* \"#utility.yul\":3912:4051   */\n      swap3\n      swap2\n      pop\n      pop\n      jump\t// out\n        /* \"#utility.yul\":4057:4386   */\n    tag_43:\n        /* \"#utility.yul\":4116:4122   */\n      0x00\n        /* \"#utility.yul\":4165:4167   */\n      0x20\n        /* \"#utility.yul\":4153:4162   */\n      dup3\n        /* \"#utility.yul\":4144:4151   */\n      dup5\n        /* \"#utility.yul\":4140:4163   */\n      sub\n        /* \"#utility.yul\":4136:4168   */\n      slt\n        /* \"#utility.yul\":4133:4252   */\n      iszero\n      tag_306\n      jumpi\n        /* \"#utility.yul\":4171:4250   */\n      tag_307\n      tag_215\n      jump\t// in\n    tag_307:\n        /* \"#utility.yul\":4133:4252   */\n    tag_306:\n        /* \"#utility.yul\":4291:4292   */\n      0x00\n        /* \"#utility.yul\":4316:4369   */\n      tag_308\n        /* \"#utility.yul\":4361:4368   */\n      dup5\n        /* \"#utility.yul\":4352:4358   */\n      dup3\n        /* \"#utility.yul\":4341:4350   */\n      dup6\n        /* \"#utility.yul\":4337:4359   */\n      add\n        /* \"#utility.yul\":4316:4369   */\n      tag_228\n      jump\t// in\n    tag_308:\n        /* \"#utility.yul\":4306:4369   */\n      swap2\n      pop\n        /* \"#utility.yul\":4262:4379   */\n      pop\n        /* \"#utility.yul\":4057:4386   */\n      swap3\n      swap2\n      pop\n      pop\n      jump\t// out\n        /* \"#utility.yul\":4392:4518   */\n    tag_229:\n        /* \"#utility.yul\":4429:4436   */\n      0x00\n        /* \"#utility.yul\":4469:4511   */\n      0xffffffffffffffffffffffffffffffffffffffff\n        /* \"#utility.yul\":4462:4467   */\n      dup3\n        /* \"#utility.yul\":4458:4512   */\n      and\n        /* \"#utility.yul\":4447:4512   */\n      swap1\n      pop\n        /* \"#utility.yul\":4392:4518   */\n      swap2\n      swap1\n      pop\n      jump\t// out\n        /* \"#utility.yul\":4524:4620   */\n    tag_230:\n        /* \"#utility.yul\":4561:4568   */\n      0x00\n        /* \"#utility.yul\":4590:4614   */\n      tag_311\n        /* \"#utility.yul\":4608:4613   */\n      dup3\n        /* \"#utility.yul\":4590:4614   */\n      tag_229\n      jump\t// in\n    tag_311:\n        /* \"#utility.yul\":4579:4614   */\n      swap1\n      pop\n        /* \"#utility.yul\":4524:4620   */\n      swap2\n      swap1\n      pop\n      jump\t// out\n        /* \"#utility.yul\":4626:4748   */\n    tag_231:\n        /* \"#utility.yul\":4699:4723   */\n      tag_313\n        /* \"#utility.yul\":4717:4722   */\n      dup2\n        /* \"#utility.yul\":4699:4723   */\n      tag_230\n      jump\t// in\n    tag_313:\n        /* \"#utility.yul\":4692:4697   */\n      dup2\n        /* \"#utility.yul\":4689:4724   */\n      eq\n        /* \"#utility.yul\":4679:4742   */\n      tag_314\n      jumpi\n        /* \"#utility.yul\":4738:4739   */\n      0x00\n        /* \"#utility.yul\":4735:4736   */\n      dup1\n        /* \"#utility.yul\":4728:4740   */\n      revert\n        /* \"#utility.yul\":4679:4742   */\n    tag_314:\n        /* \"#utility.yul\":4626:4748   */\n      pop\n      jump\t// out\n        /* \"#utility.yul\":4754:4893   */\n    tag_232:\n        /* \"#utility.yul\":4800:4805   */\n      0x00\n        /* \"#utility.yul\":4838:4844   */\n      dup2\n        /* \"#utility.yul\":4825:4845   */\n      calldataload\n        /* \"#utility.yul\":4816:4845   */\n      swap1\n      pop\n        /* \"#utility.yul\":4854:4887   */\n      tag_316\n        /* \"#utility.yul\":4881:4886   */\n      dup2\n        /* \"#utility.yul\":4854:4887   */\n      tag_231\n      jump\t// in\n    tag_316:\n        /* \"#utility.yul\":4754:4893   */\n      swap3\n      swap2\n      pop\n      pop\n      jump\t// out\n        /* \"#utility.yul\":4899:5373   */\n    tag_48:\n        /* \"#utility.yul\":4967:4973   */\n      0x00\n        /* \"#utility.yul\":4975:4981   */\n      dup1\n        /* \"#utility.yul\":5024:5026   */\n      0x40\n        /* \"#utility.yul\":5012:5021   */\n      dup4\n        /* \"#utility.yul\":5003:5010   */\n      dup6\n        /* \"#utility.yul\":4999:5022   */\n      sub\n        /* \"#utility.yul\":4995:5027   */\n      slt\n        /* \"#utility.yul\":4992:5111   */\n      iszero\n      tag_318\n      jumpi\n        /* \"#utility.yul\":5030:5109   */\n      tag_319\n      tag_215\n      jump\t// in\n    tag_319:\n        /* \"#utility.yul\":4992:5111   */\n    tag_318:\n        /* \"#utility.yul\":5150:5151   */\n      0x00\n        /* \"#utility.yul\":5175:5228   */\n      tag_320\n        /* \"#utility.yul\":5220:5227   */\n      dup6\n        /* \"#utility.yul\":5211:5217   */\n      dup3\n        /* \"#utility.yul\":5200:5209   */\n      dup7\n        /* \"#utility.yul\":5196:5218   */\n      add\n        /* \"#utility.yul\":5175:5228   */\n      tag_224\n      jump\t// in\n    tag_320:\n        /* \"#utility.yul\":5165:5228   */\n      swap3\n      pop\n        /* \"#utility.yul\":5121:5238   */\n      pop\n        /* \"#utility.yul\":5277:5279   */\n      0x20\n        /* \"#utility.yul\":5303:5356   */\n      tag_321\n        /* \"#utility.yul\":5348:5355   */\n      dup6\n        /* \"#utility.yul\":5339:5345   */\n      dup3\n        /* \"#utility.yul\":5328:5337   */\n      dup7\n        /* \"#utility.yul\":5324:5346   */\n      add\n        /* \"#utility.yul\":5303:5356   */\n      tag_232\n      jump\t// in\n    tag_321:\n        /* \"#utility.yul\":5293:5356   */\n      swap2\n      pop\n        /* \"#utility.yul\":5248:5366   */\n      pop\n        /* \"#utility.yul\":4899:5373   */\n      swap3\n      pop\n      swap3\n      swap1\n      pop\n      jump\t// out\n        /* \"#utility.yul\":5379:5548   */\n    tag_233:\n        /* \"#utility.yul\":5519:5536   */\n      0x49434f206973206f766572203a28200000000000000000000000000000000000\n        /* \"#utility.yul\":5515:5516   */\n      0x00\n        /* \"#utility.yul\":5507:5513   */\n      dup3\n        /* \"#utility.yul\":5503:5517   */\n      add\n        /* \"#utility.yul\":5496:5537   */\n      mstore\n        /* \"#utility.yul\":5379:5548   */\n      pop\n      jump\t// out\n        /* \"#utility.yul\":5558:5940   */\n    tag_234:\n        /* \"#utility.yul\":5700:5703   */\n      0x00\n        /* \"#utility.yul\":5725:5792   */\n      tag_324\n        /* \"#utility.yul\":5789:5791   */\n      0x0f\n        /* \"#utility.yul\":5784:5787   */\n      dup4\n        /* \"#utility.yul\":5725:5792   */\n      tag_211\n      jump\t// in\n    tag_324:\n        /* \"#utility.yul\":5718:5792   */\n      swap2\n      pop\n        /* \"#utility.yul\":5805:5898   */\n      tag_325\n        /* \"#utility.yul\":5894:5897   */\n      dup3\n        /* \"#utility.yul\":5805:5898   */\n      tag_233\n      jump\t// in\n    tag_325:\n        /* \"#utility.yul\":5927:5929   */\n      0x20\n        /* \"#utility.yul\":5922:5925   */\n      dup3\n        /* \"#utility.yul\":5918:5930   */\n      add\n        /* \"#utility.yul\":5911:5930   */\n      swap1\n      pop\n        /* \"#utility.yul\":5558:5940   */\n      swap2\n      swap1\n      pop\n      jump\t// out\n        /* \"#utility.yul\":5950:6385   */\n    tag_79:\n        /* \"#utility.yul\":6116:6120   */\n      0x00\n        /* \"#utility.yul\":6158:6160   */\n      0x20\n        /* \"#utility.yul\":6147:6156   */\n      dup3\n        /* \"#utility.yul\":6143:6161   */\n      add\n        /* \"#utility.yul\":6135:6161   */\n      swap1\n      pop\n        /* \"#utility.yul\":6211:6220   */\n      dup2\n        /* \"#utility.yul\":6205:6209   */\n      dup2\n        /* \"#utility.yul\":6201:6221   */\n      sub\n        /* \"#utility.yul\":6197:6198   */\n      0x00\n        /* \"#utility.yul\":6186:6195   */\n      dup4\n        /* \"#utility.yul\":6182:6199   */\n      add\n        /* \"#utility.yul\":6175:6222   */\n      mstore\n        /* \"#utility.yul\":6243:6374   */\n      tag_327\n        /* \"#utility.yul\":6369:6373   */\n      dup2\n        /* \"#utility.yul\":6243:6374   */\n      tag_234\n      jump\t// in\n    tag_327:\n        /* \"#utility.yul\":6235:6374   */\n      swap1\n      pop\n        /* \"#utility.yul\":5950:6385   */\n      swap2\n      swap1\n      pop\n      jump\t// out\n        /* \"#utility.yul\":6395:6580   */\n    tag_235:\n        /* \"#utility.yul\":6539:6568   */\n      0x7468656d2f7468657920706c656173652073656e64206d657469730000000000\n        /* \"#utility.yul\":6535:6536   */\n      0x00\n        /* \"#utility.yul\":6527:6533   */\n      dup3\n        /* \"#utility.yul\":6523:6537   */\n      add\n        /* \"#utility.yul\":6516:6569   */\n      mstore\n        /* \"#utility.yul\":6395:6580   */\n      pop\n      jump\t// out\n        /* \"#utility.yul\":6590:6972   */\n    tag_236:\n        /* \"#utility.yul\":6732:6735   */\n      0x00\n        /* \"#utility.yul\":6757:6824   */\n      tag_330\n        /* \"#utility.yul\":6821:6823   */\n      0x1b\n        /* \"#utility.yul\":6816:6819   */\n      dup4\n        /* \"#utility.yul\":6757:6824   */\n      tag_211\n      jump\t// in\n    tag_330:\n        /* \"#utility.yul\":6750:6824   */\n      swap2\n      pop\n        /* \"#utility.yul\":6837:6930   */\n      tag_331\n        /* \"#utility.yul\":6926:6929   */\n      dup3\n        /* \"#utility.yul\":6837:6930   */\n      tag_235\n      jump\t// in\n    tag_331:\n        /* \"#utility.yul\":6959:6961   */\n      0x20\n        /* \"#utility.yul\":6954:6957   */\n      dup3\n        /* \"#utility.yul\":6950:6962   */\n      add\n        /* \"#utility.yul\":6943:6962   */\n      swap1\n      pop\n        /* \"#utility.yul\":6590:6972   */\n      swap2\n      swap1\n      pop\n      jump\t// out\n        /* \"#utility.yul\":6982:7417   */\n    tag_83:\n        /* \"#utility.yul\":7148:7152   */\n      0x00\n        /* \"#utility.yul\":7190:7192   */\n      0x20\n        /* \"#utility.yul\":7179:7188   */\n      dup3\n        /* \"#utility.yul\":7175:7193   */\n      add\n        /* \"#utility.yul\":7167:7193   */\n      swap1\n      pop\n        /* \"#utility.yul\":7243:7252   */\n      dup2\n        /* \"#utility.yul\":7237:7241   */\n      dup2\n        /* \"#utility.yul\":7233:7253   */\n      sub\n        /* \"#utility.yul\":7229:7230   */\n      0x00\n        /* \"#utility.yul\":7218:7227   */\n      dup4\n        /* \"#utility.yul\":7214:7231   */\n      add\n        /* \"#utility.yul\":7207:7254   */\n      mstore\n        /* \"#utility.yul\":7275:7406   */\n      tag_333\n        /* \"#utility.yul\":7401:7405   */\n      dup2\n        /* \"#utility.yul\":7275:7406   */\n      tag_236\n      jump\t// in\n    tag_333:\n        /* \"#utility.yul\":7267:7406   */\n      swap1\n      pop\n        /* \"#utility.yul\":6982:7417   */\n      swap2\n      swap1\n      pop\n      jump\t// out\n        /* \"#utility.yul\":7427:7623   */\n    tag_237:\n        /* \"#utility.yul\":7479:7556   */\n      0x4e487b7100000000000000000000000000000000000000000000000000000000\n        /* \"#utility.yul\":7476:7477   */\n      0x00\n        /* \"#utility.yul\":7469:7557   */\n      mstore\n        /* \"#utility.yul\":7580:7584   */\n      0x11\n        /* \"#utility.yul\":7577:7578   */\n      0x04\n        /* \"#utility.yul\":7570:7585   */\n      mstore\n        /* \"#utility.yul\":7608:7612   */\n      0x24\n        /* \"#utility.yul\":7605:7606   */\n      0x00\n        /* \"#utility.yul\":7598:7613   */\n      revert\n        /* \"#utility.yul\":7633:7844   */\n    tag_87:\n        /* \"#utility.yul\":7673:7676   */\n      0x00\n        /* \"#utility.yul\":7696:7716   */\n      tag_336\n        /* \"#utility.yul\":7714:7715   */\n      dup3\n        /* \"#utility.yul\":7696:7716   */\n      tag_226\n      jump\t// in\n    tag_336:\n        /* \"#utility.yul\":7691:7716   */\n      swap2\n      pop\n        /* \"#utility.yul\":7734:7754   */\n      tag_337\n        /* \"#utility.yul\":7752:7753   */\n      dup4\n        /* \"#utility.yul\":7734:7754   */\n      tag_226\n      jump\t// in\n    tag_337:\n        /* \"#utility.yul\":7729:7754   */\n      swap3\n      pop\n        /* \"#utility.yul\":7781:7782   */\n      dup3\n        /* \"#utility.yul\":7778:7779   */\n      dup3\n        /* \"#utility.yul\":7774:7783   */\n      add\n        /* \"#utility.yul\":7767:7783   */\n      swap1\n      pop\n        /* \"#utility.yul\":7806:7809   */\n      dup1\n        /* \"#utility.yul\":7803:7804   */\n      dup3\n        /* \"#utility.yul\":7800:7810   */\n      gt\n        /* \"#utility.yul\":7797:7833   */\n      iszero\n      tag_338\n      jumpi\n        /* \"#utility.yul\":7813:7831   */\n      tag_339\n      tag_237\n      jump\t// in\n    tag_339:\n        /* \"#utility.yul\":7797:7833   */\n    tag_338:\n        /* \"#utility.yul\":7633:7844   */\n      swap3\n      swap2\n      pop\n      pop\n      jump\t// out\n        /* \"#utility.yul\":7854:8038   */\n    tag_238:\n        /* \"#utility.yul\":7998:8026   */\n      0x657863656564732074686520746f74616c20666f722073616c65000000000000\n        /* \"#utility.yul\":7994:7995   */\n      0x00\n        /* \"#utility.yul\":7986:7992   */\n      dup3\n        /* \"#utility.yul\":7982:7996   */\n      add\n        /* \"#utility.yul\":7975:8027   */\n      mstore\n        /* \"#utility.yul\":7854:8038   */\n      pop\n      jump\t// out\n        /* \"#utility.yul\":8048:8430   */\n    tag_239:\n        /* \"#utility.yul\":8190:8193   */\n      0x00\n        /* \"#utility.yul\":8215:8282   */\n      tag_342\n        /* \"#utility.yul\":8279:8281   */\n      0x1a\n        /* \"#utility.yul\":8274:8277   */\n      dup4\n        /* \"#utility.yul\":8215:8282   */\n      tag_211\n      jump\t// in\n    tag_342:\n        /* \"#utility.yul\":8208:8282   */\n      swap2\n      pop\n        /* \"#utility.yul\":8295:8388   */\n      tag_343\n        /* \"#utility.yul\":8384:8387   */\n      dup3\n        /* \"#utility.yul\":8295:8388   */\n      tag_238\n      jump\t// in\n    tag_343:\n        /* \"#utility.yul\":8417:8419   */\n      0x20\n        /* \"#utility.yul\":8412:8415   */\n      dup3\n        /* \"#utility.yul\":8408:8420   */\n      add\n        /* \"#utility.yul\":8401:8420   */\n      swap1\n      pop\n        /* \"#utility.yul\":8048:8430   */\n      swap2\n      swap1\n      pop\n      jump\t// out\n        /* \"#utility.yul\":8440:8875   */\n    tag_90:\n        /* \"#utility.yul\":8606:8610   */\n      0x00\n        /* \"#utility.yul\":8648:8650   */\n      0x20\n        /* \"#utility.yul\":8637:8646   */\n      dup3\n        /* \"#utility.yul\":8633:8651   */\n      add\n        /* \"#utility.yul\":8625:8651   */\n      swap1\n      pop\n        /* \"#utility.yul\":8701:8710   */\n      dup2\n        /* \"#utility.yul\":8695:8699   */\n      dup2\n        /* \"#utility.yul\":8691:8711   */\n      sub\n        /* \"#utility.yul\":8687:8688   */\n      0x00\n        /* \"#utility.yul\":8676:8685   */\n      dup4\n        /* \"#utility.yul\":8672:8689   */\n      add\n        /* \"#utility.yul\":8665:8712   */\n      mstore\n        /* \"#utility.yul\":8733:8864   */\n      tag_345\n        /* \"#utility.yul\":8859:8863   */\n      dup2\n        /* \"#utility.yul\":8733:8864   */\n      tag_239\n      jump\t// in\n    tag_345:\n        /* \"#utility.yul\":8725:8864   */\n      swap1\n      pop\n        /* \"#utility.yul\":8440:8875   */\n      swap2\n      swap1\n      pop\n      jump\t// out\n        /* \"#utility.yul\":8885:9011   */\n    tag_240:\n        /* \"#utility.yul\":8976:9000   */\n      tag_347\n        /* \"#utility.yul\":8994:8999   */\n      dup2\n        /* \"#utility.yul\":8976:9000   */\n      tag_230\n      jump\t// in\n    tag_347:\n        /* \"#utility.yul\":8971:8974   */\n      dup3\n        /* \"#utility.yul\":8964:9001   */\n      mstore\n        /* \"#utility.yul\":8885:9011   */\n      pop\n      pop\n      jump\t// out\n        /* \"#utility.yul\":9021:9369   */\n    tag_92:\n        /* \"#utility.yul\":9142:9146   */\n      0x00\n        /* \"#utility.yul\":9184:9186   */\n      0x40\n        /* \"#utility.yul\":9173:9182   */\n      dup3\n        /* \"#utility.yul\":9169:9187   */\n      add\n        /* \"#utility.yul\":9161:9187   */\n      swap1\n      pop\n        /* \"#utility.yul\":9201:9272   */\n      tag_349\n        /* \"#utility.yul\":9269:9270   */\n      0x00\n        /* \"#utility.yul\":9258:9267   */\n      dup4\n        /* \"#utility.yul\":9254:9271   */\n      add\n        /* \"#utility.yul\":9245:9251   */\n      dup6\n        /* \"#utility.yul\":9201:9272   */\n      tag_240\n      jump\t// in\n    tag_349:\n        /* \"#utility.yul\":9286:9358   */\n      tag_350\n        /* \"#utility.yul\":9354:9356   */\n      0x20\n        /* \"#utility.yul\":9343:9352   */\n      dup4\n        /* \"#utility.yul\":9339:9357   */\n      add\n        /* \"#utility.yul\":9330:9336   */\n      dup5\n        /* \"#utility.yul\":9286:9358   */\n      tag_240\n      jump\t// in\n    tag_350:\n        /* \"#utility.yul\":9021:9369   */\n      swap4\n      swap3\n      pop\n      pop\n      pop\n      jump\t// out\n        /* \"#utility.yul\":9379:9534   */\n    tag_241:\n        /* \"#utility.yul\":9436:9441   */\n      0x00\n        /* \"#utility.yul\":9471:9477   */\n      dup2\n        /* \"#utility.yul\":9465:9478   */\n      mload\n        /* \"#utility.yul\":9456:9478   */\n      swap1\n      pop\n        /* \"#utility.yul\":9491:9524   */\n      tag_352\n        /* \"#utility.yul\":9518:9523   */\n      dup2\n        /* \"#utility.yul\":9491:9524   */\n      tag_227\n      jump\t// in\n    tag_352:\n        /* \"#utility.yul\":9379:9534   */\n      swap3\n      swap2\n      pop\n      pop\n      jump\t// out\n        /* \"#utility.yul\":9544:9919   */\n    tag_96:\n        /* \"#utility.yul\":9614:9620   */\n      0x00\n        /* \"#utility.yul\":9667:9669   */\n      0x20\n        /* \"#utility.yul\":9655:9664   */\n      dup3\n        /* \"#utility.yul\":9646:9653   */\n      dup5\n        /* \"#utility.yul\":9642:9665   */\n      sub\n        /* \"#utility.yul\":9638:9670   */\n      slt\n        /* \"#utility.yul\":9635:9754   */\n      iszero\n      tag_354\n      jumpi\n        /* \"#utility.yul\":9673:9752   */\n      tag_355\n      tag_215\n      jump\t// in\n    tag_355:\n        /* \"#utility.yul\":9635:9754   */\n    tag_354:\n        /* \"#utility.yul\":9801:9802   */\n      0x00\n        /* \"#utility.yul\":9830:9894   */\n      tag_356\n        /* \"#utility.yul\":9886:9893   */\n      dup5\n        /* \"#utility.yul\":9877:9883   */\n      dup3\n        /* \"#utility.yul\":9866:9875   */\n      dup6\n        /* \"#utility.yul\":9862:9884   */\n      add\n        /* \"#utility.yul\":9830:9894   */\n      tag_241\n      jump\t// in\n    tag_356:\n        /* \"#utility.yul\":9820:9894   */\n      swap2\n      pop\n        /* \"#utility.yul\":9768:9908   */\n      pop\n        /* \"#utility.yul\":9544:9919   */\n      swap3\n      swap2\n      pop\n      pop\n      jump\t// out\n        /* \"#utility.yul\":9929:10055   */\n    tag_242:\n        /* \"#utility.yul\":10020:10044   */\n      tag_358\n        /* \"#utility.yul\":10038:10043   */\n      dup2\n        /* \"#utility.yul\":10020:10044   */\n      tag_226\n      jump\t// in\n    tag_358:\n        /* \"#utility.yul\":10015:10018   */\n      dup3\n        /* \"#utility.yul\":10008:10045   */\n      mstore\n        /* \"#utility.yul\":9929:10055   */\n      pop\n      pop\n      jump\t// out\n        /* \"#utility.yul\":10065:10413   */\n    tag_98:\n        /* \"#utility.yul\":10186:10190   */\n      0x00\n        /* \"#utility.yul\":10228:10230   */\n      0x40\n        /* \"#utility.yul\":10217:10226   */\n      dup3\n        /* \"#utility.yul\":10213:10231   */\n      add\n        /* \"#utility.yul\":10205:10231   */\n      swap1\n      pop\n        /* \"#utility.yul\":10245:10316   */\n      tag_360\n        /* \"#utility.yul\":10313:10314   */\n      0x00\n        /* \"#utility.yul\":10302:10311   */\n      dup4\n        /* \"#utility.yul\":10298:10315   */\n      add\n        /* \"#utility.yul\":10289:10295   */\n      dup6\n        /* \"#utility.yul\":10245:10316   */\n      tag_240\n      jump\t// in\n    tag_360:\n        /* \"#utility.yul\":10330:10402   */\n      tag_361\n        /* \"#utility.yul\":10398:10400   */\n      0x20\n        /* \"#utility.yul\":10387:10396   */\n      dup4\n        /* \"#utility.yul\":10383:10401   */\n      add\n        /* \"#utility.yul\":10374:10380   */\n      dup5\n        /* \"#utility.yul\":10330:10402   */\n      tag_242\n      jump\t// in\n    tag_361:\n        /* \"#utility.yul\":10065:10413   */\n      swap4\n      swap3\n      pop\n      pop\n      pop\n      jump\t// out\n        /* \"#utility.yul\":10423:10547   */\n    tag_243:\n        /* \"#utility.yul\":10497:10518   */\n      tag_363\n        /* \"#utility.yul\":10512:10517   */\n      dup2\n        /* \"#utility.yul\":10497:10518   */\n      tag_220\n      jump\t// in\n    tag_363:\n        /* \"#utility.yul\":10490:10495   */\n      dup2\n        /* \"#utility.yul\":10487:10519   */\n      eq\n        /* \"#utility.yul\":10477:10537   */\n      tag_364\n      jumpi\n        /* \"#utility.yul\":10533:10534   */\n      0x00\n        /* \"#utility.yul\":10530:10531   */\n      dup1\n        /* \"#utility.yul\":10523:10535   */\n      revert\n        /* \"#utility.yul\":10477:10537   */\n    tag_364:\n        /* \"#utility.yul\":10423:10547   */\n      pop\n      jump\t// out\n        /* \"#utility.yul\":10557:10706   */\n    tag_244:\n        /* \"#utility.yul\":10611:10616   */\n      0x00\n        /* \"#utility.yul\":10646:10652   */\n      dup2\n        /* \"#utility.yul\":10640:10653   */\n      mload\n        /* \"#utility.yul\":10631:10653   */\n      swap1\n      pop\n        /* \"#utility.yul\":10666:10696   */\n      tag_366\n        /* \"#utility.yul\":10690:10695   */\n      dup2\n        /* \"#utility.yul\":10666:10696   */\n      tag_243\n      jump\t// in\n    tag_366:\n        /* \"#utility.yul\":10557:10706   */\n      swap3\n      swap2\n      pop\n      pop\n      jump\t// out\n        /* \"#utility.yul\":10716:11085   */\n    tag_102:\n        /* \"#utility.yul\":10783:10789   */\n      0x00\n        /* \"#utility.yul\":10836:10838   */\n      0x20\n        /* \"#utility.yul\":10824:10833   */\n      dup3\n        /* \"#utility.yul\":10815:10822   */\n      dup5\n        /* \"#utility.yul\":10811:10834   */\n      sub\n        /* \"#utility.yul\":10807:10839   */\n      slt\n        /* \"#utility.yul\":10804:10923   */\n      iszero\n      tag_368\n      jumpi\n        /* \"#utility.yul\":10842:10921   */\n      tag_369\n      tag_215\n      jump\t// in\n    tag_369:\n        /* \"#utility.yul\":10804:10923   */\n    tag_368:\n        /* \"#utility.yul\":10970:10971   */\n      0x00\n        /* \"#utility.yul\":10999:11060   */\n      tag_370\n        /* \"#utility.yul\":11052:11059   */\n      dup5\n        /* \"#utility.yul\":11043:11049   */\n      dup3\n        /* \"#utility.yul\":11032:11041   */\n      dup6\n        /* \"#utility.yul\":11028:11050   */\n      add\n        /* \"#utility.yul\":10999:11060   */\n      tag_244\n      jump\t// in\n    tag_370:\n        /* \"#utility.yul\":10989:11060   */\n      swap2\n      pop\n        /* \"#utility.yul\":10937:11074   */\n      pop\n        /* \"#utility.yul\":10716:11085   */\n      swap3\n      swap2\n      pop\n      pop\n      jump\t// out\n        /* \"#utility.yul\":11095:11329   */\n    tag_105:\n        /* \"#utility.yul\":11188:11192   */\n      0x00\n        /* \"#utility.yul\":11230:11232   */\n      0x20\n        /* \"#utility.yul\":11219:11228   */\n      dup3\n        /* \"#utility.yul\":11215:11233   */\n      add\n        /* \"#utility.yul\":11207:11233   */\n      swap1\n      pop\n        /* \"#utility.yul\":11247:11318   */\n      tag_372\n        /* \"#utility.yul\":11315:11316   */\n      0x00\n        /* \"#utility.yul\":11304:11313   */\n      dup4\n        /* \"#utility.yul\":11300:11317   */\n      add\n        /* \"#utility.yul\":11291:11297   */\n      dup5\n        /* \"#utility.yul\":11247:11318   */\n      tag_242\n      jump\t// in\n    tag_372:\n        /* \"#utility.yul\":11095:11329   */\n      swap3\n      swap2\n      pop\n      pop\n      jump\t// out\n        /* \"#utility.yul\":11339:11585   */\n    tag_245:\n        /* \"#utility.yul\":11483:11517   */\n      0x416363657373436f6e74726f6c3a2063616e206f6e6c792072656e6f756e6365\n        /* \"#utility.yul\":11479:11480   */\n      0x00\n        /* \"#utility.yul\":11471:11477   */\n      dup3\n        /* \"#utility.yul\":11467:11481   */\n      add\n        /* \"#utility.yul\":11460:11518   */\n      mstore\n        /* \"#utility.yul\":11556:11573   */\n      0x20726f6c657320666f722073656c660000000000000000000000000000000000\n        /* \"#utility.yul\":11551:11553   */\n      0x20\n        /* \"#utility.yul\":11543:11549   */\n      dup3\n        /* \"#utility.yul\":11539:11554   */\n      add\n        /* \"#utility.yul\":11532:11574   */\n      mstore\n        /* \"#utility.yul\":11339:11585   */\n      pop\n      jump\t// out\n        /* \"#utility.yul\":11595:11977   */\n    tag_246:\n        /* \"#utility.yul\":11737:11740   */\n      0x00\n        /* \"#utility.yul\":11762:11829   */\n      tag_375\n        /* \"#utility.yul\":11826:11828   */\n      0x2f\n        /* \"#utility.yul\":11821:11824   */\n      dup4\n        /* \"#utility.yul\":11762:11829   */\n      tag_211\n      jump\t// in\n    tag_375:\n        /* \"#utility.yul\":11755:11829   */\n      swap2\n      pop\n        /* \"#utility.yul\":11842:11935   */\n      tag_376\n        /* \"#utility.yul\":11931:11934   */\n      dup3\n        /* \"#utility.yul\":11842:11935   */\n      tag_245\n      jump\t// in\n    tag_376:\n        /* \"#utility.yul\":11964:11966   */\n      0x40\n        /* \"#utility.yul\":11959:11962   */\n      dup3\n        /* \"#utility.yul\":11955:11967   */\n      add\n        /* \"#utility.yul\":11948:11967   */\n      swap1\n      pop\n        /* \"#utility.yul\":11595:11977   */\n      swap2\n      swap1\n      pop\n      jump\t// out\n        /* \"#utility.yul\":11987:12422   */\n    tag_137:\n        /* \"#utility.yul\":12153:12157   */\n      0x00\n        /* \"#utility.yul\":12195:12197   */\n      0x20\n        /* \"#utility.yul\":12184:12193   */\n      dup3\n        /* \"#utility.yul\":12180:12198   */\n      add\n        /* \"#utility.yul\":12172:12198   */\n      swap1\n      pop\n        /* \"#utility.yul\":12248:12257   */\n      dup2\n        /* \"#utility.yul\":12242:12246   */\n      dup2\n        /* \"#utility.yul\":12238:12258   */\n      sub\n        /* \"#utility.yul\":12234:12235   */\n      0x00\n        /* \"#utility.yul\":12223:12232   */\n      dup4\n        /* \"#utility.yul\":12219:12236   */\n      add\n        /* \"#utility.yul\":12212:12259   */\n      mstore\n        /* \"#utility.yul\":12280:12411   */\n      tag_378\n        /* \"#utility.yul\":12406:12410   */\n      dup2\n        /* \"#utility.yul\":12280:12411   */\n      tag_246\n      jump\t// in\n    tag_378:\n        /* \"#utility.yul\":12272:12411   */\n      swap1\n      pop\n        /* \"#utility.yul\":11987:12422   */\n      swap2\n      swap1\n      pop\n      jump\t// out\n        /* \"#utility.yul\":12432:12890   */\n    tag_171:\n        /* \"#utility.yul\":12472:12479   */\n      0x00\n        /* \"#utility.yul\":12499:12519   */\n      tag_380\n        /* \"#utility.yul\":12517:12518   */\n      dup3\n        /* \"#utility.yul\":12499:12519   */\n      tag_226\n      jump\t// in\n    tag_380:\n        /* \"#utility.yul\":12494:12519   */\n      swap2\n      pop\n        /* \"#utility.yul\":12537:12557   */\n      tag_381\n        /* \"#utility.yul\":12555:12556   */\n      dup4\n        /* \"#utility.yul\":12537:12557   */\n      tag_226\n      jump\t// in\n    tag_381:\n        /* \"#utility.yul\":12532:12557   */\n      swap3\n      pop\n        /* \"#utility.yul\":12596:12597   */\n      dup3\n        /* \"#utility.yul\":12593:12594   */\n      dup3\n        /* \"#utility.yul\":12589:12598   */\n      mul\n        /* \"#utility.yul\":12622:12652   */\n      tag_382\n        /* \"#utility.yul\":12640:12651   */\n      dup2\n        /* \"#utility.yul\":12622:12652   */\n      tag_226\n      jump\t// in\n    tag_382:\n        /* \"#utility.yul\":12611:12652   */\n      swap2\n      pop\n        /* \"#utility.yul\":12821:12822   */\n      dup3\n        /* \"#utility.yul\":12812:12819   */\n      dup3\n        /* \"#utility.yul\":12808:12823   */\n      div\n        /* \"#utility.yul\":12805:12806   */\n      dup5\n        /* \"#utility.yul\":12802:12824   */\n      eq\n        /* \"#utility.yul\":12778:12779   */\n      dup4\n        /* \"#utility.yul\":12771:12780   */\n      iszero\n        /* \"#utility.yul\":12747:12842   */\n      or\n        /* \"#utility.yul\":12720:12879   */\n      tag_383\n      jumpi\n        /* \"#utility.yul\":12859:12877   */\n      tag_384\n      tag_237\n      jump\t// in\n    tag_384:\n        /* \"#utility.yul\":12720:12879   */\n    tag_383:\n        /* \"#utility.yul\":12480:12890   */\n      pop\n        /* \"#utility.yul\":12432:12890   */\n      swap3\n      swap2\n      pop\n      pop\n      jump\t// out\n        /* \"#utility.yul\":12900:13056   */\n    tag_247:\n        /* \"#utility.yul\":13002:13013   */\n      0x00\n        /* \"#utility.yul\":13043:13046   */\n      dup2\n        /* \"#utility.yul\":13028:13046   */\n      swap1\n      pop\n        /* \"#utility.yul\":12900:13056   */\n      swap3\n      swap2\n      pop\n      pop\n      jump\t// out\n        /* \"#utility.yul\":13066:13247   */\n    tag_248:\n        /* \"#utility.yul\":13210:13235   */\n      0x416363657373436f6e74726f6c3a206163636f756e7420000000000000000000\n        /* \"#utility.yul\":13206:13207   */\n      0x00\n        /* \"#utility.yul\":13198:13204   */\n      dup3\n        /* \"#utility.yul\":13194:13208   */\n      add\n        /* \"#utility.yul\":13187:13236   */\n      mstore\n        /* \"#utility.yul\":13066:13247   */\n      pop\n      jump\t// out\n        /* \"#utility.yul\":13257:13675   */\n    tag_249:\n        /* \"#utility.yul\":13417:13420   */\n      0x00\n        /* \"#utility.yul\":13442:13527   */\n      tag_388\n        /* \"#utility.yul\":13524:13526   */\n      0x17\n        /* \"#utility.yul\":13519:13522   */\n      dup4\n        /* \"#utility.yul\":13442:13527   */\n      tag_247\n      jump\t// in\n    tag_388:\n        /* \"#utility.yul\":13435:13527   */\n      swap2\n      pop\n        /* \"#utility.yul\":13540:13633   */\n      tag_389\n        /* \"#utility.yul\":13629:13632   */\n      dup3\n        /* \"#utility.yul\":13540:13633   */\n      tag_248\n      jump\t// in\n    tag_389:\n        /* \"#utility.yul\":13662:13664   */\n      0x17\n        /* \"#utility.yul\":13657:13660   */\n      dup3\n        /* \"#utility.yul\":13653:13665   */\n      add\n        /* \"#utility.yul\":13646:13665   */\n      swap1\n      pop\n        /* \"#utility.yul\":13257:13675   */\n      swap2\n      swap1\n      pop\n      jump\t// out\n        /* \"#utility.yul\":13685:13792   */\n    tag_250:\n        /* \"#utility.yul\":13737:13743   */\n      0x00\n        /* \"#utility.yul\":13775:13780   */\n      dup2\n        /* \"#utility.yul\":13769:13781   */\n      mload\n        /* \"#utility.yul\":13759:13781   */\n      swap1\n      pop\n        /* \"#utility.yul\":13685:13792   */\n      swap2\n      swap1\n      pop\n      jump\t// out\n        /* \"#utility.yul\":13802:14076   */\n    tag_251:\n        /* \"#utility.yul\":13887:13888   */\n      0x00\n        /* \"#utility.yul\":13901:14026   */\n    tag_392:\n        /* \"#utility.yul\":13915:13921   */\n      dup4\n        /* \"#utility.yul\":13912:13913   */\n      dup2\n        /* \"#utility.yul\":13909:13922   */\n      lt\n        /* \"#utility.yul\":13901:14026   */\n      iszero\n      tag_394\n      jumpi\n        /* \"#utility.yul\":14008:14009   */\n      dup1\n        /* \"#utility.yul\":14003:14006   */\n      dup3\n        /* \"#utility.yul\":13999:14010   */\n      add\n        /* \"#utility.yul\":13993:14011   */\n      mload\n        /* \"#utility.yul\":13989:13990   */\n      dup2\n        /* \"#utility.yul\":13984:13987   */\n      dup5\n        /* \"#utility.yul\":13980:13991   */\n      add\n        /* \"#utility.yul\":13973:14012   */\n      mstore\n        /* \"#utility.yul\":13937:13939   */\n      0x20\n        /* \"#utility.yul\":13934:13935   */\n      dup2\n        /* \"#utility.yul\":13930:13940   */\n      add\n        /* \"#utility.yul\":13925:13940   */\n      swap1\n      pop\n        /* \"#utility.yul\":13901:14026   */\n      jump(tag_392)\n    tag_394:\n        /* \"#utility.yul\":14064:14065   */\n      0x00\n        /* \"#utility.yul\":14055:14061   */\n      dup5\n        /* \"#utility.yul\":14050:14053   */\n      dup5\n        /* \"#utility.yul\":14046:14062   */\n      add\n        /* \"#utility.yul\":14039:14066   */\n      mstore\n        /* \"#utility.yul\":13864:14076   */\n      pop\n        /* \"#utility.yul\":13802:14076   */\n      pop\n      pop\n      pop\n      jump\t// out\n        /* \"#utility.yul\":14086:14496   */\n    tag_252:\n        /* \"#utility.yul\":14192:14195   */\n      0x00\n        /* \"#utility.yul\":14224:14263   */\n      tag_396\n        /* \"#utility.yul\":14257:14262   */\n      dup3\n        /* \"#utility.yul\":14224:14263   */\n      tag_250\n      jump\t// in\n    tag_396:\n        /* \"#utility.yul\":14283:14372   */\n      tag_397\n        /* \"#utility.yul\":14365:14371   */\n      dup2\n        /* \"#utility.yul\":14360:14363   */\n      dup6\n        /* \"#utility.yul\":14283:14372   */\n      tag_247\n      jump\t// in\n    tag_397:\n        /* \"#utility.yul\":14276:14372   */\n      swap4\n      pop\n        /* \"#utility.yul\":14385:14450   */\n      tag_398\n        /* \"#utility.yul\":14443:14449   */\n      dup2\n        /* \"#utility.yul\":14438:14441   */\n      dup6\n        /* \"#utility.yul\":14431:14435   */\n      0x20\n        /* \"#utility.yul\":14424:14429   */\n      dup7\n        /* \"#utility.yul\":14420:14436   */\n      add\n        /* \"#utility.yul\":14385:14450   */\n      tag_251\n      jump\t// in\n    tag_398:\n        /* \"#utility.yul\":14479:14485   */\n      dup1\n        /* \"#utility.yul\":14474:14477   */\n      dup5\n        /* \"#utility.yul\":14470:14486   */\n      add\n        /* \"#utility.yul\":14463:14486   */\n      swap2\n      pop\n        /* \"#utility.yul\":14196:14496   */\n      pop\n        /* \"#utility.yul\":14086:14496   */\n      swap3\n      swap2\n      pop\n      pop\n      jump\t// out\n        /* \"#utility.yul\":14506:14681   */\n    tag_253:\n        /* \"#utility.yul\":14650:14669   */\n      0x206973206d697373696e6720726f6c6520000000000000000000000000000000\n        /* \"#utility.yul\":14646:14647   */\n      0x00\n        /* \"#utility.yul\":14638:14644   */\n      dup3\n        /* \"#utility.yul\":14634:14648   */\n      add\n        /* \"#utility.yul\":14627:14670   */\n      mstore\n        /* \"#utility.yul\":14506:14681   */\n      pop\n      jump\t// out\n        /* \"#utility.yul\":14691:15109   */\n    tag_254:\n        /* \"#utility.yul\":14851:14854   */\n      0x00\n        /* \"#utility.yul\":14876:14961   */\n      tag_401\n        /* \"#utility.yul\":14958:14960   */\n      0x11\n        /* \"#utility.yul\":14953:14956   */\n      dup4\n        /* \"#utility.yul\":14876:14961   */\n      tag_247\n      jump\t// in\n    tag_401:\n        /* \"#utility.yul\":14869:14961   */\n      swap2\n      pop\n        /* \"#utility.yul\":14974:15067   */\n      tag_402\n        /* \"#utility.yul\":15063:15066   */\n      dup3\n        /* \"#utility.yul\":14974:15067   */\n      tag_253\n      jump\t// in\n    tag_402:\n        /* \"#utility.yul\":15096:15098   */\n      0x11\n        /* \"#utility.yul\":15091:15094   */\n      dup3\n        /* \"#utility.yul\":15087:15099   */\n      add\n        /* \"#utility.yul\":15080:15099   */\n      swap1\n      pop\n        /* \"#utility.yul\":14691:15109   */\n      swap2\n      swap1\n      pop\n      jump\t// out\n        /* \"#utility.yul\":15119:16110   */\n    tag_180:\n        /* \"#utility.yul\":15501:15504   */\n      0x00\n        /* \"#utility.yul\":15527:15675   */\n      tag_404\n        /* \"#utility.yul\":15671:15674   */\n      dup3\n        /* \"#utility.yul\":15527:15675   */\n      tag_249\n      jump\t// in\n    tag_404:\n        /* \"#utility.yul\":15520:15675   */\n      swap2\n      pop\n        /* \"#utility.yul\":15696:15791   */\n      tag_405\n        /* \"#utility.yul\":15787:15790   */\n      dup3\n        /* \"#utility.yul\":15778:15784   */\n      dup6\n        /* \"#utility.yul\":15696:15791   */\n      tag_252\n      jump\t// in\n    tag_405:\n        /* \"#utility.yul\":15689:15791   */\n      swap2\n      pop\n        /* \"#utility.yul\":15812:15960   */\n      tag_406\n        /* \"#utility.yul\":15956:15959   */\n      dup3\n        /* \"#utility.yul\":15812:15960   */\n      tag_254\n      jump\t// in\n    tag_406:\n        /* \"#utility.yul\":15805:15960   */\n      swap2\n      pop\n        /* \"#utility.yul\":15981:16076   */\n      tag_407\n        /* \"#utility.yul\":16072:16075   */\n      dup3\n        /* \"#utility.yul\":16063:16069   */\n      dup5\n        /* \"#utility.yul\":15981:16076   */\n      tag_252\n      jump\t// in\n    tag_407:\n        /* \"#utility.yul\":15974:16076   */\n      swap2\n      pop\n        /* \"#utility.yul\":16097:16100   */\n      dup2\n        /* \"#utility.yul\":16090:16100   */\n      swap1\n      pop\n        /* \"#utility.yul\":15119:16110   */\n      swap4\n      swap3\n      pop\n      pop\n      pop\n      jump\t// out\n        /* \"#utility.yul\":16120:16230   */\n    tag_255:\n        /* \"#utility.yul\":16161:16167   */\n      0x00\n        /* \"#utility.yul\":16216:16218   */\n      0x1f\n        /* \"#utility.yul\":16212:16219   */\n      not\n        /* \"#utility.yul\":16207:16209   */\n      0x1f\n        /* \"#utility.yul\":16200:16205   */\n      dup4\n        /* \"#utility.yul\":16196:16210   */\n      add\n        /* \"#utility.yul\":16192:16220   */\n      and\n        /* \"#utility.yul\":16182:16220   */\n      swap1\n      pop\n        /* \"#utility.yul\":16120:16230   */\n      swap2\n      swap1\n      pop\n      jump\t// out\n        /* \"#utility.yul\":16240:16637   */\n    tag_256:\n        /* \"#utility.yul\":16328:16331   */\n      0x00\n        /* \"#utility.yul\":16360:16399   */\n      tag_410\n        /* \"#utility.yul\":16393:16398   */\n      dup3\n        /* \"#utility.yul\":16360:16399   */\n      tag_250\n      jump\t// in\n    tag_410:\n        /* \"#utility.yul\":16419:16490   */\n      tag_411\n        /* \"#utility.yul\":16483:16489   */\n      dup2\n        /* \"#utility.yul\":16478:16481   */\n      dup6\n        /* \"#utility.yul\":16419:16490   */\n      tag_211\n      jump\t// in\n    tag_411:\n        /* \"#utility.yul\":16412:16490   */\n      swap4\n      pop\n        /* \"#utility.yul\":16503:16568   */\n      tag_412\n        /* \"#utility.yul\":16561:16567   */\n      dup2\n        /* \"#utility.yul\":16556:16559   */\n      dup6\n        /* \"#utility.yul\":16549:16553   */\n      0x20\n        /* \"#utility.yul\":16542:16547   */\n      dup7\n        /* \"#utility.yul\":16538:16554   */\n      add\n        /* \"#utility.yul\":16503:16568   */\n      tag_251\n      jump\t// in\n    tag_412:\n        /* \"#utility.yul\":16597:16626   */\n      tag_413\n        /* \"#utility.yul\":16619:16625   */\n      dup2\n        /* \"#utility.yul\":16597:16626   */\n      tag_255\n      jump\t// in\n    tag_413:\n        /* \"#utility.yul\":16592:16595   */\n      dup5\n        /* \"#utility.yul\":16588:16627   */\n      add\n        /* \"#utility.yul\":16581:16627   */\n      swap2\n      pop\n        /* \"#utility.yul\":16332:16637   */\n      pop\n        /* \"#utility.yul\":16240:16637   */\n      swap3\n      swap2\n      pop\n      pop\n      jump\t// out\n        /* \"#utility.yul\":16647:16976   */\n    tag_182:\n        /* \"#utility.yul\":16760:16764   */\n      0x00\n        /* \"#utility.yul\":16802:16804   */\n      0x20\n        /* \"#utility.yul\":16791:16800   */\n      dup3\n        /* \"#utility.yul\":16787:16805   */\n      add\n        /* \"#utility.yul\":16779:16805   */\n      swap1\n      pop\n        /* \"#utility.yul\":16855:16864   */\n      dup2\n        /* \"#utility.yul\":16849:16853   */\n      dup2\n        /* \"#utility.yul\":16845:16865   */\n      sub\n        /* \"#utility.yul\":16841:16842   */\n      0x00\n        /* \"#utility.yul\":16830:16839   */\n      dup4\n        /* \"#utility.yul\":16826:16843   */\n      add\n        /* \"#utility.yul\":16819:16866   */\n      mstore\n        /* \"#utility.yul\":16887:16965   */\n      tag_415\n        /* \"#utility.yul\":16960:16964   */\n      dup2\n        /* \"#utility.yul\":16951:16957   */\n      dup5\n        /* \"#utility.yul\":16887:16965   */\n      tag_256\n      jump\t// in\n    tag_415:\n        /* \"#utility.yul\":16879:16965   */\n      swap1\n      pop\n        /* \"#utility.yul\":16647:16976   */\n      swap3\n      swap2\n      pop\n      pop\n      jump\t// out\n        /* \"#utility.yul\":16986:17182   */\n    tag_190:\n        /* \"#utility.yul\":17038:17115   */\n      0x4e487b7100000000000000000000000000000000000000000000000000000000\n        /* \"#utility.yul\":17035:17036   */\n      0x00\n        /* \"#utility.yul\":17028:17116   */\n      mstore\n        /* \"#utility.yul\":17139:17143   */\n      0x41\n        /* \"#utility.yul\":17136:17137   */\n      0x04\n        /* \"#utility.yul\":17129:17144   */\n      mstore\n        /* \"#utility.yul\":17167:17171   */\n      0x24\n        /* \"#utility.yul\":17164:17165   */\n      0x00\n        /* \"#utility.yul\":17157:17172   */\n      revert\n        /* \"#utility.yul\":17192:17388   */\n    tag_194:\n        /* \"#utility.yul\":17244:17321   */\n      0x4e487b7100000000000000000000000000000000000000000000000000000000\n        /* \"#utility.yul\":17241:17242   */\n      0x00\n        /* \"#utility.yul\":17234:17322   */\n      mstore\n        /* \"#utility.yul\":17345:17349   */\n      0x32\n        /* \"#utility.yul\":17342:17343   */\n      0x04\n        /* \"#utility.yul\":17335:17350   */\n      mstore\n        /* \"#utility.yul\":17373:17377   */\n      0x24\n        /* \"#utility.yul\":17370:17371   */\n      0x00\n        /* \"#utility.yul\":17363:17378   */\n      revert\n        /* \"#utility.yul\":17398:17585   */\n    tag_207:\n        /* \"#utility.yul\":17437:17440   */\n      0x00\n        /* \"#utility.yul\":17464:17488   */\n      tag_419\n        /* \"#utility.yul\":17482:17487   */\n      dup3\n        /* \"#utility.yul\":17464:17488   */\n      tag_226\n      jump\t// in\n    tag_419:\n        /* \"#utility.yul\":17455:17488   */\n      swap2\n      pop\n        /* \"#utility.yul\":17514:17518   */\n      0x00\n        /* \"#utility.yul\":17507:17512   */\n      dup3\n        /* \"#utility.yul\":17504:17519   */\n      sub\n        /* \"#utility.yul\":17501:17542   */\n      tag_420\n      jumpi\n        /* \"#utility.yul\":17522:17540   */\n      tag_421\n      tag_237\n      jump\t// in\n    tag_421:\n        /* \"#utility.yul\":17501:17542   */\n    tag_420:\n        /* \"#utility.yul\":17573:17574   */\n      0x01\n        /* \"#utility.yul\":17566:17571   */\n      dup3\n        /* \"#utility.yul\":17562:17575   */\n      sub\n        /* \"#utility.yul\":17555:17575   */\n      swap1\n      pop\n        /* \"#utility.yul\":17398:17585   */\n      swap2\n      swap1\n      pop\n      jump\t// out\n        /* \"#utility.yul\":17595:17785   */\n    tag_257:\n        /* \"#utility.yul\":17739:17773   */\n      0x537472696e67733a20686578206c656e67746820696e73756666696369656e74\n        /* \"#utility.yul\":17735:17736   */\n      0x00\n        /* \"#utility.yul\":17727:17733   */\n      dup3\n        /* \"#utility.yul\":17723:17737   */\n      add\n        /* \"#utility.yul\":17716:17774   */\n      mstore\n        /* \"#utility.yul\":17595:17785   */\n      pop\n      jump\t// out\n        /* \"#utility.yul\":17795:18177   */\n    tag_258:\n        /* \"#utility.yul\":17937:17940   */\n      0x00\n        /* \"#utility.yul\":17962:18029   */\n      tag_424\n        /* \"#utility.yul\":18026:18028   */\n      0x20\n        /* \"#utility.yul\":18021:18024   */\n      dup4\n        /* \"#utility.yul\":17962:18029   */\n      tag_211\n      jump\t// in\n    tag_424:\n        /* \"#utility.yul\":17955:18029   */\n      swap2\n      pop\n        /* \"#utility.yul\":18042:18135   */\n      tag_425\n        /* \"#utility.yul\":18131:18134   */\n      dup3\n        /* \"#utility.yul\":18042:18135   */\n      tag_257\n      jump\t// in\n    tag_425:\n        /* \"#utility.yul\":18164:18166   */\n      0x20\n        /* \"#utility.yul\":18159:18162   */\n      dup3\n        /* \"#utility.yul\":18155:18167   */\n      add\n        /* \"#utility.yul\":18148:18167   */\n      swap1\n      pop\n        /* \"#utility.yul\":17795:18177   */\n      swap2\n      swap1\n      pop\n      jump\t// out\n        /* \"#utility.yul\":18187:18622   */\n    tag_210:\n        /* \"#utility.yul\":18353:18357   */\n      0x00\n        /* \"#utility.yul\":18395:18397   */\n      0x20\n        /* \"#utility.yul\":18384:18393   */\n      dup3\n        /* \"#utility.yul\":18380:18398   */\n      add\n        /* \"#utility.yul\":18372:18398   */\n      swap1\n      pop\n        /* \"#utility.yul\":18448:18457   */\n      dup2\n        /* \"#utility.yul\":18442:18446   */\n      dup2\n        /* \"#utility.yul\":18438:18458   */\n      sub\n        /* \"#utility.yul\":18434:18435   */\n      0x00\n        /* \"#utility.yul\":18423:18432   */\n      dup4\n        /* \"#utility.yul\":18419:18436   */\n      add\n        /* \"#utility.yul\":18412:18459   */\n      mstore\n        /* \"#utility.yul\":18480:18611   */\n      tag_427\n        /* \"#utility.yul\":18606:18610   */\n      dup2\n        /* \"#utility.yul\":18480:18611   */\n      tag_258\n      jump\t// in\n    tag_427:\n        /* \"#utility.yul\":18472:18611   */\n      swap1\n      pop\n        /* \"#utility.yul\":18187:18622   */\n      swap2\n      swap1\n      pop\n      jump\t// out\n\n    auxdata: 0xa26469706673582212202ceacbcb09a77daade85a9cdc39e13b7cac45d5c8b54108a7cac7f5b87e8a53b64736f6c63430008110033\n}\n",
				"bytecode": {
					"linkReferences": {},
					"object": "6080604052640430e2340060055569152d02c7e14af68000006007556001600a5560405162001bfd38038062001bfd83398181016040528101906200004591906200038f565b620000777fb165298935924f540e4181c03493a5d686c54a0aaeb3f6216de85b7ffbba773882620001c260201b60201c565b620000a97f3c11d16cbaffd01df69ce1c404f6340ee057498f5f00246190ea54220576a84882620001c260201b60201c565b33600160006101000a81548173ffffffffffffffffffffffffffffffffffffffff021916908373ffffffffffffffffffffffffffffffffffffffff16021790555081600660006101000a81548173ffffffffffffffffffffffffffffffffffffffff021916908373ffffffffffffffffffffffffffffffffffffffff16021790555080600260006101000a81548173ffffffffffffffffffffffffffffffffffffffff021916908373ffffffffffffffffffffffffffffffffffffffff160217905550606f600b60008081526020019081526020016000208190555060de600b6000600181526020019081526020016000208190555061014d600b600060028152602001908152602001600020819055505050620003d6565b620001d48282620002b360201b60201c565b620002af57600160008084815260200190815260200160002060000160008373ffffffffffffffffffffffffffffffffffffffff1673ffffffffffffffffffffffffffffffffffffffff16815260200190815260200160002060006101000a81548160ff021916908315150217905550620002546200031d60201b60201c565b73ffffffffffffffffffffffffffffffffffffffff168173ffffffffffffffffffffffffffffffffffffffff16837f2f8788117e7eff1d82e926ec794901d17c78024a50270940304540a733656f0d60405160405180910390a45b5050565b600080600084815260200190815260200160002060000160008373ffffffffffffffffffffffffffffffffffffffff1673ffffffffffffffffffffffffffffffffffffffff16815260200190815260200160002060009054906101000a900460ff16905092915050565b600033905090565b600080fd5b600073ffffffffffffffffffffffffffffffffffffffff82169050919050565b600062000357826200032a565b9050919050565b62000369816200034a565b81146200037557600080fd5b50565b60008151905062000389816200035e565b92915050565b60008060408385031215620003a957620003a862000325565b5b6000620003b98582860162000378565b9250506020620003cc8582860162000378565b9150509250929050565b61181780620003e66000396000f3fe6080604052600436106100ab5760003560e01c80634f248409116100645780634f2484091461021457806376082a5e1461022b57806391d1485414610256578063a217fddf14610293578063a6f2ae3a146102be578063d547741f146102dc576100ef565b806301ffc9a7146100f4578063248a9ca314610131578063282c51f31461016e5780632e1a7d4d146101995780632f2ff15d146101c257806336568abe146101eb576100ef565b366100ef577fcf34ef537ac33ee1ac626ca1587a0a7e8e51561e5514f8cb36afa1c5102b3bab6040516100dd90610f30565b60405180910390a16100ed610305565b005b600080fd5b34801561010057600080fd5b5061011b60048036038101906101169190610fad565b61057f565b6040516101289190610ff5565b60405180910390f35b34801561013d57600080fd5b5061015860048036038101906101539190611046565b6105f9565b6040516101659190611082565b60405180910390f35b34801561017a57600080fd5b50610183610618565b6040516101909190611082565b60405180910390f35b3480156101a557600080fd5b506101c060048036038101906101bb91906110d3565b61063c565b005b3480156101ce57600080fd5b506101e960048036038101906101e4919061115e565b61079f565b005b3480156101f757600080fd5b50610212600480360381019061020d919061115e565b6107c0565b005b34801561022057600080fd5b50610229610843565b005b34801561023757600080fd5b506102406108b4565b60405161024d9190611082565b60405180910390f35b34801561026257600080fd5b5061027d6004803603810190610278919061115e565b6108d8565b60405161028a9190610ff5565b60405180910390f35b34801561029f57600080fd5b506102a8610942565b6040516102b59190611082565b60405180910390f35b6102c6610305565b6040516102d39190610ff5565b60405180910390f35b3480156102e857600080fd5b5061030360048036038101906102fe919061115e565b610949565b005b6000600554421061034b576040517f08c379a0000000000000000000000000000000000000000000000000000000008152600401610342906111ea565b60405180910390fd5b6000341161038e576040517f08c379a000000000000000000000000000000000000000000000000000000000815260040161038590611256565b60405180910390fd5b60006103993461096a565b9050600754600954826103ac91906112a5565b106103ec576040517f08c379a00000000000000000000000000000000000000000000000000000000081526004016103e390611325565b60405180910390fd5b600660009054906101000a900473ffffffffffffffffffffffffffffffffffffffff1673ffffffffffffffffffffffffffffffffffffffff1663dd62ed3e30336040518363ffffffff1660e01b8152600401610449929190611354565b602060405180830381865afa158015610466573d6000803e3d6000fd5b505050506040513d601f19601f8201168201806040525081019061048a9190611392565b50600660009054906101000a900473ffffffffffffffffffffffffffffffffffffffff1673ffffffffffffffffffffffffffffffffffffffff1663a9059cbb33836040518363ffffffff1660e01b81526004016104e89291906113ce565b6020604051808303816000875af1158015610507573d6000803e3d6000fd5b505050506040513d601f19601f8201168201806040525081019061052b9190611423565b506009548161053a91906112a5565b6009819055507f92f64ca637d023f354075a4be751b169c1a8a9ccb6d33cdd0cb35205439957278160405161056f9190611450565b60405180910390a1600191505090565b60007f7965db0b000000000000000000000000000000000000000000000000000000007bffffffffffffffffffffffffffffffffffffffffffffffffffffffff1916827bffffffffffffffffffffffffffffffffffffffffffffffffffffffff191614806105f257506105f182610988565b5b9050919050565b6000806000838152602001908152602001600020600101549050919050565b7f3c11d16cbaffd01df69ce1c404f6340ee057498f5f00246190ea54220576a84881565b7fb165298935924f540e4181c03493a5d686c54a0aaeb3f6216de85b7ffbba7738610666816109f2565b42600b6000600281526020019081526020016000205411156106ce573373ffffffffffffffffffffffffffffffffffffffff166108fc839081150290604051600060405180830381858888f193505050501580156106c8573d6000803e3d6000fd5b5061079b565b42600b600060018152602001908152602001600020541115610736573373ffffffffffffffffffffffffffffffffffffffff166108fc839081150290604051600060405180830381858888f19350505050158015610730573d6000803e3d6000fd5b5061079a565b42600b6000808152602001908152602001600020541115610799573373ffffffffffffffffffffffffffffffffffffffff166108fc839081150290604051600060405180830381858888f19350505050158015610797573d6000803e3d6000fd5b505b5b5b5050565b6107a8826105f9565b6107b1816109f2565b6107bb8383610a06565b505050565b6107c8610ae6565b73ffffffffffffffffffffffffffffffffffffffff168173ffffffffffffffffffffffffffffffffffffffff1614610835576040517f08c379a000000000000000000000000000000000000000000000000000000000815260040161082c906114dd565b60405180910390fd5b61083f8282610aee565b5050565b6005544210610887576040517f08c379a000000000000000000000000000000000000000000000000000000000815260040161087e906111ea565b60405180910390fd5b7f3c11d16cbaffd01df69ce1c404f6340ee057498f5f00246190ea54220576a8486108b1816109f2565b50565b7fb165298935924f540e4181c03493a5d686c54a0aaeb3f6216de85b7ffbba773881565b600080600084815260200190815260200160002060000160008373ffffffffffffffffffffffffffffffffffffffff1673ffffffffffffffffffffffffffffffffffffffff16815260200190815260200160002060009054906101000a900460ff16905092915050565b6000801b81565b610952826105f9565b61095b816109f2565b6109658383610aee565b505050565b6000610981600a5483610bcf90919063ffffffff16565b9050919050565b60007f01ffc9a7000000000000000000000000000000000000000000000000000000007bffffffffffffffffffffffffffffffffffffffffffffffffffffffff1916827bffffffffffffffffffffffffffffffffffffffffffffffffffffffff1916149050919050565b610a03816109fe610ae6565b610be5565b50565b610a1082826108d8565b610ae257600160008084815260200190815260200160002060000160008373ffffffffffffffffffffffffffffffffffffffff1673ffffffffffffffffffffffffffffffffffffffff16815260200190815260200160002060006101000a81548160ff021916908315150217905550610a87610ae6565b73ffffffffffffffffffffffffffffffffffffffff168173ffffffffffffffffffffffffffffffffffffffff16837f2f8788117e7eff1d82e926ec794901d17c78024a50270940304540a733656f0d60405160405180910390a45b5050565b600033905090565b610af882826108d8565b15610bcb57600080600084815260200190815260200160002060000160008373ffffffffffffffffffffffffffffffffffffffff1673ffffffffffffffffffffffffffffffffffffffff16815260200190815260200160002060006101000a81548160ff021916908315150217905550610b70610ae6565b73ffffffffffffffffffffffffffffffffffffffff168173ffffffffffffffffffffffffffffffffffffffff16837ff6391f5c32d9c69d2a47ea670b442974b53935d1edc7fd64eb21e047a839171b60405160405180910390a45b5050565b60008183610bdd91906114fd565b905092915050565b610bef82826108d8565b610c6657610bfc81610c6a565b610c0a8360001c6020610c97565b604051602001610c1b929190611648565b6040516020818303038152906040526040517f08c379a0000000000000000000000000000000000000000000000000000000008152600401610c5d91906116cc565b60405180910390fd5b5050565b6060610c908273ffffffffffffffffffffffffffffffffffffffff16601460ff16610c97565b9050919050565b606060006002836002610caa91906114fd565b610cb491906112a5565b67ffffffffffffffff811115610ccd57610ccc6116ee565b5b6040519080825280601f01601f191660200182016040528015610cff5781602001600182028036833780820191505090505b5090507f300000000000000000000000000000000000000000000000000000000000000081600081518110610d3757610d3661171d565b5b60200101907effffffffffffffffffffffffffffffffffffffffffffffffffffffffffffff1916908160001a9053507f780000000000000000000000000000000000000000000000000000000000000081600181518110610d9b57610d9a61171d565b5b60200101907effffffffffffffffffffffffffffffffffffffffffffffffffffffffffffff1916908160001a90535060006001846002610ddb91906114fd565b610de591906112a5565b90505b6001811115610e85577f3031323334353637383961626364656600000000000000000000000000000000600f861660108110610e2757610e2661171d565b5b1a60f81b828281518110610e3e57610e3d61171d565b5b60200101907effffffffffffffffffffffffffffffffffffffffffffffffffffffffffffff1916908160001a905350600485901c945080610e7e9061174c565b9050610de8565b5060008414610ec9576040517f08c379a0000000000000000000000000000000000000000000000000000000008152600401610ec0906117c1565b60405180910390fd5b8091505092915050565b600082825260208201905092915050565b7f66616c6c6261636b206869740000000000000000000000000000000000000000600082015250565b6000610f1a600c83610ed3565b9150610f2582610ee4565b602082019050919050565b60006020820190508181036000830152610f4981610f0d565b9050919050565b600080fd5b60007fffffffff0000000000000000000000000000000000000000000000000000000082169050919050565b610f8a81610f55565b8114610f9557600080fd5b50565b600081359050610fa781610f81565b92915050565b600060208284031215610fc357610fc2610f50565b5b6000610fd184828501610f98565b91505092915050565b60008115159050919050565b610fef81610fda565b82525050565b600060208201905061100a6000830184610fe6565b92915050565b6000819050919050565b61102381611010565b811461102e57600080fd5b50565b6000813590506110408161101a565b92915050565b60006020828403121561105c5761105b610f50565b5b600061106a84828501611031565b91505092915050565b61107c81611010565b82525050565b60006020820190506110976000830184611073565b92915050565b6000819050919050565b6110b08161109d565b81146110bb57600080fd5b50565b6000813590506110cd816110a7565b92915050565b6000602082840312156110e9576110e8610f50565b5b60006110f7848285016110be565b91505092915050565b600073ffffffffffffffffffffffffffffffffffffffff82169050919050565b600061112b82611100565b9050919050565b61113b81611120565b811461114657600080fd5b50565b60008135905061115881611132565b92915050565b6000806040838503121561117557611174610f50565b5b600061118385828601611031565b925050602061119485828601611149565b9150509250929050565b7f49434f206973206f766572203a28200000000000000000000000000000000000600082015250565b60006111d4600f83610ed3565b91506111df8261119e565b602082019050919050565b60006020820190508181036000830152611203816111c7565b9050919050565b7f7468656d2f7468657920706c656173652073656e64206d657469730000000000600082015250565b6000611240601b83610ed3565b915061124b8261120a565b602082019050919050565b6000602082019050818103600083015261126f81611233565b9050919050565b7f4e487b7100000000000000000000000000000000000000000000000000000000600052601160045260246000fd5b60006112b08261109d565b91506112bb8361109d565b92508282019050808211156112d3576112d2611276565b5b92915050565b7f657863656564732074686520746f74616c20666f722073616c65000000000000600082015250565b600061130f601a83610ed3565b915061131a826112d9565b602082019050919050565b6000602082019050818103600083015261133e81611302565b9050919050565b61134e81611120565b82525050565b60006040820190506113696000830185611345565b6113766020830184611345565b9392505050565b60008151905061138c816110a7565b92915050565b6000602082840312156113a8576113a7610f50565b5b60006113b68482850161137d565b91505092915050565b6113c88161109d565b82525050565b60006040820190506113e36000830185611345565b6113f060208301846113bf565b9392505050565b61140081610fda565b811461140b57600080fd5b50565b60008151905061141d816113f7565b92915050565b60006020828403121561143957611438610f50565b5b60006114478482850161140e565b91505092915050565b600060208201905061146560008301846113bf565b92915050565b7f416363657373436f6e74726f6c3a2063616e206f6e6c792072656e6f756e636560008201527f20726f6c657320666f722073656c660000000000000000000000000000000000602082015250565b60006114c7602f83610ed3565b91506114d28261146b565b604082019050919050565b600060208201905081810360008301526114f6816114ba565b9050919050565b60006115088261109d565b91506115138361109d565b92508282026115218161109d565b9150828204841483151761153857611537611276565b5b5092915050565b600081905092915050565b7f416363657373436f6e74726f6c3a206163636f756e7420000000000000000000600082015250565b600061158060178361153f565b915061158b8261154a565b601782019050919050565b600081519050919050565b60005b838110156115bf5780820151818401526020810190506115a4565b60008484015250505050565b60006115d682611596565b6115e0818561153f565b93506115f08185602086016115a1565b80840191505092915050565b7f206973206d697373696e6720726f6c6520000000000000000000000000000000600082015250565b600061163260118361153f565b915061163d826115fc565b601182019050919050565b600061165382611573565b915061165f82856115cb565b915061166a82611625565b915061167682846115cb565b91508190509392505050565b6000601f19601f8301169050919050565b600061169e82611596565b6116a88185610ed3565b93506116b88185602086016115a1565b6116c181611682565b840191505092915050565b600060208201905081810360008301526116e68184611693565b905092915050565b7f4e487b7100000000000000000000000000000000000000000000000000000000600052604160045260246000fd5b7f4e487b7100000000000000000000000000000000000000000000000000000000600052603260045260246000fd5b60006117578261109d565b91506000820361176a57611769611276565b5b600182039050919050565b7f537472696e67733a20686578206c656e67746820696e73756666696369656e74600082015250565b60006117ab602083610ed3565b91506117b682611775565b602082019050919050565b600060208201905081810360008301526117da8161179e565b905091905056fea26469706673582212202ceacbcb09a77daade85a9cdc39e13b7cac45d5c8b54108a7cac7f5b87e8a53b64736f6c63430008110033",
					"opcodes": "PUSH1 0x80 PUSH1 0x40 MSTORE PUSH5 0x430E23400 PUSH1 0x5 SSTORE PUSH10 0x152D02C7E14AF6800000 PUSH1 0x7 SSTORE PUSH1 0x1 PUSH1 0xA SSTORE PUSH1 0x40 MLOAD PUSH3 0x1BFD CODESIZE SUB DUP1 PUSH3 0x1BFD DUP4 CODECOPY DUP2 DUP2 ADD PUSH1 0x40 MSTORE DUP2 ADD SWAP1 PUSH3 0x45 SWAP2 SWAP1 PUSH3 0x38F JUMP JUMPDEST PUSH3 0x77 PUSH32 0xB165298935924F540E4181C03493A5D686C54A0AAEB3F6216DE85B7FFBBA7738 DUP3 PUSH3 0x1C2 PUSH1 0x20 SHL PUSH1 0x20 SHR JUMP JUMPDEST PUSH3 0xA9 PUSH32 0x3C11D16CBAFFD01DF69CE1C404F6340EE057498F5F00246190EA54220576A848 DUP3 PUSH3 0x1C2 PUSH1 0x20 SHL PUSH1 0x20 SHR JUMP JUMPDEST CALLER PUSH1 0x1 PUSH1 0x0 PUSH2 0x100 EXP DUP2 SLOAD DUP2 PUSH20 0xFFFFFFFFFFFFFFFFFFFFFFFFFFFFFFFFFFFFFFFF MUL NOT AND SWAP1 DUP4 PUSH20 0xFFFFFFFFFFFFFFFFFFFFFFFFFFFFFFFFFFFFFFFF AND MUL OR SWAP1 SSTORE POP DUP2 PUSH1 0x6 PUSH1 0x0 PUSH2 0x100 EXP DUP2 SLOAD DUP2 PUSH20 0xFFFFFFFFFFFFFFFFFFFFFFFFFFFFFFFFFFFFFFFF MUL NOT AND SWAP1 DUP4 PUSH20 0xFFFFFFFFFFFFFFFFFFFFFFFFFFFFFFFFFFFFFFFF AND MUL OR SWAP1 SSTORE POP DUP1 PUSH1 0x2 PUSH1 0x0 PUSH2 0x100 EXP DUP2 SLOAD DUP2 PUSH20 0xFFFFFFFFFFFFFFFFFFFFFFFFFFFFFFFFFFFFFFFF MUL NOT AND SWAP1 DUP4 PUSH20 0xFFFFFFFFFFFFFFFFFFFFFFFFFFFFFFFFFFFFFFFF AND MUL OR SWAP1 SSTORE POP PUSH1 0x6F PUSH1 0xB PUSH1 0x0 DUP1 DUP2 MSTORE PUSH1 0x20 ADD SWAP1 DUP2 MSTORE PUSH1 0x20 ADD PUSH1 0x0 KECCAK256 DUP2 SWAP1 SSTORE POP PUSH1 0xDE PUSH1 0xB PUSH1 0x0 PUSH1 0x1 DUP2 MSTORE PUSH1 0x20 ADD SWAP1 DUP2 MSTORE PUSH1 0x20 ADD PUSH1 0x0 KECCAK256 DUP2 SWAP1 SSTORE POP PUSH2 0x14D PUSH1 0xB PUSH1 0x0 PUSH1 0x2 DUP2 MSTORE PUSH1 0x20 ADD SWAP1 DUP2 MSTORE PUSH1 0x20 ADD PUSH1 0x0 KECCAK256 DUP2 SWAP1 SSTORE POP POP POP PUSH3 0x3D6 JUMP JUMPDEST PUSH3 0x1D4 DUP3 DUP3 PUSH3 0x2B3 PUSH1 0x20 SHL PUSH1 0x20 SHR JUMP JUMPDEST PUSH3 0x2AF JUMPI PUSH1 0x1 PUSH1 0x0 DUP1 DUP5 DUP2 MSTORE PUSH1 0x20 ADD SWAP1 DUP2 MSTORE PUSH1 0x20 ADD PUSH1 0x0 KECCAK256 PUSH1 0x0 ADD PUSH1 0x0 DUP4 PUSH20 0xFFFFFFFFFFFFFFFFFFFFFFFFFFFFFFFFFFFFFFFF AND PUSH20 0xFFFFFFFFFFFFFFFFFFFFFFFFFFFFFFFFFFFFFFFF AND DUP2 MSTORE PUSH1 0x20 ADD SWAP1 DUP2 MSTORE PUSH1 0x20 ADD PUSH1 0x0 KECCAK256 PUSH1 0x0 PUSH2 0x100 EXP DUP2 SLOAD DUP2 PUSH1 0xFF MUL NOT AND SWAP1 DUP4 ISZERO ISZERO MUL OR SWAP1 SSTORE POP PUSH3 0x254 PUSH3 0x31D PUSH1 0x20 SHL PUSH1 0x20 SHR JUMP JUMPDEST PUSH20 0xFFFFFFFFFFFFFFFFFFFFFFFFFFFFFFFFFFFFFFFF AND DUP2 PUSH20 0xFFFFFFFFFFFFFFFFFFFFFFFFFFFFFFFFFFFFFFFF AND DUP4 PUSH32 0x2F8788117E7EFF1D82E926EC794901D17C78024A50270940304540A733656F0D PUSH1 0x40 MLOAD PUSH1 0x40 MLOAD DUP1 SWAP2 SUB SWAP1 LOG4 JUMPDEST POP POP JUMP JUMPDEST PUSH1 0x0 DUP1 PUSH1 0x0 DUP5 DUP2 MSTORE PUSH1 0x20 ADD SWAP1 DUP2 MSTORE PUSH1 0x20 ADD PUSH1 0x0 KECCAK256 PUSH1 0x0 ADD PUSH1 0x0 DUP4 PUSH20 0xFFFFFFFFFFFFFFFFFFFFFFFFFFFFFFFFFFFFFFFF AND PUSH20 0xFFFFFFFFFFFFFFFFFFFFFFFFFFFFFFFFFFFFFFFF AND DUP2 MSTORE PUSH1 0x20 ADD SWAP1 DUP2 MSTORE PUSH1 0x20 ADD PUSH1 0x0 KECCAK256 PUSH1 0x0 SWAP1 SLOAD SWAP1 PUSH2 0x100 EXP SWAP1 DIV PUSH1 0xFF AND SWAP1 POP SWAP3 SWAP2 POP POP JUMP JUMPDEST PUSH1 0x0 CALLER SWAP1 POP SWAP1 JUMP JUMPDEST PUSH1 0x0 DUP1 REVERT JUMPDEST PUSH1 0x0 PUSH20 0xFFFFFFFFFFFFFFFFFFFFFFFFFFFFFFFFFFFFFFFF DUP3 AND SWAP1 POP SWAP2 SWAP1 POP JUMP JUMPDEST PUSH1 0x0 PUSH3 0x357 DUP3 PUSH3 0x32A JUMP JUMPDEST SWAP1 POP SWAP2 SWAP1 POP JUMP JUMPDEST PUSH3 0x369 DUP2 PUSH3 0x34A JUMP JUMPDEST DUP2 EQ PUSH3 0x375 JUMPI PUSH1 0x0 DUP1 REVERT JUMPDEST POP JUMP JUMPDEST PUSH1 0x0 DUP2 MLOAD SWAP1 POP PUSH3 0x389 DUP2 PUSH3 0x35E JUMP JUMPDEST SWAP3 SWAP2 POP POP JUMP JUMPDEST PUSH1 0x0 DUP1 PUSH1 0x40 DUP4 DUP6 SUB SLT ISZERO PUSH3 0x3A9 JUMPI PUSH3 0x3A8 PUSH3 0x325 JUMP JUMPDEST JUMPDEST PUSH1 0x0 PUSH3 0x3B9 DUP6 DUP3 DUP7 ADD PUSH3 0x378 JUMP JUMPDEST SWAP3 POP POP PUSH1 0x20 PUSH3 0x3CC DUP6 DUP3 DUP7 ADD PUSH3 0x378 JUMP JUMPDEST SWAP2 POP POP SWAP3 POP SWAP3 SWAP1 POP JUMP JUMPDEST PUSH2 0x1817 DUP1 PUSH3 0x3E6 PUSH1 0x0 CODECOPY PUSH1 0x0 RETURN INVALID PUSH1 0x80 PUSH1 0x40 MSTORE PUSH1 0x4 CALLDATASIZE LT PUSH2 0xAB JUMPI PUSH1 0x0 CALLDATALOAD PUSH1 0xE0 SHR DUP1 PUSH4 0x4F248409 GT PUSH2 0x64 JUMPI DUP1 PUSH4 0x4F248409 EQ PUSH2 0x214 JUMPI DUP1 PUSH4 0x76082A5E EQ PUSH2 0x22B JUMPI DUP1 PUSH4 0x91D14854 EQ PUSH2 0x256 JUMPI DUP1 PUSH4 0xA217FDDF EQ PUSH2 0x293 JUMPI DUP1 PUSH4 0xA6F2AE3A EQ PUSH2 0x2BE JUMPI DUP1 PUSH4 0xD547741F EQ PUSH2 0x2DC JUMPI PUSH2 0xEF JUMP JUMPDEST DUP1 PUSH4 0x1FFC9A7 EQ PUSH2 0xF4 JUMPI DUP1 PUSH4 0x248A9CA3 EQ PUSH2 0x131 JUMPI DUP1 PUSH4 0x282C51F3 EQ PUSH2 0x16E JUMPI DUP1 PUSH4 0x2E1A7D4D EQ PUSH2 0x199 JUMPI DUP1 PUSH4 0x2F2FF15D EQ PUSH2 0x1C2 JUMPI DUP1 PUSH4 0x36568ABE EQ PUSH2 0x1EB JUMPI PUSH2 0xEF JUMP JUMPDEST CALLDATASIZE PUSH2 0xEF JUMPI PUSH32 0xCF34EF537AC33EE1AC626CA1587A0A7E8E51561E5514F8CB36AFA1C5102B3BAB PUSH1 0x40 MLOAD PUSH2 0xDD SWAP1 PUSH2 0xF30 JUMP JUMPDEST PUSH1 0x40 MLOAD DUP1 SWAP2 SUB SWAP1 LOG1 PUSH2 0xED PUSH2 0x305 JUMP JUMPDEST STOP JUMPDEST PUSH1 0x0 DUP1 REVERT JUMPDEST CALLVALUE DUP1 ISZERO PUSH2 0x100 JUMPI PUSH1 0x0 DUP1 REVERT JUMPDEST POP PUSH2 0x11B PUSH1 0x4 DUP1 CALLDATASIZE SUB DUP2 ADD SWAP1 PUSH2 0x116 SWAP2 SWAP1 PUSH2 0xFAD JUMP JUMPDEST PUSH2 0x57F JUMP JUMPDEST PUSH1 0x40 MLOAD PUSH2 0x128 SWAP2 SWAP1 PUSH2 0xFF5 JUMP JUMPDEST PUSH1 0x40 MLOAD DUP1 SWAP2 SUB SWAP1 RETURN JUMPDEST CALLVALUE DUP1 ISZERO PUSH2 0x13D JUMPI PUSH1 0x0 DUP1 REVERT JUMPDEST POP PUSH2 0x158 PUSH1 0x4 DUP1 CALLDATASIZE SUB DUP2 ADD SWAP1 PUSH2 0x153 SWAP2 SWAP1 PUSH2 0x1046 JUMP JUMPDEST PUSH2 0x5F9 JUMP JUMPDEST PUSH1 0x40 MLOAD PUSH2 0x165 SWAP2 SWAP1 PUSH2 0x1082 JUMP JUMPDEST PUSH1 0x40 MLOAD DUP1 SWAP2 SUB SWAP1 RETURN JUMPDEST CALLVALUE DUP1 ISZERO PUSH2 0x17A JUMPI PUSH1 0x0 DUP1 REVERT JUMPDEST POP PUSH2 0x183 PUSH2 0x618 JUMP JUMPDEST PUSH1 0x40 MLOAD PUSH2 0x190 SWAP2 SWAP1 PUSH2 0x1082 JUMP JUMPDEST PUSH1 0x40 MLOAD DUP1 SWAP2 SUB SWAP1 RETURN JUMPDEST CALLVALUE DUP1 ISZERO PUSH2 0x1A5 JUMPI PUSH1 0x0 DUP1 REVERT JUMPDEST POP PUSH2 0x1C0 PUSH1 0x4 DUP1 CALLDATASIZE SUB DUP2 ADD SWAP1 PUSH2 0x1BB SWAP2 SWAP1 PUSH2 0x10D3 JUMP JUMPDEST PUSH2 0x63C JUMP JUMPDEST STOP JUMPDEST CALLVALUE DUP1 ISZERO PUSH2 0x1CE JUMPI PUSH1 0x0 DUP1 REVERT JUMPDEST POP PUSH2 0x1E9 PUSH1 0x4 DUP1 CALLDATASIZE SUB DUP2 ADD SWAP1 PUSH2 0x1E4 SWAP2 SWAP1 PUSH2 0x115E JUMP JUMPDEST PUSH2 0x79F JUMP JUMPDEST STOP JUMPDEST CALLVALUE DUP1 ISZERO PUSH2 0x1F7 JUMPI PUSH1 0x0 DUP1 REVERT JUMPDEST POP PUSH2 0x212 PUSH1 0x4 DUP1 CALLDATASIZE SUB DUP2 ADD SWAP1 PUSH2 0x20D SWAP2 SWAP1 PUSH2 0x115E JUMP JUMPDEST PUSH2 0x7C0 JUMP JUMPDEST STOP JUMPDEST CALLVALUE DUP1 ISZERO PUSH2 0x220 JUMPI PUSH1 0x0 DUP1 REVERT JUMPDEST POP PUSH2 0x229 PUSH2 0x843 JUMP JUMPDEST STOP JUMPDEST CALLVALUE DUP1 ISZERO PUSH2 0x237 JUMPI PUSH1 0x0 DUP1 REVERT JUMPDEST POP PUSH2 0x240 PUSH2 0x8B4 JUMP JUMPDEST PUSH1 0x40 MLOAD PUSH2 0x24D SWAP2 SWAP1 PUSH2 0x1082 JUMP JUMPDEST PUSH1 0x40 MLOAD DUP1 SWAP2 SUB SWAP1 RETURN JUMPDEST CALLVALUE DUP1 ISZERO PUSH2 0x262 JUMPI PUSH1 0x0 DUP1 REVERT JUMPDEST POP PUSH2 0x27D PUSH1 0x4 DUP1 CALLDATASIZE SUB DUP2 ADD SWAP1 PUSH2 0x278 SWAP2 SWAP1 PUSH2 0x115E JUMP JUMPDEST PUSH2 0x8D8 JUMP JUMPDEST PUSH1 0x40 MLOAD PUSH2 0x28A SWAP2 SWAP1 PUSH2 0xFF5 JUMP JUMPDEST PUSH1 0x40 MLOAD DUP1 SWAP2 SUB SWAP1 RETURN JUMPDEST CALLVALUE DUP1 ISZERO PUSH2 0x29F JUMPI PUSH1 0x0 DUP1 REVERT JUMPDEST POP PUSH2 0x2A8 PUSH2 0x942 JUMP JUMPDEST PUSH1 0x40 MLOAD PUSH2 0x2B5 SWAP2 SWAP1 PUSH2 0x1082 JUMP JUMPDEST PUSH1 0x40 MLOAD DUP1 SWAP2 SUB SWAP1 RETURN JUMPDEST PUSH2 0x2C6 PUSH2 0x305 JUMP JUMPDEST PUSH1 0x40 MLOAD PUSH2 0x2D3 SWAP2 SWAP1 PUSH2 0xFF5 JUMP JUMPDEST PUSH1 0x40 MLOAD DUP1 SWAP2 SUB SWAP1 RETURN JUMPDEST CALLVALUE DUP1 ISZERO PUSH2 0x2E8 JUMPI PUSH1 0x0 DUP1 REVERT JUMPDEST POP PUSH2 0x303 PUSH1 0x4 DUP1 CALLDATASIZE SUB DUP2 ADD SWAP1 PUSH2 0x2FE SWAP2 SWAP1 PUSH2 0x115E JUMP JUMPDEST PUSH2 0x949 JUMP JUMPDEST STOP JUMPDEST PUSH1 0x0 PUSH1 0x5 SLOAD TIMESTAMP LT PUSH2 0x34B JUMPI PUSH1 0x40 MLOAD PUSH32 0x8C379A000000000000000000000000000000000000000000000000000000000 DUP2 MSTORE PUSH1 0x4 ADD PUSH2 0x342 SWAP1 PUSH2 0x11EA JUMP JUMPDEST PUSH1 0x40 MLOAD DUP1 SWAP2 SUB SWAP1 REVERT JUMPDEST PUSH1 0x0 CALLVALUE GT PUSH2 0x38E JUMPI PUSH1 0x40 MLOAD PUSH32 0x8C379A000000000000000000000000000000000000000000000000000000000 DUP2 MSTORE PUSH1 0x4 ADD PUSH2 0x385 SWAP1 PUSH2 0x1256 JUMP JUMPDEST PUSH1 0x40 MLOAD DUP1 SWAP2 SUB SWAP1 REVERT JUMPDEST PUSH1 0x0 PUSH2 0x399 CALLVALUE PUSH2 0x96A JUMP JUMPDEST SWAP1 POP PUSH1 0x7 SLOAD PUSH1 0x9 SLOAD DUP3 PUSH2 0x3AC SWAP2 SWAP1 PUSH2 0x12A5 JUMP JUMPDEST LT PUSH2 0x3EC JUMPI PUSH1 0x40 MLOAD PUSH32 0x8C379A000000000000000000000000000000000000000000000000000000000 DUP2 MSTORE PUSH1 0x4 ADD PUSH2 0x3E3 SWAP1 PUSH2 0x1325 JUMP JUMPDEST PUSH1 0x40 MLOAD DUP1 SWAP2 SUB SWAP1 REVERT JUMPDEST PUSH1 0x6 PUSH1 0x0 SWAP1 SLOAD SWAP1 PUSH2 0x100 EXP SWAP1 DIV PUSH20 0xFFFFFFFFFFFFFFFFFFFFFFFFFFFFFFFFFFFFFFFF AND PUSH20 0xFFFFFFFFFFFFFFFFFFFFFFFFFFFFFFFFFFFFFFFF AND PUSH4 0xDD62ED3E ADDRESS CALLER PUSH1 0x40 MLOAD DUP4 PUSH4 0xFFFFFFFF AND PUSH1 0xE0 SHL DUP2 MSTORE PUSH1 0x4 ADD PUSH2 0x449 SWAP3 SWAP2 SWAP1 PUSH2 0x1354 JUMP JUMPDEST PUSH1 0x20 PUSH1 0x40 MLOAD DUP1 DUP4 SUB DUP2 DUP7 GAS STATICCALL ISZERO DUP1 ISZERO PUSH2 0x466 JUMPI RETURNDATASIZE PUSH1 0x0 DUP1 RETURNDATACOPY RETURNDATASIZE PUSH1 0x0 REVERT JUMPDEST POP POP POP POP PUSH1 0x40 MLOAD RETURNDATASIZE PUSH1 0x1F NOT PUSH1 0x1F DUP3 ADD AND DUP3 ADD DUP1 PUSH1 0x40 MSTORE POP DUP2 ADD SWAP1 PUSH2 0x48A SWAP2 SWAP1 PUSH2 0x1392 JUMP JUMPDEST POP PUSH1 0x6 PUSH1 0x0 SWAP1 SLOAD SWAP1 PUSH2 0x100 EXP SWAP1 DIV PUSH20 0xFFFFFFFFFFFFFFFFFFFFFFFFFFFFFFFFFFFFFFFF AND PUSH20 0xFFFFFFFFFFFFFFFFFFFFFFFFFFFFFFFFFFFFFFFF AND PUSH4 0xA9059CBB CALLER DUP4 PUSH1 0x40 MLOAD DUP4 PUSH4 0xFFFFFFFF AND PUSH1 0xE0 SHL DUP2 MSTORE PUSH1 0x4 ADD PUSH2 0x4E8 SWAP3 SWAP2 SWAP1 PUSH2 0x13CE JUMP JUMPDEST PUSH1 0x20 PUSH1 0x40 MLOAD DUP1 DUP4 SUB DUP2 PUSH1 0x0 DUP8 GAS CALL ISZERO DUP1 ISZERO PUSH2 0x507 JUMPI RETURNDATASIZE PUSH1 0x0 DUP1 RETURNDATACOPY RETURNDATASIZE PUSH1 0x0 REVERT JUMPDEST POP POP POP POP PUSH1 0x40 MLOAD RETURNDATASIZE PUSH1 0x1F NOT PUSH1 0x1F DUP3 ADD AND DUP3 ADD DUP1 PUSH1 0x40 MSTORE POP DUP2 ADD SWAP1 PUSH2 0x52B SWAP2 SWAP1 PUSH2 0x1423 JUMP JUMPDEST POP PUSH1 0x9 SLOAD DUP2 PUSH2 0x53A SWAP2 SWAP1 PUSH2 0x12A5 JUMP JUMPDEST PUSH1 0x9 DUP2 SWAP1 SSTORE POP PUSH32 0x92F64CA637D023F354075A4BE751B169C1A8A9CCB6D33CDD0CB3520543995727 DUP2 PUSH1 0x40 MLOAD PUSH2 0x56F SWAP2 SWAP1 PUSH2 0x1450 JUMP JUMPDEST PUSH1 0x40 MLOAD DUP1 SWAP2 SUB SWAP1 LOG1 PUSH1 0x1 SWAP2 POP POP SWAP1 JUMP JUMPDEST PUSH1 0x0 PUSH32 0x7965DB0B00000000000000000000000000000000000000000000000000000000 PUSH28 0xFFFFFFFFFFFFFFFFFFFFFFFFFFFFFFFFFFFFFFFFFFFFFFFFFFFFFFFF NOT AND DUP3 PUSH28 0xFFFFFFFFFFFFFFFFFFFFFFFFFFFFFFFFFFFFFFFFFFFFFFFFFFFFFFFF NOT AND EQ DUP1 PUSH2 0x5F2 JUMPI POP PUSH2 0x5F1 DUP3 PUSH2 0x988 JUMP JUMPDEST JUMPDEST SWAP1 POP SWAP2 SWAP1 POP JUMP JUMPDEST PUSH1 0x0 DUP1 PUSH1 0x0 DUP4 DUP2 MSTORE PUSH1 0x20 ADD SWAP1 DUP2 MSTORE PUSH1 0x20 ADD PUSH1 0x0 KECCAK256 PUSH1 0x1 ADD SLOAD SWAP1 POP SWAP2 SWAP1 POP JUMP JUMPDEST PUSH32 0x3C11D16CBAFFD01DF69CE1C404F6340EE057498F5F00246190EA54220576A848 DUP2 JUMP JUMPDEST PUSH32 0xB165298935924F540E4181C03493A5D686C54A0AAEB3F6216DE85B7FFBBA7738 PUSH2 0x666 DUP2 PUSH2 0x9F2 JUMP JUMPDEST TIMESTAMP PUSH1 0xB PUSH1 0x0 PUSH1 0x2 DUP2 MSTORE PUSH1 0x20 ADD SWAP1 DUP2 MSTORE PUSH1 0x20 ADD PUSH1 0x0 KECCAK256 SLOAD GT ISZERO PUSH2 0x6CE JUMPI CALLER PUSH20 0xFFFFFFFFFFFFFFFFFFFFFFFFFFFFFFFFFFFFFFFF AND PUSH2 0x8FC DUP4 SWAP1 DUP2 ISZERO MUL SWAP1 PUSH1 0x40 MLOAD PUSH1 0x0 PUSH1 0x40 MLOAD DUP1 DUP4 SUB DUP2 DUP6 DUP9 DUP9 CALL SWAP4 POP POP POP POP ISZERO DUP1 ISZERO PUSH2 0x6C8 JUMPI RETURNDATASIZE PUSH1 0x0 DUP1 RETURNDATACOPY RETURNDATASIZE PUSH1 0x0 REVERT JUMPDEST POP PUSH2 0x79B JUMP JUMPDEST TIMESTAMP PUSH1 0xB PUSH1 0x0 PUSH1 0x1 DUP2 MSTORE PUSH1 0x20 ADD SWAP1 DUP2 MSTORE PUSH1 0x20 ADD PUSH1 0x0 KECCAK256 SLOAD GT ISZERO PUSH2 0x736 JUMPI CALLER PUSH20 0xFFFFFFFFFFFFFFFFFFFFFFFFFFFFFFFFFFFFFFFF AND PUSH2 0x8FC DUP4 SWAP1 DUP2 ISZERO MUL SWAP1 PUSH1 0x40 MLOAD PUSH1 0x0 PUSH1 0x40 MLOAD DUP1 DUP4 SUB DUP2 DUP6 DUP9 DUP9 CALL SWAP4 POP POP POP POP ISZERO DUP1 ISZERO PUSH2 0x730 JUMPI RETURNDATASIZE PUSH1 0x0 DUP1 RETURNDATACOPY RETURNDATASIZE PUSH1 0x0 REVERT JUMPDEST POP PUSH2 0x79A JUMP JUMPDEST TIMESTAMP PUSH1 0xB PUSH1 0x0 DUP1 DUP2 MSTORE PUSH1 0x20 ADD SWAP1 DUP2 MSTORE PUSH1 0x20 ADD PUSH1 0x0 KECCAK256 SLOAD GT ISZERO PUSH2 0x799 JUMPI CALLER PUSH20 0xFFFFFFFFFFFFFFFFFFFFFFFFFFFFFFFFFFFFFFFF AND PUSH2 0x8FC DUP4 SWAP1 DUP2 ISZERO MUL SWAP1 PUSH1 0x40 MLOAD PUSH1 0x0 PUSH1 0x40 MLOAD DUP1 DUP4 SUB DUP2 DUP6 DUP9 DUP9 CALL SWAP4 POP POP POP POP ISZERO DUP1 ISZERO PUSH2 0x797 JUMPI RETURNDATASIZE PUSH1 0x0 DUP1 RETURNDATACOPY RETURNDATASIZE PUSH1 0x0 REVERT JUMPDEST POP JUMPDEST JUMPDEST JUMPDEST POP POP JUMP JUMPDEST PUSH2 0x7A8 DUP3 PUSH2 0x5F9 JUMP JUMPDEST PUSH2 0x7B1 DUP2 PUSH2 0x9F2 JUMP JUMPDEST PUSH2 0x7BB DUP4 DUP4 PUSH2 0xA06 JUMP JUMPDEST POP POP POP JUMP JUMPDEST PUSH2 0x7C8 PUSH2 0xAE6 JUMP JUMPDEST PUSH20 0xFFFFFFFFFFFFFFFFFFFFFFFFFFFFFFFFFFFFFFFF AND DUP2 PUSH20 0xFFFFFFFFFFFFFFFFFFFFFFFFFFFFFFFFFFFFFFFF AND EQ PUSH2 0x835 JUMPI PUSH1 0x40 MLOAD PUSH32 0x8C379A000000000000000000000000000000000000000000000000000000000 DUP2 MSTORE PUSH1 0x4 ADD PUSH2 0x82C SWAP1 PUSH2 0x14DD JUMP JUMPDEST PUSH1 0x40 MLOAD DUP1 SWAP2 SUB SWAP1 REVERT JUMPDEST PUSH2 0x83F DUP3 DUP3 PUSH2 0xAEE JUMP JUMPDEST POP POP JUMP JUMPDEST PUSH1 0x5 SLOAD TIMESTAMP LT PUSH2 0x887 JUMPI PUSH1 0x40 MLOAD PUSH32 0x8C379A000000000000000000000000000000000000000000000000000000000 DUP2 MSTORE PUSH1 0x4 ADD PUSH2 0x87E SWAP1 PUSH2 0x11EA JUMP JUMPDEST PUSH1 0x40 MLOAD DUP1 SWAP2 SUB SWAP1 REVERT JUMPDEST PUSH32 0x3C11D16CBAFFD01DF69CE1C404F6340EE057498F5F00246190EA54220576A848 PUSH2 0x8B1 DUP2 PUSH2 0x9F2 JUMP JUMPDEST POP JUMP JUMPDEST PUSH32 0xB165298935924F540E4181C03493A5D686C54A0AAEB3F6216DE85B7FFBBA7738 DUP2 JUMP JUMPDEST PUSH1 0x0 DUP1 PUSH1 0x0 DUP5 DUP2 MSTORE PUSH1 0x20 ADD SWAP1 DUP2 MSTORE PUSH1 0x20 ADD PUSH1 0x0 KECCAK256 PUSH1 0x0 ADD PUSH1 0x0 DUP4 PUSH20 0xFFFFFFFFFFFFFFFFFFFFFFFFFFFFFFFFFFFFFFFF AND PUSH20 0xFFFFFFFFFFFFFFFFFFFFFFFFFFFFFFFFFFFFFFFF AND DUP2 MSTORE PUSH1 0x20 ADD SWAP1 DUP2 MSTORE PUSH1 0x20 ADD PUSH1 0x0 KECCAK256 PUSH1 0x0 SWAP1 SLOAD SWAP1 PUSH2 0x100 EXP SWAP1 DIV PUSH1 0xFF AND SWAP1 POP SWAP3 SWAP2 POP POP JUMP JUMPDEST PUSH1 0x0 DUP1 SHL DUP2 JUMP JUMPDEST PUSH2 0x952 DUP3 PUSH2 0x5F9 JUMP JUMPDEST PUSH2 0x95B DUP2 PUSH2 0x9F2 JUMP JUMPDEST PUSH2 0x965 DUP4 DUP4 PUSH2 0xAEE JUMP JUMPDEST POP POP POP JUMP JUMPDEST PUSH1 0x0 PUSH2 0x981 PUSH1 0xA SLOAD DUP4 PUSH2 0xBCF SWAP1 SWAP2 SWAP1 PUSH4 0xFFFFFFFF AND JUMP JUMPDEST SWAP1 POP SWAP2 SWAP1 POP JUMP JUMPDEST PUSH1 0x0 PUSH32 0x1FFC9A700000000000000000000000000000000000000000000000000000000 PUSH28 0xFFFFFFFFFFFFFFFFFFFFFFFFFFFFFFFFFFFFFFFFFFFFFFFFFFFFFFFF NOT AND DUP3 PUSH28 0xFFFFFFFFFFFFFFFFFFFFFFFFFFFFFFFFFFFFFFFFFFFFFFFFFFFFFFFF NOT AND EQ SWAP1 POP SWAP2 SWAP1 POP JUMP JUMPDEST PUSH2 0xA03 DUP2 PUSH2 0x9FE PUSH2 0xAE6 JUMP JUMPDEST PUSH2 0xBE5 JUMP JUMPDEST POP JUMP JUMPDEST PUSH2 0xA10 DUP3 DUP3 PUSH2 0x8D8 JUMP JUMPDEST PUSH2 0xAE2 JUMPI PUSH1 0x1 PUSH1 0x0 DUP1 DUP5 DUP2 MSTORE PUSH1 0x20 ADD SWAP1 DUP2 MSTORE PUSH1 0x20 ADD PUSH1 0x0 KECCAK256 PUSH1 0x0 ADD PUSH1 0x0 DUP4 PUSH20 0xFFFFFFFFFFFFFFFFFFFFFFFFFFFFFFFFFFFFFFFF AND PUSH20 0xFFFFFFFFFFFFFFFFFFFFFFFFFFFFFFFFFFFFFFFF AND DUP2 MSTORE PUSH1 0x20 ADD SWAP1 DUP2 MSTORE PUSH1 0x20 ADD PUSH1 0x0 KECCAK256 PUSH1 0x0 PUSH2 0x100 EXP DUP2 SLOAD DUP2 PUSH1 0xFF MUL NOT AND SWAP1 DUP4 ISZERO ISZERO MUL OR SWAP1 SSTORE POP PUSH2 0xA87 PUSH2 0xAE6 JUMP JUMPDEST PUSH20 0xFFFFFFFFFFFFFFFFFFFFFFFFFFFFFFFFFFFFFFFF AND DUP2 PUSH20 0xFFFFFFFFFFFFFFFFFFFFFFFFFFFFFFFFFFFFFFFF AND DUP4 PUSH32 0x2F8788117E7EFF1D82E926EC794901D17C78024A50270940304540A733656F0D PUSH1 0x40 MLOAD PUSH1 0x40 MLOAD DUP1 SWAP2 SUB SWAP1 LOG4 JUMPDEST POP POP JUMP JUMPDEST PUSH1 0x0 CALLER SWAP1 POP SWAP1 JUMP JUMPDEST PUSH2 0xAF8 DUP3 DUP3 PUSH2 0x8D8 JUMP JUMPDEST ISZERO PUSH2 0xBCB JUMPI PUSH1 0x0 DUP1 PUSH1 0x0 DUP5 DUP2 MSTORE PUSH1 0x20 ADD SWAP1 DUP2 MSTORE PUSH1 0x20 ADD PUSH1 0x0 KECCAK256 PUSH1 0x0 ADD PUSH1 0x0 DUP4 PUSH20 0xFFFFFFFFFFFFFFFFFFFFFFFFFFFFFFFFFFFFFFFF AND PUSH20 0xFFFFFFFFFFFFFFFFFFFFFFFFFFFFFFFFFFFFFFFF AND DUP2 MSTORE PUSH1 0x20 ADD SWAP1 DUP2 MSTORE PUSH1 0x20 ADD PUSH1 0x0 KECCAK256 PUSH1 0x0 PUSH2 0x100 EXP DUP2 SLOAD DUP2 PUSH1 0xFF MUL NOT AND SWAP1 DUP4 ISZERO ISZERO MUL OR SWAP1 SSTORE POP PUSH2 0xB70 PUSH2 0xAE6 JUMP JUMPDEST PUSH20 0xFFFFFFFFFFFFFFFFFFFFFFFFFFFFFFFFFFFFFFFF AND DUP2 PUSH20 0xFFFFFFFFFFFFFFFFFFFFFFFFFFFFFFFFFFFFFFFF AND DUP4 PUSH32 0xF6391F5C32D9C69D2A47EA670B442974B53935D1EDC7FD64EB21E047A839171B PUSH1 0x40 MLOAD PUSH1 0x40 MLOAD DUP1 SWAP2 SUB SWAP1 LOG4 JUMPDEST POP POP JUMP JUMPDEST PUSH1 0x0 DUP2 DUP4 PUSH2 0xBDD SWAP2 SWAP1 PUSH2 0x14FD JUMP JUMPDEST SWAP1 POP SWAP3 SWAP2 POP POP JUMP JUMPDEST PUSH2 0xBEF DUP3 DUP3 PUSH2 0x8D8 JUMP JUMPDEST PUSH2 0xC66 JUMPI PUSH2 0xBFC DUP2 PUSH2 0xC6A JUMP JUMPDEST PUSH2 0xC0A DUP4 PUSH1 0x0 SHR PUSH1 0x20 PUSH2 0xC97 JUMP JUMPDEST PUSH1 0x40 MLOAD PUSH1 0x20 ADD PUSH2 0xC1B SWAP3 SWAP2 SWAP1 PUSH2 0x1648 JUMP JUMPDEST PUSH1 0x40 MLOAD PUSH1 0x20 DUP2 DUP4 SUB SUB DUP2 MSTORE SWAP1 PUSH1 0x40 MSTORE PUSH1 0x40 MLOAD PUSH32 0x8C379A000000000000000000000000000000000000000000000000000000000 DUP2 MSTORE PUSH1 0x4 ADD PUSH2 0xC5D SWAP2 SWAP1 PUSH2 0x16CC JUMP JUMPDEST PUSH1 0x40 MLOAD DUP1 SWAP2 SUB SWAP1 REVERT JUMPDEST POP POP JUMP JUMPDEST PUSH1 0x60 PUSH2 0xC90 DUP3 PUSH20 0xFFFFFFFFFFFFFFFFFFFFFFFFFFFFFFFFFFFFFFFF AND PUSH1 0x14 PUSH1 0xFF AND PUSH2 0xC97 JUMP JUMPDEST SWAP1 POP SWAP2 SWAP1 POP JUMP JUMPDEST PUSH1 0x60 PUSH1 0x0 PUSH1 0x2 DUP4 PUSH1 0x2 PUSH2 0xCAA SWAP2 SWAP1 PUSH2 0x14FD JUMP JUMPDEST PUSH2 0xCB4 SWAP2 SWAP1 PUSH2 0x12A5 JUMP JUMPDEST PUSH8 0xFFFFFFFFFFFFFFFF DUP2 GT ISZERO PUSH2 0xCCD JUMPI PUSH2 0xCCC PUSH2 0x16EE JUMP JUMPDEST JUMPDEST PUSH1 0x40 MLOAD SWAP1 DUP1 DUP3 MSTORE DUP1 PUSH1 0x1F ADD PUSH1 0x1F NOT AND PUSH1 0x20 ADD DUP3 ADD PUSH1 0x40 MSTORE DUP1 ISZERO PUSH2 0xCFF JUMPI DUP2 PUSH1 0x20 ADD PUSH1 0x1 DUP3 MUL DUP1 CALLDATASIZE DUP4 CALLDATACOPY DUP1 DUP3 ADD SWAP2 POP POP SWAP1 POP JUMPDEST POP SWAP1 POP PUSH32 0x3000000000000000000000000000000000000000000000000000000000000000 DUP2 PUSH1 0x0 DUP2 MLOAD DUP2 LT PUSH2 0xD37 JUMPI PUSH2 0xD36 PUSH2 0x171D JUMP JUMPDEST JUMPDEST PUSH1 0x20 ADD ADD SWAP1 PUSH31 0xFFFFFFFFFFFFFFFFFFFFFFFFFFFFFFFFFFFFFFFFFFFFFFFFFFFFFFFFFFFFFF NOT AND SWAP1 DUP2 PUSH1 0x0 BYTE SWAP1 MSTORE8 POP PUSH32 0x7800000000000000000000000000000000000000000000000000000000000000 DUP2 PUSH1 0x1 DUP2 MLOAD DUP2 LT PUSH2 0xD9B JUMPI PUSH2 0xD9A PUSH2 0x171D JUMP JUMPDEST JUMPDEST PUSH1 0x20 ADD ADD SWAP1 PUSH31 0xFFFFFFFFFFFFFFFFFFFFFFFFFFFFFFFFFFFFFFFFFFFFFFFFFFFFFFFFFFFFFF NOT AND SWAP1 DUP2 PUSH1 0x0 BYTE SWAP1 MSTORE8 POP PUSH1 0x0 PUSH1 0x1 DUP5 PUSH1 0x2 PUSH2 0xDDB SWAP2 SWAP1 PUSH2 0x14FD JUMP JUMPDEST PUSH2 0xDE5 SWAP2 SWAP1 PUSH2 0x12A5 JUMP JUMPDEST SWAP1 POP JUMPDEST PUSH1 0x1 DUP2 GT ISZERO PUSH2 0xE85 JUMPI PUSH32 0x3031323334353637383961626364656600000000000000000000000000000000 PUSH1 0xF DUP7 AND PUSH1 0x10 DUP2 LT PUSH2 0xE27 JUMPI PUSH2 0xE26 PUSH2 0x171D JUMP JUMPDEST JUMPDEST BYTE PUSH1 0xF8 SHL DUP3 DUP3 DUP2 MLOAD DUP2 LT PUSH2 0xE3E JUMPI PUSH2 0xE3D PUSH2 0x171D JUMP JUMPDEST JUMPDEST PUSH1 0x20 ADD ADD SWAP1 PUSH31 0xFFFFFFFFFFFFFFFFFFFFFFFFFFFFFFFFFFFFFFFFFFFFFFFFFFFFFFFFFFFFFF NOT AND SWAP1 DUP2 PUSH1 0x0 BYTE SWAP1 MSTORE8 POP PUSH1 0x4 DUP6 SWAP1 SHR SWAP5 POP DUP1 PUSH2 0xE7E SWAP1 PUSH2 0x174C JUMP JUMPDEST SWAP1 POP PUSH2 0xDE8 JUMP JUMPDEST POP PUSH1 0x0 DUP5 EQ PUSH2 0xEC9 JUMPI PUSH1 0x40 MLOAD PUSH32 0x8C379A000000000000000000000000000000000000000000000000000000000 DUP2 MSTORE PUSH1 0x4 ADD PUSH2 0xEC0 SWAP1 PUSH2 0x17C1 JUMP JUMPDEST PUSH1 0x40 MLOAD DUP1 SWAP2 SUB SWAP1 REVERT JUMPDEST DUP1 SWAP2 POP POP SWAP3 SWAP2 POP POP JUMP JUMPDEST PUSH1 0x0 DUP3 DUP3 MSTORE PUSH1 0x20 DUP3 ADD SWAP1 POP SWAP3 SWAP2 POP POP JUMP JUMPDEST PUSH32 0x66616C6C6261636B206869740000000000000000000000000000000000000000 PUSH1 0x0 DUP3 ADD MSTORE POP JUMP JUMPDEST PUSH1 0x0 PUSH2 0xF1A PUSH1 0xC DUP4 PUSH2 0xED3 JUMP JUMPDEST SWAP2 POP PUSH2 0xF25 DUP3 PUSH2 0xEE4 JUMP JUMPDEST PUSH1 0x20 DUP3 ADD SWAP1 POP SWAP2 SWAP1 POP JUMP JUMPDEST PUSH1 0x0 PUSH1 0x20 DUP3 ADD SWAP1 POP DUP2 DUP2 SUB PUSH1 0x0 DUP4 ADD MSTORE PUSH2 0xF49 DUP2 PUSH2 0xF0D JUMP JUMPDEST SWAP1 POP SWAP2 SWAP1 POP JUMP JUMPDEST PUSH1 0x0 DUP1 REVERT JUMPDEST PUSH1 0x0 PUSH32 0xFFFFFFFF00000000000000000000000000000000000000000000000000000000 DUP3 AND SWAP1 POP SWAP2 SWAP1 POP JUMP JUMPDEST PUSH2 0xF8A DUP2 PUSH2 0xF55 JUMP JUMPDEST DUP2 EQ PUSH2 0xF95 JUMPI PUSH1 0x0 DUP1 REVERT JUMPDEST POP JUMP JUMPDEST PUSH1 0x0 DUP2 CALLDATALOAD SWAP1 POP PUSH2 0xFA7 DUP2 PUSH2 0xF81 JUMP JUMPDEST SWAP3 SWAP2 POP POP JUMP JUMPDEST PUSH1 0x0 PUSH1 0x20 DUP3 DUP5 SUB SLT ISZERO PUSH2 0xFC3 JUMPI PUSH2 0xFC2 PUSH2 0xF50 JUMP JUMPDEST JUMPDEST PUSH1 0x0 PUSH2 0xFD1 DUP5 DUP3 DUP6 ADD PUSH2 0xF98 JUMP JUMPDEST SWAP2 POP POP SWAP3 SWAP2 POP POP JUMP JUMPDEST PUSH1 0x0 DUP2 ISZERO ISZERO SWAP1 POP SWAP2 SWAP1 POP JUMP JUMPDEST PUSH2 0xFEF DUP2 PUSH2 0xFDA JUMP JUMPDEST DUP3 MSTORE POP POP JUMP JUMPDEST PUSH1 0x0 PUSH1 0x20 DUP3 ADD SWAP1 POP PUSH2 0x100A PUSH1 0x0 DUP4 ADD DUP5 PUSH2 0xFE6 JUMP JUMPDEST SWAP3 SWAP2 POP POP JUMP JUMPDEST PUSH1 0x0 DUP2 SWAP1 POP SWAP2 SWAP1 POP JUMP JUMPDEST PUSH2 0x1023 DUP2 PUSH2 0x1010 JUMP JUMPDEST DUP2 EQ PUSH2 0x102E JUMPI PUSH1 0x0 DUP1 REVERT JUMPDEST POP JUMP JUMPDEST PUSH1 0x0 DUP2 CALLDATALOAD SWAP1 POP PUSH2 0x1040 DUP2 PUSH2 0x101A JUMP JUMPDEST SWAP3 SWAP2 POP POP JUMP JUMPDEST PUSH1 0x0 PUSH1 0x20 DUP3 DUP5 SUB SLT ISZERO PUSH2 0x105C JUMPI PUSH2 0x105B PUSH2 0xF50 JUMP JUMPDEST JUMPDEST PUSH1 0x0 PUSH2 0x106A DUP5 DUP3 DUP6 ADD PUSH2 0x1031 JUMP JUMPDEST SWAP2 POP POP SWAP3 SWAP2 POP POP JUMP JUMPDEST PUSH2 0x107C DUP2 PUSH2 0x1010 JUMP JUMPDEST DUP3 MSTORE POP POP JUMP JUMPDEST PUSH1 0x0 PUSH1 0x20 DUP3 ADD SWAP1 POP PUSH2 0x1097 PUSH1 0x0 DUP4 ADD DUP5 PUSH2 0x1073 JUMP JUMPDEST SWAP3 SWAP2 POP POP JUMP JUMPDEST PUSH1 0x0 DUP2 SWAP1 POP SWAP2 SWAP1 POP JUMP JUMPDEST PUSH2 0x10B0 DUP2 PUSH2 0x109D JUMP JUMPDEST DUP2 EQ PUSH2 0x10BB JUMPI PUSH1 0x0 DUP1 REVERT JUMPDEST POP JUMP JUMPDEST PUSH1 0x0 DUP2 CALLDATALOAD SWAP1 POP PUSH2 0x10CD DUP2 PUSH2 0x10A7 JUMP JUMPDEST SWAP3 SWAP2 POP POP JUMP JUMPDEST PUSH1 0x0 PUSH1 0x20 DUP3 DUP5 SUB SLT ISZERO PUSH2 0x10E9 JUMPI PUSH2 0x10E8 PUSH2 0xF50 JUMP JUMPDEST JUMPDEST PUSH1 0x0 PUSH2 0x10F7 DUP5 DUP3 DUP6 ADD PUSH2 0x10BE JUMP JUMPDEST SWAP2 POP POP SWAP3 SWAP2 POP POP JUMP JUMPDEST PUSH1 0x0 PUSH20 0xFFFFFFFFFFFFFFFFFFFFFFFFFFFFFFFFFFFFFFFF DUP3 AND SWAP1 POP SWAP2 SWAP1 POP JUMP JUMPDEST PUSH1 0x0 PUSH2 0x112B DUP3 PUSH2 0x1100 JUMP JUMPDEST SWAP1 POP SWAP2 SWAP1 POP JUMP JUMPDEST PUSH2 0x113B DUP2 PUSH2 0x1120 JUMP JUMPDEST DUP2 EQ PUSH2 0x1146 JUMPI PUSH1 0x0 DUP1 REVERT JUMPDEST POP JUMP JUMPDEST PUSH1 0x0 DUP2 CALLDATALOAD SWAP1 POP PUSH2 0x1158 DUP2 PUSH2 0x1132 JUMP JUMPDEST SWAP3 SWAP2 POP POP JUMP JUMPDEST PUSH1 0x0 DUP1 PUSH1 0x40 DUP4 DUP6 SUB SLT ISZERO PUSH2 0x1175 JUMPI PUSH2 0x1174 PUSH2 0xF50 JUMP JUMPDEST JUMPDEST PUSH1 0x0 PUSH2 0x1183 DUP6 DUP3 DUP7 ADD PUSH2 0x1031 JUMP JUMPDEST SWAP3 POP POP PUSH1 0x20 PUSH2 0x1194 DUP6 DUP3 DUP7 ADD PUSH2 0x1149 JUMP JUMPDEST SWAP2 POP POP SWAP3 POP SWAP3 SWAP1 POP JUMP JUMPDEST PUSH32 0x49434F206973206F766572203A28200000000000000000000000000000000000 PUSH1 0x0 DUP3 ADD MSTORE POP JUMP JUMPDEST PUSH1 0x0 PUSH2 0x11D4 PUSH1 0xF DUP4 PUSH2 0xED3 JUMP JUMPDEST SWAP2 POP PUSH2 0x11DF DUP3 PUSH2 0x119E JUMP JUMPDEST PUSH1 0x20 DUP3 ADD SWAP1 POP SWAP2 SWAP1 POP JUMP JUMPDEST PUSH1 0x0 PUSH1 0x20 DUP3 ADD SWAP1 POP DUP2 DUP2 SUB PUSH1 0x0 DUP4 ADD MSTORE PUSH2 0x1203 DUP2 PUSH2 0x11C7 JUMP JUMPDEST SWAP1 POP SWAP2 SWAP1 POP JUMP JUMPDEST PUSH32 0x7468656D2F7468657920706C656173652073656E64206D657469730000000000 PUSH1 0x0 DUP3 ADD MSTORE POP JUMP JUMPDEST PUSH1 0x0 PUSH2 0x1240 PUSH1 0x1B DUP4 PUSH2 0xED3 JUMP JUMPDEST SWAP2 POP PUSH2 0x124B DUP3 PUSH2 0x120A JUMP JUMPDEST PUSH1 0x20 DUP3 ADD SWAP1 POP SWAP2 SWAP1 POP JUMP JUMPDEST PUSH1 0x0 PUSH1 0x20 DUP3 ADD SWAP1 POP DUP2 DUP2 SUB PUSH1 0x0 DUP4 ADD MSTORE PUSH2 0x126F DUP2 PUSH2 0x1233 JUMP JUMPDEST SWAP1 POP SWAP2 SWAP1 POP JUMP JUMPDEST PUSH32 0x4E487B7100000000000000000000000000000000000000000000000000000000 PUSH1 0x0 MSTORE PUSH1 0x11 PUSH1 0x4 MSTORE PUSH1 0x24 PUSH1 0x0 REVERT JUMPDEST PUSH1 0x0 PUSH2 0x12B0 DUP3 PUSH2 0x109D JUMP JUMPDEST SWAP2 POP PUSH2 0x12BB DUP4 PUSH2 0x109D JUMP JUMPDEST SWAP3 POP DUP3 DUP3 ADD SWAP1 POP DUP1 DUP3 GT ISZERO PUSH2 0x12D3 JUMPI PUSH2 0x12D2 PUSH2 0x1276 JUMP JUMPDEST JUMPDEST SWAP3 SWAP2 POP POP JUMP JUMPDEST PUSH32 0x657863656564732074686520746F74616C20666F722073616C65000000000000 PUSH1 0x0 DUP3 ADD MSTORE POP JUMP JUMPDEST PUSH1 0x0 PUSH2 0x130F PUSH1 0x1A DUP4 PUSH2 0xED3 JUMP JUMPDEST SWAP2 POP PUSH2 0x131A DUP3 PUSH2 0x12D9 JUMP JUMPDEST PUSH1 0x20 DUP3 ADD SWAP1 POP SWAP2 SWAP1 POP JUMP JUMPDEST PUSH1 0x0 PUSH1 0x20 DUP3 ADD SWAP1 POP DUP2 DUP2 SUB PUSH1 0x0 DUP4 ADD MSTORE PUSH2 0x133E DUP2 PUSH2 0x1302 JUMP JUMPDEST SWAP1 POP SWAP2 SWAP1 POP JUMP JUMPDEST PUSH2 0x134E DUP2 PUSH2 0x1120 JUMP JUMPDEST DUP3 MSTORE POP POP JUMP JUMPDEST PUSH1 0x0 PUSH1 0x40 DUP3 ADD SWAP1 POP PUSH2 0x1369 PUSH1 0x0 DUP4 ADD DUP6 PUSH2 0x1345 JUMP JUMPDEST PUSH2 0x1376 PUSH1 0x20 DUP4 ADD DUP5 PUSH2 0x1345 JUMP JUMPDEST SWAP4 SWAP3 POP POP POP JUMP JUMPDEST PUSH1 0x0 DUP2 MLOAD SWAP1 POP PUSH2 0x138C DUP2 PUSH2 0x10A7 JUMP JUMPDEST SWAP3 SWAP2 POP POP JUMP JUMPDEST PUSH1 0x0 PUSH1 0x20 DUP3 DUP5 SUB SLT ISZERO PUSH2 0x13A8 JUMPI PUSH2 0x13A7 PUSH2 0xF50 JUMP JUMPDEST JUMPDEST PUSH1 0x0 PUSH2 0x13B6 DUP5 DUP3 DUP6 ADD PUSH2 0x137D JUMP JUMPDEST SWAP2 POP POP SWAP3 SWAP2 POP POP JUMP JUMPDEST PUSH2 0x13C8 DUP2 PUSH2 0x109D JUMP JUMPDEST DUP3 MSTORE POP POP JUMP JUMPDEST PUSH1 0x0 PUSH1 0x40 DUP3 ADD SWAP1 POP PUSH2 0x13E3 PUSH1 0x0 DUP4 ADD DUP6 PUSH2 0x1345 JUMP JUMPDEST PUSH2 0x13F0 PUSH1 0x20 DUP4 ADD DUP5 PUSH2 0x13BF JUMP JUMPDEST SWAP4 SWAP3 POP POP POP JUMP JUMPDEST PUSH2 0x1400 DUP2 PUSH2 0xFDA JUMP JUMPDEST DUP2 EQ PUSH2 0x140B JUMPI PUSH1 0x0 DUP1 REVERT JUMPDEST POP JUMP JUMPDEST PUSH1 0x0 DUP2 MLOAD SWAP1 POP PUSH2 0x141D DUP2 PUSH2 0x13F7 JUMP JUMPDEST SWAP3 SWAP2 POP POP JUMP JUMPDEST PUSH1 0x0 PUSH1 0x20 DUP3 DUP5 SUB SLT ISZERO PUSH2 0x1439 JUMPI PUSH2 0x1438 PUSH2 0xF50 JUMP JUMPDEST JUMPDEST PUSH1 0x0 PUSH2 0x1447 DUP5 DUP3 DUP6 ADD PUSH2 0x140E JUMP JUMPDEST SWAP2 POP POP SWAP3 SWAP2 POP POP JUMP JUMPDEST PUSH1 0x0 PUSH1 0x20 DUP3 ADD SWAP1 POP PUSH2 0x1465 PUSH1 0x0 DUP4 ADD DUP5 PUSH2 0x13BF JUMP JUMPDEST SWAP3 SWAP2 POP POP JUMP JUMPDEST PUSH32 0x416363657373436F6E74726F6C3A2063616E206F6E6C792072656E6F756E6365 PUSH1 0x0 DUP3 ADD MSTORE PUSH32 0x20726F6C657320666F722073656C660000000000000000000000000000000000 PUSH1 0x20 DUP3 ADD MSTORE POP JUMP JUMPDEST PUSH1 0x0 PUSH2 0x14C7 PUSH1 0x2F DUP4 PUSH2 0xED3 JUMP JUMPDEST SWAP2 POP PUSH2 0x14D2 DUP3 PUSH2 0x146B JUMP JUMPDEST PUSH1 0x40 DUP3 ADD SWAP1 POP SWAP2 SWAP1 POP JUMP JUMPDEST PUSH1 0x0 PUSH1 0x20 DUP3 ADD SWAP1 POP DUP2 DUP2 SUB PUSH1 0x0 DUP4 ADD MSTORE PUSH2 0x14F6 DUP2 PUSH2 0x14BA JUMP JUMPDEST SWAP1 POP SWAP2 SWAP1 POP JUMP JUMPDEST PUSH1 0x0 PUSH2 0x1508 DUP3 PUSH2 0x109D JUMP JUMPDEST SWAP2 POP PUSH2 0x1513 DUP4 PUSH2 0x109D JUMP JUMPDEST SWAP3 POP DUP3 DUP3 MUL PUSH2 0x1521 DUP2 PUSH2 0x109D JUMP JUMPDEST SWAP2 POP DUP3 DUP3 DIV DUP5 EQ DUP4 ISZERO OR PUSH2 0x1538 JUMPI PUSH2 0x1537 PUSH2 0x1276 JUMP JUMPDEST JUMPDEST POP SWAP3 SWAP2 POP POP JUMP JUMPDEST PUSH1 0x0 DUP2 SWAP1 POP SWAP3 SWAP2 POP POP JUMP JUMPDEST PUSH32 0x416363657373436F6E74726F6C3A206163636F756E7420000000000000000000 PUSH1 0x0 DUP3 ADD MSTORE POP JUMP JUMPDEST PUSH1 0x0 PUSH2 0x1580 PUSH1 0x17 DUP4 PUSH2 0x153F JUMP JUMPDEST SWAP2 POP PUSH2 0x158B DUP3 PUSH2 0x154A JUMP JUMPDEST PUSH1 0x17 DUP3 ADD SWAP1 POP SWAP2 SWAP1 POP JUMP JUMPDEST PUSH1 0x0 DUP2 MLOAD SWAP1 POP SWAP2 SWAP1 POP JUMP JUMPDEST PUSH1 0x0 JUMPDEST DUP4 DUP2 LT ISZERO PUSH2 0x15BF JUMPI DUP1 DUP3 ADD MLOAD DUP2 DUP5 ADD MSTORE PUSH1 0x20 DUP2 ADD SWAP1 POP PUSH2 0x15A4 JUMP JUMPDEST PUSH1 0x0 DUP5 DUP5 ADD MSTORE POP POP POP POP JUMP JUMPDEST PUSH1 0x0 PUSH2 0x15D6 DUP3 PUSH2 0x1596 JUMP JUMPDEST PUSH2 0x15E0 DUP2 DUP6 PUSH2 0x153F JUMP JUMPDEST SWAP4 POP PUSH2 0x15F0 DUP2 DUP6 PUSH1 0x20 DUP7 ADD PUSH2 0x15A1 JUMP JUMPDEST DUP1 DUP5 ADD SWAP2 POP POP SWAP3 SWAP2 POP POP JUMP JUMPDEST PUSH32 0x206973206D697373696E6720726F6C6520000000000000000000000000000000 PUSH1 0x0 DUP3 ADD MSTORE POP JUMP JUMPDEST PUSH1 0x0 PUSH2 0x1632 PUSH1 0x11 DUP4 PUSH2 0x153F JUMP JUMPDEST SWAP2 POP PUSH2 0x163D DUP3 PUSH2 0x15FC JUMP JUMPDEST PUSH1 0x11 DUP3 ADD SWAP1 POP SWAP2 SWAP1 POP JUMP JUMPDEST PUSH1 0x0 PUSH2 0x1653 DUP3 PUSH2 0x1573 JUMP JUMPDEST SWAP2 POP PUSH2 0x165F DUP3 DUP6 PUSH2 0x15CB JUMP JUMPDEST SWAP2 POP PUSH2 0x166A DUP3 PUSH2 0x1625 JUMP JUMPDEST SWAP2 POP PUSH2 0x1676 DUP3 DUP5 PUSH2 0x15CB JUMP JUMPDEST SWAP2 POP DUP2 SWAP1 POP SWAP4 SWAP3 POP POP POP JUMP JUMPDEST PUSH1 0x0 PUSH1 0x1F NOT PUSH1 0x1F DUP4 ADD AND SWAP1 POP SWAP2 SWAP1 POP JUMP JUMPDEST PUSH1 0x0 PUSH2 0x169E DUP3 PUSH2 0x1596 JUMP JUMPDEST PUSH2 0x16A8 DUP2 DUP6 PUSH2 0xED3 JUMP JUMPDEST SWAP4 POP PUSH2 0x16B8 DUP2 DUP6 PUSH1 0x20 DUP7 ADD PUSH2 0x15A1 JUMP JUMPDEST PUSH2 0x16C1 DUP2 PUSH2 0x1682 JUMP JUMPDEST DUP5 ADD SWAP2 POP POP SWAP3 SWAP2 POP POP JUMP JUMPDEST PUSH1 0x0 PUSH1 0x20 DUP3 ADD SWAP1 POP DUP2 DUP2 SUB PUSH1 0x0 DUP4 ADD MSTORE PUSH2 0x16E6 DUP2 DUP5 PUSH2 0x1693 JUMP JUMPDEST SWAP1 POP SWAP3 SWAP2 POP POP JUMP JUMPDEST PUSH32 0x4E487B7100000000000000000000000000000000000000000000000000000000 PUSH1 0x0 MSTORE PUSH1 0x41 PUSH1 0x4 MSTORE PUSH1 0x24 PUSH1 0x0 REVERT JUMPDEST PUSH32 0x4E487B7100000000000000000000000000000000000000000000000000000000 PUSH1 0x0 MSTORE PUSH1 0x32 PUSH1 0x4 MSTORE PUSH1 0x24 PUSH1 0x0 REVERT JUMPDEST PUSH1 0x0 PUSH2 0x1757 DUP3 PUSH2 0x109D JUMP JUMPDEST SWAP2 POP PUSH1 0x0 DUP3 SUB PUSH2 0x176A JUMPI PUSH2 0x1769 PUSH2 0x1276 JUMP JUMPDEST JUMPDEST PUSH1 0x1 DUP3 SUB SWAP1 POP SWAP2 SWAP1 POP JUMP JUMPDEST PUSH32 0x537472696E67733A20686578206C656E67746820696E73756666696369656E74 PUSH1 0x0 DUP3 ADD MSTORE POP JUMP JUMPDEST PUSH1 0x0 PUSH2 0x17AB PUSH1 0x20 DUP4 PUSH2 0xED3 JUMP JUMPDEST SWAP2 POP PUSH2 0x17B6 DUP3 PUSH2 0x1775 JUMP JUMPDEST PUSH1 0x20 DUP3 ADD SWAP1 POP SWAP2 SWAP1 POP JUMP JUMPDEST PUSH1 0x0 PUSH1 0x20 DUP3 ADD SWAP1 POP DUP2 DUP2 SUB PUSH1 0x0 DUP4 ADD MSTORE PUSH2 0x17DA DUP2 PUSH2 0x179E JUMP JUMPDEST SWAP1 POP SWAP2 SWAP1 POP JUMP INVALID LOG2 PUSH5 0x6970667358 0x22 SLT KECCAK256 0x2C 0xEA 0xCB 0xCB MULMOD 0xA7 PUSH30 0xAADE85A9CDC39E13B7CAC45D5C8B54108A7CAC7F5B87E8A53B64736F6C63 NUMBER STOP ADDMOD GT STOP CALLER "
				},
				"gasEstimates": {
					"creation": {
						"codeDepositCost": "1233400",
						"executionCost": "infinite",
						"totalCost": "infinite"
					},
					"external": {
						"BURNER_ROLE()": "374",
						"DEFAULT_ADMIN_ROLE()": "401",
						"INVESTOR_ROLE()": "351",
						"buy()": "infinite",
						"endICO()": "infinite",
						"getRoleAdmin(bytes32)": "infinite",
						"grantRole(bytes32,address)": "infinite",
						"hasRole(bytes32,address)": "3184",
						"renounceRole(bytes32,address)": "infinite",
						"revokeRole(bytes32,address)": "infinite",
						"supportsInterface(bytes4)": "728",
						"withdraw(uint256)": "infinite"
					},
					"internal": {
						"conversion(uint256)": "infinite",
						"soldPercent()": "infinite"
					}
				},
				"methodIdentifiers": {
					"BURNER_ROLE()": "282c51f3",
					"DEFAULT_ADMIN_ROLE()": "a217fddf",
					"INVESTOR_ROLE()": "76082a5e",
					"buy()": "a6f2ae3a",
					"endICO()": "4f248409",
					"getRoleAdmin(bytes32)": "248a9ca3",
					"grantRole(bytes32,address)": "2f2ff15d",
					"hasRole(bytes32,address)": "91d14854",
					"renounceRole(bytes32,address)": "36568abe",
					"revokeRole(bytes32,address)": "d547741f",
					"supportsInterface(bytes4)": "01ffc9a7",
					"withdraw(uint256)": "2e1a7d4d"
				}
			},
			"storageLayout": {
				"storage": [
					{
						"astId": 24,
						"contract": "contracts/ICO.sol:ICO",
						"label": "_roles",
						"offset": 0,
						"slot": "0",
						"type": "t_mapping(t_bytes32,t_struct(RoleData)19_storage)"
					},
					{
						"astId": 1898,
						"contract": "contracts/ICO.sol:ICO",
						"label": "owner",
						"offset": 0,
						"slot": "1",
						"type": "t_address_payable"
					},
					{
						"astId": 1900,
						"contract": "contracts/ICO.sol:ICO",
						"label": "devAddress",
						"offset": 0,
						"slot": "2",
						"type": "t_address_payable"
					},
					{
						"astId": 1903,
						"contract": "contracts/ICO.sol:ICO",
						"label": "minters_",
						"offset": 0,
						"slot": "3",
						"type": "t_array(t_address)dyn_storage"
					},
					{
						"astId": 1905,
						"contract": "contracts/ICO.sol:ICO",
						"label": "maxSupply_",
						"offset": 0,
						"slot": "4",
						"type": "t_uint256"
					},
					{
						"astId": 1908,
						"contract": "contracts/ICO.sol:ICO",
						"label": "timeLock",
						"offset": 0,
						"slot": "5",
						"type": "t_uint256"
					},
					{
						"astId": 1911,
						"contract": "contracts/ICO.sol:ICO",
						"label": "eftt",
						"offset": 0,
						"slot": "6",
						"type": "t_contract(IERC20)466"
					},
					{
						"astId": 1918,
						"contract": "contracts/ICO.sol:ICO",
						"label": "maxICO",
						"offset": 0,
						"slot": "7",
						"type": "t_uint256"
					},
					{
						"astId": 1920,
						"contract": "contracts/ICO.sol:ICO",
						"label": "SoldInMetis",
						"offset": 0,
						"slot": "8",
						"type": "t_uint256"
					},
					{
						"astId": 1922,
						"contract": "contracts/ICO.sol:ICO",
						"label": "SoldEFTT",
						"offset": 0,
						"slot": "9",
						"type": "t_uint256"
					},
					{
						"astId": 1925,
						"contract": "contracts/ICO.sol:ICO",
						"label": "ratioMetis",
						"offset": 0,
						"slot": "10",
						"type": "t_uint256"
					},
					{
						"astId": 1929,
						"contract": "contracts/ICO.sol:ICO",
						"label": "timeLocks",
						"offset": 0,
						"slot": "11",
						"type": "t_mapping(t_uint256,t_uint256)"
					}
				],
				"types": {
					"t_address": {
						"encoding": "inplace",
						"label": "address",
						"numberOfBytes": "20"
					},
					"t_address_payable": {
						"encoding": "inplace",
						"label": "address payable",
						"numberOfBytes": "20"
					},
					"t_array(t_address)dyn_storage": {
						"base": "t_address",
						"encoding": "dynamic_array",
						"label": "address[]",
						"numberOfBytes": "32"
					},
					"t_bool": {
						"encoding": "inplace",
						"label": "bool",
						"numberOfBytes": "1"
					},
					"t_bytes32": {
						"encoding": "inplace",
						"label": "bytes32",
						"numberOfBytes": "32"
					},
					"t_contract(IERC20)466": {
						"encoding": "inplace",
						"label": "contract IERC20",
						"numberOfBytes": "20"
					},
					"t_mapping(t_address,t_bool)": {
						"encoding": "mapping",
						"key": "t_address",
						"label": "mapping(address => bool)",
						"numberOfBytes": "32",
						"value": "t_bool"
					},
					"t_mapping(t_bytes32,t_struct(RoleData)19_storage)": {
						"encoding": "mapping",
						"key": "t_bytes32",
						"label": "mapping(bytes32 => struct AccessControl.RoleData)",
						"numberOfBytes": "32",
						"value": "t_struct(RoleData)19_storage"
					},
					"t_mapping(t_uint256,t_uint256)": {
						"encoding": "mapping",
						"key": "t_uint256",
						"label": "mapping(uint256 => uint256)",
						"numberOfBytes": "32",
						"value": "t_uint256"
					},
					"t_struct(RoleData)19_storage": {
						"encoding": "inplace",
						"label": "struct AccessControl.RoleData",
						"members": [
							{
								"astId": 16,
								"contract": "contracts/ICO.sol:ICO",
								"label": "members",
								"offset": 0,
								"slot": "0",
								"type": "t_mapping(t_address,t_bool)"
							},
							{
								"astId": 18,
								"contract": "contracts/ICO.sol:ICO",
								"label": "adminRole",
								"offset": 0,
								"slot": "1",
								"type": "t_bytes32"
							}
						],
						"numberOfBytes": "64"
					},
					"t_uint256": {
						"encoding": "inplace",
						"label": "uint256",
						"numberOfBytes": "32"
					}
				}
			},
			"userdoc": {
				"kind": "user",
				"methods": {},
				"version": 1
			}
		}
	}
}