{
	"contracts/ICO.sol": {
		"ICO": {
			"abi": [
				{
					"inputs": [
						{
							"internalType": "address",
							"name": "_eftt",
							"type": "address"
						},
						{
							"internalType": "address",
							"name": "_dev",
							"type": "address"
						}
					],
					"stateMutability": "payable",
					"type": "constructor"
				},
				{
					"anonymous": false,
					"inputs": [
						{
							"indexed": false,
							"internalType": "string",
							"name": "func",
							"type": "string"
						}
					],
					"name": "Log",
					"type": "event"
				},
				{
					"anonymous": false,
					"inputs": [
						{
							"indexed": true,
							"internalType": "bytes32",
							"name": "role",
							"type": "bytes32"
						},
						{
							"indexed": true,
							"internalType": "bytes32",
							"name": "previousAdminRole",
							"type": "bytes32"
						},
						{
							"indexed": true,
							"internalType": "bytes32",
							"name": "newAdminRole",
							"type": "bytes32"
						}
					],
					"name": "RoleAdminChanged",
					"type": "event"
				},
				{
					"anonymous": false,
					"inputs": [
						{
							"indexed": true,
							"internalType": "bytes32",
							"name": "role",
							"type": "bytes32"
						},
						{
							"indexed": true,
							"internalType": "address",
							"name": "account",
							"type": "address"
						},
						{
							"indexed": true,
							"internalType": "address",
							"name": "sender",
							"type": "address"
						}
					],
					"name": "RoleGranted",
					"type": "event"
				},
				{
					"anonymous": false,
					"inputs": [
						{
							"indexed": true,
							"internalType": "bytes32",
							"name": "role",
							"type": "bytes32"
						},
						{
							"indexed": true,
							"internalType": "address",
							"name": "account",
							"type": "address"
						},
						{
							"indexed": true,
							"internalType": "address",
							"name": "sender",
							"type": "address"
						}
					],
					"name": "RoleRevoked",
					"type": "event"
				},
				{
					"anonymous": false,
					"inputs": [
						{
							"indexed": false,
							"internalType": "uint256",
							"name": "",
							"type": "uint256"
						}
					],
					"name": "Sold",
					"type": "event"
				},
				{
					"inputs": [],
					"name": "BURNER_ROLE",
					"outputs": [
						{
							"internalType": "bytes32",
							"name": "",
							"type": "bytes32"
						}
					],
					"stateMutability": "view",
					"type": "function"
				},
				{
					"inputs": [],
					"name": "DEFAULT_ADMIN_ROLE",
					"outputs": [
						{
							"internalType": "bytes32",
							"name": "",
							"type": "bytes32"
						}
					],
					"stateMutability": "view",
					"type": "function"
				},
				{
					"inputs": [],
					"name": "EXTEND_ICO_ROLE",
					"outputs": [
						{
							"internalType": "bytes32",
							"name": "",
							"type": "bytes32"
						}
					],
					"stateMutability": "view",
					"type": "function"
				},
				{
					"inputs": [],
					"name": "INVESTOR_ROLE",
					"outputs": [
						{
							"internalType": "bytes32",
							"name": "",
							"type": "bytes32"
						}
					],
					"stateMutability": "view",
					"type": "function"
				},
				{
					"inputs": [],
					"name": "burned",
					"outputs": [
						{
							"internalType": "bool",
							"name": "",
							"type": "bool"
						}
					],
					"stateMutability": "view",
					"type": "function"
				},
				{
					"inputs": [],
					"name": "buy",
					"outputs": [
						{
							"internalType": "bool",
							"name": "",
							"type": "bool"
						}
					],
					"stateMutability": "payable",
					"type": "function"
				},
				{
					"inputs": [],
					"name": "endICO",
					"outputs": [],
					"stateMutability": "nonpayable",
					"type": "function"
				},
				{
					"inputs": [
						{
							"internalType": "bytes32",
							"name": "role",
							"type": "bytes32"
						}
					],
					"name": "getRoleAdmin",
					"outputs": [
						{
							"internalType": "bytes32",
							"name": "",
							"type": "bytes32"
						}
					],
					"stateMutability": "view",
					"type": "function"
				},
				{
					"inputs": [
						{
							"internalType": "bytes32",
							"name": "role",
							"type": "bytes32"
						},
						{
							"internalType": "address",
							"name": "account",
							"type": "address"
						}
					],
					"name": "grantRole",
					"outputs": [],
					"stateMutability": "nonpayable",
					"type": "function"
				},
				{
					"inputs": [
						{
							"internalType": "bytes32",
							"name": "role",
							"type": "bytes32"
						},
						{
							"internalType": "address",
							"name": "account",
							"type": "address"
						}
					],
					"name": "hasRole",
					"outputs": [
						{
							"internalType": "bool",
							"name": "",
							"type": "bool"
						}
					],
					"stateMutability": "view",
					"type": "function"
				},
				{
					"inputs": [
						{
							"internalType": "bytes32",
							"name": "role",
							"type": "bytes32"
						},
						{
							"internalType": "address",
							"name": "account",
							"type": "address"
						}
					],
					"name": "renounceRole",
					"outputs": [],
					"stateMutability": "nonpayable",
					"type": "function"
				},
				{
					"inputs": [
						{
							"internalType": "bytes32",
							"name": "role",
							"type": "bytes32"
						},
						{
							"internalType": "address",
							"name": "account",
							"type": "address"
						}
					],
					"name": "revokeRole",
					"outputs": [],
					"stateMutability": "nonpayable",
					"type": "function"
				},
				{
					"inputs": [
						{
							"internalType": "bytes4",
							"name": "interfaceId",
							"type": "bytes4"
						}
					],
					"name": "supportsInterface",
					"outputs": [
						{
							"internalType": "bool",
							"name": "",
							"type": "bool"
						}
					],
					"stateMutability": "view",
					"type": "function"
				},
				{
					"inputs": [
						{
							"internalType": "uint256",
							"name": "_amnt",
							"type": "uint256"
						}
					],
					"name": "withdraw",
					"outputs": [],
					"stateMutability": "nonpayable",
					"type": "function"
				},
				{
					"stateMutability": "payable",
					"type": "receive"
				}
			],
			"devdoc": {
				"kind": "dev",
				"methods": {
					"getRoleAdmin(bytes32)": {
						"details": "Returns the admin role that controls `role`. See {grantRole} and {revokeRole}. To change a role's admin, use {_setRoleAdmin}."
					},
					"grantRole(bytes32,address)": {
						"details": "Grants `role` to `account`. If `account` had not been already granted `role`, emits a {RoleGranted} event. Requirements: - the caller must have ``role``'s admin role. May emit a {RoleGranted} event."
					},
					"hasRole(bytes32,address)": {
						"details": "Returns `true` if `account` has been granted `role`."
					},
					"renounceRole(bytes32,address)": {
						"details": "Revokes `role` from the calling account. Roles are often managed via {grantRole} and {revokeRole}: this function's purpose is to provide a mechanism for accounts to lose their privileges if they are compromised (such as when a trusted device is misplaced). If the calling account had been revoked `role`, emits a {RoleRevoked} event. Requirements: - the caller must be `account`. May emit a {RoleRevoked} event."
					},
					"revokeRole(bytes32,address)": {
						"details": "Revokes `role` from `account`. If `account` had been granted `role`, emits a {RoleRevoked} event. Requirements: - the caller must have ``role``'s admin role. May emit a {RoleRevoked} event."
					},
					"supportsInterface(bytes4)": {
						"details": "See {IERC165-supportsInterface}."
					}
				},
				"version": 1
			},
			"evm": {
				"assembly": "    /* \"contracts/ICO.sol\":266:4107  contract ICO is AccessControl{... */\n  mstore(0x40, 0xa0)\n    /* \"contracts/ICO.sol\":759:770  18000000000 */\n  0x0430e23400\n    /* \"contracts/ICO.sol\":742:770  uint256 timeLock=18000000000 */\n  0x05\n  sstore\n    /* \"contracts/ICO.sol\":809:823  100000 *10**18 */\n  0x152d02c7e14af6800000\n    /* \"contracts/ICO.sol\":792:823  uint256 maxICO = 100000 *10**18 */\n  0x07\n  sstore\n    /* \"contracts/ICO.sol\":896:897  1 */\n  0x01\n    /* \"contracts/ICO.sol\":876:897  uint256 ratioMetis =1 */\n  0x0a\n  sstore\n    /* \"contracts/ICO.sol\":962:967  false */\n  0x00\n    /* \"contracts/ICO.sol\":940:967  bool private BURNED = false */\n  0x0c\n  exp(0x0100, 0x00)\n  dup2\n  sload\n  dup2\n  0xff\n  mul\n  not\n  and\n  swap1\n  dup4\n  iszero\n  iszero\n  mul\n  or\n  swap1\n  sstore\n  pop\n    /* \"contracts/ICO.sol\":1014:1021  2592000 */\n  0x278d00\n    /* \"contracts/ICO.sol\":999:1021  uint256 month =2592000 */\n  0x0d\n  sstore\n    /* \"contracts/ICO.sol\":1042:1048  604800 */\n  0x093a80\n    /* \"contracts/ICO.sol\":1027:1048  uint256 week = 604800 */\n  0x0e\n  sstore\n    /* \"contracts/ICO.sol\":1118:1586  constructor(address _eftt, address _dev) payable {... */\n  mload(0x40)\n  sub(codesize, bytecodeSize)\n  dup1\n  bytecodeSize\n  dup4\n  codecopy\n  dup2\n  dup2\n  add\n  0x40\n  mstore\n  dup2\n  add\n  swap1\n  tag_1\n  swap2\n  swap1\n  tag_2\n  jump\t// in\ntag_1:\n    /* \"contracts/ICO.sol\":1231:1262  _grantRole(INVESTOR_ROLE, _dev) */\n  tag_5\n    /* \"contracts/ICO.sol\":373:399  keccak256(\"INVESTOR_ROLE\") */\n  0xb165298935924f540e4181c03493a5d686c54a0aaeb3f6216de85b7ffbba7738\n    /* \"contracts/ICO.sol\":1257:1261  _dev */\n  dup3\n    /* \"contracts/ICO.sol\":1231:1241  _grantRole */\n  shl(0x20, tag_6)\n    /* \"contracts/ICO.sol\":1231:1262  _grantRole(INVESTOR_ROLE, _dev) */\n  0x20\n  shr\n  jump\t// in\ntag_5:\n    /* \"contracts/ICO.sol\":1272:1301  _grantRole(BURNER_ROLE, _dev) */\n  tag_7\n    /* \"contracts/ICO.sol\":443:467  keccak256(\"BURNER_ROLE\") */\n  0x3c11d16cbaffd01df69ce1c404f6340ee057498f5f00246190ea54220576a848\n    /* \"contracts/ICO.sol\":1296:1300  _dev */\n  dup3\n    /* \"contracts/ICO.sol\":1272:1282  _grantRole */\n  shl(0x20, tag_6)\n    /* \"contracts/ICO.sol\":1272:1301  _grantRole(BURNER_ROLE, _dev) */\n  0x20\n  shr\n  jump\t// in\ntag_7:\n    /* \"contracts/ICO.sol\":1311:1344  _grantRole(EXTEND_ICO_ROLE, _dev) */\n  tag_8\n    /* \"contracts/ICO.sol\":515:543  keccak256(\"EXTEND_ICO_ROLE\") */\n  0x305786ab5904b5bb20fe6d91992844b39d648cdcb82f328edc2d6a80bfbb3289\n    /* \"contracts/ICO.sol\":1339:1343  _dev */\n  dup3\n    /* \"contracts/ICO.sol\":1311:1321  _grantRole */\n  shl(0x20, tag_6)\n    /* \"contracts/ICO.sol\":1311:1344  _grantRole(EXTEND_ICO_ROLE, _dev) */\n  0x20\n  shr\n  jump\t// in\ntag_8:\n    /* \"contracts/ICO.sol\":1370:1380  msg.sender */\n  caller\n    /* \"contracts/ICO.sol\":1354:1359  owner */\n  0x01\n  0x00\n    /* \"contracts/ICO.sol\":1354:1381  owner = payable(msg.sender) */\n  0x0100\n  exp\n  dup2\n  sload\n  dup2\n  0xffffffffffffffffffffffffffffffffffffffff\n  mul\n  not\n  and\n  swap1\n  dup4\n  0xffffffffffffffffffffffffffffffffffffffff\n  and\n  mul\n  or\n  swap1\n  sstore\n  pop\n    /* \"contracts/ICO.sol\":1404:1409  _eftt */\n  dup2\n    /* \"contracts/ICO.sol\":1391:1395  eftt */\n  0x06\n  0x00\n    /* \"contracts/ICO.sol\":1391:1410  eftt = IEFTT(_eftt) */\n  0x0100\n  exp\n  dup2\n  sload\n  dup2\n  0xffffffffffffffffffffffffffffffffffffffff\n  mul\n  not\n  and\n  swap1\n  dup4\n  0xffffffffffffffffffffffffffffffffffffffff\n  and\n  mul\n  or\n  swap1\n  sstore\n  pop\n    /* \"contracts/ICO.sol\":1441:1445  _dev */\n  dup1\n    /* \"contracts/ICO.sol\":1420:1430  devAddress */\n  0x02\n  0x00\n    /* \"contracts/ICO.sol\":1420:1446  devAddress = payable(_dev) */\n  0x0100\n  exp\n  dup2\n  sload\n  dup2\n  0xffffffffffffffffffffffffffffffffffffffff\n  mul\n  not\n  and\n  swap1\n  dup4\n  0xffffffffffffffffffffffffffffffffffffffff\n  and\n  mul\n  or\n  swap1\n  sstore\n  pop\n    /* \"contracts/ICO.sol\":1472:1487  block.timestamp */\n  timestamp\n    /* \"contracts/ICO.sol\":1456:1487  creationtTime = block.timestamp */\n  0x80\n  dup2\n  dup2\n  mstore\n  pop\n  pop\n    /* \"contracts/ICO.sol\":1512:1515  111 */\n  0x6f\n    /* \"contracts/ICO.sol\":1497:1506  timeLocks */\n  0x0b\n    /* \"contracts/ICO.sol\":1497:1509  timeLocks[0] */\n  0x00\n    /* \"contracts/ICO.sol\":1507:1508  0 */\n  dup1\n    /* \"contracts/ICO.sol\":1497:1509  timeLocks[0] */\n  dup2\n  mstore\n  0x20\n  add\n  swap1\n  dup2\n  mstore\n  0x20\n  add\n  0x00\n  keccak256\n    /* \"contracts/ICO.sol\":1497:1515  timeLocks[0] = 111 */\n  dup2\n  swap1\n  sstore\n  pop\n    /* \"contracts/ICO.sol\":1540:1543  222 */\n  0xde\n    /* \"contracts/ICO.sol\":1525:1534  timeLocks */\n  0x0b\n    /* \"contracts/ICO.sol\":1525:1537  timeLocks[1] */\n  0x00\n    /* \"contracts/ICO.sol\":1535:1536  1 */\n  0x01\n    /* \"contracts/ICO.sol\":1525:1537  timeLocks[1] */\n  dup2\n  mstore\n  0x20\n  add\n  swap1\n  dup2\n  mstore\n  0x20\n  add\n  0x00\n  keccak256\n    /* \"contracts/ICO.sol\":1525:1543  timeLocks[1] = 222 */\n  dup2\n  swap1\n  sstore\n  pop\n    /* \"contracts/ICO.sol\":1568:1571  333 */\n  0x014d\n    /* \"contracts/ICO.sol\":1553:1562  timeLocks */\n  0x0b\n    /* \"contracts/ICO.sol\":1553:1565  timeLocks[2] */\n  0x00\n    /* \"contracts/ICO.sol\":1563:1564  2 */\n  0x02\n    /* \"contracts/ICO.sol\":1553:1565  timeLocks[2] */\n  dup2\n  mstore\n  0x20\n  add\n  swap1\n  dup2\n  mstore\n  0x20\n  add\n  0x00\n  keccak256\n    /* \"contracts/ICO.sol\":1553:1571  timeLocks[2] = 333 */\n  dup2\n  swap1\n  sstore\n  pop\n    /* \"contracts/ICO.sol\":1118:1586  constructor(address _eftt, address _dev) payable {... */\n  pop\n  pop\n    /* \"contracts/ICO.sol\":266:4107  contract ICO is AccessControl{... */\n  jump(tag_9)\n    /* \"@openzeppelin/contracts/access/AccessControl.sol\":7461:7694  function _grantRole(bytes32 role, address account) internal virtual {... */\ntag_6:\n    /* \"@openzeppelin/contracts/access/AccessControl.sol\":7544:7566  hasRole(role, account) */\n  tag_11\n    /* \"@openzeppelin/contracts/access/AccessControl.sol\":7552:7556  role */\n  dup3\n    /* \"@openzeppelin/contracts/access/AccessControl.sol\":7558:7565  account */\n  dup3\n    /* \"@openzeppelin/contracts/access/AccessControl.sol\":7544:7551  hasRole */\n  shl(0x20, tag_12)\n    /* \"@openzeppelin/contracts/access/AccessControl.sol\":7544:7566  hasRole(role, account) */\n  0x20\n  shr\n  jump\t// in\ntag_11:\n    /* \"@openzeppelin/contracts/access/AccessControl.sol\":7539:7688  if (!hasRole(role, account)) {... */\n  tag_13\n  jumpi\n    /* \"@openzeppelin/contracts/access/AccessControl.sol\":7614:7618  true */\n  0x01\n    /* \"@openzeppelin/contracts/access/AccessControl.sol\":7582:7588  _roles */\n  0x00\n    /* \"@openzeppelin/contracts/access/AccessControl.sol\":7582:7594  _roles[role] */\n  dup1\n    /* \"@openzeppelin/contracts/access/AccessControl.sol\":7589:7593  role */\n  dup5\n    /* \"@openzeppelin/contracts/access/AccessControl.sol\":7582:7594  _roles[role] */\n  dup2\n  mstore\n  0x20\n  add\n  swap1\n  dup2\n  mstore\n  0x20\n  add\n  0x00\n  keccak256\n    /* \"@openzeppelin/contracts/access/AccessControl.sol\":7582:7602  _roles[role].members */\n  0x00\n  add\n    /* \"@openzeppelin/contracts/access/AccessControl.sol\":7582:7611  _roles[role].members[account] */\n  0x00\n    /* \"@openzeppelin/contracts/access/AccessControl.sol\":7603:7610  account */\n  dup4\n    /* \"@openzeppelin/contracts/access/AccessControl.sol\":7582:7611  _roles[role].members[account] */\n  0xffffffffffffffffffffffffffffffffffffffff\n  and\n  0xffffffffffffffffffffffffffffffffffffffff\n  and\n  dup2\n  mstore\n  0x20\n  add\n  swap1\n  dup2\n  mstore\n  0x20\n  add\n  0x00\n  keccak256\n  0x00\n    /* \"@openzeppelin/contracts/access/AccessControl.sol\":7582:7618  _roles[role].members[account] = true */\n  0x0100\n  exp\n  dup2\n  sload\n  dup2\n  0xff\n  mul\n  not\n  and\n  swap1\n  dup4\n  iszero\n  iszero\n  mul\n  or\n  swap1\n  sstore\n  pop\n    /* \"@openzeppelin/contracts/access/AccessControl.sol\":7664:7676  _msgSender() */\n  tag_14\n    /* \"@openzeppelin/contracts/access/AccessControl.sol\":7664:7674  _msgSender */\n  shl(0x20, tag_15)\n    /* \"@openzeppelin/contracts/access/AccessControl.sol\":7664:7676  _msgSender() */\n  0x20\n  shr\n  jump\t// in\ntag_14:\n    /* \"@openzeppelin/contracts/access/AccessControl.sol\":7637:7677  RoleGranted(role, account, _msgSender()) */\n  0xffffffffffffffffffffffffffffffffffffffff\n  and\n    /* \"@openzeppelin/contracts/access/AccessControl.sol\":7655:7662  account */\n  dup2\n    /* \"@openzeppelin/contracts/access/AccessControl.sol\":7637:7677  RoleGranted(role, account, _msgSender()) */\n  0xffffffffffffffffffffffffffffffffffffffff\n  and\n    /* \"@openzeppelin/contracts/access/AccessControl.sol\":7649:7653  role */\n  dup4\n    /* \"@openzeppelin/contracts/access/AccessControl.sol\":7637:7677  RoleGranted(role, account, _msgSender()) */\n  0x2f8788117e7eff1d82e926ec794901d17c78024a50270940304540a733656f0d\n  mload(0x40)\n  mload(0x40)\n  dup1\n  swap2\n  sub\n  swap1\n  log4\n    /* \"@openzeppelin/contracts/access/AccessControl.sol\":7539:7688  if (!hasRole(role, account)) {... */\ntag_13:\n    /* \"@openzeppelin/contracts/access/AccessControl.sol\":7461:7694  function _grantRole(bytes32 role, address account) internal virtual {... */\n  pop\n  pop\n  jump\t// out\n    /* \"@openzeppelin/contracts/access/AccessControl.sol\":2895:3040  function hasRole(bytes32 role, address account) public view virtual override returns (bool) {... */\ntag_12:\n    /* \"@openzeppelin/contracts/access/AccessControl.sol\":2981:2985  bool */\n  0x00\n    /* \"@openzeppelin/contracts/access/AccessControl.sol\":3004:3010  _roles */\n  dup1\n    /* \"@openzeppelin/contracts/access/AccessControl.sol\":3004:3016  _roles[role] */\n  0x00\n    /* \"@openzeppelin/contracts/access/AccessControl.sol\":3011:3015  role */\n  dup5\n    /* \"@openzeppelin/contracts/access/AccessControl.sol\":3004:3016  _roles[role] */\n  dup2\n  mstore\n  0x20\n  add\n  swap1\n  dup2\n  mstore\n  0x20\n  add\n  0x00\n  keccak256\n    /* \"@openzeppelin/contracts/access/AccessControl.sol\":3004:3024  _roles[role].members */\n  0x00\n  add\n    /* \"@openzeppelin/contracts/access/AccessControl.sol\":3004:3033  _roles[role].members[account] */\n  0x00\n    /* \"@openzeppelin/contracts/access/AccessControl.sol\":3025:3032  account */\n  dup4\n    /* \"@openzeppelin/contracts/access/AccessControl.sol\":3004:3033  _roles[role].members[account] */\n  0xffffffffffffffffffffffffffffffffffffffff\n  and\n  0xffffffffffffffffffffffffffffffffffffffff\n  and\n  dup2\n  mstore\n  0x20\n  add\n  swap1\n  dup2\n  mstore\n  0x20\n  add\n  0x00\n  keccak256\n  0x00\n  swap1\n  sload\n  swap1\n  0x0100\n  exp\n  swap1\n  div\n  0xff\n  and\n    /* \"@openzeppelin/contracts/access/AccessControl.sol\":2997:3033  return _roles[role].members[account] */\n  swap1\n  pop\n    /* \"@openzeppelin/contracts/access/AccessControl.sol\":2895:3040  function hasRole(bytes32 role, address account) public view virtual override returns (bool) {... */\n  swap3\n  swap2\n  pop\n  pop\n  jump\t// out\n    /* \"@openzeppelin/contracts/utils/Context.sol\":640:736  function _msgSender() internal view virtual returns (address) {... */\ntag_15:\n    /* \"@openzeppelin/contracts/utils/Context.sol\":693:700  address */\n  0x00\n    /* \"@openzeppelin/contracts/utils/Context.sol\":719:729  msg.sender */\n  caller\n    /* \"@openzeppelin/contracts/utils/Context.sol\":712:729  return msg.sender */\n  swap1\n  pop\n    /* \"@openzeppelin/contracts/utils/Context.sol\":640:736  function _msgSender() internal view virtual returns (address) {... */\n  swap1\n  jump\t// out\n    /* \"#utility.yul\":88:205   */\ntag_19:\n    /* \"#utility.yul\":197:198   */\n  0x00\n    /* \"#utility.yul\":194:195   */\n  dup1\n    /* \"#utility.yul\":187:199   */\n  revert\n    /* \"#utility.yul\":334:460   */\ntag_21:\n    /* \"#utility.yul\":371:378   */\n  0x00\n    /* \"#utility.yul\":411:453   */\n  0xffffffffffffffffffffffffffffffffffffffff\n    /* \"#utility.yul\":404:409   */\n  dup3\n    /* \"#utility.yul\":400:454   */\n  and\n    /* \"#utility.yul\":389:454   */\n  swap1\n  pop\n    /* \"#utility.yul\":334:460   */\n  swap2\n  swap1\n  pop\n  jump\t// out\n    /* \"#utility.yul\":466:562   */\ntag_22:\n    /* \"#utility.yul\":503:510   */\n  0x00\n    /* \"#utility.yul\":532:556   */\n  tag_31\n    /* \"#utility.yul\":550:555   */\n  dup3\n    /* \"#utility.yul\":532:556   */\n  tag_21\n  jump\t// in\ntag_31:\n    /* \"#utility.yul\":521:556   */\n  swap1\n  pop\n    /* \"#utility.yul\":466:562   */\n  swap2\n  swap1\n  pop\n  jump\t// out\n    /* \"#utility.yul\":568:690   */\ntag_23:\n    /* \"#utility.yul\":641:665   */\n  tag_33\n    /* \"#utility.yul\":659:664   */\n  dup2\n    /* \"#utility.yul\":641:665   */\n  tag_22\n  jump\t// in\ntag_33:\n    /* \"#utility.yul\":634:639   */\n  dup2\n    /* \"#utility.yul\":631:666   */\n  eq\n    /* \"#utility.yul\":621:684   */\n  tag_34\n  jumpi\n    /* \"#utility.yul\":680:681   */\n  0x00\n    /* \"#utility.yul\":677:678   */\n  dup1\n    /* \"#utility.yul\":670:682   */\n  revert\n    /* \"#utility.yul\":621:684   */\ntag_34:\n    /* \"#utility.yul\":568:690   */\n  pop\n  jump\t// out\n    /* \"#utility.yul\":696:839   */\ntag_24:\n    /* \"#utility.yul\":753:758   */\n  0x00\n    /* \"#utility.yul\":784:790   */\n  dup2\n    /* \"#utility.yul\":778:791   */\n  mload\n    /* \"#utility.yul\":769:791   */\n  swap1\n  pop\n    /* \"#utility.yul\":800:833   */\n  tag_36\n    /* \"#utility.yul\":827:832   */\n  dup2\n    /* \"#utility.yul\":800:833   */\n  tag_23\n  jump\t// in\ntag_36:\n    /* \"#utility.yul\":696:839   */\n  swap3\n  swap2\n  pop\n  pop\n  jump\t// out\n    /* \"#utility.yul\":845:1352   */\ntag_2:\n    /* \"#utility.yul\":924:930   */\n  0x00\n    /* \"#utility.yul\":932:938   */\n  dup1\n    /* \"#utility.yul\":981:983   */\n  0x40\n    /* \"#utility.yul\":969:978   */\n  dup4\n    /* \"#utility.yul\":960:967   */\n  dup6\n    /* \"#utility.yul\":956:979   */\n  sub\n    /* \"#utility.yul\":952:984   */\n  slt\n    /* \"#utility.yul\":949:1068   */\n  iszero\n  tag_38\n  jumpi\n    /* \"#utility.yul\":987:1066   */\n  tag_39\n  tag_19\n  jump\t// in\ntag_39:\n    /* \"#utility.yul\":949:1068   */\ntag_38:\n    /* \"#utility.yul\":1107:1108   */\n  0x00\n    /* \"#utility.yul\":1132:1196   */\n  tag_40\n    /* \"#utility.yul\":1188:1195   */\n  dup6\n    /* \"#utility.yul\":1179:1185   */\n  dup3\n    /* \"#utility.yul\":1168:1177   */\n  dup7\n    /* \"#utility.yul\":1164:1186   */\n  add\n    /* \"#utility.yul\":1132:1196   */\n  tag_24\n  jump\t// in\ntag_40:\n    /* \"#utility.yul\":1122:1196   */\n  swap3\n  pop\n    /* \"#utility.yul\":1078:1206   */\n  pop\n    /* \"#utility.yul\":1245:1247   */\n  0x20\n    /* \"#utility.yul\":1271:1335   */\n  tag_41\n    /* \"#utility.yul\":1327:1334   */\n  dup6\n    /* \"#utility.yul\":1318:1324   */\n  dup3\n    /* \"#utility.yul\":1307:1316   */\n  dup7\n    /* \"#utility.yul\":1303:1325   */\n  add\n    /* \"#utility.yul\":1271:1335   */\n  tag_24\n  jump\t// in\ntag_41:\n    /* \"#utility.yul\":1261:1335   */\n  swap2\n  pop\n    /* \"#utility.yul\":1216:1345   */\n  pop\n    /* \"#utility.yul\":845:1352   */\n  swap3\n  pop\n  swap3\n  swap1\n  pop\n  jump\t// out\n    /* \"contracts/ICO.sol\":266:4107  contract ICO is AccessControl{... */\ntag_9:\n  mload(0x80)\n  codecopy(0x00, dataOffset(sub_0), dataSize(sub_0))\n  0x00\n  assignImmutable(\"0x6e70f41b0ebc8971243af82fe8a69025c90fb92c960359b66a1ee7d55a695397\")\n  return(0x00, dataSize(sub_0))\nstop\n\nsub_0: assembly {\n        /* \"contracts/ICO.sol\":266:4107  contract ICO is AccessControl{... */\n      mstore(0x40, 0x80)\n      jumpi(tag_1, lt(calldatasize, 0x04))\n      shr(0xe0, calldataload(0x00))\n      dup1\n      0x73f42561\n      gt\n      tag_17\n      jumpi\n      dup1\n      0xa217fddf\n      gt\n      tag_18\n      jumpi\n      dup1\n      0xa217fddf\n      eq\n      tag_13\n      jumpi\n      dup1\n      0xa6f2ae3a\n      eq\n      tag_14\n      jumpi\n      dup1\n      0xb1ac51f8\n      eq\n      tag_15\n      jumpi\n      dup1\n      0xd547741f\n      eq\n      tag_16\n      jumpi\n      jump(tag_2)\n    tag_18:\n      dup1\n      0x73f42561\n      eq\n      tag_10\n      jumpi\n      dup1\n      0x76082a5e\n      eq\n      tag_11\n      jumpi\n      dup1\n      0x91d14854\n      eq\n      tag_12\n      jumpi\n      jump(tag_2)\n    tag_17:\n      dup1\n      0x2e1a7d4d\n      gt\n      tag_19\n      jumpi\n      dup1\n      0x2e1a7d4d\n      eq\n      tag_6\n      jumpi\n      dup1\n      0x2f2ff15d\n      eq\n      tag_7\n      jumpi\n      dup1\n      0x36568abe\n      eq\n      tag_8\n      jumpi\n      dup1\n      0x4f248409\n      eq\n      tag_9\n      jumpi\n      jump(tag_2)\n    tag_19:\n      dup1\n      0x01ffc9a7\n      eq\n      tag_3\n      jumpi\n      dup1\n      0x248a9ca3\n      eq\n      tag_4\n      jumpi\n      dup1\n      0x282c51f3\n      eq\n      tag_5\n      jumpi\n      jump(tag_2)\n    tag_1:\n      jumpi(tag_2, calldatasize)\n        /* \"contracts/ICO.sol\":2218:2237  Log(\"fallback hit\") */\n      0xcf34ef537ac33ee1ac626ca1587a0a7e8e51561e5514f8cb36afa1c5102b3bab\n      mload(0x40)\n      tag_22\n      swap1\n      tag_23\n      jump\t// in\n    tag_22:\n      mload(0x40)\n      dup1\n      swap2\n      sub\n      swap1\n      log1\n        /* \"contracts/ICO.sol\":2247:2252  buy() */\n      tag_24\n        /* \"contracts/ICO.sol\":2247:2250  buy */\n      tag_25\n        /* \"contracts/ICO.sol\":2247:2252  buy() */\n      jump\t// in\n    tag_24:\n      stop\n        /* \"contracts/ICO.sol\":266:4107  contract ICO is AccessControl{... */\n    tag_2:\n      0x00\n      dup1\n      revert\n        /* \"@openzeppelin/contracts/access/AccessControl.sol\":2606:2808  function supportsInterface(bytes4 interfaceId) public view virtual override returns (bool) {... */\n    tag_3:\n      callvalue\n      dup1\n      iszero\n      tag_26\n      jumpi\n      0x00\n      dup1\n      revert\n    tag_26:\n      pop\n      tag_27\n      0x04\n      dup1\n      calldatasize\n      sub\n      dup2\n      add\n      swap1\n      tag_28\n      swap2\n      swap1\n      tag_29\n      jump\t// in\n    tag_28:\n      tag_30\n      jump\t// in\n    tag_27:\n      mload(0x40)\n      tag_31\n      swap2\n      swap1\n      tag_32\n      jump\t// in\n    tag_31:\n      mload(0x40)\n      dup1\n      swap2\n      sub\n      swap1\n      return\n        /* \"@openzeppelin/contracts/access/AccessControl.sol\":4378:4507  function getRoleAdmin(bytes32 role) public view virtual override returns (bytes32) {... */\n    tag_4:\n      callvalue\n      dup1\n      iszero\n      tag_33\n      jumpi\n      0x00\n      dup1\n      revert\n    tag_33:\n      pop\n      tag_34\n      0x04\n      dup1\n      calldatasize\n      sub\n      dup2\n      add\n      swap1\n      tag_35\n      swap2\n      swap1\n      tag_36\n      jump\t// in\n    tag_35:\n      tag_37\n      jump\t// in\n    tag_34:\n      mload(0x40)\n      tag_38\n      swap2\n      swap1\n      tag_39\n      jump\t// in\n    tag_38:\n      mload(0x40)\n      dup1\n      swap2\n      sub\n      swap1\n      return\n        /* \"contracts/ICO.sol\":405:467  bytes32 public constant BURNER_ROLE = keccak256(\"BURNER_ROLE\") */\n    tag_5:\n      callvalue\n      dup1\n      iszero\n      tag_40\n      jumpi\n      0x00\n      dup1\n      revert\n    tag_40:\n      pop\n      tag_41\n      tag_42\n      jump\t// in\n    tag_41:\n      mload(0x40)\n      tag_43\n      swap2\n      swap1\n      tag_39\n      jump\t// in\n    tag_43:\n      mload(0x40)\n      dup1\n      swap2\n      sub\n      swap1\n      return\n        /* \"contracts/ICO.sol\":2712:3406  function withdraw(uint256 _amnt) onlyRole(INVESTOR_ROLE) public {... */\n    tag_6:\n      callvalue\n      dup1\n      iszero\n      tag_44\n      jumpi\n      0x00\n      dup1\n      revert\n    tag_44:\n      pop\n      tag_45\n      0x04\n      dup1\n      calldatasize\n      sub\n      dup2\n      add\n      swap1\n      tag_46\n      swap2\n      swap1\n      tag_47\n      jump\t// in\n    tag_46:\n      tag_48\n      jump\t// in\n    tag_45:\n      stop\n        /* \"@openzeppelin/contracts/access/AccessControl.sol\":4803:4948  function grantRole(bytes32 role, address account) public virtual override onlyRole(getRoleAdmin(role)) {... */\n    tag_7:\n      callvalue\n      dup1\n      iszero\n      tag_49\n      jumpi\n      0x00\n      dup1\n      revert\n    tag_49:\n      pop\n      tag_50\n      0x04\n      dup1\n      calldatasize\n      sub\n      dup2\n      add\n      swap1\n      tag_51\n      swap2\n      swap1\n      tag_52\n      jump\t// in\n    tag_51:\n      tag_53\n      jump\t// in\n    tag_50:\n      stop\n        /* \"@openzeppelin/contracts/access/AccessControl.sol\":5912:6126  function renounceRole(bytes32 role, address account) public virtual override {... */\n    tag_8:\n      callvalue\n      dup1\n      iszero\n      tag_54\n      jumpi\n      0x00\n      dup1\n      revert\n    tag_54:\n      pop\n      tag_55\n      0x04\n      dup1\n      calldatasize\n      sub\n      dup2\n      add\n      swap1\n      tag_56\n      swap2\n      swap1\n      tag_52\n      jump\t// in\n    tag_56:\n      tag_57\n      jump\t// in\n    tag_55:\n      stop\n        /* \"contracts/ICO.sol\":3412:3687  function endICO() public _timeCheck onlyRole(BURNER_ROLE) _burnCheck{... */\n    tag_9:\n      callvalue\n      dup1\n      iszero\n      tag_58\n      jumpi\n      0x00\n      dup1\n      revert\n    tag_58:\n      pop\n      tag_59\n      tag_60\n      jump\t// in\n    tag_59:\n      stop\n        /* \"contracts/ICO.sol\":4032:4105  function burned() public view returns(bool){... */\n    tag_10:\n      callvalue\n      dup1\n      iszero\n      tag_61\n      jumpi\n      0x00\n      dup1\n      revert\n    tag_61:\n      pop\n      tag_62\n      tag_63\n      jump\t// in\n    tag_62:\n      mload(0x40)\n      tag_64\n      swap2\n      swap1\n      tag_32\n      jump\t// in\n    tag_64:\n      mload(0x40)\n      dup1\n      swap2\n      sub\n      swap1\n      return\n        /* \"contracts/ICO.sol\":333:399  bytes32 public constant INVESTOR_ROLE = keccak256(\"INVESTOR_ROLE\") */\n    tag_11:\n      callvalue\n      dup1\n      iszero\n      tag_65\n      jumpi\n      0x00\n      dup1\n      revert\n    tag_65:\n      pop\n      tag_66\n      tag_67\n      jump\t// in\n    tag_66:\n      mload(0x40)\n      tag_68\n      swap2\n      swap1\n      tag_39\n      jump\t// in\n    tag_68:\n      mload(0x40)\n      dup1\n      swap2\n      sub\n      swap1\n      return\n        /* \"@openzeppelin/contracts/access/AccessControl.sol\":2895:3040  function hasRole(bytes32 role, address account) public view virtual override returns (bool) {... */\n    tag_12:\n      callvalue\n      dup1\n      iszero\n      tag_69\n      jumpi\n      0x00\n      dup1\n      revert\n    tag_69:\n      pop\n      tag_70\n      0x04\n      dup1\n      calldatasize\n      sub\n      dup2\n      add\n      swap1\n      tag_71\n      swap2\n      swap1\n      tag_52\n      jump\t// in\n    tag_71:\n      tag_72\n      jump\t// in\n    tag_70:\n      mload(0x40)\n      tag_73\n      swap2\n      swap1\n      tag_32\n      jump\t// in\n    tag_73:\n      mload(0x40)\n      dup1\n      swap2\n      sub\n      swap1\n      return\n        /* \"@openzeppelin/contracts/access/AccessControl.sol\":2027:2076  bytes32 public constant DEFAULT_ADMIN_ROLE = 0x00 */\n    tag_13:\n      callvalue\n      dup1\n      iszero\n      tag_74\n      jumpi\n      0x00\n      dup1\n      revert\n    tag_74:\n      pop\n      tag_75\n      tag_76\n      jump\t// in\n    tag_75:\n      mload(0x40)\n      tag_77\n      swap2\n      swap1\n      tag_39\n      jump\t// in\n    tag_77:\n      mload(0x40)\n      dup1\n      swap2\n      sub\n      swap1\n      return\n        /* \"contracts/ICO.sol\":2266:2706  function buy() public payable _timeCheck returns(bool){... */\n    tag_14:\n      tag_78\n      tag_25\n      jump\t// in\n    tag_78:\n      mload(0x40)\n      tag_79\n      swap2\n      swap1\n      tag_32\n      jump\t// in\n    tag_79:\n      mload(0x40)\n      dup1\n      swap2\n      sub\n      swap1\n      return\n        /* \"contracts/ICO.sol\":473:543  bytes32 public constant EXTEND_ICO_ROLE = keccak256(\"EXTEND_ICO_ROLE\") */\n    tag_15:\n      callvalue\n      dup1\n      iszero\n      tag_80\n      jumpi\n      0x00\n      dup1\n      revert\n    tag_80:\n      pop\n      tag_81\n      tag_82\n      jump\t// in\n    tag_81:\n      mload(0x40)\n      tag_83\n      swap2\n      swap1\n      tag_39\n      jump\t// in\n    tag_83:\n      mload(0x40)\n      dup1\n      swap2\n      sub\n      swap1\n      return\n        /* \"@openzeppelin/contracts/access/AccessControl.sol\":5228:5375  function revokeRole(bytes32 role, address account) public virtual override onlyRole(getRoleAdmin(role)) {... */\n    tag_16:\n      callvalue\n      dup1\n      iszero\n      tag_84\n      jumpi\n      0x00\n      dup1\n      revert\n    tag_84:\n      pop\n      tag_85\n      0x04\n      dup1\n      calldatasize\n      sub\n      dup2\n      add\n      swap1\n      tag_86\n      swap2\n      swap1\n      tag_52\n      jump\t// in\n    tag_86:\n      tag_87\n      jump\t// in\n    tag_85:\n      stop\n        /* \"contracts/ICO.sol\":2266:2706  function buy() public payable _timeCheck returns(bool){... */\n    tag_25:\n        /* \"contracts/ICO.sol\":2315:2319  bool */\n      0x00\n        /* \"contracts/ICO.sol\":1702:1710  timeLock */\n      sload(0x05)\n        /* \"contracts/ICO.sol\":1684:1699  block.timestamp */\n      timestamp\n        /* \"contracts/ICO.sol\":1684:1710  block.timestamp < timeLock */\n      lt\n        /* \"contracts/ICO.sol\":1676:1729  require(block.timestamp < timeLock,\"ICO is over :( \") */\n      tag_89\n      jumpi\n      mload(0x40)\n      0x08c379a000000000000000000000000000000000000000000000000000000000\n      dup2\n      mstore\n      0x04\n      add\n      tag_90\n      swap1\n      tag_91\n      jump\t// in\n    tag_90:\n      mload(0x40)\n      dup1\n      swap2\n      sub\n      swap1\n      revert\n    tag_89:\n        /* \"contracts/ICO.sol\":2350:2351  0 */\n      0x00\n        /* \"contracts/ICO.sol\":2338:2347  msg.value */\n      callvalue\n        /* \"contracts/ICO.sol\":2338:2351  msg.value > 0 */\n      gt\n        /* \"contracts/ICO.sol\":2330:2382  require(msg.value > 0,\"them/they please send metis\") */\n      tag_93\n      jumpi\n      mload(0x40)\n      0x08c379a000000000000000000000000000000000000000000000000000000000\n      dup2\n      mstore\n      0x04\n      add\n      tag_94\n      swap1\n      tag_95\n      jump\t// in\n    tag_94:\n      mload(0x40)\n      dup1\n      swap2\n      sub\n      swap1\n      revert\n    tag_93:\n        /* \"contracts/ICO.sol\":2392:2409  uint256 buyAmount */\n      0x00\n        /* \"contracts/ICO.sol\":2412:2433  conversion(msg.value) */\n      tag_96\n        /* \"contracts/ICO.sol\":2423:2432  msg.value */\n      callvalue\n        /* \"contracts/ICO.sol\":2412:2422  conversion */\n      tag_97\n        /* \"contracts/ICO.sol\":2412:2433  conversion(msg.value) */\n      jump\t// in\n    tag_96:\n        /* \"contracts/ICO.sol\":2392:2433  uint256 buyAmount = conversion(msg.value) */\n      swap1\n      pop\n        /* \"contracts/ICO.sol\":2475:2481  maxICO */\n      sload(0x07)\n        /* \"contracts/ICO.sol\":2464:2472  SoldEFTT */\n      sload(0x09)\n        /* \"contracts/ICO.sol\":2452:2461  buyAmount */\n      dup3\n        /* \"contracts/ICO.sol\":2452:2472  buyAmount + SoldEFTT */\n      tag_98\n      swap2\n      swap1\n      tag_99\n      jump\t// in\n    tag_98:\n        /* \"contracts/ICO.sol\":2452:2481  buyAmount + SoldEFTT < maxICO */\n      lt\n        /* \"contracts/ICO.sol\":2444:2512  require(buyAmount + SoldEFTT < maxICO, \"exceeds the total for sale\") */\n      tag_100\n      jumpi\n      mload(0x40)\n      0x08c379a000000000000000000000000000000000000000000000000000000000\n      dup2\n      mstore\n      0x04\n      add\n      tag_101\n      swap1\n      tag_102\n      jump\t// in\n    tag_101:\n      mload(0x40)\n      dup1\n      swap2\n      sub\n      swap1\n      revert\n    tag_100:\n        /* \"contracts/ICO.sol\":2522:2526  eftt */\n      0x06\n      0x00\n      swap1\n      sload\n      swap1\n      0x0100\n      exp\n      swap1\n      div\n      0xffffffffffffffffffffffffffffffffffffffff\n      and\n        /* \"contracts/ICO.sol\":2522:2534  eftt.approve */\n      0xffffffffffffffffffffffffffffffffffffffff\n      and\n      0x095ea7b3\n        /* \"contracts/ICO.sol\":2544:2548  this */\n      address\n        /* \"contracts/ICO.sol\":2551:2560  buyAmount */\n      dup4\n        /* \"contracts/ICO.sol\":2522:2561  eftt.approve( address(this), buyAmount) */\n      mload(0x40)\n      dup4\n      0xffffffff\n      and\n      0xe0\n      shl\n      dup2\n      mstore\n      0x04\n      add\n      tag_103\n      swap3\n      swap2\n      swap1\n      tag_104\n      jump\t// in\n    tag_103:\n      0x20\n      mload(0x40)\n      dup1\n      dup4\n      sub\n      dup2\n      0x00\n      dup8\n      gas\n      call\n      iszero\n      dup1\n      iszero\n      tag_106\n      jumpi\n      returndatasize\n      0x00\n      dup1\n      returndatacopy\n      revert(0x00, returndatasize)\n    tag_106:\n      pop\n      pop\n      pop\n      pop\n      mload(0x40)\n      returndatasize\n      not(0x1f)\n      0x1f\n      dup3\n      add\n      and\n      dup3\n      add\n      dup1\n      0x40\n      mstore\n      pop\n      dup2\n      add\n      swap1\n      tag_107\n      swap2\n      swap1\n      tag_108\n      jump\t// in\n    tag_107:\n      pop\n        /* \"contracts/ICO.sol\":2571:2575  eftt */\n      0x06\n      0x00\n      swap1\n      sload\n      swap1\n      0x0100\n      exp\n      swap1\n      div\n      0xffffffffffffffffffffffffffffffffffffffff\n      and\n        /* \"contracts/ICO.sol\":2571:2584  eftt.transfer */\n      0xffffffffffffffffffffffffffffffffffffffff\n      and\n      0xa9059cbb\n        /* \"contracts/ICO.sol\":2585:2595  msg.sender */\n      caller\n        /* \"contracts/ICO.sol\":2597:2606  buyAmount */\n      dup4\n        /* \"contracts/ICO.sol\":2571:2607  eftt.transfer(msg.sender, buyAmount) */\n      mload(0x40)\n      dup4\n      0xffffffff\n      and\n      0xe0\n      shl\n      dup2\n      mstore\n      0x04\n      add\n      tag_109\n      swap3\n      swap2\n      swap1\n      tag_104\n      jump\t// in\n    tag_109:\n      0x20\n      mload(0x40)\n      dup1\n      dup4\n      sub\n      dup2\n      0x00\n      dup8\n      gas\n      call\n      iszero\n      dup1\n      iszero\n      tag_111\n      jumpi\n      returndatasize\n      0x00\n      dup1\n      returndatacopy\n      revert(0x00, returndatasize)\n    tag_111:\n      pop\n      pop\n      pop\n      pop\n      mload(0x40)\n      returndatasize\n      not(0x1f)\n      0x1f\n      dup3\n      add\n      and\n      dup3\n      add\n      dup1\n      0x40\n      mstore\n      pop\n      dup2\n      add\n      swap1\n      tag_112\n      swap2\n      swap1\n      tag_108\n      jump\t// in\n    tag_112:\n      pop\n        /* \"contracts/ICO.sol\":2640:2648  SoldEFTT */\n      sload(0x09)\n        /* \"contracts/ICO.sol\":2628:2637  buyAmount */\n      dup2\n        /* \"contracts/ICO.sol\":2628:2648  buyAmount + SoldEFTT */\n      tag_113\n      swap2\n      swap1\n      tag_99\n      jump\t// in\n    tag_113:\n        /* \"contracts/ICO.sol\":2617:2625  SoldEFTT */\n      0x09\n        /* \"contracts/ICO.sol\":2617:2648  SoldEFTT = buyAmount + SoldEFTT */\n      dup2\n      swap1\n      sstore\n      pop\n        /* \"contracts/ICO.sol\":2663:2678  Sold(buyAmount) */\n      0x92f64ca637d023f354075a4be751b169c1a8a9ccb6d33cdd0cb3520543995727\n        /* \"contracts/ICO.sol\":2668:2677  buyAmount */\n      dup2\n        /* \"contracts/ICO.sol\":2663:2678  Sold(buyAmount) */\n      mload(0x40)\n      tag_114\n      swap2\n      swap1\n      tag_115\n      jump\t// in\n    tag_114:\n      mload(0x40)\n      dup1\n      swap2\n      sub\n      swap1\n      log1\n        /* \"contracts/ICO.sol\":2695:2699  true */\n      0x01\n        /* \"contracts/ICO.sol\":2688:2699  return true */\n      swap2\n      pop\n      pop\n        /* \"contracts/ICO.sol\":2266:2706  function buy() public payable _timeCheck returns(bool){... */\n      swap1\n      jump\t// out\n        /* \"@openzeppelin/contracts/access/AccessControl.sol\":2606:2808  function supportsInterface(bytes4 interfaceId) public view virtual override returns (bool) {... */\n    tag_30:\n        /* \"@openzeppelin/contracts/access/AccessControl.sol\":2691:2695  bool */\n      0x00\n        /* \"@openzeppelin/contracts/access/AccessControl.sol\":2729:2761  type(IAccessControl).interfaceId */\n      0x7965db0b00000000000000000000000000000000000000000000000000000000\n        /* \"@openzeppelin/contracts/access/AccessControl.sol\":2714:2761  interfaceId == type(IAccessControl).interfaceId */\n      not(0xffffffffffffffffffffffffffffffffffffffffffffffffffffffff)\n      and\n        /* \"@openzeppelin/contracts/access/AccessControl.sol\":2714:2725  interfaceId */\n      dup3\n        /* \"@openzeppelin/contracts/access/AccessControl.sol\":2714:2761  interfaceId == type(IAccessControl).interfaceId */\n      not(0xffffffffffffffffffffffffffffffffffffffffffffffffffffffff)\n      and\n      eq\n        /* \"@openzeppelin/contracts/access/AccessControl.sol\":2714:2801  interfaceId == type(IAccessControl).interfaceId || super.supportsInterface(interfaceId) */\n      dup1\n      tag_117\n      jumpi\n      pop\n        /* \"@openzeppelin/contracts/access/AccessControl.sol\":2765:2801  super.supportsInterface(interfaceId) */\n      tag_118\n        /* \"@openzeppelin/contracts/access/AccessControl.sol\":2789:2800  interfaceId */\n      dup3\n        /* \"@openzeppelin/contracts/access/AccessControl.sol\":2765:2788  super.supportsInterface */\n      tag_119\n        /* \"@openzeppelin/contracts/access/AccessControl.sol\":2765:2801  super.supportsInterface(interfaceId) */\n      jump\t// in\n    tag_118:\n        /* \"@openzeppelin/contracts/access/AccessControl.sol\":2714:2801  interfaceId == type(IAccessControl).interfaceId || super.supportsInterface(interfaceId) */\n    tag_117:\n        /* \"@openzeppelin/contracts/access/AccessControl.sol\":2707:2801  return interfaceId == type(IAccessControl).interfaceId || super.supportsInterface(interfaceId) */\n      swap1\n      pop\n        /* \"@openzeppelin/contracts/access/AccessControl.sol\":2606:2808  function supportsInterface(bytes4 interfaceId) public view virtual override returns (bool) {... */\n      swap2\n      swap1\n      pop\n      jump\t// out\n        /* \"@openzeppelin/contracts/access/AccessControl.sol\":4378:4507  function getRoleAdmin(bytes32 role) public view virtual override returns (bytes32) {... */\n    tag_37:\n        /* \"@openzeppelin/contracts/access/AccessControl.sol\":4452:4459  bytes32 */\n      0x00\n        /* \"@openzeppelin/contracts/access/AccessControl.sol\":4478:4484  _roles */\n      dup1\n        /* \"@openzeppelin/contracts/access/AccessControl.sol\":4478:4490  _roles[role] */\n      0x00\n        /* \"@openzeppelin/contracts/access/AccessControl.sol\":4485:4489  role */\n      dup4\n        /* \"@openzeppelin/contracts/access/AccessControl.sol\":4478:4490  _roles[role] */\n      dup2\n      mstore\n      0x20\n      add\n      swap1\n      dup2\n      mstore\n      0x20\n      add\n      0x00\n      keccak256\n        /* \"@openzeppelin/contracts/access/AccessControl.sol\":4478:4500  _roles[role].adminRole */\n      0x01\n      add\n      sload\n        /* \"@openzeppelin/contracts/access/AccessControl.sol\":4471:4500  return _roles[role].adminRole */\n      swap1\n      pop\n        /* \"@openzeppelin/contracts/access/AccessControl.sol\":4378:4507  function getRoleAdmin(bytes32 role) public view virtual override returns (bytes32) {... */\n      swap2\n      swap1\n      pop\n      jump\t// out\n        /* \"contracts/ICO.sol\":405:467  bytes32 public constant BURNER_ROLE = keccak256(\"BURNER_ROLE\") */\n    tag_42:\n        /* \"contracts/ICO.sol\":443:467  keccak256(\"BURNER_ROLE\") */\n      0x3c11d16cbaffd01df69ce1c404f6340ee057498f5f00246190ea54220576a848\n        /* \"contracts/ICO.sol\":405:467  bytes32 public constant BURNER_ROLE = keccak256(\"BURNER_ROLE\") */\n      dup2\n      jump\t// out\n        /* \"contracts/ICO.sol\":2712:3406  function withdraw(uint256 _amnt) onlyRole(INVESTOR_ROLE) public {... */\n    tag_48:\n        /* \"contracts/ICO.sol\":373:399  keccak256(\"INVESTOR_ROLE\") */\n      0xb165298935924f540e4181c03493a5d686c54a0aaeb3f6216de85b7ffbba7738\n        /* \"@openzeppelin/contracts/access/AccessControl.sol\":2505:2521  _checkRole(role) */\n      tag_122\n        /* \"@openzeppelin/contracts/access/AccessControl.sol\":2516:2520  role */\n      dup2\n        /* \"@openzeppelin/contracts/access/AccessControl.sol\":2505:2515  _checkRole */\n      tag_123\n        /* \"@openzeppelin/contracts/access/AccessControl.sol\":2505:2521  _checkRole(role) */\n      jump\t// in\n    tag_122:\n        /* \"contracts/ICO.sol\":2829:2844  block.timestamp */\n      timestamp\n        /* \"contracts/ICO.sol\":2824:2826  18 */\n      0x12\n        /* \"contracts/ICO.sol\":2816:2821  month */\n      sload(0x0d)\n        /* \"contracts/ICO.sol\":2816:2826  month * 18 */\n      tag_125\n      swap2\n      swap1\n      tag_126\n      jump\t// in\n    tag_125:\n        /* \"contracts/ICO.sol\":2800:2813  creationtTime */\n      immutable(\"0x6e70f41b0ebc8971243af82fe8a69025c90fb92c960359b66a1ee7d55a695397\")\n        /* \"contracts/ICO.sol\":2800:2826  creationtTime + month * 18 */\n      tag_127\n      swap2\n      swap1\n      tag_99\n      jump\t// in\n    tag_127:\n        /* \"contracts/ICO.sol\":2800:2844  creationtTime + month * 18 > block.timestamp */\n      gt\n        /* \"contracts/ICO.sol\":2795:3391  if ( creationtTime + month * 18 > block.timestamp){... */\n      iszero\n      tag_128\n      jumpi\n        /* \"contracts/ICO.sol\":2859:2880  uint256 convertedAmnt */\n      0x00\n        /* \"contracts/ICO.sol\":2882:2903  percentFromICO(_amnt) */\n      tag_129\n        /* \"contracts/ICO.sol\":2897:2902  _amnt */\n      dup4\n        /* \"contracts/ICO.sol\":2882:2896  percentFromICO */\n      tag_130\n        /* \"contracts/ICO.sol\":2882:2903  percentFromICO(_amnt) */\n      jump\t// in\n    tag_129:\n        /* \"contracts/ICO.sol\":2859:2903  uint256 convertedAmnt =percentFromICO(_amnt) */\n      swap1\n      pop\n        /* \"contracts/ICO.sol\":2917:2921  eftt */\n      0x06\n      0x00\n      swap1\n      sload\n      swap1\n      0x0100\n      exp\n      swap1\n      div\n      0xffffffffffffffffffffffffffffffffffffffff\n      and\n        /* \"contracts/ICO.sol\":2917:2929  eftt.approve */\n      0xffffffffffffffffffffffffffffffffffffffff\n      and\n      0x095ea7b3\n        /* \"contracts/ICO.sol\":2939:2943  this */\n      address\n        /* \"contracts/ICO.sol\":2946:2959  convertedAmnt */\n      dup4\n        /* \"contracts/ICO.sol\":2917:2960  eftt.approve( address(this), convertedAmnt) */\n      mload(0x40)\n      dup4\n      0xffffffff\n      and\n      0xe0\n      shl\n      dup2\n      mstore\n      0x04\n      add\n      tag_131\n      swap3\n      swap2\n      swap1\n      tag_104\n      jump\t// in\n    tag_131:\n      0x20\n      mload(0x40)\n      dup1\n      dup4\n      sub\n      dup2\n      0x00\n      dup8\n      gas\n      call\n      iszero\n      dup1\n      iszero\n      tag_133\n      jumpi\n      returndatasize\n      0x00\n      dup1\n      returndatacopy\n      revert(0x00, returndatasize)\n    tag_133:\n      pop\n      pop\n      pop\n      pop\n      mload(0x40)\n      returndatasize\n      not(0x1f)\n      0x1f\n      dup3\n      add\n      and\n      dup3\n      add\n      dup1\n      0x40\n      mstore\n      pop\n      dup2\n      add\n      swap1\n      tag_134\n      swap2\n      swap1\n      tag_108\n      jump\t// in\n    tag_134:\n      pop\n        /* \"contracts/ICO.sol\":2982:2992  msg.sender */\n      caller\n        /* \"contracts/ICO.sol\":2974:3002  payable(msg.sender).transfer */\n      0xffffffffffffffffffffffffffffffffffffffff\n      and\n        /* \"contracts/ICO.sol\":2974:3017  payable(msg.sender).transfer(convertedAmnt) */\n      0x08fc\n        /* \"contracts/ICO.sol\":3003:3016  convertedAmnt */\n      dup3\n        /* \"contracts/ICO.sol\":2974:3017  payable(msg.sender).transfer(convertedAmnt) */\n      swap1\n      dup2\n      iszero\n      mul\n      swap1\n      mload(0x40)\n      0x00\n      mload(0x40)\n      dup1\n      dup4\n      sub\n      dup2\n      dup6\n      dup9\n      dup9\n      call\n      swap4\n      pop\n      pop\n      pop\n      pop\n      iszero\n      dup1\n      iszero\n      tag_136\n      jumpi\n      returndatasize\n      0x00\n      dup1\n      returndatacopy\n      revert(0x00, returndatasize)\n    tag_136:\n      pop\n        /* \"contracts/ICO.sol\":2845:3028  {... */\n      pop\n        /* \"contracts/ICO.sol\":2795:3391  if ( creationtTime + month * 18 > block.timestamp){... */\n      jump(tag_137)\n    tag_128:\n        /* \"contracts/ICO.sol\":3068:3083  block.timestamp */\n      timestamp\n        /* \"contracts/ICO.sol\":3063:3065  12 */\n      0x0c\n        /* \"contracts/ICO.sol\":3055:3060  month */\n      sload(0x0d)\n        /* \"contracts/ICO.sol\":3055:3065  month * 12 */\n      tag_138\n      swap2\n      swap1\n      tag_126\n      jump\t// in\n    tag_138:\n        /* \"contracts/ICO.sol\":3039:3052  creationtTime */\n      immutable(\"0x6e70f41b0ebc8971243af82fe8a69025c90fb92c960359b66a1ee7d55a695397\")\n        /* \"contracts/ICO.sol\":3039:3065  creationtTime + month * 12 */\n      tag_139\n      swap2\n      swap1\n      tag_99\n      jump\t// in\n    tag_139:\n        /* \"contracts/ICO.sol\":3039:3083  creationtTime + month * 12 > block.timestamp */\n      gt\n        /* \"contracts/ICO.sol\":3034:3391  if ( creationtTime + month * 12 > block.timestamp){... */\n      iszero\n      tag_140\n      jumpi\n        /* \"contracts/ICO.sol\":3098:3119  uint256 convertedAmnt */\n      0x00\n        /* \"contracts/ICO.sol\":3121:3142  percentFromICO(_amnt) */\n      tag_141\n        /* \"contracts/ICO.sol\":3136:3141  _amnt */\n      dup4\n        /* \"contracts/ICO.sol\":3121:3135  percentFromICO */\n      tag_130\n        /* \"contracts/ICO.sol\":3121:3142  percentFromICO(_amnt) */\n      jump\t// in\n    tag_141:\n        /* \"contracts/ICO.sol\":3098:3142  uint256 convertedAmnt =percentFromICO(_amnt) */\n      swap1\n      pop\n        /* \"contracts/ICO.sol\":3164:3174  msg.sender */\n      caller\n        /* \"contracts/ICO.sol\":3156:3184  payable(msg.sender).transfer */\n      0xffffffffffffffffffffffffffffffffffffffff\n      and\n        /* \"contracts/ICO.sol\":3156:3199  payable(msg.sender).transfer(convertedAmnt) */\n      0x08fc\n        /* \"contracts/ICO.sol\":3185:3198  convertedAmnt */\n      dup3\n        /* \"contracts/ICO.sol\":3156:3199  payable(msg.sender).transfer(convertedAmnt) */\n      swap1\n      dup2\n      iszero\n      mul\n      swap1\n      mload(0x40)\n      0x00\n      mload(0x40)\n      dup1\n      dup4\n      sub\n      dup2\n      dup6\n      dup9\n      dup9\n      call\n      swap4\n      pop\n      pop\n      pop\n      pop\n      iszero\n      dup1\n      iszero\n      tag_143\n      jumpi\n      returndatasize\n      0x00\n      dup1\n      returndatacopy\n      revert(0x00, returndatasize)\n    tag_143:\n      pop\n        /* \"contracts/ICO.sol\":3084:3210  {... */\n      pop\n        /* \"contracts/ICO.sol\":3034:3391  if ( creationtTime + month * 12 > block.timestamp){... */\n      jump(tag_144)\n    tag_140:\n        /* \"contracts/ICO.sol\":3249:3264  block.timestamp */\n      timestamp\n        /* \"contracts/ICO.sol\":3245:3246  6 */\n      0x06\n        /* \"contracts/ICO.sol\":3237:3242  month */\n      sload(0x0d)\n        /* \"contracts/ICO.sol\":3237:3246  month * 6 */\n      tag_145\n      swap2\n      swap1\n      tag_126\n      jump\t// in\n    tag_145:\n        /* \"contracts/ICO.sol\":3221:3234  creationtTime */\n      immutable(\"0x6e70f41b0ebc8971243af82fe8a69025c90fb92c960359b66a1ee7d55a695397\")\n        /* \"contracts/ICO.sol\":3221:3246  creationtTime + month * 6 */\n      tag_146\n      swap2\n      swap1\n      tag_99\n      jump\t// in\n    tag_146:\n        /* \"contracts/ICO.sol\":3221:3264  creationtTime + month * 6 > block.timestamp */\n      gt\n        /* \"contracts/ICO.sol\":3216:3391  if ( creationtTime + month * 6 > block.timestamp){... */\n      iszero\n      tag_147\n      jumpi\n        /* \"contracts/ICO.sol\":3279:3300  uint256 convertedAmnt */\n      0x00\n        /* \"contracts/ICO.sol\":3302:3323  percentFromICO(_amnt) */\n      tag_148\n        /* \"contracts/ICO.sol\":3317:3322  _amnt */\n      dup4\n        /* \"contracts/ICO.sol\":3302:3316  percentFromICO */\n      tag_130\n        /* \"contracts/ICO.sol\":3302:3323  percentFromICO(_amnt) */\n      jump\t// in\n    tag_148:\n        /* \"contracts/ICO.sol\":3279:3323  uint256 convertedAmnt =percentFromICO(_amnt) */\n      swap1\n      pop\n        /* \"contracts/ICO.sol\":3345:3355  msg.sender */\n      caller\n        /* \"contracts/ICO.sol\":3337:3365  payable(msg.sender).transfer */\n      0xffffffffffffffffffffffffffffffffffffffff\n      and\n        /* \"contracts/ICO.sol\":3337:3380  payable(msg.sender).transfer(convertedAmnt) */\n      0x08fc\n        /* \"contracts/ICO.sol\":3366:3379  convertedAmnt */\n      dup3\n        /* \"contracts/ICO.sol\":3337:3380  payable(msg.sender).transfer(convertedAmnt) */\n      swap1\n      dup2\n      iszero\n      mul\n      swap1\n      mload(0x40)\n      0x00\n      mload(0x40)\n      dup1\n      dup4\n      sub\n      dup2\n      dup6\n      dup9\n      dup9\n      call\n      swap4\n      pop\n      pop\n      pop\n      pop\n      iszero\n      dup1\n      iszero\n      tag_150\n      jumpi\n      returndatasize\n      0x00\n      dup1\n      returndatacopy\n      revert(0x00, returndatasize)\n    tag_150:\n      pop\n        /* \"contracts/ICO.sol\":3265:3391  {... */\n      pop\n        /* \"contracts/ICO.sol\":3216:3391  if ( creationtTime + month * 6 > block.timestamp){... */\n    tag_147:\n        /* \"contracts/ICO.sol\":3034:3391  if ( creationtTime + month * 12 > block.timestamp){... */\n    tag_144:\n        /* \"contracts/ICO.sol\":2795:3391  if ( creationtTime + month * 18 > block.timestamp){... */\n    tag_137:\n        /* \"contracts/ICO.sol\":2712:3406  function withdraw(uint256 _amnt) onlyRole(INVESTOR_ROLE) public {... */\n      pop\n      pop\n      jump\t// out\n        /* \"@openzeppelin/contracts/access/AccessControl.sol\":4803:4948  function grantRole(bytes32 role, address account) public virtual override onlyRole(getRoleAdmin(role)) {... */\n    tag_53:\n        /* \"@openzeppelin/contracts/access/AccessControl.sol\":4886:4904  getRoleAdmin(role) */\n      tag_151\n        /* \"@openzeppelin/contracts/access/AccessControl.sol\":4899:4903  role */\n      dup3\n        /* \"@openzeppelin/contracts/access/AccessControl.sol\":4886:4898  getRoleAdmin */\n      tag_37\n        /* \"@openzeppelin/contracts/access/AccessControl.sol\":4886:4904  getRoleAdmin(role) */\n      jump\t// in\n    tag_151:\n        /* \"@openzeppelin/contracts/access/AccessControl.sol\":2505:2521  _checkRole(role) */\n      tag_153\n        /* \"@openzeppelin/contracts/access/AccessControl.sol\":2516:2520  role */\n      dup2\n        /* \"@openzeppelin/contracts/access/AccessControl.sol\":2505:2515  _checkRole */\n      tag_123\n        /* \"@openzeppelin/contracts/access/AccessControl.sol\":2505:2521  _checkRole(role) */\n      jump\t// in\n    tag_153:\n        /* \"@openzeppelin/contracts/access/AccessControl.sol\":4916:4941  _grantRole(role, account) */\n      tag_155\n        /* \"@openzeppelin/contracts/access/AccessControl.sol\":4927:4931  role */\n      dup4\n        /* \"@openzeppelin/contracts/access/AccessControl.sol\":4933:4940  account */\n      dup4\n        /* \"@openzeppelin/contracts/access/AccessControl.sol\":4916:4926  _grantRole */\n      tag_156\n        /* \"@openzeppelin/contracts/access/AccessControl.sol\":4916:4941  _grantRole(role, account) */\n      jump\t// in\n    tag_155:\n        /* \"@openzeppelin/contracts/access/AccessControl.sol\":4803:4948  function grantRole(bytes32 role, address account) public virtual override onlyRole(getRoleAdmin(role)) {... */\n      pop\n      pop\n      pop\n      jump\t// out\n        /* \"@openzeppelin/contracts/access/AccessControl.sol\":5912:6126  function renounceRole(bytes32 role, address account) public virtual override {... */\n    tag_57:\n        /* \"@openzeppelin/contracts/access/AccessControl.sol\":6018:6030  _msgSender() */\n      tag_158\n        /* \"@openzeppelin/contracts/access/AccessControl.sol\":6018:6028  _msgSender */\n      tag_159\n        /* \"@openzeppelin/contracts/access/AccessControl.sol\":6018:6030  _msgSender() */\n      jump\t// in\n    tag_158:\n        /* \"@openzeppelin/contracts/access/AccessControl.sol\":6007:6030  account == _msgSender() */\n      0xffffffffffffffffffffffffffffffffffffffff\n      and\n        /* \"@openzeppelin/contracts/access/AccessControl.sol\":6007:6014  account */\n      dup2\n        /* \"@openzeppelin/contracts/access/AccessControl.sol\":6007:6030  account == _msgSender() */\n      0xffffffffffffffffffffffffffffffffffffffff\n      and\n      eq\n        /* \"@openzeppelin/contracts/access/AccessControl.sol\":5999:6082  require(account == _msgSender(), \"AccessControl: can only renounce roles for self\") */\n      tag_160\n      jumpi\n      mload(0x40)\n      0x08c379a000000000000000000000000000000000000000000000000000000000\n      dup2\n      mstore\n      0x04\n      add\n      tag_161\n      swap1\n      tag_162\n      jump\t// in\n    tag_161:\n      mload(0x40)\n      dup1\n      swap2\n      sub\n      swap1\n      revert\n    tag_160:\n        /* \"@openzeppelin/contracts/access/AccessControl.sol\":6093:6119  _revokeRole(role, account) */\n      tag_163\n        /* \"@openzeppelin/contracts/access/AccessControl.sol\":6105:6109  role */\n      dup3\n        /* \"@openzeppelin/contracts/access/AccessControl.sol\":6111:6118  account */\n      dup3\n        /* \"@openzeppelin/contracts/access/AccessControl.sol\":6093:6104  _revokeRole */\n      tag_164\n        /* \"@openzeppelin/contracts/access/AccessControl.sol\":6093:6119  _revokeRole(role, account) */\n      jump\t// in\n    tag_163:\n        /* \"@openzeppelin/contracts/access/AccessControl.sol\":5912:6126  function renounceRole(bytes32 role, address account) public virtual override {... */\n      pop\n      pop\n      jump\t// out\n        /* \"contracts/ICO.sol\":3412:3687  function endICO() public _timeCheck onlyRole(BURNER_ROLE) _burnCheck{... */\n    tag_60:\n        /* \"contracts/ICO.sol\":1702:1710  timeLock */\n      sload(0x05)\n        /* \"contracts/ICO.sol\":1684:1699  block.timestamp */\n      timestamp\n        /* \"contracts/ICO.sol\":1684:1710  block.timestamp < timeLock */\n      lt\n        /* \"contracts/ICO.sol\":1676:1729  require(block.timestamp < timeLock,\"ICO is over :( \") */\n      tag_166\n      jumpi\n      mload(0x40)\n      0x08c379a000000000000000000000000000000000000000000000000000000000\n      dup2\n      mstore\n      0x04\n      add\n      tag_167\n      swap1\n      tag_91\n      jump\t// in\n    tag_167:\n      mload(0x40)\n      dup1\n      swap2\n      sub\n      swap1\n      revert\n    tag_166:\n        /* \"contracts/ICO.sol\":443:467  keccak256(\"BURNER_ROLE\") */\n      0x3c11d16cbaffd01df69ce1c404f6340ee057498f5f00246190ea54220576a848\n        /* \"@openzeppelin/contracts/access/AccessControl.sol\":2505:2521  _checkRole(role) */\n      tag_169\n        /* \"@openzeppelin/contracts/access/AccessControl.sol\":2516:2520  role */\n      dup2\n        /* \"@openzeppelin/contracts/access/AccessControl.sol\":2505:2515  _checkRole */\n      tag_123\n        /* \"@openzeppelin/contracts/access/AccessControl.sol\":2505:2521  _checkRole(role) */\n      jump\t// in\n    tag_169:\n        /* \"contracts/ICO.sol\":1793:1799  BURNED */\n      0x0c\n      0x00\n      swap1\n      sload\n      swap1\n      0x0100\n      exp\n      swap1\n      div\n      0xff\n      and\n        /* \"contracts/ICO.sol\":1792:1799  !BURNED */\n      iszero\n        /* \"contracts/ICO.sol\":1784:1831  require(!BURNED,\"the supply is already burned\") */\n      tag_171\n      jumpi\n      mload(0x40)\n      0x08c379a000000000000000000000000000000000000000000000000000000000\n      dup2\n      mstore\n      0x04\n      add\n      tag_172\n      swap1\n      tag_173\n      jump\t// in\n    tag_172:\n      mload(0x40)\n      dup1\n      swap2\n      sub\n      swap1\n      revert\n    tag_171:\n        /* \"contracts/ICO.sol\":3490:3506  uint256 burnAmnt */\n      0x00\n        /* \"contracts/ICO.sol\":3510:3530  maxICO.sub(SoldEFTT) */\n      tag_175\n        /* \"contracts/ICO.sol\":3521:3529  SoldEFTT */\n      sload(0x09)\n        /* \"contracts/ICO.sol\":3510:3516  maxICO */\n      sload(0x07)\n        /* \"contracts/ICO.sol\":3510:3520  maxICO.sub */\n      tag_176\n      swap1\n        /* \"contracts/ICO.sol\":3510:3530  maxICO.sub(SoldEFTT) */\n      swap2\n      swap1\n      0xffffffff\n      and\n      jump\t// in\n    tag_175:\n        /* \"contracts/ICO.sol\":3490:3531  uint256 burnAmnt = (maxICO.sub(SoldEFTT)) */\n      swap1\n      pop\n        /* \"contracts/ICO.sol\":3541:3545  eftt */\n      0x06\n      0x00\n      swap1\n      sload\n      swap1\n      0x0100\n      exp\n      swap1\n      div\n      0xffffffffffffffffffffffffffffffffffffffff\n      and\n        /* \"contracts/ICO.sol\":3541:3550  eftt.burn */\n      0xffffffffffffffffffffffffffffffffffffffff\n      and\n      0x42966c68\n        /* \"contracts/ICO.sol\":3551:3559  burnAmnt */\n      dup3\n        /* \"contracts/ICO.sol\":3541:3560  eftt.burn(burnAmnt) */\n      mload(0x40)\n      dup3\n      0xffffffff\n      and\n      0xe0\n      shl\n      dup2\n      mstore\n      0x04\n      add\n      tag_177\n      swap2\n      swap1\n      tag_115\n      jump\t// in\n    tag_177:\n      0x00\n      mload(0x40)\n      dup1\n      dup4\n      sub\n      dup2\n      0x00\n      dup8\n      dup1\n      extcodesize\n      iszero\n      dup1\n      iszero\n      tag_178\n      jumpi\n      0x00\n      dup1\n      revert\n    tag_178:\n      pop\n      gas\n      call\n      iszero\n      dup1\n      iszero\n      tag_180\n      jumpi\n      returndatasize\n      0x00\n      dup1\n      returndatacopy\n      revert(0x00, returndatasize)\n    tag_180:\n      pop\n      pop\n      pop\n      pop\n        /* \"contracts/ICO.sol\":3480:3687  {... */\n      pop\n        /* \"contracts/ICO.sol\":1861:1865  true */\n      0x01\n        /* \"contracts/ICO.sol\":1852:1858  BURNED */\n      0x0c\n      0x00\n        /* \"contracts/ICO.sol\":1852:1865  BURNED = true */\n      0x0100\n      exp\n      dup2\n      sload\n      dup2\n      0xff\n      mul\n      not\n      and\n      swap1\n      dup4\n      iszero\n      iszero\n      mul\n      or\n      swap1\n      sstore\n      pop\n        /* \"contracts/ICO.sol\":1739:1740  _ */\n      pop\n        /* \"contracts/ICO.sol\":3412:3687  function endICO() public _timeCheck onlyRole(BURNER_ROLE) _burnCheck{... */\n      jump\t// out\n        /* \"contracts/ICO.sol\":4032:4105  function burned() public view returns(bool){... */\n    tag_63:\n        /* \"contracts/ICO.sol\":4070:4074  bool */\n      0x00\n        /* \"contracts/ICO.sol\":4092:4098  BURNED */\n      0x0c\n      0x00\n      swap1\n      sload\n      swap1\n      0x0100\n      exp\n      swap1\n      div\n      0xff\n      and\n        /* \"contracts/ICO.sol\":4085:4098  return BURNED */\n      swap1\n      pop\n        /* \"contracts/ICO.sol\":4032:4105  function burned() public view returns(bool){... */\n      swap1\n      jump\t// out\n        /* \"contracts/ICO.sol\":333:399  bytes32 public constant INVESTOR_ROLE = keccak256(\"INVESTOR_ROLE\") */\n    tag_67:\n        /* \"contracts/ICO.sol\":373:399  keccak256(\"INVESTOR_ROLE\") */\n      0xb165298935924f540e4181c03493a5d686c54a0aaeb3f6216de85b7ffbba7738\n        /* \"contracts/ICO.sol\":333:399  bytes32 public constant INVESTOR_ROLE = keccak256(\"INVESTOR_ROLE\") */\n      dup2\n      jump\t// out\n        /* \"@openzeppelin/contracts/access/AccessControl.sol\":2895:3040  function hasRole(bytes32 role, address account) public view virtual override returns (bool) {... */\n    tag_72:\n        /* \"@openzeppelin/contracts/access/AccessControl.sol\":2981:2985  bool */\n      0x00\n        /* \"@openzeppelin/contracts/access/AccessControl.sol\":3004:3010  _roles */\n      dup1\n        /* \"@openzeppelin/contracts/access/AccessControl.sol\":3004:3016  _roles[role] */\n      0x00\n        /* \"@openzeppelin/contracts/access/AccessControl.sol\":3011:3015  role */\n      dup5\n        /* \"@openzeppelin/contracts/access/AccessControl.sol\":3004:3016  _roles[role] */\n      dup2\n      mstore\n      0x20\n      add\n      swap1\n      dup2\n      mstore\n      0x20\n      add\n      0x00\n      keccak256\n        /* \"@openzeppelin/contracts/access/AccessControl.sol\":3004:3024  _roles[role].members */\n      0x00\n      add\n        /* \"@openzeppelin/contracts/access/AccessControl.sol\":3004:3033  _roles[role].members[account] */\n      0x00\n        /* \"@openzeppelin/contracts/access/AccessControl.sol\":3025:3032  account */\n      dup4\n        /* \"@openzeppelin/contracts/access/AccessControl.sol\":3004:3033  _roles[role].members[account] */\n      0xffffffffffffffffffffffffffffffffffffffff\n      and\n      0xffffffffffffffffffffffffffffffffffffffff\n      and\n      dup2\n      mstore\n      0x20\n      add\n      swap1\n      dup2\n      mstore\n      0x20\n      add\n      0x00\n      keccak256\n      0x00\n      swap1\n      sload\n      swap1\n      0x0100\n      exp\n      swap1\n      div\n      0xff\n      and\n        /* \"@openzeppelin/contracts/access/AccessControl.sol\":2997:3033  return _roles[role].members[account] */\n      swap1\n      pop\n        /* \"@openzeppelin/contracts/access/AccessControl.sol\":2895:3040  function hasRole(bytes32 role, address account) public view virtual override returns (bool) {... */\n      swap3\n      swap2\n      pop\n      pop\n      jump\t// out\n        /* \"@openzeppelin/contracts/access/AccessControl.sol\":2027:2076  bytes32 public constant DEFAULT_ADMIN_ROLE = 0x00 */\n    tag_76:\n        /* \"@openzeppelin/contracts/access/AccessControl.sol\":2072:2076  0x00 */\n      0x00\n        /* \"@openzeppelin/contracts/access/AccessControl.sol\":2027:2076  bytes32 public constant DEFAULT_ADMIN_ROLE = 0x00 */\n      dup1\n      shl\n      dup2\n      jump\t// out\n        /* \"contracts/ICO.sol\":473:543  bytes32 public constant EXTEND_ICO_ROLE = keccak256(\"EXTEND_ICO_ROLE\") */\n    tag_82:\n        /* \"contracts/ICO.sol\":515:543  keccak256(\"EXTEND_ICO_ROLE\") */\n      0x305786ab5904b5bb20fe6d91992844b39d648cdcb82f328edc2d6a80bfbb3289\n        /* \"contracts/ICO.sol\":473:543  bytes32 public constant EXTEND_ICO_ROLE = keccak256(\"EXTEND_ICO_ROLE\") */\n      dup2\n      jump\t// out\n        /* \"@openzeppelin/contracts/access/AccessControl.sol\":5228:5375  function revokeRole(bytes32 role, address account) public virtual override onlyRole(getRoleAdmin(role)) {... */\n    tag_87:\n        /* \"@openzeppelin/contracts/access/AccessControl.sol\":5312:5330  getRoleAdmin(role) */\n      tag_183\n        /* \"@openzeppelin/contracts/access/AccessControl.sol\":5325:5329  role */\n      dup3\n        /* \"@openzeppelin/contracts/access/AccessControl.sol\":5312:5324  getRoleAdmin */\n      tag_37\n        /* \"@openzeppelin/contracts/access/AccessControl.sol\":5312:5330  getRoleAdmin(role) */\n      jump\t// in\n    tag_183:\n        /* \"@openzeppelin/contracts/access/AccessControl.sol\":2505:2521  _checkRole(role) */\n      tag_185\n        /* \"@openzeppelin/contracts/access/AccessControl.sol\":2516:2520  role */\n      dup2\n        /* \"@openzeppelin/contracts/access/AccessControl.sol\":2505:2515  _checkRole */\n      tag_123\n        /* \"@openzeppelin/contracts/access/AccessControl.sol\":2505:2521  _checkRole(role) */\n      jump\t// in\n    tag_185:\n        /* \"@openzeppelin/contracts/access/AccessControl.sol\":5342:5368  _revokeRole(role, account) */\n      tag_187\n        /* \"@openzeppelin/contracts/access/AccessControl.sol\":5354:5358  role */\n      dup4\n        /* \"@openzeppelin/contracts/access/AccessControl.sol\":5360:5367  account */\n      dup4\n        /* \"@openzeppelin/contracts/access/AccessControl.sol\":5342:5353  _revokeRole */\n      tag_164\n        /* \"@openzeppelin/contracts/access/AccessControl.sol\":5342:5368  _revokeRole(role, account) */\n      jump\t// in\n    tag_187:\n        /* \"@openzeppelin/contracts/access/AccessControl.sol\":5228:5375  function revokeRole(bytes32 role, address account) public virtual override onlyRole(getRoleAdmin(role)) {... */\n      pop\n      pop\n      pop\n      jump\t// out\n        /* \"contracts/ICO.sol\":3693:3803  function conversion(uint256 _amnt) private view returns(uint256){... */\n    tag_97:\n        /* \"contracts/ICO.sol\":3749:3756  uint256 */\n      0x00\n        /* \"contracts/ICO.sol\":3774:3795  _amnt.mul(ratioMetis) */\n      tag_189\n        /* \"contracts/ICO.sol\":3784:3794  ratioMetis */\n      sload(0x0a)\n        /* \"contracts/ICO.sol\":3774:3779  _amnt */\n      dup4\n        /* \"contracts/ICO.sol\":3774:3783  _amnt.mul */\n      tag_190\n      swap1\n        /* \"contracts/ICO.sol\":3774:3795  _amnt.mul(ratioMetis) */\n      swap2\n      swap1\n      0xffffffff\n      and\n      jump\t// in\n    tag_189:\n        /* \"contracts/ICO.sol\":3767:3796  return(_amnt.mul(ratioMetis)) */\n      swap1\n      pop\n        /* \"contracts/ICO.sol\":3693:3803  function conversion(uint256 _amnt) private view returns(uint256){... */\n      swap2\n      swap1\n      pop\n      jump\t// out\n        /* \"@openzeppelin/contracts/utils/introspection/ERC165.sol\":829:984  function supportsInterface(bytes4 interfaceId) public view virtual override returns (bool) {... */\n    tag_119:\n        /* \"@openzeppelin/contracts/utils/introspection/ERC165.sol\":914:918  bool */\n      0x00\n        /* \"@openzeppelin/contracts/utils/introspection/ERC165.sol\":952:977  type(IERC165).interfaceId */\n      0x01ffc9a700000000000000000000000000000000000000000000000000000000\n        /* \"@openzeppelin/contracts/utils/introspection/ERC165.sol\":937:977  interfaceId == type(IERC165).interfaceId */\n      not(0xffffffffffffffffffffffffffffffffffffffffffffffffffffffff)\n      and\n        /* \"@openzeppelin/contracts/utils/introspection/ERC165.sol\":937:948  interfaceId */\n      dup3\n        /* \"@openzeppelin/contracts/utils/introspection/ERC165.sol\":937:977  interfaceId == type(IERC165).interfaceId */\n      not(0xffffffffffffffffffffffffffffffffffffffffffffffffffffffff)\n      and\n      eq\n        /* \"@openzeppelin/contracts/utils/introspection/ERC165.sol\":930:977  return interfaceId == type(IERC165).interfaceId */\n      swap1\n      pop\n        /* \"@openzeppelin/contracts/utils/introspection/ERC165.sol\":829:984  function supportsInterface(bytes4 interfaceId) public view virtual override returns (bool) {... */\n      swap2\n      swap1\n      pop\n      jump\t// out\n        /* \"@openzeppelin/contracts/access/AccessControl.sol\":3334:3437  function _checkRole(bytes32 role) internal view virtual {... */\n    tag_123:\n        /* \"@openzeppelin/contracts/access/AccessControl.sol\":3400:3430  _checkRole(role, _msgSender()) */\n      tag_193\n        /* \"@openzeppelin/contracts/access/AccessControl.sol\":3411:3415  role */\n      dup2\n        /* \"@openzeppelin/contracts/access/AccessControl.sol\":3417:3429  _msgSender() */\n      tag_194\n        /* \"@openzeppelin/contracts/access/AccessControl.sol\":3417:3427  _msgSender */\n      tag_159\n        /* \"@openzeppelin/contracts/access/AccessControl.sol\":3417:3429  _msgSender() */\n      jump\t// in\n    tag_194:\n        /* \"@openzeppelin/contracts/access/AccessControl.sol\":3400:3410  _checkRole */\n      tag_195\n        /* \"@openzeppelin/contracts/access/AccessControl.sol\":3400:3430  _checkRole(role, _msgSender()) */\n      jump\t// in\n    tag_193:\n        /* \"@openzeppelin/contracts/access/AccessControl.sol\":3334:3437  function _checkRole(bytes32 role) internal view virtual {... */\n      pop\n      jump\t// out\n        /* \"contracts/ICO.sol\":3809:3925  function percentFromICO(uint256 _amnt) private view returns(uint256){... */\n    tag_130:\n        /* \"contracts/ICO.sol\":3869:3876  uint256 */\n      0x00\n        /* \"contracts/ICO.sol\":3894:3918  _amnt.mul(soldPercent()) */\n      tag_197\n        /* \"contracts/ICO.sol\":3904:3917  soldPercent() */\n      tag_198\n        /* \"contracts/ICO.sol\":3904:3915  soldPercent */\n      tag_199\n        /* \"contracts/ICO.sol\":3904:3917  soldPercent() */\n      jump\t// in\n    tag_198:\n        /* \"contracts/ICO.sol\":3894:3899  _amnt */\n      dup4\n        /* \"contracts/ICO.sol\":3894:3903  _amnt.mul */\n      tag_190\n      swap1\n        /* \"contracts/ICO.sol\":3894:3918  _amnt.mul(soldPercent()) */\n      swap2\n      swap1\n      0xffffffff\n      and\n      jump\t// in\n    tag_197:\n        /* \"contracts/ICO.sol\":3887:3918  return _amnt.mul(soldPercent()) */\n      swap1\n      pop\n        /* \"contracts/ICO.sol\":3809:3925  function percentFromICO(uint256 _amnt) private view returns(uint256){... */\n      swap2\n      swap1\n      pop\n      jump\t// out\n        /* \"@openzeppelin/contracts/access/AccessControl.sol\":7461:7694  function _grantRole(bytes32 role, address account) internal virtual {... */\n    tag_156:\n        /* \"@openzeppelin/contracts/access/AccessControl.sol\":7544:7566  hasRole(role, account) */\n      tag_201\n        /* \"@openzeppelin/contracts/access/AccessControl.sol\":7552:7556  role */\n      dup3\n        /* \"@openzeppelin/contracts/access/AccessControl.sol\":7558:7565  account */\n      dup3\n        /* \"@openzeppelin/contracts/access/AccessControl.sol\":7544:7551  hasRole */\n      tag_72\n        /* \"@openzeppelin/contracts/access/AccessControl.sol\":7544:7566  hasRole(role, account) */\n      jump\t// in\n    tag_201:\n        /* \"@openzeppelin/contracts/access/AccessControl.sol\":7539:7688  if (!hasRole(role, account)) {... */\n      tag_202\n      jumpi\n        /* \"@openzeppelin/contracts/access/AccessControl.sol\":7614:7618  true */\n      0x01\n        /* \"@openzeppelin/contracts/access/AccessControl.sol\":7582:7588  _roles */\n      0x00\n        /* \"@openzeppelin/contracts/access/AccessControl.sol\":7582:7594  _roles[role] */\n      dup1\n        /* \"@openzeppelin/contracts/access/AccessControl.sol\":7589:7593  role */\n      dup5\n        /* \"@openzeppelin/contracts/access/AccessControl.sol\":7582:7594  _roles[role] */\n      dup2\n      mstore\n      0x20\n      add\n      swap1\n      dup2\n      mstore\n      0x20\n      add\n      0x00\n      keccak256\n        /* \"@openzeppelin/contracts/access/AccessControl.sol\":7582:7602  _roles[role].members */\n      0x00\n      add\n        /* \"@openzeppelin/contracts/access/AccessControl.sol\":7582:7611  _roles[role].members[account] */\n      0x00\n        /* \"@openzeppelin/contracts/access/AccessControl.sol\":7603:7610  account */\n      dup4\n        /* \"@openzeppelin/contracts/access/AccessControl.sol\":7582:7611  _roles[role].members[account] */\n      0xffffffffffffffffffffffffffffffffffffffff\n      and\n      0xffffffffffffffffffffffffffffffffffffffff\n      and\n      dup2\n      mstore\n      0x20\n      add\n      swap1\n      dup2\n      mstore\n      0x20\n      add\n      0x00\n      keccak256\n      0x00\n        /* \"@openzeppelin/contracts/access/AccessControl.sol\":7582:7618  _roles[role].members[account] = true */\n      0x0100\n      exp\n      dup2\n      sload\n      dup2\n      0xff\n      mul\n      not\n      and\n      swap1\n      dup4\n      iszero\n      iszero\n      mul\n      or\n      swap1\n      sstore\n      pop\n        /* \"@openzeppelin/contracts/access/AccessControl.sol\":7664:7676  _msgSender() */\n      tag_203\n        /* \"@openzeppelin/contracts/access/AccessControl.sol\":7664:7674  _msgSender */\n      tag_159\n        /* \"@openzeppelin/contracts/access/AccessControl.sol\":7664:7676  _msgSender() */\n      jump\t// in\n    tag_203:\n        /* \"@openzeppelin/contracts/access/AccessControl.sol\":7637:7677  RoleGranted(role, account, _msgSender()) */\n      0xffffffffffffffffffffffffffffffffffffffff\n      and\n        /* \"@openzeppelin/contracts/access/AccessControl.sol\":7655:7662  account */\n      dup2\n        /* \"@openzeppelin/contracts/access/AccessControl.sol\":7637:7677  RoleGranted(role, account, _msgSender()) */\n      0xffffffffffffffffffffffffffffffffffffffff\n      and\n        /* \"@openzeppelin/contracts/access/AccessControl.sol\":7649:7653  role */\n      dup4\n        /* \"@openzeppelin/contracts/access/AccessControl.sol\":7637:7677  RoleGranted(role, account, _msgSender()) */\n      0x2f8788117e7eff1d82e926ec794901d17c78024a50270940304540a733656f0d\n      mload(0x40)\n      mload(0x40)\n      dup1\n      swap2\n      sub\n      swap1\n      log4\n        /* \"@openzeppelin/contracts/access/AccessControl.sol\":7539:7688  if (!hasRole(role, account)) {... */\n    tag_202:\n        /* \"@openzeppelin/contracts/access/AccessControl.sol\":7461:7694  function _grantRole(bytes32 role, address account) internal virtual {... */\n      pop\n      pop\n      jump\t// out\n        /* \"@openzeppelin/contracts/utils/Context.sol\":640:736  function _msgSender() internal view virtual returns (address) {... */\n    tag_159:\n        /* \"@openzeppelin/contracts/utils/Context.sol\":693:700  address */\n      0x00\n        /* \"@openzeppelin/contracts/utils/Context.sol\":719:729  msg.sender */\n      caller\n        /* \"@openzeppelin/contracts/utils/Context.sol\":712:729  return msg.sender */\n      swap1\n      pop\n        /* \"@openzeppelin/contracts/utils/Context.sol\":640:736  function _msgSender() internal view virtual returns (address) {... */\n      swap1\n      jump\t// out\n        /* \"@openzeppelin/contracts/access/AccessControl.sol\":7865:8099  function _revokeRole(bytes32 role, address account) internal virtual {... */\n    tag_164:\n        /* \"@openzeppelin/contracts/access/AccessControl.sol\":7948:7970  hasRole(role, account) */\n      tag_206\n        /* \"@openzeppelin/contracts/access/AccessControl.sol\":7956:7960  role */\n      dup3\n        /* \"@openzeppelin/contracts/access/AccessControl.sol\":7962:7969  account */\n      dup3\n        /* \"@openzeppelin/contracts/access/AccessControl.sol\":7948:7955  hasRole */\n      tag_72\n        /* \"@openzeppelin/contracts/access/AccessControl.sol\":7948:7970  hasRole(role, account) */\n      jump\t// in\n    tag_206:\n        /* \"@openzeppelin/contracts/access/AccessControl.sol\":7944:8093  if (hasRole(role, account)) {... */\n      iszero\n      tag_207\n      jumpi\n        /* \"@openzeppelin/contracts/access/AccessControl.sol\":8018:8023  false */\n      0x00\n        /* \"@openzeppelin/contracts/access/AccessControl.sol\":7986:7992  _roles */\n      dup1\n        /* \"@openzeppelin/contracts/access/AccessControl.sol\":7986:7998  _roles[role] */\n      0x00\n        /* \"@openzeppelin/contracts/access/AccessControl.sol\":7993:7997  role */\n      dup5\n        /* \"@openzeppelin/contracts/access/AccessControl.sol\":7986:7998  _roles[role] */\n      dup2\n      mstore\n      0x20\n      add\n      swap1\n      dup2\n      mstore\n      0x20\n      add\n      0x00\n      keccak256\n        /* \"@openzeppelin/contracts/access/AccessControl.sol\":7986:8006  _roles[role].members */\n      0x00\n      add\n        /* \"@openzeppelin/contracts/access/AccessControl.sol\":7986:8015  _roles[role].members[account] */\n      0x00\n        /* \"@openzeppelin/contracts/access/AccessControl.sol\":8007:8014  account */\n      dup4\n        /* \"@openzeppelin/contracts/access/AccessControl.sol\":7986:8015  _roles[role].members[account] */\n      0xffffffffffffffffffffffffffffffffffffffff\n      and\n      0xffffffffffffffffffffffffffffffffffffffff\n      and\n      dup2\n      mstore\n      0x20\n      add\n      swap1\n      dup2\n      mstore\n      0x20\n      add\n      0x00\n      keccak256\n      0x00\n        /* \"@openzeppelin/contracts/access/AccessControl.sol\":7986:8023  _roles[role].members[account] = false */\n      0x0100\n      exp\n      dup2\n      sload\n      dup2\n      0xff\n      mul\n      not\n      and\n      swap1\n      dup4\n      iszero\n      iszero\n      mul\n      or\n      swap1\n      sstore\n      pop\n        /* \"@openzeppelin/contracts/access/AccessControl.sol\":8069:8081  _msgSender() */\n      tag_208\n        /* \"@openzeppelin/contracts/access/AccessControl.sol\":8069:8079  _msgSender */\n      tag_159\n        /* \"@openzeppelin/contracts/access/AccessControl.sol\":8069:8081  _msgSender() */\n      jump\t// in\n    tag_208:\n        /* \"@openzeppelin/contracts/access/AccessControl.sol\":8042:8082  RoleRevoked(role, account, _msgSender()) */\n      0xffffffffffffffffffffffffffffffffffffffff\n      and\n        /* \"@openzeppelin/contracts/access/AccessControl.sol\":8060:8067  account */\n      dup2\n        /* \"@openzeppelin/contracts/access/AccessControl.sol\":8042:8082  RoleRevoked(role, account, _msgSender()) */\n      0xffffffffffffffffffffffffffffffffffffffff\n      and\n        /* \"@openzeppelin/contracts/access/AccessControl.sol\":8054:8058  role */\n      dup4\n        /* \"@openzeppelin/contracts/access/AccessControl.sol\":8042:8082  RoleRevoked(role, account, _msgSender()) */\n      0xf6391f5c32d9c69d2a47ea670b442974b53935d1edc7fd64eb21e047a839171b\n      mload(0x40)\n      mload(0x40)\n      dup1\n      swap2\n      sub\n      swap1\n      log4\n        /* \"@openzeppelin/contracts/access/AccessControl.sol\":7944:8093  if (hasRole(role, account)) {... */\n    tag_207:\n        /* \"@openzeppelin/contracts/access/AccessControl.sol\":7865:8099  function _revokeRole(bytes32 role, address account) internal virtual {... */\n      pop\n      pop\n      jump\t// out\n        /* \"@openzeppelin/contracts/utils/math/SafeMath.sol\":3122:3218  function sub(uint256 a, uint256 b) internal pure returns (uint256) {... */\n    tag_176:\n        /* \"@openzeppelin/contracts/utils/math/SafeMath.sol\":3180:3187  uint256 */\n      0x00\n        /* \"@openzeppelin/contracts/utils/math/SafeMath.sol\":3210:3211  b */\n      dup2\n        /* \"@openzeppelin/contracts/utils/math/SafeMath.sol\":3206:3207  a */\n      dup4\n        /* \"@openzeppelin/contracts/utils/math/SafeMath.sol\":3206:3211  a - b */\n      tag_210\n      swap2\n      swap1\n      tag_211\n      jump\t// in\n    tag_210:\n        /* \"@openzeppelin/contracts/utils/math/SafeMath.sol\":3199:3211  return a - b */\n      swap1\n      pop\n        /* \"@openzeppelin/contracts/utils/math/SafeMath.sol\":3122:3218  function sub(uint256 a, uint256 b) internal pure returns (uint256) {... */\n      swap3\n      swap2\n      pop\n      pop\n      jump\t// out\n        /* \"@openzeppelin/contracts/utils/math/SafeMath.sol\":3465:3561  function mul(uint256 a, uint256 b) internal pure returns (uint256) {... */\n    tag_190:\n        /* \"@openzeppelin/contracts/utils/math/SafeMath.sol\":3523:3530  uint256 */\n      0x00\n        /* \"@openzeppelin/contracts/utils/math/SafeMath.sol\":3553:3554  b */\n      dup2\n        /* \"@openzeppelin/contracts/utils/math/SafeMath.sol\":3549:3550  a */\n      dup4\n        /* \"@openzeppelin/contracts/utils/math/SafeMath.sol\":3549:3554  a * b */\n      tag_213\n      swap2\n      swap1\n      tag_126\n      jump\t// in\n    tag_213:\n        /* \"@openzeppelin/contracts/utils/math/SafeMath.sol\":3542:3554  return a * b */\n      swap1\n      pop\n        /* \"@openzeppelin/contracts/utils/math/SafeMath.sol\":3465:3561  function mul(uint256 a, uint256 b) internal pure returns (uint256) {... */\n      swap3\n      swap2\n      pop\n      pop\n      jump\t// out\n        /* \"@openzeppelin/contracts/access/AccessControl.sol\":3718:4197  function _checkRole(bytes32 role, address account) internal view virtual {... */\n    tag_195:\n        /* \"@openzeppelin/contracts/access/AccessControl.sol\":3806:3828  hasRole(role, account) */\n      tag_215\n        /* \"@openzeppelin/contracts/access/AccessControl.sol\":3814:3818  role */\n      dup3\n        /* \"@openzeppelin/contracts/access/AccessControl.sol\":3820:3827  account */\n      dup3\n        /* \"@openzeppelin/contracts/access/AccessControl.sol\":3806:3813  hasRole */\n      tag_72\n        /* \"@openzeppelin/contracts/access/AccessControl.sol\":3806:3828  hasRole(role, account) */\n      jump\t// in\n    tag_215:\n        /* \"@openzeppelin/contracts/access/AccessControl.sol\":3801:4191  if (!hasRole(role, account)) {... */\n      tag_216\n      jumpi\n        /* \"@openzeppelin/contracts/access/AccessControl.sol\":3989:4017  Strings.toHexString(account) */\n      tag_217\n        /* \"@openzeppelin/contracts/access/AccessControl.sol\":4009:4016  account */\n      dup2\n        /* \"@openzeppelin/contracts/access/AccessControl.sol\":3989:4008  Strings.toHexString */\n      tag_218\n        /* \"@openzeppelin/contracts/access/AccessControl.sol\":3989:4017  Strings.toHexString(account) */\n      jump\t// in\n    tag_217:\n        /* \"@openzeppelin/contracts/access/AccessControl.sol\":4088:4126  Strings.toHexString(uint256(role), 32) */\n      tag_219\n        /* \"@openzeppelin/contracts/access/AccessControl.sol\":4116:4120  role */\n      dup4\n        /* \"@openzeppelin/contracts/access/AccessControl.sol\":4108:4121  uint256(role) */\n      0x00\n      shr\n        /* \"@openzeppelin/contracts/access/AccessControl.sol\":4123:4125  32 */\n      0x20\n        /* \"@openzeppelin/contracts/access/AccessControl.sol\":4088:4107  Strings.toHexString */\n      tag_220\n        /* \"@openzeppelin/contracts/access/AccessControl.sol\":4088:4126  Strings.toHexString(uint256(role), 32) */\n      jump\t// in\n    tag_219:\n        /* \"@openzeppelin/contracts/access/AccessControl.sol\":3896:4148  abi.encodePacked(... */\n      add(0x20, mload(0x40))\n      tag_221\n      swap3\n      swap2\n      swap1\n      tag_222\n      jump\t// in\n    tag_221:\n      mload(0x40)\n      0x20\n      dup2\n      dup4\n      sub\n      sub\n      dup2\n      mstore\n      swap1\n      0x40\n      mstore\n        /* \"@openzeppelin/contracts/access/AccessControl.sol\":3844:4180  revert(... */\n      mload(0x40)\n      0x08c379a000000000000000000000000000000000000000000000000000000000\n      dup2\n      mstore\n      0x04\n      add\n      tag_223\n      swap2\n      swap1\n      tag_224\n      jump\t// in\n    tag_223:\n      mload(0x40)\n      dup1\n      swap2\n      sub\n      swap1\n      revert\n        /* \"@openzeppelin/contracts/access/AccessControl.sol\":3801:4191  if (!hasRole(role, account)) {... */\n    tag_216:\n        /* \"@openzeppelin/contracts/access/AccessControl.sol\":3718:4197  function _checkRole(bytes32 role, address account) internal view virtual {... */\n      pop\n      pop\n      jump\t// out\n        /* \"contracts/ICO.sol\":3931:4027  function soldPercent() private view returns(uint256){... */\n    tag_199:\n        /* \"contracts/ICO.sol\":3975:3982  uint256 */\n      0x00\n        /* \"contracts/ICO.sol\":4000:4020  SoldEFTT.div(maxICO) */\n      tag_226\n        /* \"contracts/ICO.sol\":4013:4019  maxICO */\n      sload(0x07)\n        /* \"contracts/ICO.sol\":4000:4008  SoldEFTT */\n      sload(0x09)\n        /* \"contracts/ICO.sol\":4000:4012  SoldEFTT.div */\n      tag_227\n      swap1\n        /* \"contracts/ICO.sol\":4000:4020  SoldEFTT.div(maxICO) */\n      swap2\n      swap1\n      0xffffffff\n      and\n      jump\t// in\n    tag_226:\n        /* \"contracts/ICO.sol\":3993:4020  return SoldEFTT.div(maxICO) */\n      swap1\n      pop\n        /* \"contracts/ICO.sol\":3931:4027  function soldPercent() private view returns(uint256){... */\n      swap1\n      jump\t// out\n        /* \"@openzeppelin/contracts/utils/Strings.sol\":2102:2251  function toHexString(address addr) internal pure returns (string memory) {... */\n    tag_218:\n        /* \"@openzeppelin/contracts/utils/Strings.sol\":2160:2173  string memory */\n      0x60\n        /* \"@openzeppelin/contracts/utils/Strings.sol\":2192:2244  toHexString(uint256(uint160(addr)), _ADDRESS_LENGTH) */\n      tag_229\n        /* \"@openzeppelin/contracts/utils/Strings.sol\":2220:2224  addr */\n      dup3\n        /* \"@openzeppelin/contracts/utils/Strings.sol\":2204:2226  uint256(uint160(addr)) */\n      0xffffffffffffffffffffffffffffffffffffffff\n      and\n        /* \"@openzeppelin/contracts/utils/Strings.sol\":311:313  20 */\n      0x14\n        /* \"@openzeppelin/contracts/utils/Strings.sol\":2192:2244  toHexString(uint256(uint160(addr)), _ADDRESS_LENGTH) */\n      0xff\n      and\n        /* \"@openzeppelin/contracts/utils/Strings.sol\":2192:2203  toHexString */\n      tag_220\n        /* \"@openzeppelin/contracts/utils/Strings.sol\":2192:2244  toHexString(uint256(uint160(addr)), _ADDRESS_LENGTH) */\n      jump\t// in\n    tag_229:\n        /* \"@openzeppelin/contracts/utils/Strings.sol\":2185:2244  return toHexString(uint256(uint160(addr)), _ADDRESS_LENGTH) */\n      swap1\n      pop\n        /* \"@openzeppelin/contracts/utils/Strings.sol\":2102:2251  function toHexString(address addr) internal pure returns (string memory) {... */\n      swap2\n      swap1\n      pop\n      jump\t// out\n        /* \"@openzeppelin/contracts/utils/Strings.sol\":1513:1950  function toHexString(uint256 value, uint256 length) internal pure returns (string memory) {... */\n    tag_220:\n        /* \"@openzeppelin/contracts/utils/Strings.sol\":1588:1601  string memory */\n      0x60\n        /* \"@openzeppelin/contracts/utils/Strings.sol\":1613:1632  bytes memory buffer */\n      0x00\n        /* \"@openzeppelin/contracts/utils/Strings.sol\":1658:1659  2 */\n      0x02\n        /* \"@openzeppelin/contracts/utils/Strings.sol\":1649:1655  length */\n      dup4\n        /* \"@openzeppelin/contracts/utils/Strings.sol\":1645:1646  2 */\n      0x02\n        /* \"@openzeppelin/contracts/utils/Strings.sol\":1645:1655  2 * length */\n      tag_231\n      swap2\n      swap1\n      tag_126\n      jump\t// in\n    tag_231:\n        /* \"@openzeppelin/contracts/utils/Strings.sol\":1645:1659  2 * length + 2 */\n      tag_232\n      swap2\n      swap1\n      tag_99\n      jump\t// in\n    tag_232:\n        /* \"@openzeppelin/contracts/utils/Strings.sol\":1635:1660  new bytes(2 * length + 2) */\n      0xffffffffffffffff\n      dup2\n      gt\n      iszero\n      tag_233\n      jumpi\n      tag_234\n      tag_235\n      jump\t// in\n    tag_234:\n    tag_233:\n      mload(0x40)\n      swap1\n      dup1\n      dup3\n      mstore\n      dup1\n      0x1f\n      add\n      not(0x1f)\n      and\n      0x20\n      add\n      dup3\n      add\n      0x40\n      mstore\n      dup1\n      iszero\n      tag_236\n      jumpi\n      dup2\n      0x20\n      add\n      0x01\n      dup3\n      mul\n      dup1\n      calldatasize\n      dup4\n      calldatacopy\n      dup1\n      dup3\n      add\n      swap2\n      pop\n      pop\n      swap1\n      pop\n    tag_236:\n      pop\n        /* \"@openzeppelin/contracts/utils/Strings.sol\":1613:1660  bytes memory buffer = new bytes(2 * length + 2) */\n      swap1\n      pop\n        /* \"@openzeppelin/contracts/utils/Strings.sol\":1670:1685  buffer[0] = \"0\" */\n      0x3000000000000000000000000000000000000000000000000000000000000000\n        /* \"@openzeppelin/contracts/utils/Strings.sol\":1670:1676  buffer */\n      dup2\n        /* \"@openzeppelin/contracts/utils/Strings.sol\":1677:1678  0 */\n      0x00\n        /* \"@openzeppelin/contracts/utils/Strings.sol\":1670:1679  buffer[0] */\n      dup2\n      mload\n      dup2\n      lt\n      tag_237\n      jumpi\n      tag_238\n      tag_239\n      jump\t// in\n    tag_238:\n    tag_237:\n      0x20\n      add\n      add\n        /* \"@openzeppelin/contracts/utils/Strings.sol\":1670:1685  buffer[0] = \"0\" */\n      swap1\n      not(0xffffffffffffffffffffffffffffffffffffffffffffffffffffffffffffff)\n      and\n      swap1\n      dup2\n      0x00\n      byte\n      swap1\n      mstore8\n      pop\n        /* \"@openzeppelin/contracts/utils/Strings.sol\":1695:1710  buffer[1] = \"x\" */\n      0x7800000000000000000000000000000000000000000000000000000000000000\n        /* \"@openzeppelin/contracts/utils/Strings.sol\":1695:1701  buffer */\n      dup2\n        /* \"@openzeppelin/contracts/utils/Strings.sol\":1702:1703  1 */\n      0x01\n        /* \"@openzeppelin/contracts/utils/Strings.sol\":1695:1704  buffer[1] */\n      dup2\n      mload\n      dup2\n      lt\n      tag_240\n      jumpi\n      tag_241\n      tag_239\n      jump\t// in\n    tag_241:\n    tag_240:\n      0x20\n      add\n      add\n        /* \"@openzeppelin/contracts/utils/Strings.sol\":1695:1710  buffer[1] = \"x\" */\n      swap1\n      not(0xffffffffffffffffffffffffffffffffffffffffffffffffffffffffffffff)\n      and\n      swap1\n      dup2\n      0x00\n      byte\n      swap1\n      mstore8\n      pop\n        /* \"@openzeppelin/contracts/utils/Strings.sol\":1725:1734  uint256 i */\n      0x00\n        /* \"@openzeppelin/contracts/utils/Strings.sol\":1750:1751  1 */\n      0x01\n        /* \"@openzeppelin/contracts/utils/Strings.sol\":1741:1747  length */\n      dup5\n        /* \"@openzeppelin/contracts/utils/Strings.sol\":1737:1738  2 */\n      0x02\n        /* \"@openzeppelin/contracts/utils/Strings.sol\":1737:1747  2 * length */\n      tag_245\n      swap2\n      swap1\n      tag_126\n      jump\t// in\n    tag_245:\n        /* \"@openzeppelin/contracts/utils/Strings.sol\":1737:1751  2 * length + 1 */\n      tag_246\n      swap2\n      swap1\n      tag_99\n      jump\t// in\n    tag_246:\n        /* \"@openzeppelin/contracts/utils/Strings.sol\":1725:1751  uint256 i = 2 * length + 1 */\n      swap1\n      pop\n        /* \"@openzeppelin/contracts/utils/Strings.sol\":1720:1848  for (uint256 i = 2 * length + 1; i > 1; --i) {... */\n    tag_242:\n        /* \"@openzeppelin/contracts/utils/Strings.sol\":1757:1758  1 */\n      0x01\n        /* \"@openzeppelin/contracts/utils/Strings.sol\":1753:1754  i */\n      dup2\n        /* \"@openzeppelin/contracts/utils/Strings.sol\":1753:1758  i > 1 */\n      gt\n        /* \"@openzeppelin/contracts/utils/Strings.sol\":1720:1848  for (uint256 i = 2 * length + 1; i > 1; --i) {... */\n      iszero\n      tag_243\n      jumpi\n        /* \"@openzeppelin/contracts/utils/Strings.sol\":1791:1799  _SYMBOLS */\n      0x3031323334353637383961626364656600000000000000000000000000000000\n        /* \"@openzeppelin/contracts/utils/Strings.sol\":1808:1811  0xf */\n      0x0f\n        /* \"@openzeppelin/contracts/utils/Strings.sol\":1800:1805  value */\n      dup7\n        /* \"@openzeppelin/contracts/utils/Strings.sol\":1800:1811  value & 0xf */\n      and\n        /* \"@openzeppelin/contracts/utils/Strings.sol\":1791:1812  _SYMBOLS[value & 0xf] */\n      0x10\n      dup2\n      lt\n      tag_247\n      jumpi\n      tag_248\n      tag_239\n      jump\t// in\n    tag_248:\n    tag_247:\n      byte\n      0xf8\n      shl\n        /* \"@openzeppelin/contracts/utils/Strings.sol\":1779:1785  buffer */\n      dup3\n        /* \"@openzeppelin/contracts/utils/Strings.sol\":1786:1787  i */\n      dup3\n        /* \"@openzeppelin/contracts/utils/Strings.sol\":1779:1788  buffer[i] */\n      dup2\n      mload\n      dup2\n      lt\n      tag_249\n      jumpi\n      tag_250\n      tag_239\n      jump\t// in\n    tag_250:\n    tag_249:\n      0x20\n      add\n      add\n        /* \"@openzeppelin/contracts/utils/Strings.sol\":1779:1812  buffer[i] = _SYMBOLS[value & 0xf] */\n      swap1\n      not(0xffffffffffffffffffffffffffffffffffffffffffffffffffffffffffffff)\n      and\n      swap1\n      dup2\n      0x00\n      byte\n      swap1\n      mstore8\n      pop\n        /* \"@openzeppelin/contracts/utils/Strings.sol\":1836:1837  4 */\n      0x04\n        /* \"@openzeppelin/contracts/utils/Strings.sol\":1826:1837  value >>= 4 */\n      dup6\n      swap1\n      shr\n      swap5\n      pop\n        /* \"@openzeppelin/contracts/utils/Strings.sol\":1760:1763  --i */\n      dup1\n      tag_251\n      swap1\n      tag_252\n      jump\t// in\n    tag_251:\n      swap1\n      pop\n        /* \"@openzeppelin/contracts/utils/Strings.sol\":1720:1848  for (uint256 i = 2 * length + 1; i > 1; --i) {... */\n      jump(tag_242)\n    tag_243:\n      pop\n        /* \"@openzeppelin/contracts/utils/Strings.sol\":1874:1875  0 */\n      0x00\n        /* \"@openzeppelin/contracts/utils/Strings.sol\":1865:1870  value */\n      dup5\n        /* \"@openzeppelin/contracts/utils/Strings.sol\":1865:1875  value == 0 */\n      eq\n        /* \"@openzeppelin/contracts/utils/Strings.sol\":1857:1912  require(value == 0, \"Strings: hex length insufficient\") */\n      tag_253\n      jumpi\n      mload(0x40)\n      0x08c379a000000000000000000000000000000000000000000000000000000000\n      dup2\n      mstore\n      0x04\n      add\n      tag_254\n      swap1\n      tag_255\n      jump\t// in\n    tag_254:\n      mload(0x40)\n      dup1\n      swap2\n      sub\n      swap1\n      revert\n    tag_253:\n        /* \"@openzeppelin/contracts/utils/Strings.sol\":1936:1942  buffer */\n      dup1\n        /* \"@openzeppelin/contracts/utils/Strings.sol\":1922:1943  return string(buffer) */\n      swap2\n      pop\n      pop\n        /* \"@openzeppelin/contracts/utils/Strings.sol\":1513:1950  function toHexString(uint256 value, uint256 length) internal pure returns (string memory) {... */\n      swap3\n      swap2\n      pop\n      pop\n      jump\t// out\n        /* \"@openzeppelin/contracts/utils/math/SafeMath.sol\":3850:3946  function div(uint256 a, uint256 b) internal pure returns (uint256) {... */\n    tag_227:\n        /* \"@openzeppelin/contracts/utils/math/SafeMath.sol\":3908:3915  uint256 */\n      0x00\n        /* \"@openzeppelin/contracts/utils/math/SafeMath.sol\":3938:3939  b */\n      dup2\n        /* \"@openzeppelin/contracts/utils/math/SafeMath.sol\":3934:3935  a */\n      dup4\n        /* \"@openzeppelin/contracts/utils/math/SafeMath.sol\":3934:3939  a / b */\n      tag_257\n      swap2\n      swap1\n      tag_258\n      jump\t// in\n    tag_257:\n        /* \"@openzeppelin/contracts/utils/math/SafeMath.sol\":3927:3939  return a / b */\n      swap1\n      pop\n        /* \"@openzeppelin/contracts/utils/math/SafeMath.sol\":3850:3946  function div(uint256 a, uint256 b) internal pure returns (uint256) {... */\n      swap3\n      swap2\n      pop\n      pop\n      jump\t// out\n        /* \"#utility.yul\":7:176   */\n    tag_259:\n        /* \"#utility.yul\":91:102   */\n      0x00\n        /* \"#utility.yul\":125:131   */\n      dup3\n        /* \"#utility.yul\":120:123   */\n      dup3\n        /* \"#utility.yul\":113:132   */\n      mstore\n        /* \"#utility.yul\":165:169   */\n      0x20\n        /* \"#utility.yul\":160:163   */\n      dup3\n        /* \"#utility.yul\":156:170   */\n      add\n        /* \"#utility.yul\":141:170   */\n      swap1\n      pop\n        /* \"#utility.yul\":7:176   */\n      swap3\n      swap2\n      pop\n      pop\n      jump\t// out\n        /* \"#utility.yul\":182:344   */\n    tag_260:\n        /* \"#utility.yul\":322:336   */\n      0x66616c6c6261636b206869740000000000000000000000000000000000000000\n        /* \"#utility.yul\":318:319   */\n      0x00\n        /* \"#utility.yul\":310:316   */\n      dup3\n        /* \"#utility.yul\":306:320   */\n      add\n        /* \"#utility.yul\":299:337   */\n      mstore\n        /* \"#utility.yul\":182:344   */\n      pop\n      jump\t// out\n        /* \"#utility.yul\":350:716   */\n    tag_261:\n        /* \"#utility.yul\":492:495   */\n      0x00\n        /* \"#utility.yul\":513:580   */\n      tag_313\n        /* \"#utility.yul\":577:579   */\n      0x0c\n        /* \"#utility.yul\":572:575   */\n      dup4\n        /* \"#utility.yul\":513:580   */\n      tag_259\n      jump\t// in\n    tag_313:\n        /* \"#utility.yul\":506:580   */\n      swap2\n      pop\n        /* \"#utility.yul\":589:682   */\n      tag_314\n        /* \"#utility.yul\":678:681   */\n      dup3\n        /* \"#utility.yul\":589:682   */\n      tag_260\n      jump\t// in\n    tag_314:\n        /* \"#utility.yul\":707:709   */\n      0x20\n        /* \"#utility.yul\":702:705   */\n      dup3\n        /* \"#utility.yul\":698:710   */\n      add\n        /* \"#utility.yul\":691:710   */\n      swap1\n      pop\n        /* \"#utility.yul\":350:716   */\n      swap2\n      swap1\n      pop\n      jump\t// out\n        /* \"#utility.yul\":722:1141   */\n    tag_23:\n        /* \"#utility.yul\":888:892   */\n      0x00\n        /* \"#utility.yul\":926:928   */\n      0x20\n        /* \"#utility.yul\":915:924   */\n      dup3\n        /* \"#utility.yul\":911:929   */\n      add\n        /* \"#utility.yul\":903:929   */\n      swap1\n      pop\n        /* \"#utility.yul\":975:984   */\n      dup2\n        /* \"#utility.yul\":969:973   */\n      dup2\n        /* \"#utility.yul\":965:985   */\n      sub\n        /* \"#utility.yul\":961:962   */\n      0x00\n        /* \"#utility.yul\":950:959   */\n      dup4\n        /* \"#utility.yul\":946:963   */\n      add\n        /* \"#utility.yul\":939:986   */\n      mstore\n        /* \"#utility.yul\":1003:1134   */\n      tag_316\n        /* \"#utility.yul\":1129:1133   */\n      dup2\n        /* \"#utility.yul\":1003:1134   */\n      tag_261\n      jump\t// in\n    tag_316:\n        /* \"#utility.yul\":995:1134   */\n      swap1\n      pop\n        /* \"#utility.yul\":722:1141   */\n      swap2\n      swap1\n      pop\n      jump\t// out\n        /* \"#utility.yul\":1228:1345   */\n    tag_263:\n        /* \"#utility.yul\":1337:1338   */\n      0x00\n        /* \"#utility.yul\":1334:1335   */\n      dup1\n        /* \"#utility.yul\":1327:1339   */\n      revert\n        /* \"#utility.yul\":1474:1623   */\n    tag_265:\n        /* \"#utility.yul\":1510:1517   */\n      0x00\n        /* \"#utility.yul\":1550:1616   */\n      0xffffffff00000000000000000000000000000000000000000000000000000000\n        /* \"#utility.yul\":1543:1548   */\n      dup3\n        /* \"#utility.yul\":1539:1617   */\n      and\n        /* \"#utility.yul\":1528:1617   */\n      swap1\n      pop\n        /* \"#utility.yul\":1474:1623   */\n      swap2\n      swap1\n      pop\n      jump\t// out\n        /* \"#utility.yul\":1629:1749   */\n    tag_266:\n        /* \"#utility.yul\":1701:1724   */\n      tag_322\n        /* \"#utility.yul\":1718:1723   */\n      dup2\n        /* \"#utility.yul\":1701:1724   */\n      tag_265\n      jump\t// in\n    tag_322:\n        /* \"#utility.yul\":1694:1699   */\n      dup2\n        /* \"#utility.yul\":1691:1725   */\n      eq\n        /* \"#utility.yul\":1681:1743   */\n      tag_323\n      jumpi\n        /* \"#utility.yul\":1739:1740   */\n      0x00\n        /* \"#utility.yul\":1736:1737   */\n      dup1\n        /* \"#utility.yul\":1729:1741   */\n      revert\n        /* \"#utility.yul\":1681:1743   */\n    tag_323:\n        /* \"#utility.yul\":1629:1749   */\n      pop\n      jump\t// out\n        /* \"#utility.yul\":1755:1892   */\n    tag_267:\n        /* \"#utility.yul\":1800:1805   */\n      0x00\n        /* \"#utility.yul\":1838:1844   */\n      dup2\n        /* \"#utility.yul\":1825:1845   */\n      calldataload\n        /* \"#utility.yul\":1816:1845   */\n      swap1\n      pop\n        /* \"#utility.yul\":1854:1886   */\n      tag_325\n        /* \"#utility.yul\":1880:1885   */\n      dup2\n        /* \"#utility.yul\":1854:1886   */\n      tag_266\n      jump\t// in\n    tag_325:\n        /* \"#utility.yul\":1755:1892   */\n      swap3\n      swap2\n      pop\n      pop\n      jump\t// out\n        /* \"#utility.yul\":1898:2225   */\n    tag_29:\n        /* \"#utility.yul\":1956:1962   */\n      0x00\n        /* \"#utility.yul\":2005:2007   */\n      0x20\n        /* \"#utility.yul\":1993:2002   */\n      dup3\n        /* \"#utility.yul\":1984:1991   */\n      dup5\n        /* \"#utility.yul\":1980:2003   */\n      sub\n        /* \"#utility.yul\":1976:2008   */\n      slt\n        /* \"#utility.yul\":1973:2092   */\n      iszero\n      tag_327\n      jumpi\n        /* \"#utility.yul\":2011:2090   */\n      tag_328\n      tag_263\n      jump\t// in\n    tag_328:\n        /* \"#utility.yul\":1973:2092   */\n    tag_327:\n        /* \"#utility.yul\":2131:2132   */\n      0x00\n        /* \"#utility.yul\":2156:2208   */\n      tag_329\n        /* \"#utility.yul\":2200:2207   */\n      dup5\n        /* \"#utility.yul\":2191:2197   */\n      dup3\n        /* \"#utility.yul\":2180:2189   */\n      dup6\n        /* \"#utility.yul\":2176:2198   */\n      add\n        /* \"#utility.yul\":2156:2208   */\n      tag_267\n      jump\t// in\n    tag_329:\n        /* \"#utility.yul\":2146:2208   */\n      swap2\n      pop\n        /* \"#utility.yul\":2102:2218   */\n      pop\n        /* \"#utility.yul\":1898:2225   */\n      swap3\n      swap2\n      pop\n      pop\n      jump\t// out\n        /* \"#utility.yul\":2231:2321   */\n    tag_268:\n        /* \"#utility.yul\":2265:2272   */\n      0x00\n        /* \"#utility.yul\":2308:2313   */\n      dup2\n        /* \"#utility.yul\":2301:2314   */\n      iszero\n        /* \"#utility.yul\":2294:2315   */\n      iszero\n        /* \"#utility.yul\":2283:2315   */\n      swap1\n      pop\n        /* \"#utility.yul\":2231:2321   */\n      swap2\n      swap1\n      pop\n      jump\t// out\n        /* \"#utility.yul\":2327:2436   */\n    tag_269:\n        /* \"#utility.yul\":2408:2429   */\n      tag_332\n        /* \"#utility.yul\":2423:2428   */\n      dup2\n        /* \"#utility.yul\":2408:2429   */\n      tag_268\n      jump\t// in\n    tag_332:\n        /* \"#utility.yul\":2403:2406   */\n      dup3\n        /* \"#utility.yul\":2396:2430   */\n      mstore\n        /* \"#utility.yul\":2327:2436   */\n      pop\n      pop\n      jump\t// out\n        /* \"#utility.yul\":2442:2652   */\n    tag_32:\n        /* \"#utility.yul\":2529:2533   */\n      0x00\n        /* \"#utility.yul\":2567:2569   */\n      0x20\n        /* \"#utility.yul\":2556:2565   */\n      dup3\n        /* \"#utility.yul\":2552:2570   */\n      add\n        /* \"#utility.yul\":2544:2570   */\n      swap1\n      pop\n        /* \"#utility.yul\":2580:2645   */\n      tag_334\n        /* \"#utility.yul\":2642:2643   */\n      0x00\n        /* \"#utility.yul\":2631:2640   */\n      dup4\n        /* \"#utility.yul\":2627:2644   */\n      add\n        /* \"#utility.yul\":2618:2624   */\n      dup5\n        /* \"#utility.yul\":2580:2645   */\n      tag_269\n      jump\t// in\n    tag_334:\n        /* \"#utility.yul\":2442:2652   */\n      swap3\n      swap2\n      pop\n      pop\n      jump\t// out\n        /* \"#utility.yul\":2658:2735   */\n    tag_270:\n        /* \"#utility.yul\":2695:2702   */\n      0x00\n        /* \"#utility.yul\":2724:2729   */\n      dup2\n        /* \"#utility.yul\":2713:2729   */\n      swap1\n      pop\n        /* \"#utility.yul\":2658:2735   */\n      swap2\n      swap1\n      pop\n      jump\t// out\n        /* \"#utility.yul\":2741:2863   */\n    tag_271:\n        /* \"#utility.yul\":2814:2838   */\n      tag_337\n        /* \"#utility.yul\":2832:2837   */\n      dup2\n        /* \"#utility.yul\":2814:2838   */\n      tag_270\n      jump\t// in\n    tag_337:\n        /* \"#utility.yul\":2807:2812   */\n      dup2\n        /* \"#utility.yul\":2804:2839   */\n      eq\n        /* \"#utility.yul\":2794:2857   */\n      tag_338\n      jumpi\n        /* \"#utility.yul\":2853:2854   */\n      0x00\n        /* \"#utility.yul\":2850:2851   */\n      dup1\n        /* \"#utility.yul\":2843:2855   */\n      revert\n        /* \"#utility.yul\":2794:2857   */\n    tag_338:\n        /* \"#utility.yul\":2741:2863   */\n      pop\n      jump\t// out\n        /* \"#utility.yul\":2869:3008   */\n    tag_272:\n        /* \"#utility.yul\":2915:2920   */\n      0x00\n        /* \"#utility.yul\":2953:2959   */\n      dup2\n        /* \"#utility.yul\":2940:2960   */\n      calldataload\n        /* \"#utility.yul\":2931:2960   */\n      swap1\n      pop\n        /* \"#utility.yul\":2969:3002   */\n      tag_340\n        /* \"#utility.yul\":2996:3001   */\n      dup2\n        /* \"#utility.yul\":2969:3002   */\n      tag_271\n      jump\t// in\n    tag_340:\n        /* \"#utility.yul\":2869:3008   */\n      swap3\n      swap2\n      pop\n      pop\n      jump\t// out\n        /* \"#utility.yul\":3014:3343   */\n    tag_36:\n        /* \"#utility.yul\":3073:3079   */\n      0x00\n        /* \"#utility.yul\":3122:3124   */\n      0x20\n        /* \"#utility.yul\":3110:3119   */\n      dup3\n        /* \"#utility.yul\":3101:3108   */\n      dup5\n        /* \"#utility.yul\":3097:3120   */\n      sub\n        /* \"#utility.yul\":3093:3125   */\n      slt\n        /* \"#utility.yul\":3090:3209   */\n      iszero\n      tag_342\n      jumpi\n        /* \"#utility.yul\":3128:3207   */\n      tag_343\n      tag_263\n      jump\t// in\n    tag_343:\n        /* \"#utility.yul\":3090:3209   */\n    tag_342:\n        /* \"#utility.yul\":3248:3249   */\n      0x00\n        /* \"#utility.yul\":3273:3326   */\n      tag_344\n        /* \"#utility.yul\":3318:3325   */\n      dup5\n        /* \"#utility.yul\":3309:3315   */\n      dup3\n        /* \"#utility.yul\":3298:3307   */\n      dup6\n        /* \"#utility.yul\":3294:3316   */\n      add\n        /* \"#utility.yul\":3273:3326   */\n      tag_272\n      jump\t// in\n    tag_344:\n        /* \"#utility.yul\":3263:3326   */\n      swap2\n      pop\n        /* \"#utility.yul\":3219:3336   */\n      pop\n        /* \"#utility.yul\":3014:3343   */\n      swap3\n      swap2\n      pop\n      pop\n      jump\t// out\n        /* \"#utility.yul\":3349:3467   */\n    tag_273:\n        /* \"#utility.yul\":3436:3460   */\n      tag_346\n        /* \"#utility.yul\":3454:3459   */\n      dup2\n        /* \"#utility.yul\":3436:3460   */\n      tag_270\n      jump\t// in\n    tag_346:\n        /* \"#utility.yul\":3431:3434   */\n      dup3\n        /* \"#utility.yul\":3424:3461   */\n      mstore\n        /* \"#utility.yul\":3349:3467   */\n      pop\n      pop\n      jump\t// out\n        /* \"#utility.yul\":3473:3695   */\n    tag_39:\n        /* \"#utility.yul\":3566:3570   */\n      0x00\n        /* \"#utility.yul\":3604:3606   */\n      0x20\n        /* \"#utility.yul\":3593:3602   */\n      dup3\n        /* \"#utility.yul\":3589:3607   */\n      add\n        /* \"#utility.yul\":3581:3607   */\n      swap1\n      pop\n        /* \"#utility.yul\":3617:3688   */\n      tag_348\n        /* \"#utility.yul\":3685:3686   */\n      0x00\n        /* \"#utility.yul\":3674:3683   */\n      dup4\n        /* \"#utility.yul\":3670:3687   */\n      add\n        /* \"#utility.yul\":3661:3667   */\n      dup5\n        /* \"#utility.yul\":3617:3688   */\n      tag_273\n      jump\t// in\n    tag_348:\n        /* \"#utility.yul\":3473:3695   */\n      swap3\n      swap2\n      pop\n      pop\n      jump\t// out\n        /* \"#utility.yul\":3701:3778   */\n    tag_274:\n        /* \"#utility.yul\":3738:3745   */\n      0x00\n        /* \"#utility.yul\":3767:3772   */\n      dup2\n        /* \"#utility.yul\":3756:3772   */\n      swap1\n      pop\n        /* \"#utility.yul\":3701:3778   */\n      swap2\n      swap1\n      pop\n      jump\t// out\n        /* \"#utility.yul\":3784:3906   */\n    tag_275:\n        /* \"#utility.yul\":3857:3881   */\n      tag_351\n        /* \"#utility.yul\":3875:3880   */\n      dup2\n        /* \"#utility.yul\":3857:3881   */\n      tag_274\n      jump\t// in\n    tag_351:\n        /* \"#utility.yul\":3850:3855   */\n      dup2\n        /* \"#utility.yul\":3847:3882   */\n      eq\n        /* \"#utility.yul\":3837:3900   */\n      tag_352\n      jumpi\n        /* \"#utility.yul\":3896:3897   */\n      0x00\n        /* \"#utility.yul\":3893:3894   */\n      dup1\n        /* \"#utility.yul\":3886:3898   */\n      revert\n        /* \"#utility.yul\":3837:3900   */\n    tag_352:\n        /* \"#utility.yul\":3784:3906   */\n      pop\n      jump\t// out\n        /* \"#utility.yul\":3912:4051   */\n    tag_276:\n        /* \"#utility.yul\":3958:3963   */\n      0x00\n        /* \"#utility.yul\":3996:4002   */\n      dup2\n        /* \"#utility.yul\":3983:4003   */\n      calldataload\n        /* \"#utility.yul\":3974:4003   */\n      swap1\n      pop\n        /* \"#utility.yul\":4012:4045   */\n      tag_354\n        /* \"#utility.yul\":4039:4044   */\n      dup2\n        /* \"#utility.yul\":4012:4045   */\n      tag_275\n      jump\t// in\n    tag_354:\n        /* \"#utility.yul\":3912:4051   */\n      swap3\n      swap2\n      pop\n      pop\n      jump\t// out\n        /* \"#utility.yul\":4057:4386   */\n    tag_47:\n        /* \"#utility.yul\":4116:4122   */\n      0x00\n        /* \"#utility.yul\":4165:4167   */\n      0x20\n        /* \"#utility.yul\":4153:4162   */\n      dup3\n        /* \"#utility.yul\":4144:4151   */\n      dup5\n        /* \"#utility.yul\":4140:4163   */\n      sub\n        /* \"#utility.yul\":4136:4168   */\n      slt\n        /* \"#utility.yul\":4133:4252   */\n      iszero\n      tag_356\n      jumpi\n        /* \"#utility.yul\":4171:4250   */\n      tag_357\n      tag_263\n      jump\t// in\n    tag_357:\n        /* \"#utility.yul\":4133:4252   */\n    tag_356:\n        /* \"#utility.yul\":4291:4292   */\n      0x00\n        /* \"#utility.yul\":4316:4369   */\n      tag_358\n        /* \"#utility.yul\":4361:4368   */\n      dup5\n        /* \"#utility.yul\":4352:4358   */\n      dup3\n        /* \"#utility.yul\":4341:4350   */\n      dup6\n        /* \"#utility.yul\":4337:4359   */\n      add\n        /* \"#utility.yul\":4316:4369   */\n      tag_276\n      jump\t// in\n    tag_358:\n        /* \"#utility.yul\":4306:4369   */\n      swap2\n      pop\n        /* \"#utility.yul\":4262:4379   */\n      pop\n        /* \"#utility.yul\":4057:4386   */\n      swap3\n      swap2\n      pop\n      pop\n      jump\t// out\n        /* \"#utility.yul\":4392:4518   */\n    tag_277:\n        /* \"#utility.yul\":4429:4436   */\n      0x00\n        /* \"#utility.yul\":4469:4511   */\n      0xffffffffffffffffffffffffffffffffffffffff\n        /* \"#utility.yul\":4462:4467   */\n      dup3\n        /* \"#utility.yul\":4458:4512   */\n      and\n        /* \"#utility.yul\":4447:4512   */\n      swap1\n      pop\n        /* \"#utility.yul\":4392:4518   */\n      swap2\n      swap1\n      pop\n      jump\t// out\n        /* \"#utility.yul\":4524:4620   */\n    tag_278:\n        /* \"#utility.yul\":4561:4568   */\n      0x00\n        /* \"#utility.yul\":4590:4614   */\n      tag_361\n        /* \"#utility.yul\":4608:4613   */\n      dup3\n        /* \"#utility.yul\":4590:4614   */\n      tag_277\n      jump\t// in\n    tag_361:\n        /* \"#utility.yul\":4579:4614   */\n      swap1\n      pop\n        /* \"#utility.yul\":4524:4620   */\n      swap2\n      swap1\n      pop\n      jump\t// out\n        /* \"#utility.yul\":4626:4748   */\n    tag_279:\n        /* \"#utility.yul\":4699:4723   */\n      tag_363\n        /* \"#utility.yul\":4717:4722   */\n      dup2\n        /* \"#utility.yul\":4699:4723   */\n      tag_278\n      jump\t// in\n    tag_363:\n        /* \"#utility.yul\":4692:4697   */\n      dup2\n        /* \"#utility.yul\":4689:4724   */\n      eq\n        /* \"#utility.yul\":4679:4742   */\n      tag_364\n      jumpi\n        /* \"#utility.yul\":4738:4739   */\n      0x00\n        /* \"#utility.yul\":4735:4736   */\n      dup1\n        /* \"#utility.yul\":4728:4740   */\n      revert\n        /* \"#utility.yul\":4679:4742   */\n    tag_364:\n        /* \"#utility.yul\":4626:4748   */\n      pop\n      jump\t// out\n        /* \"#utility.yul\":4754:4893   */\n    tag_280:\n        /* \"#utility.yul\":4800:4805   */\n      0x00\n        /* \"#utility.yul\":4838:4844   */\n      dup2\n        /* \"#utility.yul\":4825:4845   */\n      calldataload\n        /* \"#utility.yul\":4816:4845   */\n      swap1\n      pop\n        /* \"#utility.yul\":4854:4887   */\n      tag_366\n        /* \"#utility.yul\":4881:4886   */\n      dup2\n        /* \"#utility.yul\":4854:4887   */\n      tag_279\n      jump\t// in\n    tag_366:\n        /* \"#utility.yul\":4754:4893   */\n      swap3\n      swap2\n      pop\n      pop\n      jump\t// out\n        /* \"#utility.yul\":4899:5373   */\n    tag_52:\n        /* \"#utility.yul\":4967:4973   */\n      0x00\n        /* \"#utility.yul\":4975:4981   */\n      dup1\n        /* \"#utility.yul\":5024:5026   */\n      0x40\n        /* \"#utility.yul\":5012:5021   */\n      dup4\n        /* \"#utility.yul\":5003:5010   */\n      dup6\n        /* \"#utility.yul\":4999:5022   */\n      sub\n        /* \"#utility.yul\":4995:5027   */\n      slt\n        /* \"#utility.yul\":4992:5111   */\n      iszero\n      tag_368\n      jumpi\n        /* \"#utility.yul\":5030:5109   */\n      tag_369\n      tag_263\n      jump\t// in\n    tag_369:\n        /* \"#utility.yul\":4992:5111   */\n    tag_368:\n        /* \"#utility.yul\":5150:5151   */\n      0x00\n        /* \"#utility.yul\":5175:5228   */\n      tag_370\n        /* \"#utility.yul\":5220:5227   */\n      dup6\n        /* \"#utility.yul\":5211:5217   */\n      dup3\n        /* \"#utility.yul\":5200:5209   */\n      dup7\n        /* \"#utility.yul\":5196:5218   */\n      add\n        /* \"#utility.yul\":5175:5228   */\n      tag_272\n      jump\t// in\n    tag_370:\n        /* \"#utility.yul\":5165:5228   */\n      swap3\n      pop\n        /* \"#utility.yul\":5121:5238   */\n      pop\n        /* \"#utility.yul\":5277:5279   */\n      0x20\n        /* \"#utility.yul\":5303:5356   */\n      tag_371\n        /* \"#utility.yul\":5348:5355   */\n      dup6\n        /* \"#utility.yul\":5339:5345   */\n      dup3\n        /* \"#utility.yul\":5328:5337   */\n      dup7\n        /* \"#utility.yul\":5324:5346   */\n      add\n        /* \"#utility.yul\":5303:5356   */\n      tag_280\n      jump\t// in\n    tag_371:\n        /* \"#utility.yul\":5293:5356   */\n      swap2\n      pop\n        /* \"#utility.yul\":5248:5366   */\n      pop\n        /* \"#utility.yul\":4899:5373   */\n      swap3\n      pop\n      swap3\n      swap1\n      pop\n      jump\t// out\n        /* \"#utility.yul\":5379:5548   */\n    tag_281:\n        /* \"#utility.yul\":5519:5536   */\n      0x49434f206973206f766572203a28200000000000000000000000000000000000\n        /* \"#utility.yul\":5515:5516   */\n      0x00\n        /* \"#utility.yul\":5507:5513   */\n      dup3\n        /* \"#utility.yul\":5503:5517   */\n      add\n        /* \"#utility.yul\":5496:5537   */\n      mstore\n        /* \"#utility.yul\":5379:5548   */\n      pop\n      jump\t// out\n        /* \"#utility.yul\":5558:5940   */\n    tag_282:\n        /* \"#utility.yul\":5700:5703   */\n      0x00\n        /* \"#utility.yul\":5725:5792   */\n      tag_374\n        /* \"#utility.yul\":5789:5791   */\n      0x0f\n        /* \"#utility.yul\":5784:5787   */\n      dup4\n        /* \"#utility.yul\":5725:5792   */\n      tag_259\n      jump\t// in\n    tag_374:\n        /* \"#utility.yul\":5718:5792   */\n      swap2\n      pop\n        /* \"#utility.yul\":5805:5898   */\n      tag_375\n        /* \"#utility.yul\":5894:5897   */\n      dup3\n        /* \"#utility.yul\":5805:5898   */\n      tag_281\n      jump\t// in\n    tag_375:\n        /* \"#utility.yul\":5927:5929   */\n      0x20\n        /* \"#utility.yul\":5922:5925   */\n      dup3\n        /* \"#utility.yul\":5918:5930   */\n      add\n        /* \"#utility.yul\":5911:5930   */\n      swap1\n      pop\n        /* \"#utility.yul\":5558:5940   */\n      swap2\n      swap1\n      pop\n      jump\t// out\n        /* \"#utility.yul\":5950:6385   */\n    tag_91:\n        /* \"#utility.yul\":6116:6120   */\n      0x00\n        /* \"#utility.yul\":6158:6160   */\n      0x20\n        /* \"#utility.yul\":6147:6156   */\n      dup3\n        /* \"#utility.yul\":6143:6161   */\n      add\n        /* \"#utility.yul\":6135:6161   */\n      swap1\n      pop\n        /* \"#utility.yul\":6211:6220   */\n      dup2\n        /* \"#utility.yul\":6205:6209   */\n      dup2\n        /* \"#utility.yul\":6201:6221   */\n      sub\n        /* \"#utility.yul\":6197:6198   */\n      0x00\n        /* \"#utility.yul\":6186:6195   */\n      dup4\n        /* \"#utility.yul\":6182:6199   */\n      add\n        /* \"#utility.yul\":6175:6222   */\n      mstore\n        /* \"#utility.yul\":6243:6374   */\n      tag_377\n        /* \"#utility.yul\":6369:6373   */\n      dup2\n        /* \"#utility.yul\":6243:6374   */\n      tag_282\n      jump\t// in\n    tag_377:\n        /* \"#utility.yul\":6235:6374   */\n      swap1\n      pop\n        /* \"#utility.yul\":5950:6385   */\n      swap2\n      swap1\n      pop\n      jump\t// out\n        /* \"#utility.yul\":6395:6580   */\n    tag_283:\n        /* \"#utility.yul\":6539:6568   */\n      0x7468656d2f7468657920706c656173652073656e64206d657469730000000000\n        /* \"#utility.yul\":6535:6536   */\n      0x00\n        /* \"#utility.yul\":6527:6533   */\n      dup3\n        /* \"#utility.yul\":6523:6537   */\n      add\n        /* \"#utility.yul\":6516:6569   */\n      mstore\n        /* \"#utility.yul\":6395:6580   */\n      pop\n      jump\t// out\n        /* \"#utility.yul\":6590:6972   */\n    tag_284:\n        /* \"#utility.yul\":6732:6735   */\n      0x00\n        /* \"#utility.yul\":6757:6824   */\n      tag_380\n        /* \"#utility.yul\":6821:6823   */\n      0x1b\n        /* \"#utility.yul\":6816:6819   */\n      dup4\n        /* \"#utility.yul\":6757:6824   */\n      tag_259\n      jump\t// in\n    tag_380:\n        /* \"#utility.yul\":6750:6824   */\n      swap2\n      pop\n        /* \"#utility.yul\":6837:6930   */\n      tag_381\n        /* \"#utility.yul\":6926:6929   */\n      dup3\n        /* \"#utility.yul\":6837:6930   */\n      tag_283\n      jump\t// in\n    tag_381:\n        /* \"#utility.yul\":6959:6961   */\n      0x20\n        /* \"#utility.yul\":6954:6957   */\n      dup3\n        /* \"#utility.yul\":6950:6962   */\n      add\n        /* \"#utility.yul\":6943:6962   */\n      swap1\n      pop\n        /* \"#utility.yul\":6590:6972   */\n      swap2\n      swap1\n      pop\n      jump\t// out\n        /* \"#utility.yul\":6982:7417   */\n    tag_95:\n        /* \"#utility.yul\":7148:7152   */\n      0x00\n        /* \"#utility.yul\":7190:7192   */\n      0x20\n        /* \"#utility.yul\":7179:7188   */\n      dup3\n        /* \"#utility.yul\":7175:7193   */\n      add\n        /* \"#utility.yul\":7167:7193   */\n      swap1\n      pop\n        /* \"#utility.yul\":7243:7252   */\n      dup2\n        /* \"#utility.yul\":7237:7241   */\n      dup2\n        /* \"#utility.yul\":7233:7253   */\n      sub\n        /* \"#utility.yul\":7229:7230   */\n      0x00\n        /* \"#utility.yul\":7218:7227   */\n      dup4\n        /* \"#utility.yul\":7214:7231   */\n      add\n        /* \"#utility.yul\":7207:7254   */\n      mstore\n        /* \"#utility.yul\":7275:7406   */\n      tag_383\n        /* \"#utility.yul\":7401:7405   */\n      dup2\n        /* \"#utility.yul\":7275:7406   */\n      tag_284\n      jump\t// in\n    tag_383:\n        /* \"#utility.yul\":7267:7406   */\n      swap1\n      pop\n        /* \"#utility.yul\":6982:7417   */\n      swap2\n      swap1\n      pop\n      jump\t// out\n        /* \"#utility.yul\":7427:7623   */\n    tag_285:\n        /* \"#utility.yul\":7479:7556   */\n      0x4e487b7100000000000000000000000000000000000000000000000000000000\n        /* \"#utility.yul\":7476:7477   */\n      0x00\n        /* \"#utility.yul\":7469:7557   */\n      mstore\n        /* \"#utility.yul\":7580:7584   */\n      0x11\n        /* \"#utility.yul\":7577:7578   */\n      0x04\n        /* \"#utility.yul\":7570:7585   */\n      mstore\n        /* \"#utility.yul\":7608:7612   */\n      0x24\n        /* \"#utility.yul\":7605:7606   */\n      0x00\n        /* \"#utility.yul\":7598:7613   */\n      revert\n        /* \"#utility.yul\":7633:7844   */\n    tag_99:\n        /* \"#utility.yul\":7673:7676   */\n      0x00\n        /* \"#utility.yul\":7696:7716   */\n      tag_386\n        /* \"#utility.yul\":7714:7715   */\n      dup3\n        /* \"#utility.yul\":7696:7716   */\n      tag_274\n      jump\t// in\n    tag_386:\n        /* \"#utility.yul\":7691:7716   */\n      swap2\n      pop\n        /* \"#utility.yul\":7734:7754   */\n      tag_387\n        /* \"#utility.yul\":7752:7753   */\n      dup4\n        /* \"#utility.yul\":7734:7754   */\n      tag_274\n      jump\t// in\n    tag_387:\n        /* \"#utility.yul\":7729:7754   */\n      swap3\n      pop\n        /* \"#utility.yul\":7781:7782   */\n      dup3\n        /* \"#utility.yul\":7778:7779   */\n      dup3\n        /* \"#utility.yul\":7774:7783   */\n      add\n        /* \"#utility.yul\":7767:7783   */\n      swap1\n      pop\n        /* \"#utility.yul\":7806:7809   */\n      dup1\n        /* \"#utility.yul\":7803:7804   */\n      dup3\n        /* \"#utility.yul\":7800:7810   */\n      gt\n        /* \"#utility.yul\":7797:7833   */\n      iszero\n      tag_388\n      jumpi\n        /* \"#utility.yul\":7813:7831   */\n      tag_389\n      tag_285\n      jump\t// in\n    tag_389:\n        /* \"#utility.yul\":7797:7833   */\n    tag_388:\n        /* \"#utility.yul\":7633:7844   */\n      swap3\n      swap2\n      pop\n      pop\n      jump\t// out\n        /* \"#utility.yul\":7854:8038   */\n    tag_286:\n        /* \"#utility.yul\":7998:8026   */\n      0x657863656564732074686520746f74616c20666f722073616c65000000000000\n        /* \"#utility.yul\":7994:7995   */\n      0x00\n        /* \"#utility.yul\":7986:7992   */\n      dup3\n        /* \"#utility.yul\":7982:7996   */\n      add\n        /* \"#utility.yul\":7975:8027   */\n      mstore\n        /* \"#utility.yul\":7854:8038   */\n      pop\n      jump\t// out\n        /* \"#utility.yul\":8048:8430   */\n    tag_287:\n        /* \"#utility.yul\":8190:8193   */\n      0x00\n        /* \"#utility.yul\":8215:8282   */\n      tag_392\n        /* \"#utility.yul\":8279:8281   */\n      0x1a\n        /* \"#utility.yul\":8274:8277   */\n      dup4\n        /* \"#utility.yul\":8215:8282   */\n      tag_259\n      jump\t// in\n    tag_392:\n        /* \"#utility.yul\":8208:8282   */\n      swap2\n      pop\n        /* \"#utility.yul\":8295:8388   */\n      tag_393\n        /* \"#utility.yul\":8384:8387   */\n      dup3\n        /* \"#utility.yul\":8295:8388   */\n      tag_286\n      jump\t// in\n    tag_393:\n        /* \"#utility.yul\":8417:8419   */\n      0x20\n        /* \"#utility.yul\":8412:8415   */\n      dup3\n        /* \"#utility.yul\":8408:8420   */\n      add\n        /* \"#utility.yul\":8401:8420   */\n      swap1\n      pop\n        /* \"#utility.yul\":8048:8430   */\n      swap2\n      swap1\n      pop\n      jump\t// out\n        /* \"#utility.yul\":8440:8875   */\n    tag_102:\n        /* \"#utility.yul\":8606:8610   */\n      0x00\n        /* \"#utility.yul\":8648:8650   */\n      0x20\n        /* \"#utility.yul\":8637:8646   */\n      dup3\n        /* \"#utility.yul\":8633:8651   */\n      add\n        /* \"#utility.yul\":8625:8651   */\n      swap1\n      pop\n        /* \"#utility.yul\":8701:8710   */\n      dup2\n        /* \"#utility.yul\":8695:8699   */\n      dup2\n        /* \"#utility.yul\":8691:8711   */\n      sub\n        /* \"#utility.yul\":8687:8688   */\n      0x00\n        /* \"#utility.yul\":8676:8685   */\n      dup4\n        /* \"#utility.yul\":8672:8689   */\n      add\n        /* \"#utility.yul\":8665:8712   */\n      mstore\n        /* \"#utility.yul\":8733:8864   */\n      tag_395\n        /* \"#utility.yul\":8859:8863   */\n      dup2\n        /* \"#utility.yul\":8733:8864   */\n      tag_287\n      jump\t// in\n    tag_395:\n        /* \"#utility.yul\":8725:8864   */\n      swap1\n      pop\n        /* \"#utility.yul\":8440:8875   */\n      swap2\n      swap1\n      pop\n      jump\t// out\n        /* \"#utility.yul\":8885:9011   */\n    tag_288:\n        /* \"#utility.yul\":8976:9000   */\n      tag_397\n        /* \"#utility.yul\":8994:8999   */\n      dup2\n        /* \"#utility.yul\":8976:9000   */\n      tag_278\n      jump\t// in\n    tag_397:\n        /* \"#utility.yul\":8971:8974   */\n      dup3\n        /* \"#utility.yul\":8964:9001   */\n      mstore\n        /* \"#utility.yul\":8885:9011   */\n      pop\n      pop\n      jump\t// out\n        /* \"#utility.yul\":9021:9147   */\n    tag_289:\n        /* \"#utility.yul\":9112:9136   */\n      tag_399\n        /* \"#utility.yul\":9130:9135   */\n      dup2\n        /* \"#utility.yul\":9112:9136   */\n      tag_274\n      jump\t// in\n    tag_399:\n        /* \"#utility.yul\":9107:9110   */\n      dup3\n        /* \"#utility.yul\":9100:9137   */\n      mstore\n        /* \"#utility.yul\":9021:9147   */\n      pop\n      pop\n      jump\t// out\n        /* \"#utility.yul\":9157:9505   */\n    tag_104:\n        /* \"#utility.yul\":9278:9282   */\n      0x00\n        /* \"#utility.yul\":9320:9322   */\n      0x40\n        /* \"#utility.yul\":9309:9318   */\n      dup3\n        /* \"#utility.yul\":9305:9323   */\n      add\n        /* \"#utility.yul\":9297:9323   */\n      swap1\n      pop\n        /* \"#utility.yul\":9337:9408   */\n      tag_401\n        /* \"#utility.yul\":9405:9406   */\n      0x00\n        /* \"#utility.yul\":9394:9403   */\n      dup4\n        /* \"#utility.yul\":9390:9407   */\n      add\n        /* \"#utility.yul\":9381:9387   */\n      dup6\n        /* \"#utility.yul\":9337:9408   */\n      tag_288\n      jump\t// in\n    tag_401:\n        /* \"#utility.yul\":9422:9494   */\n      tag_402\n        /* \"#utility.yul\":9490:9492   */\n      0x20\n        /* \"#utility.yul\":9479:9488   */\n      dup4\n        /* \"#utility.yul\":9475:9493   */\n      add\n        /* \"#utility.yul\":9466:9472   */\n      dup5\n        /* \"#utility.yul\":9422:9494   */\n      tag_289\n      jump\t// in\n    tag_402:\n        /* \"#utility.yul\":9157:9505   */\n      swap4\n      swap3\n      pop\n      pop\n      pop\n      jump\t// out\n        /* \"#utility.yul\":9515:9639   */\n    tag_290:\n        /* \"#utility.yul\":9589:9610   */\n      tag_404\n        /* \"#utility.yul\":9604:9609   */\n      dup2\n        /* \"#utility.yul\":9589:9610   */\n      tag_268\n      jump\t// in\n    tag_404:\n        /* \"#utility.yul\":9582:9587   */\n      dup2\n        /* \"#utility.yul\":9579:9611   */\n      eq\n        /* \"#utility.yul\":9569:9629   */\n      tag_405\n      jumpi\n        /* \"#utility.yul\":9625:9626   */\n      0x00\n        /* \"#utility.yul\":9622:9623   */\n      dup1\n        /* \"#utility.yul\":9615:9627   */\n      revert\n        /* \"#utility.yul\":9569:9629   */\n    tag_405:\n        /* \"#utility.yul\":9515:9639   */\n      pop\n      jump\t// out\n        /* \"#utility.yul\":9649:9798   */\n    tag_291:\n        /* \"#utility.yul\":9703:9708   */\n      0x00\n        /* \"#utility.yul\":9738:9744   */\n      dup2\n        /* \"#utility.yul\":9732:9745   */\n      mload\n        /* \"#utility.yul\":9723:9745   */\n      swap1\n      pop\n        /* \"#utility.yul\":9758:9788   */\n      tag_407\n        /* \"#utility.yul\":9782:9787   */\n      dup2\n        /* \"#utility.yul\":9758:9788   */\n      tag_290\n      jump\t// in\n    tag_407:\n        /* \"#utility.yul\":9649:9798   */\n      swap3\n      swap2\n      pop\n      pop\n      jump\t// out\n        /* \"#utility.yul\":9808:10177   */\n    tag_108:\n        /* \"#utility.yul\":9875:9881   */\n      0x00\n        /* \"#utility.yul\":9928:9930   */\n      0x20\n        /* \"#utility.yul\":9916:9925   */\n      dup3\n        /* \"#utility.yul\":9907:9914   */\n      dup5\n        /* \"#utility.yul\":9903:9926   */\n      sub\n        /* \"#utility.yul\":9899:9931   */\n      slt\n        /* \"#utility.yul\":9896:10015   */\n      iszero\n      tag_409\n      jumpi\n        /* \"#utility.yul\":9934:10013   */\n      tag_410\n      tag_263\n      jump\t// in\n    tag_410:\n        /* \"#utility.yul\":9896:10015   */\n    tag_409:\n        /* \"#utility.yul\":10062:10063   */\n      0x00\n        /* \"#utility.yul\":10091:10152   */\n      tag_411\n        /* \"#utility.yul\":10144:10151   */\n      dup5\n        /* \"#utility.yul\":10135:10141   */\n      dup3\n        /* \"#utility.yul\":10124:10133   */\n      dup6\n        /* \"#utility.yul\":10120:10142   */\n      add\n        /* \"#utility.yul\":10091:10152   */\n      tag_291\n      jump\t// in\n    tag_411:\n        /* \"#utility.yul\":10081:10152   */\n      swap2\n      pop\n        /* \"#utility.yul\":10029:10166   */\n      pop\n        /* \"#utility.yul\":9808:10177   */\n      swap3\n      swap2\n      pop\n      pop\n      jump\t// out\n        /* \"#utility.yul\":10187:10421   */\n    tag_115:\n        /* \"#utility.yul\":10280:10284   */\n      0x00\n        /* \"#utility.yul\":10322:10324   */\n      0x20\n        /* \"#utility.yul\":10311:10320   */\n      dup3\n        /* \"#utility.yul\":10307:10325   */\n      add\n        /* \"#utility.yul\":10299:10325   */\n      swap1\n      pop\n        /* \"#utility.yul\":10339:10410   */\n      tag_413\n        /* \"#utility.yul\":10407:10408   */\n      0x00\n        /* \"#utility.yul\":10396:10405   */\n      dup4\n        /* \"#utility.yul\":10392:10409   */\n      add\n        /* \"#utility.yul\":10383:10389   */\n      dup5\n        /* \"#utility.yul\":10339:10410   */\n      tag_289\n      jump\t// in\n    tag_413:\n        /* \"#utility.yul\":10187:10421   */\n      swap3\n      swap2\n      pop\n      pop\n      jump\t// out\n        /* \"#utility.yul\":10431:10889   */\n    tag_126:\n        /* \"#utility.yul\":10471:10478   */\n      0x00\n        /* \"#utility.yul\":10498:10518   */\n      tag_415\n        /* \"#utility.yul\":10516:10517   */\n      dup3\n        /* \"#utility.yul\":10498:10518   */\n      tag_274\n      jump\t// in\n    tag_415:\n        /* \"#utility.yul\":10493:10518   */\n      swap2\n      pop\n        /* \"#utility.yul\":10536:10556   */\n      tag_416\n        /* \"#utility.yul\":10554:10555   */\n      dup4\n        /* \"#utility.yul\":10536:10556   */\n      tag_274\n      jump\t// in\n    tag_416:\n        /* \"#utility.yul\":10531:10556   */\n      swap3\n      pop\n        /* \"#utility.yul\":10595:10596   */\n      dup3\n        /* \"#utility.yul\":10592:10593   */\n      dup3\n        /* \"#utility.yul\":10588:10597   */\n      mul\n        /* \"#utility.yul\":10621:10651   */\n      tag_417\n        /* \"#utility.yul\":10639:10650   */\n      dup2\n        /* \"#utility.yul\":10621:10651   */\n      tag_274\n      jump\t// in\n    tag_417:\n        /* \"#utility.yul\":10610:10651   */\n      swap2\n      pop\n        /* \"#utility.yul\":10820:10821   */\n      dup3\n        /* \"#utility.yul\":10811:10818   */\n      dup3\n        /* \"#utility.yul\":10807:10822   */\n      div\n        /* \"#utility.yul\":10804:10805   */\n      dup5\n        /* \"#utility.yul\":10801:10823   */\n      eq\n        /* \"#utility.yul\":10777:10778   */\n      dup4\n        /* \"#utility.yul\":10770:10779   */\n      iszero\n        /* \"#utility.yul\":10746:10841   */\n      or\n        /* \"#utility.yul\":10719:10878   */\n      tag_418\n      jumpi\n        /* \"#utility.yul\":10858:10876   */\n      tag_419\n      tag_285\n      jump\t// in\n    tag_419:\n        /* \"#utility.yul\":10719:10878   */\n    tag_418:\n        /* \"#utility.yul\":10479:10889   */\n      pop\n        /* \"#utility.yul\":10431:10889   */\n      swap3\n      swap2\n      pop\n      pop\n      jump\t// out\n        /* \"#utility.yul\":10899:11145   */\n    tag_292:\n        /* \"#utility.yul\":11043:11077   */\n      0x416363657373436f6e74726f6c3a2063616e206f6e6c792072656e6f756e6365\n        /* \"#utility.yul\":11039:11040   */\n      0x00\n        /* \"#utility.yul\":11031:11037   */\n      dup3\n        /* \"#utility.yul\":11027:11041   */\n      add\n        /* \"#utility.yul\":11020:11078   */\n      mstore\n        /* \"#utility.yul\":11116:11133   */\n      0x20726f6c657320666f722073656c660000000000000000000000000000000000\n        /* \"#utility.yul\":11111:11113   */\n      0x20\n        /* \"#utility.yul\":11103:11109   */\n      dup3\n        /* \"#utility.yul\":11099:11114   */\n      add\n        /* \"#utility.yul\":11092:11134   */\n      mstore\n        /* \"#utility.yul\":10899:11145   */\n      pop\n      jump\t// out\n        /* \"#utility.yul\":11155:11537   */\n    tag_293:\n        /* \"#utility.yul\":11297:11300   */\n      0x00\n        /* \"#utility.yul\":11322:11389   */\n      tag_422\n        /* \"#utility.yul\":11386:11388   */\n      0x2f\n        /* \"#utility.yul\":11381:11384   */\n      dup4\n        /* \"#utility.yul\":11322:11389   */\n      tag_259\n      jump\t// in\n    tag_422:\n        /* \"#utility.yul\":11315:11389   */\n      swap2\n      pop\n        /* \"#utility.yul\":11402:11495   */\n      tag_423\n        /* \"#utility.yul\":11491:11494   */\n      dup3\n        /* \"#utility.yul\":11402:11495   */\n      tag_292\n      jump\t// in\n    tag_423:\n        /* \"#utility.yul\":11524:11526   */\n      0x40\n        /* \"#utility.yul\":11519:11522   */\n      dup3\n        /* \"#utility.yul\":11515:11527   */\n      add\n        /* \"#utility.yul\":11508:11527   */\n      swap1\n      pop\n        /* \"#utility.yul\":11155:11537   */\n      swap2\n      swap1\n      pop\n      jump\t// out\n        /* \"#utility.yul\":11547:11982   */\n    tag_162:\n        /* \"#utility.yul\":11713:11717   */\n      0x00\n        /* \"#utility.yul\":11755:11757   */\n      0x20\n        /* \"#utility.yul\":11744:11753   */\n      dup3\n        /* \"#utility.yul\":11740:11758   */\n      add\n        /* \"#utility.yul\":11732:11758   */\n      swap1\n      pop\n        /* \"#utility.yul\":11808:11817   */\n      dup2\n        /* \"#utility.yul\":11802:11806   */\n      dup2\n        /* \"#utility.yul\":11798:11818   */\n      sub\n        /* \"#utility.yul\":11794:11795   */\n      0x00\n        /* \"#utility.yul\":11783:11792   */\n      dup4\n        /* \"#utility.yul\":11779:11796   */\n      add\n        /* \"#utility.yul\":11772:11819   */\n      mstore\n        /* \"#utility.yul\":11840:11971   */\n      tag_425\n        /* \"#utility.yul\":11966:11970   */\n      dup2\n        /* \"#utility.yul\":11840:11971   */\n      tag_293\n      jump\t// in\n    tag_425:\n        /* \"#utility.yul\":11832:11971   */\n      swap1\n      pop\n        /* \"#utility.yul\":11547:11982   */\n      swap2\n      swap1\n      pop\n      jump\t// out\n        /* \"#utility.yul\":11992:12178   */\n    tag_294:\n        /* \"#utility.yul\":12136:12166   */\n      0x74686520737570706c7920697320616c7265616479206275726e656400000000\n        /* \"#utility.yul\":12132:12133   */\n      0x00\n        /* \"#utility.yul\":12124:12130   */\n      dup3\n        /* \"#utility.yul\":12120:12134   */\n      add\n        /* \"#utility.yul\":12113:12167   */\n      mstore\n        /* \"#utility.yul\":11992:12178   */\n      pop\n      jump\t// out\n        /* \"#utility.yul\":12188:12570   */\n    tag_295:\n        /* \"#utility.yul\":12330:12333   */\n      0x00\n        /* \"#utility.yul\":12355:12422   */\n      tag_428\n        /* \"#utility.yul\":12419:12421   */\n      0x1c\n        /* \"#utility.yul\":12414:12417   */\n      dup4\n        /* \"#utility.yul\":12355:12422   */\n      tag_259\n      jump\t// in\n    tag_428:\n        /* \"#utility.yul\":12348:12422   */\n      swap2\n      pop\n        /* \"#utility.yul\":12435:12528   */\n      tag_429\n        /* \"#utility.yul\":12524:12527   */\n      dup3\n        /* \"#utility.yul\":12435:12528   */\n      tag_294\n      jump\t// in\n    tag_429:\n        /* \"#utility.yul\":12557:12559   */\n      0x20\n        /* \"#utility.yul\":12552:12555   */\n      dup3\n        /* \"#utility.yul\":12548:12560   */\n      add\n        /* \"#utility.yul\":12541:12560   */\n      swap1\n      pop\n        /* \"#utility.yul\":12188:12570   */\n      swap2\n      swap1\n      pop\n      jump\t// out\n        /* \"#utility.yul\":12580:13015   */\n    tag_173:\n        /* \"#utility.yul\":12746:12750   */\n      0x00\n        /* \"#utility.yul\":12788:12790   */\n      0x20\n        /* \"#utility.yul\":12777:12786   */\n      dup3\n        /* \"#utility.yul\":12773:12791   */\n      add\n        /* \"#utility.yul\":12765:12791   */\n      swap1\n      pop\n        /* \"#utility.yul\":12841:12850   */\n      dup2\n        /* \"#utility.yul\":12835:12839   */\n      dup2\n        /* \"#utility.yul\":12831:12851   */\n      sub\n        /* \"#utility.yul\":12827:12828   */\n      0x00\n        /* \"#utility.yul\":12816:12825   */\n      dup4\n        /* \"#utility.yul\":12812:12829   */\n      add\n        /* \"#utility.yul\":12805:12852   */\n      mstore\n        /* \"#utility.yul\":12873:13004   */\n      tag_431\n        /* \"#utility.yul\":12999:13003   */\n      dup2\n        /* \"#utility.yul\":12873:13004   */\n      tag_295\n      jump\t// in\n    tag_431:\n        /* \"#utility.yul\":12865:13004   */\n      swap1\n      pop\n        /* \"#utility.yul\":12580:13015   */\n      swap2\n      swap1\n      pop\n      jump\t// out\n        /* \"#utility.yul\":13025:13239   */\n    tag_211:\n        /* \"#utility.yul\":13065:13069   */\n      0x00\n        /* \"#utility.yul\":13089:13109   */\n      tag_433\n        /* \"#utility.yul\":13107:13108   */\n      dup3\n        /* \"#utility.yul\":13089:13109   */\n      tag_274\n      jump\t// in\n    tag_433:\n        /* \"#utility.yul\":13084:13109   */\n      swap2\n      pop\n        /* \"#utility.yul\":13127:13147   */\n      tag_434\n        /* \"#utility.yul\":13145:13146   */\n      dup4\n        /* \"#utility.yul\":13127:13147   */\n      tag_274\n      jump\t// in\n    tag_434:\n        /* \"#utility.yul\":13122:13147   */\n      swap3\n      pop\n        /* \"#utility.yul\":13175:13176   */\n      dup3\n        /* \"#utility.yul\":13172:13173   */\n      dup3\n        /* \"#utility.yul\":13168:13177   */\n      sub\n        /* \"#utility.yul\":13160:13177   */\n      swap1\n      pop\n        /* \"#utility.yul\":13203:13204   */\n      dup2\n        /* \"#utility.yul\":13197:13201   */\n      dup2\n        /* \"#utility.yul\":13194:13205   */\n      gt\n        /* \"#utility.yul\":13191:13228   */\n      iszero\n      tag_435\n      jumpi\n        /* \"#utility.yul\":13208:13226   */\n      tag_436\n      tag_285\n      jump\t// in\n    tag_436:\n        /* \"#utility.yul\":13191:13228   */\n    tag_435:\n        /* \"#utility.yul\":13025:13239   */\n      swap3\n      swap2\n      pop\n      pop\n      jump\t// out\n        /* \"#utility.yul\":13249:13405   */\n    tag_296:\n        /* \"#utility.yul\":13351:13362   */\n      0x00\n        /* \"#utility.yul\":13392:13395   */\n      dup2\n        /* \"#utility.yul\":13377:13395   */\n      swap1\n      pop\n        /* \"#utility.yul\":13249:13405   */\n      swap3\n      swap2\n      pop\n      pop\n      jump\t// out\n        /* \"#utility.yul\":13415:13596   */\n    tag_297:\n        /* \"#utility.yul\":13559:13584   */\n      0x416363657373436f6e74726f6c3a206163636f756e7420000000000000000000\n        /* \"#utility.yul\":13555:13556   */\n      0x00\n        /* \"#utility.yul\":13547:13553   */\n      dup3\n        /* \"#utility.yul\":13543:13557   */\n      add\n        /* \"#utility.yul\":13536:13585   */\n      mstore\n        /* \"#utility.yul\":13415:13596   */\n      pop\n      jump\t// out\n        /* \"#utility.yul\":13606:14024   */\n    tag_298:\n        /* \"#utility.yul\":13766:13769   */\n      0x00\n        /* \"#utility.yul\":13791:13876   */\n      tag_440\n        /* \"#utility.yul\":13873:13875   */\n      0x17\n        /* \"#utility.yul\":13868:13871   */\n      dup4\n        /* \"#utility.yul\":13791:13876   */\n      tag_296\n      jump\t// in\n    tag_440:\n        /* \"#utility.yul\":13784:13876   */\n      swap2\n      pop\n        /* \"#utility.yul\":13889:13982   */\n      tag_441\n        /* \"#utility.yul\":13978:13981   */\n      dup3\n        /* \"#utility.yul\":13889:13982   */\n      tag_297\n      jump\t// in\n    tag_441:\n        /* \"#utility.yul\":14011:14013   */\n      0x17\n        /* \"#utility.yul\":14006:14009   */\n      dup3\n        /* \"#utility.yul\":14002:14014   */\n      add\n        /* \"#utility.yul\":13995:14014   */\n      swap1\n      pop\n        /* \"#utility.yul\":13606:14024   */\n      swap2\n      swap1\n      pop\n      jump\t// out\n        /* \"#utility.yul\":14034:14141   */\n    tag_299:\n        /* \"#utility.yul\":14086:14092   */\n      0x00\n        /* \"#utility.yul\":14124:14129   */\n      dup2\n        /* \"#utility.yul\":14118:14130   */\n      mload\n        /* \"#utility.yul\":14108:14130   */\n      swap1\n      pop\n        /* \"#utility.yul\":14034:14141   */\n      swap2\n      swap1\n      pop\n      jump\t// out\n        /* \"#utility.yul\":14151:14425   */\n    tag_300:\n        /* \"#utility.yul\":14236:14237   */\n      0x00\n        /* \"#utility.yul\":14250:14375   */\n    tag_444:\n        /* \"#utility.yul\":14264:14270   */\n      dup4\n        /* \"#utility.yul\":14261:14262   */\n      dup2\n        /* \"#utility.yul\":14258:14271   */\n      lt\n        /* \"#utility.yul\":14250:14375   */\n      iszero\n      tag_446\n      jumpi\n        /* \"#utility.yul\":14357:14358   */\n      dup1\n        /* \"#utility.yul\":14352:14355   */\n      dup3\n        /* \"#utility.yul\":14348:14359   */\n      add\n        /* \"#utility.yul\":14342:14360   */\n      mload\n        /* \"#utility.yul\":14338:14339   */\n      dup2\n        /* \"#utility.yul\":14333:14336   */\n      dup5\n        /* \"#utility.yul\":14329:14340   */\n      add\n        /* \"#utility.yul\":14322:14361   */\n      mstore\n        /* \"#utility.yul\":14286:14288   */\n      0x20\n        /* \"#utility.yul\":14283:14284   */\n      dup2\n        /* \"#utility.yul\":14279:14289   */\n      add\n        /* \"#utility.yul\":14274:14289   */\n      swap1\n      pop\n        /* \"#utility.yul\":14250:14375   */\n      jump(tag_444)\n    tag_446:\n        /* \"#utility.yul\":14413:14414   */\n      0x00\n        /* \"#utility.yul\":14404:14410   */\n      dup5\n        /* \"#utility.yul\":14399:14402   */\n      dup5\n        /* \"#utility.yul\":14395:14411   */\n      add\n        /* \"#utility.yul\":14388:14415   */\n      mstore\n        /* \"#utility.yul\":14213:14425   */\n      pop\n        /* \"#utility.yul\":14151:14425   */\n      pop\n      pop\n      pop\n      jump\t// out\n        /* \"#utility.yul\":14435:14845   */\n    tag_301:\n        /* \"#utility.yul\":14541:14544   */\n      0x00\n        /* \"#utility.yul\":14573:14612   */\n      tag_448\n        /* \"#utility.yul\":14606:14611   */\n      dup3\n        /* \"#utility.yul\":14573:14612   */\n      tag_299\n      jump\t// in\n    tag_448:\n        /* \"#utility.yul\":14632:14721   */\n      tag_449\n        /* \"#utility.yul\":14714:14720   */\n      dup2\n        /* \"#utility.yul\":14709:14712   */\n      dup6\n        /* \"#utility.yul\":14632:14721   */\n      tag_296\n      jump\t// in\n    tag_449:\n        /* \"#utility.yul\":14625:14721   */\n      swap4\n      pop\n        /* \"#utility.yul\":14734:14799   */\n      tag_450\n        /* \"#utility.yul\":14792:14798   */\n      dup2\n        /* \"#utility.yul\":14787:14790   */\n      dup6\n        /* \"#utility.yul\":14780:14784   */\n      0x20\n        /* \"#utility.yul\":14773:14778   */\n      dup7\n        /* \"#utility.yul\":14769:14785   */\n      add\n        /* \"#utility.yul\":14734:14799   */\n      tag_300\n      jump\t// in\n    tag_450:\n        /* \"#utility.yul\":14828:14834   */\n      dup1\n        /* \"#utility.yul\":14823:14826   */\n      dup5\n        /* \"#utility.yul\":14819:14835   */\n      add\n        /* \"#utility.yul\":14812:14835   */\n      swap2\n      pop\n        /* \"#utility.yul\":14545:14845   */\n      pop\n        /* \"#utility.yul\":14435:14845   */\n      swap3\n      swap2\n      pop\n      pop\n      jump\t// out\n        /* \"#utility.yul\":14855:15030   */\n    tag_302:\n        /* \"#utility.yul\":14999:15018   */\n      0x206973206d697373696e6720726f6c6520000000000000000000000000000000\n        /* \"#utility.yul\":14995:14996   */\n      0x00\n        /* \"#utility.yul\":14987:14993   */\n      dup3\n        /* \"#utility.yul\":14983:14997   */\n      add\n        /* \"#utility.yul\":14976:15019   */\n      mstore\n        /* \"#utility.yul\":14855:15030   */\n      pop\n      jump\t// out\n        /* \"#utility.yul\":15040:15458   */\n    tag_303:\n        /* \"#utility.yul\":15200:15203   */\n      0x00\n        /* \"#utility.yul\":15225:15310   */\n      tag_453\n        /* \"#utility.yul\":15307:15309   */\n      0x11\n        /* \"#utility.yul\":15302:15305   */\n      dup4\n        /* \"#utility.yul\":15225:15310   */\n      tag_296\n      jump\t// in\n    tag_453:\n        /* \"#utility.yul\":15218:15310   */\n      swap2\n      pop\n        /* \"#utility.yul\":15323:15416   */\n      tag_454\n        /* \"#utility.yul\":15412:15415   */\n      dup3\n        /* \"#utility.yul\":15323:15416   */\n      tag_302\n      jump\t// in\n    tag_454:\n        /* \"#utility.yul\":15445:15447   */\n      0x11\n        /* \"#utility.yul\":15440:15443   */\n      dup3\n        /* \"#utility.yul\":15436:15448   */\n      add\n        /* \"#utility.yul\":15429:15448   */\n      swap1\n      pop\n        /* \"#utility.yul\":15040:15458   */\n      swap2\n      swap1\n      pop\n      jump\t// out\n        /* \"#utility.yul\":15468:16459   */\n    tag_222:\n        /* \"#utility.yul\":15850:15853   */\n      0x00\n        /* \"#utility.yul\":15876:16024   */\n      tag_456\n        /* \"#utility.yul\":16020:16023   */\n      dup3\n        /* \"#utility.yul\":15876:16024   */\n      tag_298\n      jump\t// in\n    tag_456:\n        /* \"#utility.yul\":15869:16024   */\n      swap2\n      pop\n        /* \"#utility.yul\":16045:16140   */\n      tag_457\n        /* \"#utility.yul\":16136:16139   */\n      dup3\n        /* \"#utility.yul\":16127:16133   */\n      dup6\n        /* \"#utility.yul\":16045:16140   */\n      tag_301\n      jump\t// in\n    tag_457:\n        /* \"#utility.yul\":16038:16140   */\n      swap2\n      pop\n        /* \"#utility.yul\":16161:16309   */\n      tag_458\n        /* \"#utility.yul\":16305:16308   */\n      dup3\n        /* \"#utility.yul\":16161:16309   */\n      tag_303\n      jump\t// in\n    tag_458:\n        /* \"#utility.yul\":16154:16309   */\n      swap2\n      pop\n        /* \"#utility.yul\":16330:16425   */\n      tag_459\n        /* \"#utility.yul\":16421:16424   */\n      dup3\n        /* \"#utility.yul\":16412:16418   */\n      dup5\n        /* \"#utility.yul\":16330:16425   */\n      tag_301\n      jump\t// in\n    tag_459:\n        /* \"#utility.yul\":16323:16425   */\n      swap2\n      pop\n        /* \"#utility.yul\":16446:16449   */\n      dup2\n        /* \"#utility.yul\":16439:16449   */\n      swap1\n      pop\n        /* \"#utility.yul\":15468:16459   */\n      swap4\n      swap3\n      pop\n      pop\n      pop\n      jump\t// out\n        /* \"#utility.yul\":16469:16579   */\n    tag_304:\n        /* \"#utility.yul\":16510:16516   */\n      0x00\n        /* \"#utility.yul\":16565:16567   */\n      0x1f\n        /* \"#utility.yul\":16561:16568   */\n      not\n        /* \"#utility.yul\":16556:16558   */\n      0x1f\n        /* \"#utility.yul\":16549:16554   */\n      dup4\n        /* \"#utility.yul\":16545:16559   */\n      add\n        /* \"#utility.yul\":16541:16569   */\n      and\n        /* \"#utility.yul\":16531:16569   */\n      swap1\n      pop\n        /* \"#utility.yul\":16469:16579   */\n      swap2\n      swap1\n      pop\n      jump\t// out\n        /* \"#utility.yul\":16589:16986   */\n    tag_305:\n        /* \"#utility.yul\":16677:16680   */\n      0x00\n        /* \"#utility.yul\":16709:16748   */\n      tag_462\n        /* \"#utility.yul\":16742:16747   */\n      dup3\n        /* \"#utility.yul\":16709:16748   */\n      tag_299\n      jump\t// in\n    tag_462:\n        /* \"#utility.yul\":16768:16839   */\n      tag_463\n        /* \"#utility.yul\":16832:16838   */\n      dup2\n        /* \"#utility.yul\":16827:16830   */\n      dup6\n        /* \"#utility.yul\":16768:16839   */\n      tag_259\n      jump\t// in\n    tag_463:\n        /* \"#utility.yul\":16761:16839   */\n      swap4\n      pop\n        /* \"#utility.yul\":16852:16917   */\n      tag_464\n        /* \"#utility.yul\":16910:16916   */\n      dup2\n        /* \"#utility.yul\":16905:16908   */\n      dup6\n        /* \"#utility.yul\":16898:16902   */\n      0x20\n        /* \"#utility.yul\":16891:16896   */\n      dup7\n        /* \"#utility.yul\":16887:16903   */\n      add\n        /* \"#utility.yul\":16852:16917   */\n      tag_300\n      jump\t// in\n    tag_464:\n        /* \"#utility.yul\":16946:16975   */\n      tag_465\n        /* \"#utility.yul\":16968:16974   */\n      dup2\n        /* \"#utility.yul\":16946:16975   */\n      tag_304\n      jump\t// in\n    tag_465:\n        /* \"#utility.yul\":16941:16944   */\n      dup5\n        /* \"#utility.yul\":16937:16976   */\n      add\n        /* \"#utility.yul\":16930:16976   */\n      swap2\n      pop\n        /* \"#utility.yul\":16681:16986   */\n      pop\n        /* \"#utility.yul\":16589:16986   */\n      swap3\n      swap2\n      pop\n      pop\n      jump\t// out\n        /* \"#utility.yul\":16996:17325   */\n    tag_224:\n        /* \"#utility.yul\":17109:17113   */\n      0x00\n        /* \"#utility.yul\":17151:17153   */\n      0x20\n        /* \"#utility.yul\":17140:17149   */\n      dup3\n        /* \"#utility.yul\":17136:17154   */\n      add\n        /* \"#utility.yul\":17128:17154   */\n      swap1\n      pop\n        /* \"#utility.yul\":17204:17213   */\n      dup2\n        /* \"#utility.yul\":17198:17202   */\n      dup2\n        /* \"#utility.yul\":17194:17214   */\n      sub\n        /* \"#utility.yul\":17190:17191   */\n      0x00\n        /* \"#utility.yul\":17179:17188   */\n      dup4\n        /* \"#utility.yul\":17175:17192   */\n      add\n        /* \"#utility.yul\":17168:17215   */\n      mstore\n        /* \"#utility.yul\":17236:17314   */\n      tag_467\n        /* \"#utility.yul\":17309:17313   */\n      dup2\n        /* \"#utility.yul\":17300:17306   */\n      dup5\n        /* \"#utility.yul\":17236:17314   */\n      tag_305\n      jump\t// in\n    tag_467:\n        /* \"#utility.yul\":17228:17314   */\n      swap1\n      pop\n        /* \"#utility.yul\":16996:17325   */\n      swap3\n      swap2\n      pop\n      pop\n      jump\t// out\n        /* \"#utility.yul\":17335:17531   */\n    tag_235:\n        /* \"#utility.yul\":17387:17464   */\n      0x4e487b7100000000000000000000000000000000000000000000000000000000\n        /* \"#utility.yul\":17384:17385   */\n      0x00\n        /* \"#utility.yul\":17377:17465   */\n      mstore\n        /* \"#utility.yul\":17488:17492   */\n      0x41\n        /* \"#utility.yul\":17485:17486   */\n      0x04\n        /* \"#utility.yul\":17478:17493   */\n      mstore\n        /* \"#utility.yul\":17516:17520   */\n      0x24\n        /* \"#utility.yul\":17513:17514   */\n      0x00\n        /* \"#utility.yul\":17506:17521   */\n      revert\n        /* \"#utility.yul\":17541:17737   */\n    tag_239:\n        /* \"#utility.yul\":17593:17670   */\n      0x4e487b7100000000000000000000000000000000000000000000000000000000\n        /* \"#utility.yul\":17590:17591   */\n      0x00\n        /* \"#utility.yul\":17583:17671   */\n      mstore\n        /* \"#utility.yul\":17694:17698   */\n      0x32\n        /* \"#utility.yul\":17691:17692   */\n      0x04\n        /* \"#utility.yul\":17684:17699   */\n      mstore\n        /* \"#utility.yul\":17722:17726   */\n      0x24\n        /* \"#utility.yul\":17719:17720   */\n      0x00\n        /* \"#utility.yul\":17712:17727   */\n      revert\n        /* \"#utility.yul\":17747:17934   */\n    tag_252:\n        /* \"#utility.yul\":17786:17789   */\n      0x00\n        /* \"#utility.yul\":17813:17837   */\n      tag_471\n        /* \"#utility.yul\":17831:17836   */\n      dup3\n        /* \"#utility.yul\":17813:17837   */\n      tag_274\n      jump\t// in\n    tag_471:\n        /* \"#utility.yul\":17804:17837   */\n      swap2\n      pop\n        /* \"#utility.yul\":17863:17867   */\n      0x00\n        /* \"#utility.yul\":17856:17861   */\n      dup3\n        /* \"#utility.yul\":17853:17868   */\n      sub\n        /* \"#utility.yul\":17850:17891   */\n      tag_472\n      jumpi\n        /* \"#utility.yul\":17871:17889   */\n      tag_473\n      tag_285\n      jump\t// in\n    tag_473:\n        /* \"#utility.yul\":17850:17891   */\n    tag_472:\n        /* \"#utility.yul\":17922:17923   */\n      0x01\n        /* \"#utility.yul\":17915:17920   */\n      dup3\n        /* \"#utility.yul\":17911:17924   */\n      sub\n        /* \"#utility.yul\":17904:17924   */\n      swap1\n      pop\n        /* \"#utility.yul\":17747:17934   */\n      swap2\n      swap1\n      pop\n      jump\t// out\n        /* \"#utility.yul\":17944:18134   */\n    tag_306:\n        /* \"#utility.yul\":18088:18122   */\n      0x537472696e67733a20686578206c656e67746820696e73756666696369656e74\n        /* \"#utility.yul\":18084:18085   */\n      0x00\n        /* \"#utility.yul\":18076:18082   */\n      dup3\n        /* \"#utility.yul\":18072:18086   */\n      add\n        /* \"#utility.yul\":18065:18123   */\n      mstore\n        /* \"#utility.yul\":17944:18134   */\n      pop\n      jump\t// out\n        /* \"#utility.yul\":18144:18526   */\n    tag_307:\n        /* \"#utility.yul\":18286:18289   */\n      0x00\n        /* \"#utility.yul\":18311:18378   */\n      tag_476\n        /* \"#utility.yul\":18375:18377   */\n      0x20\n        /* \"#utility.yul\":18370:18373   */\n      dup4\n        /* \"#utility.yul\":18311:18378   */\n      tag_259\n      jump\t// in\n    tag_476:\n        /* \"#utility.yul\":18304:18378   */\n      swap2\n      pop\n        /* \"#utility.yul\":18391:18484   */\n      tag_477\n        /* \"#utility.yul\":18480:18483   */\n      dup3\n        /* \"#utility.yul\":18391:18484   */\n      tag_306\n      jump\t// in\n    tag_477:\n        /* \"#utility.yul\":18513:18515   */\n      0x20\n        /* \"#utility.yul\":18508:18511   */\n      dup3\n        /* \"#utility.yul\":18504:18516   */\n      add\n        /* \"#utility.yul\":18497:18516   */\n      swap1\n      pop\n        /* \"#utility.yul\":18144:18526   */\n      swap2\n      swap1\n      pop\n      jump\t// out\n        /* \"#utility.yul\":18536:18971   */\n    tag_255:\n        /* \"#utility.yul\":18702:18706   */\n      0x00\n        /* \"#utility.yul\":18744:18746   */\n      0x20\n        /* \"#utility.yul\":18733:18742   */\n      dup3\n        /* \"#utility.yul\":18729:18747   */\n      add\n        /* \"#utility.yul\":18721:18747   */\n      swap1\n      pop\n        /* \"#utility.yul\":18797:18806   */\n      dup2\n        /* \"#utility.yul\":18791:18795   */\n      dup2\n        /* \"#utility.yul\":18787:18807   */\n      sub\n        /* \"#utility.yul\":18783:18784   */\n      0x00\n        /* \"#utility.yul\":18772:18781   */\n      dup4\n        /* \"#utility.yul\":18768:18785   */\n      add\n        /* \"#utility.yul\":18761:18808   */\n      mstore\n        /* \"#utility.yul\":18829:18960   */\n      tag_479\n        /* \"#utility.yul\":18955:18959   */\n      dup2\n        /* \"#utility.yul\":18829:18960   */\n      tag_307\n      jump\t// in\n    tag_479:\n        /* \"#utility.yul\":18821:18960   */\n      swap1\n      pop\n        /* \"#utility.yul\":18536:18971   */\n      swap2\n      swap1\n      pop\n      jump\t// out\n        /* \"#utility.yul\":18981:19177   */\n    tag_308:\n        /* \"#utility.yul\":19033:19110   */\n      0x4e487b7100000000000000000000000000000000000000000000000000000000\n        /* \"#utility.yul\":19030:19031   */\n      0x00\n        /* \"#utility.yul\":19023:19111   */\n      mstore\n        /* \"#utility.yul\":19134:19138   */\n      0x12\n        /* \"#utility.yul\":19131:19132   */\n      0x04\n        /* \"#utility.yul\":19124:19139   */\n      mstore\n        /* \"#utility.yul\":19162:19166   */\n      0x24\n        /* \"#utility.yul\":19159:19160   */\n      0x00\n        /* \"#utility.yul\":19152:19167   */\n      revert\n        /* \"#utility.yul\":19187:19392   */\n    tag_258:\n        /* \"#utility.yul\":19227:19228   */\n      0x00\n        /* \"#utility.yul\":19248:19268   */\n      tag_482\n        /* \"#utility.yul\":19266:19267   */\n      dup3\n        /* \"#utility.yul\":19248:19268   */\n      tag_274\n      jump\t// in\n    tag_482:\n        /* \"#utility.yul\":19243:19268   */\n      swap2\n      pop\n        /* \"#utility.yul\":19286:19306   */\n      tag_483\n        /* \"#utility.yul\":19304:19305   */\n      dup4\n        /* \"#utility.yul\":19286:19306   */\n      tag_274\n      jump\t// in\n    tag_483:\n        /* \"#utility.yul\":19281:19306   */\n      swap3\n      pop\n        /* \"#utility.yul\":19329:19330   */\n      dup3\n        /* \"#utility.yul\":19319:19354   */\n      tag_484\n      jumpi\n        /* \"#utility.yul\":19334:19352   */\n      tag_485\n      tag_308\n      jump\t// in\n    tag_485:\n        /* \"#utility.yul\":19319:19354   */\n    tag_484:\n        /* \"#utility.yul\":19380:19381   */\n      dup3\n        /* \"#utility.yul\":19377:19378   */\n      dup3\n        /* \"#utility.yul\":19373:19382   */\n      div\n        /* \"#utility.yul\":19368:19382   */\n      swap1\n      pop\n        /* \"#utility.yul\":19187:19392   */\n      swap3\n      swap2\n      pop\n      pop\n      jump\t// out\n\n    auxdata: 0xa2646970667358221220bc631ef16404c6bd371339a40aec1fbe8a22961e92ace5eb1c9f1467cb38218664736f6c63430008110033\n}\n",
				"bytecode": {
					"linkReferences": {},
					"object": "60a0604052640430e2340060055569152d02c7e14af68000006007556001600a556000600c60006101000a81548160ff02191690831515021790555062278d00600d5562093a80600e55604051620020943803806200209483398181016040528101906200006e9190620003f2565b620000a07fb165298935924f540e4181c03493a5d686c54a0aaeb3f6216de85b7ffbba7738826200022560201b60201c565b620000d27f3c11d16cbaffd01df69ce1c404f6340ee057498f5f00246190ea54220576a848826200022560201b60201c565b620001047f305786ab5904b5bb20fe6d91992844b39d648cdcb82f328edc2d6a80bfbb3289826200022560201b60201c565b33600160006101000a81548173ffffffffffffffffffffffffffffffffffffffff021916908373ffffffffffffffffffffffffffffffffffffffff16021790555081600660006101000a81548173ffffffffffffffffffffffffffffffffffffffff021916908373ffffffffffffffffffffffffffffffffffffffff16021790555080600260006101000a81548173ffffffffffffffffffffffffffffffffffffffff021916908373ffffffffffffffffffffffffffffffffffffffff1602179055504260808181525050606f600b60008081526020019081526020016000208190555060de600b6000600181526020019081526020016000208190555061014d600b60006002815260200190815260200160002081905550505062000439565b6200023782826200031660201b60201c565b6200031257600160008084815260200190815260200160002060000160008373ffffffffffffffffffffffffffffffffffffffff1673ffffffffffffffffffffffffffffffffffffffff16815260200190815260200160002060006101000a81548160ff021916908315150217905550620002b76200038060201b60201c565b73ffffffffffffffffffffffffffffffffffffffff168173ffffffffffffffffffffffffffffffffffffffff16837f2f8788117e7eff1d82e926ec794901d17c78024a50270940304540a733656f0d60405160405180910390a45b5050565b600080600084815260200190815260200160002060000160008373ffffffffffffffffffffffffffffffffffffffff1673ffffffffffffffffffffffffffffffffffffffff16815260200190815260200160002060009054906101000a900460ff16905092915050565b600033905090565b600080fd5b600073ffffffffffffffffffffffffffffffffffffffff82169050919050565b6000620003ba826200038d565b9050919050565b620003cc81620003ad565b8114620003d857600080fd5b50565b600081519050620003ec81620003c1565b92915050565b600080604083850312156200040c576200040b62000388565b5b60006200041c85828601620003db565b92505060206200042f85828601620003db565b9150509250929050565b608051611c3162000463600039600081816107060152818161084201526108dd0152611c316000f3fe6080604052600436106100e15760003560e01c806373f425611161007f578063a217fddf11610059578063a217fddf146102f4578063a6f2ae3a1461031f578063b1ac51f81461033d578063d547741f1461036857610125565b806373f425611461026157806376082a5e1461028c57806391d14854146102b757610125565b80632e1a7d4d116100bb5780632e1a7d4d146101cf5780632f2ff15d146101f857806336568abe146102215780634f2484091461024a57610125565b806301ffc9a71461012a578063248a9ca314610167578063282c51f3146101a457610125565b36610125577fcf34ef537ac33ee1ac626ca1587a0a7e8e51561e5514f8cb36afa1c5102b3bab604051610113906112b5565b60405180910390a1610123610391565b005b600080fd5b34801561013657600080fd5b50610151600480360381019061014c9190611332565b61060d565b60405161015e919061137a565b60405180910390f35b34801561017357600080fd5b5061018e600480360381019061018991906113cb565b610687565b60405161019b9190611407565b60405180910390f35b3480156101b057600080fd5b506101b96106a6565b6040516101c69190611407565b60405180910390f35b3480156101db57600080fd5b506101f660048036038101906101f19190611458565b6106ca565b005b34801561020457600080fd5b5061021f600480360381019061021a91906114e3565b610968565b005b34801561022d57600080fd5b50610248600480360381019061024391906114e3565b610989565b005b34801561025657600080fd5b5061025f610a0c565b005b34801561026d57600080fd5b50610276610b91565b604051610283919061137a565b60405180910390f35b34801561029857600080fd5b506102a1610ba8565b6040516102ae9190611407565b60405180910390f35b3480156102c357600080fd5b506102de60048036038101906102d991906114e3565b610bcc565b6040516102eb919061137a565b60405180910390f35b34801561030057600080fd5b50610309610c36565b6040516103169190611407565b60405180910390f35b610327610391565b604051610334919061137a565b60405180910390f35b34801561034957600080fd5b50610352610c3d565b60405161035f9190611407565b60405180910390f35b34801561037457600080fd5b5061038f600480360381019061038a91906114e3565b610c61565b005b600060055442106103d7576040517f08c379a00000000000000000000000000000000000000000000000000000000081526004016103ce9061156f565b60405180910390fd5b6000341161041a576040517f08c379a0000000000000000000000000000000000000000000000000000000008152600401610411906115db565b60405180910390fd5b600061042534610c82565b905060075460095482610438919061162a565b10610478576040517f08c379a000000000000000000000000000000000000000000000000000000000815260040161046f906116aa565b60405180910390fd5b600660009054906101000a900473ffffffffffffffffffffffffffffffffffffffff1673ffffffffffffffffffffffffffffffffffffffff1663095ea7b330836040518363ffffffff1660e01b81526004016104d59291906116e8565b6020604051808303816000875af11580156104f4573d6000803e3d6000fd5b505050506040513d601f19601f82011682018060405250810190610518919061173d565b50600660009054906101000a900473ffffffffffffffffffffffffffffffffffffffff1673ffffffffffffffffffffffffffffffffffffffff1663a9059cbb33836040518363ffffffff1660e01b81526004016105769291906116e8565b6020604051808303816000875af1158015610595573d6000803e3d6000fd5b505050506040513d601f19601f820116820180604052508101906105b9919061173d565b50600954816105c8919061162a565b6009819055507f92f64ca637d023f354075a4be751b169c1a8a9ccb6d33cdd0cb3520543995727816040516105fd919061176a565b60405180910390a1600191505090565b60007f7965db0b000000000000000000000000000000000000000000000000000000007bffffffffffffffffffffffffffffffffffffffffffffffffffffffff1916827bffffffffffffffffffffffffffffffffffffffffffffffffffffffff19161480610680575061067f82610ca0565b5b9050919050565b6000806000838152602001908152602001600020600101549050919050565b7f3c11d16cbaffd01df69ce1c404f6340ee057498f5f00246190ea54220576a84881565b7fb165298935924f540e4181c03493a5d686c54a0aaeb3f6216de85b7ffbba77386106f481610d0a565b426012600d546107049190611785565b7f000000000000000000000000000000000000000000000000000000000000000061072f919061162a565b111561083057600061074083610d1e565b9050600660009054906101000a900473ffffffffffffffffffffffffffffffffffffffff1673ffffffffffffffffffffffffffffffffffffffff1663095ea7b330836040518363ffffffff1660e01b815260040161079f9291906116e8565b6020604051808303816000875af11580156107be573d6000803e3d6000fd5b505050506040513d601f19601f820116820180604052508101906107e2919061173d565b503373ffffffffffffffffffffffffffffffffffffffff166108fc829081150290604051600060405180830381858888f19350505050158015610829573d6000803e3d6000fd5b5050610964565b42600c600d546108409190611785565b7f000000000000000000000000000000000000000000000000000000000000000061086b919061162a565b11156108cb57600061087c83610d1e565b90503373ffffffffffffffffffffffffffffffffffffffff166108fc829081150290604051600060405180830381858888f193505050501580156108c4573d6000803e3d6000fd5b5050610963565b426006600d546108db9190611785565b7f0000000000000000000000000000000000000000000000000000000000000000610906919061162a565b111561096257600061091783610d1e565b90503373ffffffffffffffffffffffffffffffffffffffff166108fc829081150290604051600060405180830381858888f1935050505015801561095f573d6000803e3d6000fd5b50505b5b5b5050565b61097182610687565b61097a81610d0a565b6109848383610d41565b505050565b610991610e21565b73ffffffffffffffffffffffffffffffffffffffff168173ffffffffffffffffffffffffffffffffffffffff16146109fe576040517f08c379a00000000000000000000000000000000000000000000000000000000081526004016109f590611839565b60405180910390fd5b610a088282610e29565b5050565b6005544210610a50576040517f08c379a0000000000000000000000000000000000000000000000000000000008152600401610a479061156f565b60405180910390fd5b7f3c11d16cbaffd01df69ce1c404f6340ee057498f5f00246190ea54220576a848610a7a81610d0a565b600c60009054906101000a900460ff1615610aca576040517f08c379a0000000000000000000000000000000000000000000000000000000008152600401610ac1906118a5565b60405180910390fd5b6000610ae3600954600754610f0a90919063ffffffff16565b9050600660009054906101000a900473ffffffffffffffffffffffffffffffffffffffff1673ffffffffffffffffffffffffffffffffffffffff166342966c68826040518263ffffffff1660e01b8152600401610b40919061176a565b600060405180830381600087803b158015610b5a57600080fd5b505af1158015610b6e573d6000803e3d6000fd5b50505050506001600c60006101000a81548160ff02191690831515021790555050565b6000600c60009054906101000a900460ff16905090565b7fb165298935924f540e4181c03493a5d686c54a0aaeb3f6216de85b7ffbba773881565b600080600084815260200190815260200160002060000160008373ffffffffffffffffffffffffffffffffffffffff1673ffffffffffffffffffffffffffffffffffffffff16815260200190815260200160002060009054906101000a900460ff16905092915050565b6000801b81565b7f305786ab5904b5bb20fe6d91992844b39d648cdcb82f328edc2d6a80bfbb328981565b610c6a82610687565b610c7381610d0a565b610c7d8383610e29565b505050565b6000610c99600a5483610f2090919063ffffffff16565b9050919050565b60007f01ffc9a7000000000000000000000000000000000000000000000000000000007bffffffffffffffffffffffffffffffffffffffffffffffffffffffff1916827bffffffffffffffffffffffffffffffffffffffffffffffffffffffff1916149050919050565b610d1b81610d16610e21565b610f36565b50565b6000610d3a610d2b610fbb565b83610f2090919063ffffffff16565b9050919050565b610d4b8282610bcc565b610e1d57600160008084815260200190815260200160002060000160008373ffffffffffffffffffffffffffffffffffffffff1673ffffffffffffffffffffffffffffffffffffffff16815260200190815260200160002060006101000a81548160ff021916908315150217905550610dc2610e21565b73ffffffffffffffffffffffffffffffffffffffff168173ffffffffffffffffffffffffffffffffffffffff16837f2f8788117e7eff1d82e926ec794901d17c78024a50270940304540a733656f0d60405160405180910390a45b5050565b600033905090565b610e338282610bcc565b15610f0657600080600084815260200190815260200160002060000160008373ffffffffffffffffffffffffffffffffffffffff1673ffffffffffffffffffffffffffffffffffffffff16815260200190815260200160002060006101000a81548160ff021916908315150217905550610eab610e21565b73ffffffffffffffffffffffffffffffffffffffff168173ffffffffffffffffffffffffffffffffffffffff16837ff6391f5c32d9c69d2a47ea670b442974b53935d1edc7fd64eb21e047a839171b60405160405180910390a45b5050565b60008183610f1891906118c5565b905092915050565b60008183610f2e9190611785565b905092915050565b610f408282610bcc565b610fb757610f4d81610fd9565b610f5b8360001c6020611006565b604051602001610f6c929190611a02565b6040516020818303038152906040526040517f08c379a0000000000000000000000000000000000000000000000000000000008152600401610fae9190611a86565b60405180910390fd5b5050565b6000610fd460075460095461124290919063ffffffff16565b905090565b6060610fff8273ffffffffffffffffffffffffffffffffffffffff16601460ff16611006565b9050919050565b6060600060028360026110199190611785565b611023919061162a565b67ffffffffffffffff81111561103c5761103b611aa8565b5b6040519080825280601f01601f19166020018201604052801561106e5781602001600182028036833780820191505090505b5090507f3000000000000000000000000000000000000000000000000000000000000000816000815181106110a6576110a5611ad7565b5b60200101907effffffffffffffffffffffffffffffffffffffffffffffffffffffffffffff1916908160001a9053507f78000000000000000000000000000000000000000000000000000000000000008160018151811061110a57611109611ad7565b5b60200101907effffffffffffffffffffffffffffffffffffffffffffffffffffffffffffff1916908160001a9053506000600184600261114a9190611785565b611154919061162a565b90505b60018111156111f4577f3031323334353637383961626364656600000000000000000000000000000000600f86166010811061119657611195611ad7565b5b1a60f81b8282815181106111ad576111ac611ad7565b5b60200101907effffffffffffffffffffffffffffffffffffffffffffffffffffffffffffff1916908160001a905350600485901c9450806111ed90611b06565b9050611157565b5060008414611238576040517f08c379a000000000000000000000000000000000000000000000000000000000815260040161122f90611b7b565b60405180910390fd5b8091505092915050565b600081836112509190611bca565b905092915050565b600082825260208201905092915050565b7f66616c6c6261636b206869740000000000000000000000000000000000000000600082015250565b600061129f600c83611258565b91506112aa82611269565b602082019050919050565b600060208201905081810360008301526112ce81611292565b9050919050565b600080fd5b60007fffffffff0000000000000000000000000000000000000000000000000000000082169050919050565b61130f816112da565b811461131a57600080fd5b50565b60008135905061132c81611306565b92915050565b600060208284031215611348576113476112d5565b5b60006113568482850161131d565b91505092915050565b60008115159050919050565b6113748161135f565b82525050565b600060208201905061138f600083018461136b565b92915050565b6000819050919050565b6113a881611395565b81146113b357600080fd5b50565b6000813590506113c58161139f565b92915050565b6000602082840312156113e1576113e06112d5565b5b60006113ef848285016113b6565b91505092915050565b61140181611395565b82525050565b600060208201905061141c60008301846113f8565b92915050565b6000819050919050565b61143581611422565b811461144057600080fd5b50565b6000813590506114528161142c565b92915050565b60006020828403121561146e5761146d6112d5565b5b600061147c84828501611443565b91505092915050565b600073ffffffffffffffffffffffffffffffffffffffff82169050919050565b60006114b082611485565b9050919050565b6114c0816114a5565b81146114cb57600080fd5b50565b6000813590506114dd816114b7565b92915050565b600080604083850312156114fa576114f96112d5565b5b6000611508858286016113b6565b9250506020611519858286016114ce565b9150509250929050565b7f49434f206973206f766572203a28200000000000000000000000000000000000600082015250565b6000611559600f83611258565b915061156482611523565b602082019050919050565b600060208201905081810360008301526115888161154c565b9050919050565b7f7468656d2f7468657920706c656173652073656e64206d657469730000000000600082015250565b60006115c5601b83611258565b91506115d08261158f565b602082019050919050565b600060208201905081810360008301526115f4816115b8565b9050919050565b7f4e487b7100000000000000000000000000000000000000000000000000000000600052601160045260246000fd5b600061163582611422565b915061164083611422565b9250828201905080821115611658576116576115fb565b5b92915050565b7f657863656564732074686520746f74616c20666f722073616c65000000000000600082015250565b6000611694601a83611258565b915061169f8261165e565b602082019050919050565b600060208201905081810360008301526116c381611687565b9050919050565b6116d3816114a5565b82525050565b6116e281611422565b82525050565b60006040820190506116fd60008301856116ca565b61170a60208301846116d9565b9392505050565b61171a8161135f565b811461172557600080fd5b50565b60008151905061173781611711565b92915050565b600060208284031215611753576117526112d5565b5b600061176184828501611728565b91505092915050565b600060208201905061177f60008301846116d9565b92915050565b600061179082611422565b915061179b83611422565b92508282026117a981611422565b915082820484148315176117c0576117bf6115fb565b5b5092915050565b7f416363657373436f6e74726f6c3a2063616e206f6e6c792072656e6f756e636560008201527f20726f6c657320666f722073656c660000000000000000000000000000000000602082015250565b6000611823602f83611258565b915061182e826117c7565b604082019050919050565b6000602082019050818103600083015261185281611816565b9050919050565b7f74686520737570706c7920697320616c7265616479206275726e656400000000600082015250565b600061188f601c83611258565b915061189a82611859565b602082019050919050565b600060208201905081810360008301526118be81611882565b9050919050565b60006118d082611422565b91506118db83611422565b92508282039050818111156118f3576118f26115fb565b5b92915050565b600081905092915050565b7f416363657373436f6e74726f6c3a206163636f756e7420000000000000000000600082015250565b600061193a6017836118f9565b915061194582611904565b601782019050919050565b600081519050919050565b60005b8381101561197957808201518184015260208101905061195e565b60008484015250505050565b600061199082611950565b61199a81856118f9565b93506119aa81856020860161195b565b80840191505092915050565b7f206973206d697373696e6720726f6c6520000000000000000000000000000000600082015250565b60006119ec6011836118f9565b91506119f7826119b6565b601182019050919050565b6000611a0d8261192d565b9150611a198285611985565b9150611a24826119df565b9150611a308284611985565b91508190509392505050565b6000601f19601f8301169050919050565b6000611a5882611950565b611a628185611258565b9350611a7281856020860161195b565b611a7b81611a3c565b840191505092915050565b60006020820190508181036000830152611aa08184611a4d565b905092915050565b7f4e487b7100000000000000000000000000000000000000000000000000000000600052604160045260246000fd5b7f4e487b7100000000000000000000000000000000000000000000000000000000600052603260045260246000fd5b6000611b1182611422565b915060008203611b2457611b236115fb565b5b600182039050919050565b7f537472696e67733a20686578206c656e67746820696e73756666696369656e74600082015250565b6000611b65602083611258565b9150611b7082611b2f565b602082019050919050565b60006020820190508181036000830152611b9481611b58565b9050919050565b7f4e487b7100000000000000000000000000000000000000000000000000000000600052601260045260246000fd5b6000611bd582611422565b9150611be083611422565b925082611bf057611bef611b9b565b5b82820490509291505056fea2646970667358221220bc631ef16404c6bd371339a40aec1fbe8a22961e92ace5eb1c9f1467cb38218664736f6c63430008110033",
					"opcodes": "PUSH1 0xA0 PUSH1 0x40 MSTORE PUSH5 0x430E23400 PUSH1 0x5 SSTORE PUSH10 0x152D02C7E14AF6800000 PUSH1 0x7 SSTORE PUSH1 0x1 PUSH1 0xA SSTORE PUSH1 0x0 PUSH1 0xC PUSH1 0x0 PUSH2 0x100 EXP DUP2 SLOAD DUP2 PUSH1 0xFF MUL NOT AND SWAP1 DUP4 ISZERO ISZERO MUL OR SWAP1 SSTORE POP PUSH3 0x278D00 PUSH1 0xD SSTORE PUSH3 0x93A80 PUSH1 0xE SSTORE PUSH1 0x40 MLOAD PUSH3 0x2094 CODESIZE SUB DUP1 PUSH3 0x2094 DUP4 CODECOPY DUP2 DUP2 ADD PUSH1 0x40 MSTORE DUP2 ADD SWAP1 PUSH3 0x6E SWAP2 SWAP1 PUSH3 0x3F2 JUMP JUMPDEST PUSH3 0xA0 PUSH32 0xB165298935924F540E4181C03493A5D686C54A0AAEB3F6216DE85B7FFBBA7738 DUP3 PUSH3 0x225 PUSH1 0x20 SHL PUSH1 0x20 SHR JUMP JUMPDEST PUSH3 0xD2 PUSH32 0x3C11D16CBAFFD01DF69CE1C404F6340EE057498F5F00246190EA54220576A848 DUP3 PUSH3 0x225 PUSH1 0x20 SHL PUSH1 0x20 SHR JUMP JUMPDEST PUSH3 0x104 PUSH32 0x305786AB5904B5BB20FE6D91992844B39D648CDCB82F328EDC2D6A80BFBB3289 DUP3 PUSH3 0x225 PUSH1 0x20 SHL PUSH1 0x20 SHR JUMP JUMPDEST CALLER PUSH1 0x1 PUSH1 0x0 PUSH2 0x100 EXP DUP2 SLOAD DUP2 PUSH20 0xFFFFFFFFFFFFFFFFFFFFFFFFFFFFFFFFFFFFFFFF MUL NOT AND SWAP1 DUP4 PUSH20 0xFFFFFFFFFFFFFFFFFFFFFFFFFFFFFFFFFFFFFFFF AND MUL OR SWAP1 SSTORE POP DUP2 PUSH1 0x6 PUSH1 0x0 PUSH2 0x100 EXP DUP2 SLOAD DUP2 PUSH20 0xFFFFFFFFFFFFFFFFFFFFFFFFFFFFFFFFFFFFFFFF MUL NOT AND SWAP1 DUP4 PUSH20 0xFFFFFFFFFFFFFFFFFFFFFFFFFFFFFFFFFFFFFFFF AND MUL OR SWAP1 SSTORE POP DUP1 PUSH1 0x2 PUSH1 0x0 PUSH2 0x100 EXP DUP2 SLOAD DUP2 PUSH20 0xFFFFFFFFFFFFFFFFFFFFFFFFFFFFFFFFFFFFFFFF MUL NOT AND SWAP1 DUP4 PUSH20 0xFFFFFFFFFFFFFFFFFFFFFFFFFFFFFFFFFFFFFFFF AND MUL OR SWAP1 SSTORE POP TIMESTAMP PUSH1 0x80 DUP2 DUP2 MSTORE POP POP PUSH1 0x6F PUSH1 0xB PUSH1 0x0 DUP1 DUP2 MSTORE PUSH1 0x20 ADD SWAP1 DUP2 MSTORE PUSH1 0x20 ADD PUSH1 0x0 KECCAK256 DUP2 SWAP1 SSTORE POP PUSH1 0xDE PUSH1 0xB PUSH1 0x0 PUSH1 0x1 DUP2 MSTORE PUSH1 0x20 ADD SWAP1 DUP2 MSTORE PUSH1 0x20 ADD PUSH1 0x0 KECCAK256 DUP2 SWAP1 SSTORE POP PUSH2 0x14D PUSH1 0xB PUSH1 0x0 PUSH1 0x2 DUP2 MSTORE PUSH1 0x20 ADD SWAP1 DUP2 MSTORE PUSH1 0x20 ADD PUSH1 0x0 KECCAK256 DUP2 SWAP1 SSTORE POP POP POP PUSH3 0x439 JUMP JUMPDEST PUSH3 0x237 DUP3 DUP3 PUSH3 0x316 PUSH1 0x20 SHL PUSH1 0x20 SHR JUMP JUMPDEST PUSH3 0x312 JUMPI PUSH1 0x1 PUSH1 0x0 DUP1 DUP5 DUP2 MSTORE PUSH1 0x20 ADD SWAP1 DUP2 MSTORE PUSH1 0x20 ADD PUSH1 0x0 KECCAK256 PUSH1 0x0 ADD PUSH1 0x0 DUP4 PUSH20 0xFFFFFFFFFFFFFFFFFFFFFFFFFFFFFFFFFFFFFFFF AND PUSH20 0xFFFFFFFFFFFFFFFFFFFFFFFFFFFFFFFFFFFFFFFF AND DUP2 MSTORE PUSH1 0x20 ADD SWAP1 DUP2 MSTORE PUSH1 0x20 ADD PUSH1 0x0 KECCAK256 PUSH1 0x0 PUSH2 0x100 EXP DUP2 SLOAD DUP2 PUSH1 0xFF MUL NOT AND SWAP1 DUP4 ISZERO ISZERO MUL OR SWAP1 SSTORE POP PUSH3 0x2B7 PUSH3 0x380 PUSH1 0x20 SHL PUSH1 0x20 SHR JUMP JUMPDEST PUSH20 0xFFFFFFFFFFFFFFFFFFFFFFFFFFFFFFFFFFFFFFFF AND DUP2 PUSH20 0xFFFFFFFFFFFFFFFFFFFFFFFFFFFFFFFFFFFFFFFF AND DUP4 PUSH32 0x2F8788117E7EFF1D82E926EC794901D17C78024A50270940304540A733656F0D PUSH1 0x40 MLOAD PUSH1 0x40 MLOAD DUP1 SWAP2 SUB SWAP1 LOG4 JUMPDEST POP POP JUMP JUMPDEST PUSH1 0x0 DUP1 PUSH1 0x0 DUP5 DUP2 MSTORE PUSH1 0x20 ADD SWAP1 DUP2 MSTORE PUSH1 0x20 ADD PUSH1 0x0 KECCAK256 PUSH1 0x0 ADD PUSH1 0x0 DUP4 PUSH20 0xFFFFFFFFFFFFFFFFFFFFFFFFFFFFFFFFFFFFFFFF AND PUSH20 0xFFFFFFFFFFFFFFFFFFFFFFFFFFFFFFFFFFFFFFFF AND DUP2 MSTORE PUSH1 0x20 ADD SWAP1 DUP2 MSTORE PUSH1 0x20 ADD PUSH1 0x0 KECCAK256 PUSH1 0x0 SWAP1 SLOAD SWAP1 PUSH2 0x100 EXP SWAP1 DIV PUSH1 0xFF AND SWAP1 POP SWAP3 SWAP2 POP POP JUMP JUMPDEST PUSH1 0x0 CALLER SWAP1 POP SWAP1 JUMP JUMPDEST PUSH1 0x0 DUP1 REVERT JUMPDEST PUSH1 0x0 PUSH20 0xFFFFFFFFFFFFFFFFFFFFFFFFFFFFFFFFFFFFFFFF DUP3 AND SWAP1 POP SWAP2 SWAP1 POP JUMP JUMPDEST PUSH1 0x0 PUSH3 0x3BA DUP3 PUSH3 0x38D JUMP JUMPDEST SWAP1 POP SWAP2 SWAP1 POP JUMP JUMPDEST PUSH3 0x3CC DUP2 PUSH3 0x3AD JUMP JUMPDEST DUP2 EQ PUSH3 0x3D8 JUMPI PUSH1 0x0 DUP1 REVERT JUMPDEST POP JUMP JUMPDEST PUSH1 0x0 DUP2 MLOAD SWAP1 POP PUSH3 0x3EC DUP2 PUSH3 0x3C1 JUMP JUMPDEST SWAP3 SWAP2 POP POP JUMP JUMPDEST PUSH1 0x0 DUP1 PUSH1 0x40 DUP4 DUP6 SUB SLT ISZERO PUSH3 0x40C JUMPI PUSH3 0x40B PUSH3 0x388 JUMP JUMPDEST JUMPDEST PUSH1 0x0 PUSH3 0x41C DUP6 DUP3 DUP7 ADD PUSH3 0x3DB JUMP JUMPDEST SWAP3 POP POP PUSH1 0x20 PUSH3 0x42F DUP6 DUP3 DUP7 ADD PUSH3 0x3DB JUMP JUMPDEST SWAP2 POP POP SWAP3 POP SWAP3 SWAP1 POP JUMP JUMPDEST PUSH1 0x80 MLOAD PUSH2 0x1C31 PUSH3 0x463 PUSH1 0x0 CODECOPY PUSH1 0x0 DUP2 DUP2 PUSH2 0x706 ADD MSTORE DUP2 DUP2 PUSH2 0x842 ADD MSTORE PUSH2 0x8DD ADD MSTORE PUSH2 0x1C31 PUSH1 0x0 RETURN INVALID PUSH1 0x80 PUSH1 0x40 MSTORE PUSH1 0x4 CALLDATASIZE LT PUSH2 0xE1 JUMPI PUSH1 0x0 CALLDATALOAD PUSH1 0xE0 SHR DUP1 PUSH4 0x73F42561 GT PUSH2 0x7F JUMPI DUP1 PUSH4 0xA217FDDF GT PUSH2 0x59 JUMPI DUP1 PUSH4 0xA217FDDF EQ PUSH2 0x2F4 JUMPI DUP1 PUSH4 0xA6F2AE3A EQ PUSH2 0x31F JUMPI DUP1 PUSH4 0xB1AC51F8 EQ PUSH2 0x33D JUMPI DUP1 PUSH4 0xD547741F EQ PUSH2 0x368 JUMPI PUSH2 0x125 JUMP JUMPDEST DUP1 PUSH4 0x73F42561 EQ PUSH2 0x261 JUMPI DUP1 PUSH4 0x76082A5E EQ PUSH2 0x28C JUMPI DUP1 PUSH4 0x91D14854 EQ PUSH2 0x2B7 JUMPI PUSH2 0x125 JUMP JUMPDEST DUP1 PUSH4 0x2E1A7D4D GT PUSH2 0xBB JUMPI DUP1 PUSH4 0x2E1A7D4D EQ PUSH2 0x1CF JUMPI DUP1 PUSH4 0x2F2FF15D EQ PUSH2 0x1F8 JUMPI DUP1 PUSH4 0x36568ABE EQ PUSH2 0x221 JUMPI DUP1 PUSH4 0x4F248409 EQ PUSH2 0x24A JUMPI PUSH2 0x125 JUMP JUMPDEST DUP1 PUSH4 0x1FFC9A7 EQ PUSH2 0x12A JUMPI DUP1 PUSH4 0x248A9CA3 EQ PUSH2 0x167 JUMPI DUP1 PUSH4 0x282C51F3 EQ PUSH2 0x1A4 JUMPI PUSH2 0x125 JUMP JUMPDEST CALLDATASIZE PUSH2 0x125 JUMPI PUSH32 0xCF34EF537AC33EE1AC626CA1587A0A7E8E51561E5514F8CB36AFA1C5102B3BAB PUSH1 0x40 MLOAD PUSH2 0x113 SWAP1 PUSH2 0x12B5 JUMP JUMPDEST PUSH1 0x40 MLOAD DUP1 SWAP2 SUB SWAP1 LOG1 PUSH2 0x123 PUSH2 0x391 JUMP JUMPDEST STOP JUMPDEST PUSH1 0x0 DUP1 REVERT JUMPDEST CALLVALUE DUP1 ISZERO PUSH2 0x136 JUMPI PUSH1 0x0 DUP1 REVERT JUMPDEST POP PUSH2 0x151 PUSH1 0x4 DUP1 CALLDATASIZE SUB DUP2 ADD SWAP1 PUSH2 0x14C SWAP2 SWAP1 PUSH2 0x1332 JUMP JUMPDEST PUSH2 0x60D JUMP JUMPDEST PUSH1 0x40 MLOAD PUSH2 0x15E SWAP2 SWAP1 PUSH2 0x137A JUMP JUMPDEST PUSH1 0x40 MLOAD DUP1 SWAP2 SUB SWAP1 RETURN JUMPDEST CALLVALUE DUP1 ISZERO PUSH2 0x173 JUMPI PUSH1 0x0 DUP1 REVERT JUMPDEST POP PUSH2 0x18E PUSH1 0x4 DUP1 CALLDATASIZE SUB DUP2 ADD SWAP1 PUSH2 0x189 SWAP2 SWAP1 PUSH2 0x13CB JUMP JUMPDEST PUSH2 0x687 JUMP JUMPDEST PUSH1 0x40 MLOAD PUSH2 0x19B SWAP2 SWAP1 PUSH2 0x1407 JUMP JUMPDEST PUSH1 0x40 MLOAD DUP1 SWAP2 SUB SWAP1 RETURN JUMPDEST CALLVALUE DUP1 ISZERO PUSH2 0x1B0 JUMPI PUSH1 0x0 DUP1 REVERT JUMPDEST POP PUSH2 0x1B9 PUSH2 0x6A6 JUMP JUMPDEST PUSH1 0x40 MLOAD PUSH2 0x1C6 SWAP2 SWAP1 PUSH2 0x1407 JUMP JUMPDEST PUSH1 0x40 MLOAD DUP1 SWAP2 SUB SWAP1 RETURN JUMPDEST CALLVALUE DUP1 ISZERO PUSH2 0x1DB JUMPI PUSH1 0x0 DUP1 REVERT JUMPDEST POP PUSH2 0x1F6 PUSH1 0x4 DUP1 CALLDATASIZE SUB DUP2 ADD SWAP1 PUSH2 0x1F1 SWAP2 SWAP1 PUSH2 0x1458 JUMP JUMPDEST PUSH2 0x6CA JUMP JUMPDEST STOP JUMPDEST CALLVALUE DUP1 ISZERO PUSH2 0x204 JUMPI PUSH1 0x0 DUP1 REVERT JUMPDEST POP PUSH2 0x21F PUSH1 0x4 DUP1 CALLDATASIZE SUB DUP2 ADD SWAP1 PUSH2 0x21A SWAP2 SWAP1 PUSH2 0x14E3 JUMP JUMPDEST PUSH2 0x968 JUMP JUMPDEST STOP JUMPDEST CALLVALUE DUP1 ISZERO PUSH2 0x22D JUMPI PUSH1 0x0 DUP1 REVERT JUMPDEST POP PUSH2 0x248 PUSH1 0x4 DUP1 CALLDATASIZE SUB DUP2 ADD SWAP1 PUSH2 0x243 SWAP2 SWAP1 PUSH2 0x14E3 JUMP JUMPDEST PUSH2 0x989 JUMP JUMPDEST STOP JUMPDEST CALLVALUE DUP1 ISZERO PUSH2 0x256 JUMPI PUSH1 0x0 DUP1 REVERT JUMPDEST POP PUSH2 0x25F PUSH2 0xA0C JUMP JUMPDEST STOP JUMPDEST CALLVALUE DUP1 ISZERO PUSH2 0x26D JUMPI PUSH1 0x0 DUP1 REVERT JUMPDEST POP PUSH2 0x276 PUSH2 0xB91 JUMP JUMPDEST PUSH1 0x40 MLOAD PUSH2 0x283 SWAP2 SWAP1 PUSH2 0x137A JUMP JUMPDEST PUSH1 0x40 MLOAD DUP1 SWAP2 SUB SWAP1 RETURN JUMPDEST CALLVALUE DUP1 ISZERO PUSH2 0x298 JUMPI PUSH1 0x0 DUP1 REVERT JUMPDEST POP PUSH2 0x2A1 PUSH2 0xBA8 JUMP JUMPDEST PUSH1 0x40 MLOAD PUSH2 0x2AE SWAP2 SWAP1 PUSH2 0x1407 JUMP JUMPDEST PUSH1 0x40 MLOAD DUP1 SWAP2 SUB SWAP1 RETURN JUMPDEST CALLVALUE DUP1 ISZERO PUSH2 0x2C3 JUMPI PUSH1 0x0 DUP1 REVERT JUMPDEST POP PUSH2 0x2DE PUSH1 0x4 DUP1 CALLDATASIZE SUB DUP2 ADD SWAP1 PUSH2 0x2D9 SWAP2 SWAP1 PUSH2 0x14E3 JUMP JUMPDEST PUSH2 0xBCC JUMP JUMPDEST PUSH1 0x40 MLOAD PUSH2 0x2EB SWAP2 SWAP1 PUSH2 0x137A JUMP JUMPDEST PUSH1 0x40 MLOAD DUP1 SWAP2 SUB SWAP1 RETURN JUMPDEST CALLVALUE DUP1 ISZERO PUSH2 0x300 JUMPI PUSH1 0x0 DUP1 REVERT JUMPDEST POP PUSH2 0x309 PUSH2 0xC36 JUMP JUMPDEST PUSH1 0x40 MLOAD PUSH2 0x316 SWAP2 SWAP1 PUSH2 0x1407 JUMP JUMPDEST PUSH1 0x40 MLOAD DUP1 SWAP2 SUB SWAP1 RETURN JUMPDEST PUSH2 0x327 PUSH2 0x391 JUMP JUMPDEST PUSH1 0x40 MLOAD PUSH2 0x334 SWAP2 SWAP1 PUSH2 0x137A JUMP JUMPDEST PUSH1 0x40 MLOAD DUP1 SWAP2 SUB SWAP1 RETURN JUMPDEST CALLVALUE DUP1 ISZERO PUSH2 0x349 JUMPI PUSH1 0x0 DUP1 REVERT JUMPDEST POP PUSH2 0x352 PUSH2 0xC3D JUMP JUMPDEST PUSH1 0x40 MLOAD PUSH2 0x35F SWAP2 SWAP1 PUSH2 0x1407 JUMP JUMPDEST PUSH1 0x40 MLOAD DUP1 SWAP2 SUB SWAP1 RETURN JUMPDEST CALLVALUE DUP1 ISZERO PUSH2 0x374 JUMPI PUSH1 0x0 DUP1 REVERT JUMPDEST POP PUSH2 0x38F PUSH1 0x4 DUP1 CALLDATASIZE SUB DUP2 ADD SWAP1 PUSH2 0x38A SWAP2 SWAP1 PUSH2 0x14E3 JUMP JUMPDEST PUSH2 0xC61 JUMP JUMPDEST STOP JUMPDEST PUSH1 0x0 PUSH1 0x5 SLOAD TIMESTAMP LT PUSH2 0x3D7 JUMPI PUSH1 0x40 MLOAD PUSH32 0x8C379A000000000000000000000000000000000000000000000000000000000 DUP2 MSTORE PUSH1 0x4 ADD PUSH2 0x3CE SWAP1 PUSH2 0x156F JUMP JUMPDEST PUSH1 0x40 MLOAD DUP1 SWAP2 SUB SWAP1 REVERT JUMPDEST PUSH1 0x0 CALLVALUE GT PUSH2 0x41A JUMPI PUSH1 0x40 MLOAD PUSH32 0x8C379A000000000000000000000000000000000000000000000000000000000 DUP2 MSTORE PUSH1 0x4 ADD PUSH2 0x411 SWAP1 PUSH2 0x15DB JUMP JUMPDEST PUSH1 0x40 MLOAD DUP1 SWAP2 SUB SWAP1 REVERT JUMPDEST PUSH1 0x0 PUSH2 0x425 CALLVALUE PUSH2 0xC82 JUMP JUMPDEST SWAP1 POP PUSH1 0x7 SLOAD PUSH1 0x9 SLOAD DUP3 PUSH2 0x438 SWAP2 SWAP1 PUSH2 0x162A JUMP JUMPDEST LT PUSH2 0x478 JUMPI PUSH1 0x40 MLOAD PUSH32 0x8C379A000000000000000000000000000000000000000000000000000000000 DUP2 MSTORE PUSH1 0x4 ADD PUSH2 0x46F SWAP1 PUSH2 0x16AA JUMP JUMPDEST PUSH1 0x40 MLOAD DUP1 SWAP2 SUB SWAP1 REVERT JUMPDEST PUSH1 0x6 PUSH1 0x0 SWAP1 SLOAD SWAP1 PUSH2 0x100 EXP SWAP1 DIV PUSH20 0xFFFFFFFFFFFFFFFFFFFFFFFFFFFFFFFFFFFFFFFF AND PUSH20 0xFFFFFFFFFFFFFFFFFFFFFFFFFFFFFFFFFFFFFFFF AND PUSH4 0x95EA7B3 ADDRESS DUP4 PUSH1 0x40 MLOAD DUP4 PUSH4 0xFFFFFFFF AND PUSH1 0xE0 SHL DUP2 MSTORE PUSH1 0x4 ADD PUSH2 0x4D5 SWAP3 SWAP2 SWAP1 PUSH2 0x16E8 JUMP JUMPDEST PUSH1 0x20 PUSH1 0x40 MLOAD DUP1 DUP4 SUB DUP2 PUSH1 0x0 DUP8 GAS CALL ISZERO DUP1 ISZERO PUSH2 0x4F4 JUMPI RETURNDATASIZE PUSH1 0x0 DUP1 RETURNDATACOPY RETURNDATASIZE PUSH1 0x0 REVERT JUMPDEST POP POP POP POP PUSH1 0x40 MLOAD RETURNDATASIZE PUSH1 0x1F NOT PUSH1 0x1F DUP3 ADD AND DUP3 ADD DUP1 PUSH1 0x40 MSTORE POP DUP2 ADD SWAP1 PUSH2 0x518 SWAP2 SWAP1 PUSH2 0x173D JUMP JUMPDEST POP PUSH1 0x6 PUSH1 0x0 SWAP1 SLOAD SWAP1 PUSH2 0x100 EXP SWAP1 DIV PUSH20 0xFFFFFFFFFFFFFFFFFFFFFFFFFFFFFFFFFFFFFFFF AND PUSH20 0xFFFFFFFFFFFFFFFFFFFFFFFFFFFFFFFFFFFFFFFF AND PUSH4 0xA9059CBB CALLER DUP4 PUSH1 0x40 MLOAD DUP4 PUSH4 0xFFFFFFFF AND PUSH1 0xE0 SHL DUP2 MSTORE PUSH1 0x4 ADD PUSH2 0x576 SWAP3 SWAP2 SWAP1 PUSH2 0x16E8 JUMP JUMPDEST PUSH1 0x20 PUSH1 0x40 MLOAD DUP1 DUP4 SUB DUP2 PUSH1 0x0 DUP8 GAS CALL ISZERO DUP1 ISZERO PUSH2 0x595 JUMPI RETURNDATASIZE PUSH1 0x0 DUP1 RETURNDATACOPY RETURNDATASIZE PUSH1 0x0 REVERT JUMPDEST POP POP POP POP PUSH1 0x40 MLOAD RETURNDATASIZE PUSH1 0x1F NOT PUSH1 0x1F DUP3 ADD AND DUP3 ADD DUP1 PUSH1 0x40 MSTORE POP DUP2 ADD SWAP1 PUSH2 0x5B9 SWAP2 SWAP1 PUSH2 0x173D JUMP JUMPDEST POP PUSH1 0x9 SLOAD DUP2 PUSH2 0x5C8 SWAP2 SWAP1 PUSH2 0x162A JUMP JUMPDEST PUSH1 0x9 DUP2 SWAP1 SSTORE POP PUSH32 0x92F64CA637D023F354075A4BE751B169C1A8A9CCB6D33CDD0CB3520543995727 DUP2 PUSH1 0x40 MLOAD PUSH2 0x5FD SWAP2 SWAP1 PUSH2 0x176A JUMP JUMPDEST PUSH1 0x40 MLOAD DUP1 SWAP2 SUB SWAP1 LOG1 PUSH1 0x1 SWAP2 POP POP SWAP1 JUMP JUMPDEST PUSH1 0x0 PUSH32 0x7965DB0B00000000000000000000000000000000000000000000000000000000 PUSH28 0xFFFFFFFFFFFFFFFFFFFFFFFFFFFFFFFFFFFFFFFFFFFFFFFFFFFFFFFF NOT AND DUP3 PUSH28 0xFFFFFFFFFFFFFFFFFFFFFFFFFFFFFFFFFFFFFFFFFFFFFFFFFFFFFFFF NOT AND EQ DUP1 PUSH2 0x680 JUMPI POP PUSH2 0x67F DUP3 PUSH2 0xCA0 JUMP JUMPDEST JUMPDEST SWAP1 POP SWAP2 SWAP1 POP JUMP JUMPDEST PUSH1 0x0 DUP1 PUSH1 0x0 DUP4 DUP2 MSTORE PUSH1 0x20 ADD SWAP1 DUP2 MSTORE PUSH1 0x20 ADD PUSH1 0x0 KECCAK256 PUSH1 0x1 ADD SLOAD SWAP1 POP SWAP2 SWAP1 POP JUMP JUMPDEST PUSH32 0x3C11D16CBAFFD01DF69CE1C404F6340EE057498F5F00246190EA54220576A848 DUP2 JUMP JUMPDEST PUSH32 0xB165298935924F540E4181C03493A5D686C54A0AAEB3F6216DE85B7FFBBA7738 PUSH2 0x6F4 DUP2 PUSH2 0xD0A JUMP JUMPDEST TIMESTAMP PUSH1 0x12 PUSH1 0xD SLOAD PUSH2 0x704 SWAP2 SWAP1 PUSH2 0x1785 JUMP JUMPDEST PUSH32 0x0 PUSH2 0x72F SWAP2 SWAP1 PUSH2 0x162A JUMP JUMPDEST GT ISZERO PUSH2 0x830 JUMPI PUSH1 0x0 PUSH2 0x740 DUP4 PUSH2 0xD1E JUMP JUMPDEST SWAP1 POP PUSH1 0x6 PUSH1 0x0 SWAP1 SLOAD SWAP1 PUSH2 0x100 EXP SWAP1 DIV PUSH20 0xFFFFFFFFFFFFFFFFFFFFFFFFFFFFFFFFFFFFFFFF AND PUSH20 0xFFFFFFFFFFFFFFFFFFFFFFFFFFFFFFFFFFFFFFFF AND PUSH4 0x95EA7B3 ADDRESS DUP4 PUSH1 0x40 MLOAD DUP4 PUSH4 0xFFFFFFFF AND PUSH1 0xE0 SHL DUP2 MSTORE PUSH1 0x4 ADD PUSH2 0x79F SWAP3 SWAP2 SWAP1 PUSH2 0x16E8 JUMP JUMPDEST PUSH1 0x20 PUSH1 0x40 MLOAD DUP1 DUP4 SUB DUP2 PUSH1 0x0 DUP8 GAS CALL ISZERO DUP1 ISZERO PUSH2 0x7BE JUMPI RETURNDATASIZE PUSH1 0x0 DUP1 RETURNDATACOPY RETURNDATASIZE PUSH1 0x0 REVERT JUMPDEST POP POP POP POP PUSH1 0x40 MLOAD RETURNDATASIZE PUSH1 0x1F NOT PUSH1 0x1F DUP3 ADD AND DUP3 ADD DUP1 PUSH1 0x40 MSTORE POP DUP2 ADD SWAP1 PUSH2 0x7E2 SWAP2 SWAP1 PUSH2 0x173D JUMP JUMPDEST POP CALLER PUSH20 0xFFFFFFFFFFFFFFFFFFFFFFFFFFFFFFFFFFFFFFFF AND PUSH2 0x8FC DUP3 SWAP1 DUP2 ISZERO MUL SWAP1 PUSH1 0x40 MLOAD PUSH1 0x0 PUSH1 0x40 MLOAD DUP1 DUP4 SUB DUP2 DUP6 DUP9 DUP9 CALL SWAP4 POP POP POP POP ISZERO DUP1 ISZERO PUSH2 0x829 JUMPI RETURNDATASIZE PUSH1 0x0 DUP1 RETURNDATACOPY RETURNDATASIZE PUSH1 0x0 REVERT JUMPDEST POP POP PUSH2 0x964 JUMP JUMPDEST TIMESTAMP PUSH1 0xC PUSH1 0xD SLOAD PUSH2 0x840 SWAP2 SWAP1 PUSH2 0x1785 JUMP JUMPDEST PUSH32 0x0 PUSH2 0x86B SWAP2 SWAP1 PUSH2 0x162A JUMP JUMPDEST GT ISZERO PUSH2 0x8CB JUMPI PUSH1 0x0 PUSH2 0x87C DUP4 PUSH2 0xD1E JUMP JUMPDEST SWAP1 POP CALLER PUSH20 0xFFFFFFFFFFFFFFFFFFFFFFFFFFFFFFFFFFFFFFFF AND PUSH2 0x8FC DUP3 SWAP1 DUP2 ISZERO MUL SWAP1 PUSH1 0x40 MLOAD PUSH1 0x0 PUSH1 0x40 MLOAD DUP1 DUP4 SUB DUP2 DUP6 DUP9 DUP9 CALL SWAP4 POP POP POP POP ISZERO DUP1 ISZERO PUSH2 0x8C4 JUMPI RETURNDATASIZE PUSH1 0x0 DUP1 RETURNDATACOPY RETURNDATASIZE PUSH1 0x0 REVERT JUMPDEST POP POP PUSH2 0x963 JUMP JUMPDEST TIMESTAMP PUSH1 0x6 PUSH1 0xD SLOAD PUSH2 0x8DB SWAP2 SWAP1 PUSH2 0x1785 JUMP JUMPDEST PUSH32 0x0 PUSH2 0x906 SWAP2 SWAP1 PUSH2 0x162A JUMP JUMPDEST GT ISZERO PUSH2 0x962 JUMPI PUSH1 0x0 PUSH2 0x917 DUP4 PUSH2 0xD1E JUMP JUMPDEST SWAP1 POP CALLER PUSH20 0xFFFFFFFFFFFFFFFFFFFFFFFFFFFFFFFFFFFFFFFF AND PUSH2 0x8FC DUP3 SWAP1 DUP2 ISZERO MUL SWAP1 PUSH1 0x40 MLOAD PUSH1 0x0 PUSH1 0x40 MLOAD DUP1 DUP4 SUB DUP2 DUP6 DUP9 DUP9 CALL SWAP4 POP POP POP POP ISZERO DUP1 ISZERO PUSH2 0x95F JUMPI RETURNDATASIZE PUSH1 0x0 DUP1 RETURNDATACOPY RETURNDATASIZE PUSH1 0x0 REVERT JUMPDEST POP POP JUMPDEST JUMPDEST JUMPDEST POP POP JUMP JUMPDEST PUSH2 0x971 DUP3 PUSH2 0x687 JUMP JUMPDEST PUSH2 0x97A DUP2 PUSH2 0xD0A JUMP JUMPDEST PUSH2 0x984 DUP4 DUP4 PUSH2 0xD41 JUMP JUMPDEST POP POP POP JUMP JUMPDEST PUSH2 0x991 PUSH2 0xE21 JUMP JUMPDEST PUSH20 0xFFFFFFFFFFFFFFFFFFFFFFFFFFFFFFFFFFFFFFFF AND DUP2 PUSH20 0xFFFFFFFFFFFFFFFFFFFFFFFFFFFFFFFFFFFFFFFF AND EQ PUSH2 0x9FE JUMPI PUSH1 0x40 MLOAD PUSH32 0x8C379A000000000000000000000000000000000000000000000000000000000 DUP2 MSTORE PUSH1 0x4 ADD PUSH2 0x9F5 SWAP1 PUSH2 0x1839 JUMP JUMPDEST PUSH1 0x40 MLOAD DUP1 SWAP2 SUB SWAP1 REVERT JUMPDEST PUSH2 0xA08 DUP3 DUP3 PUSH2 0xE29 JUMP JUMPDEST POP POP JUMP JUMPDEST PUSH1 0x5 SLOAD TIMESTAMP LT PUSH2 0xA50 JUMPI PUSH1 0x40 MLOAD PUSH32 0x8C379A000000000000000000000000000000000000000000000000000000000 DUP2 MSTORE PUSH1 0x4 ADD PUSH2 0xA47 SWAP1 PUSH2 0x156F JUMP JUMPDEST PUSH1 0x40 MLOAD DUP1 SWAP2 SUB SWAP1 REVERT JUMPDEST PUSH32 0x3C11D16CBAFFD01DF69CE1C404F6340EE057498F5F00246190EA54220576A848 PUSH2 0xA7A DUP2 PUSH2 0xD0A JUMP JUMPDEST PUSH1 0xC PUSH1 0x0 SWAP1 SLOAD SWAP1 PUSH2 0x100 EXP SWAP1 DIV PUSH1 0xFF AND ISZERO PUSH2 0xACA JUMPI PUSH1 0x40 MLOAD PUSH32 0x8C379A000000000000000000000000000000000000000000000000000000000 DUP2 MSTORE PUSH1 0x4 ADD PUSH2 0xAC1 SWAP1 PUSH2 0x18A5 JUMP JUMPDEST PUSH1 0x40 MLOAD DUP1 SWAP2 SUB SWAP1 REVERT JUMPDEST PUSH1 0x0 PUSH2 0xAE3 PUSH1 0x9 SLOAD PUSH1 0x7 SLOAD PUSH2 0xF0A SWAP1 SWAP2 SWAP1 PUSH4 0xFFFFFFFF AND JUMP JUMPDEST SWAP1 POP PUSH1 0x6 PUSH1 0x0 SWAP1 SLOAD SWAP1 PUSH2 0x100 EXP SWAP1 DIV PUSH20 0xFFFFFFFFFFFFFFFFFFFFFFFFFFFFFFFFFFFFFFFF AND PUSH20 0xFFFFFFFFFFFFFFFFFFFFFFFFFFFFFFFFFFFFFFFF AND PUSH4 0x42966C68 DUP3 PUSH1 0x40 MLOAD DUP3 PUSH4 0xFFFFFFFF AND PUSH1 0xE0 SHL DUP2 MSTORE PUSH1 0x4 ADD PUSH2 0xB40 SWAP2 SWAP1 PUSH2 0x176A JUMP JUMPDEST PUSH1 0x0 PUSH1 0x40 MLOAD DUP1 DUP4 SUB DUP2 PUSH1 0x0 DUP8 DUP1 EXTCODESIZE ISZERO DUP1 ISZERO PUSH2 0xB5A JUMPI PUSH1 0x0 DUP1 REVERT JUMPDEST POP GAS CALL ISZERO DUP1 ISZERO PUSH2 0xB6E JUMPI RETURNDATASIZE PUSH1 0x0 DUP1 RETURNDATACOPY RETURNDATASIZE PUSH1 0x0 REVERT JUMPDEST POP POP POP POP POP PUSH1 0x1 PUSH1 0xC PUSH1 0x0 PUSH2 0x100 EXP DUP2 SLOAD DUP2 PUSH1 0xFF MUL NOT AND SWAP1 DUP4 ISZERO ISZERO MUL OR SWAP1 SSTORE POP POP JUMP JUMPDEST PUSH1 0x0 PUSH1 0xC PUSH1 0x0 SWAP1 SLOAD SWAP1 PUSH2 0x100 EXP SWAP1 DIV PUSH1 0xFF AND SWAP1 POP SWAP1 JUMP JUMPDEST PUSH32 0xB165298935924F540E4181C03493A5D686C54A0AAEB3F6216DE85B7FFBBA7738 DUP2 JUMP JUMPDEST PUSH1 0x0 DUP1 PUSH1 0x0 DUP5 DUP2 MSTORE PUSH1 0x20 ADD SWAP1 DUP2 MSTORE PUSH1 0x20 ADD PUSH1 0x0 KECCAK256 PUSH1 0x0 ADD PUSH1 0x0 DUP4 PUSH20 0xFFFFFFFFFFFFFFFFFFFFFFFFFFFFFFFFFFFFFFFF AND PUSH20 0xFFFFFFFFFFFFFFFFFFFFFFFFFFFFFFFFFFFFFFFF AND DUP2 MSTORE PUSH1 0x20 ADD SWAP1 DUP2 MSTORE PUSH1 0x20 ADD PUSH1 0x0 KECCAK256 PUSH1 0x0 SWAP1 SLOAD SWAP1 PUSH2 0x100 EXP SWAP1 DIV PUSH1 0xFF AND SWAP1 POP SWAP3 SWAP2 POP POP JUMP JUMPDEST PUSH1 0x0 DUP1 SHL DUP2 JUMP JUMPDEST PUSH32 0x305786AB5904B5BB20FE6D91992844B39D648CDCB82F328EDC2D6A80BFBB3289 DUP2 JUMP JUMPDEST PUSH2 0xC6A DUP3 PUSH2 0x687 JUMP JUMPDEST PUSH2 0xC73 DUP2 PUSH2 0xD0A JUMP JUMPDEST PUSH2 0xC7D DUP4 DUP4 PUSH2 0xE29 JUMP JUMPDEST POP POP POP JUMP JUMPDEST PUSH1 0x0 PUSH2 0xC99 PUSH1 0xA SLOAD DUP4 PUSH2 0xF20 SWAP1 SWAP2 SWAP1 PUSH4 0xFFFFFFFF AND JUMP JUMPDEST SWAP1 POP SWAP2 SWAP1 POP JUMP JUMPDEST PUSH1 0x0 PUSH32 0x1FFC9A700000000000000000000000000000000000000000000000000000000 PUSH28 0xFFFFFFFFFFFFFFFFFFFFFFFFFFFFFFFFFFFFFFFFFFFFFFFFFFFFFFFF NOT AND DUP3 PUSH28 0xFFFFFFFFFFFFFFFFFFFFFFFFFFFFFFFFFFFFFFFFFFFFFFFFFFFFFFFF NOT AND EQ SWAP1 POP SWAP2 SWAP1 POP JUMP JUMPDEST PUSH2 0xD1B DUP2 PUSH2 0xD16 PUSH2 0xE21 JUMP JUMPDEST PUSH2 0xF36 JUMP JUMPDEST POP JUMP JUMPDEST PUSH1 0x0 PUSH2 0xD3A PUSH2 0xD2B PUSH2 0xFBB JUMP JUMPDEST DUP4 PUSH2 0xF20 SWAP1 SWAP2 SWAP1 PUSH4 0xFFFFFFFF AND JUMP JUMPDEST SWAP1 POP SWAP2 SWAP1 POP JUMP JUMPDEST PUSH2 0xD4B DUP3 DUP3 PUSH2 0xBCC JUMP JUMPDEST PUSH2 0xE1D JUMPI PUSH1 0x1 PUSH1 0x0 DUP1 DUP5 DUP2 MSTORE PUSH1 0x20 ADD SWAP1 DUP2 MSTORE PUSH1 0x20 ADD PUSH1 0x0 KECCAK256 PUSH1 0x0 ADD PUSH1 0x0 DUP4 PUSH20 0xFFFFFFFFFFFFFFFFFFFFFFFFFFFFFFFFFFFFFFFF AND PUSH20 0xFFFFFFFFFFFFFFFFFFFFFFFFFFFFFFFFFFFFFFFF AND DUP2 MSTORE PUSH1 0x20 ADD SWAP1 DUP2 MSTORE PUSH1 0x20 ADD PUSH1 0x0 KECCAK256 PUSH1 0x0 PUSH2 0x100 EXP DUP2 SLOAD DUP2 PUSH1 0xFF MUL NOT AND SWAP1 DUP4 ISZERO ISZERO MUL OR SWAP1 SSTORE POP PUSH2 0xDC2 PUSH2 0xE21 JUMP JUMPDEST PUSH20 0xFFFFFFFFFFFFFFFFFFFFFFFFFFFFFFFFFFFFFFFF AND DUP2 PUSH20 0xFFFFFFFFFFFFFFFFFFFFFFFFFFFFFFFFFFFFFFFF AND DUP4 PUSH32 0x2F8788117E7EFF1D82E926EC794901D17C78024A50270940304540A733656F0D PUSH1 0x40 MLOAD PUSH1 0x40 MLOAD DUP1 SWAP2 SUB SWAP1 LOG4 JUMPDEST POP POP JUMP JUMPDEST PUSH1 0x0 CALLER SWAP1 POP SWAP1 JUMP JUMPDEST PUSH2 0xE33 DUP3 DUP3 PUSH2 0xBCC JUMP JUMPDEST ISZERO PUSH2 0xF06 JUMPI PUSH1 0x0 DUP1 PUSH1 0x0 DUP5 DUP2 MSTORE PUSH1 0x20 ADD SWAP1 DUP2 MSTORE PUSH1 0x20 ADD PUSH1 0x0 KECCAK256 PUSH1 0x0 ADD PUSH1 0x0 DUP4 PUSH20 0xFFFFFFFFFFFFFFFFFFFFFFFFFFFFFFFFFFFFFFFF AND PUSH20 0xFFFFFFFFFFFFFFFFFFFFFFFFFFFFFFFFFFFFFFFF AND DUP2 MSTORE PUSH1 0x20 ADD SWAP1 DUP2 MSTORE PUSH1 0x20 ADD PUSH1 0x0 KECCAK256 PUSH1 0x0 PUSH2 0x100 EXP DUP2 SLOAD DUP2 PUSH1 0xFF MUL NOT AND SWAP1 DUP4 ISZERO ISZERO MUL OR SWAP1 SSTORE POP PUSH2 0xEAB PUSH2 0xE21 JUMP JUMPDEST PUSH20 0xFFFFFFFFFFFFFFFFFFFFFFFFFFFFFFFFFFFFFFFF AND DUP2 PUSH20 0xFFFFFFFFFFFFFFFFFFFFFFFFFFFFFFFFFFFFFFFF AND DUP4 PUSH32 0xF6391F5C32D9C69D2A47EA670B442974B53935D1EDC7FD64EB21E047A839171B PUSH1 0x40 MLOAD PUSH1 0x40 MLOAD DUP1 SWAP2 SUB SWAP1 LOG4 JUMPDEST POP POP JUMP JUMPDEST PUSH1 0x0 DUP2 DUP4 PUSH2 0xF18 SWAP2 SWAP1 PUSH2 0x18C5 JUMP JUMPDEST SWAP1 POP SWAP3 SWAP2 POP POP JUMP JUMPDEST PUSH1 0x0 DUP2 DUP4 PUSH2 0xF2E SWAP2 SWAP1 PUSH2 0x1785 JUMP JUMPDEST SWAP1 POP SWAP3 SWAP2 POP POP JUMP JUMPDEST PUSH2 0xF40 DUP3 DUP3 PUSH2 0xBCC JUMP JUMPDEST PUSH2 0xFB7 JUMPI PUSH2 0xF4D DUP2 PUSH2 0xFD9 JUMP JUMPDEST PUSH2 0xF5B DUP4 PUSH1 0x0 SHR PUSH1 0x20 PUSH2 0x1006 JUMP JUMPDEST PUSH1 0x40 MLOAD PUSH1 0x20 ADD PUSH2 0xF6C SWAP3 SWAP2 SWAP1 PUSH2 0x1A02 JUMP JUMPDEST PUSH1 0x40 MLOAD PUSH1 0x20 DUP2 DUP4 SUB SUB DUP2 MSTORE SWAP1 PUSH1 0x40 MSTORE PUSH1 0x40 MLOAD PUSH32 0x8C379A000000000000000000000000000000000000000000000000000000000 DUP2 MSTORE PUSH1 0x4 ADD PUSH2 0xFAE SWAP2 SWAP1 PUSH2 0x1A86 JUMP JUMPDEST PUSH1 0x40 MLOAD DUP1 SWAP2 SUB SWAP1 REVERT JUMPDEST POP POP JUMP JUMPDEST PUSH1 0x0 PUSH2 0xFD4 PUSH1 0x7 SLOAD PUSH1 0x9 SLOAD PUSH2 0x1242 SWAP1 SWAP2 SWAP1 PUSH4 0xFFFFFFFF AND JUMP JUMPDEST SWAP1 POP SWAP1 JUMP JUMPDEST PUSH1 0x60 PUSH2 0xFFF DUP3 PUSH20 0xFFFFFFFFFFFFFFFFFFFFFFFFFFFFFFFFFFFFFFFF AND PUSH1 0x14 PUSH1 0xFF AND PUSH2 0x1006 JUMP JUMPDEST SWAP1 POP SWAP2 SWAP1 POP JUMP JUMPDEST PUSH1 0x60 PUSH1 0x0 PUSH1 0x2 DUP4 PUSH1 0x2 PUSH2 0x1019 SWAP2 SWAP1 PUSH2 0x1785 JUMP JUMPDEST PUSH2 0x1023 SWAP2 SWAP1 PUSH2 0x162A JUMP JUMPDEST PUSH8 0xFFFFFFFFFFFFFFFF DUP2 GT ISZERO PUSH2 0x103C JUMPI PUSH2 0x103B PUSH2 0x1AA8 JUMP JUMPDEST JUMPDEST PUSH1 0x40 MLOAD SWAP1 DUP1 DUP3 MSTORE DUP1 PUSH1 0x1F ADD PUSH1 0x1F NOT AND PUSH1 0x20 ADD DUP3 ADD PUSH1 0x40 MSTORE DUP1 ISZERO PUSH2 0x106E JUMPI DUP2 PUSH1 0x20 ADD PUSH1 0x1 DUP3 MUL DUP1 CALLDATASIZE DUP4 CALLDATACOPY DUP1 DUP3 ADD SWAP2 POP POP SWAP1 POP JUMPDEST POP SWAP1 POP PUSH32 0x3000000000000000000000000000000000000000000000000000000000000000 DUP2 PUSH1 0x0 DUP2 MLOAD DUP2 LT PUSH2 0x10A6 JUMPI PUSH2 0x10A5 PUSH2 0x1AD7 JUMP JUMPDEST JUMPDEST PUSH1 0x20 ADD ADD SWAP1 PUSH31 0xFFFFFFFFFFFFFFFFFFFFFFFFFFFFFFFFFFFFFFFFFFFFFFFFFFFFFFFFFFFFFF NOT AND SWAP1 DUP2 PUSH1 0x0 BYTE SWAP1 MSTORE8 POP PUSH32 0x7800000000000000000000000000000000000000000000000000000000000000 DUP2 PUSH1 0x1 DUP2 MLOAD DUP2 LT PUSH2 0x110A JUMPI PUSH2 0x1109 PUSH2 0x1AD7 JUMP JUMPDEST JUMPDEST PUSH1 0x20 ADD ADD SWAP1 PUSH31 0xFFFFFFFFFFFFFFFFFFFFFFFFFFFFFFFFFFFFFFFFFFFFFFFFFFFFFFFFFFFFFF NOT AND SWAP1 DUP2 PUSH1 0x0 BYTE SWAP1 MSTORE8 POP PUSH1 0x0 PUSH1 0x1 DUP5 PUSH1 0x2 PUSH2 0x114A SWAP2 SWAP1 PUSH2 0x1785 JUMP JUMPDEST PUSH2 0x1154 SWAP2 SWAP1 PUSH2 0x162A JUMP JUMPDEST SWAP1 POP JUMPDEST PUSH1 0x1 DUP2 GT ISZERO PUSH2 0x11F4 JUMPI PUSH32 0x3031323334353637383961626364656600000000000000000000000000000000 PUSH1 0xF DUP7 AND PUSH1 0x10 DUP2 LT PUSH2 0x1196 JUMPI PUSH2 0x1195 PUSH2 0x1AD7 JUMP JUMPDEST JUMPDEST BYTE PUSH1 0xF8 SHL DUP3 DUP3 DUP2 MLOAD DUP2 LT PUSH2 0x11AD JUMPI PUSH2 0x11AC PUSH2 0x1AD7 JUMP JUMPDEST JUMPDEST PUSH1 0x20 ADD ADD SWAP1 PUSH31 0xFFFFFFFFFFFFFFFFFFFFFFFFFFFFFFFFFFFFFFFFFFFFFFFFFFFFFFFFFFFFFF NOT AND SWAP1 DUP2 PUSH1 0x0 BYTE SWAP1 MSTORE8 POP PUSH1 0x4 DUP6 SWAP1 SHR SWAP5 POP DUP1 PUSH2 0x11ED SWAP1 PUSH2 0x1B06 JUMP JUMPDEST SWAP1 POP PUSH2 0x1157 JUMP JUMPDEST POP PUSH1 0x0 DUP5 EQ PUSH2 0x1238 JUMPI PUSH1 0x40 MLOAD PUSH32 0x8C379A000000000000000000000000000000000000000000000000000000000 DUP2 MSTORE PUSH1 0x4 ADD PUSH2 0x122F SWAP1 PUSH2 0x1B7B JUMP JUMPDEST PUSH1 0x40 MLOAD DUP1 SWAP2 SUB SWAP1 REVERT JUMPDEST DUP1 SWAP2 POP POP SWAP3 SWAP2 POP POP JUMP JUMPDEST PUSH1 0x0 DUP2 DUP4 PUSH2 0x1250 SWAP2 SWAP1 PUSH2 0x1BCA JUMP JUMPDEST SWAP1 POP SWAP3 SWAP2 POP POP JUMP JUMPDEST PUSH1 0x0 DUP3 DUP3 MSTORE PUSH1 0x20 DUP3 ADD SWAP1 POP SWAP3 SWAP2 POP POP JUMP JUMPDEST PUSH32 0x66616C6C6261636B206869740000000000000000000000000000000000000000 PUSH1 0x0 DUP3 ADD MSTORE POP JUMP JUMPDEST PUSH1 0x0 PUSH2 0x129F PUSH1 0xC DUP4 PUSH2 0x1258 JUMP JUMPDEST SWAP2 POP PUSH2 0x12AA DUP3 PUSH2 0x1269 JUMP JUMPDEST PUSH1 0x20 DUP3 ADD SWAP1 POP SWAP2 SWAP1 POP JUMP JUMPDEST PUSH1 0x0 PUSH1 0x20 DUP3 ADD SWAP1 POP DUP2 DUP2 SUB PUSH1 0x0 DUP4 ADD MSTORE PUSH2 0x12CE DUP2 PUSH2 0x1292 JUMP JUMPDEST SWAP1 POP SWAP2 SWAP1 POP JUMP JUMPDEST PUSH1 0x0 DUP1 REVERT JUMPDEST PUSH1 0x0 PUSH32 0xFFFFFFFF00000000000000000000000000000000000000000000000000000000 DUP3 AND SWAP1 POP SWAP2 SWAP1 POP JUMP JUMPDEST PUSH2 0x130F DUP2 PUSH2 0x12DA JUMP JUMPDEST DUP2 EQ PUSH2 0x131A JUMPI PUSH1 0x0 DUP1 REVERT JUMPDEST POP JUMP JUMPDEST PUSH1 0x0 DUP2 CALLDATALOAD SWAP1 POP PUSH2 0x132C DUP2 PUSH2 0x1306 JUMP JUMPDEST SWAP3 SWAP2 POP POP JUMP JUMPDEST PUSH1 0x0 PUSH1 0x20 DUP3 DUP5 SUB SLT ISZERO PUSH2 0x1348 JUMPI PUSH2 0x1347 PUSH2 0x12D5 JUMP JUMPDEST JUMPDEST PUSH1 0x0 PUSH2 0x1356 DUP5 DUP3 DUP6 ADD PUSH2 0x131D JUMP JUMPDEST SWAP2 POP POP SWAP3 SWAP2 POP POP JUMP JUMPDEST PUSH1 0x0 DUP2 ISZERO ISZERO SWAP1 POP SWAP2 SWAP1 POP JUMP JUMPDEST PUSH2 0x1374 DUP2 PUSH2 0x135F JUMP JUMPDEST DUP3 MSTORE POP POP JUMP JUMPDEST PUSH1 0x0 PUSH1 0x20 DUP3 ADD SWAP1 POP PUSH2 0x138F PUSH1 0x0 DUP4 ADD DUP5 PUSH2 0x136B JUMP JUMPDEST SWAP3 SWAP2 POP POP JUMP JUMPDEST PUSH1 0x0 DUP2 SWAP1 POP SWAP2 SWAP1 POP JUMP JUMPDEST PUSH2 0x13A8 DUP2 PUSH2 0x1395 JUMP JUMPDEST DUP2 EQ PUSH2 0x13B3 JUMPI PUSH1 0x0 DUP1 REVERT JUMPDEST POP JUMP JUMPDEST PUSH1 0x0 DUP2 CALLDATALOAD SWAP1 POP PUSH2 0x13C5 DUP2 PUSH2 0x139F JUMP JUMPDEST SWAP3 SWAP2 POP POP JUMP JUMPDEST PUSH1 0x0 PUSH1 0x20 DUP3 DUP5 SUB SLT ISZERO PUSH2 0x13E1 JUMPI PUSH2 0x13E0 PUSH2 0x12D5 JUMP JUMPDEST JUMPDEST PUSH1 0x0 PUSH2 0x13EF DUP5 DUP3 DUP6 ADD PUSH2 0x13B6 JUMP JUMPDEST SWAP2 POP POP SWAP3 SWAP2 POP POP JUMP JUMPDEST PUSH2 0x1401 DUP2 PUSH2 0x1395 JUMP JUMPDEST DUP3 MSTORE POP POP JUMP JUMPDEST PUSH1 0x0 PUSH1 0x20 DUP3 ADD SWAP1 POP PUSH2 0x141C PUSH1 0x0 DUP4 ADD DUP5 PUSH2 0x13F8 JUMP JUMPDEST SWAP3 SWAP2 POP POP JUMP JUMPDEST PUSH1 0x0 DUP2 SWAP1 POP SWAP2 SWAP1 POP JUMP JUMPDEST PUSH2 0x1435 DUP2 PUSH2 0x1422 JUMP JUMPDEST DUP2 EQ PUSH2 0x1440 JUMPI PUSH1 0x0 DUP1 REVERT JUMPDEST POP JUMP JUMPDEST PUSH1 0x0 DUP2 CALLDATALOAD SWAP1 POP PUSH2 0x1452 DUP2 PUSH2 0x142C JUMP JUMPDEST SWAP3 SWAP2 POP POP JUMP JUMPDEST PUSH1 0x0 PUSH1 0x20 DUP3 DUP5 SUB SLT ISZERO PUSH2 0x146E JUMPI PUSH2 0x146D PUSH2 0x12D5 JUMP JUMPDEST JUMPDEST PUSH1 0x0 PUSH2 0x147C DUP5 DUP3 DUP6 ADD PUSH2 0x1443 JUMP JUMPDEST SWAP2 POP POP SWAP3 SWAP2 POP POP JUMP JUMPDEST PUSH1 0x0 PUSH20 0xFFFFFFFFFFFFFFFFFFFFFFFFFFFFFFFFFFFFFFFF DUP3 AND SWAP1 POP SWAP2 SWAP1 POP JUMP JUMPDEST PUSH1 0x0 PUSH2 0x14B0 DUP3 PUSH2 0x1485 JUMP JUMPDEST SWAP1 POP SWAP2 SWAP1 POP JUMP JUMPDEST PUSH2 0x14C0 DUP2 PUSH2 0x14A5 JUMP JUMPDEST DUP2 EQ PUSH2 0x14CB JUMPI PUSH1 0x0 DUP1 REVERT JUMPDEST POP JUMP JUMPDEST PUSH1 0x0 DUP2 CALLDATALOAD SWAP1 POP PUSH2 0x14DD DUP2 PUSH2 0x14B7 JUMP JUMPDEST SWAP3 SWAP2 POP POP JUMP JUMPDEST PUSH1 0x0 DUP1 PUSH1 0x40 DUP4 DUP6 SUB SLT ISZERO PUSH2 0x14FA JUMPI PUSH2 0x14F9 PUSH2 0x12D5 JUMP JUMPDEST JUMPDEST PUSH1 0x0 PUSH2 0x1508 DUP6 DUP3 DUP7 ADD PUSH2 0x13B6 JUMP JUMPDEST SWAP3 POP POP PUSH1 0x20 PUSH2 0x1519 DUP6 DUP3 DUP7 ADD PUSH2 0x14CE JUMP JUMPDEST SWAP2 POP POP SWAP3 POP SWAP3 SWAP1 POP JUMP JUMPDEST PUSH32 0x49434F206973206F766572203A28200000000000000000000000000000000000 PUSH1 0x0 DUP3 ADD MSTORE POP JUMP JUMPDEST PUSH1 0x0 PUSH2 0x1559 PUSH1 0xF DUP4 PUSH2 0x1258 JUMP JUMPDEST SWAP2 POP PUSH2 0x1564 DUP3 PUSH2 0x1523 JUMP JUMPDEST PUSH1 0x20 DUP3 ADD SWAP1 POP SWAP2 SWAP1 POP JUMP JUMPDEST PUSH1 0x0 PUSH1 0x20 DUP3 ADD SWAP1 POP DUP2 DUP2 SUB PUSH1 0x0 DUP4 ADD MSTORE PUSH2 0x1588 DUP2 PUSH2 0x154C JUMP JUMPDEST SWAP1 POP SWAP2 SWAP1 POP JUMP JUMPDEST PUSH32 0x7468656D2F7468657920706C656173652073656E64206D657469730000000000 PUSH1 0x0 DUP3 ADD MSTORE POP JUMP JUMPDEST PUSH1 0x0 PUSH2 0x15C5 PUSH1 0x1B DUP4 PUSH2 0x1258 JUMP JUMPDEST SWAP2 POP PUSH2 0x15D0 DUP3 PUSH2 0x158F JUMP JUMPDEST PUSH1 0x20 DUP3 ADD SWAP1 POP SWAP2 SWAP1 POP JUMP JUMPDEST PUSH1 0x0 PUSH1 0x20 DUP3 ADD SWAP1 POP DUP2 DUP2 SUB PUSH1 0x0 DUP4 ADD MSTORE PUSH2 0x15F4 DUP2 PUSH2 0x15B8 JUMP JUMPDEST SWAP1 POP SWAP2 SWAP1 POP JUMP JUMPDEST PUSH32 0x4E487B7100000000000000000000000000000000000000000000000000000000 PUSH1 0x0 MSTORE PUSH1 0x11 PUSH1 0x4 MSTORE PUSH1 0x24 PUSH1 0x0 REVERT JUMPDEST PUSH1 0x0 PUSH2 0x1635 DUP3 PUSH2 0x1422 JUMP JUMPDEST SWAP2 POP PUSH2 0x1640 DUP4 PUSH2 0x1422 JUMP JUMPDEST SWAP3 POP DUP3 DUP3 ADD SWAP1 POP DUP1 DUP3 GT ISZERO PUSH2 0x1658 JUMPI PUSH2 0x1657 PUSH2 0x15FB JUMP JUMPDEST JUMPDEST SWAP3 SWAP2 POP POP JUMP JUMPDEST PUSH32 0x657863656564732074686520746F74616C20666F722073616C65000000000000 PUSH1 0x0 DUP3 ADD MSTORE POP JUMP JUMPDEST PUSH1 0x0 PUSH2 0x1694 PUSH1 0x1A DUP4 PUSH2 0x1258 JUMP JUMPDEST SWAP2 POP PUSH2 0x169F DUP3 PUSH2 0x165E JUMP JUMPDEST PUSH1 0x20 DUP3 ADD SWAP1 POP SWAP2 SWAP1 POP JUMP JUMPDEST PUSH1 0x0 PUSH1 0x20 DUP3 ADD SWAP1 POP DUP2 DUP2 SUB PUSH1 0x0 DUP4 ADD MSTORE PUSH2 0x16C3 DUP2 PUSH2 0x1687 JUMP JUMPDEST SWAP1 POP SWAP2 SWAP1 POP JUMP JUMPDEST PUSH2 0x16D3 DUP2 PUSH2 0x14A5 JUMP JUMPDEST DUP3 MSTORE POP POP JUMP JUMPDEST PUSH2 0x16E2 DUP2 PUSH2 0x1422 JUMP JUMPDEST DUP3 MSTORE POP POP JUMP JUMPDEST PUSH1 0x0 PUSH1 0x40 DUP3 ADD SWAP1 POP PUSH2 0x16FD PUSH1 0x0 DUP4 ADD DUP6 PUSH2 0x16CA JUMP JUMPDEST PUSH2 0x170A PUSH1 0x20 DUP4 ADD DUP5 PUSH2 0x16D9 JUMP JUMPDEST SWAP4 SWAP3 POP POP POP JUMP JUMPDEST PUSH2 0x171A DUP2 PUSH2 0x135F JUMP JUMPDEST DUP2 EQ PUSH2 0x1725 JUMPI PUSH1 0x0 DUP1 REVERT JUMPDEST POP JUMP JUMPDEST PUSH1 0x0 DUP2 MLOAD SWAP1 POP PUSH2 0x1737 DUP2 PUSH2 0x1711 JUMP JUMPDEST SWAP3 SWAP2 POP POP JUMP JUMPDEST PUSH1 0x0 PUSH1 0x20 DUP3 DUP5 SUB SLT ISZERO PUSH2 0x1753 JUMPI PUSH2 0x1752 PUSH2 0x12D5 JUMP JUMPDEST JUMPDEST PUSH1 0x0 PUSH2 0x1761 DUP5 DUP3 DUP6 ADD PUSH2 0x1728 JUMP JUMPDEST SWAP2 POP POP SWAP3 SWAP2 POP POP JUMP JUMPDEST PUSH1 0x0 PUSH1 0x20 DUP3 ADD SWAP1 POP PUSH2 0x177F PUSH1 0x0 DUP4 ADD DUP5 PUSH2 0x16D9 JUMP JUMPDEST SWAP3 SWAP2 POP POP JUMP JUMPDEST PUSH1 0x0 PUSH2 0x1790 DUP3 PUSH2 0x1422 JUMP JUMPDEST SWAP2 POP PUSH2 0x179B DUP4 PUSH2 0x1422 JUMP JUMPDEST SWAP3 POP DUP3 DUP3 MUL PUSH2 0x17A9 DUP2 PUSH2 0x1422 JUMP JUMPDEST SWAP2 POP DUP3 DUP3 DIV DUP5 EQ DUP4 ISZERO OR PUSH2 0x17C0 JUMPI PUSH2 0x17BF PUSH2 0x15FB JUMP JUMPDEST JUMPDEST POP SWAP3 SWAP2 POP POP JUMP JUMPDEST PUSH32 0x416363657373436F6E74726F6C3A2063616E206F6E6C792072656E6F756E6365 PUSH1 0x0 DUP3 ADD MSTORE PUSH32 0x20726F6C657320666F722073656C660000000000000000000000000000000000 PUSH1 0x20 DUP3 ADD MSTORE POP JUMP JUMPDEST PUSH1 0x0 PUSH2 0x1823 PUSH1 0x2F DUP4 PUSH2 0x1258 JUMP JUMPDEST SWAP2 POP PUSH2 0x182E DUP3 PUSH2 0x17C7 JUMP JUMPDEST PUSH1 0x40 DUP3 ADD SWAP1 POP SWAP2 SWAP1 POP JUMP JUMPDEST PUSH1 0x0 PUSH1 0x20 DUP3 ADD SWAP1 POP DUP2 DUP2 SUB PUSH1 0x0 DUP4 ADD MSTORE PUSH2 0x1852 DUP2 PUSH2 0x1816 JUMP JUMPDEST SWAP1 POP SWAP2 SWAP1 POP JUMP JUMPDEST PUSH32 0x74686520737570706C7920697320616C7265616479206275726E656400000000 PUSH1 0x0 DUP3 ADD MSTORE POP JUMP JUMPDEST PUSH1 0x0 PUSH2 0x188F PUSH1 0x1C DUP4 PUSH2 0x1258 JUMP JUMPDEST SWAP2 POP PUSH2 0x189A DUP3 PUSH2 0x1859 JUMP JUMPDEST PUSH1 0x20 DUP3 ADD SWAP1 POP SWAP2 SWAP1 POP JUMP JUMPDEST PUSH1 0x0 PUSH1 0x20 DUP3 ADD SWAP1 POP DUP2 DUP2 SUB PUSH1 0x0 DUP4 ADD MSTORE PUSH2 0x18BE DUP2 PUSH2 0x1882 JUMP JUMPDEST SWAP1 POP SWAP2 SWAP1 POP JUMP JUMPDEST PUSH1 0x0 PUSH2 0x18D0 DUP3 PUSH2 0x1422 JUMP JUMPDEST SWAP2 POP PUSH2 0x18DB DUP4 PUSH2 0x1422 JUMP JUMPDEST SWAP3 POP DUP3 DUP3 SUB SWAP1 POP DUP2 DUP2 GT ISZERO PUSH2 0x18F3 JUMPI PUSH2 0x18F2 PUSH2 0x15FB JUMP JUMPDEST JUMPDEST SWAP3 SWAP2 POP POP JUMP JUMPDEST PUSH1 0x0 DUP2 SWAP1 POP SWAP3 SWAP2 POP POP JUMP JUMPDEST PUSH32 0x416363657373436F6E74726F6C3A206163636F756E7420000000000000000000 PUSH1 0x0 DUP3 ADD MSTORE POP JUMP JUMPDEST PUSH1 0x0 PUSH2 0x193A PUSH1 0x17 DUP4 PUSH2 0x18F9 JUMP JUMPDEST SWAP2 POP PUSH2 0x1945 DUP3 PUSH2 0x1904 JUMP JUMPDEST PUSH1 0x17 DUP3 ADD SWAP1 POP SWAP2 SWAP1 POP JUMP JUMPDEST PUSH1 0x0 DUP2 MLOAD SWAP1 POP SWAP2 SWAP1 POP JUMP JUMPDEST PUSH1 0x0 JUMPDEST DUP4 DUP2 LT ISZERO PUSH2 0x1979 JUMPI DUP1 DUP3 ADD MLOAD DUP2 DUP5 ADD MSTORE PUSH1 0x20 DUP2 ADD SWAP1 POP PUSH2 0x195E JUMP JUMPDEST PUSH1 0x0 DUP5 DUP5 ADD MSTORE POP POP POP POP JUMP JUMPDEST PUSH1 0x0 PUSH2 0x1990 DUP3 PUSH2 0x1950 JUMP JUMPDEST PUSH2 0x199A DUP2 DUP6 PUSH2 0x18F9 JUMP JUMPDEST SWAP4 POP PUSH2 0x19AA DUP2 DUP6 PUSH1 0x20 DUP7 ADD PUSH2 0x195B JUMP JUMPDEST DUP1 DUP5 ADD SWAP2 POP POP SWAP3 SWAP2 POP POP JUMP JUMPDEST PUSH32 0x206973206D697373696E6720726F6C6520000000000000000000000000000000 PUSH1 0x0 DUP3 ADD MSTORE POP JUMP JUMPDEST PUSH1 0x0 PUSH2 0x19EC PUSH1 0x11 DUP4 PUSH2 0x18F9 JUMP JUMPDEST SWAP2 POP PUSH2 0x19F7 DUP3 PUSH2 0x19B6 JUMP JUMPDEST PUSH1 0x11 DUP3 ADD SWAP1 POP SWAP2 SWAP1 POP JUMP JUMPDEST PUSH1 0x0 PUSH2 0x1A0D DUP3 PUSH2 0x192D JUMP JUMPDEST SWAP2 POP PUSH2 0x1A19 DUP3 DUP6 PUSH2 0x1985 JUMP JUMPDEST SWAP2 POP PUSH2 0x1A24 DUP3 PUSH2 0x19DF JUMP JUMPDEST SWAP2 POP PUSH2 0x1A30 DUP3 DUP5 PUSH2 0x1985 JUMP JUMPDEST SWAP2 POP DUP2 SWAP1 POP SWAP4 SWAP3 POP POP POP JUMP JUMPDEST PUSH1 0x0 PUSH1 0x1F NOT PUSH1 0x1F DUP4 ADD AND SWAP1 POP SWAP2 SWAP1 POP JUMP JUMPDEST PUSH1 0x0 PUSH2 0x1A58 DUP3 PUSH2 0x1950 JUMP JUMPDEST PUSH2 0x1A62 DUP2 DUP6 PUSH2 0x1258 JUMP JUMPDEST SWAP4 POP PUSH2 0x1A72 DUP2 DUP6 PUSH1 0x20 DUP7 ADD PUSH2 0x195B JUMP JUMPDEST PUSH2 0x1A7B DUP2 PUSH2 0x1A3C JUMP JUMPDEST DUP5 ADD SWAP2 POP POP SWAP3 SWAP2 POP POP JUMP JUMPDEST PUSH1 0x0 PUSH1 0x20 DUP3 ADD SWAP1 POP DUP2 DUP2 SUB PUSH1 0x0 DUP4 ADD MSTORE PUSH2 0x1AA0 DUP2 DUP5 PUSH2 0x1A4D JUMP JUMPDEST SWAP1 POP SWAP3 SWAP2 POP POP JUMP JUMPDEST PUSH32 0x4E487B7100000000000000000000000000000000000000000000000000000000 PUSH1 0x0 MSTORE PUSH1 0x41 PUSH1 0x4 MSTORE PUSH1 0x24 PUSH1 0x0 REVERT JUMPDEST PUSH32 0x4E487B7100000000000000000000000000000000000000000000000000000000 PUSH1 0x0 MSTORE PUSH1 0x32 PUSH1 0x4 MSTORE PUSH1 0x24 PUSH1 0x0 REVERT JUMPDEST PUSH1 0x0 PUSH2 0x1B11 DUP3 PUSH2 0x1422 JUMP JUMPDEST SWAP2 POP PUSH1 0x0 DUP3 SUB PUSH2 0x1B24 JUMPI PUSH2 0x1B23 PUSH2 0x15FB JUMP JUMPDEST JUMPDEST PUSH1 0x1 DUP3 SUB SWAP1 POP SWAP2 SWAP1 POP JUMP JUMPDEST PUSH32 0x537472696E67733A20686578206C656E67746820696E73756666696369656E74 PUSH1 0x0 DUP3 ADD MSTORE POP JUMP JUMPDEST PUSH1 0x0 PUSH2 0x1B65 PUSH1 0x20 DUP4 PUSH2 0x1258 JUMP JUMPDEST SWAP2 POP PUSH2 0x1B70 DUP3 PUSH2 0x1B2F JUMP JUMPDEST PUSH1 0x20 DUP3 ADD SWAP1 POP SWAP2 SWAP1 POP JUMP JUMPDEST PUSH1 0x0 PUSH1 0x20 DUP3 ADD SWAP1 POP DUP2 DUP2 SUB PUSH1 0x0 DUP4 ADD MSTORE PUSH2 0x1B94 DUP2 PUSH2 0x1B58 JUMP JUMPDEST SWAP1 POP SWAP2 SWAP1 POP JUMP JUMPDEST PUSH32 0x4E487B7100000000000000000000000000000000000000000000000000000000 PUSH1 0x0 MSTORE PUSH1 0x12 PUSH1 0x4 MSTORE PUSH1 0x24 PUSH1 0x0 REVERT JUMPDEST PUSH1 0x0 PUSH2 0x1BD5 DUP3 PUSH2 0x1422 JUMP JUMPDEST SWAP2 POP PUSH2 0x1BE0 DUP4 PUSH2 0x1422 JUMP JUMPDEST SWAP3 POP DUP3 PUSH2 0x1BF0 JUMPI PUSH2 0x1BEF PUSH2 0x1B9B JUMP JUMPDEST JUMPDEST DUP3 DUP3 DIV SWAP1 POP SWAP3 SWAP2 POP POP JUMP INVALID LOG2 PUSH5 0x6970667358 0x22 SLT KECCAK256 0xBC PUSH4 0x1EF16404 0xC6 0xBD CALLDATACOPY SGT CODECOPY LOG4 EXP 0xEC 0x1F 0xBE DUP11 0x22 SWAP7 0x1E SWAP3 0xAC 0xE5 0xEB SHR SWAP16 EQ PUSH8 0xCB38218664736F6C PUSH4 0x43000811 STOP CALLER "
				},
				"gasEstimates": {
					"creation": {
						"codeDepositCost": "1443400",
						"executionCost": "infinite",
						"totalCost": "infinite"
					},
					"external": {
						"BURNER_ROLE()": "397",
						"DEFAULT_ADMIN_ROLE()": "357",
						"EXTEND_ICO_ROLE()": "395",
						"INVESTOR_ROLE()": "374",
						"burned()": "2502",
						"buy()": "infinite",
						"endICO()": "infinite",
						"getRoleAdmin(bytes32)": "infinite",
						"grantRole(bytes32,address)": "infinite",
						"hasRole(bytes32,address)": "3207",
						"renounceRole(bytes32,address)": "infinite",
						"revokeRole(bytes32,address)": "infinite",
						"supportsInterface(bytes4)": "751",
						"withdraw(uint256)": "infinite"
					},
					"internal": {
						"conversion(uint256)": "infinite",
						"percentFromICO(uint256)": "infinite",
						"soldPercent()": "infinite"
					}
				},
				"methodIdentifiers": {
					"BURNER_ROLE()": "282c51f3",
					"DEFAULT_ADMIN_ROLE()": "a217fddf",
					"EXTEND_ICO_ROLE()": "b1ac51f8",
					"INVESTOR_ROLE()": "76082a5e",
					"burned()": "73f42561",
					"buy()": "a6f2ae3a",
					"endICO()": "4f248409",
					"getRoleAdmin(bytes32)": "248a9ca3",
					"grantRole(bytes32,address)": "2f2ff15d",
					"hasRole(bytes32,address)": "91d14854",
					"renounceRole(bytes32,address)": "36568abe",
					"revokeRole(bytes32,address)": "d547741f",
					"supportsInterface(bytes4)": "01ffc9a7",
					"withdraw(uint256)": "2e1a7d4d"
				}
			},
			"storageLayout": {
				"storage": [
					{
						"astId": 24,
						"contract": "contracts/ICO.sol:ICO",
						"label": "_roles",
						"offset": 0,
						"slot": "0",
						"type": "t_mapping(t_bytes32,t_struct(RoleData)19_storage)"
					},
					{
						"astId": 1825,
						"contract": "contracts/ICO.sol:ICO",
						"label": "owner",
						"offset": 0,
						"slot": "1",
						"type": "t_address_payable"
					},
					{
						"astId": 1827,
						"contract": "contracts/ICO.sol:ICO",
						"label": "devAddress",
						"offset": 0,
						"slot": "2",
						"type": "t_address_payable"
					},
					{
						"astId": 1833,
						"contract": "contracts/ICO.sol:ICO",
						"label": "minters_",
						"offset": 0,
						"slot": "3",
						"type": "t_array(t_address)dyn_storage"
					},
					{
						"astId": 1835,
						"contract": "contracts/ICO.sol:ICO",
						"label": "maxSupply_",
						"offset": 0,
						"slot": "4",
						"type": "t_uint256"
					},
					{
						"astId": 1838,
						"contract": "contracts/ICO.sol:ICO",
						"label": "timeLock",
						"offset": 0,
						"slot": "5",
						"type": "t_uint256"
					},
					{
						"astId": 1841,
						"contract": "contracts/ICO.sol:ICO",
						"label": "eftt",
						"offset": 0,
						"slot": "6",
						"type": "t_contract(IEFTT)2328"
					},
					{
						"astId": 1848,
						"contract": "contracts/ICO.sol:ICO",
						"label": "maxICO",
						"offset": 0,
						"slot": "7",
						"type": "t_uint256"
					},
					{
						"astId": 1850,
						"contract": "contracts/ICO.sol:ICO",
						"label": "SoldInMetis",
						"offset": 0,
						"slot": "8",
						"type": "t_uint256"
					},
					{
						"astId": 1852,
						"contract": "contracts/ICO.sol:ICO",
						"label": "SoldEFTT",
						"offset": 0,
						"slot": "9",
						"type": "t_uint256"
					},
					{
						"astId": 1855,
						"contract": "contracts/ICO.sol:ICO",
						"label": "ratioMetis",
						"offset": 0,
						"slot": "10",
						"type": "t_uint256"
					},
					{
						"astId": 1859,
						"contract": "contracts/ICO.sol:ICO",
						"label": "timeLocks",
						"offset": 0,
						"slot": "11",
						"type": "t_mapping(t_uint256,t_uint256)"
					},
					{
						"astId": 1862,
						"contract": "contracts/ICO.sol:ICO",
						"label": "BURNED",
						"offset": 0,
						"slot": "12",
						"type": "t_bool"
					},
					{
						"astId": 1864,
						"contract": "contracts/ICO.sol:ICO",
						"label": "locked",
						"offset": 1,
						"slot": "12",
						"type": "t_bool"
					},
					{
						"astId": 1867,
						"contract": "contracts/ICO.sol:ICO",
						"label": "month",
						"offset": 0,
						"slot": "13",
						"type": "t_uint256"
					},
					{
						"astId": 1870,
						"contract": "contracts/ICO.sol:ICO",
						"label": "week",
						"offset": 0,
						"slot": "14",
						"type": "t_uint256"
					},
					{
						"astId": 1874,
						"contract": "contracts/ICO.sol:ICO",
						"label": "ICOtimeLock",
						"offset": 0,
						"slot": "15",
						"type": "t_uint256"
					}
				],
				"types": {
					"t_address": {
						"encoding": "inplace",
						"label": "address",
						"numberOfBytes": "20"
					},
					"t_address_payable": {
						"encoding": "inplace",
						"label": "address payable",
						"numberOfBytes": "20"
					},
					"t_array(t_address)dyn_storage": {
						"base": "t_address",
						"encoding": "dynamic_array",
						"label": "address[]",
						"numberOfBytes": "32"
					},
					"t_bool": {
						"encoding": "inplace",
						"label": "bool",
						"numberOfBytes": "1"
					},
					"t_bytes32": {
						"encoding": "inplace",
						"label": "bytes32",
						"numberOfBytes": "32"
					},
					"t_contract(IEFTT)2328": {
						"encoding": "inplace",
						"label": "contract IEFTT",
						"numberOfBytes": "20"
					},
					"t_mapping(t_address,t_bool)": {
						"encoding": "mapping",
						"key": "t_address",
						"label": "mapping(address => bool)",
						"numberOfBytes": "32",
						"value": "t_bool"
					},
					"t_mapping(t_bytes32,t_struct(RoleData)19_storage)": {
						"encoding": "mapping",
						"key": "t_bytes32",
						"label": "mapping(bytes32 => struct AccessControl.RoleData)",
						"numberOfBytes": "32",
						"value": "t_struct(RoleData)19_storage"
					},
					"t_mapping(t_uint256,t_uint256)": {
						"encoding": "mapping",
						"key": "t_uint256",
						"label": "mapping(uint256 => uint256)",
						"numberOfBytes": "32",
						"value": "t_uint256"
					},
					"t_struct(RoleData)19_storage": {
						"encoding": "inplace",
						"label": "struct AccessControl.RoleData",
						"members": [
							{
								"astId": 16,
								"contract": "contracts/ICO.sol:ICO",
								"label": "members",
								"offset": 0,
								"slot": "0",
								"type": "t_mapping(t_address,t_bool)"
							},
							{
								"astId": 18,
								"contract": "contracts/ICO.sol:ICO",
								"label": "adminRole",
								"offset": 0,
								"slot": "1",
								"type": "t_bytes32"
							}
						],
						"numberOfBytes": "64"
					},
					"t_uint256": {
						"encoding": "inplace",
						"label": "uint256",
						"numberOfBytes": "32"
					}
				}
			},
			"userdoc": {
				"kind": "user",
				"methods": {},
				"version": 1
			}
		}
	}
}