{
	"data": {
		"bytecode": {
			"linkReferences": {},
			"object": "608060405260008060146101000a81548165ffffffffffff021916908365ffffffffffff1602179055503480156200003657600080fd5b50604051620050be380380620050be83398181016040528101906200005c91906200062a565b6200007c620000706200028760201b60201c565b6200028f60201b60201c565b60405180602001604052803373ffffffffffffffffffffffffffffffffffffffff1673ffffffffffffffffffffffffffffffffffffffff168152506005906001620000c992919062000353565b5081600d60006101000a81548173ffffffffffffffffffffffffffffffffffffffff021916908373ffffffffffffffffffffffffffffffffffffffff16021790555080600e8190555060048351146200012157600080fd5b82600081518110620001385762000137620006a5565b5b602002602001015160026000600160048111156200015b576200015a620006d4565b5b81526020019081526020016000208190555082600181518110620001845762000183620006a5565b5b60200260200101516002600060026004811115620001a757620001a6620006d4565b5b81526020019081526020016000208190555082600281518110620001d057620001cf620006a5565b5b60200260200101516002600060036004811115620001f357620001f2620006d4565b5b815260200190815260200160002081905550826003815181106200021c576200021b620006a5565b5b6020026020010151600260006004808111156200023e576200023d620006d4565b5b8152602001908152602001600020819055506000600360006101000a81548160ff02191690836004811115620002795762000278620006d4565b5b021790555050505062000703565b600033905090565b60008060009054906101000a900473ffffffffffffffffffffffffffffffffffffffff169050816000806101000a81548173ffffffffffffffffffffffffffffffffffffffff021916908373ffffffffffffffffffffffffffffffffffffffff1602179055508173ffffffffffffffffffffffffffffffffffffffff168173ffffffffffffffffffffffffffffffffffffffff167f8be0079c531659141344cd1fd0a4f28419497f9722a3daafe3b4186f6b6457e060405160405180910390a35050565b828054828255906000526020600020908101928215620003cf579160200282015b82811115620003ce5782518260006101000a81548173ffffffffffffffffffffffffffffffffffffffff021916908373ffffffffffffffffffffffffffffffffffffffff1602179055509160200191906001019062000374565b5b509050620003de9190620003e2565b5090565b5b80821115620003fd576000816000905550600101620003e3565b5090565b6000604051905090565b600080fd5b600080fd5b600080fd5b6000601f19601f8301169050919050565b7f4e487b7100000000000000000000000000000000000000000000000000000000600052604160045260246000fd5b62000465826200041a565b810181811067ffffffffffffffff821117156200048757620004866200042b565b5b80604052505050565b60006200049c62000401565b9050620004aa82826200045a565b919050565b600067ffffffffffffffff821115620004cd57620004cc6200042b565b5b602082029050602081019050919050565b600080fd5b6000819050919050565b620004f881620004e3565b81146200050457600080fd5b50565b6000815190506200051881620004ed565b92915050565b6000620005356200052f84620004af565b62000490565b905080838252602082019050602084028301858111156200055b576200055a620004de565b5b835b8181101562000588578062000573888262000507565b8452602084019350506020810190506200055d565b5050509392505050565b600082601f830112620005aa57620005a962000415565b5b8151620005bc8482602086016200051e565b91505092915050565b600073ffffffffffffffffffffffffffffffffffffffff82169050919050565b6000620005f282620005c5565b9050919050565b6200060481620005e5565b81146200061057600080fd5b50565b6000815190506200062481620005f9565b92915050565b6000806000606084860312156200064657620006456200040b565b5b600084015167ffffffffffffffff81111562000667576200066662000410565b5b620006758682870162000592565b9350506020620006888682870162000613565b92505060406200069b8682870162000507565b9150509250925092565b7f4e487b7100000000000000000000000000000000000000000000000000000000600052603260045260246000fd5b7f4e487b7100000000000000000000000000000000000000000000000000000000600052602160045260246000fd5b6149ab80620007136000396000f3fe608060405234801561001057600080fd5b50600436106101735760003560e01c806382545026116100de578063c104688c11610097578063e9d43e1b11610071578063e9d43e1b1461040a578063ecd869a71461043a578063f2fde38b14610444578063f3a8286f1461046057610173565b8063c104688c146103b4578063df4de07c146103d0578063df5dd1a5146103ee57610173565b806382545026146102dc5780638da5cb5b1461030c578063980d4ec61461032a5780639ec31bba14610346578063b30906d414610362578063b4c9aee21461039357610173565b80635b69a7d8116101305780635b69a7d81461022e5780635dfa3e081461025e578063715018a61461027a578063785fa627146102845780637a360e65146102a2578063823445fa146102c057610173565b80630c3f6acf14610178578063114c74271461019657806325a17545146101a05780633f4e4251146101d35780634f25f7fd146101f15780635347f96e146101fb575b600080fd5b610180610481565b60405161018d9190613028565b60405180910390f35b61019e610494565b005b6101ba60048036038101906101b5919061308d565b6105ce565b6040516101ca949392919061315e565b60405180910390f35b6101db61065a565b6040516101e891906131b2565b60405180910390f35b6101f9610667565b005b610215600480360381019061021091906131f9565b610b2d565b6040516102259493929190613298565b60405180910390f35b6102486004803603810190610243919061308d565b610b91565b60405161025591906132dd565b60405180910390f35b61027860048036038101906102739190613496565b610bd0565b005b610282610f46565b005b61028c610f5a565b60405161029991906131b2565b60405180910390f35b6102aa610f60565b6040516102b791906131b2565b60405180910390f35b6102da60048036038101906102d59190613545565b610f83565b005b6102f660048036038101906102f191906135ac565b611204565b60405161030391906135d9565b60405180910390f35b61031461128b565b60405161032191906132dd565b60405180910390f35b610344600480360381019061033f919061308d565b6112b4565b005b610360600480360381019061035b919061308d565b611419565b005b61037c6004803603810190610377919061308d565b61152d565b60405161038a9291906135f4565b60405180910390f35b61039b611583565b6040516103ab949392919061361d565b60405180910390f35b6103ce60048036038101906103c99190613662565b611632565b005b6103d8611977565b6040516103e591906132dd565b60405180910390f35b610408600480360381019061040391906131f9565b61199d565b005b610424600480360381019061041f919061308d565b611ad5565b60405161043191906131b2565b60405180910390f35b610442611aed565b005b61045e600480360381019061045991906131f9565b611af9565b005b610468611b7c565b6040516104789493929190613298565b60405180910390f35b600360009054906101000a900460ff1681565b61049e6001611bce565b6000600580549050116104e6576040517f08c379a00000000000000000000000000000000000000000000000000000000081526004016104dd90613738565b60405180910390fd5b6000600d60009054906101000a900473ffffffffffffffffffffffffffffffffffffffff169050600e548173ffffffffffffffffffffffffffffffffffffffff166370a08231306040518263ffffffff1660e01b815260040161054991906132dd565b602060405180830381865afa158015610566573d6000803e3d6000fd5b505050506040513d601f19601f8201168201806040525081019061058a919061376d565b10156105cb576040517f08c379a00000000000000000000000000000000000000000000000000000000081526004016105c29061380c565b60405180910390fd5b50565b600781600381106105de57600080fd5b600202016000915090508060000160009054906101000a900465ffffffffffff16908060000160069054906101000a900463ffffffff169080600001600a9054906101000a900467ffffffffffffffff16908060010160009054906101000a900473ffffffffffffffffffffffffffffffffffffffff16905084565b6000600580549050905090565b6106716004611bce565b600073ffffffffffffffffffffffffffffffffffffffff16600760006003811061069e5761069d61382c565b5b6002020160010160009054906101000a900473ffffffffffffffffffffffffffffffffffffffff1673ffffffffffffffffffffffffffffffffffffffff160361071c576040517f08c379a0000000000000000000000000000000000000000000000000000000008152600401610713906138a7565b60405180910390fd5b600073ffffffffffffffffffffffffffffffffffffffff1660076001600381106107495761074861382c565b5b6002020160010160009054906101000a900473ffffffffffffffffffffffffffffffffffffffff1673ffffffffffffffffffffffffffffffffffffffff16036107c7576040517f08c379a00000000000000000000000000000000000000000000000000000000081526004016107be906138a7565b60405180910390fd5b600073ffffffffffffffffffffffffffffffffffffffff1660076002600381106107f4576107f361382c565b5b6002020160010160009054906101000a900473ffffffffffffffffffffffffffffffffffffffff1673ffffffffffffffffffffffffffffffffffffffff1603610872576040517f08c379a0000000000000000000000000000000000000000000000000000000008152600401610869906138a7565b60405180910390fd5b600060646046600e5461088591906138f6565b61088f9190613967565b9050600060646014600e546108a491906138f6565b6108ae9190613967565b905060006064600a600e546108c391906138f6565b6108cd9190613967565b90506000600d60009054906101000a900473ffffffffffffffffffffffffffffffffffffffff1690508073ffffffffffffffffffffffffffffffffffffffff1663a9059cbb60076000600381106109275761092661382c565b5b6002020160010160009054906101000a900473ffffffffffffffffffffffffffffffffffffffff16866040518363ffffffff1660e01b815260040161096d929190613998565b6020604051808303816000875af115801561098c573d6000803e3d6000fd5b505050506040513d601f19601f820116820180604052508101906109b091906139ed565b508073ffffffffffffffffffffffffffffffffffffffff1663a9059cbb60076001600381106109e2576109e161382c565b5b6002020160010160009054906101000a900473ffffffffffffffffffffffffffffffffffffffff16856040518363ffffffff1660e01b8152600401610a28929190613998565b6020604051808303816000875af1158015610a47573d6000803e3d6000fd5b505050506040513d601f19601f82011682018060405250810190610a6b91906139ed565b508073ffffffffffffffffffffffffffffffffffffffff1663a9059cbb6007600260038110610a9d57610a9c61382c565b5b6002020160010160009054906101000a900473ffffffffffffffffffffffffffffffffffffffff16846040518363ffffffff1660e01b8152600401610ae3929190613998565b6020604051808303816000875af1158015610b02573d6000803e3d6000fd5b505050506040513d601f19601f82011682018060405250810190610b2691906139ed565b5050505050565b60046020528060005260406000206000915090508060000160009054906101000a900460801b908060000160109054906101000a900460ff16908060000160119054906101000a900460ff16908060000160129054906101000a900460ff16905084565b60058181548110610ba157600080fd5b906000526020600020016000915054906101000a900473ffffffffffffffffffffffffffffffffffffffff1681565b60006004811115610be457610be3612fb1565b5b600360009054906101000a900460ff166004811115610c0657610c05612fb1565b5b14610c46576040517f08c379a0000000000000000000000000000000000000000000000000000000008152600401610c3d90613a8c565b60405180910390fd5b610c4f84611204565b610c8e576040517f08c379a0000000000000000000000000000000000000000000000000000000008152600401610c8590613af8565b60405180910390fd5b600078010000000000000000000000000000000000000000000000008467ffffffffffffffff16610cbf91906138f6565b905060007001000000000000000000000000000000008467ffffffffffffffff16610cea91906138f6565b905060008660801c6fffffffffffffffffffffffffffffffff169050600081838517179050600073ffffffffffffffffffffffffffffffffffffffff166001600083815260200190815260200160002060000160009054906101000a900473ffffffffffffffffffffffffffffffffffffffff1673ffffffffffffffffffffffffffffffffffffffff1614610db4576040517f08c379a0000000000000000000000000000000000000000000000000000000008152600401610dab90613b8a565b60405180910390fd5b600060149054906101000a900465ffffffffffff1665ffffffffffff16813373ffffffffffffffffffffffffffffffffffffffff167fdd587a5264e6486e7e7bd14d89da14e1db02b5f63b4f84ac0e657106d7722ad188604051610e189190613c18565b60405180910390a4600060405180604001604052803373ffffffffffffffffffffffffffffffffffffffff168152602001600060149054906101000a900465ffffffffffff1665ffffffffffff168152509050806001600084815260200190815260200160002060008201518160000160006101000a81548173ffffffffffffffffffffffffffffffffffffffff021916908373ffffffffffffffffffffffffffffffffffffffff16021790555060208201518160000160146101000a81548165ffffffffffff021916908365ffffffffffff1602179055509050506000601481819054906101000a900465ffffffffffff1680929190610f1890613c3a565b91906101000a81548165ffffffffffff021916908365ffffffffffff16021790555050505050505050505050565b610f4e611ce3565b610f586000611d61565b565b600e5481565b60008060149054906101000a900465ffffffffffff1665ffffffffffff16905090565b60026004811115610f9757610f96612fb1565b5b600360009054906101000a900460ff166004811115610fb957610fb8612fb1565b5b14610ff9576040517f08c379a0000000000000000000000000000000000000000000000000000000008152600401610ff090613cda565b60405180910390fd5b3373ffffffffffffffffffffffffffffffffffffffff16600585815481106110245761102361382c565b5b9060005260206000200160009054906101000a900473ffffffffffffffffffffffffffffffffffffffff1673ffffffffffffffffffffffffffffffffffffffff16146110a5576040517f08c379a000000000000000000000000000000000000000000000000000000000815260040161109c90613d46565b60405180910390fd5b6110ae83611204565b6110ed576040517f08c379a00000000000000000000000000000000000000000000000000000000081526004016110e490613db2565b60405180910390fd5b6040518060800160405280846fffffffffffffffffffffffffffffffff191681526020018360ff1681526020018260ff16815260200160011515815250600460003373ffffffffffffffffffffffffffffffffffffffff1673ffffffffffffffffffffffffffffffffffffffff16815260200190815260200160002060008201518160000160006101000a8154816fffffffffffffffffffffffffffffffff021916908360801c021790555060208201518160000160106101000a81548160ff021916908360ff16021790555060408201518160000160116101000a81548160ff021916908360ff16021790555060608201518160000160126101000a81548160ff02191690831515021790555090505050505050565b600080600090505b603f8160ff1610156112805760006112248483611e25565b90506002816fffffffffffffffffffffffffffffffff161415801561125c57506001816fffffffffffffffffffffffffffffffff1614155b1561126c57600092505050611286565b50808061127890613dd2565b91505061120c565b50600190505b919050565b60008060009054906101000a900473ffffffffffffffffffffffffffffffffffffffff16905090565b6112bc611ce3565b600060048111156112d0576112cf612fb1565b5b600360009054906101000a900460ff1660048111156112f2576112f1612fb1565b5b1480611330575060048081111561130c5761130b612fb1565b5b600360009054906101000a900460ff16600481111561132e5761132d612fb1565b5b145b61136f576040517f08c379a000000000000000000000000000000000000000000000000000000000815260040161136690613e47565b60405180910390fd5b6000600d60009054906101000a900473ffffffffffffffffffffffffffffffffffffffff1690508073ffffffffffffffffffffffffffffffffffffffff1663a9059cbb33846040518363ffffffff1660e01b81526004016113d1929190613998565b6020604051808303816000875af11580156113f0573d6000803e3d6000fd5b505050506040513d601f19601f8201168201806040525081019061141491906139ed565b505050565b6003600481111561142d5761142c612fb1565b5b600360009054906101000a900460ff16600481111561144f5761144e612fb1565b5b1461148f576040517f08c379a000000000000000000000000000000000000000000000000000000000815260040161148690613ed9565b60405180910390fd5b600660000160129054906101000a900460ff166114e1576040517f08c379a00000000000000000000000000000000000000000000000000000000081526004016114d890613f6b565b60405180910390fd5b61152981600660000160009054906101000a900460801b600660000160109054906101000a900460ff1660ff16600660000160119054906101000a900460ff1660ff16611e87565b5050565b60016020528060005260406000206000915090508060000160009054906101000a900473ffffffffffffffffffffffffffffffffffffffff16908060000160149054906101000a900465ffffffffffff16905082565b60008060008060026000600160048111156115a1576115a0612fb1565b5b81526020019081526020016000205460026000600260048111156115c8576115c7612fb1565b5b81526020019081526020016000205460026000600360048111156115ef576115ee612fb1565b5b8152602001908152602001600020546002600060048081111561161557611614612fb1565b5b815260200190815260200160002054935093509350935090919293565b6002600481111561164657611645612fb1565b5b600360009054906101000a900460ff16600481111561166857611667612fb1565b5b1461167257600080fd5b6000805b60058054905081101561182d576000600460006005848154811061169d5761169c61382c565b5b9060005260206000200160009054906101000a900473ffffffffffffffffffffffffffffffffffffffff1673ffffffffffffffffffffffffffffffffffffffff1673ffffffffffffffffffffffffffffffffffffffff1681526020019081526020016000206040518060800160405290816000820160009054906101000a900460801b6fffffffffffffffffffffffffffffffff19166fffffffffffffffffffffffffffffffff191681526020016000820160109054906101000a900460ff1660ff1660ff1681526020016000820160119054906101000a900460ff1660ff1660ff1681526020016000820160129054906101000a900460ff1615151515815250509050806060015180156117db5750856fffffffffffffffffffffffffffffffff191681600001516fffffffffffffffffffffffffffffffff1916145b80156117f057508460ff16816020015160ff16145b801561180557508360ff16816040015160ff16145b1561181957828061181590613f8b565b9350505b50808061182590613f8b565b915050611676565b50600060058054905060648361184391906138f6565b61184d9190613967565b905060468111611892576040517f08c379a000000000000000000000000000000000000000000000000000000000815260040161188990614045565b60405180910390fd5b61189c6003611bce565b6040518060800160405280866fffffffffffffffffffffffffffffffff191681526020018560ff1681526020018460ff16815260200160011515815250600660008201518160000160006101000a8154816fffffffffffffffffffffffffffffffff021916908360801c021790555060208201518160000160106101000a81548160ff021916908360ff16021790555060408201518160000160116101000a81548160ff021916908360ff16021790555060608201518160000160126101000a81548160ff0219169083151502179055509050505050505050565b600d60009054906101000a900473ffffffffffffffffffffffffffffffffffffffff1681565b6119a5611ce3565b600060048111156119b9576119b8612fb1565b5b600360009054906101000a900460ff1660048111156119db576119da612fb1565b5b14611a1b576040517f08c379a0000000000000000000000000000000000000000000000000000000008152600401611a1290613e47565b60405180910390fd5b6001600a611a299190614065565b60058054905010611a6f576040517f08c379a0000000000000000000000000000000000000000000000000000000008152600401611a669061410b565b60405180910390fd5b6005819080600181540180825580915050600190039060005260206000200160009091909190916101000a81548173ffffffffffffffffffffffffffffffffffffffff021916908373ffffffffffffffffffffffffffffffffffffffff16021790555050565b60026020528060005260406000206000915090505481565b611af76002611bce565b565b611b01611ce3565b600073ffffffffffffffffffffffffffffffffffffffff168173ffffffffffffffffffffffffffffffffffffffff1603611b70576040517f08c379a0000000000000000000000000000000000000000000000000000000008152600401611b679061419d565b60405180910390fd5b611b7981611d61565b50565b60068060000160009054906101000a900460801b908060000160109054906101000a900460ff16908060000160119054906101000a900460ff16908060000160129054906101000a900460ff16905084565b6001600360009054906101000a900460ff166004811115611bf257611bf1612fb1565b5b611bfc91906141bd565b816004811115611c0f57611c0e612fb1565b5b14611c4f576040517f08c379a0000000000000000000000000000000000000000000000000000000008152600401611c469061423d565b60405180910390fd5b60026000826004811115611c6657611c65612fb1565b5b8152602001908152602001600020544211611cb6576040517f08c379a0000000000000000000000000000000000000000000000000000000008152600401611cad906142cf565b60405180910390fd5b80600360006101000a81548160ff02191690836004811115611cdb57611cda612fb1565b5b021790555050565b611ceb612ade565b73ffffffffffffffffffffffffffffffffffffffff16611d0961128b565b73ffffffffffffffffffffffffffffffffffffffff1614611d5f576040517f08c379a0000000000000000000000000000000000000000000000000000000008152600401611d569061433b565b60405180910390fd5b565b60008060009054906101000a900473ffffffffffffffffffffffffffffffffffffffff169050816000806101000a81548173ffffffffffffffffffffffffffffffffffffffff021916908373ffffffffffffffffffffffffffffffffffffffff1602179055508173ffffffffffffffffffffffffffffffffffffffff168173ffffffffffffffffffffffffffffffffffffffff167f8be0079c531659141344cd1fd0a4f28419497f9722a3daafe3b4186f6b6457e060405160405180910390a35050565b600080600283611e35919061435b565b6002611e4191906144e7565b6003611e4d9190614522565b90506000818560801c169050600284611e66919061435b565b6002611e7291906144e7565b81611e7d919061455f565b9250505092915050565b600060036004811115611e9d57611e9c612fb1565b5b600360009054906101000a900460ff166004811115611ebf57611ebe612fb1565b5b14611eff576040517f08c379a0000000000000000000000000000000000000000000000000000000008152600401611ef690614602565b60405180910390fd5b600073ffffffffffffffffffffffffffffffffffffffff166001600087815260200190815260200160002060000160009054906101000a900473ffffffffffffffffffffffffffffffffffffffff1673ffffffffffffffffffffffffffffffffffffffff1603611fa4576040517f08c379a0000000000000000000000000000000000000000000000000000000008152600401611f9b90614694565b60405180910390fd5b60006fffffffffffffffffffffffffffffffff861660801b9050600070010000000000000000000000000000000087611fdd9190613967565b9050600067ffffffffffffffff821690507801000000000000000000000000000000000000000000000000886120139190613967565b9150600067ffffffffffffffff831690506000612030858a612ae6565b9050600061204084848b8b612cb2565b905060006040518060800160405280600160008f815260200190815260200160002060000160149054906101000a900465ffffffffffff1665ffffffffffff1681526020018463ffffffff1681526020018367ffffffffffffffff168152602001600160008f815260200190815260200160002060000160009054906101000a900473ffffffffffffffffffffffffffffffffffffffff1673ffffffffffffffffffffffffffffffffffffffff1681525090506121fa81600760006003811061210c5761210b61382c565b5b600202016040518060800160405290816000820160009054906101000a900465ffffffffffff1665ffffffffffff1665ffffffffffff1681526020016000820160069054906101000a900463ffffffff1663ffffffff1663ffffffff16815260200160008201600a9054906101000a900467ffffffffffffffff1667ffffffffffffffff1667ffffffffffffffff1681526020016001820160009054906101000a900473ffffffffffffffffffffffffffffffffffffffff1673ffffffffffffffffffffffffffffffffffffffff1673ffffffffffffffffffffffffffffffffffffffff1681525050612d51565b1561258f5760076001600381106122145761221361382c565b5b60020201600760026003811061222d5761222c61382c565b5b600202016000820160009054906101000a900465ffffffffffff168160000160006101000a81548165ffffffffffff021916908365ffffffffffff1602179055506000820160069054906101000a900463ffffffff168160000160066101000a81548163ffffffff021916908363ffffffff16021790555060008201600a9054906101000a900467ffffffffffffffff1681600001600a6101000a81548167ffffffffffffffff021916908367ffffffffffffffff1602179055506001820160009054906101000a900473ffffffffffffffffffffffffffffffffffffffff168160010160006101000a81548173ffffffffffffffffffffffffffffffffffffffff021916908373ffffffffffffffffffffffffffffffffffffffff16021790555090505060076000600381106123675761236661382c565b5b6002020160076001600381106123805761237f61382c565b5b600202016000820160009054906101000a900465ffffffffffff168160000160006101000a81548165ffffffffffff021916908365ffffffffffff1602179055506000820160069054906101000a900463ffffffff168160000160066101000a81548163ffffffff021916908363ffffffff16021790555060008201600a9054906101000a900467ffffffffffffffff1681600001600a6101000a81548167ffffffffffffffff021916908367ffffffffffffffff1602179055506001820160009054906101000a900473ffffffffffffffffffffffffffffffffffffffff168160010160006101000a81548173ffffffffffffffffffffffffffffffffffffffff021916908373ffffffffffffffffffffffffffffffffffffffff1602179055509050508060076000600381106124bb576124ba61382c565b5b6002020160008201518160000160006101000a81548165ffffffffffff021916908365ffffffffffff16021790555060208201518160000160066101000a81548163ffffffff021916908363ffffffff160217905550604082015181600001600a6101000a81548167ffffffffffffffff021916908367ffffffffffffffff16021790555060608201518160010160006101000a81548173ffffffffffffffffffffffffffffffffffffffff021916908373ffffffffffffffffffffffffffffffffffffffff160217905550905050612acc565b6126968160076001600381106125a8576125a761382c565b5b600202016040518060800160405290816000820160009054906101000a900465ffffffffffff1665ffffffffffff1665ffffffffffff1681526020016000820160069054906101000a900463ffffffff1663ffffffff1663ffffffff16815260200160008201600a9054906101000a900467ffffffffffffffff1667ffffffffffffffff1667ffffffffffffffff1681526020016001820160009054906101000a900473ffffffffffffffffffffffffffffffffffffffff1673ffffffffffffffffffffffffffffffffffffffff1673ffffffffffffffffffffffffffffffffffffffff1681525050612d51565b156128d85760076001600381106126b0576126af61382c565b5b6002020160076002600381106126c9576126c861382c565b5b600202016000820160009054906101000a900465ffffffffffff168160000160006101000a81548165ffffffffffff021916908365ffffffffffff1602179055506000820160069054906101000a900463ffffffff168160000160066101000a81548163ffffffff021916908363ffffffff16021790555060008201600a9054906101000a900467ffffffffffffffff1681600001600a6101000a81548167ffffffffffffffff021916908367ffffffffffffffff1602179055506001820160009054906101000a900473ffffffffffffffffffffffffffffffffffffffff168160010160006101000a81548173ffffffffffffffffffffffffffffffffffffffff021916908373ffffffffffffffffffffffffffffffffffffffff1602179055509050508060076001600381106128045761280361382c565b5b6002020160008201518160000160006101000a81548165ffffffffffff021916908365ffffffffffff16021790555060208201518160000160066101000a81548163ffffffff021916908363ffffffff160217905550604082015181600001600a6101000a81548167ffffffffffffffff021916908367ffffffffffffffff16021790555060608201518160010160006101000a81548173ffffffffffffffffffffffffffffffffffffffff021916908373ffffffffffffffffffffffffffffffffffffffff160217905550905050612acb565b6129df8160076002600381106128f1576128f061382c565b5b600202016040518060800160405290816000820160009054906101000a900465ffffffffffff1665ffffffffffff1665ffffffffffff1681526020016000820160069054906101000a900463ffffffff1663ffffffff1663ffffffff16815260200160008201600a9054906101000a900467ffffffffffffffff1667ffffffffffffffff1667ffffffffffffffff1681526020016001820160009054906101000a900473ffffffffffffffffffffffffffffffffffffffff1673ffffffffffffffffffffffffffffffffffffffff1673ffffffffffffffffffffffffffffffffffffffff1681525050612d51565b15612aca578060076002600381106129fa576129f961382c565b5b6002020160008201518160000160006101000a81548165ffffffffffff021916908365ffffffffffff16021790555060208201518160000160066101000a81548163ffffffff021916908363ffffffff160217905550604082015181600001600a6101000a81548167ffffffffffffffff021916908367ffffffffffffffff16021790555060608201518160010160006101000a81548173ffffffffffffffffffffffffffffffffffffffff021916908373ffffffffffffffffffffffffffffffffffffffff1602179055509050505b5b5b82975050505050505050949350505050565b600033905090565b6000806000905060008085905060005b603f8160ff161015612ca557612b0b81612e75565b92506000612b198383611e25565b9050612b258783611e25565b6fffffffffffffffffffffffffffffffff16816fffffffffffffffffffffffffffffffff1603612b6e57836002612b5c91906146b4565b85612b6791906146e3565b9450612c91565b6000816fffffffffffffffffffffffffffffffff1614612c905760006002826fffffffffffffffffffffffffffffffff1614612bab576000612bae565b60015b600284612bbb919061435b565b612bc5919061471b565b60ff1690506000600186612bd9919061471b565b90505b60068160ff161015612c8d5760006002612c01600184612bfc9190614750565b612eea565b612c0b919061435b565b60ff1683612c199190614793565b9050600281612c2891906147c9565b6002612c3384612eea565b612c3d919061435b565b60ff16612c4a91906147fa565b92506000612c588785612f59565b90508015612c7157612c6a8785612f90565b9650612c78565b5050612c8d565b50508080612c8590613dd2565b915050612bdc565b50505b5b508080612c9d90613dd2565b915050612af6565b5082935050505092915050565b600080600090508567ffffffffffffffff168467ffffffffffffffff1611612ce5578386612ce09190614830565b612cf2565b8584612cf19190614830565b5b81612cfd919061486c565b90508467ffffffffffffffff168367ffffffffffffffff1611612d2b578285612d269190614830565b612d38565b8483612d379190614830565b5b81612d43919061486c565b905080915050949350505050565b6000816020015163ffffffff16836020015163ffffffff161115612d785760019050612e6f565b816020015163ffffffff16836020015163ffffffff161015612d9d5760009050612e6f565b816040015167ffffffffffffffff16836040015167ffffffffffffffff161015612dca5760019050612e6f565b816040015167ffffffffffffffff16836040015167ffffffffffffffff161015612df75760009050612e6f565b816000015165ffffffffffff16836000015165ffffffffffff1603612e51576040517f08c379a0000000000000000000000000000000000000000000000000000000008152600401612e489061491a565b60405180910390fd5b816000015165ffffffffffff16836000015165ffffffffffff161090505b92915050565b600060208260ff161015612e8c5760009050612ee5565b60308260ff161015612ea15760019050612ee5565b60388260ff161015612eb65760029050612ee5565b603c8260ff161015612ecb5760039050612ee5565b603e8260ff161015612ee05760049050612ee5565b600590505b919050565b6000808260ff1603612eff5760009050612f54565b60018260ff1603612f135760209050612f54565b60028260ff1603612f275760309050612f54565b60038260ff1603612f3b5760389050612f54565b60048260ff1603612f4f57603c9050612f54565b603e90505b919050565b600080826002612f69919061493a565b90506000818560801c166fffffffffffffffffffffffffffffffff16141591505092915050565b600080826002612fa0919061493a565b90508060801b841691505092915050565b7f4e487b7100000000000000000000000000000000000000000000000000000000600052602160045260246000fd5b60058110612ff157612ff0612fb1565b5b50565b600081905061300282612fe0565b919050565b600061301282612ff4565b9050919050565b61302281613007565b82525050565b600060208201905061303d6000830184613019565b92915050565b6000604051905090565b600080fd5b600080fd5b6000819050919050565b61306a81613057565b811461307557600080fd5b50565b60008135905061308781613061565b92915050565b6000602082840312156130a3576130a261304d565b5b60006130b184828501613078565b91505092915050565b600065ffffffffffff82169050919050565b6130d5816130ba565b82525050565b600063ffffffff82169050919050565b6130f4816130db565b82525050565b600067ffffffffffffffff82169050919050565b613117816130fa565b82525050565b600073ffffffffffffffffffffffffffffffffffffffff82169050919050565b60006131488261311d565b9050919050565b6131588161313d565b82525050565b600060808201905061317360008301876130cc565b61318060208301866130eb565b61318d604083018561310e565b61319a606083018461314f565b95945050505050565b6131ac81613057565b82525050565b60006020820190506131c760008301846131a3565b92915050565b6131d68161313d565b81146131e157600080fd5b50565b6000813590506131f3816131cd565b92915050565b60006020828403121561320f5761320e61304d565b5b600061321d848285016131e4565b91505092915050565b60007fffffffffffffffffffffffffffffffff0000000000000000000000000000000082169050919050565b61325b81613226565b82525050565b600060ff82169050919050565b61327781613261565b82525050565b60008115159050919050565b6132928161327d565b82525050565b60006080820190506132ad6000830187613252565b6132ba602083018661326e565b6132c7604083018561326e565b6132d46060830184613289565b95945050505050565b60006020820190506132f2600083018461314f565b92915050565b61330181613226565b811461330c57600080fd5b50565b60008135905061331e816132f8565b92915050565b61332d816130fa565b811461333857600080fd5b50565b60008135905061334a81613324565b92915050565b600080fd5b600080fd5b6000601f19601f8301169050919050565b7f4e487b7100000000000000000000000000000000000000000000000000000000600052604160045260246000fd5b6133a38261335a565b810181811067ffffffffffffffff821117156133c2576133c161336b565b5b80604052505050565b60006133d5613043565b90506133e1828261339a565b919050565b600067ffffffffffffffff8211156134015761340061336b565b5b61340a8261335a565b9050602081019050919050565b82818337600083830152505050565b6000613439613434846133e6565b6133cb565b90508281526020810184848401111561345557613454613355565b5b613460848285613417565b509392505050565b600082601f83011261347d5761347c613350565b5b813561348d848260208601613426565b91505092915050565b600080600080608085870312156134b0576134af61304d565b5b60006134be8782880161330f565b94505060206134cf8782880161333b565b93505060406134e08782880161333b565b925050606085013567ffffffffffffffff81111561350157613500613052565b5b61350d87828801613468565b91505092959194509250565b61352281613261565b811461352d57600080fd5b50565b60008135905061353f81613519565b92915050565b6000806000806080858703121561355f5761355e61304d565b5b600061356d87828801613078565b945050602061357e8782880161330f565b935050604061358f87828801613530565b92505060606135a087828801613530565b91505092959194509250565b6000602082840312156135c2576135c161304d565b5b60006135d08482850161330f565b91505092915050565b60006020820190506135ee6000830184613289565b92915050565b6000604082019050613609600083018561314f565b61361660208301846130cc565b9392505050565b600060808201905061363260008301876131a3565b61363f60208301866131a3565b61364c60408301856131a3565b61365960608301846131a3565b95945050505050565b60008060006060848603121561367b5761367a61304d565b5b60006136898682870161330f565b935050602061369a86828701613530565b92505060406136ab86828701613530565b9150509250925092565b600082825260208201905092915050565b7f4d7573742068617665206174206c656173742031206f7261636c65207265676960008201527f7374657265640000000000000000000000000000000000000000000000000000602082015250565b60006137226026836136b5565b915061372d826136c6565b604082019050919050565b6000602082019050818103600083015261375181613715565b9050919050565b60008151905061376781613061565b92915050565b6000602082840312156137835761378261304d565b5b600061379184828501613758565b91505092915050565b7f4d757374206861766520612062616c616e636520696e207468697320636f6e7460008201527f7261637400000000000000000000000000000000000000000000000000000000602082015250565b60006137f66024836136b5565b91506138018261379a565b604082019050919050565b60006020820190508181036000830152613825816137e9565b9050919050565b7f4e487b7100000000000000000000000000000000000000000000000000000000600052603260045260246000fd5b7f4e6f7420656e6f75676820636c61696d73000000000000000000000000000000600082015250565b60006138916011836136b5565b915061389c8261385b565b602082019050919050565b600060208201905081810360008301526138c081613884565b9050919050565b7f4e487b7100000000000000000000000000000000000000000000000000000000600052601160045260246000fd5b600061390182613057565b915061390c83613057565b925082820261391a81613057565b91508282048414831517613931576139306138c7565b5b5092915050565b7f4e487b7100000000000000000000000000000000000000000000000000000000600052601260045260246000fd5b600061397282613057565b915061397d83613057565b92508261398d5761398c613938565b5b828204905092915050565b60006040820190506139ad600083018561314f565b6139ba60208301846131a3565b9392505050565b6139ca8161327d565b81146139d557600080fd5b50565b6000815190506139e7816139c1565b92915050565b600060208284031215613a0357613a0261304d565b5b6000613a11848285016139d8565b91505092915050565b7f4d75737420626520696e20746865206f70656e20666f7220656e74726965732060008201527f7374617465000000000000000000000000000000000000000000000000000000602082015250565b6000613a766025836136b5565b9150613a8182613a1a565b604082019050919050565b60006020820190508181036000830152613aa581613a69565b9050919050565b7f54686520737570706c696564207069636b7320617265206e6f742076616c6964600082015250565b6000613ae26020836136b5565b9150613aed82613aac565b602082019050919050565b60006020820190508181036000830152613b1181613ad5565b9050919050565b7f5468697320657861637420627261636b657420262073636f726520686173206160008201527f6c7265616479206265656e207375626d69747465640000000000000000000000602082015250565b6000613b746035836136b5565b9150613b7f82613b18565b604082019050919050565b60006020820190508181036000830152613ba381613b67565b9050919050565b600081519050919050565b60005b83811015613bd3578082015181840152602081019050613bb8565b60008484015250505050565b6000613bea82613baa565b613bf481856136b5565b9350613c04818560208601613bb5565b613c0d8161335a565b840191505092915050565b60006020820190508181036000830152613c328184613bdf565b905092915050565b6000613c45826130ba565b915065ffffffffffff8203613c5d57613c5c6138c7565b5b600182019050919050565b7f4d75737420626520696e2077616974696e6720666f72206f7261636c6573207360008201527f7461746500000000000000000000000000000000000000000000000000000000602082015250565b6000613cc46024836136b5565b9150613ccf82613c68565b604082019050919050565b60006020820190508181036000830152613cf381613cb7565b9050919050565b7f57726f6e67206f7261636c6520696e6465780000000000000000000000000000600082015250565b6000613d306012836136b5565b9150613d3b82613cfa565b602082019050919050565b60006020820190508181036000830152613d5f81613d23565b9050919050565b7f526573756c747320617265206e6f742076616c69640000000000000000000000600082015250565b6000613d9c6015836136b5565b9150613da782613d66565b602082019050919050565b60006020820190508181036000830152613dcb81613d8f565b9050919050565b6000613ddd82613261565b915060ff8203613df057613def6138c7565b5b600182019050919050565b7f4d75737420626520616363657074696e6720656e747269657300000000000000600082015250565b6000613e316019836136b5565b9150613e3c82613dfb565b602082019050919050565b60006020820190508181036000830152613e6081613e24565b9050919050565b7f4d75737420626520696e207468652077616974696e6720666f722077696e6e6560008201527f7273207374617465000000000000000000000000000000000000000000000000602082015250565b6000613ec36028836136b5565b9150613ece82613e67565b604082019050919050565b60006020820190508181036000830152613ef281613eb6565b9050919050565b7f5468652066696e616c20726573756c74206d757374206265206d61726b65642060008201527f61732066696e616c000000000000000000000000000000000000000000000000602082015250565b6000613f556028836136b5565b9150613f6082613ef9565b604082019050919050565b60006020820190508181036000830152613f8481613f48565b9050919050565b6000613f9682613057565b91507fffffffffffffffffffffffffffffffffffffffffffffffffffffffffffffffff8203613fc857613fc76138c7565b5b600182019050919050565b7f546f20636c6f7365206f7261636c6520766f74696e672c203e20373025206f6660008201527f206f7261636c6573206d75737420616772656500000000000000000000000000602082015250565b600061402f6033836136b5565b915061403a82613fd3565b604082019050919050565b6000602082019050818103600083015261405e81614022565b9050919050565b600061407082613057565b915061407b83613057565b9250828203905081811115614093576140926138c7565b5b92915050565b7f4d757374206265206c657373207468616e206d6178206e756d626572206f662060008201527f6f7261636c657300000000000000000000000000000000000000000000000000602082015250565b60006140f56027836136b5565b915061410082614099565b604082019050919050565b60006020820190508181036000830152614124816140e8565b9050919050565b7f4f776e61626c653a206e6577206f776e657220697320746865207a65726f206160008201527f6464726573730000000000000000000000000000000000000000000000000000602082015250565b60006141876026836136b5565b91506141928261412b565b604082019050919050565b600060208201905081810360008301526141b68161417a565b9050919050565b60006141c882613057565b91506141d383613057565b92508282019050808211156141eb576141ea6138c7565b5b92915050565b7f43616e206f6e6c7920616476616e636520737461746520627920310000000000600082015250565b6000614227601b836136b5565b9150614232826141f1565b602082019050919050565b600060208201905081810360008301526142568161421a565b9050919050565b7f5472616e736974696f6e2074696d65206861736e27742068617070656e65642060008201527f7965740000000000000000000000000000000000000000000000000000000000602082015250565b60006142b96023836136b5565b91506142c48261425d565b604082019050919050565b600060208201905081810360008301526142e8816142ac565b9050919050565b7f4f776e61626c653a2063616c6c6572206973206e6f7420746865206f776e6572600082015250565b60006143256020836136b5565b9150614330826142ef565b602082019050919050565b6000602082019050818103600083015261435481614318565b9050919050565b600061436682613261565b915061437183613261565b925082820261437f81613261565b9150808214614391576143906138c7565b5b5092915050565b60008160011c9050919050565b6000808291508390505b60018511156143ef578086048111156143cb576143ca6138c7565b5b60018516156143da5780820291505b80810290506143e885614398565b94506143af565b94509492505050565b60008261440857600190506144c4565b8161441657600090506144c4565b816001811461442c576002811461443657614465565b60019150506144c4565b60ff841115614448576144476138c7565b5b8360020a91508482111561445f5761445e6138c7565b5b506144c4565b5060208310610133831016604e8410600b841016171561449a5782820a905083811115614495576144946138c7565b5b6144c4565b6144a784848460016143a5565b925090508184048111156144be576144bd6138c7565b5b81810290505b9392505050565b60006fffffffffffffffffffffffffffffffff82169050919050565b60006144f2826144cb565b91506144fd83613261565b925061451a6fffffffffffffffffffffffffffffffff84846143f8565b905092915050565b600061452d826144cb565b9150614538836144cb565b9250828202614546816144cb565b9150808214614558576145576138c7565b5b5092915050565b600061456a826144cb565b9150614575836144cb565b92508261458557614584613938565b5b828204905092915050565b7f4d75737420626520696e207468652077616974696e6720666f7220636c61696d60008201527f7320737461746500000000000000000000000000000000000000000000000000602082015250565b60006145ec6027836136b5565b91506145f782614590565b604082019050919050565b6000602082019050818103600083015261461b816145df565b9050919050565b7f54686520656e747279206d75737420686176652061637475616c6c792062656560008201527f6e207375626d6974746564000000000000000000000000000000000000000000602082015250565b600061467e602b836136b5565b915061468982614622565b604082019050919050565b600060208201905081810360008301526146ad81614671565b9050919050565b60006146bf826130db565b91506146ca83613261565b92506146db63ffffffff84846143f8565b905092915050565b60006146ee826130db565b91506146f9836130db565b9250828201905063ffffffff811115614715576147146138c7565b5b92915050565b600061472682613261565b915061473183613261565b9250828201905060ff81111561474a576147496138c7565b5b92915050565b600061475b82613261565b915061476683613261565b9250828203905060ff81111561477f5761477e6138c7565b5b92915050565b600061ffff82169050919050565b600061479e82614785565b91506147a983614785565b9250828203905061ffff8111156147c3576147c26138c7565b5b92915050565b60006147d482614785565b91506147df83614785565b9250826147ef576147ee613938565b5b828204905092915050565b600061480582614785565b915061481083614785565b9250828201905061ffff81111561482a576148296138c7565b5b92915050565b600061483b826130fa565b9150614846836130fa565b9250828203905067ffffffffffffffff811115614866576148656138c7565b5b92915050565b6000614877826130fa565b9150614882836130fa565b9250828201905067ffffffffffffffff8111156148a2576148a16138c7565b5b92915050565b7f5468697320656e7472792068617320616c726561647920636c61696d6564206160008201527f207072697a650000000000000000000000000000000000000000000000000000602082015250565b60006149046026836136b5565b915061490f826148a8565b604082019050919050565b60006020820190508181036000830152614933816148f7565b9050919050565b6000614945826144cb565b915061495083614785565b925061496d6fffffffffffffffffffffffffffffffff84846143f8565b90509291505056fea264697066735822122086a8b3d289280118e8c8bf532adb0885808be50d4dc859bbd85b6ab6d911ebaf64736f6c63430008110033",
			"opcodes": "PUSH1 0x80 PUSH1 0x40 MSTORE PUSH1 0x0 DUP1 PUSH1 0x14 PUSH2 0x100 EXP DUP2 SLOAD DUP2 PUSH6 0xFFFFFFFFFFFF MUL NOT AND SWAP1 DUP4 PUSH6 0xFFFFFFFFFFFF AND MUL OR SWAP1 SSTORE POP CALLVALUE DUP1 ISZERO PUSH3 0x36 JUMPI PUSH1 0x0 DUP1 REVERT JUMPDEST POP PUSH1 0x40 MLOAD PUSH3 0x50BE CODESIZE SUB DUP1 PUSH3 0x50BE DUP4 CODECOPY DUP2 DUP2 ADD PUSH1 0x40 MSTORE DUP2 ADD SWAP1 PUSH3 0x5C SWAP2 SWAP1 PUSH3 0x62A JUMP JUMPDEST PUSH3 0x7C PUSH3 0x70 PUSH3 0x287 PUSH1 0x20 SHL PUSH1 0x20 SHR JUMP JUMPDEST PUSH3 0x28F PUSH1 0x20 SHL PUSH1 0x20 SHR JUMP JUMPDEST PUSH1 0x40 MLOAD DUP1 PUSH1 0x20 ADD PUSH1 0x40 MSTORE DUP1 CALLER PUSH20 0xFFFFFFFFFFFFFFFFFFFFFFFFFFFFFFFFFFFFFFFF AND PUSH20 0xFFFFFFFFFFFFFFFFFFFFFFFFFFFFFFFFFFFFFFFF AND DUP2 MSTORE POP PUSH1 0x5 SWAP1 PUSH1 0x1 PUSH3 0xC9 SWAP3 SWAP2 SWAP1 PUSH3 0x353 JUMP JUMPDEST POP DUP2 PUSH1 0xD PUSH1 0x0 PUSH2 0x100 EXP DUP2 SLOAD DUP2 PUSH20 0xFFFFFFFFFFFFFFFFFFFFFFFFFFFFFFFFFFFFFFFF MUL NOT AND SWAP1 DUP4 PUSH20 0xFFFFFFFFFFFFFFFFFFFFFFFFFFFFFFFFFFFFFFFF AND MUL OR SWAP1 SSTORE POP DUP1 PUSH1 0xE DUP2 SWAP1 SSTORE POP PUSH1 0x4 DUP4 MLOAD EQ PUSH3 0x121 JUMPI PUSH1 0x0 DUP1 REVERT JUMPDEST DUP3 PUSH1 0x0 DUP2 MLOAD DUP2 LT PUSH3 0x138 JUMPI PUSH3 0x137 PUSH3 0x6A5 JUMP JUMPDEST JUMPDEST PUSH1 0x20 MUL PUSH1 0x20 ADD ADD MLOAD PUSH1 0x2 PUSH1 0x0 PUSH1 0x1 PUSH1 0x4 DUP2 GT ISZERO PUSH3 0x15B JUMPI PUSH3 0x15A PUSH3 0x6D4 JUMP JUMPDEST JUMPDEST DUP2 MSTORE PUSH1 0x20 ADD SWAP1 DUP2 MSTORE PUSH1 0x20 ADD PUSH1 0x0 KECCAK256 DUP2 SWAP1 SSTORE POP DUP3 PUSH1 0x1 DUP2 MLOAD DUP2 LT PUSH3 0x184 JUMPI PUSH3 0x183 PUSH3 0x6A5 JUMP JUMPDEST JUMPDEST PUSH1 0x20 MUL PUSH1 0x20 ADD ADD MLOAD PUSH1 0x2 PUSH1 0x0 PUSH1 0x2 PUSH1 0x4 DUP2 GT ISZERO PUSH3 0x1A7 JUMPI PUSH3 0x1A6 PUSH3 0x6D4 JUMP JUMPDEST JUMPDEST DUP2 MSTORE PUSH1 0x20 ADD SWAP1 DUP2 MSTORE PUSH1 0x20 ADD PUSH1 0x0 KECCAK256 DUP2 SWAP1 SSTORE POP DUP3 PUSH1 0x2 DUP2 MLOAD DUP2 LT PUSH3 0x1D0 JUMPI PUSH3 0x1CF PUSH3 0x6A5 JUMP JUMPDEST JUMPDEST PUSH1 0x20 MUL PUSH1 0x20 ADD ADD MLOAD PUSH1 0x2 PUSH1 0x0 PUSH1 0x3 PUSH1 0x4 DUP2 GT ISZERO PUSH3 0x1F3 JUMPI PUSH3 0x1F2 PUSH3 0x6D4 JUMP JUMPDEST JUMPDEST DUP2 MSTORE PUSH1 0x20 ADD SWAP1 DUP2 MSTORE PUSH1 0x20 ADD PUSH1 0x0 KECCAK256 DUP2 SWAP1 SSTORE POP DUP3 PUSH1 0x3 DUP2 MLOAD DUP2 LT PUSH3 0x21C JUMPI PUSH3 0x21B PUSH3 0x6A5 JUMP JUMPDEST JUMPDEST PUSH1 0x20 MUL PUSH1 0x20 ADD ADD MLOAD PUSH1 0x2 PUSH1 0x0 PUSH1 0x4 DUP1 DUP2 GT ISZERO PUSH3 0x23E JUMPI PUSH3 0x23D PUSH3 0x6D4 JUMP JUMPDEST JUMPDEST DUP2 MSTORE PUSH1 0x20 ADD SWAP1 DUP2 MSTORE PUSH1 0x20 ADD PUSH1 0x0 KECCAK256 DUP2 SWAP1 SSTORE POP PUSH1 0x0 PUSH1 0x3 PUSH1 0x0 PUSH2 0x100 EXP DUP2 SLOAD DUP2 PUSH1 0xFF MUL NOT AND SWAP1 DUP4 PUSH1 0x4 DUP2 GT ISZERO PUSH3 0x279 JUMPI PUSH3 0x278 PUSH3 0x6D4 JUMP JUMPDEST JUMPDEST MUL OR SWAP1 SSTORE POP POP POP POP PUSH3 0x703 JUMP JUMPDEST PUSH1 0x0 CALLER SWAP1 POP SWAP1 JUMP JUMPDEST PUSH1 0x0 DUP1 PUSH1 0x0 SWAP1 SLOAD SWAP1 PUSH2 0x100 EXP SWAP1 DIV PUSH20 0xFFFFFFFFFFFFFFFFFFFFFFFFFFFFFFFFFFFFFFFF AND SWAP1 POP DUP2 PUSH1 0x0 DUP1 PUSH2 0x100 EXP DUP2 SLOAD DUP2 PUSH20 0xFFFFFFFFFFFFFFFFFFFFFFFFFFFFFFFFFFFFFFFF MUL NOT AND SWAP1 DUP4 PUSH20 0xFFFFFFFFFFFFFFFFFFFFFFFFFFFFFFFFFFFFFFFF AND MUL OR SWAP1 SSTORE POP DUP2 PUSH20 0xFFFFFFFFFFFFFFFFFFFFFFFFFFFFFFFFFFFFFFFF AND DUP2 PUSH20 0xFFFFFFFFFFFFFFFFFFFFFFFFFFFFFFFFFFFFFFFF AND PUSH32 0x8BE0079C531659141344CD1FD0A4F28419497F9722A3DAAFE3B4186F6B6457E0 PUSH1 0x40 MLOAD PUSH1 0x40 MLOAD DUP1 SWAP2 SUB SWAP1 LOG3 POP POP JUMP JUMPDEST DUP3 DUP1 SLOAD DUP3 DUP3 SSTORE SWAP1 PUSH1 0x0 MSTORE PUSH1 0x20 PUSH1 0x0 KECCAK256 SWAP1 DUP2 ADD SWAP3 DUP3 ISZERO PUSH3 0x3CF JUMPI SWAP2 PUSH1 0x20 MUL DUP3 ADD JUMPDEST DUP3 DUP2 GT ISZERO PUSH3 0x3CE JUMPI DUP3 MLOAD DUP3 PUSH1 0x0 PUSH2 0x100 EXP DUP2 SLOAD DUP2 PUSH20 0xFFFFFFFFFFFFFFFFFFFFFFFFFFFFFFFFFFFFFFFF MUL NOT AND SWAP1 DUP4 PUSH20 0xFFFFFFFFFFFFFFFFFFFFFFFFFFFFFFFFFFFFFFFF AND MUL OR SWAP1 SSTORE POP SWAP2 PUSH1 0x20 ADD SWAP2 SWAP1 PUSH1 0x1 ADD SWAP1 PUSH3 0x374 JUMP JUMPDEST JUMPDEST POP SWAP1 POP PUSH3 0x3DE SWAP2 SWAP1 PUSH3 0x3E2 JUMP JUMPDEST POP SWAP1 JUMP JUMPDEST JUMPDEST DUP1 DUP3 GT ISZERO PUSH3 0x3FD JUMPI PUSH1 0x0 DUP2 PUSH1 0x0 SWAP1 SSTORE POP PUSH1 0x1 ADD PUSH3 0x3E3 JUMP JUMPDEST POP SWAP1 JUMP JUMPDEST PUSH1 0x0 PUSH1 0x40 MLOAD SWAP1 POP SWAP1 JUMP JUMPDEST PUSH1 0x0 DUP1 REVERT JUMPDEST PUSH1 0x0 DUP1 REVERT JUMPDEST PUSH1 0x0 DUP1 REVERT JUMPDEST PUSH1 0x0 PUSH1 0x1F NOT PUSH1 0x1F DUP4 ADD AND SWAP1 POP SWAP2 SWAP1 POP JUMP JUMPDEST PUSH32 0x4E487B7100000000000000000000000000000000000000000000000000000000 PUSH1 0x0 MSTORE PUSH1 0x41 PUSH1 0x4 MSTORE PUSH1 0x24 PUSH1 0x0 REVERT JUMPDEST PUSH3 0x465 DUP3 PUSH3 0x41A JUMP JUMPDEST DUP2 ADD DUP2 DUP2 LT PUSH8 0xFFFFFFFFFFFFFFFF DUP3 GT OR ISZERO PUSH3 0x487 JUMPI PUSH3 0x486 PUSH3 0x42B JUMP JUMPDEST JUMPDEST DUP1 PUSH1 0x40 MSTORE POP POP POP JUMP JUMPDEST PUSH1 0x0 PUSH3 0x49C PUSH3 0x401 JUMP JUMPDEST SWAP1 POP PUSH3 0x4AA DUP3 DUP3 PUSH3 0x45A JUMP JUMPDEST SWAP2 SWAP1 POP JUMP JUMPDEST PUSH1 0x0 PUSH8 0xFFFFFFFFFFFFFFFF DUP3 GT ISZERO PUSH3 0x4CD JUMPI PUSH3 0x4CC PUSH3 0x42B JUMP JUMPDEST JUMPDEST PUSH1 0x20 DUP3 MUL SWAP1 POP PUSH1 0x20 DUP2 ADD SWAP1 POP SWAP2 SWAP1 POP JUMP JUMPDEST PUSH1 0x0 DUP1 REVERT JUMPDEST PUSH1 0x0 DUP2 SWAP1 POP SWAP2 SWAP1 POP JUMP JUMPDEST PUSH3 0x4F8 DUP2 PUSH3 0x4E3 JUMP JUMPDEST DUP2 EQ PUSH3 0x504 JUMPI PUSH1 0x0 DUP1 REVERT JUMPDEST POP JUMP JUMPDEST PUSH1 0x0 DUP2 MLOAD SWAP1 POP PUSH3 0x518 DUP2 PUSH3 0x4ED JUMP JUMPDEST SWAP3 SWAP2 POP POP JUMP JUMPDEST PUSH1 0x0 PUSH3 0x535 PUSH3 0x52F DUP5 PUSH3 0x4AF JUMP JUMPDEST PUSH3 0x490 JUMP JUMPDEST SWAP1 POP DUP1 DUP4 DUP3 MSTORE PUSH1 0x20 DUP3 ADD SWAP1 POP PUSH1 0x20 DUP5 MUL DUP4 ADD DUP6 DUP2 GT ISZERO PUSH3 0x55B JUMPI PUSH3 0x55A PUSH3 0x4DE JUMP JUMPDEST JUMPDEST DUP4 JUMPDEST DUP2 DUP2 LT ISZERO PUSH3 0x588 JUMPI DUP1 PUSH3 0x573 DUP9 DUP3 PUSH3 0x507 JUMP JUMPDEST DUP5 MSTORE PUSH1 0x20 DUP5 ADD SWAP4 POP POP PUSH1 0x20 DUP2 ADD SWAP1 POP PUSH3 0x55D JUMP JUMPDEST POP POP POP SWAP4 SWAP3 POP POP POP JUMP JUMPDEST PUSH1 0x0 DUP3 PUSH1 0x1F DUP4 ADD SLT PUSH3 0x5AA JUMPI PUSH3 0x5A9 PUSH3 0x415 JUMP JUMPDEST JUMPDEST DUP2 MLOAD PUSH3 0x5BC DUP5 DUP3 PUSH1 0x20 DUP7 ADD PUSH3 0x51E JUMP JUMPDEST SWAP2 POP POP SWAP3 SWAP2 POP POP JUMP JUMPDEST PUSH1 0x0 PUSH20 0xFFFFFFFFFFFFFFFFFFFFFFFFFFFFFFFFFFFFFFFF DUP3 AND SWAP1 POP SWAP2 SWAP1 POP JUMP JUMPDEST PUSH1 0x0 PUSH3 0x5F2 DUP3 PUSH3 0x5C5 JUMP JUMPDEST SWAP1 POP SWAP2 SWAP1 POP JUMP JUMPDEST PUSH3 0x604 DUP2 PUSH3 0x5E5 JUMP JUMPDEST DUP2 EQ PUSH3 0x610 JUMPI PUSH1 0x0 DUP1 REVERT JUMPDEST POP JUMP JUMPDEST PUSH1 0x0 DUP2 MLOAD SWAP1 POP PUSH3 0x624 DUP2 PUSH3 0x5F9 JUMP JUMPDEST SWAP3 SWAP2 POP POP JUMP JUMPDEST PUSH1 0x0 DUP1 PUSH1 0x0 PUSH1 0x60 DUP5 DUP7 SUB SLT ISZERO PUSH3 0x646 JUMPI PUSH3 0x645 PUSH3 0x40B JUMP JUMPDEST JUMPDEST PUSH1 0x0 DUP5 ADD MLOAD PUSH8 0xFFFFFFFFFFFFFFFF DUP2 GT ISZERO PUSH3 0x667 JUMPI PUSH3 0x666 PUSH3 0x410 JUMP JUMPDEST JUMPDEST PUSH3 0x675 DUP7 DUP3 DUP8 ADD PUSH3 0x592 JUMP JUMPDEST SWAP4 POP POP PUSH1 0x20 PUSH3 0x688 DUP7 DUP3 DUP8 ADD PUSH3 0x613 JUMP JUMPDEST SWAP3 POP POP PUSH1 0x40 PUSH3 0x69B DUP7 DUP3 DUP8 ADD PUSH3 0x507 JUMP JUMPDEST SWAP2 POP POP SWAP3 POP SWAP3 POP SWAP3 JUMP JUMPDEST PUSH32 0x4E487B7100000000000000000000000000000000000000000000000000000000 PUSH1 0x0 MSTORE PUSH1 0x32 PUSH1 0x4 MSTORE PUSH1 0x24 PUSH1 0x0 REVERT JUMPDEST PUSH32 0x4E487B7100000000000000000000000000000000000000000000000000000000 PUSH1 0x0 MSTORE PUSH1 0x21 PUSH1 0x4 MSTORE PUSH1 0x24 PUSH1 0x0 REVERT JUMPDEST PUSH2 0x49AB DUP1 PUSH3 0x713 PUSH1 0x0 CODECOPY PUSH1 0x0 RETURN INVALID PUSH1 0x80 PUSH1 0x40 MSTORE CALLVALUE DUP1 ISZERO PUSH2 0x10 JUMPI PUSH1 0x0 DUP1 REVERT JUMPDEST POP PUSH1 0x4 CALLDATASIZE LT PUSH2 0x173 JUMPI PUSH1 0x0 CALLDATALOAD PUSH1 0xE0 SHR DUP1 PUSH4 0x82545026 GT PUSH2 0xDE JUMPI DUP1 PUSH4 0xC104688C GT PUSH2 0x97 JUMPI DUP1 PUSH4 0xE9D43E1B GT PUSH2 0x71 JUMPI DUP1 PUSH4 0xE9D43E1B EQ PUSH2 0x40A JUMPI DUP1 PUSH4 0xECD869A7 EQ PUSH2 0x43A JUMPI DUP1 PUSH4 0xF2FDE38B EQ PUSH2 0x444 JUMPI DUP1 PUSH4 0xF3A8286F EQ PUSH2 0x460 JUMPI PUSH2 0x173 JUMP JUMPDEST DUP1 PUSH4 0xC104688C EQ PUSH2 0x3B4 JUMPI DUP1 PUSH4 0xDF4DE07C EQ PUSH2 0x3D0 JUMPI DUP1 PUSH4 0xDF5DD1A5 EQ PUSH2 0x3EE JUMPI PUSH2 0x173 JUMP JUMPDEST DUP1 PUSH4 0x82545026 EQ PUSH2 0x2DC JUMPI DUP1 PUSH4 0x8DA5CB5B EQ PUSH2 0x30C JUMPI DUP1 PUSH4 0x980D4EC6 EQ PUSH2 0x32A JUMPI DUP1 PUSH4 0x9EC31BBA EQ PUSH2 0x346 JUMPI DUP1 PUSH4 0xB30906D4 EQ PUSH2 0x362 JUMPI DUP1 PUSH4 0xB4C9AEE2 EQ PUSH2 0x393 JUMPI PUSH2 0x173 JUMP JUMPDEST DUP1 PUSH4 0x5B69A7D8 GT PUSH2 0x130 JUMPI DUP1 PUSH4 0x5B69A7D8 EQ PUSH2 0x22E JUMPI DUP1 PUSH4 0x5DFA3E08 EQ PUSH2 0x25E JUMPI DUP1 PUSH4 0x715018A6 EQ PUSH2 0x27A JUMPI DUP1 PUSH4 0x785FA627 EQ PUSH2 0x284 JUMPI DUP1 PUSH4 0x7A360E65 EQ PUSH2 0x2A2 JUMPI DUP1 PUSH4 0x823445FA EQ PUSH2 0x2C0 JUMPI PUSH2 0x173 JUMP JUMPDEST DUP1 PUSH4 0xC3F6ACF EQ PUSH2 0x178 JUMPI DUP1 PUSH4 0x114C7427 EQ PUSH2 0x196 JUMPI DUP1 PUSH4 0x25A17545 EQ PUSH2 0x1A0 JUMPI DUP1 PUSH4 0x3F4E4251 EQ PUSH2 0x1D3 JUMPI DUP1 PUSH4 0x4F25F7FD EQ PUSH2 0x1F1 JUMPI DUP1 PUSH4 0x5347F96E EQ PUSH2 0x1FB JUMPI JUMPDEST PUSH1 0x0 DUP1 REVERT JUMPDEST PUSH2 0x180 PUSH2 0x481 JUMP JUMPDEST PUSH1 0x40 MLOAD PUSH2 0x18D SWAP2 SWAP1 PUSH2 0x3028 JUMP JUMPDEST PUSH1 0x40 MLOAD DUP1 SWAP2 SUB SWAP1 RETURN JUMPDEST PUSH2 0x19E PUSH2 0x494 JUMP JUMPDEST STOP JUMPDEST PUSH2 0x1BA PUSH1 0x4 DUP1 CALLDATASIZE SUB DUP2 ADD SWAP1 PUSH2 0x1B5 SWAP2 SWAP1 PUSH2 0x308D JUMP JUMPDEST PUSH2 0x5CE JUMP JUMPDEST PUSH1 0x40 MLOAD PUSH2 0x1CA SWAP5 SWAP4 SWAP3 SWAP2 SWAP1 PUSH2 0x315E JUMP JUMPDEST PUSH1 0x40 MLOAD DUP1 SWAP2 SUB SWAP1 RETURN JUMPDEST PUSH2 0x1DB PUSH2 0x65A JUMP JUMPDEST PUSH1 0x40 MLOAD PUSH2 0x1E8 SWAP2 SWAP1 PUSH2 0x31B2 JUMP JUMPDEST PUSH1 0x40 MLOAD DUP1 SWAP2 SUB SWAP1 RETURN JUMPDEST PUSH2 0x1F9 PUSH2 0x667 JUMP JUMPDEST STOP JUMPDEST PUSH2 0x215 PUSH1 0x4 DUP1 CALLDATASIZE SUB DUP2 ADD SWAP1 PUSH2 0x210 SWAP2 SWAP1 PUSH2 0x31F9 JUMP JUMPDEST PUSH2 0xB2D JUMP JUMPDEST PUSH1 0x40 MLOAD PUSH2 0x225 SWAP5 SWAP4 SWAP3 SWAP2 SWAP1 PUSH2 0x3298 JUMP JUMPDEST PUSH1 0x40 MLOAD DUP1 SWAP2 SUB SWAP1 RETURN JUMPDEST PUSH2 0x248 PUSH1 0x4 DUP1 CALLDATASIZE SUB DUP2 ADD SWAP1 PUSH2 0x243 SWAP2 SWAP1 PUSH2 0x308D JUMP JUMPDEST PUSH2 0xB91 JUMP JUMPDEST PUSH1 0x40 MLOAD PUSH2 0x255 SWAP2 SWAP1 PUSH2 0x32DD JUMP JUMPDEST PUSH1 0x40 MLOAD DUP1 SWAP2 SUB SWAP1 RETURN JUMPDEST PUSH2 0x278 PUSH1 0x4 DUP1 CALLDATASIZE SUB DUP2 ADD SWAP1 PUSH2 0x273 SWAP2 SWAP1 PUSH2 0x3496 JUMP JUMPDEST PUSH2 0xBD0 JUMP JUMPDEST STOP JUMPDEST PUSH2 0x282 PUSH2 0xF46 JUMP JUMPDEST STOP JUMPDEST PUSH2 0x28C PUSH2 0xF5A JUMP JUMPDEST PUSH1 0x40 MLOAD PUSH2 0x299 SWAP2 SWAP1 PUSH2 0x31B2 JUMP JUMPDEST PUSH1 0x40 MLOAD DUP1 SWAP2 SUB SWAP1 RETURN JUMPDEST PUSH2 0x2AA PUSH2 0xF60 JUMP JUMPDEST PUSH1 0x40 MLOAD PUSH2 0x2B7 SWAP2 SWAP1 PUSH2 0x31B2 JUMP JUMPDEST PUSH1 0x40 MLOAD DUP1 SWAP2 SUB SWAP1 RETURN JUMPDEST PUSH2 0x2DA PUSH1 0x4 DUP1 CALLDATASIZE SUB DUP2 ADD SWAP1 PUSH2 0x2D5 SWAP2 SWAP1 PUSH2 0x3545 JUMP JUMPDEST PUSH2 0xF83 JUMP JUMPDEST STOP JUMPDEST PUSH2 0x2F6 PUSH1 0x4 DUP1 CALLDATASIZE SUB DUP2 ADD SWAP1 PUSH2 0x2F1 SWAP2 SWAP1 PUSH2 0x35AC JUMP JUMPDEST PUSH2 0x1204 JUMP JUMPDEST PUSH1 0x40 MLOAD PUSH2 0x303 SWAP2 SWAP1 PUSH2 0x35D9 JUMP JUMPDEST PUSH1 0x40 MLOAD DUP1 SWAP2 SUB SWAP1 RETURN JUMPDEST PUSH2 0x314 PUSH2 0x128B JUMP JUMPDEST PUSH1 0x40 MLOAD PUSH2 0x321 SWAP2 SWAP1 PUSH2 0x32DD JUMP JUMPDEST PUSH1 0x40 MLOAD DUP1 SWAP2 SUB SWAP1 RETURN JUMPDEST PUSH2 0x344 PUSH1 0x4 DUP1 CALLDATASIZE SUB DUP2 ADD SWAP1 PUSH2 0x33F SWAP2 SWAP1 PUSH2 0x308D JUMP JUMPDEST PUSH2 0x12B4 JUMP JUMPDEST STOP JUMPDEST PUSH2 0x360 PUSH1 0x4 DUP1 CALLDATASIZE SUB DUP2 ADD SWAP1 PUSH2 0x35B SWAP2 SWAP1 PUSH2 0x308D JUMP JUMPDEST PUSH2 0x1419 JUMP JUMPDEST STOP JUMPDEST PUSH2 0x37C PUSH1 0x4 DUP1 CALLDATASIZE SUB DUP2 ADD SWAP1 PUSH2 0x377 SWAP2 SWAP1 PUSH2 0x308D JUMP JUMPDEST PUSH2 0x152D JUMP JUMPDEST PUSH1 0x40 MLOAD PUSH2 0x38A SWAP3 SWAP2 SWAP1 PUSH2 0x35F4 JUMP JUMPDEST PUSH1 0x40 MLOAD DUP1 SWAP2 SUB SWAP1 RETURN JUMPDEST PUSH2 0x39B PUSH2 0x1583 JUMP JUMPDEST PUSH1 0x40 MLOAD PUSH2 0x3AB SWAP5 SWAP4 SWAP3 SWAP2 SWAP1 PUSH2 0x361D JUMP JUMPDEST PUSH1 0x40 MLOAD DUP1 SWAP2 SUB SWAP1 RETURN JUMPDEST PUSH2 0x3CE PUSH1 0x4 DUP1 CALLDATASIZE SUB DUP2 ADD SWAP1 PUSH2 0x3C9 SWAP2 SWAP1 PUSH2 0x3662 JUMP JUMPDEST PUSH2 0x1632 JUMP JUMPDEST STOP JUMPDEST PUSH2 0x3D8 PUSH2 0x1977 JUMP JUMPDEST PUSH1 0x40 MLOAD PUSH2 0x3E5 SWAP2 SWAP1 PUSH2 0x32DD JUMP JUMPDEST PUSH1 0x40 MLOAD DUP1 SWAP2 SUB SWAP1 RETURN JUMPDEST PUSH2 0x408 PUSH1 0x4 DUP1 CALLDATASIZE SUB DUP2 ADD SWAP1 PUSH2 0x403 SWAP2 SWAP1 PUSH2 0x31F9 JUMP JUMPDEST PUSH2 0x199D JUMP JUMPDEST STOP JUMPDEST PUSH2 0x424 PUSH1 0x4 DUP1 CALLDATASIZE SUB DUP2 ADD SWAP1 PUSH2 0x41F SWAP2 SWAP1 PUSH2 0x308D JUMP JUMPDEST PUSH2 0x1AD5 JUMP JUMPDEST PUSH1 0x40 MLOAD PUSH2 0x431 SWAP2 SWAP1 PUSH2 0x31B2 JUMP JUMPDEST PUSH1 0x40 MLOAD DUP1 SWAP2 SUB SWAP1 RETURN JUMPDEST PUSH2 0x442 PUSH2 0x1AED JUMP JUMPDEST STOP JUMPDEST PUSH2 0x45E PUSH1 0x4 DUP1 CALLDATASIZE SUB DUP2 ADD SWAP1 PUSH2 0x459 SWAP2 SWAP1 PUSH2 0x31F9 JUMP JUMPDEST PUSH2 0x1AF9 JUMP JUMPDEST STOP JUMPDEST PUSH2 0x468 PUSH2 0x1B7C JUMP JUMPDEST PUSH1 0x40 MLOAD PUSH2 0x478 SWAP5 SWAP4 SWAP3 SWAP2 SWAP1 PUSH2 0x3298 JUMP JUMPDEST PUSH1 0x40 MLOAD DUP1 SWAP2 SUB SWAP1 RETURN JUMPDEST PUSH1 0x3 PUSH1 0x0 SWAP1 SLOAD SWAP1 PUSH2 0x100 EXP SWAP1 DIV PUSH1 0xFF AND DUP2 JUMP JUMPDEST PUSH2 0x49E PUSH1 0x1 PUSH2 0x1BCE JUMP JUMPDEST PUSH1 0x0 PUSH1 0x5 DUP1 SLOAD SWAP1 POP GT PUSH2 0x4E6 JUMPI PUSH1 0x40 MLOAD PUSH32 0x8C379A000000000000000000000000000000000000000000000000000000000 DUP2 MSTORE PUSH1 0x4 ADD PUSH2 0x4DD SWAP1 PUSH2 0x3738 JUMP JUMPDEST PUSH1 0x40 MLOAD DUP1 SWAP2 SUB SWAP1 REVERT JUMPDEST PUSH1 0x0 PUSH1 0xD PUSH1 0x0 SWAP1 SLOAD SWAP1 PUSH2 0x100 EXP SWAP1 DIV PUSH20 0xFFFFFFFFFFFFFFFFFFFFFFFFFFFFFFFFFFFFFFFF AND SWAP1 POP PUSH1 0xE SLOAD DUP2 PUSH20 0xFFFFFFFFFFFFFFFFFFFFFFFFFFFFFFFFFFFFFFFF AND PUSH4 0x70A08231 ADDRESS PUSH1 0x40 MLOAD DUP3 PUSH4 0xFFFFFFFF AND PUSH1 0xE0 SHL DUP2 MSTORE PUSH1 0x4 ADD PUSH2 0x549 SWAP2 SWAP1 PUSH2 0x32DD JUMP JUMPDEST PUSH1 0x20 PUSH1 0x40 MLOAD DUP1 DUP4 SUB DUP2 DUP7 GAS STATICCALL ISZERO DUP1 ISZERO PUSH2 0x566 JUMPI RETURNDATASIZE PUSH1 0x0 DUP1 RETURNDATACOPY RETURNDATASIZE PUSH1 0x0 REVERT JUMPDEST POP POP POP POP PUSH1 0x40 MLOAD RETURNDATASIZE PUSH1 0x1F NOT PUSH1 0x1F DUP3 ADD AND DUP3 ADD DUP1 PUSH1 0x40 MSTORE POP DUP2 ADD SWAP1 PUSH2 0x58A SWAP2 SWAP1 PUSH2 0x376D JUMP JUMPDEST LT ISZERO PUSH2 0x5CB JUMPI PUSH1 0x40 MLOAD PUSH32 0x8C379A000000000000000000000000000000000000000000000000000000000 DUP2 MSTORE PUSH1 0x4 ADD PUSH2 0x5C2 SWAP1 PUSH2 0x380C JUMP JUMPDEST PUSH1 0x40 MLOAD DUP1 SWAP2 SUB SWAP1 REVERT JUMPDEST POP JUMP JUMPDEST PUSH1 0x7 DUP2 PUSH1 0x3 DUP2 LT PUSH2 0x5DE JUMPI PUSH1 0x0 DUP1 REVERT JUMPDEST PUSH1 0x2 MUL ADD PUSH1 0x0 SWAP2 POP SWAP1 POP DUP1 PUSH1 0x0 ADD PUSH1 0x0 SWAP1 SLOAD SWAP1 PUSH2 0x100 EXP SWAP1 DIV PUSH6 0xFFFFFFFFFFFF AND SWAP1 DUP1 PUSH1 0x0 ADD PUSH1 0x6 SWAP1 SLOAD SWAP1 PUSH2 0x100 EXP SWAP1 DIV PUSH4 0xFFFFFFFF AND SWAP1 DUP1 PUSH1 0x0 ADD PUSH1 0xA SWAP1 SLOAD SWAP1 PUSH2 0x100 EXP SWAP1 DIV PUSH8 0xFFFFFFFFFFFFFFFF AND SWAP1 DUP1 PUSH1 0x1 ADD PUSH1 0x0 SWAP1 SLOAD SWAP1 PUSH2 0x100 EXP SWAP1 DIV PUSH20 0xFFFFFFFFFFFFFFFFFFFFFFFFFFFFFFFFFFFFFFFF AND SWAP1 POP DUP5 JUMP JUMPDEST PUSH1 0x0 PUSH1 0x5 DUP1 SLOAD SWAP1 POP SWAP1 POP SWAP1 JUMP JUMPDEST PUSH2 0x671 PUSH1 0x4 PUSH2 0x1BCE JUMP JUMPDEST PUSH1 0x0 PUSH20 0xFFFFFFFFFFFFFFFFFFFFFFFFFFFFFFFFFFFFFFFF AND PUSH1 0x7 PUSH1 0x0 PUSH1 0x3 DUP2 LT PUSH2 0x69E JUMPI PUSH2 0x69D PUSH2 0x382C JUMP JUMPDEST JUMPDEST PUSH1 0x2 MUL ADD PUSH1 0x1 ADD PUSH1 0x0 SWAP1 SLOAD SWAP1 PUSH2 0x100 EXP SWAP1 DIV PUSH20 0xFFFFFFFFFFFFFFFFFFFFFFFFFFFFFFFFFFFFFFFF AND PUSH20 0xFFFFFFFFFFFFFFFFFFFFFFFFFFFFFFFFFFFFFFFF AND SUB PUSH2 0x71C JUMPI PUSH1 0x40 MLOAD PUSH32 0x8C379A000000000000000000000000000000000000000000000000000000000 DUP2 MSTORE PUSH1 0x4 ADD PUSH2 0x713 SWAP1 PUSH2 0x38A7 JUMP JUMPDEST PUSH1 0x40 MLOAD DUP1 SWAP2 SUB SWAP1 REVERT JUMPDEST PUSH1 0x0 PUSH20 0xFFFFFFFFFFFFFFFFFFFFFFFFFFFFFFFFFFFFFFFF AND PUSH1 0x7 PUSH1 0x1 PUSH1 0x3 DUP2 LT PUSH2 0x749 JUMPI PUSH2 0x748 PUSH2 0x382C JUMP JUMPDEST JUMPDEST PUSH1 0x2 MUL ADD PUSH1 0x1 ADD PUSH1 0x0 SWAP1 SLOAD SWAP1 PUSH2 0x100 EXP SWAP1 DIV PUSH20 0xFFFFFFFFFFFFFFFFFFFFFFFFFFFFFFFFFFFFFFFF AND PUSH20 0xFFFFFFFFFFFFFFFFFFFFFFFFFFFFFFFFFFFFFFFF AND SUB PUSH2 0x7C7 JUMPI PUSH1 0x40 MLOAD PUSH32 0x8C379A000000000000000000000000000000000000000000000000000000000 DUP2 MSTORE PUSH1 0x4 ADD PUSH2 0x7BE SWAP1 PUSH2 0x38A7 JUMP JUMPDEST PUSH1 0x40 MLOAD DUP1 SWAP2 SUB SWAP1 REVERT JUMPDEST PUSH1 0x0 PUSH20 0xFFFFFFFFFFFFFFFFFFFFFFFFFFFFFFFFFFFFFFFF AND PUSH1 0x7 PUSH1 0x2 PUSH1 0x3 DUP2 LT PUSH2 0x7F4 JUMPI PUSH2 0x7F3 PUSH2 0x382C JUMP JUMPDEST JUMPDEST PUSH1 0x2 MUL ADD PUSH1 0x1 ADD PUSH1 0x0 SWAP1 SLOAD SWAP1 PUSH2 0x100 EXP SWAP1 DIV PUSH20 0xFFFFFFFFFFFFFFFFFFFFFFFFFFFFFFFFFFFFFFFF AND PUSH20 0xFFFFFFFFFFFFFFFFFFFFFFFFFFFFFFFFFFFFFFFF AND SUB PUSH2 0x872 JUMPI PUSH1 0x40 MLOAD PUSH32 0x8C379A000000000000000000000000000000000000000000000000000000000 DUP2 MSTORE PUSH1 0x4 ADD PUSH2 0x869 SWAP1 PUSH2 0x38A7 JUMP JUMPDEST PUSH1 0x40 MLOAD DUP1 SWAP2 SUB SWAP1 REVERT JUMPDEST PUSH1 0x0 PUSH1 0x64 PUSH1 0x46 PUSH1 0xE SLOAD PUSH2 0x885 SWAP2 SWAP1 PUSH2 0x38F6 JUMP JUMPDEST PUSH2 0x88F SWAP2 SWAP1 PUSH2 0x3967 JUMP JUMPDEST SWAP1 POP PUSH1 0x0 PUSH1 0x64 PUSH1 0x14 PUSH1 0xE SLOAD PUSH2 0x8A4 SWAP2 SWAP1 PUSH2 0x38F6 JUMP JUMPDEST PUSH2 0x8AE SWAP2 SWAP1 PUSH2 0x3967 JUMP JUMPDEST SWAP1 POP PUSH1 0x0 PUSH1 0x64 PUSH1 0xA PUSH1 0xE SLOAD PUSH2 0x8C3 SWAP2 SWAP1 PUSH2 0x38F6 JUMP JUMPDEST PUSH2 0x8CD SWAP2 SWAP1 PUSH2 0x3967 JUMP JUMPDEST SWAP1 POP PUSH1 0x0 PUSH1 0xD PUSH1 0x0 SWAP1 SLOAD SWAP1 PUSH2 0x100 EXP SWAP1 DIV PUSH20 0xFFFFFFFFFFFFFFFFFFFFFFFFFFFFFFFFFFFFFFFF AND SWAP1 POP DUP1 PUSH20 0xFFFFFFFFFFFFFFFFFFFFFFFFFFFFFFFFFFFFFFFF AND PUSH4 0xA9059CBB PUSH1 0x7 PUSH1 0x0 PUSH1 0x3 DUP2 LT PUSH2 0x927 JUMPI PUSH2 0x926 PUSH2 0x382C JUMP JUMPDEST JUMPDEST PUSH1 0x2 MUL ADD PUSH1 0x1 ADD PUSH1 0x0 SWAP1 SLOAD SWAP1 PUSH2 0x100 EXP SWAP1 DIV PUSH20 0xFFFFFFFFFFFFFFFFFFFFFFFFFFFFFFFFFFFFFFFF AND DUP7 PUSH1 0x40 MLOAD DUP4 PUSH4 0xFFFFFFFF AND PUSH1 0xE0 SHL DUP2 MSTORE PUSH1 0x4 ADD PUSH2 0x96D SWAP3 SWAP2 SWAP1 PUSH2 0x3998 JUMP JUMPDEST PUSH1 0x20 PUSH1 0x40 MLOAD DUP1 DUP4 SUB DUP2 PUSH1 0x0 DUP8 GAS CALL ISZERO DUP1 ISZERO PUSH2 0x98C JUMPI RETURNDATASIZE PUSH1 0x0 DUP1 RETURNDATACOPY RETURNDATASIZE PUSH1 0x0 REVERT JUMPDEST POP POP POP POP PUSH1 0x40 MLOAD RETURNDATASIZE PUSH1 0x1F NOT PUSH1 0x1F DUP3 ADD AND DUP3 ADD DUP1 PUSH1 0x40 MSTORE POP DUP2 ADD SWAP1 PUSH2 0x9B0 SWAP2 SWAP1 PUSH2 0x39ED JUMP JUMPDEST POP DUP1 PUSH20 0xFFFFFFFFFFFFFFFFFFFFFFFFFFFFFFFFFFFFFFFF AND PUSH4 0xA9059CBB PUSH1 0x7 PUSH1 0x1 PUSH1 0x3 DUP2 LT PUSH2 0x9E2 JUMPI PUSH2 0x9E1 PUSH2 0x382C JUMP JUMPDEST JUMPDEST PUSH1 0x2 MUL ADD PUSH1 0x1 ADD PUSH1 0x0 SWAP1 SLOAD SWAP1 PUSH2 0x100 EXP SWAP1 DIV PUSH20 0xFFFFFFFFFFFFFFFFFFFFFFFFFFFFFFFFFFFFFFFF AND DUP6 PUSH1 0x40 MLOAD DUP4 PUSH4 0xFFFFFFFF AND PUSH1 0xE0 SHL DUP2 MSTORE PUSH1 0x4 ADD PUSH2 0xA28 SWAP3 SWAP2 SWAP1 PUSH2 0x3998 JUMP JUMPDEST PUSH1 0x20 PUSH1 0x40 MLOAD DUP1 DUP4 SUB DUP2 PUSH1 0x0 DUP8 GAS CALL ISZERO DUP1 ISZERO PUSH2 0xA47 JUMPI RETURNDATASIZE PUSH1 0x0 DUP1 RETURNDATACOPY RETURNDATASIZE PUSH1 0x0 REVERT JUMPDEST POP POP POP POP PUSH1 0x40 MLOAD RETURNDATASIZE PUSH1 0x1F NOT PUSH1 0x1F DUP3 ADD AND DUP3 ADD DUP1 PUSH1 0x40 MSTORE POP DUP2 ADD SWAP1 PUSH2 0xA6B SWAP2 SWAP1 PUSH2 0x39ED JUMP JUMPDEST POP DUP1 PUSH20 0xFFFFFFFFFFFFFFFFFFFFFFFFFFFFFFFFFFFFFFFF AND PUSH4 0xA9059CBB PUSH1 0x7 PUSH1 0x2 PUSH1 0x3 DUP2 LT PUSH2 0xA9D JUMPI PUSH2 0xA9C PUSH2 0x382C JUMP JUMPDEST JUMPDEST PUSH1 0x2 MUL ADD PUSH1 0x1 ADD PUSH1 0x0 SWAP1 SLOAD SWAP1 PUSH2 0x100 EXP SWAP1 DIV PUSH20 0xFFFFFFFFFFFFFFFFFFFFFFFFFFFFFFFFFFFFFFFF AND DUP5 PUSH1 0x40 MLOAD DUP4 PUSH4 0xFFFFFFFF AND PUSH1 0xE0 SHL DUP2 MSTORE PUSH1 0x4 ADD PUSH2 0xAE3 SWAP3 SWAP2 SWAP1 PUSH2 0x3998 JUMP JUMPDEST PUSH1 0x20 PUSH1 0x40 MLOAD DUP1 DUP4 SUB DUP2 PUSH1 0x0 DUP8 GAS CALL ISZERO DUP1 ISZERO PUSH2 0xB02 JUMPI RETURNDATASIZE PUSH1 0x0 DUP1 RETURNDATACOPY RETURNDATASIZE PUSH1 0x0 REVERT JUMPDEST POP POP POP POP PUSH1 0x40 MLOAD RETURNDATASIZE PUSH1 0x1F NOT PUSH1 0x1F DUP3 ADD AND DUP3 ADD DUP1 PUSH1 0x40 MSTORE POP DUP2 ADD SWAP1 PUSH2 0xB26 SWAP2 SWAP1 PUSH2 0x39ED JUMP JUMPDEST POP POP POP POP POP JUMP JUMPDEST PUSH1 0x4 PUSH1 0x20 MSTORE DUP1 PUSH1 0x0 MSTORE PUSH1 0x40 PUSH1 0x0 KECCAK256 PUSH1 0x0 SWAP2 POP SWAP1 POP DUP1 PUSH1 0x0 ADD PUSH1 0x0 SWAP1 SLOAD SWAP1 PUSH2 0x100 EXP SWAP1 DIV PUSH1 0x80 SHL SWAP1 DUP1 PUSH1 0x0 ADD PUSH1 0x10 SWAP1 SLOAD SWAP1 PUSH2 0x100 EXP SWAP1 DIV PUSH1 0xFF AND SWAP1 DUP1 PUSH1 0x0 ADD PUSH1 0x11 SWAP1 SLOAD SWAP1 PUSH2 0x100 EXP SWAP1 DIV PUSH1 0xFF AND SWAP1 DUP1 PUSH1 0x0 ADD PUSH1 0x12 SWAP1 SLOAD SWAP1 PUSH2 0x100 EXP SWAP1 DIV PUSH1 0xFF AND SWAP1 POP DUP5 JUMP JUMPDEST PUSH1 0x5 DUP2 DUP2 SLOAD DUP2 LT PUSH2 0xBA1 JUMPI PUSH1 0x0 DUP1 REVERT JUMPDEST SWAP1 PUSH1 0x0 MSTORE PUSH1 0x20 PUSH1 0x0 KECCAK256 ADD PUSH1 0x0 SWAP2 POP SLOAD SWAP1 PUSH2 0x100 EXP SWAP1 DIV PUSH20 0xFFFFFFFFFFFFFFFFFFFFFFFFFFFFFFFFFFFFFFFF AND DUP2 JUMP JUMPDEST PUSH1 0x0 PUSH1 0x4 DUP2 GT ISZERO PUSH2 0xBE4 JUMPI PUSH2 0xBE3 PUSH2 0x2FB1 JUMP JUMPDEST JUMPDEST PUSH1 0x3 PUSH1 0x0 SWAP1 SLOAD SWAP1 PUSH2 0x100 EXP SWAP1 DIV PUSH1 0xFF AND PUSH1 0x4 DUP2 GT ISZERO PUSH2 0xC06 JUMPI PUSH2 0xC05 PUSH2 0x2FB1 JUMP JUMPDEST JUMPDEST EQ PUSH2 0xC46 JUMPI PUSH1 0x40 MLOAD PUSH32 0x8C379A000000000000000000000000000000000000000000000000000000000 DUP2 MSTORE PUSH1 0x4 ADD PUSH2 0xC3D SWAP1 PUSH2 0x3A8C JUMP JUMPDEST PUSH1 0x40 MLOAD DUP1 SWAP2 SUB SWAP1 REVERT JUMPDEST PUSH2 0xC4F DUP5 PUSH2 0x1204 JUMP JUMPDEST PUSH2 0xC8E JUMPI PUSH1 0x40 MLOAD PUSH32 0x8C379A000000000000000000000000000000000000000000000000000000000 DUP2 MSTORE PUSH1 0x4 ADD PUSH2 0xC85 SWAP1 PUSH2 0x3AF8 JUMP JUMPDEST PUSH1 0x40 MLOAD DUP1 SWAP2 SUB SWAP1 REVERT JUMPDEST PUSH1 0x0 PUSH25 0x1000000000000000000000000000000000000000000000000 DUP5 PUSH8 0xFFFFFFFFFFFFFFFF AND PUSH2 0xCBF SWAP2 SWAP1 PUSH2 0x38F6 JUMP JUMPDEST SWAP1 POP PUSH1 0x0 PUSH17 0x100000000000000000000000000000000 DUP5 PUSH8 0xFFFFFFFFFFFFFFFF AND PUSH2 0xCEA SWAP2 SWAP1 PUSH2 0x38F6 JUMP JUMPDEST SWAP1 POP PUSH1 0x0 DUP7 PUSH1 0x80 SHR PUSH16 0xFFFFFFFFFFFFFFFFFFFFFFFFFFFFFFFF AND SWAP1 POP PUSH1 0x0 DUP2 DUP4 DUP6 OR OR SWAP1 POP PUSH1 0x0 PUSH20 0xFFFFFFFFFFFFFFFFFFFFFFFFFFFFFFFFFFFFFFFF AND PUSH1 0x1 PUSH1 0x0 DUP4 DUP2 MSTORE PUSH1 0x20 ADD SWAP1 DUP2 MSTORE PUSH1 0x20 ADD PUSH1 0x0 KECCAK256 PUSH1 0x0 ADD PUSH1 0x0 SWAP1 SLOAD SWAP1 PUSH2 0x100 EXP SWAP1 DIV PUSH20 0xFFFFFFFFFFFFFFFFFFFFFFFFFFFFFFFFFFFFFFFF AND PUSH20 0xFFFFFFFFFFFFFFFFFFFFFFFFFFFFFFFFFFFFFFFF AND EQ PUSH2 0xDB4 JUMPI PUSH1 0x40 MLOAD PUSH32 0x8C379A000000000000000000000000000000000000000000000000000000000 DUP2 MSTORE PUSH1 0x4 ADD PUSH2 0xDAB SWAP1 PUSH2 0x3B8A JUMP JUMPDEST PUSH1 0x40 MLOAD DUP1 SWAP2 SUB SWAP1 REVERT JUMPDEST PUSH1 0x0 PUSH1 0x14 SWAP1 SLOAD SWAP1 PUSH2 0x100 EXP SWAP1 DIV PUSH6 0xFFFFFFFFFFFF AND PUSH6 0xFFFFFFFFFFFF AND DUP2 CALLER PUSH20 0xFFFFFFFFFFFFFFFFFFFFFFFFFFFFFFFFFFFFFFFF AND PUSH32 0xDD587A5264E6486E7E7BD14D89DA14E1DB02B5F63B4F84AC0E657106D7722AD1 DUP9 PUSH1 0x40 MLOAD PUSH2 0xE18 SWAP2 SWAP1 PUSH2 0x3C18 JUMP JUMPDEST PUSH1 0x40 MLOAD DUP1 SWAP2 SUB SWAP1 LOG4 PUSH1 0x0 PUSH1 0x40 MLOAD DUP1 PUSH1 0x40 ADD PUSH1 0x40 MSTORE DUP1 CALLER PUSH20 0xFFFFFFFFFFFFFFFFFFFFFFFFFFFFFFFFFFFFFFFF AND DUP2 MSTORE PUSH1 0x20 ADD PUSH1 0x0 PUSH1 0x14 SWAP1 SLOAD SWAP1 PUSH2 0x100 EXP SWAP1 DIV PUSH6 0xFFFFFFFFFFFF AND PUSH6 0xFFFFFFFFFFFF AND DUP2 MSTORE POP SWAP1 POP DUP1 PUSH1 0x1 PUSH1 0x0 DUP5 DUP2 MSTORE PUSH1 0x20 ADD SWAP1 DUP2 MSTORE PUSH1 0x20 ADD PUSH1 0x0 KECCAK256 PUSH1 0x0 DUP3 ADD MLOAD DUP2 PUSH1 0x0 ADD PUSH1 0x0 PUSH2 0x100 EXP DUP2 SLOAD DUP2 PUSH20 0xFFFFFFFFFFFFFFFFFFFFFFFFFFFFFFFFFFFFFFFF MUL NOT AND SWAP1 DUP4 PUSH20 0xFFFFFFFFFFFFFFFFFFFFFFFFFFFFFFFFFFFFFFFF AND MUL OR SWAP1 SSTORE POP PUSH1 0x20 DUP3 ADD MLOAD DUP2 PUSH1 0x0 ADD PUSH1 0x14 PUSH2 0x100 EXP DUP2 SLOAD DUP2 PUSH6 0xFFFFFFFFFFFF MUL NOT AND SWAP1 DUP4 PUSH6 0xFFFFFFFFFFFF AND MUL OR SWAP1 SSTORE POP SWAP1 POP POP PUSH1 0x0 PUSH1 0x14 DUP2 DUP2 SWAP1 SLOAD SWAP1 PUSH2 0x100 EXP SWAP1 DIV PUSH6 0xFFFFFFFFFFFF AND DUP1 SWAP3 SWAP2 SWAP1 PUSH2 0xF18 SWAP1 PUSH2 0x3C3A JUMP JUMPDEST SWAP2 SWAP1 PUSH2 0x100 EXP DUP2 SLOAD DUP2 PUSH6 0xFFFFFFFFFFFF MUL NOT AND SWAP1 DUP4 PUSH6 0xFFFFFFFFFFFF AND MUL OR SWAP1 SSTORE POP POP POP POP POP POP POP POP POP POP POP JUMP JUMPDEST PUSH2 0xF4E PUSH2 0x1CE3 JUMP JUMPDEST PUSH2 0xF58 PUSH1 0x0 PUSH2 0x1D61 JUMP JUMPDEST JUMP JUMPDEST PUSH1 0xE SLOAD DUP2 JUMP JUMPDEST PUSH1 0x0 DUP1 PUSH1 0x14 SWAP1 SLOAD SWAP1 PUSH2 0x100 EXP SWAP1 DIV PUSH6 0xFFFFFFFFFFFF AND PUSH6 0xFFFFFFFFFFFF AND SWAP1 POP SWAP1 JUMP JUMPDEST PUSH1 0x2 PUSH1 0x4 DUP2 GT ISZERO PUSH2 0xF97 JUMPI PUSH2 0xF96 PUSH2 0x2FB1 JUMP JUMPDEST JUMPDEST PUSH1 0x3 PUSH1 0x0 SWAP1 SLOAD SWAP1 PUSH2 0x100 EXP SWAP1 DIV PUSH1 0xFF AND PUSH1 0x4 DUP2 GT ISZERO PUSH2 0xFB9 JUMPI PUSH2 0xFB8 PUSH2 0x2FB1 JUMP JUMPDEST JUMPDEST EQ PUSH2 0xFF9 JUMPI PUSH1 0x40 MLOAD PUSH32 0x8C379A000000000000000000000000000000000000000000000000000000000 DUP2 MSTORE PUSH1 0x4 ADD PUSH2 0xFF0 SWAP1 PUSH2 0x3CDA JUMP JUMPDEST PUSH1 0x40 MLOAD DUP1 SWAP2 SUB SWAP1 REVERT JUMPDEST CALLER PUSH20 0xFFFFFFFFFFFFFFFFFFFFFFFFFFFFFFFFFFFFFFFF AND PUSH1 0x5 DUP6 DUP2 SLOAD DUP2 LT PUSH2 0x1024 JUMPI PUSH2 0x1023 PUSH2 0x382C JUMP JUMPDEST JUMPDEST SWAP1 PUSH1 0x0 MSTORE PUSH1 0x20 PUSH1 0x0 KECCAK256 ADD PUSH1 0x0 SWAP1 SLOAD SWAP1 PUSH2 0x100 EXP SWAP1 DIV PUSH20 0xFFFFFFFFFFFFFFFFFFFFFFFFFFFFFFFFFFFFFFFF AND PUSH20 0xFFFFFFFFFFFFFFFFFFFFFFFFFFFFFFFFFFFFFFFF AND EQ PUSH2 0x10A5 JUMPI PUSH1 0x40 MLOAD PUSH32 0x8C379A000000000000000000000000000000000000000000000000000000000 DUP2 MSTORE PUSH1 0x4 ADD PUSH2 0x109C SWAP1 PUSH2 0x3D46 JUMP JUMPDEST PUSH1 0x40 MLOAD DUP1 SWAP2 SUB SWAP1 REVERT JUMPDEST PUSH2 0x10AE DUP4 PUSH2 0x1204 JUMP JUMPDEST PUSH2 0x10ED JUMPI PUSH1 0x40 MLOAD PUSH32 0x8C379A000000000000000000000000000000000000000000000000000000000 DUP2 MSTORE PUSH1 0x4 ADD PUSH2 0x10E4 SWAP1 PUSH2 0x3DB2 JUMP JUMPDEST PUSH1 0x40 MLOAD DUP1 SWAP2 SUB SWAP1 REVERT JUMPDEST PUSH1 0x40 MLOAD DUP1 PUSH1 0x80 ADD PUSH1 0x40 MSTORE DUP1 DUP5 PUSH16 0xFFFFFFFFFFFFFFFFFFFFFFFFFFFFFFFF NOT AND DUP2 MSTORE PUSH1 0x20 ADD DUP4 PUSH1 0xFF AND DUP2 MSTORE PUSH1 0x20 ADD DUP3 PUSH1 0xFF AND DUP2 MSTORE PUSH1 0x20 ADD PUSH1 0x1 ISZERO ISZERO DUP2 MSTORE POP PUSH1 0x4 PUSH1 0x0 CALLER PUSH20 0xFFFFFFFFFFFFFFFFFFFFFFFFFFFFFFFFFFFFFFFF AND PUSH20 0xFFFFFFFFFFFFFFFFFFFFFFFFFFFFFFFFFFFFFFFF AND DUP2 MSTORE PUSH1 0x20 ADD SWAP1 DUP2 MSTORE PUSH1 0x20 ADD PUSH1 0x0 KECCAK256 PUSH1 0x0 DUP3 ADD MLOAD DUP2 PUSH1 0x0 ADD PUSH1 0x0 PUSH2 0x100 EXP DUP2 SLOAD DUP2 PUSH16 0xFFFFFFFFFFFFFFFFFFFFFFFFFFFFFFFF MUL NOT AND SWAP1 DUP4 PUSH1 0x80 SHR MUL OR SWAP1 SSTORE POP PUSH1 0x20 DUP3 ADD MLOAD DUP2 PUSH1 0x0 ADD PUSH1 0x10 PUSH2 0x100 EXP DUP2 SLOAD DUP2 PUSH1 0xFF MUL NOT AND SWAP1 DUP4 PUSH1 0xFF AND MUL OR SWAP1 SSTORE POP PUSH1 0x40 DUP3 ADD MLOAD DUP2 PUSH1 0x0 ADD PUSH1 0x11 PUSH2 0x100 EXP DUP2 SLOAD DUP2 PUSH1 0xFF MUL NOT AND SWAP1 DUP4 PUSH1 0xFF AND MUL OR SWAP1 SSTORE POP PUSH1 0x60 DUP3 ADD MLOAD DUP2 PUSH1 0x0 ADD PUSH1 0x12 PUSH2 0x100 EXP DUP2 SLOAD DUP2 PUSH1 0xFF MUL NOT AND SWAP1 DUP4 ISZERO ISZERO MUL OR SWAP1 SSTORE POP SWAP1 POP POP POP POP POP POP JUMP JUMPDEST PUSH1 0x0 DUP1 PUSH1 0x0 SWAP1 POP JUMPDEST PUSH1 0x3F DUP2 PUSH1 0xFF AND LT ISZERO PUSH2 0x1280 JUMPI PUSH1 0x0 PUSH2 0x1224 DUP5 DUP4 PUSH2 0x1E25 JUMP JUMPDEST SWAP1 POP PUSH1 0x2 DUP2 PUSH16 0xFFFFFFFFFFFFFFFFFFFFFFFFFFFFFFFF AND EQ ISZERO DUP1 ISZERO PUSH2 0x125C JUMPI POP PUSH1 0x1 DUP2 PUSH16 0xFFFFFFFFFFFFFFFFFFFFFFFFFFFFFFFF AND EQ ISZERO JUMPDEST ISZERO PUSH2 0x126C JUMPI PUSH1 0x0 SWAP3 POP POP POP PUSH2 0x1286 JUMP JUMPDEST POP DUP1 DUP1 PUSH2 0x1278 SWAP1 PUSH2 0x3DD2 JUMP JUMPDEST SWAP2 POP POP PUSH2 0x120C JUMP JUMPDEST POP PUSH1 0x1 SWAP1 POP JUMPDEST SWAP2 SWAP1 POP JUMP JUMPDEST PUSH1 0x0 DUP1 PUSH1 0x0 SWAP1 SLOAD SWAP1 PUSH2 0x100 EXP SWAP1 DIV PUSH20 0xFFFFFFFFFFFFFFFFFFFFFFFFFFFFFFFFFFFFFFFF AND SWAP1 POP SWAP1 JUMP JUMPDEST PUSH2 0x12BC PUSH2 0x1CE3 JUMP JUMPDEST PUSH1 0x0 PUSH1 0x4 DUP2 GT ISZERO PUSH2 0x12D0 JUMPI PUSH2 0x12CF PUSH2 0x2FB1 JUMP JUMPDEST JUMPDEST PUSH1 0x3 PUSH1 0x0 SWAP1 SLOAD SWAP1 PUSH2 0x100 EXP SWAP1 DIV PUSH1 0xFF AND PUSH1 0x4 DUP2 GT ISZERO PUSH2 0x12F2 JUMPI PUSH2 0x12F1 PUSH2 0x2FB1 JUMP JUMPDEST JUMPDEST EQ DUP1 PUSH2 0x1330 JUMPI POP PUSH1 0x4 DUP1 DUP2 GT ISZERO PUSH2 0x130C JUMPI PUSH2 0x130B PUSH2 0x2FB1 JUMP JUMPDEST JUMPDEST PUSH1 0x3 PUSH1 0x0 SWAP1 SLOAD SWAP1 PUSH2 0x100 EXP SWAP1 DIV PUSH1 0xFF AND PUSH1 0x4 DUP2 GT ISZERO PUSH2 0x132E JUMPI PUSH2 0x132D PUSH2 0x2FB1 JUMP JUMPDEST JUMPDEST EQ JUMPDEST PUSH2 0x136F JUMPI PUSH1 0x40 MLOAD PUSH32 0x8C379A000000000000000000000000000000000000000000000000000000000 DUP2 MSTORE PUSH1 0x4 ADD PUSH2 0x1366 SWAP1 PUSH2 0x3E47 JUMP JUMPDEST PUSH1 0x40 MLOAD DUP1 SWAP2 SUB SWAP1 REVERT JUMPDEST PUSH1 0x0 PUSH1 0xD PUSH1 0x0 SWAP1 SLOAD SWAP1 PUSH2 0x100 EXP SWAP1 DIV PUSH20 0xFFFFFFFFFFFFFFFFFFFFFFFFFFFFFFFFFFFFFFFF AND SWAP1 POP DUP1 PUSH20 0xFFFFFFFFFFFFFFFFFFFFFFFFFFFFFFFFFFFFFFFF AND PUSH4 0xA9059CBB CALLER DUP5 PUSH1 0x40 MLOAD DUP4 PUSH4 0xFFFFFFFF AND PUSH1 0xE0 SHL DUP2 MSTORE PUSH1 0x4 ADD PUSH2 0x13D1 SWAP3 SWAP2 SWAP1 PUSH2 0x3998 JUMP JUMPDEST PUSH1 0x20 PUSH1 0x40 MLOAD DUP1 DUP4 SUB DUP2 PUSH1 0x0 DUP8 GAS CALL ISZERO DUP1 ISZERO PUSH2 0x13F0 JUMPI RETURNDATASIZE PUSH1 0x0 DUP1 RETURNDATACOPY RETURNDATASIZE PUSH1 0x0 REVERT JUMPDEST POP POP POP POP PUSH1 0x40 MLOAD RETURNDATASIZE PUSH1 0x1F NOT PUSH1 0x1F DUP3 ADD AND DUP3 ADD DUP1 PUSH1 0x40 MSTORE POP DUP2 ADD SWAP1 PUSH2 0x1414 SWAP2 SWAP1 PUSH2 0x39ED JUMP JUMPDEST POP POP POP JUMP JUMPDEST PUSH1 0x3 PUSH1 0x4 DUP2 GT ISZERO PUSH2 0x142D JUMPI PUSH2 0x142C PUSH2 0x2FB1 JUMP JUMPDEST JUMPDEST PUSH1 0x3 PUSH1 0x0 SWAP1 SLOAD SWAP1 PUSH2 0x100 EXP SWAP1 DIV PUSH1 0xFF AND PUSH1 0x4 DUP2 GT ISZERO PUSH2 0x144F JUMPI PUSH2 0x144E PUSH2 0x2FB1 JUMP JUMPDEST JUMPDEST EQ PUSH2 0x148F JUMPI PUSH1 0x40 MLOAD PUSH32 0x8C379A000000000000000000000000000000000000000000000000000000000 DUP2 MSTORE PUSH1 0x4 ADD PUSH2 0x1486 SWAP1 PUSH2 0x3ED9 JUMP JUMPDEST PUSH1 0x40 MLOAD DUP1 SWAP2 SUB SWAP1 REVERT JUMPDEST PUSH1 0x6 PUSH1 0x0 ADD PUSH1 0x12 SWAP1 SLOAD SWAP1 PUSH2 0x100 EXP SWAP1 DIV PUSH1 0xFF AND PUSH2 0x14E1 JUMPI PUSH1 0x40 MLOAD PUSH32 0x8C379A000000000000000000000000000000000000000000000000000000000 DUP2 MSTORE PUSH1 0x4 ADD PUSH2 0x14D8 SWAP1 PUSH2 0x3F6B JUMP JUMPDEST PUSH1 0x40 MLOAD DUP1 SWAP2 SUB SWAP1 REVERT JUMPDEST PUSH2 0x1529 DUP2 PUSH1 0x6 PUSH1 0x0 ADD PUSH1 0x0 SWAP1 SLOAD SWAP1 PUSH2 0x100 EXP SWAP1 DIV PUSH1 0x80 SHL PUSH1 0x6 PUSH1 0x0 ADD PUSH1 0x10 SWAP1 SLOAD SWAP1 PUSH2 0x100 EXP SWAP1 DIV PUSH1 0xFF AND PUSH1 0xFF AND PUSH1 0x6 PUSH1 0x0 ADD PUSH1 0x11 SWAP1 SLOAD SWAP1 PUSH2 0x100 EXP SWAP1 DIV PUSH1 0xFF AND PUSH1 0xFF AND PUSH2 0x1E87 JUMP JUMPDEST POP POP JUMP JUMPDEST PUSH1 0x1 PUSH1 0x20 MSTORE DUP1 PUSH1 0x0 MSTORE PUSH1 0x40 PUSH1 0x0 KECCAK256 PUSH1 0x0 SWAP2 POP SWAP1 POP DUP1 PUSH1 0x0 ADD PUSH1 0x0 SWAP1 SLOAD SWAP1 PUSH2 0x100 EXP SWAP1 DIV PUSH20 0xFFFFFFFFFFFFFFFFFFFFFFFFFFFFFFFFFFFFFFFF AND SWAP1 DUP1 PUSH1 0x0 ADD PUSH1 0x14 SWAP1 SLOAD SWAP1 PUSH2 0x100 EXP SWAP1 DIV PUSH6 0xFFFFFFFFFFFF AND SWAP1 POP DUP3 JUMP JUMPDEST PUSH1 0x0 DUP1 PUSH1 0x0 DUP1 PUSH1 0x2 PUSH1 0x0 PUSH1 0x1 PUSH1 0x4 DUP2 GT ISZERO PUSH2 0x15A1 JUMPI PUSH2 0x15A0 PUSH2 0x2FB1 JUMP JUMPDEST JUMPDEST DUP2 MSTORE PUSH1 0x20 ADD SWAP1 DUP2 MSTORE PUSH1 0x20 ADD PUSH1 0x0 KECCAK256 SLOAD PUSH1 0x2 PUSH1 0x0 PUSH1 0x2 PUSH1 0x4 DUP2 GT ISZERO PUSH2 0x15C8 JUMPI PUSH2 0x15C7 PUSH2 0x2FB1 JUMP JUMPDEST JUMPDEST DUP2 MSTORE PUSH1 0x20 ADD SWAP1 DUP2 MSTORE PUSH1 0x20 ADD PUSH1 0x0 KECCAK256 SLOAD PUSH1 0x2 PUSH1 0x0 PUSH1 0x3 PUSH1 0x4 DUP2 GT ISZERO PUSH2 0x15EF JUMPI PUSH2 0x15EE PUSH2 0x2FB1 JUMP JUMPDEST JUMPDEST DUP2 MSTORE PUSH1 0x20 ADD SWAP1 DUP2 MSTORE PUSH1 0x20 ADD PUSH1 0x0 KECCAK256 SLOAD PUSH1 0x2 PUSH1 0x0 PUSH1 0x4 DUP1 DUP2 GT ISZERO PUSH2 0x1615 JUMPI PUSH2 0x1614 PUSH2 0x2FB1 JUMP JUMPDEST JUMPDEST DUP2 MSTORE PUSH1 0x20 ADD SWAP1 DUP2 MSTORE PUSH1 0x20 ADD PUSH1 0x0 KECCAK256 SLOAD SWAP4 POP SWAP4 POP SWAP4 POP SWAP4 POP SWAP1 SWAP2 SWAP3 SWAP4 JUMP JUMPDEST PUSH1 0x2 PUSH1 0x4 DUP2 GT ISZERO PUSH2 0x1646 JUMPI PUSH2 0x1645 PUSH2 0x2FB1 JUMP JUMPDEST JUMPDEST PUSH1 0x3 PUSH1 0x0 SWAP1 SLOAD SWAP1 PUSH2 0x100 EXP SWAP1 DIV PUSH1 0xFF AND PUSH1 0x4 DUP2 GT ISZERO PUSH2 0x1668 JUMPI PUSH2 0x1667 PUSH2 0x2FB1 JUMP JUMPDEST JUMPDEST EQ PUSH2 0x1672 JUMPI PUSH1 0x0 DUP1 REVERT JUMPDEST PUSH1 0x0 DUP1 JUMPDEST PUSH1 0x5 DUP1 SLOAD SWAP1 POP DUP2 LT ISZERO PUSH2 0x182D JUMPI PUSH1 0x0 PUSH1 0x4 PUSH1 0x0 PUSH1 0x5 DUP5 DUP2 SLOAD DUP2 LT PUSH2 0x169D JUMPI PUSH2 0x169C PUSH2 0x382C JUMP JUMPDEST JUMPDEST SWAP1 PUSH1 0x0 MSTORE PUSH1 0x20 PUSH1 0x0 KECCAK256 ADD PUSH1 0x0 SWAP1 SLOAD SWAP1 PUSH2 0x100 EXP SWAP1 DIV PUSH20 0xFFFFFFFFFFFFFFFFFFFFFFFFFFFFFFFFFFFFFFFF AND PUSH20 0xFFFFFFFFFFFFFFFFFFFFFFFFFFFFFFFFFFFFFFFF AND PUSH20 0xFFFFFFFFFFFFFFFFFFFFFFFFFFFFFFFFFFFFFFFF AND DUP2 MSTORE PUSH1 0x20 ADD SWAP1 DUP2 MSTORE PUSH1 0x20 ADD PUSH1 0x0 KECCAK256 PUSH1 0x40 MLOAD DUP1 PUSH1 0x80 ADD PUSH1 0x40 MSTORE SWAP1 DUP2 PUSH1 0x0 DUP3 ADD PUSH1 0x0 SWAP1 SLOAD SWAP1 PUSH2 0x100 EXP SWAP1 DIV PUSH1 0x80 SHL PUSH16 0xFFFFFFFFFFFFFFFFFFFFFFFFFFFFFFFF NOT AND PUSH16 0xFFFFFFFFFFFFFFFFFFFFFFFFFFFFFFFF NOT AND DUP2 MSTORE PUSH1 0x20 ADD PUSH1 0x0 DUP3 ADD PUSH1 0x10 SWAP1 SLOAD SWAP1 PUSH2 0x100 EXP SWAP1 DIV PUSH1 0xFF AND PUSH1 0xFF AND PUSH1 0xFF AND DUP2 MSTORE PUSH1 0x20 ADD PUSH1 0x0 DUP3 ADD PUSH1 0x11 SWAP1 SLOAD SWAP1 PUSH2 0x100 EXP SWAP1 DIV PUSH1 0xFF AND PUSH1 0xFF AND PUSH1 0xFF AND DUP2 MSTORE PUSH1 0x20 ADD PUSH1 0x0 DUP3 ADD PUSH1 0x12 SWAP1 SLOAD SWAP1 PUSH2 0x100 EXP SWAP1 DIV PUSH1 0xFF AND ISZERO ISZERO ISZERO ISZERO DUP2 MSTORE POP POP SWAP1 POP DUP1 PUSH1 0x60 ADD MLOAD DUP1 ISZERO PUSH2 0x17DB JUMPI POP DUP6 PUSH16 0xFFFFFFFFFFFFFFFFFFFFFFFFFFFFFFFF NOT AND DUP2 PUSH1 0x0 ADD MLOAD PUSH16 0xFFFFFFFFFFFFFFFFFFFFFFFFFFFFFFFF NOT AND EQ JUMPDEST DUP1 ISZERO PUSH2 0x17F0 JUMPI POP DUP5 PUSH1 0xFF AND DUP2 PUSH1 0x20 ADD MLOAD PUSH1 0xFF AND EQ JUMPDEST DUP1 ISZERO PUSH2 0x1805 JUMPI POP DUP4 PUSH1 0xFF AND DUP2 PUSH1 0x40 ADD MLOAD PUSH1 0xFF AND EQ JUMPDEST ISZERO PUSH2 0x1819 JUMPI DUP3 DUP1 PUSH2 0x1815 SWAP1 PUSH2 0x3F8B JUMP JUMPDEST SWAP4 POP POP JUMPDEST POP DUP1 DUP1 PUSH2 0x1825 SWAP1 PUSH2 0x3F8B JUMP JUMPDEST SWAP2 POP POP PUSH2 0x1676 JUMP JUMPDEST POP PUSH1 0x0 PUSH1 0x5 DUP1 SLOAD SWAP1 POP PUSH1 0x64 DUP4 PUSH2 0x1843 SWAP2 SWAP1 PUSH2 0x38F6 JUMP JUMPDEST PUSH2 0x184D SWAP2 SWAP1 PUSH2 0x3967 JUMP JUMPDEST SWAP1 POP PUSH1 0x46 DUP2 GT PUSH2 0x1892 JUMPI PUSH1 0x40 MLOAD PUSH32 0x8C379A000000000000000000000000000000000000000000000000000000000 DUP2 MSTORE PUSH1 0x4 ADD PUSH2 0x1889 SWAP1 PUSH2 0x4045 JUMP JUMPDEST PUSH1 0x40 MLOAD DUP1 SWAP2 SUB SWAP1 REVERT JUMPDEST PUSH2 0x189C PUSH1 0x3 PUSH2 0x1BCE JUMP JUMPDEST PUSH1 0x40 MLOAD DUP1 PUSH1 0x80 ADD PUSH1 0x40 MSTORE DUP1 DUP7 PUSH16 0xFFFFFFFFFFFFFFFFFFFFFFFFFFFFFFFF NOT AND DUP2 MSTORE PUSH1 0x20 ADD DUP6 PUSH1 0xFF AND DUP2 MSTORE PUSH1 0x20 ADD DUP5 PUSH1 0xFF AND DUP2 MSTORE PUSH1 0x20 ADD PUSH1 0x1 ISZERO ISZERO DUP2 MSTORE POP PUSH1 0x6 PUSH1 0x0 DUP3 ADD MLOAD DUP2 PUSH1 0x0 ADD PUSH1 0x0 PUSH2 0x100 EXP DUP2 SLOAD DUP2 PUSH16 0xFFFFFFFFFFFFFFFFFFFFFFFFFFFFFFFF MUL NOT AND SWAP1 DUP4 PUSH1 0x80 SHR MUL OR SWAP1 SSTORE POP PUSH1 0x20 DUP3 ADD MLOAD DUP2 PUSH1 0x0 ADD PUSH1 0x10 PUSH2 0x100 EXP DUP2 SLOAD DUP2 PUSH1 0xFF MUL NOT AND SWAP1 DUP4 PUSH1 0xFF AND MUL OR SWAP1 SSTORE POP PUSH1 0x40 DUP3 ADD MLOAD DUP2 PUSH1 0x0 ADD PUSH1 0x11 PUSH2 0x100 EXP DUP2 SLOAD DUP2 PUSH1 0xFF MUL NOT AND SWAP1 DUP4 PUSH1 0xFF AND MUL OR SWAP1 SSTORE POP PUSH1 0x60 DUP3 ADD MLOAD DUP2 PUSH1 0x0 ADD PUSH1 0x12 PUSH2 0x100 EXP DUP2 SLOAD DUP2 PUSH1 0xFF MUL NOT AND SWAP1 DUP4 ISZERO ISZERO MUL OR SWAP1 SSTORE POP SWAP1 POP POP POP POP POP POP POP JUMP JUMPDEST PUSH1 0xD PUSH1 0x0 SWAP1 SLOAD SWAP1 PUSH2 0x100 EXP SWAP1 DIV PUSH20 0xFFFFFFFFFFFFFFFFFFFFFFFFFFFFFFFFFFFFFFFF AND DUP2 JUMP JUMPDEST PUSH2 0x19A5 PUSH2 0x1CE3 JUMP JUMPDEST PUSH1 0x0 PUSH1 0x4 DUP2 GT ISZERO PUSH2 0x19B9 JUMPI PUSH2 0x19B8 PUSH2 0x2FB1 JUMP JUMPDEST JUMPDEST PUSH1 0x3 PUSH1 0x0 SWAP1 SLOAD SWAP1 PUSH2 0x100 EXP SWAP1 DIV PUSH1 0xFF AND PUSH1 0x4 DUP2 GT ISZERO PUSH2 0x19DB JUMPI PUSH2 0x19DA PUSH2 0x2FB1 JUMP JUMPDEST JUMPDEST EQ PUSH2 0x1A1B JUMPI PUSH1 0x40 MLOAD PUSH32 0x8C379A000000000000000000000000000000000000000000000000000000000 DUP2 MSTORE PUSH1 0x4 ADD PUSH2 0x1A12 SWAP1 PUSH2 0x3E47 JUMP JUMPDEST PUSH1 0x40 MLOAD DUP1 SWAP2 SUB SWAP1 REVERT JUMPDEST PUSH1 0x1 PUSH1 0xA PUSH2 0x1A29 SWAP2 SWAP1 PUSH2 0x4065 JUMP JUMPDEST PUSH1 0x5 DUP1 SLOAD SWAP1 POP LT PUSH2 0x1A6F JUMPI PUSH1 0x40 MLOAD PUSH32 0x8C379A000000000000000000000000000000000000000000000000000000000 DUP2 MSTORE PUSH1 0x4 ADD PUSH2 0x1A66 SWAP1 PUSH2 0x410B JUMP JUMPDEST PUSH1 0x40 MLOAD DUP1 SWAP2 SUB SWAP1 REVERT JUMPDEST PUSH1 0x5 DUP2 SWAP1 DUP1 PUSH1 0x1 DUP2 SLOAD ADD DUP1 DUP3 SSTORE DUP1 SWAP2 POP POP PUSH1 0x1 SWAP1 SUB SWAP1 PUSH1 0x0 MSTORE PUSH1 0x20 PUSH1 0x0 KECCAK256 ADD PUSH1 0x0 SWAP1 SWAP2 SWAP1 SWAP2 SWAP1 SWAP2 PUSH2 0x100 EXP DUP2 SLOAD DUP2 PUSH20 0xFFFFFFFFFFFFFFFFFFFFFFFFFFFFFFFFFFFFFFFF MUL NOT AND SWAP1 DUP4 PUSH20 0xFFFFFFFFFFFFFFFFFFFFFFFFFFFFFFFFFFFFFFFF AND MUL OR SWAP1 SSTORE POP POP JUMP JUMPDEST PUSH1 0x2 PUSH1 0x20 MSTORE DUP1 PUSH1 0x0 MSTORE PUSH1 0x40 PUSH1 0x0 KECCAK256 PUSH1 0x0 SWAP2 POP SWAP1 POP SLOAD DUP2 JUMP JUMPDEST PUSH2 0x1AF7 PUSH1 0x2 PUSH2 0x1BCE JUMP JUMPDEST JUMP JUMPDEST PUSH2 0x1B01 PUSH2 0x1CE3 JUMP JUMPDEST PUSH1 0x0 PUSH20 0xFFFFFFFFFFFFFFFFFFFFFFFFFFFFFFFFFFFFFFFF AND DUP2 PUSH20 0xFFFFFFFFFFFFFFFFFFFFFFFFFFFFFFFFFFFFFFFF AND SUB PUSH2 0x1B70 JUMPI PUSH1 0x40 MLOAD PUSH32 0x8C379A000000000000000000000000000000000000000000000000000000000 DUP2 MSTORE PUSH1 0x4 ADD PUSH2 0x1B67 SWAP1 PUSH2 0x419D JUMP JUMPDEST PUSH1 0x40 MLOAD DUP1 SWAP2 SUB SWAP1 REVERT JUMPDEST PUSH2 0x1B79 DUP2 PUSH2 0x1D61 JUMP JUMPDEST POP JUMP JUMPDEST PUSH1 0x6 DUP1 PUSH1 0x0 ADD PUSH1 0x0 SWAP1 SLOAD SWAP1 PUSH2 0x100 EXP SWAP1 DIV PUSH1 0x80 SHL SWAP1 DUP1 PUSH1 0x0 ADD PUSH1 0x10 SWAP1 SLOAD SWAP1 PUSH2 0x100 EXP SWAP1 DIV PUSH1 0xFF AND SWAP1 DUP1 PUSH1 0x0 ADD PUSH1 0x11 SWAP1 SLOAD SWAP1 PUSH2 0x100 EXP SWAP1 DIV PUSH1 0xFF AND SWAP1 DUP1 PUSH1 0x0 ADD PUSH1 0x12 SWAP1 SLOAD SWAP1 PUSH2 0x100 EXP SWAP1 DIV PUSH1 0xFF AND SWAP1 POP DUP5 JUMP JUMPDEST PUSH1 0x1 PUSH1 0x3 PUSH1 0x0 SWAP1 SLOAD SWAP1 PUSH2 0x100 EXP SWAP1 DIV PUSH1 0xFF AND PUSH1 0x4 DUP2 GT ISZERO PUSH2 0x1BF2 JUMPI PUSH2 0x1BF1 PUSH2 0x2FB1 JUMP JUMPDEST JUMPDEST PUSH2 0x1BFC SWAP2 SWAP1 PUSH2 0x41BD JUMP JUMPDEST DUP2 PUSH1 0x4 DUP2 GT ISZERO PUSH2 0x1C0F JUMPI PUSH2 0x1C0E PUSH2 0x2FB1 JUMP JUMPDEST JUMPDEST EQ PUSH2 0x1C4F JUMPI PUSH1 0x40 MLOAD PUSH32 0x8C379A000000000000000000000000000000000000000000000000000000000 DUP2 MSTORE PUSH1 0x4 ADD PUSH2 0x1C46 SWAP1 PUSH2 0x423D JUMP JUMPDEST PUSH1 0x40 MLOAD DUP1 SWAP2 SUB SWAP1 REVERT JUMPDEST PUSH1 0x2 PUSH1 0x0 DUP3 PUSH1 0x4 DUP2 GT ISZERO PUSH2 0x1C66 JUMPI PUSH2 0x1C65 PUSH2 0x2FB1 JUMP JUMPDEST JUMPDEST DUP2 MSTORE PUSH1 0x20 ADD SWAP1 DUP2 MSTORE PUSH1 0x20 ADD PUSH1 0x0 KECCAK256 SLOAD TIMESTAMP GT PUSH2 0x1CB6 JUMPI PUSH1 0x40 MLOAD PUSH32 0x8C379A000000000000000000000000000000000000000000000000000000000 DUP2 MSTORE PUSH1 0x4 ADD PUSH2 0x1CAD SWAP1 PUSH2 0x42CF JUMP JUMPDEST PUSH1 0x40 MLOAD DUP1 SWAP2 SUB SWAP1 REVERT JUMPDEST DUP1 PUSH1 0x3 PUSH1 0x0 PUSH2 0x100 EXP DUP2 SLOAD DUP2 PUSH1 0xFF MUL NOT AND SWAP1 DUP4 PUSH1 0x4 DUP2 GT ISZERO PUSH2 0x1CDB JUMPI PUSH2 0x1CDA PUSH2 0x2FB1 JUMP JUMPDEST JUMPDEST MUL OR SWAP1 SSTORE POP POP JUMP JUMPDEST PUSH2 0x1CEB PUSH2 0x2ADE JUMP JUMPDEST PUSH20 0xFFFFFFFFFFFFFFFFFFFFFFFFFFFFFFFFFFFFFFFF AND PUSH2 0x1D09 PUSH2 0x128B JUMP JUMPDEST PUSH20 0xFFFFFFFFFFFFFFFFFFFFFFFFFFFFFFFFFFFFFFFF AND EQ PUSH2 0x1D5F JUMPI PUSH1 0x40 MLOAD PUSH32 0x8C379A000000000000000000000000000000000000000000000000000000000 DUP2 MSTORE PUSH1 0x4 ADD PUSH2 0x1D56 SWAP1 PUSH2 0x433B JUMP JUMPDEST PUSH1 0x40 MLOAD DUP1 SWAP2 SUB SWAP1 REVERT JUMPDEST JUMP JUMPDEST PUSH1 0x0 DUP1 PUSH1 0x0 SWAP1 SLOAD SWAP1 PUSH2 0x100 EXP SWAP1 DIV PUSH20 0xFFFFFFFFFFFFFFFFFFFFFFFFFFFFFFFFFFFFFFFF AND SWAP1 POP DUP2 PUSH1 0x0 DUP1 PUSH2 0x100 EXP DUP2 SLOAD DUP2 PUSH20 0xFFFFFFFFFFFFFFFFFFFFFFFFFFFFFFFFFFFFFFFF MUL NOT AND SWAP1 DUP4 PUSH20 0xFFFFFFFFFFFFFFFFFFFFFFFFFFFFFFFFFFFFFFFF AND MUL OR SWAP1 SSTORE POP DUP2 PUSH20 0xFFFFFFFFFFFFFFFFFFFFFFFFFFFFFFFFFFFFFFFF AND DUP2 PUSH20 0xFFFFFFFFFFFFFFFFFFFFFFFFFFFFFFFFFFFFFFFF AND PUSH32 0x8BE0079C531659141344CD1FD0A4F28419497F9722A3DAAFE3B4186F6B6457E0 PUSH1 0x40 MLOAD PUSH1 0x40 MLOAD DUP1 SWAP2 SUB SWAP1 LOG3 POP POP JUMP JUMPDEST PUSH1 0x0 DUP1 PUSH1 0x2 DUP4 PUSH2 0x1E35 SWAP2 SWAP1 PUSH2 0x435B JUMP JUMPDEST PUSH1 0x2 PUSH2 0x1E41 SWAP2 SWAP1 PUSH2 0x44E7 JUMP JUMPDEST PUSH1 0x3 PUSH2 0x1E4D SWAP2 SWAP1 PUSH2 0x4522 JUMP JUMPDEST SWAP1 POP PUSH1 0x0 DUP2 DUP6 PUSH1 0x80 SHR AND SWAP1 POP PUSH1 0x2 DUP5 PUSH2 0x1E66 SWAP2 SWAP1 PUSH2 0x435B JUMP JUMPDEST PUSH1 0x2 PUSH2 0x1E72 SWAP2 SWAP1 PUSH2 0x44E7 JUMP JUMPDEST DUP2 PUSH2 0x1E7D SWAP2 SWAP1 PUSH2 0x455F JUMP JUMPDEST SWAP3 POP POP POP SWAP3 SWAP2 POP POP JUMP JUMPDEST PUSH1 0x0 PUSH1 0x3 PUSH1 0x4 DUP2 GT ISZERO PUSH2 0x1E9D JUMPI PUSH2 0x1E9C PUSH2 0x2FB1 JUMP JUMPDEST JUMPDEST PUSH1 0x3 PUSH1 0x0 SWAP1 SLOAD SWAP1 PUSH2 0x100 EXP SWAP1 DIV PUSH1 0xFF AND PUSH1 0x4 DUP2 GT ISZERO PUSH2 0x1EBF JUMPI PUSH2 0x1EBE PUSH2 0x2FB1 JUMP JUMPDEST JUMPDEST EQ PUSH2 0x1EFF JUMPI PUSH1 0x40 MLOAD PUSH32 0x8C379A000000000000000000000000000000000000000000000000000000000 DUP2 MSTORE PUSH1 0x4 ADD PUSH2 0x1EF6 SWAP1 PUSH2 0x4602 JUMP JUMPDEST PUSH1 0x40 MLOAD DUP1 SWAP2 SUB SWAP1 REVERT JUMPDEST PUSH1 0x0 PUSH20 0xFFFFFFFFFFFFFFFFFFFFFFFFFFFFFFFFFFFFFFFF AND PUSH1 0x1 PUSH1 0x0 DUP8 DUP2 MSTORE PUSH1 0x20 ADD SWAP1 DUP2 MSTORE PUSH1 0x20 ADD PUSH1 0x0 KECCAK256 PUSH1 0x0 ADD PUSH1 0x0 SWAP1 SLOAD SWAP1 PUSH2 0x100 EXP SWAP1 DIV PUSH20 0xFFFFFFFFFFFFFFFFFFFFFFFFFFFFFFFFFFFFFFFF AND PUSH20 0xFFFFFFFFFFFFFFFFFFFFFFFFFFFFFFFFFFFFFFFF AND SUB PUSH2 0x1FA4 JUMPI PUSH1 0x40 MLOAD PUSH32 0x8C379A000000000000000000000000000000000000000000000000000000000 DUP2 MSTORE PUSH1 0x4 ADD PUSH2 0x1F9B SWAP1 PUSH2 0x4694 JUMP JUMPDEST PUSH1 0x40 MLOAD DUP1 SWAP2 SUB SWAP1 REVERT JUMPDEST PUSH1 0x0 PUSH16 0xFFFFFFFFFFFFFFFFFFFFFFFFFFFFFFFF DUP7 AND PUSH1 0x80 SHL SWAP1 POP PUSH1 0x0 PUSH17 0x100000000000000000000000000000000 DUP8 PUSH2 0x1FDD SWAP2 SWAP1 PUSH2 0x3967 JUMP JUMPDEST SWAP1 POP PUSH1 0x0 PUSH8 0xFFFFFFFFFFFFFFFF DUP3 AND SWAP1 POP PUSH25 0x1000000000000000000000000000000000000000000000000 DUP9 PUSH2 0x2013 SWAP2 SWAP1 PUSH2 0x3967 JUMP JUMPDEST SWAP2 POP PUSH1 0x0 PUSH8 0xFFFFFFFFFFFFFFFF DUP4 AND SWAP1 POP PUSH1 0x0 PUSH2 0x2030 DUP6 DUP11 PUSH2 0x2AE6 JUMP JUMPDEST SWAP1 POP PUSH1 0x0 PUSH2 0x2040 DUP5 DUP5 DUP12 DUP12 PUSH2 0x2CB2 JUMP JUMPDEST SWAP1 POP PUSH1 0x0 PUSH1 0x40 MLOAD DUP1 PUSH1 0x80 ADD PUSH1 0x40 MSTORE DUP1 PUSH1 0x1 PUSH1 0x0 DUP16 DUP2 MSTORE PUSH1 0x20 ADD SWAP1 DUP2 MSTORE PUSH1 0x20 ADD PUSH1 0x0 KECCAK256 PUSH1 0x0 ADD PUSH1 0x14 SWAP1 SLOAD SWAP1 PUSH2 0x100 EXP SWAP1 DIV PUSH6 0xFFFFFFFFFFFF AND PUSH6 0xFFFFFFFFFFFF AND DUP2 MSTORE PUSH1 0x20 ADD DUP5 PUSH4 0xFFFFFFFF AND DUP2 MSTORE PUSH1 0x20 ADD DUP4 PUSH8 0xFFFFFFFFFFFFFFFF AND DUP2 MSTORE PUSH1 0x20 ADD PUSH1 0x1 PUSH1 0x0 DUP16 DUP2 MSTORE PUSH1 0x20 ADD SWAP1 DUP2 MSTORE PUSH1 0x20 ADD PUSH1 0x0 KECCAK256 PUSH1 0x0 ADD PUSH1 0x0 SWAP1 SLOAD SWAP1 PUSH2 0x100 EXP SWAP1 DIV PUSH20 0xFFFFFFFFFFFFFFFFFFFFFFFFFFFFFFFFFFFFFFFF AND PUSH20 0xFFFFFFFFFFFFFFFFFFFFFFFFFFFFFFFFFFFFFFFF AND DUP2 MSTORE POP SWAP1 POP PUSH2 0x21FA DUP2 PUSH1 0x7 PUSH1 0x0 PUSH1 0x3 DUP2 LT PUSH2 0x210C JUMPI PUSH2 0x210B PUSH2 0x382C JUMP JUMPDEST JUMPDEST PUSH1 0x2 MUL ADD PUSH1 0x40 MLOAD DUP1 PUSH1 0x80 ADD PUSH1 0x40 MSTORE SWAP1 DUP2 PUSH1 0x0 DUP3 ADD PUSH1 0x0 SWAP1 SLOAD SWAP1 PUSH2 0x100 EXP SWAP1 DIV PUSH6 0xFFFFFFFFFFFF AND PUSH6 0xFFFFFFFFFFFF AND PUSH6 0xFFFFFFFFFFFF AND DUP2 MSTORE PUSH1 0x20 ADD PUSH1 0x0 DUP3 ADD PUSH1 0x6 SWAP1 SLOAD SWAP1 PUSH2 0x100 EXP SWAP1 DIV PUSH4 0xFFFFFFFF AND PUSH4 0xFFFFFFFF AND PUSH4 0xFFFFFFFF AND DUP2 MSTORE PUSH1 0x20 ADD PUSH1 0x0 DUP3 ADD PUSH1 0xA SWAP1 SLOAD SWAP1 PUSH2 0x100 EXP SWAP1 DIV PUSH8 0xFFFFFFFFFFFFFFFF AND PUSH8 0xFFFFFFFFFFFFFFFF AND PUSH8 0xFFFFFFFFFFFFFFFF AND DUP2 MSTORE PUSH1 0x20 ADD PUSH1 0x1 DUP3 ADD PUSH1 0x0 SWAP1 SLOAD SWAP1 PUSH2 0x100 EXP SWAP1 DIV PUSH20 0xFFFFFFFFFFFFFFFFFFFFFFFFFFFFFFFFFFFFFFFF AND PUSH20 0xFFFFFFFFFFFFFFFFFFFFFFFFFFFFFFFFFFFFFFFF AND PUSH20 0xFFFFFFFFFFFFFFFFFFFFFFFFFFFFFFFFFFFFFFFF AND DUP2 MSTORE POP POP PUSH2 0x2D51 JUMP JUMPDEST ISZERO PUSH2 0x258F JUMPI PUSH1 0x7 PUSH1 0x1 PUSH1 0x3 DUP2 LT PUSH2 0x2214 JUMPI PUSH2 0x2213 PUSH2 0x382C JUMP JUMPDEST JUMPDEST PUSH1 0x2 MUL ADD PUSH1 0x7 PUSH1 0x2 PUSH1 0x3 DUP2 LT PUSH2 0x222D JUMPI PUSH2 0x222C PUSH2 0x382C JUMP JUMPDEST JUMPDEST PUSH1 0x2 MUL ADD PUSH1 0x0 DUP3 ADD PUSH1 0x0 SWAP1 SLOAD SWAP1 PUSH2 0x100 EXP SWAP1 DIV PUSH6 0xFFFFFFFFFFFF AND DUP2 PUSH1 0x0 ADD PUSH1 0x0 PUSH2 0x100 EXP DUP2 SLOAD DUP2 PUSH6 0xFFFFFFFFFFFF MUL NOT AND SWAP1 DUP4 PUSH6 0xFFFFFFFFFFFF AND MUL OR SWAP1 SSTORE POP PUSH1 0x0 DUP3 ADD PUSH1 0x6 SWAP1 SLOAD SWAP1 PUSH2 0x100 EXP SWAP1 DIV PUSH4 0xFFFFFFFF AND DUP2 PUSH1 0x0 ADD PUSH1 0x6 PUSH2 0x100 EXP DUP2 SLOAD DUP2 PUSH4 0xFFFFFFFF MUL NOT AND SWAP1 DUP4 PUSH4 0xFFFFFFFF AND MUL OR SWAP1 SSTORE POP PUSH1 0x0 DUP3 ADD PUSH1 0xA SWAP1 SLOAD SWAP1 PUSH2 0x100 EXP SWAP1 DIV PUSH8 0xFFFFFFFFFFFFFFFF AND DUP2 PUSH1 0x0 ADD PUSH1 0xA PUSH2 0x100 EXP DUP2 SLOAD DUP2 PUSH8 0xFFFFFFFFFFFFFFFF MUL NOT AND SWAP1 DUP4 PUSH8 0xFFFFFFFFFFFFFFFF AND MUL OR SWAP1 SSTORE POP PUSH1 0x1 DUP3 ADD PUSH1 0x0 SWAP1 SLOAD SWAP1 PUSH2 0x100 EXP SWAP1 DIV PUSH20 0xFFFFFFFFFFFFFFFFFFFFFFFFFFFFFFFFFFFFFFFF AND DUP2 PUSH1 0x1 ADD PUSH1 0x0 PUSH2 0x100 EXP DUP2 SLOAD DUP2 PUSH20 0xFFFFFFFFFFFFFFFFFFFFFFFFFFFFFFFFFFFFFFFF MUL NOT AND SWAP1 DUP4 PUSH20 0xFFFFFFFFFFFFFFFFFFFFFFFFFFFFFFFFFFFFFFFF AND MUL OR SWAP1 SSTORE POP SWAP1 POP POP PUSH1 0x7 PUSH1 0x0 PUSH1 0x3 DUP2 LT PUSH2 0x2367 JUMPI PUSH2 0x2366 PUSH2 0x382C JUMP JUMPDEST JUMPDEST PUSH1 0x2 MUL ADD PUSH1 0x7 PUSH1 0x1 PUSH1 0x3 DUP2 LT PUSH2 0x2380 JUMPI PUSH2 0x237F PUSH2 0x382C JUMP JUMPDEST JUMPDEST PUSH1 0x2 MUL ADD PUSH1 0x0 DUP3 ADD PUSH1 0x0 SWAP1 SLOAD SWAP1 PUSH2 0x100 EXP SWAP1 DIV PUSH6 0xFFFFFFFFFFFF AND DUP2 PUSH1 0x0 ADD PUSH1 0x0 PUSH2 0x100 EXP DUP2 SLOAD DUP2 PUSH6 0xFFFFFFFFFFFF MUL NOT AND SWAP1 DUP4 PUSH6 0xFFFFFFFFFFFF AND MUL OR SWAP1 SSTORE POP PUSH1 0x0 DUP3 ADD PUSH1 0x6 SWAP1 SLOAD SWAP1 PUSH2 0x100 EXP SWAP1 DIV PUSH4 0xFFFFFFFF AND DUP2 PUSH1 0x0 ADD PUSH1 0x6 PUSH2 0x100 EXP DUP2 SLOAD DUP2 PUSH4 0xFFFFFFFF MUL NOT AND SWAP1 DUP4 PUSH4 0xFFFFFFFF AND MUL OR SWAP1 SSTORE POP PUSH1 0x0 DUP3 ADD PUSH1 0xA SWAP1 SLOAD SWAP1 PUSH2 0x100 EXP SWAP1 DIV PUSH8 0xFFFFFFFFFFFFFFFF AND DUP2 PUSH1 0x0 ADD PUSH1 0xA PUSH2 0x100 EXP DUP2 SLOAD DUP2 PUSH8 0xFFFFFFFFFFFFFFFF MUL NOT AND SWAP1 DUP4 PUSH8 0xFFFFFFFFFFFFFFFF AND MUL OR SWAP1 SSTORE POP PUSH1 0x1 DUP3 ADD PUSH1 0x0 SWAP1 SLOAD SWAP1 PUSH2 0x100 EXP SWAP1 DIV PUSH20 0xFFFFFFFFFFFFFFFFFFFFFFFFFFFFFFFFFFFFFFFF AND DUP2 PUSH1 0x1 ADD PUSH1 0x0 PUSH2 0x100 EXP DUP2 SLOAD DUP2 PUSH20 0xFFFFFFFFFFFFFFFFFFFFFFFFFFFFFFFFFFFFFFFF MUL NOT AND SWAP1 DUP4 PUSH20 0xFFFFFFFFFFFFFFFFFFFFFFFFFFFFFFFFFFFFFFFF AND MUL OR SWAP1 SSTORE POP SWAP1 POP POP DUP1 PUSH1 0x7 PUSH1 0x0 PUSH1 0x3 DUP2 LT PUSH2 0x24BB JUMPI PUSH2 0x24BA PUSH2 0x382C JUMP JUMPDEST JUMPDEST PUSH1 0x2 MUL ADD PUSH1 0x0 DUP3 ADD MLOAD DUP2 PUSH1 0x0 ADD PUSH1 0x0 PUSH2 0x100 EXP DUP2 SLOAD DUP2 PUSH6 0xFFFFFFFFFFFF MUL NOT AND SWAP1 DUP4 PUSH6 0xFFFFFFFFFFFF AND MUL OR SWAP1 SSTORE POP PUSH1 0x20 DUP3 ADD MLOAD DUP2 PUSH1 0x0 ADD PUSH1 0x6 PUSH2 0x100 EXP DUP2 SLOAD DUP2 PUSH4 0xFFFFFFFF MUL NOT AND SWAP1 DUP4 PUSH4 0xFFFFFFFF AND MUL OR SWAP1 SSTORE POP PUSH1 0x40 DUP3 ADD MLOAD DUP2 PUSH1 0x0 ADD PUSH1 0xA PUSH2 0x100 EXP DUP2 SLOAD DUP2 PUSH8 0xFFFFFFFFFFFFFFFF MUL NOT AND SWAP1 DUP4 PUSH8 0xFFFFFFFFFFFFFFFF AND MUL OR SWAP1 SSTORE POP PUSH1 0x60 DUP3 ADD MLOAD DUP2 PUSH1 0x1 ADD PUSH1 0x0 PUSH2 0x100 EXP DUP2 SLOAD DUP2 PUSH20 0xFFFFFFFFFFFFFFFFFFFFFFFFFFFFFFFFFFFFFFFF MUL NOT AND SWAP1 DUP4 PUSH20 0xFFFFFFFFFFFFFFFFFFFFFFFFFFFFFFFFFFFFFFFF AND MUL OR SWAP1 SSTORE POP SWAP1 POP POP PUSH2 0x2ACC JUMP JUMPDEST PUSH2 0x2696 DUP2 PUSH1 0x7 PUSH1 0x1 PUSH1 0x3 DUP2 LT PUSH2 0x25A8 JUMPI PUSH2 0x25A7 PUSH2 0x382C JUMP JUMPDEST JUMPDEST PUSH1 0x2 MUL ADD PUSH1 0x40 MLOAD DUP1 PUSH1 0x80 ADD PUSH1 0x40 MSTORE SWAP1 DUP2 PUSH1 0x0 DUP3 ADD PUSH1 0x0 SWAP1 SLOAD SWAP1 PUSH2 0x100 EXP SWAP1 DIV PUSH6 0xFFFFFFFFFFFF AND PUSH6 0xFFFFFFFFFFFF AND PUSH6 0xFFFFFFFFFFFF AND DUP2 MSTORE PUSH1 0x20 ADD PUSH1 0x0 DUP3 ADD PUSH1 0x6 SWAP1 SLOAD SWAP1 PUSH2 0x100 EXP SWAP1 DIV PUSH4 0xFFFFFFFF AND PUSH4 0xFFFFFFFF AND PUSH4 0xFFFFFFFF AND DUP2 MSTORE PUSH1 0x20 ADD PUSH1 0x0 DUP3 ADD PUSH1 0xA SWAP1 SLOAD SWAP1 PUSH2 0x100 EXP SWAP1 DIV PUSH8 0xFFFFFFFFFFFFFFFF AND PUSH8 0xFFFFFFFFFFFFFFFF AND PUSH8 0xFFFFFFFFFFFFFFFF AND DUP2 MSTORE PUSH1 0x20 ADD PUSH1 0x1 DUP3 ADD PUSH1 0x0 SWAP1 SLOAD SWAP1 PUSH2 0x100 EXP SWAP1 DIV PUSH20 0xFFFFFFFFFFFFFFFFFFFFFFFFFFFFFFFFFFFFFFFF AND PUSH20 0xFFFFFFFFFFFFFFFFFFFFFFFFFFFFFFFFFFFFFFFF AND PUSH20 0xFFFFFFFFFFFFFFFFFFFFFFFFFFFFFFFFFFFFFFFF AND DUP2 MSTORE POP POP PUSH2 0x2D51 JUMP JUMPDEST ISZERO PUSH2 0x28D8 JUMPI PUSH1 0x7 PUSH1 0x1 PUSH1 0x3 DUP2 LT PUSH2 0x26B0 JUMPI PUSH2 0x26AF PUSH2 0x382C JUMP JUMPDEST JUMPDEST PUSH1 0x2 MUL ADD PUSH1 0x7 PUSH1 0x2 PUSH1 0x3 DUP2 LT PUSH2 0x26C9 JUMPI PUSH2 0x26C8 PUSH2 0x382C JUMP JUMPDEST JUMPDEST PUSH1 0x2 MUL ADD PUSH1 0x0 DUP3 ADD PUSH1 0x0 SWAP1 SLOAD SWAP1 PUSH2 0x100 EXP SWAP1 DIV PUSH6 0xFFFFFFFFFFFF AND DUP2 PUSH1 0x0 ADD PUSH1 0x0 PUSH2 0x100 EXP DUP2 SLOAD DUP2 PUSH6 0xFFFFFFFFFFFF MUL NOT AND SWAP1 DUP4 PUSH6 0xFFFFFFFFFFFF AND MUL OR SWAP1 SSTORE POP PUSH1 0x0 DUP3 ADD PUSH1 0x6 SWAP1 SLOAD SWAP1 PUSH2 0x100 EXP SWAP1 DIV PUSH4 0xFFFFFFFF AND DUP2 PUSH1 0x0 ADD PUSH1 0x6 PUSH2 0x100 EXP DUP2 SLOAD DUP2 PUSH4 0xFFFFFFFF MUL NOT AND SWAP1 DUP4 PUSH4 0xFFFFFFFF AND MUL OR SWAP1 SSTORE POP PUSH1 0x0 DUP3 ADD PUSH1 0xA SWAP1 SLOAD SWAP1 PUSH2 0x100 EXP SWAP1 DIV PUSH8 0xFFFFFFFFFFFFFFFF AND DUP2 PUSH1 0x0 ADD PUSH1 0xA PUSH2 0x100 EXP DUP2 SLOAD DUP2 PUSH8 0xFFFFFFFFFFFFFFFF MUL NOT AND SWAP1 DUP4 PUSH8 0xFFFFFFFFFFFFFFFF AND MUL OR SWAP1 SSTORE POP PUSH1 0x1 DUP3 ADD PUSH1 0x0 SWAP1 SLOAD SWAP1 PUSH2 0x100 EXP SWAP1 DIV PUSH20 0xFFFFFFFFFFFFFFFFFFFFFFFFFFFFFFFFFFFFFFFF AND DUP2 PUSH1 0x1 ADD PUSH1 0x0 PUSH2 0x100 EXP DUP2 SLOAD DUP2 PUSH20 0xFFFFFFFFFFFFFFFFFFFFFFFFFFFFFFFFFFFFFFFF MUL NOT AND SWAP1 DUP4 PUSH20 0xFFFFFFFFFFFFFFFFFFFFFFFFFFFFFFFFFFFFFFFF AND MUL OR SWAP1 SSTORE POP SWAP1 POP POP DUP1 PUSH1 0x7 PUSH1 0x1 PUSH1 0x3 DUP2 LT PUSH2 0x2804 JUMPI PUSH2 0x2803 PUSH2 0x382C JUMP JUMPDEST JUMPDEST PUSH1 0x2 MUL ADD PUSH1 0x0 DUP3 ADD MLOAD DUP2 PUSH1 0x0 ADD PUSH1 0x0 PUSH2 0x100 EXP DUP2 SLOAD DUP2 PUSH6 0xFFFFFFFFFFFF MUL NOT AND SWAP1 DUP4 PUSH6 0xFFFFFFFFFFFF AND MUL OR SWAP1 SSTORE POP PUSH1 0x20 DUP3 ADD MLOAD DUP2 PUSH1 0x0 ADD PUSH1 0x6 PUSH2 0x100 EXP DUP2 SLOAD DUP2 PUSH4 0xFFFFFFFF MUL NOT AND SWAP1 DUP4 PUSH4 0xFFFFFFFF AND MUL OR SWAP1 SSTORE POP PUSH1 0x40 DUP3 ADD MLOAD DUP2 PUSH1 0x0 ADD PUSH1 0xA PUSH2 0x100 EXP DUP2 SLOAD DUP2 PUSH8 0xFFFFFFFFFFFFFFFF MUL NOT AND SWAP1 DUP4 PUSH8 0xFFFFFFFFFFFFFFFF AND MUL OR SWAP1 SSTORE POP PUSH1 0x60 DUP3 ADD MLOAD DUP2 PUSH1 0x1 ADD PUSH1 0x0 PUSH2 0x100 EXP DUP2 SLOAD DUP2 PUSH20 0xFFFFFFFFFFFFFFFFFFFFFFFFFFFFFFFFFFFFFFFF MUL NOT AND SWAP1 DUP4 PUSH20 0xFFFFFFFFFFFFFFFFFFFFFFFFFFFFFFFFFFFFFFFF AND MUL OR SWAP1 SSTORE POP SWAP1 POP POP PUSH2 0x2ACB JUMP JUMPDEST PUSH2 0x29DF DUP2 PUSH1 0x7 PUSH1 0x2 PUSH1 0x3 DUP2 LT PUSH2 0x28F1 JUMPI PUSH2 0x28F0 PUSH2 0x382C JUMP JUMPDEST JUMPDEST PUSH1 0x2 MUL ADD PUSH1 0x40 MLOAD DUP1 PUSH1 0x80 ADD PUSH1 0x40 MSTORE SWAP1 DUP2 PUSH1 0x0 DUP3 ADD PUSH1 0x0 SWAP1 SLOAD SWAP1 PUSH2 0x100 EXP SWAP1 DIV PUSH6 0xFFFFFFFFFFFF AND PUSH6 0xFFFFFFFFFFFF AND PUSH6 0xFFFFFFFFFFFF AND DUP2 MSTORE PUSH1 0x20 ADD PUSH1 0x0 DUP3 ADD PUSH1 0x6 SWAP1 SLOAD SWAP1 PUSH2 0x100 EXP SWAP1 DIV PUSH4 0xFFFFFFFF AND PUSH4 0xFFFFFFFF AND PUSH4 0xFFFFFFFF AND DUP2 MSTORE PUSH1 0x20 ADD PUSH1 0x0 DUP3 ADD PUSH1 0xA SWAP1 SLOAD SWAP1 PUSH2 0x100 EXP SWAP1 DIV PUSH8 0xFFFFFFFFFFFFFFFF AND PUSH8 0xFFFFFFFFFFFFFFFF AND PUSH8 0xFFFFFFFFFFFFFFFF AND DUP2 MSTORE PUSH1 0x20 ADD PUSH1 0x1 DUP3 ADD PUSH1 0x0 SWAP1 SLOAD SWAP1 PUSH2 0x100 EXP SWAP1 DIV PUSH20 0xFFFFFFFFFFFFFFFFFFFFFFFFFFFFFFFFFFFFFFFF AND PUSH20 0xFFFFFFFFFFFFFFFFFFFFFFFFFFFFFFFFFFFFFFFF AND PUSH20 0xFFFFFFFFFFFFFFFFFFFFFFFFFFFFFFFFFFFFFFFF AND DUP2 MSTORE POP POP PUSH2 0x2D51 JUMP JUMPDEST ISZERO PUSH2 0x2ACA JUMPI DUP1 PUSH1 0x7 PUSH1 0x2 PUSH1 0x3 DUP2 LT PUSH2 0x29FA JUMPI PUSH2 0x29F9 PUSH2 0x382C JUMP JUMPDEST JUMPDEST PUSH1 0x2 MUL ADD PUSH1 0x0 DUP3 ADD MLOAD DUP2 PUSH1 0x0 ADD PUSH1 0x0 PUSH2 0x100 EXP DUP2 SLOAD DUP2 PUSH6 0xFFFFFFFFFFFF MUL NOT AND SWAP1 DUP4 PUSH6 0xFFFFFFFFFFFF AND MUL OR SWAP1 SSTORE POP PUSH1 0x20 DUP3 ADD MLOAD DUP2 PUSH1 0x0 ADD PUSH1 0x6 PUSH2 0x100 EXP DUP2 SLOAD DUP2 PUSH4 0xFFFFFFFF MUL NOT AND SWAP1 DUP4 PUSH4 0xFFFFFFFF AND MUL OR SWAP1 SSTORE POP PUSH1 0x40 DUP3 ADD MLOAD DUP2 PUSH1 0x0 ADD PUSH1 0xA PUSH2 0x100 EXP DUP2 SLOAD DUP2 PUSH8 0xFFFFFFFFFFFFFFFF MUL NOT AND SWAP1 DUP4 PUSH8 0xFFFFFFFFFFFFFFFF AND MUL OR SWAP1 SSTORE POP PUSH1 0x60 DUP3 ADD MLOAD DUP2 PUSH1 0x1 ADD PUSH1 0x0 PUSH2 0x100 EXP DUP2 SLOAD DUP2 PUSH20 0xFFFFFFFFFFFFFFFFFFFFFFFFFFFFFFFFFFFFFFFF MUL NOT AND SWAP1 DUP4 PUSH20 0xFFFFFFFFFFFFFFFFFFFFFFFFFFFFFFFFFFFFFFFF AND MUL OR SWAP1 SSTORE POP SWAP1 POP POP JUMPDEST JUMPDEST JUMPDEST DUP3 SWAP8 POP POP POP POP POP POP POP POP SWAP5 SWAP4 POP POP POP POP JUMP JUMPDEST PUSH1 0x0 CALLER SWAP1 POP SWAP1 JUMP JUMPDEST PUSH1 0x0 DUP1 PUSH1 0x0 SWAP1 POP PUSH1 0x0 DUP1 DUP6 SWAP1 POP PUSH1 0x0 JUMPDEST PUSH1 0x3F DUP2 PUSH1 0xFF AND LT ISZERO PUSH2 0x2CA5 JUMPI PUSH2 0x2B0B DUP2 PUSH2 0x2E75 JUMP JUMPDEST SWAP3 POP PUSH1 0x0 PUSH2 0x2B19 DUP4 DUP4 PUSH2 0x1E25 JUMP JUMPDEST SWAP1 POP PUSH2 0x2B25 DUP8 DUP4 PUSH2 0x1E25 JUMP JUMPDEST PUSH16 0xFFFFFFFFFFFFFFFFFFFFFFFFFFFFFFFF AND DUP2 PUSH16 0xFFFFFFFFFFFFFFFFFFFFFFFFFFFFFFFF AND SUB PUSH2 0x2B6E JUMPI DUP4 PUSH1 0x2 PUSH2 0x2B5C SWAP2 SWAP1 PUSH2 0x46B4 JUMP JUMPDEST DUP6 PUSH2 0x2B67 SWAP2 SWAP1 PUSH2 0x46E3 JUMP JUMPDEST SWAP5 POP PUSH2 0x2C91 JUMP JUMPDEST PUSH1 0x0 DUP2 PUSH16 0xFFFFFFFFFFFFFFFFFFFFFFFFFFFFFFFF AND EQ PUSH2 0x2C90 JUMPI PUSH1 0x0 PUSH1 0x2 DUP3 PUSH16 0xFFFFFFFFFFFFFFFFFFFFFFFFFFFFFFFF AND EQ PUSH2 0x2BAB JUMPI PUSH1 0x0 PUSH2 0x2BAE JUMP JUMPDEST PUSH1 0x1 JUMPDEST PUSH1 0x2 DUP5 PUSH2 0x2BBB SWAP2 SWAP1 PUSH2 0x435B JUMP JUMPDEST PUSH2 0x2BC5 SWAP2 SWAP1 PUSH2 0x471B JUMP JUMPDEST PUSH1 0xFF AND SWAP1 POP PUSH1 0x0 PUSH1 0x1 DUP7 PUSH2 0x2BD9 SWAP2 SWAP1 PUSH2 0x471B JUMP JUMPDEST SWAP1 POP JUMPDEST PUSH1 0x6 DUP2 PUSH1 0xFF AND LT ISZERO PUSH2 0x2C8D JUMPI PUSH1 0x0 PUSH1 0x2 PUSH2 0x2C01 PUSH1 0x1 DUP5 PUSH2 0x2BFC SWAP2 SWAP1 PUSH2 0x4750 JUMP JUMPDEST PUSH2 0x2EEA JUMP JUMPDEST PUSH2 0x2C0B SWAP2 SWAP1 PUSH2 0x435B JUMP JUMPDEST PUSH1 0xFF AND DUP4 PUSH2 0x2C19 SWAP2 SWAP1 PUSH2 0x4793 JUMP JUMPDEST SWAP1 POP PUSH1 0x2 DUP2 PUSH2 0x2C28 SWAP2 SWAP1 PUSH2 0x47C9 JUMP JUMPDEST PUSH1 0x2 PUSH2 0x2C33 DUP5 PUSH2 0x2EEA JUMP JUMPDEST PUSH2 0x2C3D SWAP2 SWAP1 PUSH2 0x435B JUMP JUMPDEST PUSH1 0xFF AND PUSH2 0x2C4A SWAP2 SWAP1 PUSH2 0x47FA JUMP JUMPDEST SWAP3 POP PUSH1 0x0 PUSH2 0x2C58 DUP8 DUP6 PUSH2 0x2F59 JUMP JUMPDEST SWAP1 POP DUP1 ISZERO PUSH2 0x2C71 JUMPI PUSH2 0x2C6A DUP8 DUP6 PUSH2 0x2F90 JUMP JUMPDEST SWAP7 POP PUSH2 0x2C78 JUMP JUMPDEST POP POP PUSH2 0x2C8D JUMP JUMPDEST POP POP DUP1 DUP1 PUSH2 0x2C85 SWAP1 PUSH2 0x3DD2 JUMP JUMPDEST SWAP2 POP POP PUSH2 0x2BDC JUMP JUMPDEST POP POP JUMPDEST JUMPDEST POP DUP1 DUP1 PUSH2 0x2C9D SWAP1 PUSH2 0x3DD2 JUMP JUMPDEST SWAP2 POP POP PUSH2 0x2AF6 JUMP JUMPDEST POP DUP3 SWAP4 POP POP POP POP SWAP3 SWAP2 POP POP JUMP JUMPDEST PUSH1 0x0 DUP1 PUSH1 0x0 SWAP1 POP DUP6 PUSH8 0xFFFFFFFFFFFFFFFF AND DUP5 PUSH8 0xFFFFFFFFFFFFFFFF AND GT PUSH2 0x2CE5 JUMPI DUP4 DUP7 PUSH2 0x2CE0 SWAP2 SWAP1 PUSH2 0x4830 JUMP JUMPDEST PUSH2 0x2CF2 JUMP JUMPDEST DUP6 DUP5 PUSH2 0x2CF1 SWAP2 SWAP1 PUSH2 0x4830 JUMP JUMPDEST JUMPDEST DUP2 PUSH2 0x2CFD SWAP2 SWAP1 PUSH2 0x486C JUMP JUMPDEST SWAP1 POP DUP5 PUSH8 0xFFFFFFFFFFFFFFFF AND DUP4 PUSH8 0xFFFFFFFFFFFFFFFF AND GT PUSH2 0x2D2B JUMPI DUP3 DUP6 PUSH2 0x2D26 SWAP2 SWAP1 PUSH2 0x4830 JUMP JUMPDEST PUSH2 0x2D38 JUMP JUMPDEST DUP5 DUP4 PUSH2 0x2D37 SWAP2 SWAP1 PUSH2 0x4830 JUMP JUMPDEST JUMPDEST DUP2 PUSH2 0x2D43 SWAP2 SWAP1 PUSH2 0x486C JUMP JUMPDEST SWAP1 POP DUP1 SWAP2 POP POP SWAP5 SWAP4 POP POP POP POP JUMP JUMPDEST PUSH1 0x0 DUP2 PUSH1 0x20 ADD MLOAD PUSH4 0xFFFFFFFF AND DUP4 PUSH1 0x20 ADD MLOAD PUSH4 0xFFFFFFFF AND GT ISZERO PUSH2 0x2D78 JUMPI PUSH1 0x1 SWAP1 POP PUSH2 0x2E6F JUMP JUMPDEST DUP2 PUSH1 0x20 ADD MLOAD PUSH4 0xFFFFFFFF AND DUP4 PUSH1 0x20 ADD MLOAD PUSH4 0xFFFFFFFF AND LT ISZERO PUSH2 0x2D9D JUMPI PUSH1 0x0 SWAP1 POP PUSH2 0x2E6F JUMP JUMPDEST DUP2 PUSH1 0x40 ADD MLOAD PUSH8 0xFFFFFFFFFFFFFFFF AND DUP4 PUSH1 0x40 ADD MLOAD PUSH8 0xFFFFFFFFFFFFFFFF AND LT ISZERO PUSH2 0x2DCA JUMPI PUSH1 0x1 SWAP1 POP PUSH2 0x2E6F JUMP JUMPDEST DUP2 PUSH1 0x40 ADD MLOAD PUSH8 0xFFFFFFFFFFFFFFFF AND DUP4 PUSH1 0x40 ADD MLOAD PUSH8 0xFFFFFFFFFFFFFFFF AND LT ISZERO PUSH2 0x2DF7 JUMPI PUSH1 0x0 SWAP1 POP PUSH2 0x2E6F JUMP JUMPDEST DUP2 PUSH1 0x0 ADD MLOAD PUSH6 0xFFFFFFFFFFFF AND DUP4 PUSH1 0x0 ADD MLOAD PUSH6 0xFFFFFFFFFFFF AND SUB PUSH2 0x2E51 JUMPI PUSH1 0x40 MLOAD PUSH32 0x8C379A000000000000000000000000000000000000000000000000000000000 DUP2 MSTORE PUSH1 0x4 ADD PUSH2 0x2E48 SWAP1 PUSH2 0x491A JUMP JUMPDEST PUSH1 0x40 MLOAD DUP1 SWAP2 SUB SWAP1 REVERT JUMPDEST DUP2 PUSH1 0x0 ADD MLOAD PUSH6 0xFFFFFFFFFFFF AND DUP4 PUSH1 0x0 ADD MLOAD PUSH6 0xFFFFFFFFFFFF AND LT SWAP1 POP JUMPDEST SWAP3 SWAP2 POP POP JUMP JUMPDEST PUSH1 0x0 PUSH1 0x20 DUP3 PUSH1 0xFF AND LT ISZERO PUSH2 0x2E8C JUMPI PUSH1 0x0 SWAP1 POP PUSH2 0x2EE5 JUMP JUMPDEST PUSH1 0x30 DUP3 PUSH1 0xFF AND LT ISZERO PUSH2 0x2EA1 JUMPI PUSH1 0x1 SWAP1 POP PUSH2 0x2EE5 JUMP JUMPDEST PUSH1 0x38 DUP3 PUSH1 0xFF AND LT ISZERO PUSH2 0x2EB6 JUMPI PUSH1 0x2 SWAP1 POP PUSH2 0x2EE5 JUMP JUMPDEST PUSH1 0x3C DUP3 PUSH1 0xFF AND LT ISZERO PUSH2 0x2ECB JUMPI PUSH1 0x3 SWAP1 POP PUSH2 0x2EE5 JUMP JUMPDEST PUSH1 0x3E DUP3 PUSH1 0xFF AND LT ISZERO PUSH2 0x2EE0 JUMPI PUSH1 0x4 SWAP1 POP PUSH2 0x2EE5 JUMP JUMPDEST PUSH1 0x5 SWAP1 POP JUMPDEST SWAP2 SWAP1 POP JUMP JUMPDEST PUSH1 0x0 DUP1 DUP3 PUSH1 0xFF AND SUB PUSH2 0x2EFF JUMPI PUSH1 0x0 SWAP1 POP PUSH2 0x2F54 JUMP JUMPDEST PUSH1 0x1 DUP3 PUSH1 0xFF AND SUB PUSH2 0x2F13 JUMPI PUSH1 0x20 SWAP1 POP PUSH2 0x2F54 JUMP JUMPDEST PUSH1 0x2 DUP3 PUSH1 0xFF AND SUB PUSH2 0x2F27 JUMPI PUSH1 0x30 SWAP1 POP PUSH2 0x2F54 JUMP JUMPDEST PUSH1 0x3 DUP3 PUSH1 0xFF AND SUB PUSH2 0x2F3B JUMPI PUSH1 0x38 SWAP1 POP PUSH2 0x2F54 JUMP JUMPDEST PUSH1 0x4 DUP3 PUSH1 0xFF AND SUB PUSH2 0x2F4F JUMPI PUSH1 0x3C SWAP1 POP PUSH2 0x2F54 JUMP JUMPDEST PUSH1 0x3E SWAP1 POP JUMPDEST SWAP2 SWAP1 POP JUMP JUMPDEST PUSH1 0x0 DUP1 DUP3 PUSH1 0x2 PUSH2 0x2F69 SWAP2 SWAP1 PUSH2 0x493A JUMP JUMPDEST SWAP1 POP PUSH1 0x0 DUP2 DUP6 PUSH1 0x80 SHR AND PUSH16 0xFFFFFFFFFFFFFFFFFFFFFFFFFFFFFFFF AND EQ ISZERO SWAP2 POP POP SWAP3 SWAP2 POP POP JUMP JUMPDEST PUSH1 0x0 DUP1 DUP3 PUSH1 0x2 PUSH2 0x2FA0 SWAP2 SWAP1 PUSH2 0x493A JUMP JUMPDEST SWAP1 POP DUP1 PUSH1 0x80 SHL DUP5 AND SWAP2 POP POP SWAP3 SWAP2 POP POP JUMP JUMPDEST PUSH32 0x4E487B7100000000000000000000000000000000000000000000000000000000 PUSH1 0x0 MSTORE PUSH1 0x21 PUSH1 0x4 MSTORE PUSH1 0x24 PUSH1 0x0 REVERT JUMPDEST PUSH1 0x5 DUP2 LT PUSH2 0x2FF1 JUMPI PUSH2 0x2FF0 PUSH2 0x2FB1 JUMP JUMPDEST JUMPDEST POP JUMP JUMPDEST PUSH1 0x0 DUP2 SWAP1 POP PUSH2 0x3002 DUP3 PUSH2 0x2FE0 JUMP JUMPDEST SWAP2 SWAP1 POP JUMP JUMPDEST PUSH1 0x0 PUSH2 0x3012 DUP3 PUSH2 0x2FF4 JUMP JUMPDEST SWAP1 POP SWAP2 SWAP1 POP JUMP JUMPDEST PUSH2 0x3022 DUP2 PUSH2 0x3007 JUMP JUMPDEST DUP3 MSTORE POP POP JUMP JUMPDEST PUSH1 0x0 PUSH1 0x20 DUP3 ADD SWAP1 POP PUSH2 0x303D PUSH1 0x0 DUP4 ADD DUP5 PUSH2 0x3019 JUMP JUMPDEST SWAP3 SWAP2 POP POP JUMP JUMPDEST PUSH1 0x0 PUSH1 0x40 MLOAD SWAP1 POP SWAP1 JUMP JUMPDEST PUSH1 0x0 DUP1 REVERT JUMPDEST PUSH1 0x0 DUP1 REVERT JUMPDEST PUSH1 0x0 DUP2 SWAP1 POP SWAP2 SWAP1 POP JUMP JUMPDEST PUSH2 0x306A DUP2 PUSH2 0x3057 JUMP JUMPDEST DUP2 EQ PUSH2 0x3075 JUMPI PUSH1 0x0 DUP1 REVERT JUMPDEST POP JUMP JUMPDEST PUSH1 0x0 DUP2 CALLDATALOAD SWAP1 POP PUSH2 0x3087 DUP2 PUSH2 0x3061 JUMP JUMPDEST SWAP3 SWAP2 POP POP JUMP JUMPDEST PUSH1 0x0 PUSH1 0x20 DUP3 DUP5 SUB SLT ISZERO PUSH2 0x30A3 JUMPI PUSH2 0x30A2 PUSH2 0x304D JUMP JUMPDEST JUMPDEST PUSH1 0x0 PUSH2 0x30B1 DUP5 DUP3 DUP6 ADD PUSH2 0x3078 JUMP JUMPDEST SWAP2 POP POP SWAP3 SWAP2 POP POP JUMP JUMPDEST PUSH1 0x0 PUSH6 0xFFFFFFFFFFFF DUP3 AND SWAP1 POP SWAP2 SWAP1 POP JUMP JUMPDEST PUSH2 0x30D5 DUP2 PUSH2 0x30BA JUMP JUMPDEST DUP3 MSTORE POP POP JUMP JUMPDEST PUSH1 0x0 PUSH4 0xFFFFFFFF DUP3 AND SWAP1 POP SWAP2 SWAP1 POP JUMP JUMPDEST PUSH2 0x30F4 DUP2 PUSH2 0x30DB JUMP JUMPDEST DUP3 MSTORE POP POP JUMP JUMPDEST PUSH1 0x0 PUSH8 0xFFFFFFFFFFFFFFFF DUP3 AND SWAP1 POP SWAP2 SWAP1 POP JUMP JUMPDEST PUSH2 0x3117 DUP2 PUSH2 0x30FA JUMP JUMPDEST DUP3 MSTORE POP POP JUMP JUMPDEST PUSH1 0x0 PUSH20 0xFFFFFFFFFFFFFFFFFFFFFFFFFFFFFFFFFFFFFFFF DUP3 AND SWAP1 POP SWAP2 SWAP1 POP JUMP JUMPDEST PUSH1 0x0 PUSH2 0x3148 DUP3 PUSH2 0x311D JUMP JUMPDEST SWAP1 POP SWAP2 SWAP1 POP JUMP JUMPDEST PUSH2 0x3158 DUP2 PUSH2 0x313D JUMP JUMPDEST DUP3 MSTORE POP POP JUMP JUMPDEST PUSH1 0x0 PUSH1 0x80 DUP3 ADD SWAP1 POP PUSH2 0x3173 PUSH1 0x0 DUP4 ADD DUP8 PUSH2 0x30CC JUMP JUMPDEST PUSH2 0x3180 PUSH1 0x20 DUP4 ADD DUP7 PUSH2 0x30EB JUMP JUMPDEST PUSH2 0x318D PUSH1 0x40 DUP4 ADD DUP6 PUSH2 0x310E JUMP JUMPDEST PUSH2 0x319A PUSH1 0x60 DUP4 ADD DUP5 PUSH2 0x314F JUMP JUMPDEST SWAP6 SWAP5 POP POP POP POP POP JUMP JUMPDEST PUSH2 0x31AC DUP2 PUSH2 0x3057 JUMP JUMPDEST DUP3 MSTORE POP POP JUMP JUMPDEST PUSH1 0x0 PUSH1 0x20 DUP3 ADD SWAP1 POP PUSH2 0x31C7 PUSH1 0x0 DUP4 ADD DUP5 PUSH2 0x31A3 JUMP JUMPDEST SWAP3 SWAP2 POP POP JUMP JUMPDEST PUSH2 0x31D6 DUP2 PUSH2 0x313D JUMP JUMPDEST DUP2 EQ PUSH2 0x31E1 JUMPI PUSH1 0x0 DUP1 REVERT JUMPDEST POP JUMP JUMPDEST PUSH1 0x0 DUP2 CALLDATALOAD SWAP1 POP PUSH2 0x31F3 DUP2 PUSH2 0x31CD JUMP JUMPDEST SWAP3 SWAP2 POP POP JUMP JUMPDEST PUSH1 0x0 PUSH1 0x20 DUP3 DUP5 SUB SLT ISZERO PUSH2 0x320F JUMPI PUSH2 0x320E PUSH2 0x304D JUMP JUMPDEST JUMPDEST PUSH1 0x0 PUSH2 0x321D DUP5 DUP3 DUP6 ADD PUSH2 0x31E4 JUMP JUMPDEST SWAP2 POP POP SWAP3 SWAP2 POP POP JUMP JUMPDEST PUSH1 0x0 PUSH32 0xFFFFFFFFFFFFFFFFFFFFFFFFFFFFFFFF00000000000000000000000000000000 DUP3 AND SWAP1 POP SWAP2 SWAP1 POP JUMP JUMPDEST PUSH2 0x325B DUP2 PUSH2 0x3226 JUMP JUMPDEST DUP3 MSTORE POP POP JUMP JUMPDEST PUSH1 0x0 PUSH1 0xFF DUP3 AND SWAP1 POP SWAP2 SWAP1 POP JUMP JUMPDEST PUSH2 0x3277 DUP2 PUSH2 0x3261 JUMP JUMPDEST DUP3 MSTORE POP POP JUMP JUMPDEST PUSH1 0x0 DUP2 ISZERO ISZERO SWAP1 POP SWAP2 SWAP1 POP JUMP JUMPDEST PUSH2 0x3292 DUP2 PUSH2 0x327D JUMP JUMPDEST DUP3 MSTORE POP POP JUMP JUMPDEST PUSH1 0x0 PUSH1 0x80 DUP3 ADD SWAP1 POP PUSH2 0x32AD PUSH1 0x0 DUP4 ADD DUP8 PUSH2 0x3252 JUMP JUMPDEST PUSH2 0x32BA PUSH1 0x20 DUP4 ADD DUP7 PUSH2 0x326E JUMP JUMPDEST PUSH2 0x32C7 PUSH1 0x40 DUP4 ADD DUP6 PUSH2 0x326E JUMP JUMPDEST PUSH2 0x32D4 PUSH1 0x60 DUP4 ADD DUP5 PUSH2 0x3289 JUMP JUMPDEST SWAP6 SWAP5 POP POP POP POP POP JUMP JUMPDEST PUSH1 0x0 PUSH1 0x20 DUP3 ADD SWAP1 POP PUSH2 0x32F2 PUSH1 0x0 DUP4 ADD DUP5 PUSH2 0x314F JUMP JUMPDEST SWAP3 SWAP2 POP POP JUMP JUMPDEST PUSH2 0x3301 DUP2 PUSH2 0x3226 JUMP JUMPDEST DUP2 EQ PUSH2 0x330C JUMPI PUSH1 0x0 DUP1 REVERT JUMPDEST POP JUMP JUMPDEST PUSH1 0x0 DUP2 CALLDATALOAD SWAP1 POP PUSH2 0x331E DUP2 PUSH2 0x32F8 JUMP JUMPDEST SWAP3 SWAP2 POP POP JUMP JUMPDEST PUSH2 0x332D DUP2 PUSH2 0x30FA JUMP JUMPDEST DUP2 EQ PUSH2 0x3338 JUMPI PUSH1 0x0 DUP1 REVERT JUMPDEST POP JUMP JUMPDEST PUSH1 0x0 DUP2 CALLDATALOAD SWAP1 POP PUSH2 0x334A DUP2 PUSH2 0x3324 JUMP JUMPDEST SWAP3 SWAP2 POP POP JUMP JUMPDEST PUSH1 0x0 DUP1 REVERT JUMPDEST PUSH1 0x0 DUP1 REVERT JUMPDEST PUSH1 0x0 PUSH1 0x1F NOT PUSH1 0x1F DUP4 ADD AND SWAP1 POP SWAP2 SWAP1 POP JUMP JUMPDEST PUSH32 0x4E487B7100000000000000000000000000000000000000000000000000000000 PUSH1 0x0 MSTORE PUSH1 0x41 PUSH1 0x4 MSTORE PUSH1 0x24 PUSH1 0x0 REVERT JUMPDEST PUSH2 0x33A3 DUP3 PUSH2 0x335A JUMP JUMPDEST DUP2 ADD DUP2 DUP2 LT PUSH8 0xFFFFFFFFFFFFFFFF DUP3 GT OR ISZERO PUSH2 0x33C2 JUMPI PUSH2 0x33C1 PUSH2 0x336B JUMP JUMPDEST JUMPDEST DUP1 PUSH1 0x40 MSTORE POP POP POP JUMP JUMPDEST PUSH1 0x0 PUSH2 0x33D5 PUSH2 0x3043 JUMP JUMPDEST SWAP1 POP PUSH2 0x33E1 DUP3 DUP3 PUSH2 0x339A JUMP JUMPDEST SWAP2 SWAP1 POP JUMP JUMPDEST PUSH1 0x0 PUSH8 0xFFFFFFFFFFFFFFFF DUP3 GT ISZERO PUSH2 0x3401 JUMPI PUSH2 0x3400 PUSH2 0x336B JUMP JUMPDEST JUMPDEST PUSH2 0x340A DUP3 PUSH2 0x335A JUMP JUMPDEST SWAP1 POP PUSH1 0x20 DUP2 ADD SWAP1 POP SWAP2 SWAP1 POP JUMP JUMPDEST DUP3 DUP2 DUP4 CALLDATACOPY PUSH1 0x0 DUP4 DUP4 ADD MSTORE POP POP POP JUMP JUMPDEST PUSH1 0x0 PUSH2 0x3439 PUSH2 0x3434 DUP5 PUSH2 0x33E6 JUMP JUMPDEST PUSH2 0x33CB JUMP JUMPDEST SWAP1 POP DUP3 DUP2 MSTORE PUSH1 0x20 DUP2 ADD DUP5 DUP5 DUP5 ADD GT ISZERO PUSH2 0x3455 JUMPI PUSH2 0x3454 PUSH2 0x3355 JUMP JUMPDEST JUMPDEST PUSH2 0x3460 DUP5 DUP3 DUP6 PUSH2 0x3417 JUMP JUMPDEST POP SWAP4 SWAP3 POP POP POP JUMP JUMPDEST PUSH1 0x0 DUP3 PUSH1 0x1F DUP4 ADD SLT PUSH2 0x347D JUMPI PUSH2 0x347C PUSH2 0x3350 JUMP JUMPDEST JUMPDEST DUP2 CALLDATALOAD PUSH2 0x348D DUP5 DUP3 PUSH1 0x20 DUP7 ADD PUSH2 0x3426 JUMP JUMPDEST SWAP2 POP POP SWAP3 SWAP2 POP POP JUMP JUMPDEST PUSH1 0x0 DUP1 PUSH1 0x0 DUP1 PUSH1 0x80 DUP6 DUP8 SUB SLT ISZERO PUSH2 0x34B0 JUMPI PUSH2 0x34AF PUSH2 0x304D JUMP JUMPDEST JUMPDEST PUSH1 0x0 PUSH2 0x34BE DUP8 DUP3 DUP9 ADD PUSH2 0x330F JUMP JUMPDEST SWAP5 POP POP PUSH1 0x20 PUSH2 0x34CF DUP8 DUP3 DUP9 ADD PUSH2 0x333B JUMP JUMPDEST SWAP4 POP POP PUSH1 0x40 PUSH2 0x34E0 DUP8 DUP3 DUP9 ADD PUSH2 0x333B JUMP JUMPDEST SWAP3 POP POP PUSH1 0x60 DUP6 ADD CALLDATALOAD PUSH8 0xFFFFFFFFFFFFFFFF DUP2 GT ISZERO PUSH2 0x3501 JUMPI PUSH2 0x3500 PUSH2 0x3052 JUMP JUMPDEST JUMPDEST PUSH2 0x350D DUP8 DUP3 DUP9 ADD PUSH2 0x3468 JUMP JUMPDEST SWAP2 POP POP SWAP3 SWAP6 SWAP2 SWAP5 POP SWAP3 POP JUMP JUMPDEST PUSH2 0x3522 DUP2 PUSH2 0x3261 JUMP JUMPDEST DUP2 EQ PUSH2 0x352D JUMPI PUSH1 0x0 DUP1 REVERT JUMPDEST POP JUMP JUMPDEST PUSH1 0x0 DUP2 CALLDATALOAD SWAP1 POP PUSH2 0x353F DUP2 PUSH2 0x3519 JUMP JUMPDEST SWAP3 SWAP2 POP POP JUMP JUMPDEST PUSH1 0x0 DUP1 PUSH1 0x0 DUP1 PUSH1 0x80 DUP6 DUP8 SUB SLT ISZERO PUSH2 0x355F JUMPI PUSH2 0x355E PUSH2 0x304D JUMP JUMPDEST JUMPDEST PUSH1 0x0 PUSH2 0x356D DUP8 DUP3 DUP9 ADD PUSH2 0x3078 JUMP JUMPDEST SWAP5 POP POP PUSH1 0x20 PUSH2 0x357E DUP8 DUP3 DUP9 ADD PUSH2 0x330F JUMP JUMPDEST SWAP4 POP POP PUSH1 0x40 PUSH2 0x358F DUP8 DUP3 DUP9 ADD PUSH2 0x3530 JUMP JUMPDEST SWAP3 POP POP PUSH1 0x60 PUSH2 0x35A0 DUP8 DUP3 DUP9 ADD PUSH2 0x3530 JUMP JUMPDEST SWAP2 POP POP SWAP3 SWAP6 SWAP2 SWAP5 POP SWAP3 POP JUMP JUMPDEST PUSH1 0x0 PUSH1 0x20 DUP3 DUP5 SUB SLT ISZERO PUSH2 0x35C2 JUMPI PUSH2 0x35C1 PUSH2 0x304D JUMP JUMPDEST JUMPDEST PUSH1 0x0 PUSH2 0x35D0 DUP5 DUP3 DUP6 ADD PUSH2 0x330F JUMP JUMPDEST SWAP2 POP POP SWAP3 SWAP2 POP POP JUMP JUMPDEST PUSH1 0x0 PUSH1 0x20 DUP3 ADD SWAP1 POP PUSH2 0x35EE PUSH1 0x0 DUP4 ADD DUP5 PUSH2 0x3289 JUMP JUMPDEST SWAP3 SWAP2 POP POP JUMP JUMPDEST PUSH1 0x0 PUSH1 0x40 DUP3 ADD SWAP1 POP PUSH2 0x3609 PUSH1 0x0 DUP4 ADD DUP6 PUSH2 0x314F JUMP JUMPDEST PUSH2 0x3616 PUSH1 0x20 DUP4 ADD DUP5 PUSH2 0x30CC JUMP JUMPDEST SWAP4 SWAP3 POP POP POP JUMP JUMPDEST PUSH1 0x0 PUSH1 0x80 DUP3 ADD SWAP1 POP PUSH2 0x3632 PUSH1 0x0 DUP4 ADD DUP8 PUSH2 0x31A3 JUMP JUMPDEST PUSH2 0x363F PUSH1 0x20 DUP4 ADD DUP7 PUSH2 0x31A3 JUMP JUMPDEST PUSH2 0x364C PUSH1 0x40 DUP4 ADD DUP6 PUSH2 0x31A3 JUMP JUMPDEST PUSH2 0x3659 PUSH1 0x60 DUP4 ADD DUP5 PUSH2 0x31A3 JUMP JUMPDEST SWAP6 SWAP5 POP POP POP POP POP JUMP JUMPDEST PUSH1 0x0 DUP1 PUSH1 0x0 PUSH1 0x60 DUP5 DUP7 SUB SLT ISZERO PUSH2 0x367B JUMPI PUSH2 0x367A PUSH2 0x304D JUMP JUMPDEST JUMPDEST PUSH1 0x0 PUSH2 0x3689 DUP7 DUP3 DUP8 ADD PUSH2 0x330F JUMP JUMPDEST SWAP4 POP POP PUSH1 0x20 PUSH2 0x369A DUP7 DUP3 DUP8 ADD PUSH2 0x3530 JUMP JUMPDEST SWAP3 POP POP PUSH1 0x40 PUSH2 0x36AB DUP7 DUP3 DUP8 ADD PUSH2 0x3530 JUMP JUMPDEST SWAP2 POP POP SWAP3 POP SWAP3 POP SWAP3 JUMP JUMPDEST PUSH1 0x0 DUP3 DUP3 MSTORE PUSH1 0x20 DUP3 ADD SWAP1 POP SWAP3 SWAP2 POP POP JUMP JUMPDEST PUSH32 0x4D7573742068617665206174206C656173742031206F7261636C652072656769 PUSH1 0x0 DUP3 ADD MSTORE PUSH32 0x7374657265640000000000000000000000000000000000000000000000000000 PUSH1 0x20 DUP3 ADD MSTORE POP JUMP JUMPDEST PUSH1 0x0 PUSH2 0x3722 PUSH1 0x26 DUP4 PUSH2 0x36B5 JUMP JUMPDEST SWAP2 POP PUSH2 0x372D DUP3 PUSH2 0x36C6 JUMP JUMPDEST PUSH1 0x40 DUP3 ADD SWAP1 POP SWAP2 SWAP1 POP JUMP JUMPDEST PUSH1 0x0 PUSH1 0x20 DUP3 ADD SWAP1 POP DUP2 DUP2 SUB PUSH1 0x0 DUP4 ADD MSTORE PUSH2 0x3751 DUP2 PUSH2 0x3715 JUMP JUMPDEST SWAP1 POP SWAP2 SWAP1 POP JUMP JUMPDEST PUSH1 0x0 DUP2 MLOAD SWAP1 POP PUSH2 0x3767 DUP2 PUSH2 0x3061 JUMP JUMPDEST SWAP3 SWAP2 POP POP JUMP JUMPDEST PUSH1 0x0 PUSH1 0x20 DUP3 DUP5 SUB SLT ISZERO PUSH2 0x3783 JUMPI PUSH2 0x3782 PUSH2 0x304D JUMP JUMPDEST JUMPDEST PUSH1 0x0 PUSH2 0x3791 DUP5 DUP3 DUP6 ADD PUSH2 0x3758 JUMP JUMPDEST SWAP2 POP POP SWAP3 SWAP2 POP POP JUMP JUMPDEST PUSH32 0x4D757374206861766520612062616C616E636520696E207468697320636F6E74 PUSH1 0x0 DUP3 ADD MSTORE PUSH32 0x7261637400000000000000000000000000000000000000000000000000000000 PUSH1 0x20 DUP3 ADD MSTORE POP JUMP JUMPDEST PUSH1 0x0 PUSH2 0x37F6 PUSH1 0x24 DUP4 PUSH2 0x36B5 JUMP JUMPDEST SWAP2 POP PUSH2 0x3801 DUP3 PUSH2 0x379A JUMP JUMPDEST PUSH1 0x40 DUP3 ADD SWAP1 POP SWAP2 SWAP1 POP JUMP JUMPDEST PUSH1 0x0 PUSH1 0x20 DUP3 ADD SWAP1 POP DUP2 DUP2 SUB PUSH1 0x0 DUP4 ADD MSTORE PUSH2 0x3825 DUP2 PUSH2 0x37E9 JUMP JUMPDEST SWAP1 POP SWAP2 SWAP1 POP JUMP JUMPDEST PUSH32 0x4E487B7100000000000000000000000000000000000000000000000000000000 PUSH1 0x0 MSTORE PUSH1 0x32 PUSH1 0x4 MSTORE PUSH1 0x24 PUSH1 0x0 REVERT JUMPDEST PUSH32 0x4E6F7420656E6F75676820636C61696D73000000000000000000000000000000 PUSH1 0x0 DUP3 ADD MSTORE POP JUMP JUMPDEST PUSH1 0x0 PUSH2 0x3891 PUSH1 0x11 DUP4 PUSH2 0x36B5 JUMP JUMPDEST SWAP2 POP PUSH2 0x389C DUP3 PUSH2 0x385B JUMP JUMPDEST PUSH1 0x20 DUP3 ADD SWAP1 POP SWAP2 SWAP1 POP JUMP JUMPDEST PUSH1 0x0 PUSH1 0x20 DUP3 ADD SWAP1 POP DUP2 DUP2 SUB PUSH1 0x0 DUP4 ADD MSTORE PUSH2 0x38C0 DUP2 PUSH2 0x3884 JUMP JUMPDEST SWAP1 POP SWAP2 SWAP1 POP JUMP JUMPDEST PUSH32 0x4E487B7100000000000000000000000000000000000000000000000000000000 PUSH1 0x0 MSTORE PUSH1 0x11 PUSH1 0x4 MSTORE PUSH1 0x24 PUSH1 0x0 REVERT JUMPDEST PUSH1 0x0 PUSH2 0x3901 DUP3 PUSH2 0x3057 JUMP JUMPDEST SWAP2 POP PUSH2 0x390C DUP4 PUSH2 0x3057 JUMP JUMPDEST SWAP3 POP DUP3 DUP3 MUL PUSH2 0x391A DUP2 PUSH2 0x3057 JUMP JUMPDEST SWAP2 POP DUP3 DUP3 DIV DUP5 EQ DUP4 ISZERO OR PUSH2 0x3931 JUMPI PUSH2 0x3930 PUSH2 0x38C7 JUMP JUMPDEST JUMPDEST POP SWAP3 SWAP2 POP POP JUMP JUMPDEST PUSH32 0x4E487B7100000000000000000000000000000000000000000000000000000000 PUSH1 0x0 MSTORE PUSH1 0x12 PUSH1 0x4 MSTORE PUSH1 0x24 PUSH1 0x0 REVERT JUMPDEST PUSH1 0x0 PUSH2 0x3972 DUP3 PUSH2 0x3057 JUMP JUMPDEST SWAP2 POP PUSH2 0x397D DUP4 PUSH2 0x3057 JUMP JUMPDEST SWAP3 POP DUP3 PUSH2 0x398D JUMPI PUSH2 0x398C PUSH2 0x3938 JUMP JUMPDEST JUMPDEST DUP3 DUP3 DIV SWAP1 POP SWAP3 SWAP2 POP POP JUMP JUMPDEST PUSH1 0x0 PUSH1 0x40 DUP3 ADD SWAP1 POP PUSH2 0x39AD PUSH1 0x0 DUP4 ADD DUP6 PUSH2 0x314F JUMP JUMPDEST PUSH2 0x39BA PUSH1 0x20 DUP4 ADD DUP5 PUSH2 0x31A3 JUMP JUMPDEST SWAP4 SWAP3 POP POP POP JUMP JUMPDEST PUSH2 0x39CA DUP2 PUSH2 0x327D JUMP JUMPDEST DUP2 EQ PUSH2 0x39D5 JUMPI PUSH1 0x0 DUP1 REVERT JUMPDEST POP JUMP JUMPDEST PUSH1 0x0 DUP2 MLOAD SWAP1 POP PUSH2 0x39E7 DUP2 PUSH2 0x39C1 JUMP JUMPDEST SWAP3 SWAP2 POP POP JUMP JUMPDEST PUSH1 0x0 PUSH1 0x20 DUP3 DUP5 SUB SLT ISZERO PUSH2 0x3A03 JUMPI PUSH2 0x3A02 PUSH2 0x304D JUMP JUMPDEST JUMPDEST PUSH1 0x0 PUSH2 0x3A11 DUP5 DUP3 DUP6 ADD PUSH2 0x39D8 JUMP JUMPDEST SWAP2 POP POP SWAP3 SWAP2 POP POP JUMP JUMPDEST PUSH32 0x4D75737420626520696E20746865206F70656E20666F7220656E747269657320 PUSH1 0x0 DUP3 ADD MSTORE PUSH32 0x7374617465000000000000000000000000000000000000000000000000000000 PUSH1 0x20 DUP3 ADD MSTORE POP JUMP JUMPDEST PUSH1 0x0 PUSH2 0x3A76 PUSH1 0x25 DUP4 PUSH2 0x36B5 JUMP JUMPDEST SWAP2 POP PUSH2 0x3A81 DUP3 PUSH2 0x3A1A JUMP JUMPDEST PUSH1 0x40 DUP3 ADD SWAP1 POP SWAP2 SWAP1 POP JUMP JUMPDEST PUSH1 0x0 PUSH1 0x20 DUP3 ADD SWAP1 POP DUP2 DUP2 SUB PUSH1 0x0 DUP4 ADD MSTORE PUSH2 0x3AA5 DUP2 PUSH2 0x3A69 JUMP JUMPDEST SWAP1 POP SWAP2 SWAP1 POP JUMP JUMPDEST PUSH32 0x54686520737570706C696564207069636B7320617265206E6F742076616C6964 PUSH1 0x0 DUP3 ADD MSTORE POP JUMP JUMPDEST PUSH1 0x0 PUSH2 0x3AE2 PUSH1 0x20 DUP4 PUSH2 0x36B5 JUMP JUMPDEST SWAP2 POP PUSH2 0x3AED DUP3 PUSH2 0x3AAC JUMP JUMPDEST PUSH1 0x20 DUP3 ADD SWAP1 POP SWAP2 SWAP1 POP JUMP JUMPDEST PUSH1 0x0 PUSH1 0x20 DUP3 ADD SWAP1 POP DUP2 DUP2 SUB PUSH1 0x0 DUP4 ADD MSTORE PUSH2 0x3B11 DUP2 PUSH2 0x3AD5 JUMP JUMPDEST SWAP1 POP SWAP2 SWAP1 POP JUMP JUMPDEST PUSH32 0x5468697320657861637420627261636B657420262073636F7265206861732061 PUSH1 0x0 DUP3 ADD MSTORE PUSH32 0x6C7265616479206265656E207375626D69747465640000000000000000000000 PUSH1 0x20 DUP3 ADD MSTORE POP JUMP JUMPDEST PUSH1 0x0 PUSH2 0x3B74 PUSH1 0x35 DUP4 PUSH2 0x36B5 JUMP JUMPDEST SWAP2 POP PUSH2 0x3B7F DUP3 PUSH2 0x3B18 JUMP JUMPDEST PUSH1 0x40 DUP3 ADD SWAP1 POP SWAP2 SWAP1 POP JUMP JUMPDEST PUSH1 0x0 PUSH1 0x20 DUP3 ADD SWAP1 POP DUP2 DUP2 SUB PUSH1 0x0 DUP4 ADD MSTORE PUSH2 0x3BA3 DUP2 PUSH2 0x3B67 JUMP JUMPDEST SWAP1 POP SWAP2 SWAP1 POP JUMP JUMPDEST PUSH1 0x0 DUP2 MLOAD SWAP1 POP SWAP2 SWAP1 POP JUMP JUMPDEST PUSH1 0x0 JUMPDEST DUP4 DUP2 LT ISZERO PUSH2 0x3BD3 JUMPI DUP1 DUP3 ADD MLOAD DUP2 DUP5 ADD MSTORE PUSH1 0x20 DUP2 ADD SWAP1 POP PUSH2 0x3BB8 JUMP JUMPDEST PUSH1 0x0 DUP5 DUP5 ADD MSTORE POP POP POP POP JUMP JUMPDEST PUSH1 0x0 PUSH2 0x3BEA DUP3 PUSH2 0x3BAA JUMP JUMPDEST PUSH2 0x3BF4 DUP2 DUP6 PUSH2 0x36B5 JUMP JUMPDEST SWAP4 POP PUSH2 0x3C04 DUP2 DUP6 PUSH1 0x20 DUP7 ADD PUSH2 0x3BB5 JUMP JUMPDEST PUSH2 0x3C0D DUP2 PUSH2 0x335A JUMP JUMPDEST DUP5 ADD SWAP2 POP POP SWAP3 SWAP2 POP POP JUMP JUMPDEST PUSH1 0x0 PUSH1 0x20 DUP3 ADD SWAP1 POP DUP2 DUP2 SUB PUSH1 0x0 DUP4 ADD MSTORE PUSH2 0x3C32 DUP2 DUP5 PUSH2 0x3BDF JUMP JUMPDEST SWAP1 POP SWAP3 SWAP2 POP POP JUMP JUMPDEST PUSH1 0x0 PUSH2 0x3C45 DUP3 PUSH2 0x30BA JUMP JUMPDEST SWAP2 POP PUSH6 0xFFFFFFFFFFFF DUP3 SUB PUSH2 0x3C5D JUMPI PUSH2 0x3C5C PUSH2 0x38C7 JUMP JUMPDEST JUMPDEST PUSH1 0x1 DUP3 ADD SWAP1 POP SWAP2 SWAP1 POP JUMP JUMPDEST PUSH32 0x4D75737420626520696E2077616974696E6720666F72206F7261636C65732073 PUSH1 0x0 DUP3 ADD MSTORE PUSH32 0x7461746500000000000000000000000000000000000000000000000000000000 PUSH1 0x20 DUP3 ADD MSTORE POP JUMP JUMPDEST PUSH1 0x0 PUSH2 0x3CC4 PUSH1 0x24 DUP4 PUSH2 0x36B5 JUMP JUMPDEST SWAP2 POP PUSH2 0x3CCF DUP3 PUSH2 0x3C68 JUMP JUMPDEST PUSH1 0x40 DUP3 ADD SWAP1 POP SWAP2 SWAP1 POP JUMP JUMPDEST PUSH1 0x0 PUSH1 0x20 DUP3 ADD SWAP1 POP DUP2 DUP2 SUB PUSH1 0x0 DUP4 ADD MSTORE PUSH2 0x3CF3 DUP2 PUSH2 0x3CB7 JUMP JUMPDEST SWAP1 POP SWAP2 SWAP1 POP JUMP JUMPDEST PUSH32 0x57726F6E67206F7261636C6520696E6465780000000000000000000000000000 PUSH1 0x0 DUP3 ADD MSTORE POP JUMP JUMPDEST PUSH1 0x0 PUSH2 0x3D30 PUSH1 0x12 DUP4 PUSH2 0x36B5 JUMP JUMPDEST SWAP2 POP PUSH2 0x3D3B DUP3 PUSH2 0x3CFA JUMP JUMPDEST PUSH1 0x20 DUP3 ADD SWAP1 POP SWAP2 SWAP1 POP JUMP JUMPDEST PUSH1 0x0 PUSH1 0x20 DUP3 ADD SWAP1 POP DUP2 DUP2 SUB PUSH1 0x0 DUP4 ADD MSTORE PUSH2 0x3D5F DUP2 PUSH2 0x3D23 JUMP JUMPDEST SWAP1 POP SWAP2 SWAP1 POP JUMP JUMPDEST PUSH32 0x526573756C747320617265206E6F742076616C69640000000000000000000000 PUSH1 0x0 DUP3 ADD MSTORE POP JUMP JUMPDEST PUSH1 0x0 PUSH2 0x3D9C PUSH1 0x15 DUP4 PUSH2 0x36B5 JUMP JUMPDEST SWAP2 POP PUSH2 0x3DA7 DUP3 PUSH2 0x3D66 JUMP JUMPDEST PUSH1 0x20 DUP3 ADD SWAP1 POP SWAP2 SWAP1 POP JUMP JUMPDEST PUSH1 0x0 PUSH1 0x20 DUP3 ADD SWAP1 POP DUP2 DUP2 SUB PUSH1 0x0 DUP4 ADD MSTORE PUSH2 0x3DCB DUP2 PUSH2 0x3D8F JUMP JUMPDEST SWAP1 POP SWAP2 SWAP1 POP JUMP JUMPDEST PUSH1 0x0 PUSH2 0x3DDD DUP3 PUSH2 0x3261 JUMP JUMPDEST SWAP2 POP PUSH1 0xFF DUP3 SUB PUSH2 0x3DF0 JUMPI PUSH2 0x3DEF PUSH2 0x38C7 JUMP JUMPDEST JUMPDEST PUSH1 0x1 DUP3 ADD SWAP1 POP SWAP2 SWAP1 POP JUMP JUMPDEST PUSH32 0x4D75737420626520616363657074696E6720656E747269657300000000000000 PUSH1 0x0 DUP3 ADD MSTORE POP JUMP JUMPDEST PUSH1 0x0 PUSH2 0x3E31 PUSH1 0x19 DUP4 PUSH2 0x36B5 JUMP JUMPDEST SWAP2 POP PUSH2 0x3E3C DUP3 PUSH2 0x3DFB JUMP JUMPDEST PUSH1 0x20 DUP3 ADD SWAP1 POP SWAP2 SWAP1 POP JUMP JUMPDEST PUSH1 0x0 PUSH1 0x20 DUP3 ADD SWAP1 POP DUP2 DUP2 SUB PUSH1 0x0 DUP4 ADD MSTORE PUSH2 0x3E60 DUP2 PUSH2 0x3E24 JUMP JUMPDEST SWAP1 POP SWAP2 SWAP1 POP JUMP JUMPDEST PUSH32 0x4D75737420626520696E207468652077616974696E6720666F722077696E6E65 PUSH1 0x0 DUP3 ADD MSTORE PUSH32 0x7273207374617465000000000000000000000000000000000000000000000000 PUSH1 0x20 DUP3 ADD MSTORE POP JUMP JUMPDEST PUSH1 0x0 PUSH2 0x3EC3 PUSH1 0x28 DUP4 PUSH2 0x36B5 JUMP JUMPDEST SWAP2 POP PUSH2 0x3ECE DUP3 PUSH2 0x3E67 JUMP JUMPDEST PUSH1 0x40 DUP3 ADD SWAP1 POP SWAP2 SWAP1 POP JUMP JUMPDEST PUSH1 0x0 PUSH1 0x20 DUP3 ADD SWAP1 POP DUP2 DUP2 SUB PUSH1 0x0 DUP4 ADD MSTORE PUSH2 0x3EF2 DUP2 PUSH2 0x3EB6 JUMP JUMPDEST SWAP1 POP SWAP2 SWAP1 POP JUMP JUMPDEST PUSH32 0x5468652066696E616C20726573756C74206D757374206265206D61726B656420 PUSH1 0x0 DUP3 ADD MSTORE PUSH32 0x61732066696E616C000000000000000000000000000000000000000000000000 PUSH1 0x20 DUP3 ADD MSTORE POP JUMP JUMPDEST PUSH1 0x0 PUSH2 0x3F55 PUSH1 0x28 DUP4 PUSH2 0x36B5 JUMP JUMPDEST SWAP2 POP PUSH2 0x3F60 DUP3 PUSH2 0x3EF9 JUMP JUMPDEST PUSH1 0x40 DUP3 ADD SWAP1 POP SWAP2 SWAP1 POP JUMP JUMPDEST PUSH1 0x0 PUSH1 0x20 DUP3 ADD SWAP1 POP DUP2 DUP2 SUB PUSH1 0x0 DUP4 ADD MSTORE PUSH2 0x3F84 DUP2 PUSH2 0x3F48 JUMP JUMPDEST SWAP1 POP SWAP2 SWAP1 POP JUMP JUMPDEST PUSH1 0x0 PUSH2 0x3F96 DUP3 PUSH2 0x3057 JUMP JUMPDEST SWAP2 POP PUSH32 0xFFFFFFFFFFFFFFFFFFFFFFFFFFFFFFFFFFFFFFFFFFFFFFFFFFFFFFFFFFFFFFFF DUP3 SUB PUSH2 0x3FC8 JUMPI PUSH2 0x3FC7 PUSH2 0x38C7 JUMP JUMPDEST JUMPDEST PUSH1 0x1 DUP3 ADD SWAP1 POP SWAP2 SWAP1 POP JUMP JUMPDEST PUSH32 0x546F20636C6F7365206F7261636C6520766F74696E672C203E20373025206F66 PUSH1 0x0 DUP3 ADD MSTORE PUSH32 0x206F7261636C6573206D75737420616772656500000000000000000000000000 PUSH1 0x20 DUP3 ADD MSTORE POP JUMP JUMPDEST PUSH1 0x0 PUSH2 0x402F PUSH1 0x33 DUP4 PUSH2 0x36B5 JUMP JUMPDEST SWAP2 POP PUSH2 0x403A DUP3 PUSH2 0x3FD3 JUMP JUMPDEST PUSH1 0x40 DUP3 ADD SWAP1 POP SWAP2 SWAP1 POP JUMP JUMPDEST PUSH1 0x0 PUSH1 0x20 DUP3 ADD SWAP1 POP DUP2 DUP2 SUB PUSH1 0x0 DUP4 ADD MSTORE PUSH2 0x405E DUP2 PUSH2 0x4022 JUMP JUMPDEST SWAP1 POP SWAP2 SWAP1 POP JUMP JUMPDEST PUSH1 0x0 PUSH2 0x4070 DUP3 PUSH2 0x3057 JUMP JUMPDEST SWAP2 POP PUSH2 0x407B DUP4 PUSH2 0x3057 JUMP JUMPDEST SWAP3 POP DUP3 DUP3 SUB SWAP1 POP DUP2 DUP2 GT ISZERO PUSH2 0x4093 JUMPI PUSH2 0x4092 PUSH2 0x38C7 JUMP JUMPDEST JUMPDEST SWAP3 SWAP2 POP POP JUMP JUMPDEST PUSH32 0x4D757374206265206C657373207468616E206D6178206E756D626572206F6620 PUSH1 0x0 DUP3 ADD MSTORE PUSH32 0x6F7261636C657300000000000000000000000000000000000000000000000000 PUSH1 0x20 DUP3 ADD MSTORE POP JUMP JUMPDEST PUSH1 0x0 PUSH2 0x40F5 PUSH1 0x27 DUP4 PUSH2 0x36B5 JUMP JUMPDEST SWAP2 POP PUSH2 0x4100 DUP3 PUSH2 0x4099 JUMP JUMPDEST PUSH1 0x40 DUP3 ADD SWAP1 POP SWAP2 SWAP1 POP JUMP JUMPDEST PUSH1 0x0 PUSH1 0x20 DUP3 ADD SWAP1 POP DUP2 DUP2 SUB PUSH1 0x0 DUP4 ADD MSTORE PUSH2 0x4124 DUP2 PUSH2 0x40E8 JUMP JUMPDEST SWAP1 POP SWAP2 SWAP1 POP JUMP JUMPDEST PUSH32 0x4F776E61626C653A206E6577206F776E657220697320746865207A65726F2061 PUSH1 0x0 DUP3 ADD MSTORE PUSH32 0x6464726573730000000000000000000000000000000000000000000000000000 PUSH1 0x20 DUP3 ADD MSTORE POP JUMP JUMPDEST PUSH1 0x0 PUSH2 0x4187 PUSH1 0x26 DUP4 PUSH2 0x36B5 JUMP JUMPDEST SWAP2 POP PUSH2 0x4192 DUP3 PUSH2 0x412B JUMP JUMPDEST PUSH1 0x40 DUP3 ADD SWAP1 POP SWAP2 SWAP1 POP JUMP JUMPDEST PUSH1 0x0 PUSH1 0x20 DUP3 ADD SWAP1 POP DUP2 DUP2 SUB PUSH1 0x0 DUP4 ADD MSTORE PUSH2 0x41B6 DUP2 PUSH2 0x417A JUMP JUMPDEST SWAP1 POP SWAP2 SWAP1 POP JUMP JUMPDEST PUSH1 0x0 PUSH2 0x41C8 DUP3 PUSH2 0x3057 JUMP JUMPDEST SWAP2 POP PUSH2 0x41D3 DUP4 PUSH2 0x3057 JUMP JUMPDEST SWAP3 POP DUP3 DUP3 ADD SWAP1 POP DUP1 DUP3 GT ISZERO PUSH2 0x41EB JUMPI PUSH2 0x41EA PUSH2 0x38C7 JUMP JUMPDEST JUMPDEST SWAP3 SWAP2 POP POP JUMP JUMPDEST PUSH32 0x43616E206F6E6C7920616476616E636520737461746520627920310000000000 PUSH1 0x0 DUP3 ADD MSTORE POP JUMP JUMPDEST PUSH1 0x0 PUSH2 0x4227 PUSH1 0x1B DUP4 PUSH2 0x36B5 JUMP JUMPDEST SWAP2 POP PUSH2 0x4232 DUP3 PUSH2 0x41F1 JUMP JUMPDEST PUSH1 0x20 DUP3 ADD SWAP1 POP SWAP2 SWAP1 POP JUMP JUMPDEST PUSH1 0x0 PUSH1 0x20 DUP3 ADD SWAP1 POP DUP2 DUP2 SUB PUSH1 0x0 DUP4 ADD MSTORE PUSH2 0x4256 DUP2 PUSH2 0x421A JUMP JUMPDEST SWAP1 POP SWAP2 SWAP1 POP JUMP JUMPDEST PUSH32 0x5472616E736974696F6E2074696D65206861736E27742068617070656E656420 PUSH1 0x0 DUP3 ADD MSTORE PUSH32 0x7965740000000000000000000000000000000000000000000000000000000000 PUSH1 0x20 DUP3 ADD MSTORE POP JUMP JUMPDEST PUSH1 0x0 PUSH2 0x42B9 PUSH1 0x23 DUP4 PUSH2 0x36B5 JUMP JUMPDEST SWAP2 POP PUSH2 0x42C4 DUP3 PUSH2 0x425D JUMP JUMPDEST PUSH1 0x40 DUP3 ADD SWAP1 POP SWAP2 SWAP1 POP JUMP JUMPDEST PUSH1 0x0 PUSH1 0x20 DUP3 ADD SWAP1 POP DUP2 DUP2 SUB PUSH1 0x0 DUP4 ADD MSTORE PUSH2 0x42E8 DUP2 PUSH2 0x42AC JUMP JUMPDEST SWAP1 POP SWAP2 SWAP1 POP JUMP JUMPDEST PUSH32 0x4F776E61626C653A2063616C6C6572206973206E6F7420746865206F776E6572 PUSH1 0x0 DUP3 ADD MSTORE POP JUMP JUMPDEST PUSH1 0x0 PUSH2 0x4325 PUSH1 0x20 DUP4 PUSH2 0x36B5 JUMP JUMPDEST SWAP2 POP PUSH2 0x4330 DUP3 PUSH2 0x42EF JUMP JUMPDEST PUSH1 0x20 DUP3 ADD SWAP1 POP SWAP2 SWAP1 POP JUMP JUMPDEST PUSH1 0x0 PUSH1 0x20 DUP3 ADD SWAP1 POP DUP2 DUP2 SUB PUSH1 0x0 DUP4 ADD MSTORE PUSH2 0x4354 DUP2 PUSH2 0x4318 JUMP JUMPDEST SWAP1 POP SWAP2 SWAP1 POP JUMP JUMPDEST PUSH1 0x0 PUSH2 0x4366 DUP3 PUSH2 0x3261 JUMP JUMPDEST SWAP2 POP PUSH2 0x4371 DUP4 PUSH2 0x3261 JUMP JUMPDEST SWAP3 POP DUP3 DUP3 MUL PUSH2 0x437F DUP2 PUSH2 0x3261 JUMP JUMPDEST SWAP2 POP DUP1 DUP3 EQ PUSH2 0x4391 JUMPI PUSH2 0x4390 PUSH2 0x38C7 JUMP JUMPDEST JUMPDEST POP SWAP3 SWAP2 POP POP JUMP JUMPDEST PUSH1 0x0 DUP2 PUSH1 0x1 SHR SWAP1 POP SWAP2 SWAP1 POP JUMP JUMPDEST PUSH1 0x0 DUP1 DUP3 SWAP2 POP DUP4 SWAP1 POP JUMPDEST PUSH1 0x1 DUP6 GT ISZERO PUSH2 0x43EF JUMPI DUP1 DUP7 DIV DUP2 GT ISZERO PUSH2 0x43CB JUMPI PUSH2 0x43CA PUSH2 0x38C7 JUMP JUMPDEST JUMPDEST PUSH1 0x1 DUP6 AND ISZERO PUSH2 0x43DA JUMPI DUP1 DUP3 MUL SWAP2 POP JUMPDEST DUP1 DUP2 MUL SWAP1 POP PUSH2 0x43E8 DUP6 PUSH2 0x4398 JUMP JUMPDEST SWAP5 POP PUSH2 0x43AF JUMP JUMPDEST SWAP5 POP SWAP5 SWAP3 POP POP POP JUMP JUMPDEST PUSH1 0x0 DUP3 PUSH2 0x4408 JUMPI PUSH1 0x1 SWAP1 POP PUSH2 0x44C4 JUMP JUMPDEST DUP2 PUSH2 0x4416 JUMPI PUSH1 0x0 SWAP1 POP PUSH2 0x44C4 JUMP JUMPDEST DUP2 PUSH1 0x1 DUP2 EQ PUSH2 0x442C JUMPI PUSH1 0x2 DUP2 EQ PUSH2 0x4436 JUMPI PUSH2 0x4465 JUMP JUMPDEST PUSH1 0x1 SWAP2 POP POP PUSH2 0x44C4 JUMP JUMPDEST PUSH1 0xFF DUP5 GT ISZERO PUSH2 0x4448 JUMPI PUSH2 0x4447 PUSH2 0x38C7 JUMP JUMPDEST JUMPDEST DUP4 PUSH1 0x2 EXP SWAP2 POP DUP5 DUP3 GT ISZERO PUSH2 0x445F JUMPI PUSH2 0x445E PUSH2 0x38C7 JUMP JUMPDEST JUMPDEST POP PUSH2 0x44C4 JUMP JUMPDEST POP PUSH1 0x20 DUP4 LT PUSH2 0x133 DUP4 LT AND PUSH1 0x4E DUP5 LT PUSH1 0xB DUP5 LT AND OR ISZERO PUSH2 0x449A JUMPI DUP3 DUP3 EXP SWAP1 POP DUP4 DUP2 GT ISZERO PUSH2 0x4495 JUMPI PUSH2 0x4494 PUSH2 0x38C7 JUMP JUMPDEST JUMPDEST PUSH2 0x44C4 JUMP JUMPDEST PUSH2 0x44A7 DUP5 DUP5 DUP5 PUSH1 0x1 PUSH2 0x43A5 JUMP JUMPDEST SWAP3 POP SWAP1 POP DUP2 DUP5 DIV DUP2 GT ISZERO PUSH2 0x44BE JUMPI PUSH2 0x44BD PUSH2 0x38C7 JUMP JUMPDEST JUMPDEST DUP2 DUP2 MUL SWAP1 POP JUMPDEST SWAP4 SWAP3 POP POP POP JUMP JUMPDEST PUSH1 0x0 PUSH16 0xFFFFFFFFFFFFFFFFFFFFFFFFFFFFFFFF DUP3 AND SWAP1 POP SWAP2 SWAP1 POP JUMP JUMPDEST PUSH1 0x0 PUSH2 0x44F2 DUP3 PUSH2 0x44CB JUMP JUMPDEST SWAP2 POP PUSH2 0x44FD DUP4 PUSH2 0x3261 JUMP JUMPDEST SWAP3 POP PUSH2 0x451A PUSH16 0xFFFFFFFFFFFFFFFFFFFFFFFFFFFFFFFF DUP5 DUP5 PUSH2 0x43F8 JUMP JUMPDEST SWAP1 POP SWAP3 SWAP2 POP POP JUMP JUMPDEST PUSH1 0x0 PUSH2 0x452D DUP3 PUSH2 0x44CB JUMP JUMPDEST SWAP2 POP PUSH2 0x4538 DUP4 PUSH2 0x44CB JUMP JUMPDEST SWAP3 POP DUP3 DUP3 MUL PUSH2 0x4546 DUP2 PUSH2 0x44CB JUMP JUMPDEST SWAP2 POP DUP1 DUP3 EQ PUSH2 0x4558 JUMPI PUSH2 0x4557 PUSH2 0x38C7 JUMP JUMPDEST JUMPDEST POP SWAP3 SWAP2 POP POP JUMP JUMPDEST PUSH1 0x0 PUSH2 0x456A DUP3 PUSH2 0x44CB JUMP JUMPDEST SWAP2 POP PUSH2 0x4575 DUP4 PUSH2 0x44CB JUMP JUMPDEST SWAP3 POP DUP3 PUSH2 0x4585 JUMPI PUSH2 0x4584 PUSH2 0x3938 JUMP JUMPDEST JUMPDEST DUP3 DUP3 DIV SWAP1 POP SWAP3 SWAP2 POP POP JUMP JUMPDEST PUSH32 0x4D75737420626520696E207468652077616974696E6720666F7220636C61696D PUSH1 0x0 DUP3 ADD MSTORE PUSH32 0x7320737461746500000000000000000000000000000000000000000000000000 PUSH1 0x20 DUP3 ADD MSTORE POP JUMP JUMPDEST PUSH1 0x0 PUSH2 0x45EC PUSH1 0x27 DUP4 PUSH2 0x36B5 JUMP JUMPDEST SWAP2 POP PUSH2 0x45F7 DUP3 PUSH2 0x4590 JUMP JUMPDEST PUSH1 0x40 DUP3 ADD SWAP1 POP SWAP2 SWAP1 POP JUMP JUMPDEST PUSH1 0x0 PUSH1 0x20 DUP3 ADD SWAP1 POP DUP2 DUP2 SUB PUSH1 0x0 DUP4 ADD MSTORE PUSH2 0x461B DUP2 PUSH2 0x45DF JUMP JUMPDEST SWAP1 POP SWAP2 SWAP1 POP JUMP JUMPDEST PUSH32 0x54686520656E747279206D75737420686176652061637475616C6C7920626565 PUSH1 0x0 DUP3 ADD MSTORE PUSH32 0x6E207375626D6974746564000000000000000000000000000000000000000000 PUSH1 0x20 DUP3 ADD MSTORE POP JUMP JUMPDEST PUSH1 0x0 PUSH2 0x467E PUSH1 0x2B DUP4 PUSH2 0x36B5 JUMP JUMPDEST SWAP2 POP PUSH2 0x4689 DUP3 PUSH2 0x4622 JUMP JUMPDEST PUSH1 0x40 DUP3 ADD SWAP1 POP SWAP2 SWAP1 POP JUMP JUMPDEST PUSH1 0x0 PUSH1 0x20 DUP3 ADD SWAP1 POP DUP2 DUP2 SUB PUSH1 0x0 DUP4 ADD MSTORE PUSH2 0x46AD DUP2 PUSH2 0x4671 JUMP JUMPDEST SWAP1 POP SWAP2 SWAP1 POP JUMP JUMPDEST PUSH1 0x0 PUSH2 0x46BF DUP3 PUSH2 0x30DB JUMP JUMPDEST SWAP2 POP PUSH2 0x46CA DUP4 PUSH2 0x3261 JUMP JUMPDEST SWAP3 POP PUSH2 0x46DB PUSH4 0xFFFFFFFF DUP5 DUP5 PUSH2 0x43F8 JUMP JUMPDEST SWAP1 POP SWAP3 SWAP2 POP POP JUMP JUMPDEST PUSH1 0x0 PUSH2 0x46EE DUP3 PUSH2 0x30DB JUMP JUMPDEST SWAP2 POP PUSH2 0x46F9 DUP4 PUSH2 0x30DB JUMP JUMPDEST SWAP3 POP DUP3 DUP3 ADD SWAP1 POP PUSH4 0xFFFFFFFF DUP2 GT ISZERO PUSH2 0x4715 JUMPI PUSH2 0x4714 PUSH2 0x38C7 JUMP JUMPDEST JUMPDEST SWAP3 SWAP2 POP POP JUMP JUMPDEST PUSH1 0x0 PUSH2 0x4726 DUP3 PUSH2 0x3261 JUMP JUMPDEST SWAP2 POP PUSH2 0x4731 DUP4 PUSH2 0x3261 JUMP JUMPDEST SWAP3 POP DUP3 DUP3 ADD SWAP1 POP PUSH1 0xFF DUP2 GT ISZERO PUSH2 0x474A JUMPI PUSH2 0x4749 PUSH2 0x38C7 JUMP JUMPDEST JUMPDEST SWAP3 SWAP2 POP POP JUMP JUMPDEST PUSH1 0x0 PUSH2 0x475B DUP3 PUSH2 0x3261 JUMP JUMPDEST SWAP2 POP PUSH2 0x4766 DUP4 PUSH2 0x3261 JUMP JUMPDEST SWAP3 POP DUP3 DUP3 SUB SWAP1 POP PUSH1 0xFF DUP2 GT ISZERO PUSH2 0x477F JUMPI PUSH2 0x477E PUSH2 0x38C7 JUMP JUMPDEST JUMPDEST SWAP3 SWAP2 POP POP JUMP JUMPDEST PUSH1 0x0 PUSH2 0xFFFF DUP3 AND SWAP1 POP SWAP2 SWAP1 POP JUMP JUMPDEST PUSH1 0x0 PUSH2 0x479E DUP3 PUSH2 0x4785 JUMP JUMPDEST SWAP2 POP PUSH2 0x47A9 DUP4 PUSH2 0x4785 JUMP JUMPDEST SWAP3 POP DUP3 DUP3 SUB SWAP1 POP PUSH2 0xFFFF DUP2 GT ISZERO PUSH2 0x47C3 JUMPI PUSH2 0x47C2 PUSH2 0x38C7 JUMP JUMPDEST JUMPDEST SWAP3 SWAP2 POP POP JUMP JUMPDEST PUSH1 0x0 PUSH2 0x47D4 DUP3 PUSH2 0x4785 JUMP JUMPDEST SWAP2 POP PUSH2 0x47DF DUP4 PUSH2 0x4785 JUMP JUMPDEST SWAP3 POP DUP3 PUSH2 0x47EF JUMPI PUSH2 0x47EE PUSH2 0x3938 JUMP JUMPDEST JUMPDEST DUP3 DUP3 DIV SWAP1 POP SWAP3 SWAP2 POP POP JUMP JUMPDEST PUSH1 0x0 PUSH2 0x4805 DUP3 PUSH2 0x4785 JUMP JUMPDEST SWAP2 POP PUSH2 0x4810 DUP4 PUSH2 0x4785 JUMP JUMPDEST SWAP3 POP DUP3 DUP3 ADD SWAP1 POP PUSH2 0xFFFF DUP2 GT ISZERO PUSH2 0x482A JUMPI PUSH2 0x4829 PUSH2 0x38C7 JUMP JUMPDEST JUMPDEST SWAP3 SWAP2 POP POP JUMP JUMPDEST PUSH1 0x0 PUSH2 0x483B DUP3 PUSH2 0x30FA JUMP JUMPDEST SWAP2 POP PUSH2 0x4846 DUP4 PUSH2 0x30FA JUMP JUMPDEST SWAP3 POP DUP3 DUP3 SUB SWAP1 POP PUSH8 0xFFFFFFFFFFFFFFFF DUP2 GT ISZERO PUSH2 0x4866 JUMPI PUSH2 0x4865 PUSH2 0x38C7 JUMP JUMPDEST JUMPDEST SWAP3 SWAP2 POP POP JUMP JUMPDEST PUSH1 0x0 PUSH2 0x4877 DUP3 PUSH2 0x30FA JUMP JUMPDEST SWAP2 POP PUSH2 0x4882 DUP4 PUSH2 0x30FA JUMP JUMPDEST SWAP3 POP DUP3 DUP3 ADD SWAP1 POP PUSH8 0xFFFFFFFFFFFFFFFF DUP2 GT ISZERO PUSH2 0x48A2 JUMPI PUSH2 0x48A1 PUSH2 0x38C7 JUMP JUMPDEST JUMPDEST SWAP3 SWAP2 POP POP JUMP JUMPDEST PUSH32 0x5468697320656E7472792068617320616C726561647920636C61696D65642061 PUSH1 0x0 DUP3 ADD MSTORE PUSH32 0x207072697A650000000000000000000000000000000000000000000000000000 PUSH1 0x20 DUP3 ADD MSTORE POP JUMP JUMPDEST PUSH1 0x0 PUSH2 0x4904 PUSH1 0x26 DUP4 PUSH2 0x36B5 JUMP JUMPDEST SWAP2 POP PUSH2 0x490F DUP3 PUSH2 0x48A8 JUMP JUMPDEST PUSH1 0x40 DUP3 ADD SWAP1 POP SWAP2 SWAP1 POP JUMP JUMPDEST PUSH1 0x0 PUSH1 0x20 DUP3 ADD SWAP1 POP DUP2 DUP2 SUB PUSH1 0x0 DUP4 ADD MSTORE PUSH2 0x4933 DUP2 PUSH2 0x48F7 JUMP JUMPDEST SWAP1 POP SWAP2 SWAP1 POP JUMP JUMPDEST PUSH1 0x0 PUSH2 0x4945 DUP3 PUSH2 0x44CB JUMP JUMPDEST SWAP2 POP PUSH2 0x4950 DUP4 PUSH2 0x4785 JUMP JUMPDEST SWAP3 POP PUSH2 0x496D PUSH16 0xFFFFFFFFFFFFFFFFFFFFFFFFFFFFFFFF DUP5 DUP5 PUSH2 0x43F8 JUMP JUMPDEST SWAP1 POP SWAP3 SWAP2 POP POP JUMP INVALID LOG2 PUSH5 0x6970667358 0x22 SLT KECCAK256 DUP7 0xA8 0xB3 0xD2 DUP10 0x28 ADD XOR 0xE8 0xC8 0xBF MSTORE8 0x2A 0xDB ADDMOD DUP6 DUP1 DUP12 0xE5 0xD 0x4D 0xC8 MSIZE 0xBB 0xD8 JUMPDEST PUSH11 0xB6D911EBAF64736F6C6343 STOP ADDMOD GT STOP CALLER "
		},
		"gasEstimates": {
			"creation": {
				"codeDepositCost": "3771800",
				"executionCost": "infinite",
				"totalCost": "infinite"
			},
			"external": {
				"addOracle(address)": "infinite",
				"arePicksOrResultsValid(bytes16)": "infinite",
				"claimTopEntry(uint256)": "infinite",
				"closeContestAndPayWinners()": "infinite",
				"closeOracleVoting(bytes16,uint8,uint8)": "infinite",
				"currentState()": "2584",
				"entries(uint256)": "5279",
				"finalResult()": "infinite",
				"getEntryCount()": "2640",
				"getOracleCount()": "2535",
				"getTransitionTimes()": "infinite",
				"markTournamentFinished()": "infinite",
				"markTournamentInProgress()": "infinite",
				"oracleVotes(address)": "infinite",
				"oracles(uint256)": "4979",
				"owner()": "2567",
				"prizeAmount()": "2518",
				"prizeERC20TokenAddress()": "2581",
				"refundRemaining(uint256)": "infinite",
				"renounceOwnership()": "30465",
				"submitEntry(bytes16,uint64,uint64,string)": "infinite",
				"submitOracleVote(uint256,bytes16,uint8,uint8)": "infinite",
				"topThree(uint256)": "9768",
				"transferOwnership(address)": "30832",
				"transitionTimes(uint256)": "infinite"
			},
			"internal": {
				"advanceState(enum EthMadness.ContestState)": "infinite",
				"clearBit16(bytes16,uint16)": "2037",
				"computeFinalGameDifference(uint64,uint64,uint64,uint64)": "infinite",
				"extractResult(bytes16,uint8)": "infinite",
				"getBit16(bytes16,uint16)": "2052",
				"getFirstGameIdOfRound(uint8)": "184",
				"getRoundForGame(uint8)": "199",
				"isScoreBetter(struct EthMadness.TopScore memory,struct EthMadness.TopScore memory)": "infinite",
				"scoreAndSortEntry(uint256,bytes16,uint64,uint64)": "infinite",
				"scoreEntry(bytes16,bytes16)": "infinite",
				"setBit16(bytes16,uint16)": "infinite"
			}
		},
		"methodIdentifiers": {
			"addOracle(address)": "df5dd1a5",
			"arePicksOrResultsValid(bytes16)": "82545026",
			"claimTopEntry(uint256)": "9ec31bba",
			"closeContestAndPayWinners()": "4f25f7fd",
			"closeOracleVoting(bytes16,uint8,uint8)": "c104688c",
			"currentState()": "0c3f6acf",
			"entries(uint256)": "b30906d4",
			"finalResult()": "f3a8286f",
			"getEntryCount()": "7a360e65",
			"getOracleCount()": "3f4e4251",
			"getTransitionTimes()": "b4c9aee2",
			"markTournamentFinished()": "ecd869a7",
			"markTournamentInProgress()": "114c7427",
			"oracleVotes(address)": "5347f96e",
			"oracles(uint256)": "5b69a7d8",
			"owner()": "8da5cb5b",
			"prizeAmount()": "785fa627",
			"prizeERC20TokenAddress()": "df4de07c",
			"refundRemaining(uint256)": "980d4ec6",
			"renounceOwnership()": "715018a6",
			"submitEntry(bytes16,uint64,uint64,string)": "5dfa3e08",
			"submitOracleVote(uint256,bytes16,uint8,uint8)": "823445fa",
			"topThree(uint256)": "25a17545",
			"transferOwnership(address)": "f2fde38b",
			"transitionTimes(uint256)": "e9d43e1b"
		}
	},
	"abi": [
		{
			"inputs": [
				{
					"internalType": "uint256[]",
					"name": "times",
					"type": "uint256[]"
				},
				{
					"internalType": "address",
					"name": "erc20Token",
					"type": "address"
				},
				{
					"internalType": "uint256",
					"name": "erc20Amount",
					"type": "uint256"
				}
			],
			"stateMutability": "nonpayable",
			"type": "constructor"
		},
		{
			"anonymous": false,
			"inputs": [
				{
					"indexed": true,
					"internalType": "address",
					"name": "submitter",
					"type": "address"
				},
				{
					"indexed": true,
					"internalType": "uint256",
					"name": "entryCompressed",
					"type": "uint256"
				},
				{
					"indexed": true,
					"internalType": "uint48",
					"name": "entryIndex",
					"type": "uint48"
				},
				{
					"indexed": false,
					"internalType": "string",
					"name": "bracketName",
					"type": "string"
				}
			],
			"name": "EntrySubmitted",
			"type": "event"
		},
		{
			"anonymous": false,
			"inputs": [
				{
					"indexed": true,
					"internalType": "address",
					"name": "previousOwner",
					"type": "address"
				},
				{
					"indexed": true,
					"internalType": "address",
					"name": "newOwner",
					"type": "address"
				}
			],
			"name": "OwnershipTransferred",
			"type": "event"
		},
		{
			"inputs": [
				{
					"internalType": "address",
					"name": "oracle",
					"type": "address"
				}
			],
			"name": "addOracle",
			"outputs": [],
			"stateMutability": "nonpayable",
			"type": "function"
		},
		{
			"inputs": [
				{
					"internalType": "bytes16",
					"name": "picksOrResults",
					"type": "bytes16"
				}
			],
			"name": "arePicksOrResultsValid",
			"outputs": [
				{
					"internalType": "bool",
					"name": "",
					"type": "bool"
				}
			],
			"stateMutability": "pure",
			"type": "function"
		},
		{
			"inputs": [
				{
					"internalType": "uint256",
					"name": "entryCompressed",
					"type": "uint256"
				}
			],
			"name": "claimTopEntry",
			"outputs": [],
			"stateMutability": "nonpayable",
			"type": "function"
		},
		{
			"inputs": [],
			"name": "closeContestAndPayWinners",
			"outputs": [],
			"stateMutability": "nonpayable",
			"type": "function"
		},
		{
			"inputs": [
				{
					"internalType": "bytes16",
					"name": "winners",
					"type": "bytes16"
				},
				{
					"internalType": "uint8",
					"name": "scoreA",
					"type": "uint8"
				},
				{
					"internalType": "uint8",
					"name": "scoreB",
					"type": "uint8"
				}
			],
			"name": "closeOracleVoting",
			"outputs": [],
			"stateMutability": "nonpayable",
			"type": "function"
		},
		{
			"inputs": [],
			"name": "currentState",
			"outputs": [
				{
					"internalType": "enum EthMadness.ContestState",
					"name": "",
					"type": "uint8"
				}
			],
			"stateMutability": "view",
			"type": "function"
		},
		{
			"inputs": [
				{
					"internalType": "uint256",
					"name": "",
					"type": "uint256"
				}
			],
			"name": "entries",
			"outputs": [
				{
					"internalType": "address",
					"name": "submitter",
					"type": "address"
				},
				{
					"internalType": "uint48",
					"name": "entryIndex",
					"type": "uint48"
				}
			],
			"stateMutability": "view",
			"type": "function"
		},
		{
			"inputs": [],
			"name": "finalResult",
			"outputs": [
				{
					"internalType": "bytes16",
					"name": "winners",
					"type": "bytes16"
				},
				{
					"internalType": "uint8",
					"name": "scoreA",
					"type": "uint8"
				},
				{
					"internalType": "uint8",
					"name": "scoreB",
					"type": "uint8"
				},
				{
					"internalType": "bool",
					"name": "isFinal",
					"type": "bool"
				}
			],
			"stateMutability": "view",
			"type": "function"
		},
		{
			"inputs": [],
			"name": "getEntryCount",
			"outputs": [
				{
					"internalType": "uint256",
					"name": "",
					"type": "uint256"
				}
			],
			"stateMutability": "view",
			"type": "function"
		},
		{
			"inputs": [],
			"name": "getOracleCount",
			"outputs": [
				{
					"internalType": "uint256",
					"name": "",
					"type": "uint256"
				}
			],
			"stateMutability": "view",
			"type": "function"
		},
		{
			"inputs": [],
			"name": "getTransitionTimes",
			"outputs": [
				{
					"internalType": "uint256",
					"name": "",
					"type": "uint256"
				},
				{
					"internalType": "uint256",
					"name": "",
					"type": "uint256"
				},
				{
					"internalType": "uint256",
					"name": "",
					"type": "uint256"
				},
				{
					"internalType": "uint256",
					"name": "",
					"type": "uint256"
				}
			],
			"stateMutability": "view",
			"type": "function"
		},
		{
			"inputs": [],
			"name": "markTournamentFinished",
			"outputs": [],
			"stateMutability": "nonpayable",
			"type": "function"
		},
		{
			"inputs": [],
			"name": "markTournamentInProgress",
			"outputs": [],
			"stateMutability": "nonpayable",
			"type": "function"
		},
		{
			"inputs": [
				{
					"internalType": "address",
					"name": "",
					"type": "address"
				}
			],
			"name": "oracleVotes",
			"outputs": [
				{
					"internalType": "bytes16",
					"name": "winners",
					"type": "bytes16"
				},
				{
					"internalType": "uint8",
					"name": "scoreA",
					"type": "uint8"
				},
				{
					"internalType": "uint8",
					"name": "scoreB",
					"type": "uint8"
				},
				{
					"internalType": "bool",
					"name": "isFinal",
					"type": "bool"
				}
			],
			"stateMutability": "view",
			"type": "function"
		},
		{
			"inputs": [
				{
					"internalType": "uint256",
					"name": "",
					"type": "uint256"
				}
			],
			"name": "oracles",
			"outputs": [
				{
					"internalType": "address",
					"name": "",
					"type": "address"
				}
			],
			"stateMutability": "view",
			"type": "function"
		},
		{
			"inputs": [],
			"name": "owner",
			"outputs": [
				{
					"internalType": "address",
					"name": "",
					"type": "address"
				}
			],
			"stateMutability": "view",
			"type": "function"
		},
		{
			"inputs": [],
			"name": "prizeAmount",
			"outputs": [
				{
					"internalType": "uint256",
					"name": "",
					"type": "uint256"
				}
			],
			"stateMutability": "view",
			"type": "function"
		},
		{
			"inputs": [],
			"name": "prizeERC20TokenAddress",
			"outputs": [
				{
					"internalType": "address",
					"name": "",
					"type": "address"
				}
			],
			"stateMutability": "view",
			"type": "function"
		},
		{
			"inputs": [
				{
					"internalType": "uint256",
					"name": "amount",
					"type": "uint256"
				}
			],
			"name": "refundRemaining",
			"outputs": [],
			"stateMutability": "nonpayable",
			"type": "function"
		},
		{
			"inputs": [],
			"name": "renounceOwnership",
			"outputs": [],
			"stateMutability": "nonpayable",
			"type": "function"
		},
		{
			"inputs": [
				{
					"internalType": "bytes16",
					"name": "picks",
					"type": "bytes16"
				},
				{
					"internalType": "uint64",
					"name": "scoreA",
					"type": "uint64"
				},
				{
					"internalType": "uint64",
					"name": "scoreB",
					"type": "uint64"
				},
				{
					"internalType": "string",
					"name": "bracketName",
					"type": "string"
				}
			],
			"name": "submitEntry",
			"outputs": [],
			"stateMutability": "nonpayable",
			"type": "function"
		},
		{
			"inputs": [
				{
					"internalType": "uint256",
					"name": "oracleIndex",
					"type": "uint256"
				},
				{
					"internalType": "bytes16",
					"name": "winners",
					"type": "bytes16"
				},
				{
					"internalType": "uint8",
					"name": "scoreA",
					"type": "uint8"
				},
				{
					"internalType": "uint8",
					"name": "scoreB",
					"type": "uint8"
				}
			],
			"name": "submitOracleVote",
			"outputs": [],
			"stateMutability": "nonpayable",
			"type": "function"
		},
		{
			"inputs": [
				{
					"internalType": "uint256",
					"name": "",
					"type": "uint256"
				}
			],
			"name": "topThree",
			"outputs": [
				{
					"internalType": "uint48",
					"name": "entryIndex",
					"type": "uint48"
				},
				{
					"internalType": "uint32",
					"name": "score",
					"type": "uint32"
				},
				{
					"internalType": "uint64",
					"name": "difference",
					"type": "uint64"
				},
				{
					"internalType": "address",
					"name": "submitter",
					"type": "address"
				}
			],
			"stateMutability": "view",
			"type": "function"
		},
		{
			"inputs": [
				{
					"internalType": "address",
					"name": "newOwner",
					"type": "address"
				}
			],
			"name": "transferOwnership",
			"outputs": [],
			"stateMutability": "nonpayable",
			"type": "function"
		},
		{
			"inputs": [
				{
					"internalType": "uint256",
					"name": "",
					"type": "uint256"
				}
			],
			"name": "transitionTimes",
			"outputs": [
				{
					"internalType": "uint256",
					"name": "",
					"type": "uint256"
				}
			],
			"stateMutability": "view",
			"type": "function"
		}
	]
}