{
	"data": {
		"bytecode": {
			"linkReferences": {},
			"object": "60a0604052640430e2340060045569152d02c7e14af680000060065560016009556000600b60006101000a81548160ff02191690831515021790555062278d00600c5562093a80600d55604051620020a2380380620020a283398181016040528101906200006e9190620003b1565b620000a07fb165298935924f540e4181c03493a5d686c54a0aaeb3f6216de85b7ffbba773882620001e460201b60201c565b620000d27f3c11d16cbaffd01df69ce1c404f6340ee057498f5f00246190ea54220576a84882620001e460201b60201c565b620001047f305786ab5904b5bb20fe6d91992844b39d648cdcb82f328edc2d6a80bfbb328982620001e460201b60201c565b33600160006101000a81548173ffffffffffffffffffffffffffffffffffffffff021916908373ffffffffffffffffffffffffffffffffffffffff16021790555081600560006101000a81548173ffffffffffffffffffffffffffffffffffffffff021916908373ffffffffffffffffffffffffffffffffffffffff1602179055504260808181525050606f600a60008081526020019081526020016000208190555060de600a6000600181526020019081526020016000208190555061014d600a600060028152602001908152602001600020819055505050620003f8565b620001f68282620002d560201b60201c565b620002d157600160008084815260200190815260200160002060000160008373ffffffffffffffffffffffffffffffffffffffff1673ffffffffffffffffffffffffffffffffffffffff16815260200190815260200160002060006101000a81548160ff021916908315150217905550620002766200033f60201b60201c565b73ffffffffffffffffffffffffffffffffffffffff168173ffffffffffffffffffffffffffffffffffffffff16837f2f8788117e7eff1d82e926ec794901d17c78024a50270940304540a733656f0d60405160405180910390a45b5050565b600080600084815260200190815260200160002060000160008373ffffffffffffffffffffffffffffffffffffffff1673ffffffffffffffffffffffffffffffffffffffff16815260200190815260200160002060009054906101000a900460ff16905092915050565b600033905090565b600080fd5b600073ffffffffffffffffffffffffffffffffffffffff82169050919050565b600062000379826200034c565b9050919050565b6200038b816200036c565b81146200039757600080fd5b50565b600081519050620003ab8162000380565b92915050565b60008060408385031215620003cb57620003ca62000347565b5b6000620003db858286016200039a565b9250506020620003ee858286016200039a565b9150509250929050565b608051611c80620004226000396000818161071f0152818161085a01526108f50152611c806000f3fe6080604052600436106100e15760003560e01c806373f425611161007f578063a217fddf11610059578063a217fddf146102f4578063a6f2ae3a1461031f578063b1ac51f81461033d578063d547741f1461036857610125565b806373f425611461026157806376082a5e1461028c57806391d14854146102b757610125565b80632e1a7d4d116100bb5780632e1a7d4d146101cf5780632f2ff15d146101f857806336568abe146102215780634f2484091461024a57610125565b806301ffc9a71461012a578063248a9ca314610167578063282c51f3146101a457610125565b36610125577fcf34ef537ac33ee1ac626ca1587a0a7e8e51561e5514f8cb36afa1c5102b3bab60405161011390611304565b60405180910390a1610123610391565b005b600080fd5b34801561013657600080fd5b50610151600480360381019061014c9190611381565b610626565b60405161015e91906113c9565b60405180910390f35b34801561017357600080fd5b5061018e6004803603810190610189919061141a565b6106a0565b60405161019b9190611456565b60405180910390f35b3480156101b057600080fd5b506101b96106bf565b6040516101c69190611456565b60405180910390f35b3480156101db57600080fd5b506101f660048036038101906101f191906114a7565b6106e3565b005b34801561020457600080fd5b5061021f600480360381019061021a9190611532565b610980565b005b34801561022d57600080fd5b5061024860048036038101906102439190611532565b6109a1565b005b34801561025657600080fd5b5061025f610a24565b005b34801561026d57600080fd5b50610276610be0565b60405161028391906113c9565b60405180910390f35b34801561029857600080fd5b506102a1610bf7565b6040516102ae9190611456565b60405180910390f35b3480156102c357600080fd5b506102de60048036038101906102d99190611532565b610c1b565b6040516102eb91906113c9565b60405180910390f35b34801561030057600080fd5b50610309610c85565b6040516103169190611456565b60405180910390f35b610327610391565b60405161033491906113c9565b60405180910390f35b34801561034957600080fd5b50610352610c8c565b60405161035f9190611456565b60405180910390f35b34801561037457600080fd5b5061038f600480360381019061038a9190611532565b610cb0565b005b600060045442106103d7576040517f08c379a00000000000000000000000000000000000000000000000000000000081526004016103ce906115be565b60405180910390fd5b6000341161041a576040517f08c379a00000000000000000000000000000000000000000000000000000000081526004016104119061162a565b60405180910390fd5b600061042534610cd1565b9050600654600854826104389190611679565b10610478576040517f08c379a000000000000000000000000000000000000000000000000000000000815260040161046f906116f9565b60405180910390fd5b600560009054906101000a900473ffffffffffffffffffffffffffffffffffffffff1673ffffffffffffffffffffffffffffffffffffffff1663095ea7b330836040518363ffffffff1660e01b81526004016104d5929190611737565b6020604051808303816000875af11580156104f4573d6000803e3d6000fd5b505050506040513d601f19601f82011682018060405250810190610518919061178c565b50600560009054906101000a900473ffffffffffffffffffffffffffffffffffffffff1673ffffffffffffffffffffffffffffffffffffffff1663a9059cbb33836040518363ffffffff1660e01b8152600401610576929190611737565b6020604051808303816000875af1158015610595573d6000803e3d6000fd5b505050506040513d601f19601f820116820180604052508101906105b9919061178c565b50600854816105c89190611679565b60088190555034600760008282546105e09190611679565b925050819055507f92f64ca637d023f354075a4be751b169c1a8a9ccb6d33cdd0cb35205439957278160405161061691906117b9565b60405180910390a1600191505090565b60007f7965db0b000000000000000000000000000000000000000000000000000000007bffffffffffffffffffffffffffffffffffffffffffffffffffffffff1916827bffffffffffffffffffffffffffffffffffffffffffffffffffffffff19161480610699575061069882610cef565b5b9050919050565b6000806000838152602001908152602001600020600101549050919050565b7f3c11d16cbaffd01df69ce1c404f6340ee057498f5f00246190ea54220576a84881565b7fb165298935924f540e4181c03493a5d686c54a0aaeb3f6216de85b7ffbba773861070d81610d59565b426012600c5461071d91906117d4565b7f00000000000000000000000000000000000000000000000000000000000000006107489190611679565b111561084957600061075983610d6d565b9050600560009054906101000a900473ffffffffffffffffffffffffffffffffffffffff1673ffffffffffffffffffffffffffffffffffffffff1663095ea7b330836040518363ffffffff1660e01b81526004016107b8929190611737565b6020604051808303816000875af11580156107d7573d6000803e3d6000fd5b505050506040513d601f19601f820116820180604052508101906107fb919061178c565b503373ffffffffffffffffffffffffffffffffffffffff166108fc829081150290604051600060405180830381858888f19350505050158015610842573d6000803e3d6000fd5b505061097c565b42600c805461085891906117d4565b7f00000000000000000000000000000000000000000000000000000000000000006108839190611679565b11156108e357600061089483610d6d565b90503373ffffffffffffffffffffffffffffffffffffffff166108fc829081150290604051600060405180830381858888f193505050501580156108dc573d6000803e3d6000fd5b505061097b565b426006600c546108f391906117d4565b7f000000000000000000000000000000000000000000000000000000000000000061091e9190611679565b111561097a57600061092f83610d6d565b90503373ffffffffffffffffffffffffffffffffffffffff166108fc829081150290604051600060405180830381858888f19350505050158015610977573d6000803e3d6000fd5b50505b5b5b5050565b610989826106a0565b61099281610d59565b61099c8383610d90565b505050565b6109a9610e70565b73ffffffffffffffffffffffffffffffffffffffff168173ffffffffffffffffffffffffffffffffffffffff1614610a16576040517f08c379a0000000000000000000000000000000000000000000000000000000008152600401610a0d90611888565b60405180910390fd5b610a208282610e78565b5050565b6004544210610a68576040517f08c379a0000000000000000000000000000000000000000000000000000000008152600401610a5f906115be565b60405180910390fd5b7f3c11d16cbaffd01df69ce1c404f6340ee057498f5f00246190ea54220576a848610a9281610d59565b600b60009054906101000a900460ff1615610ae2576040517f08c379a0000000000000000000000000000000000000000000000000000000008152600401610ad9906118f4565b60405180910390fd5b6000610afb600854600654610f5990919063ffffffff16565b9050600560009054906101000a900473ffffffffffffffffffffffffffffffffffffffff1673ffffffffffffffffffffffffffffffffffffffff166342966c68826040518263ffffffff1660e01b8152600401610b5891906117b9565b600060405180830381600087803b158015610b7257600080fd5b505af1158015610b86573d6000803e3d6000fd5b505050507fd83c63197e8e676d80ab0122beba9a9d20f3828839e9a1d6fe81d242e9cd7e6e81604051610bb991906117b9565b60405180910390a1506001600b60006101000a81548160ff02191690831515021790555050565b6000600b60009054906101000a900460ff16905090565b7fb165298935924f540e4181c03493a5d686c54a0aaeb3f6216de85b7ffbba773881565b600080600084815260200190815260200160002060000160008373ffffffffffffffffffffffffffffffffffffffff1673ffffffffffffffffffffffffffffffffffffffff16815260200190815260200160002060009054906101000a900460ff16905092915050565b6000801b81565b7f305786ab5904b5bb20fe6d91992844b39d648cdcb82f328edc2d6a80bfbb328981565b610cb9826106a0565b610cc281610d59565b610ccc8383610e78565b505050565b6000610ce860095483610f6f90919063ffffffff16565b9050919050565b60007f01ffc9a7000000000000000000000000000000000000000000000000000000007bffffffffffffffffffffffffffffffffffffffffffffffffffffffff1916827bffffffffffffffffffffffffffffffffffffffffffffffffffffffff1916149050919050565b610d6a81610d65610e70565b610f85565b50565b6000610d89610d7a61100a565b83610f6f90919063ffffffff16565b9050919050565b610d9a8282610c1b565b610e6c57600160008084815260200190815260200160002060000160008373ffffffffffffffffffffffffffffffffffffffff1673ffffffffffffffffffffffffffffffffffffffff16815260200190815260200160002060006101000a81548160ff021916908315150217905550610e11610e70565b73ffffffffffffffffffffffffffffffffffffffff168173ffffffffffffffffffffffffffffffffffffffff16837f2f8788117e7eff1d82e926ec794901d17c78024a50270940304540a733656f0d60405160405180910390a45b5050565b600033905090565b610e828282610c1b565b15610f5557600080600084815260200190815260200160002060000160008373ffffffffffffffffffffffffffffffffffffffff1673ffffffffffffffffffffffffffffffffffffffff16815260200190815260200160002060006101000a81548160ff021916908315150217905550610efa610e70565b73ffffffffffffffffffffffffffffffffffffffff168173ffffffffffffffffffffffffffffffffffffffff16837ff6391f5c32d9c69d2a47ea670b442974b53935d1edc7fd64eb21e047a839171b60405160405180910390a45b5050565b60008183610f679190611914565b905092915050565b60008183610f7d91906117d4565b905092915050565b610f8f8282610c1b565b61100657610f9c81611028565b610faa8360001c6020611055565b604051602001610fbb929190611a51565b6040516020818303038152906040526040517f08c379a0000000000000000000000000000000000000000000000000000000008152600401610ffd9190611ad5565b60405180910390fd5b5050565b600061102360065460085461129190919063ffffffff16565b905090565b606061104e8273ffffffffffffffffffffffffffffffffffffffff16601460ff16611055565b9050919050565b60606000600283600261106891906117d4565b6110729190611679565b67ffffffffffffffff81111561108b5761108a611af7565b5b6040519080825280601f01601f1916602001820160405280156110bd5781602001600182028036833780820191505090505b5090507f3000000000000000000000000000000000000000000000000000000000000000816000815181106110f5576110f4611b26565b5b60200101907effffffffffffffffffffffffffffffffffffffffffffffffffffffffffffff1916908160001a9053507f78000000000000000000000000000000000000000000000000000000000000008160018151811061115957611158611b26565b5b60200101907effffffffffffffffffffffffffffffffffffffffffffffffffffffffffffff1916908160001a9053506000600184600261119991906117d4565b6111a39190611679565b90505b6001811115611243577f3031323334353637383961626364656600000000000000000000000000000000600f8616601081106111e5576111e4611b26565b5b1a60f81b8282815181106111fc576111fb611b26565b5b60200101907effffffffffffffffffffffffffffffffffffffffffffffffffffffffffffff1916908160001a905350600485901c94508061123c90611b55565b90506111a6565b5060008414611287576040517f08c379a000000000000000000000000000000000000000000000000000000000815260040161127e90611bca565b60405180910390fd5b8091505092915050565b6000818361129f9190611c19565b905092915050565b600082825260208201905092915050565b7f66616c6c6261636b206869740000000000000000000000000000000000000000600082015250565b60006112ee600c836112a7565b91506112f9826112b8565b602082019050919050565b6000602082019050818103600083015261131d816112e1565b9050919050565b600080fd5b60007fffffffff0000000000000000000000000000000000000000000000000000000082169050919050565b61135e81611329565b811461136957600080fd5b50565b60008135905061137b81611355565b92915050565b60006020828403121561139757611396611324565b5b60006113a58482850161136c565b91505092915050565b60008115159050919050565b6113c3816113ae565b82525050565b60006020820190506113de60008301846113ba565b92915050565b6000819050919050565b6113f7816113e4565b811461140257600080fd5b50565b600081359050611414816113ee565b92915050565b6000602082840312156114305761142f611324565b5b600061143e84828501611405565b91505092915050565b611450816113e4565b82525050565b600060208201905061146b6000830184611447565b92915050565b6000819050919050565b61148481611471565b811461148f57600080fd5b50565b6000813590506114a18161147b565b92915050565b6000602082840312156114bd576114bc611324565b5b60006114cb84828501611492565b91505092915050565b600073ffffffffffffffffffffffffffffffffffffffff82169050919050565b60006114ff826114d4565b9050919050565b61150f816114f4565b811461151a57600080fd5b50565b60008135905061152c81611506565b92915050565b6000806040838503121561154957611548611324565b5b600061155785828601611405565b92505060206115688582860161151d565b9150509250929050565b7f49434f206973206f766572203a28200000000000000000000000000000000000600082015250565b60006115a8600f836112a7565b91506115b382611572565b602082019050919050565b600060208201905081810360008301526115d78161159b565b9050919050565b7f20706c656173652073656e64206d657469730000000000000000000000000000600082015250565b60006116146012836112a7565b915061161f826115de565b602082019050919050565b6000602082019050818103600083015261164381611607565b9050919050565b7f4e487b7100000000000000000000000000000000000000000000000000000000600052601160045260246000fd5b600061168482611471565b915061168f83611471565b92508282019050808211156116a7576116a661164a565b5b92915050565b7f657863656564732074686520746f74616c20666f722073616c65000000000000600082015250565b60006116e3601a836112a7565b91506116ee826116ad565b602082019050919050565b60006020820190508181036000830152611712816116d6565b9050919050565b611722816114f4565b82525050565b61173181611471565b82525050565b600060408201905061174c6000830185611719565b6117596020830184611728565b9392505050565b611769816113ae565b811461177457600080fd5b50565b60008151905061178681611760565b92915050565b6000602082840312156117a2576117a1611324565b5b60006117b084828501611777565b91505092915050565b60006020820190506117ce6000830184611728565b92915050565b60006117df82611471565b91506117ea83611471565b92508282026117f881611471565b9150828204841483151761180f5761180e61164a565b5b5092915050565b7f416363657373436f6e74726f6c3a2063616e206f6e6c792072656e6f756e636560008201527f20726f6c657320666f722073656c660000000000000000000000000000000000602082015250565b6000611872602f836112a7565b915061187d82611816565b604082019050919050565b600060208201905081810360008301526118a181611865565b9050919050565b7f74686520737570706c7920697320616c7265616479206275726e656400000000600082015250565b60006118de601c836112a7565b91506118e9826118a8565b602082019050919050565b6000602082019050818103600083015261190d816118d1565b9050919050565b600061191f82611471565b915061192a83611471565b92508282039050818111156119425761194161164a565b5b92915050565b600081905092915050565b7f416363657373436f6e74726f6c3a206163636f756e7420000000000000000000600082015250565b6000611989601783611948565b915061199482611953565b601782019050919050565b600081519050919050565b60005b838110156119c85780820151818401526020810190506119ad565b60008484015250505050565b60006119df8261199f565b6119e98185611948565b93506119f98185602086016119aa565b80840191505092915050565b7f206973206d697373696e6720726f6c6520000000000000000000000000000000600082015250565b6000611a3b601183611948565b9150611a4682611a05565b601182019050919050565b6000611a5c8261197c565b9150611a6882856119d4565b9150611a7382611a2e565b9150611a7f82846119d4565b91508190509392505050565b6000601f19601f8301169050919050565b6000611aa78261199f565b611ab181856112a7565b9350611ac18185602086016119aa565b611aca81611a8b565b840191505092915050565b60006020820190508181036000830152611aef8184611a9c565b905092915050565b7f4e487b7100000000000000000000000000000000000000000000000000000000600052604160045260246000fd5b7f4e487b7100000000000000000000000000000000000000000000000000000000600052603260045260246000fd5b6000611b6082611471565b915060008203611b7357611b7261164a565b5b600182039050919050565b7f537472696e67733a20686578206c656e67746820696e73756666696369656e74600082015250565b6000611bb46020836112a7565b9150611bbf82611b7e565b602082019050919050565b60006020820190508181036000830152611be381611ba7565b9050919050565b7f4e487b7100000000000000000000000000000000000000000000000000000000600052601260045260246000fd5b6000611c2482611471565b9150611c2f83611471565b925082611c3f57611c3e611bea565b5b82820490509291505056fea2646970667358221220814a8a98eefd24b4b88da9a1e13d0f300f7b6d1d6c4390631a481f9d87b6808a64736f6c63430008110033",
			"opcodes": "PUSH1 0xA0 PUSH1 0x40 MSTORE PUSH5 0x430E23400 PUSH1 0x4 SSTORE PUSH10 0x152D02C7E14AF6800000 PUSH1 0x6 SSTORE PUSH1 0x1 PUSH1 0x9 SSTORE PUSH1 0x0 PUSH1 0xB PUSH1 0x0 PUSH2 0x100 EXP DUP2 SLOAD DUP2 PUSH1 0xFF MUL NOT AND SWAP1 DUP4 ISZERO ISZERO MUL OR SWAP1 SSTORE POP PUSH3 0x278D00 PUSH1 0xC SSTORE PUSH3 0x93A80 PUSH1 0xD SSTORE PUSH1 0x40 MLOAD PUSH3 0x20A2 CODESIZE SUB DUP1 PUSH3 0x20A2 DUP4 CODECOPY DUP2 DUP2 ADD PUSH1 0x40 MSTORE DUP2 ADD SWAP1 PUSH3 0x6E SWAP2 SWAP1 PUSH3 0x3B1 JUMP JUMPDEST PUSH3 0xA0 PUSH32 0xB165298935924F540E4181C03493A5D686C54A0AAEB3F6216DE85B7FFBBA7738 DUP3 PUSH3 0x1E4 PUSH1 0x20 SHL PUSH1 0x20 SHR JUMP JUMPDEST PUSH3 0xD2 PUSH32 0x3C11D16CBAFFD01DF69CE1C404F6340EE057498F5F00246190EA54220576A848 DUP3 PUSH3 0x1E4 PUSH1 0x20 SHL PUSH1 0x20 SHR JUMP JUMPDEST PUSH3 0x104 PUSH32 0x305786AB5904B5BB20FE6D91992844B39D648CDCB82F328EDC2D6A80BFBB3289 DUP3 PUSH3 0x1E4 PUSH1 0x20 SHL PUSH1 0x20 SHR JUMP JUMPDEST CALLER PUSH1 0x1 PUSH1 0x0 PUSH2 0x100 EXP DUP2 SLOAD DUP2 PUSH20 0xFFFFFFFFFFFFFFFFFFFFFFFFFFFFFFFFFFFFFFFF MUL NOT AND SWAP1 DUP4 PUSH20 0xFFFFFFFFFFFFFFFFFFFFFFFFFFFFFFFFFFFFFFFF AND MUL OR SWAP1 SSTORE POP DUP2 PUSH1 0x5 PUSH1 0x0 PUSH2 0x100 EXP DUP2 SLOAD DUP2 PUSH20 0xFFFFFFFFFFFFFFFFFFFFFFFFFFFFFFFFFFFFFFFF MUL NOT AND SWAP1 DUP4 PUSH20 0xFFFFFFFFFFFFFFFFFFFFFFFFFFFFFFFFFFFFFFFF AND MUL OR SWAP1 SSTORE POP TIMESTAMP PUSH1 0x80 DUP2 DUP2 MSTORE POP POP PUSH1 0x6F PUSH1 0xA PUSH1 0x0 DUP1 DUP2 MSTORE PUSH1 0x20 ADD SWAP1 DUP2 MSTORE PUSH1 0x20 ADD PUSH1 0x0 KECCAK256 DUP2 SWAP1 SSTORE POP PUSH1 0xDE PUSH1 0xA PUSH1 0x0 PUSH1 0x1 DUP2 MSTORE PUSH1 0x20 ADD SWAP1 DUP2 MSTORE PUSH1 0x20 ADD PUSH1 0x0 KECCAK256 DUP2 SWAP1 SSTORE POP PUSH2 0x14D PUSH1 0xA PUSH1 0x0 PUSH1 0x2 DUP2 MSTORE PUSH1 0x20 ADD SWAP1 DUP2 MSTORE PUSH1 0x20 ADD PUSH1 0x0 KECCAK256 DUP2 SWAP1 SSTORE POP POP POP PUSH3 0x3F8 JUMP JUMPDEST PUSH3 0x1F6 DUP3 DUP3 PUSH3 0x2D5 PUSH1 0x20 SHL PUSH1 0x20 SHR JUMP JUMPDEST PUSH3 0x2D1 JUMPI PUSH1 0x1 PUSH1 0x0 DUP1 DUP5 DUP2 MSTORE PUSH1 0x20 ADD SWAP1 DUP2 MSTORE PUSH1 0x20 ADD PUSH1 0x0 KECCAK256 PUSH1 0x0 ADD PUSH1 0x0 DUP4 PUSH20 0xFFFFFFFFFFFFFFFFFFFFFFFFFFFFFFFFFFFFFFFF AND PUSH20 0xFFFFFFFFFFFFFFFFFFFFFFFFFFFFFFFFFFFFFFFF AND DUP2 MSTORE PUSH1 0x20 ADD SWAP1 DUP2 MSTORE PUSH1 0x20 ADD PUSH1 0x0 KECCAK256 PUSH1 0x0 PUSH2 0x100 EXP DUP2 SLOAD DUP2 PUSH1 0xFF MUL NOT AND SWAP1 DUP4 ISZERO ISZERO MUL OR SWAP1 SSTORE POP PUSH3 0x276 PUSH3 0x33F PUSH1 0x20 SHL PUSH1 0x20 SHR JUMP JUMPDEST PUSH20 0xFFFFFFFFFFFFFFFFFFFFFFFFFFFFFFFFFFFFFFFF AND DUP2 PUSH20 0xFFFFFFFFFFFFFFFFFFFFFFFFFFFFFFFFFFFFFFFF AND DUP4 PUSH32 0x2F8788117E7EFF1D82E926EC794901D17C78024A50270940304540A733656F0D PUSH1 0x40 MLOAD PUSH1 0x40 MLOAD DUP1 SWAP2 SUB SWAP1 LOG4 JUMPDEST POP POP JUMP JUMPDEST PUSH1 0x0 DUP1 PUSH1 0x0 DUP5 DUP2 MSTORE PUSH1 0x20 ADD SWAP1 DUP2 MSTORE PUSH1 0x20 ADD PUSH1 0x0 KECCAK256 PUSH1 0x0 ADD PUSH1 0x0 DUP4 PUSH20 0xFFFFFFFFFFFFFFFFFFFFFFFFFFFFFFFFFFFFFFFF AND PUSH20 0xFFFFFFFFFFFFFFFFFFFFFFFFFFFFFFFFFFFFFFFF AND DUP2 MSTORE PUSH1 0x20 ADD SWAP1 DUP2 MSTORE PUSH1 0x20 ADD PUSH1 0x0 KECCAK256 PUSH1 0x0 SWAP1 SLOAD SWAP1 PUSH2 0x100 EXP SWAP1 DIV PUSH1 0xFF AND SWAP1 POP SWAP3 SWAP2 POP POP JUMP JUMPDEST PUSH1 0x0 CALLER SWAP1 POP SWAP1 JUMP JUMPDEST PUSH1 0x0 DUP1 REVERT JUMPDEST PUSH1 0x0 PUSH20 0xFFFFFFFFFFFFFFFFFFFFFFFFFFFFFFFFFFFFFFFF DUP3 AND SWAP1 POP SWAP2 SWAP1 POP JUMP JUMPDEST PUSH1 0x0 PUSH3 0x379 DUP3 PUSH3 0x34C JUMP JUMPDEST SWAP1 POP SWAP2 SWAP1 POP JUMP JUMPDEST PUSH3 0x38B DUP2 PUSH3 0x36C JUMP JUMPDEST DUP2 EQ PUSH3 0x397 JUMPI PUSH1 0x0 DUP1 REVERT JUMPDEST POP JUMP JUMPDEST PUSH1 0x0 DUP2 MLOAD SWAP1 POP PUSH3 0x3AB DUP2 PUSH3 0x380 JUMP JUMPDEST SWAP3 SWAP2 POP POP JUMP JUMPDEST PUSH1 0x0 DUP1 PUSH1 0x40 DUP4 DUP6 SUB SLT ISZERO PUSH3 0x3CB JUMPI PUSH3 0x3CA PUSH3 0x347 JUMP JUMPDEST JUMPDEST PUSH1 0x0 PUSH3 0x3DB DUP6 DUP3 DUP7 ADD PUSH3 0x39A JUMP JUMPDEST SWAP3 POP POP PUSH1 0x20 PUSH3 0x3EE DUP6 DUP3 DUP7 ADD PUSH3 0x39A JUMP JUMPDEST SWAP2 POP POP SWAP3 POP SWAP3 SWAP1 POP JUMP JUMPDEST PUSH1 0x80 MLOAD PUSH2 0x1C80 PUSH3 0x422 PUSH1 0x0 CODECOPY PUSH1 0x0 DUP2 DUP2 PUSH2 0x71F ADD MSTORE DUP2 DUP2 PUSH2 0x85A ADD MSTORE PUSH2 0x8F5 ADD MSTORE PUSH2 0x1C80 PUSH1 0x0 RETURN INVALID PUSH1 0x80 PUSH1 0x40 MSTORE PUSH1 0x4 CALLDATASIZE LT PUSH2 0xE1 JUMPI PUSH1 0x0 CALLDATALOAD PUSH1 0xE0 SHR DUP1 PUSH4 0x73F42561 GT PUSH2 0x7F JUMPI DUP1 PUSH4 0xA217FDDF GT PUSH2 0x59 JUMPI DUP1 PUSH4 0xA217FDDF EQ PUSH2 0x2F4 JUMPI DUP1 PUSH4 0xA6F2AE3A EQ PUSH2 0x31F JUMPI DUP1 PUSH4 0xB1AC51F8 EQ PUSH2 0x33D JUMPI DUP1 PUSH4 0xD547741F EQ PUSH2 0x368 JUMPI PUSH2 0x125 JUMP JUMPDEST DUP1 PUSH4 0x73F42561 EQ PUSH2 0x261 JUMPI DUP1 PUSH4 0x76082A5E EQ PUSH2 0x28C JUMPI DUP1 PUSH4 0x91D14854 EQ PUSH2 0x2B7 JUMPI PUSH2 0x125 JUMP JUMPDEST DUP1 PUSH4 0x2E1A7D4D GT PUSH2 0xBB JUMPI DUP1 PUSH4 0x2E1A7D4D EQ PUSH2 0x1CF JUMPI DUP1 PUSH4 0x2F2FF15D EQ PUSH2 0x1F8 JUMPI DUP1 PUSH4 0x36568ABE EQ PUSH2 0x221 JUMPI DUP1 PUSH4 0x4F248409 EQ PUSH2 0x24A JUMPI PUSH2 0x125 JUMP JUMPDEST DUP1 PUSH4 0x1FFC9A7 EQ PUSH2 0x12A JUMPI DUP1 PUSH4 0x248A9CA3 EQ PUSH2 0x167 JUMPI DUP1 PUSH4 0x282C51F3 EQ PUSH2 0x1A4 JUMPI PUSH2 0x125 JUMP JUMPDEST CALLDATASIZE PUSH2 0x125 JUMPI PUSH32 0xCF34EF537AC33EE1AC626CA1587A0A7E8E51561E5514F8CB36AFA1C5102B3BAB PUSH1 0x40 MLOAD PUSH2 0x113 SWAP1 PUSH2 0x1304 JUMP JUMPDEST PUSH1 0x40 MLOAD DUP1 SWAP2 SUB SWAP1 LOG1 PUSH2 0x123 PUSH2 0x391 JUMP JUMPDEST STOP JUMPDEST PUSH1 0x0 DUP1 REVERT JUMPDEST CALLVALUE DUP1 ISZERO PUSH2 0x136 JUMPI PUSH1 0x0 DUP1 REVERT JUMPDEST POP PUSH2 0x151 PUSH1 0x4 DUP1 CALLDATASIZE SUB DUP2 ADD SWAP1 PUSH2 0x14C SWAP2 SWAP1 PUSH2 0x1381 JUMP JUMPDEST PUSH2 0x626 JUMP JUMPDEST PUSH1 0x40 MLOAD PUSH2 0x15E SWAP2 SWAP1 PUSH2 0x13C9 JUMP JUMPDEST PUSH1 0x40 MLOAD DUP1 SWAP2 SUB SWAP1 RETURN JUMPDEST CALLVALUE DUP1 ISZERO PUSH2 0x173 JUMPI PUSH1 0x0 DUP1 REVERT JUMPDEST POP PUSH2 0x18E PUSH1 0x4 DUP1 CALLDATASIZE SUB DUP2 ADD SWAP1 PUSH2 0x189 SWAP2 SWAP1 PUSH2 0x141A JUMP JUMPDEST PUSH2 0x6A0 JUMP JUMPDEST PUSH1 0x40 MLOAD PUSH2 0x19B SWAP2 SWAP1 PUSH2 0x1456 JUMP JUMPDEST PUSH1 0x40 MLOAD DUP1 SWAP2 SUB SWAP1 RETURN JUMPDEST CALLVALUE DUP1 ISZERO PUSH2 0x1B0 JUMPI PUSH1 0x0 DUP1 REVERT JUMPDEST POP PUSH2 0x1B9 PUSH2 0x6BF JUMP JUMPDEST PUSH1 0x40 MLOAD PUSH2 0x1C6 SWAP2 SWAP1 PUSH2 0x1456 JUMP JUMPDEST PUSH1 0x40 MLOAD DUP1 SWAP2 SUB SWAP1 RETURN JUMPDEST CALLVALUE DUP1 ISZERO PUSH2 0x1DB JUMPI PUSH1 0x0 DUP1 REVERT JUMPDEST POP PUSH2 0x1F6 PUSH1 0x4 DUP1 CALLDATASIZE SUB DUP2 ADD SWAP1 PUSH2 0x1F1 SWAP2 SWAP1 PUSH2 0x14A7 JUMP JUMPDEST PUSH2 0x6E3 JUMP JUMPDEST STOP JUMPDEST CALLVALUE DUP1 ISZERO PUSH2 0x204 JUMPI PUSH1 0x0 DUP1 REVERT JUMPDEST POP PUSH2 0x21F PUSH1 0x4 DUP1 CALLDATASIZE SUB DUP2 ADD SWAP1 PUSH2 0x21A SWAP2 SWAP1 PUSH2 0x1532 JUMP JUMPDEST PUSH2 0x980 JUMP JUMPDEST STOP JUMPDEST CALLVALUE DUP1 ISZERO PUSH2 0x22D JUMPI PUSH1 0x0 DUP1 REVERT JUMPDEST POP PUSH2 0x248 PUSH1 0x4 DUP1 CALLDATASIZE SUB DUP2 ADD SWAP1 PUSH2 0x243 SWAP2 SWAP1 PUSH2 0x1532 JUMP JUMPDEST PUSH2 0x9A1 JUMP JUMPDEST STOP JUMPDEST CALLVALUE DUP1 ISZERO PUSH2 0x256 JUMPI PUSH1 0x0 DUP1 REVERT JUMPDEST POP PUSH2 0x25F PUSH2 0xA24 JUMP JUMPDEST STOP JUMPDEST CALLVALUE DUP1 ISZERO PUSH2 0x26D JUMPI PUSH1 0x0 DUP1 REVERT JUMPDEST POP PUSH2 0x276 PUSH2 0xBE0 JUMP JUMPDEST PUSH1 0x40 MLOAD PUSH2 0x283 SWAP2 SWAP1 PUSH2 0x13C9 JUMP JUMPDEST PUSH1 0x40 MLOAD DUP1 SWAP2 SUB SWAP1 RETURN JUMPDEST CALLVALUE DUP1 ISZERO PUSH2 0x298 JUMPI PUSH1 0x0 DUP1 REVERT JUMPDEST POP PUSH2 0x2A1 PUSH2 0xBF7 JUMP JUMPDEST PUSH1 0x40 MLOAD PUSH2 0x2AE SWAP2 SWAP1 PUSH2 0x1456 JUMP JUMPDEST PUSH1 0x40 MLOAD DUP1 SWAP2 SUB SWAP1 RETURN JUMPDEST CALLVALUE DUP1 ISZERO PUSH2 0x2C3 JUMPI PUSH1 0x0 DUP1 REVERT JUMPDEST POP PUSH2 0x2DE PUSH1 0x4 DUP1 CALLDATASIZE SUB DUP2 ADD SWAP1 PUSH2 0x2D9 SWAP2 SWAP1 PUSH2 0x1532 JUMP JUMPDEST PUSH2 0xC1B JUMP JUMPDEST PUSH1 0x40 MLOAD PUSH2 0x2EB SWAP2 SWAP1 PUSH2 0x13C9 JUMP JUMPDEST PUSH1 0x40 MLOAD DUP1 SWAP2 SUB SWAP1 RETURN JUMPDEST CALLVALUE DUP1 ISZERO PUSH2 0x300 JUMPI PUSH1 0x0 DUP1 REVERT JUMPDEST POP PUSH2 0x309 PUSH2 0xC85 JUMP JUMPDEST PUSH1 0x40 MLOAD PUSH2 0x316 SWAP2 SWAP1 PUSH2 0x1456 JUMP JUMPDEST PUSH1 0x40 MLOAD DUP1 SWAP2 SUB SWAP1 RETURN JUMPDEST PUSH2 0x327 PUSH2 0x391 JUMP JUMPDEST PUSH1 0x40 MLOAD PUSH2 0x334 SWAP2 SWAP1 PUSH2 0x13C9 JUMP JUMPDEST PUSH1 0x40 MLOAD DUP1 SWAP2 SUB SWAP1 RETURN JUMPDEST CALLVALUE DUP1 ISZERO PUSH2 0x349 JUMPI PUSH1 0x0 DUP1 REVERT JUMPDEST POP PUSH2 0x352 PUSH2 0xC8C JUMP JUMPDEST PUSH1 0x40 MLOAD PUSH2 0x35F SWAP2 SWAP1 PUSH2 0x1456 JUMP JUMPDEST PUSH1 0x40 MLOAD DUP1 SWAP2 SUB SWAP1 RETURN JUMPDEST CALLVALUE DUP1 ISZERO PUSH2 0x374 JUMPI PUSH1 0x0 DUP1 REVERT JUMPDEST POP PUSH2 0x38F PUSH1 0x4 DUP1 CALLDATASIZE SUB DUP2 ADD SWAP1 PUSH2 0x38A SWAP2 SWAP1 PUSH2 0x1532 JUMP JUMPDEST PUSH2 0xCB0 JUMP JUMPDEST STOP JUMPDEST PUSH1 0x0 PUSH1 0x4 SLOAD TIMESTAMP LT PUSH2 0x3D7 JUMPI PUSH1 0x40 MLOAD PUSH32 0x8C379A000000000000000000000000000000000000000000000000000000000 DUP2 MSTORE PUSH1 0x4 ADD PUSH2 0x3CE SWAP1 PUSH2 0x15BE JUMP JUMPDEST PUSH1 0x40 MLOAD DUP1 SWAP2 SUB SWAP1 REVERT JUMPDEST PUSH1 0x0 CALLVALUE GT PUSH2 0x41A JUMPI PUSH1 0x40 MLOAD PUSH32 0x8C379A000000000000000000000000000000000000000000000000000000000 DUP2 MSTORE PUSH1 0x4 ADD PUSH2 0x411 SWAP1 PUSH2 0x162A JUMP JUMPDEST PUSH1 0x40 MLOAD DUP1 SWAP2 SUB SWAP1 REVERT JUMPDEST PUSH1 0x0 PUSH2 0x425 CALLVALUE PUSH2 0xCD1 JUMP JUMPDEST SWAP1 POP PUSH1 0x6 SLOAD PUSH1 0x8 SLOAD DUP3 PUSH2 0x438 SWAP2 SWAP1 PUSH2 0x1679 JUMP JUMPDEST LT PUSH2 0x478 JUMPI PUSH1 0x40 MLOAD PUSH32 0x8C379A000000000000000000000000000000000000000000000000000000000 DUP2 MSTORE PUSH1 0x4 ADD PUSH2 0x46F SWAP1 PUSH2 0x16F9 JUMP JUMPDEST PUSH1 0x40 MLOAD DUP1 SWAP2 SUB SWAP1 REVERT JUMPDEST PUSH1 0x5 PUSH1 0x0 SWAP1 SLOAD SWAP1 PUSH2 0x100 EXP SWAP1 DIV PUSH20 0xFFFFFFFFFFFFFFFFFFFFFFFFFFFFFFFFFFFFFFFF AND PUSH20 0xFFFFFFFFFFFFFFFFFFFFFFFFFFFFFFFFFFFFFFFF AND PUSH4 0x95EA7B3 ADDRESS DUP4 PUSH1 0x40 MLOAD DUP4 PUSH4 0xFFFFFFFF AND PUSH1 0xE0 SHL DUP2 MSTORE PUSH1 0x4 ADD PUSH2 0x4D5 SWAP3 SWAP2 SWAP1 PUSH2 0x1737 JUMP JUMPDEST PUSH1 0x20 PUSH1 0x40 MLOAD DUP1 DUP4 SUB DUP2 PUSH1 0x0 DUP8 GAS CALL ISZERO DUP1 ISZERO PUSH2 0x4F4 JUMPI RETURNDATASIZE PUSH1 0x0 DUP1 RETURNDATACOPY RETURNDATASIZE PUSH1 0x0 REVERT JUMPDEST POP POP POP POP PUSH1 0x40 MLOAD RETURNDATASIZE PUSH1 0x1F NOT PUSH1 0x1F DUP3 ADD AND DUP3 ADD DUP1 PUSH1 0x40 MSTORE POP DUP2 ADD SWAP1 PUSH2 0x518 SWAP2 SWAP1 PUSH2 0x178C JUMP JUMPDEST POP PUSH1 0x5 PUSH1 0x0 SWAP1 SLOAD SWAP1 PUSH2 0x100 EXP SWAP1 DIV PUSH20 0xFFFFFFFFFFFFFFFFFFFFFFFFFFFFFFFFFFFFFFFF AND PUSH20 0xFFFFFFFFFFFFFFFFFFFFFFFFFFFFFFFFFFFFFFFF AND PUSH4 0xA9059CBB CALLER DUP4 PUSH1 0x40 MLOAD DUP4 PUSH4 0xFFFFFFFF AND PUSH1 0xE0 SHL DUP2 MSTORE PUSH1 0x4 ADD PUSH2 0x576 SWAP3 SWAP2 SWAP1 PUSH2 0x1737 JUMP JUMPDEST PUSH1 0x20 PUSH1 0x40 MLOAD DUP1 DUP4 SUB DUP2 PUSH1 0x0 DUP8 GAS CALL ISZERO DUP1 ISZERO PUSH2 0x595 JUMPI RETURNDATASIZE PUSH1 0x0 DUP1 RETURNDATACOPY RETURNDATASIZE PUSH1 0x0 REVERT JUMPDEST POP POP POP POP PUSH1 0x40 MLOAD RETURNDATASIZE PUSH1 0x1F NOT PUSH1 0x1F DUP3 ADD AND DUP3 ADD DUP1 PUSH1 0x40 MSTORE POP DUP2 ADD SWAP1 PUSH2 0x5B9 SWAP2 SWAP1 PUSH2 0x178C JUMP JUMPDEST POP PUSH1 0x8 SLOAD DUP2 PUSH2 0x5C8 SWAP2 SWAP1 PUSH2 0x1679 JUMP JUMPDEST PUSH1 0x8 DUP2 SWAP1 SSTORE POP CALLVALUE PUSH1 0x7 PUSH1 0x0 DUP3 DUP3 SLOAD PUSH2 0x5E0 SWAP2 SWAP1 PUSH2 0x1679 JUMP JUMPDEST SWAP3 POP POP DUP2 SWAP1 SSTORE POP PUSH32 0x92F64CA637D023F354075A4BE751B169C1A8A9CCB6D33CDD0CB3520543995727 DUP2 PUSH1 0x40 MLOAD PUSH2 0x616 SWAP2 SWAP1 PUSH2 0x17B9 JUMP JUMPDEST PUSH1 0x40 MLOAD DUP1 SWAP2 SUB SWAP1 LOG1 PUSH1 0x1 SWAP2 POP POP SWAP1 JUMP JUMPDEST PUSH1 0x0 PUSH32 0x7965DB0B00000000000000000000000000000000000000000000000000000000 PUSH28 0xFFFFFFFFFFFFFFFFFFFFFFFFFFFFFFFFFFFFFFFFFFFFFFFFFFFFFFFF NOT AND DUP3 PUSH28 0xFFFFFFFFFFFFFFFFFFFFFFFFFFFFFFFFFFFFFFFFFFFFFFFFFFFFFFFF NOT AND EQ DUP1 PUSH2 0x699 JUMPI POP PUSH2 0x698 DUP3 PUSH2 0xCEF JUMP JUMPDEST JUMPDEST SWAP1 POP SWAP2 SWAP1 POP JUMP JUMPDEST PUSH1 0x0 DUP1 PUSH1 0x0 DUP4 DUP2 MSTORE PUSH1 0x20 ADD SWAP1 DUP2 MSTORE PUSH1 0x20 ADD PUSH1 0x0 KECCAK256 PUSH1 0x1 ADD SLOAD SWAP1 POP SWAP2 SWAP1 POP JUMP JUMPDEST PUSH32 0x3C11D16CBAFFD01DF69CE1C404F6340EE057498F5F00246190EA54220576A848 DUP2 JUMP JUMPDEST PUSH32 0xB165298935924F540E4181C03493A5D686C54A0AAEB3F6216DE85B7FFBBA7738 PUSH2 0x70D DUP2 PUSH2 0xD59 JUMP JUMPDEST TIMESTAMP PUSH1 0x12 PUSH1 0xC SLOAD PUSH2 0x71D SWAP2 SWAP1 PUSH2 0x17D4 JUMP JUMPDEST PUSH32 0x0 PUSH2 0x748 SWAP2 SWAP1 PUSH2 0x1679 JUMP JUMPDEST GT ISZERO PUSH2 0x849 JUMPI PUSH1 0x0 PUSH2 0x759 DUP4 PUSH2 0xD6D JUMP JUMPDEST SWAP1 POP PUSH1 0x5 PUSH1 0x0 SWAP1 SLOAD SWAP1 PUSH2 0x100 EXP SWAP1 DIV PUSH20 0xFFFFFFFFFFFFFFFFFFFFFFFFFFFFFFFFFFFFFFFF AND PUSH20 0xFFFFFFFFFFFFFFFFFFFFFFFFFFFFFFFFFFFFFFFF AND PUSH4 0x95EA7B3 ADDRESS DUP4 PUSH1 0x40 MLOAD DUP4 PUSH4 0xFFFFFFFF AND PUSH1 0xE0 SHL DUP2 MSTORE PUSH1 0x4 ADD PUSH2 0x7B8 SWAP3 SWAP2 SWAP1 PUSH2 0x1737 JUMP JUMPDEST PUSH1 0x20 PUSH1 0x40 MLOAD DUP1 DUP4 SUB DUP2 PUSH1 0x0 DUP8 GAS CALL ISZERO DUP1 ISZERO PUSH2 0x7D7 JUMPI RETURNDATASIZE PUSH1 0x0 DUP1 RETURNDATACOPY RETURNDATASIZE PUSH1 0x0 REVERT JUMPDEST POP POP POP POP PUSH1 0x40 MLOAD RETURNDATASIZE PUSH1 0x1F NOT PUSH1 0x1F DUP3 ADD AND DUP3 ADD DUP1 PUSH1 0x40 MSTORE POP DUP2 ADD SWAP1 PUSH2 0x7FB SWAP2 SWAP1 PUSH2 0x178C JUMP JUMPDEST POP CALLER PUSH20 0xFFFFFFFFFFFFFFFFFFFFFFFFFFFFFFFFFFFFFFFF AND PUSH2 0x8FC DUP3 SWAP1 DUP2 ISZERO MUL SWAP1 PUSH1 0x40 MLOAD PUSH1 0x0 PUSH1 0x40 MLOAD DUP1 DUP4 SUB DUP2 DUP6 DUP9 DUP9 CALL SWAP4 POP POP POP POP ISZERO DUP1 ISZERO PUSH2 0x842 JUMPI RETURNDATASIZE PUSH1 0x0 DUP1 RETURNDATACOPY RETURNDATASIZE PUSH1 0x0 REVERT JUMPDEST POP POP PUSH2 0x97C JUMP JUMPDEST TIMESTAMP PUSH1 0xC DUP1 SLOAD PUSH2 0x858 SWAP2 SWAP1 PUSH2 0x17D4 JUMP JUMPDEST PUSH32 0x0 PUSH2 0x883 SWAP2 SWAP1 PUSH2 0x1679 JUMP JUMPDEST GT ISZERO PUSH2 0x8E3 JUMPI PUSH1 0x0 PUSH2 0x894 DUP4 PUSH2 0xD6D JUMP JUMPDEST SWAP1 POP CALLER PUSH20 0xFFFFFFFFFFFFFFFFFFFFFFFFFFFFFFFFFFFFFFFF AND PUSH2 0x8FC DUP3 SWAP1 DUP2 ISZERO MUL SWAP1 PUSH1 0x40 MLOAD PUSH1 0x0 PUSH1 0x40 MLOAD DUP1 DUP4 SUB DUP2 DUP6 DUP9 DUP9 CALL SWAP4 POP POP POP POP ISZERO DUP1 ISZERO PUSH2 0x8DC JUMPI RETURNDATASIZE PUSH1 0x0 DUP1 RETURNDATACOPY RETURNDATASIZE PUSH1 0x0 REVERT JUMPDEST POP POP PUSH2 0x97B JUMP JUMPDEST TIMESTAMP PUSH1 0x6 PUSH1 0xC SLOAD PUSH2 0x8F3 SWAP2 SWAP1 PUSH2 0x17D4 JUMP JUMPDEST PUSH32 0x0 PUSH2 0x91E SWAP2 SWAP1 PUSH2 0x1679 JUMP JUMPDEST GT ISZERO PUSH2 0x97A JUMPI PUSH1 0x0 PUSH2 0x92F DUP4 PUSH2 0xD6D JUMP JUMPDEST SWAP1 POP CALLER PUSH20 0xFFFFFFFFFFFFFFFFFFFFFFFFFFFFFFFFFFFFFFFF AND PUSH2 0x8FC DUP3 SWAP1 DUP2 ISZERO MUL SWAP1 PUSH1 0x40 MLOAD PUSH1 0x0 PUSH1 0x40 MLOAD DUP1 DUP4 SUB DUP2 DUP6 DUP9 DUP9 CALL SWAP4 POP POP POP POP ISZERO DUP1 ISZERO PUSH2 0x977 JUMPI RETURNDATASIZE PUSH1 0x0 DUP1 RETURNDATACOPY RETURNDATASIZE PUSH1 0x0 REVERT JUMPDEST POP POP JUMPDEST JUMPDEST JUMPDEST POP POP JUMP JUMPDEST PUSH2 0x989 DUP3 PUSH2 0x6A0 JUMP JUMPDEST PUSH2 0x992 DUP2 PUSH2 0xD59 JUMP JUMPDEST PUSH2 0x99C DUP4 DUP4 PUSH2 0xD90 JUMP JUMPDEST POP POP POP JUMP JUMPDEST PUSH2 0x9A9 PUSH2 0xE70 JUMP JUMPDEST PUSH20 0xFFFFFFFFFFFFFFFFFFFFFFFFFFFFFFFFFFFFFFFF AND DUP2 PUSH20 0xFFFFFFFFFFFFFFFFFFFFFFFFFFFFFFFFFFFFFFFF AND EQ PUSH2 0xA16 JUMPI PUSH1 0x40 MLOAD PUSH32 0x8C379A000000000000000000000000000000000000000000000000000000000 DUP2 MSTORE PUSH1 0x4 ADD PUSH2 0xA0D SWAP1 PUSH2 0x1888 JUMP JUMPDEST PUSH1 0x40 MLOAD DUP1 SWAP2 SUB SWAP1 REVERT JUMPDEST PUSH2 0xA20 DUP3 DUP3 PUSH2 0xE78 JUMP JUMPDEST POP POP JUMP JUMPDEST PUSH1 0x4 SLOAD TIMESTAMP LT PUSH2 0xA68 JUMPI PUSH1 0x40 MLOAD PUSH32 0x8C379A000000000000000000000000000000000000000000000000000000000 DUP2 MSTORE PUSH1 0x4 ADD PUSH2 0xA5F SWAP1 PUSH2 0x15BE JUMP JUMPDEST PUSH1 0x40 MLOAD DUP1 SWAP2 SUB SWAP1 REVERT JUMPDEST PUSH32 0x3C11D16CBAFFD01DF69CE1C404F6340EE057498F5F00246190EA54220576A848 PUSH2 0xA92 DUP2 PUSH2 0xD59 JUMP JUMPDEST PUSH1 0xB PUSH1 0x0 SWAP1 SLOAD SWAP1 PUSH2 0x100 EXP SWAP1 DIV PUSH1 0xFF AND ISZERO PUSH2 0xAE2 JUMPI PUSH1 0x40 MLOAD PUSH32 0x8C379A000000000000000000000000000000000000000000000000000000000 DUP2 MSTORE PUSH1 0x4 ADD PUSH2 0xAD9 SWAP1 PUSH2 0x18F4 JUMP JUMPDEST PUSH1 0x40 MLOAD DUP1 SWAP2 SUB SWAP1 REVERT JUMPDEST PUSH1 0x0 PUSH2 0xAFB PUSH1 0x8 SLOAD PUSH1 0x6 SLOAD PUSH2 0xF59 SWAP1 SWAP2 SWAP1 PUSH4 0xFFFFFFFF AND JUMP JUMPDEST SWAP1 POP PUSH1 0x5 PUSH1 0x0 SWAP1 SLOAD SWAP1 PUSH2 0x100 EXP SWAP1 DIV PUSH20 0xFFFFFFFFFFFFFFFFFFFFFFFFFFFFFFFFFFFFFFFF AND PUSH20 0xFFFFFFFFFFFFFFFFFFFFFFFFFFFFFFFFFFFFFFFF AND PUSH4 0x42966C68 DUP3 PUSH1 0x40 MLOAD DUP3 PUSH4 0xFFFFFFFF AND PUSH1 0xE0 SHL DUP2 MSTORE PUSH1 0x4 ADD PUSH2 0xB58 SWAP2 SWAP1 PUSH2 0x17B9 JUMP JUMPDEST PUSH1 0x0 PUSH1 0x40 MLOAD DUP1 DUP4 SUB DUP2 PUSH1 0x0 DUP8 DUP1 EXTCODESIZE ISZERO DUP1 ISZERO PUSH2 0xB72 JUMPI PUSH1 0x0 DUP1 REVERT JUMPDEST POP GAS CALL ISZERO DUP1 ISZERO PUSH2 0xB86 JUMPI RETURNDATASIZE PUSH1 0x0 DUP1 RETURNDATACOPY RETURNDATASIZE PUSH1 0x0 REVERT JUMPDEST POP POP POP POP PUSH32 0xD83C63197E8E676D80AB0122BEBA9A9D20F3828839E9A1D6FE81D242E9CD7E6E DUP2 PUSH1 0x40 MLOAD PUSH2 0xBB9 SWAP2 SWAP1 PUSH2 0x17B9 JUMP JUMPDEST PUSH1 0x40 MLOAD DUP1 SWAP2 SUB SWAP1 LOG1 POP PUSH1 0x1 PUSH1 0xB PUSH1 0x0 PUSH2 0x100 EXP DUP2 SLOAD DUP2 PUSH1 0xFF MUL NOT AND SWAP1 DUP4 ISZERO ISZERO MUL OR SWAP1 SSTORE POP POP JUMP JUMPDEST PUSH1 0x0 PUSH1 0xB PUSH1 0x0 SWAP1 SLOAD SWAP1 PUSH2 0x100 EXP SWAP1 DIV PUSH1 0xFF AND SWAP1 POP SWAP1 JUMP JUMPDEST PUSH32 0xB165298935924F540E4181C03493A5D686C54A0AAEB3F6216DE85B7FFBBA7738 DUP2 JUMP JUMPDEST PUSH1 0x0 DUP1 PUSH1 0x0 DUP5 DUP2 MSTORE PUSH1 0x20 ADD SWAP1 DUP2 MSTORE PUSH1 0x20 ADD PUSH1 0x0 KECCAK256 PUSH1 0x0 ADD PUSH1 0x0 DUP4 PUSH20 0xFFFFFFFFFFFFFFFFFFFFFFFFFFFFFFFFFFFFFFFF AND PUSH20 0xFFFFFFFFFFFFFFFFFFFFFFFFFFFFFFFFFFFFFFFF AND DUP2 MSTORE PUSH1 0x20 ADD SWAP1 DUP2 MSTORE PUSH1 0x20 ADD PUSH1 0x0 KECCAK256 PUSH1 0x0 SWAP1 SLOAD SWAP1 PUSH2 0x100 EXP SWAP1 DIV PUSH1 0xFF AND SWAP1 POP SWAP3 SWAP2 POP POP JUMP JUMPDEST PUSH1 0x0 DUP1 SHL DUP2 JUMP JUMPDEST PUSH32 0x305786AB5904B5BB20FE6D91992844B39D648CDCB82F328EDC2D6A80BFBB3289 DUP2 JUMP JUMPDEST PUSH2 0xCB9 DUP3 PUSH2 0x6A0 JUMP JUMPDEST PUSH2 0xCC2 DUP2 PUSH2 0xD59 JUMP JUMPDEST PUSH2 0xCCC DUP4 DUP4 PUSH2 0xE78 JUMP JUMPDEST POP POP POP JUMP JUMPDEST PUSH1 0x0 PUSH2 0xCE8 PUSH1 0x9 SLOAD DUP4 PUSH2 0xF6F SWAP1 SWAP2 SWAP1 PUSH4 0xFFFFFFFF AND JUMP JUMPDEST SWAP1 POP SWAP2 SWAP1 POP JUMP JUMPDEST PUSH1 0x0 PUSH32 0x1FFC9A700000000000000000000000000000000000000000000000000000000 PUSH28 0xFFFFFFFFFFFFFFFFFFFFFFFFFFFFFFFFFFFFFFFFFFFFFFFFFFFFFFFF NOT AND DUP3 PUSH28 0xFFFFFFFFFFFFFFFFFFFFFFFFFFFFFFFFFFFFFFFFFFFFFFFFFFFFFFFF NOT AND EQ SWAP1 POP SWAP2 SWAP1 POP JUMP JUMPDEST PUSH2 0xD6A DUP2 PUSH2 0xD65 PUSH2 0xE70 JUMP JUMPDEST PUSH2 0xF85 JUMP JUMPDEST POP JUMP JUMPDEST PUSH1 0x0 PUSH2 0xD89 PUSH2 0xD7A PUSH2 0x100A JUMP JUMPDEST DUP4 PUSH2 0xF6F SWAP1 SWAP2 SWAP1 PUSH4 0xFFFFFFFF AND JUMP JUMPDEST SWAP1 POP SWAP2 SWAP1 POP JUMP JUMPDEST PUSH2 0xD9A DUP3 DUP3 PUSH2 0xC1B JUMP JUMPDEST PUSH2 0xE6C JUMPI PUSH1 0x1 PUSH1 0x0 DUP1 DUP5 DUP2 MSTORE PUSH1 0x20 ADD SWAP1 DUP2 MSTORE PUSH1 0x20 ADD PUSH1 0x0 KECCAK256 PUSH1 0x0 ADD PUSH1 0x0 DUP4 PUSH20 0xFFFFFFFFFFFFFFFFFFFFFFFFFFFFFFFFFFFFFFFF AND PUSH20 0xFFFFFFFFFFFFFFFFFFFFFFFFFFFFFFFFFFFFFFFF AND DUP2 MSTORE PUSH1 0x20 ADD SWAP1 DUP2 MSTORE PUSH1 0x20 ADD PUSH1 0x0 KECCAK256 PUSH1 0x0 PUSH2 0x100 EXP DUP2 SLOAD DUP2 PUSH1 0xFF MUL NOT AND SWAP1 DUP4 ISZERO ISZERO MUL OR SWAP1 SSTORE POP PUSH2 0xE11 PUSH2 0xE70 JUMP JUMPDEST PUSH20 0xFFFFFFFFFFFFFFFFFFFFFFFFFFFFFFFFFFFFFFFF AND DUP2 PUSH20 0xFFFFFFFFFFFFFFFFFFFFFFFFFFFFFFFFFFFFFFFF AND DUP4 PUSH32 0x2F8788117E7EFF1D82E926EC794901D17C78024A50270940304540A733656F0D PUSH1 0x40 MLOAD PUSH1 0x40 MLOAD DUP1 SWAP2 SUB SWAP1 LOG4 JUMPDEST POP POP JUMP JUMPDEST PUSH1 0x0 CALLER SWAP1 POP SWAP1 JUMP JUMPDEST PUSH2 0xE82 DUP3 DUP3 PUSH2 0xC1B JUMP JUMPDEST ISZERO PUSH2 0xF55 JUMPI PUSH1 0x0 DUP1 PUSH1 0x0 DUP5 DUP2 MSTORE PUSH1 0x20 ADD SWAP1 DUP2 MSTORE PUSH1 0x20 ADD PUSH1 0x0 KECCAK256 PUSH1 0x0 ADD PUSH1 0x0 DUP4 PUSH20 0xFFFFFFFFFFFFFFFFFFFFFFFFFFFFFFFFFFFFFFFF AND PUSH20 0xFFFFFFFFFFFFFFFFFFFFFFFFFFFFFFFFFFFFFFFF AND DUP2 MSTORE PUSH1 0x20 ADD SWAP1 DUP2 MSTORE PUSH1 0x20 ADD PUSH1 0x0 KECCAK256 PUSH1 0x0 PUSH2 0x100 EXP DUP2 SLOAD DUP2 PUSH1 0xFF MUL NOT AND SWAP1 DUP4 ISZERO ISZERO MUL OR SWAP1 SSTORE POP PUSH2 0xEFA PUSH2 0xE70 JUMP JUMPDEST PUSH20 0xFFFFFFFFFFFFFFFFFFFFFFFFFFFFFFFFFFFFFFFF AND DUP2 PUSH20 0xFFFFFFFFFFFFFFFFFFFFFFFFFFFFFFFFFFFFFFFF AND DUP4 PUSH32 0xF6391F5C32D9C69D2A47EA670B442974B53935D1EDC7FD64EB21E047A839171B PUSH1 0x40 MLOAD PUSH1 0x40 MLOAD DUP1 SWAP2 SUB SWAP1 LOG4 JUMPDEST POP POP JUMP JUMPDEST PUSH1 0x0 DUP2 DUP4 PUSH2 0xF67 SWAP2 SWAP1 PUSH2 0x1914 JUMP JUMPDEST SWAP1 POP SWAP3 SWAP2 POP POP JUMP JUMPDEST PUSH1 0x0 DUP2 DUP4 PUSH2 0xF7D SWAP2 SWAP1 PUSH2 0x17D4 JUMP JUMPDEST SWAP1 POP SWAP3 SWAP2 POP POP JUMP JUMPDEST PUSH2 0xF8F DUP3 DUP3 PUSH2 0xC1B JUMP JUMPDEST PUSH2 0x1006 JUMPI PUSH2 0xF9C DUP2 PUSH2 0x1028 JUMP JUMPDEST PUSH2 0xFAA DUP4 PUSH1 0x0 SHR PUSH1 0x20 PUSH2 0x1055 JUMP JUMPDEST PUSH1 0x40 MLOAD PUSH1 0x20 ADD PUSH2 0xFBB SWAP3 SWAP2 SWAP1 PUSH2 0x1A51 JUMP JUMPDEST PUSH1 0x40 MLOAD PUSH1 0x20 DUP2 DUP4 SUB SUB DUP2 MSTORE SWAP1 PUSH1 0x40 MSTORE PUSH1 0x40 MLOAD PUSH32 0x8C379A000000000000000000000000000000000000000000000000000000000 DUP2 MSTORE PUSH1 0x4 ADD PUSH2 0xFFD SWAP2 SWAP1 PUSH2 0x1AD5 JUMP JUMPDEST PUSH1 0x40 MLOAD DUP1 SWAP2 SUB SWAP1 REVERT JUMPDEST POP POP JUMP JUMPDEST PUSH1 0x0 PUSH2 0x1023 PUSH1 0x6 SLOAD PUSH1 0x8 SLOAD PUSH2 0x1291 SWAP1 SWAP2 SWAP1 PUSH4 0xFFFFFFFF AND JUMP JUMPDEST SWAP1 POP SWAP1 JUMP JUMPDEST PUSH1 0x60 PUSH2 0x104E DUP3 PUSH20 0xFFFFFFFFFFFFFFFFFFFFFFFFFFFFFFFFFFFFFFFF AND PUSH1 0x14 PUSH1 0xFF AND PUSH2 0x1055 JUMP JUMPDEST SWAP1 POP SWAP2 SWAP1 POP JUMP JUMPDEST PUSH1 0x60 PUSH1 0x0 PUSH1 0x2 DUP4 PUSH1 0x2 PUSH2 0x1068 SWAP2 SWAP1 PUSH2 0x17D4 JUMP JUMPDEST PUSH2 0x1072 SWAP2 SWAP1 PUSH2 0x1679 JUMP JUMPDEST PUSH8 0xFFFFFFFFFFFFFFFF DUP2 GT ISZERO PUSH2 0x108B JUMPI PUSH2 0x108A PUSH2 0x1AF7 JUMP JUMPDEST JUMPDEST PUSH1 0x40 MLOAD SWAP1 DUP1 DUP3 MSTORE DUP1 PUSH1 0x1F ADD PUSH1 0x1F NOT AND PUSH1 0x20 ADD DUP3 ADD PUSH1 0x40 MSTORE DUP1 ISZERO PUSH2 0x10BD JUMPI DUP2 PUSH1 0x20 ADD PUSH1 0x1 DUP3 MUL DUP1 CALLDATASIZE DUP4 CALLDATACOPY DUP1 DUP3 ADD SWAP2 POP POP SWAP1 POP JUMPDEST POP SWAP1 POP PUSH32 0x3000000000000000000000000000000000000000000000000000000000000000 DUP2 PUSH1 0x0 DUP2 MLOAD DUP2 LT PUSH2 0x10F5 JUMPI PUSH2 0x10F4 PUSH2 0x1B26 JUMP JUMPDEST JUMPDEST PUSH1 0x20 ADD ADD SWAP1 PUSH31 0xFFFFFFFFFFFFFFFFFFFFFFFFFFFFFFFFFFFFFFFFFFFFFFFFFFFFFFFFFFFFFF NOT AND SWAP1 DUP2 PUSH1 0x0 BYTE SWAP1 MSTORE8 POP PUSH32 0x7800000000000000000000000000000000000000000000000000000000000000 DUP2 PUSH1 0x1 DUP2 MLOAD DUP2 LT PUSH2 0x1159 JUMPI PUSH2 0x1158 PUSH2 0x1B26 JUMP JUMPDEST JUMPDEST PUSH1 0x20 ADD ADD SWAP1 PUSH31 0xFFFFFFFFFFFFFFFFFFFFFFFFFFFFFFFFFFFFFFFFFFFFFFFFFFFFFFFFFFFFFF NOT AND SWAP1 DUP2 PUSH1 0x0 BYTE SWAP1 MSTORE8 POP PUSH1 0x0 PUSH1 0x1 DUP5 PUSH1 0x2 PUSH2 0x1199 SWAP2 SWAP1 PUSH2 0x17D4 JUMP JUMPDEST PUSH2 0x11A3 SWAP2 SWAP1 PUSH2 0x1679 JUMP JUMPDEST SWAP1 POP JUMPDEST PUSH1 0x1 DUP2 GT ISZERO PUSH2 0x1243 JUMPI PUSH32 0x3031323334353637383961626364656600000000000000000000000000000000 PUSH1 0xF DUP7 AND PUSH1 0x10 DUP2 LT PUSH2 0x11E5 JUMPI PUSH2 0x11E4 PUSH2 0x1B26 JUMP JUMPDEST JUMPDEST BYTE PUSH1 0xF8 SHL DUP3 DUP3 DUP2 MLOAD DUP2 LT PUSH2 0x11FC JUMPI PUSH2 0x11FB PUSH2 0x1B26 JUMP JUMPDEST JUMPDEST PUSH1 0x20 ADD ADD SWAP1 PUSH31 0xFFFFFFFFFFFFFFFFFFFFFFFFFFFFFFFFFFFFFFFFFFFFFFFFFFFFFFFFFFFFFF NOT AND SWAP1 DUP2 PUSH1 0x0 BYTE SWAP1 MSTORE8 POP PUSH1 0x4 DUP6 SWAP1 SHR SWAP5 POP DUP1 PUSH2 0x123C SWAP1 PUSH2 0x1B55 JUMP JUMPDEST SWAP1 POP PUSH2 0x11A6 JUMP JUMPDEST POP PUSH1 0x0 DUP5 EQ PUSH2 0x1287 JUMPI PUSH1 0x40 MLOAD PUSH32 0x8C379A000000000000000000000000000000000000000000000000000000000 DUP2 MSTORE PUSH1 0x4 ADD PUSH2 0x127E SWAP1 PUSH2 0x1BCA JUMP JUMPDEST PUSH1 0x40 MLOAD DUP1 SWAP2 SUB SWAP1 REVERT JUMPDEST DUP1 SWAP2 POP POP SWAP3 SWAP2 POP POP JUMP JUMPDEST PUSH1 0x0 DUP2 DUP4 PUSH2 0x129F SWAP2 SWAP1 PUSH2 0x1C19 JUMP JUMPDEST SWAP1 POP SWAP3 SWAP2 POP POP JUMP JUMPDEST PUSH1 0x0 DUP3 DUP3 MSTORE PUSH1 0x20 DUP3 ADD SWAP1 POP SWAP3 SWAP2 POP POP JUMP JUMPDEST PUSH32 0x66616C6C6261636B206869740000000000000000000000000000000000000000 PUSH1 0x0 DUP3 ADD MSTORE POP JUMP JUMPDEST PUSH1 0x0 PUSH2 0x12EE PUSH1 0xC DUP4 PUSH2 0x12A7 JUMP JUMPDEST SWAP2 POP PUSH2 0x12F9 DUP3 PUSH2 0x12B8 JUMP JUMPDEST PUSH1 0x20 DUP3 ADD SWAP1 POP SWAP2 SWAP1 POP JUMP JUMPDEST PUSH1 0x0 PUSH1 0x20 DUP3 ADD SWAP1 POP DUP2 DUP2 SUB PUSH1 0x0 DUP4 ADD MSTORE PUSH2 0x131D DUP2 PUSH2 0x12E1 JUMP JUMPDEST SWAP1 POP SWAP2 SWAP1 POP JUMP JUMPDEST PUSH1 0x0 DUP1 REVERT JUMPDEST PUSH1 0x0 PUSH32 0xFFFFFFFF00000000000000000000000000000000000000000000000000000000 DUP3 AND SWAP1 POP SWAP2 SWAP1 POP JUMP JUMPDEST PUSH2 0x135E DUP2 PUSH2 0x1329 JUMP JUMPDEST DUP2 EQ PUSH2 0x1369 JUMPI PUSH1 0x0 DUP1 REVERT JUMPDEST POP JUMP JUMPDEST PUSH1 0x0 DUP2 CALLDATALOAD SWAP1 POP PUSH2 0x137B DUP2 PUSH2 0x1355 JUMP JUMPDEST SWAP3 SWAP2 POP POP JUMP JUMPDEST PUSH1 0x0 PUSH1 0x20 DUP3 DUP5 SUB SLT ISZERO PUSH2 0x1397 JUMPI PUSH2 0x1396 PUSH2 0x1324 JUMP JUMPDEST JUMPDEST PUSH1 0x0 PUSH2 0x13A5 DUP5 DUP3 DUP6 ADD PUSH2 0x136C JUMP JUMPDEST SWAP2 POP POP SWAP3 SWAP2 POP POP JUMP JUMPDEST PUSH1 0x0 DUP2 ISZERO ISZERO SWAP1 POP SWAP2 SWAP1 POP JUMP JUMPDEST PUSH2 0x13C3 DUP2 PUSH2 0x13AE JUMP JUMPDEST DUP3 MSTORE POP POP JUMP JUMPDEST PUSH1 0x0 PUSH1 0x20 DUP3 ADD SWAP1 POP PUSH2 0x13DE PUSH1 0x0 DUP4 ADD DUP5 PUSH2 0x13BA JUMP JUMPDEST SWAP3 SWAP2 POP POP JUMP JUMPDEST PUSH1 0x0 DUP2 SWAP1 POP SWAP2 SWAP1 POP JUMP JUMPDEST PUSH2 0x13F7 DUP2 PUSH2 0x13E4 JUMP JUMPDEST DUP2 EQ PUSH2 0x1402 JUMPI PUSH1 0x0 DUP1 REVERT JUMPDEST POP JUMP JUMPDEST PUSH1 0x0 DUP2 CALLDATALOAD SWAP1 POP PUSH2 0x1414 DUP2 PUSH2 0x13EE JUMP JUMPDEST SWAP3 SWAP2 POP POP JUMP JUMPDEST PUSH1 0x0 PUSH1 0x20 DUP3 DUP5 SUB SLT ISZERO PUSH2 0x1430 JUMPI PUSH2 0x142F PUSH2 0x1324 JUMP JUMPDEST JUMPDEST PUSH1 0x0 PUSH2 0x143E DUP5 DUP3 DUP6 ADD PUSH2 0x1405 JUMP JUMPDEST SWAP2 POP POP SWAP3 SWAP2 POP POP JUMP JUMPDEST PUSH2 0x1450 DUP2 PUSH2 0x13E4 JUMP JUMPDEST DUP3 MSTORE POP POP JUMP JUMPDEST PUSH1 0x0 PUSH1 0x20 DUP3 ADD SWAP1 POP PUSH2 0x146B PUSH1 0x0 DUP4 ADD DUP5 PUSH2 0x1447 JUMP JUMPDEST SWAP3 SWAP2 POP POP JUMP JUMPDEST PUSH1 0x0 DUP2 SWAP1 POP SWAP2 SWAP1 POP JUMP JUMPDEST PUSH2 0x1484 DUP2 PUSH2 0x1471 JUMP JUMPDEST DUP2 EQ PUSH2 0x148F JUMPI PUSH1 0x0 DUP1 REVERT JUMPDEST POP JUMP JUMPDEST PUSH1 0x0 DUP2 CALLDATALOAD SWAP1 POP PUSH2 0x14A1 DUP2 PUSH2 0x147B JUMP JUMPDEST SWAP3 SWAP2 POP POP JUMP JUMPDEST PUSH1 0x0 PUSH1 0x20 DUP3 DUP5 SUB SLT ISZERO PUSH2 0x14BD JUMPI PUSH2 0x14BC PUSH2 0x1324 JUMP JUMPDEST JUMPDEST PUSH1 0x0 PUSH2 0x14CB DUP5 DUP3 DUP6 ADD PUSH2 0x1492 JUMP JUMPDEST SWAP2 POP POP SWAP3 SWAP2 POP POP JUMP JUMPDEST PUSH1 0x0 PUSH20 0xFFFFFFFFFFFFFFFFFFFFFFFFFFFFFFFFFFFFFFFF DUP3 AND SWAP1 POP SWAP2 SWAP1 POP JUMP JUMPDEST PUSH1 0x0 PUSH2 0x14FF DUP3 PUSH2 0x14D4 JUMP JUMPDEST SWAP1 POP SWAP2 SWAP1 POP JUMP JUMPDEST PUSH2 0x150F DUP2 PUSH2 0x14F4 JUMP JUMPDEST DUP2 EQ PUSH2 0x151A JUMPI PUSH1 0x0 DUP1 REVERT JUMPDEST POP JUMP JUMPDEST PUSH1 0x0 DUP2 CALLDATALOAD SWAP1 POP PUSH2 0x152C DUP2 PUSH2 0x1506 JUMP JUMPDEST SWAP3 SWAP2 POP POP JUMP JUMPDEST PUSH1 0x0 DUP1 PUSH1 0x40 DUP4 DUP6 SUB SLT ISZERO PUSH2 0x1549 JUMPI PUSH2 0x1548 PUSH2 0x1324 JUMP JUMPDEST JUMPDEST PUSH1 0x0 PUSH2 0x1557 DUP6 DUP3 DUP7 ADD PUSH2 0x1405 JUMP JUMPDEST SWAP3 POP POP PUSH1 0x20 PUSH2 0x1568 DUP6 DUP3 DUP7 ADD PUSH2 0x151D JUMP JUMPDEST SWAP2 POP POP SWAP3 POP SWAP3 SWAP1 POP JUMP JUMPDEST PUSH32 0x49434F206973206F766572203A28200000000000000000000000000000000000 PUSH1 0x0 DUP3 ADD MSTORE POP JUMP JUMPDEST PUSH1 0x0 PUSH2 0x15A8 PUSH1 0xF DUP4 PUSH2 0x12A7 JUMP JUMPDEST SWAP2 POP PUSH2 0x15B3 DUP3 PUSH2 0x1572 JUMP JUMPDEST PUSH1 0x20 DUP3 ADD SWAP1 POP SWAP2 SWAP1 POP JUMP JUMPDEST PUSH1 0x0 PUSH1 0x20 DUP3 ADD SWAP1 POP DUP2 DUP2 SUB PUSH1 0x0 DUP4 ADD MSTORE PUSH2 0x15D7 DUP2 PUSH2 0x159B JUMP JUMPDEST SWAP1 POP SWAP2 SWAP1 POP JUMP JUMPDEST PUSH32 0x20706C656173652073656E64206D657469730000000000000000000000000000 PUSH1 0x0 DUP3 ADD MSTORE POP JUMP JUMPDEST PUSH1 0x0 PUSH2 0x1614 PUSH1 0x12 DUP4 PUSH2 0x12A7 JUMP JUMPDEST SWAP2 POP PUSH2 0x161F DUP3 PUSH2 0x15DE JUMP JUMPDEST PUSH1 0x20 DUP3 ADD SWAP1 POP SWAP2 SWAP1 POP JUMP JUMPDEST PUSH1 0x0 PUSH1 0x20 DUP3 ADD SWAP1 POP DUP2 DUP2 SUB PUSH1 0x0 DUP4 ADD MSTORE PUSH2 0x1643 DUP2 PUSH2 0x1607 JUMP JUMPDEST SWAP1 POP SWAP2 SWAP1 POP JUMP JUMPDEST PUSH32 0x4E487B7100000000000000000000000000000000000000000000000000000000 PUSH1 0x0 MSTORE PUSH1 0x11 PUSH1 0x4 MSTORE PUSH1 0x24 PUSH1 0x0 REVERT JUMPDEST PUSH1 0x0 PUSH2 0x1684 DUP3 PUSH2 0x1471 JUMP JUMPDEST SWAP2 POP PUSH2 0x168F DUP4 PUSH2 0x1471 JUMP JUMPDEST SWAP3 POP DUP3 DUP3 ADD SWAP1 POP DUP1 DUP3 GT ISZERO PUSH2 0x16A7 JUMPI PUSH2 0x16A6 PUSH2 0x164A JUMP JUMPDEST JUMPDEST SWAP3 SWAP2 POP POP JUMP JUMPDEST PUSH32 0x657863656564732074686520746F74616C20666F722073616C65000000000000 PUSH1 0x0 DUP3 ADD MSTORE POP JUMP JUMPDEST PUSH1 0x0 PUSH2 0x16E3 PUSH1 0x1A DUP4 PUSH2 0x12A7 JUMP JUMPDEST SWAP2 POP PUSH2 0x16EE DUP3 PUSH2 0x16AD JUMP JUMPDEST PUSH1 0x20 DUP3 ADD SWAP1 POP SWAP2 SWAP1 POP JUMP JUMPDEST PUSH1 0x0 PUSH1 0x20 DUP3 ADD SWAP1 POP DUP2 DUP2 SUB PUSH1 0x0 DUP4 ADD MSTORE PUSH2 0x1712 DUP2 PUSH2 0x16D6 JUMP JUMPDEST SWAP1 POP SWAP2 SWAP1 POP JUMP JUMPDEST PUSH2 0x1722 DUP2 PUSH2 0x14F4 JUMP JUMPDEST DUP3 MSTORE POP POP JUMP JUMPDEST PUSH2 0x1731 DUP2 PUSH2 0x1471 JUMP JUMPDEST DUP3 MSTORE POP POP JUMP JUMPDEST PUSH1 0x0 PUSH1 0x40 DUP3 ADD SWAP1 POP PUSH2 0x174C PUSH1 0x0 DUP4 ADD DUP6 PUSH2 0x1719 JUMP JUMPDEST PUSH2 0x1759 PUSH1 0x20 DUP4 ADD DUP5 PUSH2 0x1728 JUMP JUMPDEST SWAP4 SWAP3 POP POP POP JUMP JUMPDEST PUSH2 0x1769 DUP2 PUSH2 0x13AE JUMP JUMPDEST DUP2 EQ PUSH2 0x1774 JUMPI PUSH1 0x0 DUP1 REVERT JUMPDEST POP JUMP JUMPDEST PUSH1 0x0 DUP2 MLOAD SWAP1 POP PUSH2 0x1786 DUP2 PUSH2 0x1760 JUMP JUMPDEST SWAP3 SWAP2 POP POP JUMP JUMPDEST PUSH1 0x0 PUSH1 0x20 DUP3 DUP5 SUB SLT ISZERO PUSH2 0x17A2 JUMPI PUSH2 0x17A1 PUSH2 0x1324 JUMP JUMPDEST JUMPDEST PUSH1 0x0 PUSH2 0x17B0 DUP5 DUP3 DUP6 ADD PUSH2 0x1777 JUMP JUMPDEST SWAP2 POP POP SWAP3 SWAP2 POP POP JUMP JUMPDEST PUSH1 0x0 PUSH1 0x20 DUP3 ADD SWAP1 POP PUSH2 0x17CE PUSH1 0x0 DUP4 ADD DUP5 PUSH2 0x1728 JUMP JUMPDEST SWAP3 SWAP2 POP POP JUMP JUMPDEST PUSH1 0x0 PUSH2 0x17DF DUP3 PUSH2 0x1471 JUMP JUMPDEST SWAP2 POP PUSH2 0x17EA DUP4 PUSH2 0x1471 JUMP JUMPDEST SWAP3 POP DUP3 DUP3 MUL PUSH2 0x17F8 DUP2 PUSH2 0x1471 JUMP JUMPDEST SWAP2 POP DUP3 DUP3 DIV DUP5 EQ DUP4 ISZERO OR PUSH2 0x180F JUMPI PUSH2 0x180E PUSH2 0x164A JUMP JUMPDEST JUMPDEST POP SWAP3 SWAP2 POP POP JUMP JUMPDEST PUSH32 0x416363657373436F6E74726F6C3A2063616E206F6E6C792072656E6F756E6365 PUSH1 0x0 DUP3 ADD MSTORE PUSH32 0x20726F6C657320666F722073656C660000000000000000000000000000000000 PUSH1 0x20 DUP3 ADD MSTORE POP JUMP JUMPDEST PUSH1 0x0 PUSH2 0x1872 PUSH1 0x2F DUP4 PUSH2 0x12A7 JUMP JUMPDEST SWAP2 POP PUSH2 0x187D DUP3 PUSH2 0x1816 JUMP JUMPDEST PUSH1 0x40 DUP3 ADD SWAP1 POP SWAP2 SWAP1 POP JUMP JUMPDEST PUSH1 0x0 PUSH1 0x20 DUP3 ADD SWAP1 POP DUP2 DUP2 SUB PUSH1 0x0 DUP4 ADD MSTORE PUSH2 0x18A1 DUP2 PUSH2 0x1865 JUMP JUMPDEST SWAP1 POP SWAP2 SWAP1 POP JUMP JUMPDEST PUSH32 0x74686520737570706C7920697320616C7265616479206275726E656400000000 PUSH1 0x0 DUP3 ADD MSTORE POP JUMP JUMPDEST PUSH1 0x0 PUSH2 0x18DE PUSH1 0x1C DUP4 PUSH2 0x12A7 JUMP JUMPDEST SWAP2 POP PUSH2 0x18E9 DUP3 PUSH2 0x18A8 JUMP JUMPDEST PUSH1 0x20 DUP3 ADD SWAP1 POP SWAP2 SWAP1 POP JUMP JUMPDEST PUSH1 0x0 PUSH1 0x20 DUP3 ADD SWAP1 POP DUP2 DUP2 SUB PUSH1 0x0 DUP4 ADD MSTORE PUSH2 0x190D DUP2 PUSH2 0x18D1 JUMP JUMPDEST SWAP1 POP SWAP2 SWAP1 POP JUMP JUMPDEST PUSH1 0x0 PUSH2 0x191F DUP3 PUSH2 0x1471 JUMP JUMPDEST SWAP2 POP PUSH2 0x192A DUP4 PUSH2 0x1471 JUMP JUMPDEST SWAP3 POP DUP3 DUP3 SUB SWAP1 POP DUP2 DUP2 GT ISZERO PUSH2 0x1942 JUMPI PUSH2 0x1941 PUSH2 0x164A JUMP JUMPDEST JUMPDEST SWAP3 SWAP2 POP POP JUMP JUMPDEST PUSH1 0x0 DUP2 SWAP1 POP SWAP3 SWAP2 POP POP JUMP JUMPDEST PUSH32 0x416363657373436F6E74726F6C3A206163636F756E7420000000000000000000 PUSH1 0x0 DUP3 ADD MSTORE POP JUMP JUMPDEST PUSH1 0x0 PUSH2 0x1989 PUSH1 0x17 DUP4 PUSH2 0x1948 JUMP JUMPDEST SWAP2 POP PUSH2 0x1994 DUP3 PUSH2 0x1953 JUMP JUMPDEST PUSH1 0x17 DUP3 ADD SWAP1 POP SWAP2 SWAP1 POP JUMP JUMPDEST PUSH1 0x0 DUP2 MLOAD SWAP1 POP SWAP2 SWAP1 POP JUMP JUMPDEST PUSH1 0x0 JUMPDEST DUP4 DUP2 LT ISZERO PUSH2 0x19C8 JUMPI DUP1 DUP3 ADD MLOAD DUP2 DUP5 ADD MSTORE PUSH1 0x20 DUP2 ADD SWAP1 POP PUSH2 0x19AD JUMP JUMPDEST PUSH1 0x0 DUP5 DUP5 ADD MSTORE POP POP POP POP JUMP JUMPDEST PUSH1 0x0 PUSH2 0x19DF DUP3 PUSH2 0x199F JUMP JUMPDEST PUSH2 0x19E9 DUP2 DUP6 PUSH2 0x1948 JUMP JUMPDEST SWAP4 POP PUSH2 0x19F9 DUP2 DUP6 PUSH1 0x20 DUP7 ADD PUSH2 0x19AA JUMP JUMPDEST DUP1 DUP5 ADD SWAP2 POP POP SWAP3 SWAP2 POP POP JUMP JUMPDEST PUSH32 0x206973206D697373696E6720726F6C6520000000000000000000000000000000 PUSH1 0x0 DUP3 ADD MSTORE POP JUMP JUMPDEST PUSH1 0x0 PUSH2 0x1A3B PUSH1 0x11 DUP4 PUSH2 0x1948 JUMP JUMPDEST SWAP2 POP PUSH2 0x1A46 DUP3 PUSH2 0x1A05 JUMP JUMPDEST PUSH1 0x11 DUP3 ADD SWAP1 POP SWAP2 SWAP1 POP JUMP JUMPDEST PUSH1 0x0 PUSH2 0x1A5C DUP3 PUSH2 0x197C JUMP JUMPDEST SWAP2 POP PUSH2 0x1A68 DUP3 DUP6 PUSH2 0x19D4 JUMP JUMPDEST SWAP2 POP PUSH2 0x1A73 DUP3 PUSH2 0x1A2E JUMP JUMPDEST SWAP2 POP PUSH2 0x1A7F DUP3 DUP5 PUSH2 0x19D4 JUMP JUMPDEST SWAP2 POP DUP2 SWAP1 POP SWAP4 SWAP3 POP POP POP JUMP JUMPDEST PUSH1 0x0 PUSH1 0x1F NOT PUSH1 0x1F DUP4 ADD AND SWAP1 POP SWAP2 SWAP1 POP JUMP JUMPDEST PUSH1 0x0 PUSH2 0x1AA7 DUP3 PUSH2 0x199F JUMP JUMPDEST PUSH2 0x1AB1 DUP2 DUP6 PUSH2 0x12A7 JUMP JUMPDEST SWAP4 POP PUSH2 0x1AC1 DUP2 DUP6 PUSH1 0x20 DUP7 ADD PUSH2 0x19AA JUMP JUMPDEST PUSH2 0x1ACA DUP2 PUSH2 0x1A8B JUMP JUMPDEST DUP5 ADD SWAP2 POP POP SWAP3 SWAP2 POP POP JUMP JUMPDEST PUSH1 0x0 PUSH1 0x20 DUP3 ADD SWAP1 POP DUP2 DUP2 SUB PUSH1 0x0 DUP4 ADD MSTORE PUSH2 0x1AEF DUP2 DUP5 PUSH2 0x1A9C JUMP JUMPDEST SWAP1 POP SWAP3 SWAP2 POP POP JUMP JUMPDEST PUSH32 0x4E487B7100000000000000000000000000000000000000000000000000000000 PUSH1 0x0 MSTORE PUSH1 0x41 PUSH1 0x4 MSTORE PUSH1 0x24 PUSH1 0x0 REVERT JUMPDEST PUSH32 0x4E487B7100000000000000000000000000000000000000000000000000000000 PUSH1 0x0 MSTORE PUSH1 0x32 PUSH1 0x4 MSTORE PUSH1 0x24 PUSH1 0x0 REVERT JUMPDEST PUSH1 0x0 PUSH2 0x1B60 DUP3 PUSH2 0x1471 JUMP JUMPDEST SWAP2 POP PUSH1 0x0 DUP3 SUB PUSH2 0x1B73 JUMPI PUSH2 0x1B72 PUSH2 0x164A JUMP JUMPDEST JUMPDEST PUSH1 0x1 DUP3 SUB SWAP1 POP SWAP2 SWAP1 POP JUMP JUMPDEST PUSH32 0x537472696E67733A20686578206C656E67746820696E73756666696369656E74 PUSH1 0x0 DUP3 ADD MSTORE POP JUMP JUMPDEST PUSH1 0x0 PUSH2 0x1BB4 PUSH1 0x20 DUP4 PUSH2 0x12A7 JUMP JUMPDEST SWAP2 POP PUSH2 0x1BBF DUP3 PUSH2 0x1B7E JUMP JUMPDEST PUSH1 0x20 DUP3 ADD SWAP1 POP SWAP2 SWAP1 POP JUMP JUMPDEST PUSH1 0x0 PUSH1 0x20 DUP3 ADD SWAP1 POP DUP2 DUP2 SUB PUSH1 0x0 DUP4 ADD MSTORE PUSH2 0x1BE3 DUP2 PUSH2 0x1BA7 JUMP JUMPDEST SWAP1 POP SWAP2 SWAP1 POP JUMP JUMPDEST PUSH32 0x4E487B7100000000000000000000000000000000000000000000000000000000 PUSH1 0x0 MSTORE PUSH1 0x12 PUSH1 0x4 MSTORE PUSH1 0x24 PUSH1 0x0 REVERT JUMPDEST PUSH1 0x0 PUSH2 0x1C24 DUP3 PUSH2 0x1471 JUMP JUMPDEST SWAP2 POP PUSH2 0x1C2F DUP4 PUSH2 0x1471 JUMP JUMPDEST SWAP3 POP DUP3 PUSH2 0x1C3F JUMPI PUSH2 0x1C3E PUSH2 0x1BEA JUMP JUMPDEST JUMPDEST DUP3 DUP3 DIV SWAP1 POP SWAP3 SWAP2 POP POP JUMP INVALID LOG2 PUSH5 0x6970667358 0x22 SLT KECCAK256 DUP2 0x4A DUP11 SWAP9 0xEE REVERT 0x24 0xB4 0xB8 DUP14 0xA9 LOG1 0xE1 RETURNDATASIZE 0xF ADDRESS 0xF PUSH28 0x6D1D6C4390631A481F9D87B6808A64736F6C63430008110033000000 "
		},
		"gasEstimates": {
			"creation": {
				"codeDepositCost": "1459200",
				"executionCost": "infinite",
				"totalCost": "infinite"
			},
			"external": {
				"BURNER_ROLE()": "397",
				"DEFAULT_ADMIN_ROLE()": "357",
				"EXTEND_ICO_ROLE()": "395",
				"INVESTOR_ROLE()": "374",
				"burned()": "2502",
				"buy()": "infinite",
				"endICO()": "infinite",
				"getRoleAdmin(bytes32)": "infinite",
				"grantRole(bytes32,address)": "infinite",
				"hasRole(bytes32,address)": "3207",
				"renounceRole(bytes32,address)": "infinite",
				"revokeRole(bytes32,address)": "infinite",
				"supportsInterface(bytes4)": "751",
				"withdraw(uint256)": "infinite"
			},
			"internal": {
				"addLiquidity()": "infinite",
				"conversion(uint256)": "infinite",
				"createPool(address)": "infinite",
				"pairFor(address,address,address)": "infinite",
				"percentFromICO(uint256)": "infinite",
				"soldPercent()": "infinite",
				"sortTokens(address,address)": "infinite"
			}
		},
		"methodIdentifiers": {
			"BURNER_ROLE()": "282c51f3",
			"DEFAULT_ADMIN_ROLE()": "a217fddf",
			"EXTEND_ICO_ROLE()": "b1ac51f8",
			"INVESTOR_ROLE()": "76082a5e",
			"burned()": "73f42561",
			"buy()": "a6f2ae3a",
			"endICO()": "4f248409",
			"getRoleAdmin(bytes32)": "248a9ca3",
			"grantRole(bytes32,address)": "2f2ff15d",
			"hasRole(bytes32,address)": "91d14854",
			"renounceRole(bytes32,address)": "36568abe",
			"revokeRole(bytes32,address)": "d547741f",
			"supportsInterface(bytes4)": "01ffc9a7",
			"withdraw(uint256)": "2e1a7d4d"
		}
	},
	"abi": [
		{
			"inputs": [
				{
					"internalType": "address",
					"name": "_eftt",
					"type": "address"
				},
				{
					"internalType": "address",
					"name": "_dev",
					"type": "address"
				}
			],
			"stateMutability": "payable",
			"type": "constructor"
		},
		{
			"anonymous": false,
			"inputs": [
				{
					"indexed": false,
					"internalType": "uint256",
					"name": "",
					"type": "uint256"
				}
			],
			"name": "Burned",
			"type": "event"
		},
		{
			"anonymous": false,
			"inputs": [
				{
					"indexed": false,
					"internalType": "string",
					"name": "func",
					"type": "string"
				}
			],
			"name": "Log",
			"type": "event"
		},
		{
			"anonymous": false,
			"inputs": [
				{
					"indexed": true,
					"internalType": "bytes32",
					"name": "role",
					"type": "bytes32"
				},
				{
					"indexed": true,
					"internalType": "bytes32",
					"name": "previousAdminRole",
					"type": "bytes32"
				},
				{
					"indexed": true,
					"internalType": "bytes32",
					"name": "newAdminRole",
					"type": "bytes32"
				}
			],
			"name": "RoleAdminChanged",
			"type": "event"
		},
		{
			"anonymous": false,
			"inputs": [
				{
					"indexed": true,
					"internalType": "bytes32",
					"name": "role",
					"type": "bytes32"
				},
				{
					"indexed": true,
					"internalType": "address",
					"name": "account",
					"type": "address"
				},
				{
					"indexed": true,
					"internalType": "address",
					"name": "sender",
					"type": "address"
				}
			],
			"name": "RoleGranted",
			"type": "event"
		},
		{
			"anonymous": false,
			"inputs": [
				{
					"indexed": true,
					"internalType": "bytes32",
					"name": "role",
					"type": "bytes32"
				},
				{
					"indexed": true,
					"internalType": "address",
					"name": "account",
					"type": "address"
				},
				{
					"indexed": true,
					"internalType": "address",
					"name": "sender",
					"type": "address"
				}
			],
			"name": "RoleRevoked",
			"type": "event"
		},
		{
			"anonymous": false,
			"inputs": [
				{
					"indexed": false,
					"internalType": "uint256",
					"name": "",
					"type": "uint256"
				}
			],
			"name": "Sold",
			"type": "event"
		},
		{
			"inputs": [],
			"name": "BURNER_ROLE",
			"outputs": [
				{
					"internalType": "bytes32",
					"name": "",
					"type": "bytes32"
				}
			],
			"stateMutability": "view",
			"type": "function"
		},
		{
			"inputs": [],
			"name": "DEFAULT_ADMIN_ROLE",
			"outputs": [
				{
					"internalType": "bytes32",
					"name": "",
					"type": "bytes32"
				}
			],
			"stateMutability": "view",
			"type": "function"
		},
		{
			"inputs": [],
			"name": "EXTEND_ICO_ROLE",
			"outputs": [
				{
					"internalType": "bytes32",
					"name": "",
					"type": "bytes32"
				}
			],
			"stateMutability": "view",
			"type": "function"
		},
		{
			"inputs": [],
			"name": "INVESTOR_ROLE",
			"outputs": [
				{
					"internalType": "bytes32",
					"name": "",
					"type": "bytes32"
				}
			],
			"stateMutability": "view",
			"type": "function"
		},
		{
			"inputs": [],
			"name": "burned",
			"outputs": [
				{
					"internalType": "bool",
					"name": "",
					"type": "bool"
				}
			],
			"stateMutability": "view",
			"type": "function"
		},
		{
			"inputs": [],
			"name": "buy",
			"outputs": [
				{
					"internalType": "bool",
					"name": "",
					"type": "bool"
				}
			],
			"stateMutability": "payable",
			"type": "function"
		},
		{
			"inputs": [],
			"name": "endICO",
			"outputs": [],
			"stateMutability": "nonpayable",
			"type": "function"
		},
		{
			"inputs": [
				{
					"internalType": "bytes32",
					"name": "role",
					"type": "bytes32"
				}
			],
			"name": "getRoleAdmin",
			"outputs": [
				{
					"internalType": "bytes32",
					"name": "",
					"type": "bytes32"
				}
			],
			"stateMutability": "view",
			"type": "function"
		},
		{
			"inputs": [
				{
					"internalType": "bytes32",
					"name": "role",
					"type": "bytes32"
				},
				{
					"internalType": "address",
					"name": "account",
					"type": "address"
				}
			],
			"name": "grantRole",
			"outputs": [],
			"stateMutability": "nonpayable",
			"type": "function"
		},
		{
			"inputs": [
				{
					"internalType": "bytes32",
					"name": "role",
					"type": "bytes32"
				},
				{
					"internalType": "address",
					"name": "account",
					"type": "address"
				}
			],
			"name": "hasRole",
			"outputs": [
				{
					"internalType": "bool",
					"name": "",
					"type": "bool"
				}
			],
			"stateMutability": "view",
			"type": "function"
		},
		{
			"inputs": [
				{
					"internalType": "bytes32",
					"name": "role",
					"type": "bytes32"
				},
				{
					"internalType": "address",
					"name": "account",
					"type": "address"
				}
			],
			"name": "renounceRole",
			"outputs": [],
			"stateMutability": "nonpayable",
			"type": "function"
		},
		{
			"inputs": [
				{
					"internalType": "bytes32",
					"name": "role",
					"type": "bytes32"
				},
				{
					"internalType": "address",
					"name": "account",
					"type": "address"
				}
			],
			"name": "revokeRole",
			"outputs": [],
			"stateMutability": "nonpayable",
			"type": "function"
		},
		{
			"inputs": [
				{
					"internalType": "bytes4",
					"name": "interfaceId",
					"type": "bytes4"
				}
			],
			"name": "supportsInterface",
			"outputs": [
				{
					"internalType": "bool",
					"name": "",
					"type": "bool"
				}
			],
			"stateMutability": "view",
			"type": "function"
		},
		{
			"inputs": [
				{
					"internalType": "uint256",
					"name": "_amnt",
					"type": "uint256"
				}
			],
			"name": "withdraw",
			"outputs": [],
			"stateMutability": "nonpayable",
			"type": "function"
		},
		{
			"stateMutability": "payable",
			"type": "receive"
		}
	]
}